{"src/PositionVault.sol":{"PositionVault":{"abi":[{"inputs":[],"stateMutability":"nonpayable","type":"constructor"},{"inputs":[],"name":"BadKey","type":"error"},{"inputs":[],"name":"BadLeverage","type":"error"},{"inputs":[],"name":"BadState","type":"error"},{"inputs":[],"name":"BelowMinCollateral","type":"error"},{"inputs":[],"name":"ExceedsMaxLTV","type":"error"},{"inputs":[],"name":"InsufficientExecFee","type":"error"},{"inputs":[],"name":"InvalidInitialization","type":"error"},{"inputs":[],"name":"NotGmx","type":"error"},{"inputs":[],"name":"NotInitializing","type":"error"},{"inputs":[],"name":"NotLiquidatable","type":"error"},{"inputs":[],"name":"NotOwner","type":"error"},{"inputs":[],"name":"NotRedeemable","type":"error"},{"inputs":[],"name":"NotTimedOut","type":"error"},{"inputs":[],"name":"OutstandingDebt","type":"error"},{"inputs":[],"name":"ReentrancyGuardReentrantCall","type":"error"},{"inputs":[{"internalType":"address","name":"token","type":"address"}],"name":"SafeERC20FailedOperation","type":"error"},{"anonymous":false,"inputs":[{"indexed":true,"internalType":"address","name":"vault","type":"address"},{"indexed":false,"internalType":"uint256","name":"shortfallUsdc","type":"uint256"}],"name":"BadDebt","type":"event"},{"anonymous":false,"inputs":[{"indexed":true,"internalType":"address","name":"vault","type":"address"},{"indexed":false,"internalType":"uint256","name":"returned","type":"uint256"}],"name":"Closed","type":"event"},{"anonymous":false,"inputs":[{"indexed":true,"internalType":"address","name":"vault","type":"address"},{"indexed":false,"internalType":"uint256","name":"amount","type":"uint256"}],"name":"CollateralDeposited","type":"event"},{"anonymous":false,"inputs":[{"indexed":true,"internalType":"address","name":"vault","type":"address"},{"indexed":false,"internalType":"bytes32","name":"orderKey","type":"bytes32"},{"indexed":false,"internalType":"uint8","name":"kind","type":"uint8"}],"name":"ConditionalOrderCancelled","type":"event"},{"anonymous":false,"inputs":[{"indexed":true,"internalType":"address","name":"vault","type":"address"},{"indexed":false,"internalType":"uint256","name":"toTreasuryUsdc","type":"uint256"}],"name":"FeesSettled","type":"event"},{"anonymous":false,"inputs":[{"indexed":false,"internalType":"uint64","name":"version","type":"uint64"}],"name":"Initialized","type":"event"},{"anonymous":false,"inputs":[{"indexed":true,"internalType":"address","name":"vault","type":"address"},{"indexed":false,"internalType":"uint256","name":"debtRepaidUsdc","type":"uint256"},{"indexed":false,"internalType":"uint256","name":"refundUsdc","type":"uint256"}],"name":"Liquidated","type":"event"},{"anonymous":false,"inputs":[{"indexed":true,"internalType":"address","name":"vault","type":"address"},{"indexed":false,"internalType":"bytes32","name":"orderKey","type":"bytes32"},{"indexed":false,"internalType":"uint8","name":"kind","type":"uint8"}],"name":"PositionCloseRequested","type":"event"},{"anonymous":false,"inputs":[{"indexed":true,"internalType":"address","name":"vault","type":"address"},{"indexed":false,"internalType":"bytes32","name":"orderKey","type":"bytes32"}],"name":"PositionOpenFailed","type":"event"},{"anonymous":false,"inputs":[{"indexed":true,"internalType":"address","name":"vault","type":"address"},{"indexed":false,"internalType":"bytes32","name":"orderKey","type":"bytes32"},{"indexed":false,"internalType":"uint8","name":"leverage","type":"uint8"},{"indexed":false,"internalType":"bool","name":"isLong","type":"bool"}],"name":"PositionOpenRequested","type":"event"},{"anonymous":false,"inputs":[{"indexed":true,"internalType":"address","name":"vault","type":"address"},{"indexed":false,"internalType":"bytes32","name":"posKey","type":"bytes32"}],"name":"PositionOpened","type":"event"},{"anonymous":false,"inputs":[{"indexed":true,"internalType":"address","name":"vault","type":"address"},{"indexed":false,"internalType":"uint256","name":"amount","type":"uint256"}],"name":"RBTCMinted","type":"event"},{"anonymous":false,"inputs":[{"indexed":true,"internalType":"address","name":"vault","type":"address"},{"indexed":false,"internalType":"uint256","name":"amount","type":"uint256"}],"name":"RBTCRepaid","type":"event"},{"anonymous":false,"inputs":[{"indexed":true,"internalType":"address","name":"vault","type":"address"},{"indexed":true,"internalType":"address","name":"redeemer","type":"address"},{"indexed":false,"internalType":"uint256","name":"rTokenAmount","type":"uint256"},{"indexed":false,"internalType":"uint256","name":"usdcOut","type":"uint256"},{"indexed":false,"internalType":"uint256","name":"feeUsdc","type":"uint256"}],"name":"Redeemed","type":"event"},{"anonymous":false,"inputs":[{"indexed":true,"internalType":"address","name":"vault","type":"address"},{"indexed":false,"internalType":"bytes32","name":"orderKey","type":"bytes32"},{"indexed":false,"internalType":"uint256","name":"triggerPrice8","type":"uint256"}],"name":"StopLossSet","type":"event"},{"anonymous":false,"inputs":[{"indexed":true,"internalType":"address","name":"vault","type":"address"},{"indexed":false,"internalType":"bytes32","name":"orderKey","type":"bytes32"}],"name":"StuckOrderRecovered","type":"event"},{"anonymous":false,"inputs":[{"indexed":true,"internalType":"address","name":"vault","type":"address"},{"indexed":false,"internalType":"bytes32","name":"orderKey","type":"bytes32"},{"indexed":false,"internalType":"uint256","name":"triggerPrice8","type":"uint256"}],"name":"TakeProfitSet","type":"event"},{"inputs":[],"name":"accruedFeesUsdc","outputs":[{"internalType":"uint256","name":"","type":"uint256"}],"stateMutability":"view","type":"function"},{"inputs":[{"internalType":"bytes32","name":"orderKey","type":"bytes32"}],"name":"afterOrderCancellation","outputs":[],"stateMutability":"nonpayable","type":"function"},{"inputs":[{"internalType":"bytes32","name":"orderKey","type":"bytes32"}],"name":"afterOrderExecution","outputs":[],"stateMutability":"nonpayable","type":"function"},{"inputs":[],"name":"bufferBps","outputs":[{"internalType":"uint16","name":"","type":"uint16"}],"stateMutability":"view","type":"function"},{"inputs":[],"name":"cancelLimitOrder","outputs":[],"stateMutability":"nonpayable","type":"function"},{"inputs":[],"name":"cancelStopLoss","outputs":[],"stateMutability":"nonpayable","type":"function"},{"inputs":[],"name":"cancelStuckOrder","outputs":[],"stateMutability":"nonpayable","type":"function"},{"inputs":[],"name":"cancelTakeProfit","outputs":[],"stateMutability":"nonpayable","type":"function"},{"inputs":[],"name":"closePosition","outputs":[],"stateMutability":"payable","type":"function"},{"inputs":[],"name":"collateral","outputs":[{"internalType":"uint256","name":"","type":"uint256"}],"stateMutability":"view","type":"function"},{"inputs":[],"name":"collateralValueUsdWad","outputs":[{"internalType":"uint256","name":"","type":"uint256"}],"stateMutability":"view","type":"function"},{"inputs":[],"name":"currentLTV","outputs":[{"internalType":"uint256","name":"","type":"uint256"}],"stateMutability":"view","type":"function"},{"inputs":[],"name":"debt","outputs":[{"internalType":"uint256","name":"","type":"uint256"}],"stateMutability":"view","type":"function"},{"inputs":[],"name":"debtValueUsdWad","outputs":[{"internalType":"uint256","name":"","type":"uint256"}],"stateMutability":"view","type":"function"},{"inputs":[{"internalType":"uint256","name":"usdcAmount","type":"uint256"}],"name":"deposit","outputs":[],"stateMutability":"nonpayable","type":"function"},{"inputs":[],"name":"effectiveMaxLtvBps","outputs":[{"internalType":"uint256","name":"","type":"uint256"}],"stateMutability":"view","type":"function"},{"inputs":[],"name":"factory","outputs":[{"internalType":"address","name":"","type":"address"}],"stateMutability":"view","type":"function"},{"inputs":[],"name":"flatTier","outputs":[{"internalType":"uint8","name":"","type":"uint8"}],"stateMutability":"view","type":"function"},{"inputs":[],"name":"gmx","outputs":[{"internalType":"contract IGmxAdapter","name":"","type":"address"}],"stateMutability":"view","type":"function"},{"inputs":[],"name":"gmxPosition","outputs":[{"components":[{"internalType":"bool","name":"exists","type":"bool"},{"internalType":"uint256","name":"sizeInUsd","type":"uint256"},{"internalType":"uint256","name":"collateralAmount","type":"uint256"},{"internalType":"uint256","name":"entryPrice8","type":"uint256"}],"internalType":"struct IGmxAdapter.GmxPositionData","name":"","type":"tuple"}],"stateMutability":"view","type":"function"},{"inputs":[],"name":"healthFactor","outputs":[{"internalType":"uint256","name":"","type":"uint256"}],"stateMutability":"view","type":"function"},{"inputs":[{"internalType":"address","name":"owner_","type":"address"},{"internalType":"address","name":"factory_","type":"address"},{"internalType":"contract IGmxAdapter","name":"gmx_","type":"address"},{"internalType":"contract IPriceOracle","name":"oracle_","type":"address"},{"internalType":"address","name":"usdc_","type":"address"},{"internalType":"address","name":"rToken_","type":"address"},{"internalType":"bytes32","name":"marketId_","type":"bytes32"},{"components":[{"internalType":"uint16","name":"maxLtv1xBps","type":"uint16"},{"internalType":"uint16","name":"bufferBps","type":"uint16"},{"internalType":"uint16","name":"maxLtvAtMaxLevBps","type":"uint16"},{"internalType":"uint8","name":"flatTier","type":"uint8"},{"internalType":"uint8","name":"maxLeverage","type":"uint8"}],"internalType":"struct RiskParams","name":"risk","type":"tuple"}],"name":"initialize","outputs":[],"stateMutability":"nonpayable","type":"function"},{"inputs":[],"name":"isLong","outputs":[{"internalType":"bool","name":"","type":"bool"}],"stateMutability":"view","type":"function"},{"inputs":[],"name":"isRedeemable","outputs":[{"internalType":"bool","name":"","type":"bool"}],"stateMutability":"view","type":"function"},{"inputs":[],"name":"lastAccrual","outputs":[{"internalType":"uint256","name":"","type":"uint256"}],"stateMutability":"view","type":"function"},{"inputs":[],"name":"leverage","outputs":[{"internalType":"uint8","name":"","type":"uint8"}],"stateMutability":"view","type":"function"},{"inputs":[],"name":"liquidate","outputs":[],"stateMutability":"payable","type":"function"},{"inputs":[],"name":"liquidator","outputs":[{"internalType":"address","name":"","type":"address"}],"stateMutability":"view","type":"function"},{"inputs":[],"name":"lltvBps","outputs":[{"internalType":"uint256","name":"","type":"uint256"}],"stateMutability":"view","type":"function"},{"inputs":[],"name":"marketId","outputs":[{"internalType":"bytes32","name":"","type":"bytes32"}],"stateMutability":"view","type":"function"},{"inputs":[],"name":"maxLeverage","outputs":[{"internalType":"uint8","name":"","type":"uint8"}],"stateMutability":"view","type":"function"},{"inputs":[],"name":"maxLtv1xBps","outputs":[{"internalType":"uint16","name":"","type":"uint16"}],"stateMutability":"view","type":"function"},{"inputs":[],"name":"maxLtvAtMaxLevBps","outputs":[{"internalType":"uint16","name":"","type":"uint16"}],"stateMutability":"view","type":"function"},{"inputs":[{"internalType":"uint256","name":"rBtcAmount","type":"uint256"}],"name":"mint","outputs":[],"stateMutability":"nonpayable","type":"function"},{"inputs":[{"internalType":"uint8","name":"leverage_","type":"uint8"},{"internalType":"uint256","name":"triggerPrice8","type":"uint256"},{"internalType":"bool","name":"isLong_","type":"bool"}],"name":"openLimitPosition","outputs":[],"stateMutability":"payable","type":"function"},{"inputs":[{"internalType":"uint8","name":"leverage_","type":"uint8"},{"internalType":"bool","name":"isLong_","type":"bool"}],"name":"openPosition","outputs":[],"stateMutability":"payable","type":"function"},{"inputs":[],"name":"oracle","outputs":[{"internalType":"contract IPriceOracle","name":"","type":"address"}],"stateMutability":"view","type":"function"},{"inputs":[],"name":"owner","outputs":[{"internalType":"address","name":"","type":"address"}],"stateMutability":"view","type":"function"},{"inputs":[],"name":"pending","outputs":[{"internalType":"enum OrderKind","name":"kind","type":"uint8"},{"internalType":"bytes32","name":"orderKey","type":"bytes32"},{"internalType":"uint256","name":"createdAt","type":"uint256"}],"stateMutability":"view","type":"function"},{"inputs":[],"name":"pendingFeesUsdc","outputs":[{"internalType":"uint256","name":"","type":"uint256"}],"stateMutability":"view","type":"function"},{"inputs":[],"name":"posKey","outputs":[{"internalType":"bytes32","name":"","type":"bytes32"}],"stateMutability":"view","type":"function"},{"inputs":[],"name":"rToken","outputs":[{"internalType":"contract IRToken","name":"","type":"address"}],"stateMutability":"view","type":"function"},{"inputs":[{"internalType":"uint256","name":"rTokenAmount","type":"uint256"}],"name":"redeem","outputs":[],"stateMutability":"nonpayable","type":"function"},{"inputs":[{"internalType":"uint256","name":"rBtcAmount","type":"uint256"}],"name":"repay","outputs":[],"stateMutability":"nonpayable","type":"function"},{"inputs":[],"name":"rltBps","outputs":[{"internalType":"uint256","name":"","type":"uint256"}],"stateMutability":"view","type":"function"},{"inputs":[{"internalType":"uint256","name":"triggerPrice8","type":"uint256"}],"name":"setStopLoss","outputs":[],"stateMutability":"payable","type":"function"},{"inputs":[{"internalType":"uint256","name":"triggerPrice8","type":"uint256"}],"name":"setTakeProfit","outputs":[],"stateMutability":"payable","type":"function"},{"inputs":[],"name":"slOrderKey","outputs":[{"internalType":"bytes32","name":"","type":"bytes32"}],"stateMutability":"view","type":"function"},{"inputs":[],"name":"state","outputs":[{"internalType":"enum VaultState","name":"","type":"uint8"}],"stateMutability":"view","type":"function"},{"inputs":[],"name":"tpOrderKey","outputs":[{"internalType":"bytes32","name":"","type":"bytes32"}],"stateMutability":"view","type":"function"},{"inputs":[],"name":"usdc","outputs":[{"internalType":"contract IERC20","name":"","type":"address"}],"stateMutability":"view","type":"function"},{"inputs":[],"name":"vaultInfo","outputs":[{"components":[{"internalType":"address","name":"owner","type":"address"},{"internalType":"bytes32","name":"marketId","type":"bytes32"},{"internalType":"enum VaultState","name":"state","type":"uint8"},{"internalType":"uint8","name":"leverage","type":"uint8"},{"internalType":"bool","name":"isLong","type":"bool"},{"internalType":"bytes32","name":"posKey","type":"bytes32"},{"internalType":"uint256","name":"collateralUsdc","type":"uint256"},{"internalType":"uint256","name":"debtRToken","type":"uint256"},{"internalType":"enum OrderKind","name":"pendingKind","type":"uint8"},{"internalType":"bytes32","name":"pendingOrderKey","type":"bytes32"},{"internalType":"uint256","name":"pendingCreatedAt","type":"uint256"},{"internalType":"uint16","name":"maxLtv1xBps","type":"uint16"},{"internalType":"uint16","name":"bufferBps","type":"uint16"},{"internalType":"uint16","name":"maxLtvAtMaxLevBps","type":"uint16"},{"internalType":"uint8","name":"flatTier","type":"uint8"},{"internalType":"uint8","name":"maxLeverage","type":"uint8"},{"internalType":"uint256","name":"collateralValueUsdWad","type":"uint256"},{"internalType":"uint256","name":"debtValueUsdWad","type":"uint256"},{"internalType":"uint256","name":"currentLtvBps","type":"uint256"},{"internalType":"uint256","name":"healthFactorWad","type":"uint256"},{"internalType":"uint256","name":"lltvBps","type":"uint256"},{"internalType":"uint256","name":"rltBps","type":"uint256"},{"internalType":"uint256","name":"effectiveMaxLtvBps","type":"uint256"},{"internalType":"uint256","name":"oraclePrice8","type":"uint256"},{"internalType":"uint256","name":"pendingFeesUsdc","type":"uint256"},{"internalType":"bool","name":"isRedeemable","type":"bool"},{"internalType":"bool","name":"isLiquidatable","type":"bool"},{"internalType":"bytes32","name":"tpOrderKey","type":"bytes32"},{"internalType":"bytes32","name":"slOrderKey","type":"bytes32"},{"components":[{"internalType":"bool","name":"exists","type":"bool"},{"internalType":"uint256","name":"sizeInUsd","type":"uint256"},{"internalType":"uint256","name":"collateralAmount","type":"uint256"},{"internalType":"uint256","name":"entryPrice8","type":"uint256"}],"internalType":"struct VaultGmxPosition","name":"gmx","type":"tuple"}],"internalType":"struct VaultSnapshot","name":"s","type":"tuple"}],"stateMutability":"view","type":"function"},{"stateMutability":"payable","type":"receive"}],"evm":{"bytecode":{"linkReferences":{},"object":"60806040523480156200001157600080fd5b5060016000556200002162000027565b620000db565b7ff0c57e16840df040f15088dc2f81fe391c3923bec73e23a9662efc9c229c6a00805468010000000000000000900460ff1615620000785760405163f92ee8a960e01b815260040160405180910390fd5b80546001600160401b0390811614620000d85780546001600160401b0319166001600160401b0390811782556040519081527fc7f505b2f371ae2175ee4913f4499e1f2633a7b5936321eed1cdaeb6115181d29060200160405180910390a15b50565b61448980620000eb6000396000f3fe6080604052600436106103035760003560e01c80636ed71ede11610190578063b3604c96116100dc578063c45a015511610095578063e20ccec31161006f578063e20ccec314610857578063e4d755c314610888578063e525db201461089d578063f267378e146108b057600080fd5b8063c45a015514610801578063d8dfeb4514610821578063db006a751461083757600080fd5b8063b3604c9614610766578063b47b7b721461077b578063b6b55f2514610791578063c19d93fb146107b1578063c37b6337146107d8578063c393d0e3146107f957600080fd5b80638b52f5b111610149578063a7e566d011610123578063a7e566d0146106fa578063a83e12bd14610710578063ae3302c214610730578063af9205821461075157600080fd5b80638b52f5b1146106a75780638da5cb5b146106ba578063a0712d68146106da57600080fd5b80636ed71ede1461061d5780636fcd3ee7146106335780637aa3fa62146106485780637b3baab41461065e5780637dc0d1d0146106745780637dde818c1461069457600080fd5b806332335fbd1161024f57806341fcf163116102085780635987608c116101e25780635987608c146105bd5780635a88057f146105d35780635dd92cd5146105e85780635f8867ed1461060857600080fd5b806341fcf163146105665780634412a6b614610586578063501ec7381461059b57600080fd5b806332335fbd146104b657806333d40efa146104cb578063371fd8e6146104e65780633e413bee146105065780634046ebae1461052657806340c65f721461054657600080fd5b806328a07025116102bc5780632c86d98e116102965780632c86d98e146104145780632e2dbd2214610447578063311918ed1461046957806331e67c711461047e57600080fd5b806328a07025146103e457806328e72f97146103ec5780632a7584391461040157600080fd5b8063042e1b6b1461030f5780630dca59c11461034a578063202a61a11461036e5780632202ce8c1461039f57806322841f01146103b6578063286112d0146103cb57600080fd5b3661030a57005b600080fd5b34801561031b57600080fd5b5060085461033290640100000000900461ffff1681565b60405161ffff90911681526020015b60405180910390f35b34801561035657600080fd5b50610360600a5481565b604051908152602001610341565b34801561037a57600080fd5b5060085461038f90600160481b900460ff1681565b6040519015158152602001610341565b3480156103ab57600080fd5b506103b46108d1565b005b3480156103c257600080fd5b506103606109e5565b3480156103d757600080fd5b5060085461ffff16610360565b6103b4610a04565b3480156103f857600080fd5b50610360610bbc565b6103b461040f366004613f48565b610c02565b34801561042057600080fd5b5060085461043590600160401b900460ff1681565b60405160ff9091168152602001610341565b34801561045357600080fd5b5061045c610f77565b6040516103419190613f7f565b34801561047557600080fd5b5061036061102f565b34801561048a57600080fd5b5060035461049e906001600160a01b031681565b6040516001600160a01b039091168152602001610341565b3480156104c257600080fd5b506103606110ff565b3480156104d757600080fd5b506008546103329061ffff1681565b3480156104f257600080fd5b506103b4610501366004613fac565b611182565b34801561051257600080fd5b5060055461049e906001600160a01b031681565b34801561053257600080fd5b5060105461049e906001600160a01b031681565b34801561055257600080fd5b5060065461049e906001600160a01b031681565b34801561057257600080fd5b506103b4610581366004613fac565b61145f565b34801561059257600080fd5b506103606115eb565b3480156105a757600080fd5b506105b061163b565b6040516103419190613fff565b3480156105c957600080fd5b5061036060115481565b3480156105df57600080fd5b506103b4611ab0565b3480156105f457600080fd5b506103b46106033660046141d0565b611bd9565b34801561061457600080fd5b506103b4611ebe565b34801561062957600080fd5b5061036060075481565b34801561063f57600080fd5b506103b4611fc6565b34801561065457600080fd5b50610360600f5481565b34801561066a57600080fd5b5061036060125481565b34801561068057600080fd5b5060045461049e906001600160a01b031681565b6103b46106a2366004614278565b61217c565b6103b46106b5366004613fac565b6124d7565b3480156106c657600080fd5b5060015461049e906001600160a01b031681565b3480156106e657600080fd5b506103b46106f5366004613fac565b612706565b34801561070657600080fd5b5061036060145481565b34801561071c57600080fd5b506103b461072b366004613fac565b612a3a565b34801561073c57600080fd5b5060085461043590600160381b900460ff1681565b34801561075d57600080fd5b5061038f612c22565b34801561077257600080fd5b50610360612c64565b34801561078757600080fd5b5061036060135481565b34801561079d57600080fd5b506103b46107ac366004613fac565b612c81565b3480156107bd57600080fd5b50600b546107cb9060ff1681565b60405161034191906142b8565b3480156107e457600080fd5b506008546103329062010000900461ffff1681565b6103b4612e19565b34801561080d57600080fd5b5060025461049e906001600160a01b031681565b34801561082d57600080fd5b5061036060095481565b34801561084357600080fd5b506103b4610852366004613fac565b61304e565b34801561086357600080fd5b50600c54600d54600e546108799260ff16919083565b604051610341939291906142c6565b34801561089457600080fd5b50610360613337565b6103b46108ab366004613fac565b61339e565b3480156108bc57600080fd5b5060085461043590600160301b900460ff1681565b6001546001600160a01b031633146108fc576040516330cd747160e01b815260040160405180910390fd5b6109046135cd565b6001600b5460ff16600481111561091d5761091d613fc5565b1461093b57604051634291db1560e11b815260040160405180910390fd5b6004600c5460ff16600681111561095457610954613fc5565b1461097257604051634291db1560e11b815260040160405180910390fd5b600354600d54604051632f94cdd160e01b81526001600160a01b0390921691632f94cdd1916109a79160040190815260200190565b600060405180830381600087803b1580156109c157600080fd5b505af11580156109d5573d6000803e3d6000fd5b505050506109e36001600055565b565b60006109ff6109f2610bbc565b6109fa612c64565b6135f7565b905090565b610a0c6135cd565b6002600b5460ff166004811115610a2557610a25613fc5565b14610a4357604051634291db1560e11b815260040160405180910390fd5b655af3107a4000341015610a6a57604051633adc8fe760e21b815260040160405180910390fd5b6000610a74610bbc565b9050610a8781610a82612c64565b111590565b610aa457604051636ef5bcdd60e11b815260040160405180910390fd5b601080546001600160a01b03191633179055600354600f546040516372525e2360e01b81526000926001600160a01b0316916372525e23913491610aee9160040190815260200190565b60206040518083038185885af1158015610b0c573d6000803e3d6000fd5b50505050506040513d601f19601f82011682018060405250810190610b3191906142e5565b600b8054600360ff19918216811790925560408051606081018252838152602080820186905242918301829052600c80549094168517909355600d859055600e55805184815291820192909252815192935030927f69d62ed766febd9b36f4840f1349f992e6afea42ca344e8e19106c2dffe02f47929181900390910190a250506109e36001600055565b6000600a54600003610bce5750600090565b6000610bd861102f565b905080600003610beb5760001991505090565b610bfc81610bf76115eb565b613630565b91505090565b6001546001600160a01b03163314610c2d576040516330cd747160e01b815260040160405180910390fd5b600260009054906101000a90046001600160a01b03166001600160a01b0316635c975abb6040518163ffffffff1660e01b8152600401602060405180830381865afa158015610c80573d6000803e3d6000fd5b505050506040513d601f19601f82011682018060405250810190610ca491906142fe565b15610cc257604051634291db1560e11b815260040160405180910390fd5b610cca6135cd565b6000600b5460ff166004811115610ce357610ce3613fc5565b14610d0157604051634291db1560e11b815260040160405180910390fd5b620f42406009541015610d27576040516304dbfe8160e21b815260040160405180910390fd5b60018260ff161080610d48575060085460ff600160381b9091048116908316115b15610d665760405163522007a560e01b815260040160405180910390fd5b655af3107a4000341015610d8d57604051633adc8fe760e21b815260040160405180910390fd5b6008805461ffff60401b1916600160401b60ff85160260ff60481b191617600160481b83151502179055600354600954600554610dd8926001600160a01b0391821692911690613683565b6003546007546009546004805460408051634c6afee560e11b815290516000966001600160a01b039081169663b5b0862f963496919590949216926398d5fdca9280830192602092918290030181865afa158015610e3a573d6000803e3d6000fd5b505050506040513d601f19601f82011682018060405250810190610e5e91906142e5565b6040516001600160e01b031960e087901b16815260048101939093526024830191909152604482015260ff87166064820152851515608482015260a40160206040518083038185885af1158015610eb9573d6000803e3d6000fd5b50505050506040513d601f19601f82011682018060405250810190610ede91906142e5565b600b8054600160ff1991821681179092556040805160608082018352848252602080830187905242928401839052600c8054909516909517909355600d859055600e55805184815260ff8816938101939093528515159083015291925030917f4e3f6d3ee7e3781d95140a8c1bbb9e544ad186d11d46b416c5204053317e0489910160405180910390a250610f736001600055565b5050565b610fa460405180608001604052806000151581526020016000815260200160008152602001600081525090565b600354600754600854604051633157d9c760e01b81523060048201526024810192909252600160481b900460ff16151560448201526001600160a01b0390911690633157d9c790606401608060405180830381865afa15801561100b573d6000803e3d6000fd5b505050506040513d601f19601f820116820180604052508101906109ff9190614322565b60006002600b5460ff16600481111561104a5761104a613fc5565b148061106c57506003600b5460ff16600481111561106a5761106a613fc5565b145b80156110795750600f5415155b156110f457600354600f54604051634cb7c31960e01b81526001600160a01b0390921691634cb7c319916110b39160040190815260200190565b602060405180830381865afa1580156110d0573d6000803e3d6000fd5b505050506040513d601f19601f820116820180604052508101906109ff91906142e5565b6109ff600954613747565b60115460125460009190801580159061111a57506000600a54115b1561117c57600061112b82426143b5565b905061113d6301e133806127106143c8565b81609661115061114b6115eb565b613758565b61115a91906143c8565b61116491906143c8565b61116e91906143df565b6111789084614401565b9250505b50919050565b6001546001600160a01b031633146111ad576040516330cd747160e01b815260040160405180910390fd5b600260009054906101000a90046001600160a01b03166001600160a01b0316635c975abb6040518163ffffffff1660e01b8152600401602060405180830381865afa158015611200573d6000803e3d6000fd5b505050506040513d601f19601f8201168201806040525081019061122491906142fe565b1561124257604051634291db1560e11b815260040160405180910390fd5b61124a6135cd565b6002600b5460ff16600481111561126357611263613fc5565b1461128157604051634291db1560e11b815260040160405180910390fd5b6000600a5482116112925781611296565b600a545b9050600081116112e05760405162461bcd60e51b815260206004820152601060248201526f6e6f7468696e6720746f20726570617960801b60448201526064015b60405180910390fd5b6112e8613769565b612710601961137061114b84600460009054906101000a90046001600160a01b03166001600160a01b03166398d5fdca6040518163ffffffff1660e01b8152600401602060405180830381865afa158015611347573d6000803e3d6000fd5b505050506040513d601f19601f8201168201806040525081019061136b91906142e5565b6137f7565b61137a91906143c8565b61138491906143df565b601160008282546113959190614401565b9250508190555080600a60008282546113ae91906143b5565b9091555050600654600154604051632770a7eb60e21b81526001600160a01b03918216600482015260248101849052911690639dc29fac90604401600060405180830381600087803b15801561140357600080fd5b505af1158015611417573d6000803e3d6000fd5b50506040518381523092507f67e8ac554bbb94933f3083114f69364878cbb40d24a4581f68cb3da2167f492491506020015b60405180910390a25061145c6001600055565b50565b6003546001600160a01b0316331461148a576040516338a3cebb60e01b815260040160405180910390fd5b6114926135cd565b600d5481146114b45760405163ee9f2d5360e01b815260040160405180910390fd5b6001600c5460ff1660068111156114cd576114cd613fc5565b14806114ef57506004600c5460ff1660068111156114ed576114ed613fc5565b145b156115bd576005546040516370a0823160e01b81523060048201526001600160a01b03909116906370a0823190602401602060405180830381865afa15801561153c573d6000803e3d6000fd5b505050506040513d601f19601f8201168201806040525081019061156091906142e5565b600955600b805460ff19908116909155600c805490911690556000600d819055600e5560405181815230907f1850340de0c5a0c10cc6b290a43310eb90675d58de5d2406600a177679cd8ba59060200160405180910390a26115e1565b600b805460ff19908116600217909155600c805490911690556000600d819055600e555b61145c6001600055565b600a546004805460408051634c6afee560e11b815290516000946109ff9490936001600160a01b0316926398d5fdca92818301926020928290030181865afa158015611347573d6000803e3d6000fd5b61174d604080516103c081018252600080825260208083018290528284018290526060808401839052608080850184905260a0850184905260c0850184905260e08501849052610100850184905261012085018490526101408501849052610160850184905261018085018490526101a085018490526101c085018490526101e08501849052610200850184905261022085018490526102408501849052610260850184905261028085018490526102a085018490526102c085018490526102e08501849052610300850184905261032085018490526103408501849052610360850184905261038085018490528551908101865283815291820183905293810182905292830152906103a082015290565b6000611757612c64565b9050600061176860085461ffff1690565b9050600061177461102f565b905060006117806115eb565b9050600061178e838361384b565b600354600754600854604051633157d9c760e01b81523060048201526024810192909252600160481b900460ff16151560448201529192506000916001600160a01b0390911690633157d9c790606401608060405180830381865afa1580156117fb573d6000803e3d6000fd5b505050506040513d601f19601f8201168201806040525081019061181f9190614322565b6001546001600160a01b031688526007546020890152600b54909150604088019060ff16600481111561185457611854613fc5565b9081600481111561186757611867613fc5565b90525060085460ff600160401b8204811660608a0152600160481b909104811615156080890152600f5460a089015260095460c0890152600a5460e0890152600c546101008901911660068111156118c1576118c1613fc5565b908160068111156118d4576118d4613fc5565b905250600d54610120880152600e5461014088015260085461ffff8082166101608a015262010000820481166101808a01526401000000008204166101a089015260ff600160301b820481166101c08a0152600160381b909104166101e088015261020087018490526102208701839052610240870182905261195782876135f7565b61026088015261028087018690526102a08701859052611975613337565b6102c08801526004805460408051634c6afee560e11b815290516001600160a01b03909216926398d5fdca9282820192602092908290030181865afa1580156119c2573d6000803e3d6000fd5b505050506040513d601f19601f820116820180604052508101906119e691906142e5565b6102e08801526119f46110ff565b6103008801526002600b5460ff166004811115611a1357611a13613fc5565b148015611a265750611a2682868861387a565b15156103208801526002600b5460ff166004811115611a4757611a47613fc5565b148015611a545750818611155b151561034088015260135461036088015260145461038088015260408051608081018252825115158152602080840151908201528282015191810191909152606091820151918101919091526103a08701525093949350505050565b6001546001600160a01b03163314611adb576040516330cd747160e01b815260040160405180910390fd5b611ae36135cd565b60145480611b285760405162461bcd60e51b81526020600482015260126024820152712b30bab63a1d1037379029a61037b93232b960711b60448201526064016112d7565b6000601455600354604051632f94cdd160e01b8152600481018390526001600160a01b0390911690632f94cdd190602401600060405180830381600087803b158015611b7357600080fd5b505af1158015611b87573d6000803e3d6000fd5b503092507f7c008348cbdbebadba2266268371c327483e2efab9563ede3fedbb9a45c7c5a8915083905060065b6040805192835260ff90911660208301520160405180910390a2506109e36001600055565b6000611be3613893565b805490915060ff600160401b820416159067ffffffffffffffff16600081158015611c0b5750825b905060008267ffffffffffffffff166001148015611c285750303b155b905081158015611c36575080155b15611c545760405163f92ee8a960e01b815260040160405180910390fd5b845467ffffffffffffffff191660011785558315611c7e57845460ff60401b1916600160401b1785555b8c600160006101000a8154816001600160a01b0302191690836001600160a01b031602179055508b600260006101000a8154816001600160a01b0302191690836001600160a01b031602179055508a600360006101000a8154816001600160a01b0302191690836001600160a01b0316021790555089600460006101000a8154816001600160a01b0302191690836001600160a01b0316021790555088600560006101000a8154816001600160a01b0302191690836001600160a01b0316021790555087600660006101000a8154816001600160a01b0302191690836001600160a01b0316021790555086600781905550856000016020810190611d829190614414565b6008805461ffff191661ffff92909216919091179055611da86040870160208801614414565b6008805461ffff92909216620100000263ffff000019909216919091179055611dd76060870160408801614414565b6008805461ffff929092166401000000000265ffff0000000019909216919091179055611e0a6080870160608801614438565b6008805460ff92909216600160301b0266ff00000000000019909216919091179055611e3c60a0870160808801614438565b6008805460ff92909216600160381b0267ff0000000000000019909216919091179055600b805460ff191690558315611eaf57845460ff60401b19168555604051600181527fc7f505b2f371ae2175ee4913f4499e1f2633a7b5936321eed1cdaeb6115181d29060200160405180910390a15b50505050505050505050505050565b6001546001600160a01b03163314611ee9576040516330cd747160e01b815260040160405180910390fd5b611ef16135cd565b60135480611f365760405162461bcd60e51b81526020600482015260126024820152712b30bab63a1d103737902a281037b93232b960711b60448201526064016112d7565b6000601355600354604051632f94cdd160e01b8152600481018390526001600160a01b0390911690632f94cdd190602401600060405180830381600087803b158015611f8157600080fd5b505af1158015611f95573d6000803e3d6000fd5b503092507f7c008348cbdbebadba2266268371c327483e2efab9563ede3fedbb9a45c7c5a891508390506005611bb4565b600b5460ff166003816004811115611fe057611fe0613fc5565b1415801561200057506001816004811115611ffd57611ffd613fc5565b14155b1561201e57604051634291db1560e11b815260040160405180910390fd5b6004600c5460ff16600681111561203757612037613fc5565b0361205557604051634291db1560e11b815260040160405180910390fd5b600e546120659061012c90614401565b42116120845760405163828630fb60e01b815260040160405180910390fd5b600d8054600c805460ff19169055600091829055600e9190915560038260048111156120b2576120b2613fc5565b036120c957600b805460ff19166002179055612143565b6005546040516370a0823160e01b81523060048201526001600160a01b03909116906370a0823190602401602060405180830381865afa158015612111573d6000803e3d6000fd5b505050506040513d601f19601f8201168201806040525081019061213591906142e5565b600955600b805460ff191690555b60405181815230907fac6f236ab4d2206e338939c4173730e691402945cfb6a6c5584fecfb5eba4dfe9060200160405180910390a25050565b6001546001600160a01b031633146121a7576040516330cd747160e01b815260040160405180910390fd5b600260009054906101000a90046001600160a01b03166001600160a01b0316635c975abb6040518163ffffffff1660e01b8152600401602060405180830381865afa1580156121fa573d6000803e3d6000fd5b505050506040513d601f19601f8201168201806040525081019061221e91906142fe565b1561223c57604051634291db1560e11b815260040160405180910390fd5b6122446135cd565b6000600b5460ff16600481111561225d5761225d613fc5565b1461227b57604051634291db1560e11b815260040160405180910390fd5b620f424060095410156122a1576040516304dbfe8160e21b815260040160405180910390fd5b60018360ff1610806122c2575060085460ff600160381b9091048116908416115b156122e05760405163522007a560e01b815260040160405180910390fd5b655af3107a400034101561230757604051633adc8fe760e21b815260040160405180910390fd5b600082116123575760405162461bcd60e51b815260206004820152601760248201527f5661756c743a207a65726f206c696d697420707269636500000000000000000060448201526064016112d7565b6008805461ffff60401b1916600160401b60ff86160260ff60481b191617600160481b831515021790556003546009546005546123a2926001600160a01b0391821692911690613683565b600354600754600954604051630104aa8160e31b8152600481019290925260248201526044810184905260ff8516606482015282151560848201526000916001600160a01b031690630825540890349060a40160206040518083038185885af1158015612413573d6000803e3d6000fd5b50505050506040513d601f19601f8201168201806040525081019061243891906142e5565b600b8054600160ff199182161790915560408051606080820183526004808352602080840187905242938501849052600c8054909616909117909455600d859055600e91909155815184815260ff89169381019390935285151583830152905192935030927f4e3f6d3ee7e3781d95140a8c1bbb9e544ad186d11d46b416c5204053317e04899281900390910190a2506124d26001600055565b505050565b6001546001600160a01b03163314612502576040516330cd747160e01b815260040160405180910390fd5b600260009054906101000a90046001600160a01b03166001600160a01b0316635c975abb6040518163ffffffff1660e01b8152600401602060405180830381865afa158015612555573d6000803e3d6000fd5b505050506040513d601f19601f8201168201806040525081019061257991906142fe565b1561259757604051634291db1560e11b815260040160405180910390fd5b61259f6135cd565b6002600b5460ff1660048111156125b8576125b8613fc5565b146125d657604051634291db1560e11b815260040160405180910390fd5b655af3107a40003410156125fd57604051633adc8fe760e21b815260040160405180910390fd5b600081116126445760405162461bcd60e51b81526020600482015260146024820152735661756c743a207a65726f20545020707269636560601b60448201526064016112d7565b600354600f54604051633483bdd960e11b81526000926001600160a01b0316916369077bb2913491612683918790600401918252602082015260400190565b60206040518083038185885af11580156126a1573d6000803e3d6000fd5b50505050506040513d601f19601f820116820180604052508101906126c691906142e5565b6013819055604080518281526020810185905291925030917f44e28821089a6b1156324cbdba5ba5c2a16b5b2058557faa01c40bf3138bab259101611449565b6001546001600160a01b03163314612731576040516330cd747160e01b815260040160405180910390fd5b600260009054906101000a90046001600160a01b03166001600160a01b0316635c975abb6040518163ffffffff1660e01b8152600401602060405180830381865afa158015612784573d6000803e3d6000fd5b505050506040513d601f19601f820116820180604052508101906127a891906142fe565b156127c657604051634291db1560e11b815260040160405180910390fd5b6127ce6135cd565b6002600b5460ff1660048111156127e7576127e7613fc5565b1461280557604051634291db1560e11b815260040160405180910390fd5b600081116128415760405162461bcd60e51b81526020600482015260096024820152681e995c9bc81b5a5b9d60ba1b60448201526064016112d7565b612849613769565b6000612853613337565b90508060000361287657604051635296a20960e11b815260040160405180910390fd5b600082600a546128869190614401565b905060006128df61289561102f565b6004805460408051634c6afee560e11b81529051610bf79388936001600160a01b0316926398d5fdca92818301926020928290030181865afa158015611347573d6000803e3d6000fd5b90508083101561290257604051635296a20960e11b815260040160405180910390fd5b612710601961296161114b87600460009054906101000a90046001600160a01b03166001600160a01b03166398d5fdca6040518163ffffffff1660e01b8152600401602060405180830381865afa158015611347573d6000803e3d6000fd5b61296b91906143c8565b61297591906143df565b601160008282546129869190614401565b9091555050600a8290556006546001546040516340c10f1960e01b81526001600160a01b039182166004820152602481018790529116906340c10f1990604401600060405180830381600087803b1580156129e057600080fd5b505af11580156129f4573d6000803e3d6000fd5b50506040518681523092507ffc9c378c70d6c7d7ecb2262305dfc360e194e5027fd30900fedab89bce176c24915060200160405180910390a250505061145c6001600055565b6003546001600160a01b03163314612a65576040516338a3cebb60e01b815260040160405180910390fd5b612a6d6135cd565b601354811480612a7e575060145481145b15612a9a5760006013819055601455612a956138bc565b6115e1565b600d548114612abc5760405163ee9f2d5360e01b815260040160405180910390fd5b600c5460ff166001816006811115612ad657612ad6613fc5565b1480612af357506004816006811115612af157612af1613fc5565b145b15612be95760035460075460085460405163066bf5a960e01b81523060048201526024810192909252600160481b900460ff16151560448201526001600160a01b039091169063066bf5a990606401602060405180830381865afa158015612b5f573d6000803e3d6000fd5b505050506040513d601f19601f82011682018060405250810190612b8391906142e5565b600f819055600b805460ff1990811660021790915542601255600c805490911690556000600d819055600e5560405190815230907f4ee2f23ba3377a15e2c44fc57723f174419c592d3d78fe5942f2befc5cdb11d69060200160405180910390a2612c17565b6002816006811115612bfd57612bfd613fc5565b03612c0f57612c0a6138bc565b612c17565b612c17613a46565b5061145c6001600055565b60006002600b5460ff166004811115612c3d57612c3d613fc5565b1480156109ff57506109ff612c50610bbc565b60085461ffff16612c5f612c64565b61387a565b6008546000906109ff9061ffff8082169162010000900416613cf2565b6001546001600160a01b03163314612cac576040516330cd747160e01b815260040160405180910390fd5b600260009054906101000a90046001600160a01b03166001600160a01b0316635c975abb6040518163ffffffff1660e01b8152600401602060405180830381865afa158015612cff573d6000803e3d6000fd5b505050506040513d601f19601f82011682018060405250810190612d2391906142fe565b15612d4157604051634291db1560e11b815260040160405180910390fd5b612d496135cd565b6000600b5460ff166004811115612d6257612d62613fc5565b14158015612d8757506002600b5460ff166004811115612d8457612d84613fc5565b14155b15612da557604051634291db1560e11b815260040160405180910390fd5b600154600554612dc3916001600160a01b0391821691163084613cfe565b8060096000828254612dd59190614401565b909155505060405181815230907fd7243f6f8212d5188fd054141cf6ea89cfc0d91facb8c3afe2f88a13584801429060200160405180910390a261145c6001600055565b6001546001600160a01b03163314612e44576040516330cd747160e01b815260040160405180910390fd5b600260009054906101000a90046001600160a01b03166001600160a01b0316635c975abb6040518163ffffffff1660e01b8152600401602060405180830381865afa158015612e97573d6000803e3d6000fd5b505050506040513d601f19601f82011682018060405250810190612ebb91906142fe565b15612ed957604051634291db1560e11b815260040160405180910390fd5b612ee16135cd565b6002600b5460ff166004811115612efa57612efa613fc5565b14612f1857604051634291db1560e11b815260040160405180910390fd5b600a5415612f3957604051631d2197fd60e31b815260040160405180910390fd5b655af3107a4000341015612f6057604051633adc8fe760e21b815260040160405180910390fd5b600354600f546040516372525e2360e01b81526000926001600160a01b0316916372525e23913491612f989160040190815260200190565b60206040518083038185885af1158015612fb6573d6000803e3d6000fd5b50505050506040513d601f19601f82011682018060405250810190612fdb91906142e5565b600b8054600360ff1991821617909155604080516060810182526002808252602082018590524291909201819052600c80549093168217909255600d839055600e9190915590915030907f69d62ed766febd9b36f4840f1349f992e6afea42ca344e8e19106c2dffe02f47908390611bb4565b6130566135cd565b6002600b5460ff16600481111561306f5761306f613fc5565b1461308d57604051634291db1560e11b815260040160405180910390fd5b613098612c50610bbc565b6130b557604051630190a03160e71b815260040160405180910390fd5b6000600a5482116130c657816130ca565b600a545b90506000811161310a5760405162461bcd60e51b815260206004820152600b60248201526a7a65726f2072656465656d60a81b60448201526064016112d7565b613112613769565b600061316e61114b83600460009054906101000a90046001600160a01b03166001600160a01b03166398d5fdca6040518163ffffffff1660e01b8152600401602060405180830381865afa158015611347573d6000803e3d6000fd5b600354600f546040516376197ba360e01b81529293506000926001600160a01b03909216916376197ba3916131b0918690600401918252602082015260400190565b6020604051808303816000875af11580156131cf573d6000803e3d6000fd5b505050506040513d601f19601f820116820180604052508101906131f391906142e5565b905082600a600082825461320791906143b5565b9091555050600654604051632770a7eb60e21b8152336004820152602481018590526001600160a01b0390911690639dc29fac90604401600060405180830381600087803b15801561325857600080fd5b505af115801561326c573d6000803e3d6000fd5b50505050600061271060198361328291906143c8565b61328c91906143df565b905080156132b1576002546005546132b1916001600160a01b03918216911683613d37565b60006132bd82846143b5565b11156132e4576132e4336132d183856143b5565b6005546001600160a01b03169190613d37565b6040805185815260208101849052908101829052339030907f764aeeb2d1ec3f2945d6486e2f7e3fae9ac5fe11aa56b7a9d90c92212e33050c9060600160405180910390a35050505061145c6001600055565b6008546000908190600160401b900460ff161561336057600854600160401b900460ff16613363565b60015b600854909150610bfc9061ffff8082169164010000000081049091169060ff80861691600160301b8104821691600160381b90910416613d68565b6001546001600160a01b031633146133c9576040516330cd747160e01b815260040160405180910390fd5b600260009054906101000a90046001600160a01b03166001600160a01b0316635c975abb6040518163ffffffff1660e01b8152600401602060405180830381865afa15801561341c573d6000803e3d6000fd5b505050506040513d601f19601f8201168201806040525081019061344091906142fe565b1561345e57604051634291db1560e11b815260040160405180910390fd5b6134666135cd565b6002600b5460ff16600481111561347f5761347f613fc5565b1461349d57604051634291db1560e11b815260040160405180910390fd5b655af3107a40003410156134c457604051633adc8fe760e21b815260040160405180910390fd5b6000811161350b5760405162461bcd60e51b81526020600482015260146024820152735661756c743a207a65726f20534c20707269636560601b60448201526064016112d7565b600354600f54604051638c509fd560e01b81526000926001600160a01b031691638c509fd591349161354a918790600401918252602082015260400190565b60206040518083038185885af1158015613568573d6000803e3d6000fd5b50505050506040513d601f19601f8201168201806040525081019061358d91906142e5565b6014819055604080518281526020810185905291925030917f8dfb2ec37ad94738fb02b6b3a967be4f3dd85e28a4d6a181ea63c262d5ff0f279101611449565b6002600054036135f057604051633ee5aeb560e01b815260040160405180910390fd5b6002600055565b60008260000361360a575060001961362a565b8261361d83670de0b6b3a76400006143c8565b61362791906143df565b90505b92915050565b60008083116136765760405162461bcd60e51b81526020600482015260126024820152711315158e881b9bc818dbdb1b185d195c985b60721b60448201526064016112d7565b8261361d612710846143c8565b604080516001600160a01b038416602482015260448082018490528251808303909101815260649091019091526020810180516001600160e01b031663095ea7b360e01b1790526136d48482613e64565b613741576040516001600160a01b0384811660248301526000604483015261373791869182169063095ea7b3906064015b604051602081830303815290604052915060e01b6020820180516001600160e01b038381831617835250505050613eb3565b6137418482613eb3565b50505050565b600061362a64e8d4a51000836143c8565b600061362a64e8d4a51000836143df565b60125480156137f057600061377e82426143b5565b905060008111801561379257506000600a54115b156137ee5760006137a461114b6115eb565b90506137b66301e133806127106143c8565b826137c26096846143c8565b6137cc91906143c8565b6137d691906143df565b601160008282546137e79190614401565b9091555050505b505b5042601255565b600080821161383c5760405162461bcd60e51b8152602060048201526011602482015270556e6974733a207a65726f20707269636560781b60448201526064016112d7565b6305f5e10061361d83856143c8565b6000600a5460000361385f5750600061362a565b82600003613870575060001961362a565b6136278383613630565b600082841015801561388b57508184105b949350505050565b6000807ff0c57e16840df040f15088dc2f81fe391c3923bec73e23a9662efc9c229c6a0061362a565b6138c4613769565b6005546040516370a0823160e01b81523060048201526000916001600160a01b0316906370a0823190602401602060405180830381865afa15801561390d573d6000803e3d6000fd5b505050506040513d601f19601f8201168201806040525081019061393191906142e5565b90506000816011541161394657601154613948565b815b9050600061395682846143b5565b60006009819055600f819055601181905560138190556014819055600b805460ff19908116909155600c80549091169055600d819055600e55905081156139b4576002546005546139b4916001600160a01b03918216911684613d37565b80156139d7576001546005546139d7916001600160a01b03918216911683613d37565b60405182815230907fc74ee869a332e69e1b78099f39b1928de8163d21074ad8beb98aff670953103a9060200160405180910390a260405181815230907f62e59356f995b616eafcc3bd0402c7c6f7c820e205c92ea61436902e30b4dc2e9060200160405180910390a2505050565b613a4e613769565b6005546040516370a0823160e01b81523060048201526000916001600160a01b0316906370a0823190602401602060405180830381865afa158015613a97573d6000803e3d6000fd5b505050506040513d601f19601f82011682018060405250810190613abb91906142e5565b90506000613aca61114b6115eb565b9050600081831015613adc5782613ade565b815b90506000613aec82856143b5565b905060008160115411613b0157601154613b03565b815b90506000613b1182846143b5565b90506000612710613b246103e8846143c8565b613b2e91906143df565b90506000613b3c82846143b5565b6001546010546000600a8190556009819055600f819055601181905560138190556014819055600b805460ff19908116909155600c80549091169055600d819055600e8190559293506001600160a01b0391821692911690612710613ba3611770876143c8565b613bad91906143df565b90506000613bbb82876143b5565b613bc5898c614401565b613bcf9190614401565b90508115613bee57600554613bee906001600160a01b03168484613d37565b8015613c1157600254600554613c11916001600160a01b03918216911683613d37565b50508215613c3057600554613c30906001600160a01b03168385613d37565b60405186815230907fc74ee869a332e69e1b78099f39b1928de8163d21074ad8beb98aff670953103a9060200160405180910390a2604080518981526020810185905230917f09c223cfcd8c93e245f558f5f8de755fc0930fd9bc257441155ef5d54a170e0f910160405180910390a287891115613ce657307f0290a68573f1e73f494dc2634f4d9426af9210f8eef772f3530ad921612cdc7d613cd48a8c6143b5565b60405190815260200160405180910390a25b50505050505050505050565b60006136278284614401565b6040516001600160a01b0384811660248301528381166044830152606482018390526137419186918216906323b872dd90608401613705565b6040516001600160a01b038381166024830152604482018390526124d291859182169063a9059cbb90606401613705565b600060018410158015613d7b5750818411155b613dbb5760405162461bcd60e51b81526020600482015260116024820152704c54563a20626164206c6576657261676560781b60448201526064016112d7565b84861015613dfc5760405162461bcd60e51b815260206004820152600e60248201526d4c54563a2062616420637572766560901b60448201526064016112d7565b8284111580613e0b5750828211155b15613e17575084613e5b565b6000613e2384846143b5565b613e2d85876143b5565b613e37888a6143b5565b613e4191906143c8565b613e4b91906143df565b9050613e5781886143b5565b9150505b95945050505050565b6000806000806020600086516020880160008a5af192503d91506000519050828015613ea957508115613e9a5780600114613ea9565b6000866001600160a01b03163b115b9695505050505050565b600080602060008451602086016000885af180613ed6576040513d6000823e3d81fd5b50506000513d91508115613eee578060011415613efb565b6001600160a01b0384163b155b1561374157604051635274afe760e01b81526001600160a01b03851660048201526024016112d7565b803560ff81168114613f3557600080fd5b919050565b801515811461145c57600080fd5b60008060408385031215613f5b57600080fd5b613f6483613f24565b91506020830135613f7481613f3a565b809150509250929050565b8151151581526020808301519082015260408083015190820152606080830151908201526080810161362a565b600060208284031215613fbe57600080fd5b5035919050565b634e487b7160e01b600052602160045260246000fd5b60058110613feb57613feb613fc5565b9052565b60078110613feb57613feb613fc5565b81516001600160a01b03168152610420810160208301516020830152604083015161402d6040840182613fdb565b506060830151614042606084018260ff169052565b506080830151614056608084018215159052565b5060a083015160a083015260c083015160c083015260e083015160e08301526101008084015161408882850182613fef565b5050610120838101519083015261014080840151908301526101608084015161ffff90811691840191909152610180808501518216908401526101a080850151909116908301526101c08084015160ff908116918401919091526101e08085015190911690830152610200808401519083015261022080840151908301526102408084015190830152610260808401519083015261028080840151908301526102a080840151908301526102c080840151908301526102e0808401519083015261030080840151908301526103208084015115159083015261034080840151151590830152610360808401519083015261038080840151908301526103a092830151805115159383019390935260208301516103c083015260408301516103e08301526060909201516104009091015290565b6001600160a01b038116811461145c57600080fd5b600080600080600080600080888a036101808112156141ee57600080fd5b89356141f9816141bb565b985060208a0135614209816141bb565b975060408a0135614219816141bb565b965060608a0135614229816141bb565b955060808a0135614239816141bb565b945060a08a0135614249816141bb565b935060c08a0135925060a060df198201121561426457600080fd5b5060e0890190509295985092959890939650565b60008060006060848603121561428d57600080fd5b61429684613f24565b92506020840135915060408401356142ad81613f3a565b809150509250925092565b6020810161362a8284613fdb565b606081016142d48286613fef565b602082019390935260400152919050565b6000602082840312156142f757600080fd5b5051919050565b60006020828403121561431057600080fd5b815161431b81613f3a565b9392505050565b60006080828403121561433457600080fd5b6040516080810181811067ffffffffffffffff8211171561436557634e487b7160e01b600052604160045260246000fd5b604052825161437381613f3a565b808252506020830151602082015260408301516040820152606083015160608201528091505092915050565b634e487b7160e01b600052601160045260246000fd5b8181038181111561362a5761362a61439f565b808202811582820484141761362a5761362a61439f565b6000826143fc57634e487b7160e01b600052601260045260246000fd5b500490565b8082018082111561362a5761362a61439f565b60006020828403121561442657600080fd5b813561ffff8116811461431b57600080fd5b60006020828403121561444a57600080fd5b61362782613f2456fea2646970667358221220af0006c62d3b1fd9b21534a9b7e11b9d8493eca5be5b0bc47233035de7a63c8f64736f6c63430008180033","opcodes":"PUSH1 0x80 PUSH1 0x40 MSTORE CALLVALUE DUP1 ISZERO PUSH3 0x11 JUMPI PUSH1 0x0 DUP1 REVERT JUMPDEST POP PUSH1 0x1 PUSH1 0x0 SSTORE PUSH3 0x21 PUSH3 0x27 JUMP JUMPDEST PUSH3 0xDB JUMP JUMPDEST PUSH32 0xF0C57E16840DF040F15088DC2F81FE391C3923BEC73E23A9662EFC9C229C6A00 DUP1 SLOAD PUSH9 0x10000000000000000 SWAP1 DIV PUSH1 0xFF AND ISZERO PUSH3 0x78 JUMPI PUSH1 0x40 MLOAD PUSH4 0xF92EE8A9 PUSH1 0xE0 SHL DUP2 MSTORE PUSH1 0x4 ADD PUSH1 0x40 MLOAD DUP1 SWAP2 SUB SWAP1 REVERT JUMPDEST DUP1 SLOAD PUSH1 0x1 PUSH1 0x1 PUSH1 0x40 SHL SUB SWAP1 DUP2 AND EQ PUSH3 0xD8 JUMPI DUP1 SLOAD PUSH1 0x1 PUSH1 0x1 PUSH1 0x40 SHL SUB NOT AND PUSH1 0x1 PUSH1 0x1 PUSH1 0x40 SHL SUB SWAP1 DUP2 OR DUP3 SSTORE PUSH1 0x40 MLOAD SWAP1 DUP2 MSTORE PUSH32 0xC7F505B2F371AE2175EE4913F4499E1F2633A7B5936321EED1CDAEB6115181D2 SWAP1 PUSH1 0x20 ADD PUSH1 0x40 MLOAD DUP1 SWAP2 SUB SWAP1 LOG1 JUMPDEST POP JUMP JUMPDEST PUSH2 0x4489 DUP1 PUSH3 0xEB PUSH1 0x0 CODECOPY PUSH1 0x0 RETURN INVALID PUSH1 0x80 PUSH1 0x40 MSTORE PUSH1 0x4 CALLDATASIZE LT PUSH2 0x303 JUMPI PUSH1 0x0 CALLDATALOAD PUSH1 0xE0 SHR DUP1 PUSH4 0x6ED71EDE GT PUSH2 0x190 JUMPI DUP1 PUSH4 0xB3604C96 GT PUSH2 0xDC JUMPI DUP1 PUSH4 0xC45A0155 GT PUSH2 0x95 JUMPI DUP1 PUSH4 0xE20CCEC3 GT PUSH2 0x6F JUMPI DUP1 PUSH4 0xE20CCEC3 EQ PUSH2 0x857 JUMPI DUP1 PUSH4 0xE4D755C3 EQ PUSH2 0x888 JUMPI DUP1 PUSH4 0xE525DB20 EQ PUSH2 0x89D JUMPI DUP1 PUSH4 0xF267378E EQ PUSH2 0x8B0 JUMPI PUSH1 0x0 DUP1 REVERT JUMPDEST DUP1 PUSH4 0xC45A0155 EQ PUSH2 0x801 JUMPI DUP1 PUSH4 0xD8DFEB45 EQ PUSH2 0x821 JUMPI DUP1 PUSH4 0xDB006A75 EQ PUSH2 0x837 JUMPI PUSH1 0x0 DUP1 REVERT JUMPDEST DUP1 PUSH4 0xB3604C96 EQ PUSH2 0x766 JUMPI DUP1 PUSH4 0xB47B7B72 EQ PUSH2 0x77B JUMPI DUP1 PUSH4 0xB6B55F25 EQ PUSH2 0x791 JUMPI DUP1 PUSH4 0xC19D93FB EQ PUSH2 0x7B1 JUMPI DUP1 PUSH4 0xC37B6337 EQ PUSH2 0x7D8 JUMPI DUP1 PUSH4 0xC393D0E3 EQ PUSH2 0x7F9 JUMPI PUSH1 0x0 DUP1 REVERT JUMPDEST DUP1 PUSH4 0x8B52F5B1 GT PUSH2 0x149 JUMPI DUP1 PUSH4 0xA7E566D0 GT PUSH2 0x123 JUMPI DUP1 PUSH4 0xA7E566D0 EQ PUSH2 0x6FA JUMPI DUP1 PUSH4 0xA83E12BD EQ PUSH2 0x710 JUMPI DUP1 PUSH4 0xAE3302C2 EQ PUSH2 0x730 JUMPI DUP1 PUSH4 0xAF920582 EQ PUSH2 0x751 JUMPI PUSH1 0x0 DUP1 REVERT JUMPDEST DUP1 PUSH4 0x8B52F5B1 EQ PUSH2 0x6A7 JUMPI DUP1 PUSH4 0x8DA5CB5B EQ PUSH2 0x6BA JUMPI DUP1 PUSH4 0xA0712D68 EQ PUSH2 0x6DA JUMPI PUSH1 0x0 DUP1 REVERT JUMPDEST DUP1 PUSH4 0x6ED71EDE EQ PUSH2 0x61D JUMPI DUP1 PUSH4 0x6FCD3EE7 EQ PUSH2 0x633 JUMPI DUP1 PUSH4 0x7AA3FA62 EQ PUSH2 0x648 JUMPI DUP1 PUSH4 0x7B3BAAB4 EQ PUSH2 0x65E JUMPI DUP1 PUSH4 0x7DC0D1D0 EQ PUSH2 0x674 JUMPI DUP1 PUSH4 0x7DDE818C EQ PUSH2 0x694 JUMPI PUSH1 0x0 DUP1 REVERT JUMPDEST DUP1 PUSH4 0x32335FBD GT PUSH2 0x24F JUMPI DUP1 PUSH4 0x41FCF163 GT PUSH2 0x208 JUMPI DUP1 PUSH4 0x5987608C GT PUSH2 0x1E2 JUMPI DUP1 PUSH4 0x5987608C EQ PUSH2 0x5BD JUMPI DUP1 PUSH4 0x5A88057F EQ PUSH2 0x5D3 JUMPI DUP1 PUSH4 0x5DD92CD5 EQ PUSH2 0x5E8 JUMPI DUP1 PUSH4 0x5F8867ED EQ PUSH2 0x608 JUMPI PUSH1 0x0 DUP1 REVERT JUMPDEST DUP1 PUSH4 0x41FCF163 EQ PUSH2 0x566 JUMPI DUP1 PUSH4 0x4412A6B6 EQ PUSH2 0x586 JUMPI DUP1 PUSH4 0x501EC738 EQ PUSH2 0x59B JUMPI PUSH1 0x0 DUP1 REVERT JUMPDEST DUP1 PUSH4 0x32335FBD EQ PUSH2 0x4B6 JUMPI DUP1 PUSH4 0x33D40EFA EQ PUSH2 0x4CB JUMPI DUP1 PUSH4 0x371FD8E6 EQ PUSH2 0x4E6 JUMPI DUP1 PUSH4 0x3E413BEE EQ PUSH2 0x506 JUMPI DUP1 PUSH4 0x4046EBAE EQ PUSH2 0x526 JUMPI DUP1 PUSH4 0x40C65F72 EQ PUSH2 0x546 JUMPI PUSH1 0x0 DUP1 REVERT JUMPDEST DUP1 PUSH4 0x28A07025 GT PUSH2 0x2BC JUMPI DUP1 PUSH4 0x2C86D98E GT PUSH2 0x296 JUMPI DUP1 PUSH4 0x2C86D98E EQ PUSH2 0x414 JUMPI DUP1 PUSH4 0x2E2DBD22 EQ PUSH2 0x447 JUMPI DUP1 PUSH4 0x311918ED EQ PUSH2 0x469 JUMPI DUP1 PUSH4 0x31E67C71 EQ PUSH2 0x47E JUMPI PUSH1 0x0 DUP1 REVERT JUMPDEST DUP1 PUSH4 0x28A07025 EQ PUSH2 0x3E4 JUMPI DUP1 PUSH4 0x28E72F97 EQ PUSH2 0x3EC JUMPI DUP1 PUSH4 0x2A758439 EQ PUSH2 0x401 JUMPI PUSH1 0x0 DUP1 REVERT JUMPDEST DUP1 PUSH4 0x42E1B6B EQ PUSH2 0x30F JUMPI DUP1 PUSH4 0xDCA59C1 EQ PUSH2 0x34A JUMPI DUP1 PUSH4 0x202A61A1 EQ PUSH2 0x36E JUMPI DUP1 PUSH4 0x2202CE8C EQ PUSH2 0x39F JUMPI DUP1 PUSH4 0x22841F01 EQ PUSH2 0x3B6 JUMPI DUP1 PUSH4 0x286112D0 EQ PUSH2 0x3CB JUMPI PUSH1 0x0 DUP1 REVERT JUMPDEST CALLDATASIZE PUSH2 0x30A JUMPI STOP JUMPDEST PUSH1 0x0 DUP1 REVERT JUMPDEST CALLVALUE DUP1 ISZERO PUSH2 0x31B JUMPI PUSH1 0x0 DUP1 REVERT JUMPDEST POP PUSH1 0x8 SLOAD PUSH2 0x332 SWAP1 PUSH5 0x100000000 SWAP1 DIV PUSH2 0xFFFF AND DUP2 JUMP JUMPDEST PUSH1 0x40 MLOAD PUSH2 0xFFFF SWAP1 SWAP2 AND DUP2 MSTORE PUSH1 0x20 ADD JUMPDEST PUSH1 0x40 MLOAD DUP1 SWAP2 SUB SWAP1 RETURN JUMPDEST CALLVALUE DUP1 ISZERO PUSH2 0x356 JUMPI PUSH1 0x0 DUP1 REVERT JUMPDEST POP PUSH2 0x360 PUSH1 0xA SLOAD DUP2 JUMP JUMPDEST PUSH1 0x40 MLOAD SWAP1 DUP2 MSTORE PUSH1 0x20 ADD PUSH2 0x341 JUMP JUMPDEST CALLVALUE DUP1 ISZERO PUSH2 0x37A JUMPI PUSH1 0x0 DUP1 REVERT JUMPDEST POP PUSH1 0x8 SLOAD PUSH2 0x38F SWAP1 PUSH1 0x1 PUSH1 0x48 SHL SWAP1 DIV PUSH1 0xFF AND DUP2 JUMP JUMPDEST PUSH1 0x40 MLOAD SWAP1 ISZERO ISZERO DUP2 MSTORE PUSH1 0x20 ADD PUSH2 0x341 JUMP JUMPDEST CALLVALUE DUP1 ISZERO PUSH2 0x3AB JUMPI PUSH1 0x0 DUP1 REVERT JUMPDEST POP PUSH2 0x3B4 PUSH2 0x8D1 JUMP JUMPDEST STOP JUMPDEST CALLVALUE DUP1 ISZERO PUSH2 0x3C2 JUMPI PUSH1 0x0 DUP1 REVERT JUMPDEST POP PUSH2 0x360 PUSH2 0x9E5 JUMP JUMPDEST CALLVALUE DUP1 ISZERO PUSH2 0x3D7 JUMPI PUSH1 0x0 DUP1 REVERT JUMPDEST POP PUSH1 0x8 SLOAD PUSH2 0xFFFF AND PUSH2 0x360 JUMP JUMPDEST PUSH2 0x3B4 PUSH2 0xA04 JUMP JUMPDEST CALLVALUE DUP1 ISZERO PUSH2 0x3F8 JUMPI PUSH1 0x0 DUP1 REVERT JUMPDEST POP PUSH2 0x360 PUSH2 0xBBC JUMP JUMPDEST PUSH2 0x3B4 PUSH2 0x40F CALLDATASIZE PUSH1 0x4 PUSH2 0x3F48 JUMP JUMPDEST PUSH2 0xC02 JUMP JUMPDEST CALLVALUE DUP1 ISZERO PUSH2 0x420 JUMPI PUSH1 0x0 DUP1 REVERT JUMPDEST POP PUSH1 0x8 SLOAD PUSH2 0x435 SWAP1 PUSH1 0x1 PUSH1 0x40 SHL SWAP1 DIV PUSH1 0xFF AND DUP2 JUMP JUMPDEST PUSH1 0x40 MLOAD PUSH1 0xFF SWAP1 SWAP2 AND DUP2 MSTORE PUSH1 0x20 ADD PUSH2 0x341 JUMP JUMPDEST CALLVALUE DUP1 ISZERO PUSH2 0x453 JUMPI PUSH1 0x0 DUP1 REVERT JUMPDEST POP PUSH2 0x45C PUSH2 0xF77 JUMP JUMPDEST PUSH1 0x40 MLOAD PUSH2 0x341 SWAP2 SWAP1 PUSH2 0x3F7F JUMP JUMPDEST CALLVALUE DUP1 ISZERO PUSH2 0x475 JUMPI PUSH1 0x0 DUP1 REVERT JUMPDEST POP PUSH2 0x360 PUSH2 0x102F JUMP JUMPDEST CALLVALUE DUP1 ISZERO PUSH2 0x48A JUMPI PUSH1 0x0 DUP1 REVERT JUMPDEST POP PUSH1 0x3 SLOAD PUSH2 0x49E SWAP1 PUSH1 0x1 PUSH1 0x1 PUSH1 0xA0 SHL SUB AND DUP2 JUMP JUMPDEST PUSH1 0x40 MLOAD PUSH1 0x1 PUSH1 0x1 PUSH1 0xA0 SHL SUB SWAP1 SWAP2 AND DUP2 MSTORE PUSH1 0x20 ADD PUSH2 0x341 JUMP JUMPDEST CALLVALUE DUP1 ISZERO PUSH2 0x4C2 JUMPI PUSH1 0x0 DUP1 REVERT JUMPDEST POP PUSH2 0x360 PUSH2 0x10FF JUMP JUMPDEST CALLVALUE DUP1 ISZERO PUSH2 0x4D7 JUMPI PUSH1 0x0 DUP1 REVERT JUMPDEST POP PUSH1 0x8 SLOAD PUSH2 0x332 SWAP1 PUSH2 0xFFFF AND DUP2 JUMP JUMPDEST CALLVALUE DUP1 ISZERO PUSH2 0x4F2 JUMPI PUSH1 0x0 DUP1 REVERT JUMPDEST POP PUSH2 0x3B4 PUSH2 0x501 CALLDATASIZE PUSH1 0x4 PUSH2 0x3FAC JUMP JUMPDEST PUSH2 0x1182 JUMP JUMPDEST CALLVALUE DUP1 ISZERO PUSH2 0x512 JUMPI PUSH1 0x0 DUP1 REVERT JUMPDEST POP PUSH1 0x5 SLOAD PUSH2 0x49E SWAP1 PUSH1 0x1 PUSH1 0x1 PUSH1 0xA0 SHL SUB AND DUP2 JUMP JUMPDEST CALLVALUE DUP1 ISZERO PUSH2 0x532 JUMPI PUSH1 0x0 DUP1 REVERT JUMPDEST POP PUSH1 0x10 SLOAD PUSH2 0x49E SWAP1 PUSH1 0x1 PUSH1 0x1 PUSH1 0xA0 SHL SUB AND DUP2 JUMP JUMPDEST CALLVALUE DUP1 ISZERO PUSH2 0x552 JUMPI PUSH1 0x0 DUP1 REVERT JUMPDEST POP PUSH1 0x6 SLOAD PUSH2 0x49E SWAP1 PUSH1 0x1 PUSH1 0x1 PUSH1 0xA0 SHL SUB AND DUP2 JUMP JUMPDEST CALLVALUE DUP1 ISZERO PUSH2 0x572 JUMPI PUSH1 0x0 DUP1 REVERT JUMPDEST POP PUSH2 0x3B4 PUSH2 0x581 CALLDATASIZE PUSH1 0x4 PUSH2 0x3FAC JUMP JUMPDEST PUSH2 0x145F JUMP JUMPDEST CALLVALUE DUP1 ISZERO PUSH2 0x592 JUMPI PUSH1 0x0 DUP1 REVERT JUMPDEST POP PUSH2 0x360 PUSH2 0x15EB JUMP JUMPDEST CALLVALUE DUP1 ISZERO PUSH2 0x5A7 JUMPI PUSH1 0x0 DUP1 REVERT JUMPDEST POP PUSH2 0x5B0 PUSH2 0x163B JUMP JUMPDEST PUSH1 0x40 MLOAD PUSH2 0x341 SWAP2 SWAP1 PUSH2 0x3FFF JUMP JUMPDEST CALLVALUE DUP1 ISZERO PUSH2 0x5C9 JUMPI PUSH1 0x0 DUP1 REVERT JUMPDEST POP PUSH2 0x360 PUSH1 0x11 SLOAD DUP2 JUMP JUMPDEST CALLVALUE DUP1 ISZERO PUSH2 0x5DF JUMPI PUSH1 0x0 DUP1 REVERT JUMPDEST POP PUSH2 0x3B4 PUSH2 0x1AB0 JUMP JUMPDEST CALLVALUE DUP1 ISZERO PUSH2 0x5F4 JUMPI PUSH1 0x0 DUP1 REVERT JUMPDEST POP PUSH2 0x3B4 PUSH2 0x603 CALLDATASIZE PUSH1 0x4 PUSH2 0x41D0 JUMP JUMPDEST PUSH2 0x1BD9 JUMP JUMPDEST CALLVALUE DUP1 ISZERO PUSH2 0x614 JUMPI PUSH1 0x0 DUP1 REVERT JUMPDEST POP PUSH2 0x3B4 PUSH2 0x1EBE JUMP JUMPDEST CALLVALUE DUP1 ISZERO PUSH2 0x629 JUMPI PUSH1 0x0 DUP1 REVERT JUMPDEST POP PUSH2 0x360 PUSH1 0x7 SLOAD DUP2 JUMP JUMPDEST CALLVALUE DUP1 ISZERO PUSH2 0x63F JUMPI PUSH1 0x0 DUP1 REVERT JUMPDEST POP PUSH2 0x3B4 PUSH2 0x1FC6 JUMP JUMPDEST CALLVALUE DUP1 ISZERO PUSH2 0x654 JUMPI PUSH1 0x0 DUP1 REVERT JUMPDEST POP PUSH2 0x360 PUSH1 0xF SLOAD DUP2 JUMP JUMPDEST CALLVALUE DUP1 ISZERO PUSH2 0x66A JUMPI PUSH1 0x0 DUP1 REVERT JUMPDEST POP PUSH2 0x360 PUSH1 0x12 SLOAD DUP2 JUMP JUMPDEST CALLVALUE DUP1 ISZERO PUSH2 0x680 JUMPI PUSH1 0x0 DUP1 REVERT JUMPDEST POP PUSH1 0x4 SLOAD PUSH2 0x49E SWAP1 PUSH1 0x1 PUSH1 0x1 PUSH1 0xA0 SHL SUB AND DUP2 JUMP JUMPDEST PUSH2 0x3B4 PUSH2 0x6A2 CALLDATASIZE PUSH1 0x4 PUSH2 0x4278 JUMP JUMPDEST PUSH2 0x217C JUMP JUMPDEST PUSH2 0x3B4 PUSH2 0x6B5 CALLDATASIZE PUSH1 0x4 PUSH2 0x3FAC JUMP JUMPDEST PUSH2 0x24D7 JUMP JUMPDEST CALLVALUE DUP1 ISZERO PUSH2 0x6C6 JUMPI PUSH1 0x0 DUP1 REVERT JUMPDEST POP PUSH1 0x1 SLOAD PUSH2 0x49E SWAP1 PUSH1 0x1 PUSH1 0x1 PUSH1 0xA0 SHL SUB AND DUP2 JUMP JUMPDEST CALLVALUE DUP1 ISZERO PUSH2 0x6E6 JUMPI PUSH1 0x0 DUP1 REVERT JUMPDEST POP PUSH2 0x3B4 PUSH2 0x6F5 CALLDATASIZE PUSH1 0x4 PUSH2 0x3FAC JUMP JUMPDEST PUSH2 0x2706 JUMP JUMPDEST CALLVALUE DUP1 ISZERO PUSH2 0x706 JUMPI PUSH1 0x0 DUP1 REVERT JUMPDEST POP PUSH2 0x360 PUSH1 0x14 SLOAD DUP2 JUMP JUMPDEST CALLVALUE DUP1 ISZERO PUSH2 0x71C JUMPI PUSH1 0x0 DUP1 REVERT JUMPDEST POP PUSH2 0x3B4 PUSH2 0x72B CALLDATASIZE PUSH1 0x4 PUSH2 0x3FAC JUMP JUMPDEST PUSH2 0x2A3A JUMP JUMPDEST CALLVALUE DUP1 ISZERO PUSH2 0x73C JUMPI PUSH1 0x0 DUP1 REVERT JUMPDEST POP PUSH1 0x8 SLOAD PUSH2 0x435 SWAP1 PUSH1 0x1 PUSH1 0x38 SHL SWAP1 DIV PUSH1 0xFF AND DUP2 JUMP JUMPDEST CALLVALUE DUP1 ISZERO PUSH2 0x75D JUMPI PUSH1 0x0 DUP1 REVERT JUMPDEST POP PUSH2 0x38F PUSH2 0x2C22 JUMP JUMPDEST CALLVALUE DUP1 ISZERO PUSH2 0x772 JUMPI PUSH1 0x0 DUP1 REVERT JUMPDEST POP PUSH2 0x360 PUSH2 0x2C64 JUMP JUMPDEST CALLVALUE DUP1 ISZERO PUSH2 0x787 JUMPI PUSH1 0x0 DUP1 REVERT JUMPDEST POP PUSH2 0x360 PUSH1 0x13 SLOAD DUP2 JUMP JUMPDEST CALLVALUE DUP1 ISZERO PUSH2 0x79D JUMPI PUSH1 0x0 DUP1 REVERT JUMPDEST POP PUSH2 0x3B4 PUSH2 0x7AC CALLDATASIZE PUSH1 0x4 PUSH2 0x3FAC JUMP JUMPDEST PUSH2 0x2C81 JUMP JUMPDEST CALLVALUE DUP1 ISZERO PUSH2 0x7BD JUMPI PUSH1 0x0 DUP1 REVERT JUMPDEST POP PUSH1 0xB SLOAD PUSH2 0x7CB SWAP1 PUSH1 0xFF AND DUP2 JUMP JUMPDEST PUSH1 0x40 MLOAD PUSH2 0x341 SWAP2 SWAP1 PUSH2 0x42B8 JUMP JUMPDEST CALLVALUE DUP1 ISZERO PUSH2 0x7E4 JUMPI PUSH1 0x0 DUP1 REVERT JUMPDEST POP PUSH1 0x8 SLOAD PUSH2 0x332 SWAP1 PUSH3 0x10000 SWAP1 DIV PUSH2 0xFFFF AND DUP2 JUMP JUMPDEST PUSH2 0x3B4 PUSH2 0x2E19 JUMP JUMPDEST CALLVALUE DUP1 ISZERO PUSH2 0x80D JUMPI PUSH1 0x0 DUP1 REVERT JUMPDEST POP PUSH1 0x2 SLOAD PUSH2 0x49E SWAP1 PUSH1 0x1 PUSH1 0x1 PUSH1 0xA0 SHL SUB AND DUP2 JUMP JUMPDEST CALLVALUE DUP1 ISZERO PUSH2 0x82D JUMPI PUSH1 0x0 DUP1 REVERT JUMPDEST POP PUSH2 0x360 PUSH1 0x9 SLOAD DUP2 JUMP JUMPDEST CALLVALUE DUP1 ISZERO PUSH2 0x843 JUMPI PUSH1 0x0 DUP1 REVERT JUMPDEST POP PUSH2 0x3B4 PUSH2 0x852 CALLDATASIZE PUSH1 0x4 PUSH2 0x3FAC JUMP JUMPDEST PUSH2 0x304E JUMP JUMPDEST CALLVALUE DUP1 ISZERO PUSH2 0x863 JUMPI PUSH1 0x0 DUP1 REVERT JUMPDEST POP PUSH1 0xC SLOAD PUSH1 0xD SLOAD PUSH1 0xE SLOAD PUSH2 0x879 SWAP3 PUSH1 0xFF AND SWAP2 SWAP1 DUP4 JUMP JUMPDEST PUSH1 0x40 MLOAD PUSH2 0x341 SWAP4 SWAP3 SWAP2 SWAP1 PUSH2 0x42C6 JUMP JUMPDEST CALLVALUE DUP1 ISZERO PUSH2 0x894 JUMPI PUSH1 0x0 DUP1 REVERT JUMPDEST POP PUSH2 0x360 PUSH2 0x3337 JUMP JUMPDEST PUSH2 0x3B4 PUSH2 0x8AB CALLDATASIZE PUSH1 0x4 PUSH2 0x3FAC JUMP JUMPDEST PUSH2 0x339E JUMP JUMPDEST CALLVALUE DUP1 ISZERO PUSH2 0x8BC JUMPI PUSH1 0x0 DUP1 REVERT JUMPDEST POP PUSH1 0x8 SLOAD PUSH2 0x435 SWAP1 PUSH1 0x1 PUSH1 0x30 SHL SWAP1 DIV PUSH1 0xFF AND DUP2 JUMP JUMPDEST PUSH1 0x1 SLOAD PUSH1 0x1 PUSH1 0x1 PUSH1 0xA0 SHL SUB AND CALLER EQ PUSH2 0x8FC JUMPI PUSH1 0x40 MLOAD PUSH4 0x30CD7471 PUSH1 0xE0 SHL DUP2 MSTORE PUSH1 0x4 ADD PUSH1 0x40 MLOAD DUP1 SWAP2 SUB SWAP1 REVERT JUMPDEST PUSH2 0x904 PUSH2 0x35CD JUMP JUMPDEST PUSH1 0x1 PUSH1 0xB SLOAD PUSH1 0xFF AND PUSH1 0x4 DUP2 GT ISZERO PUSH2 0x91D JUMPI PUSH2 0x91D PUSH2 0x3FC5 JUMP JUMPDEST EQ PUSH2 0x93B JUMPI PUSH1 0x40 MLOAD PUSH4 0x4291DB15 PUSH1 0xE1 SHL DUP2 MSTORE PUSH1 0x4 ADD PUSH1 0x40 MLOAD DUP1 SWAP2 SUB SWAP1 REVERT JUMPDEST PUSH1 0x4 PUSH1 0xC SLOAD PUSH1 0xFF AND PUSH1 0x6 DUP2 GT ISZERO PUSH2 0x954 JUMPI PUSH2 0x954 PUSH2 0x3FC5 JUMP JUMPDEST EQ PUSH2 0x972 JUMPI PUSH1 0x40 MLOAD PUSH4 0x4291DB15 PUSH1 0xE1 SHL DUP2 MSTORE PUSH1 0x4 ADD PUSH1 0x40 MLOAD DUP1 SWAP2 SUB SWAP1 REVERT JUMPDEST PUSH1 0x3 SLOAD PUSH1 0xD SLOAD PUSH1 0x40 MLOAD PUSH4 0x2F94CDD1 PUSH1 0xE0 SHL DUP2 MSTORE PUSH1 0x1 PUSH1 0x1 PUSH1 0xA0 SHL SUB SWAP1 SWAP3 AND SWAP2 PUSH4 0x2F94CDD1 SWAP2 PUSH2 0x9A7 SWAP2 PUSH1 0x4 ADD SWAP1 DUP2 MSTORE PUSH1 0x20 ADD SWAP1 JUMP JUMPDEST PUSH1 0x0 PUSH1 0x40 MLOAD DUP1 DUP4 SUB DUP2 PUSH1 0x0 DUP8 DUP1 EXTCODESIZE ISZERO DUP1 ISZERO PUSH2 0x9C1 JUMPI PUSH1 0x0 DUP1 REVERT JUMPDEST POP GAS CALL ISZERO DUP1 ISZERO PUSH2 0x9D5 JUMPI RETURNDATASIZE PUSH1 0x0 DUP1 RETURNDATACOPY RETURNDATASIZE PUSH1 0x0 REVERT JUMPDEST POP POP POP POP PUSH2 0x9E3 PUSH1 0x1 PUSH1 0x0 SSTORE JUMP JUMPDEST JUMP JUMPDEST PUSH1 0x0 PUSH2 0x9FF PUSH2 0x9F2 PUSH2 0xBBC JUMP JUMPDEST PUSH2 0x9FA PUSH2 0x2C64 JUMP JUMPDEST PUSH2 0x35F7 JUMP JUMPDEST SWAP1 POP SWAP1 JUMP JUMPDEST PUSH2 0xA0C PUSH2 0x35CD JUMP JUMPDEST PUSH1 0x2 PUSH1 0xB SLOAD PUSH1 0xFF AND PUSH1 0x4 DUP2 GT ISZERO PUSH2 0xA25 JUMPI PUSH2 0xA25 PUSH2 0x3FC5 JUMP JUMPDEST EQ PUSH2 0xA43 JUMPI PUSH1 0x40 MLOAD PUSH4 0x4291DB15 PUSH1 0xE1 SHL DUP2 MSTORE PUSH1 0x4 ADD PUSH1 0x40 MLOAD DUP1 SWAP2 SUB SWAP1 REVERT JUMPDEST PUSH6 0x5AF3107A4000 CALLVALUE LT ISZERO PUSH2 0xA6A JUMPI PUSH1 0x40 MLOAD PUSH4 0x3ADC8FE7 PUSH1 0xE2 SHL DUP2 MSTORE PUSH1 0x4 ADD PUSH1 0x40 MLOAD DUP1 SWAP2 SUB SWAP1 REVERT JUMPDEST PUSH1 0x0 PUSH2 0xA74 PUSH2 0xBBC JUMP JUMPDEST SWAP1 POP PUSH2 0xA87 DUP2 PUSH2 0xA82 PUSH2 0x2C64 JUMP JUMPDEST GT ISZERO SWAP1 JUMP JUMPDEST PUSH2 0xAA4 JUMPI PUSH1 0x40 MLOAD PUSH4 0x6EF5BCDD PUSH1 0xE1 SHL DUP2 MSTORE PUSH1 0x4 ADD PUSH1 0x40 MLOAD DUP1 SWAP2 SUB SWAP1 REVERT JUMPDEST PUSH1 0x10 DUP1 SLOAD PUSH1 0x1 PUSH1 0x1 PUSH1 0xA0 SHL SUB NOT AND CALLER OR SWAP1 SSTORE PUSH1 0x3 SLOAD PUSH1 0xF SLOAD PUSH1 0x40 MLOAD PUSH4 0x72525E23 PUSH1 0xE0 SHL DUP2 MSTORE PUSH1 0x0 SWAP3 PUSH1 0x1 PUSH1 0x1 PUSH1 0xA0 SHL SUB AND SWAP2 PUSH4 0x72525E23 SWAP2 CALLVALUE SWAP2 PUSH2 0xAEE SWAP2 PUSH1 0x4 ADD SWAP1 DUP2 MSTORE PUSH1 0x20 ADD SWAP1 JUMP JUMPDEST PUSH1 0x20 PUSH1 0x40 MLOAD DUP1 DUP4 SUB DUP2 DUP6 DUP9 GAS CALL ISZERO DUP1 ISZERO PUSH2 0xB0C JUMPI RETURNDATASIZE PUSH1 0x0 DUP1 RETURNDATACOPY RETURNDATASIZE PUSH1 0x0 REVERT JUMPDEST POP POP POP POP POP PUSH1 0x40 MLOAD RETURNDATASIZE PUSH1 0x1F NOT PUSH1 0x1F DUP3 ADD AND DUP3 ADD DUP1 PUSH1 0x40 MSTORE POP DUP2 ADD SWAP1 PUSH2 0xB31 SWAP2 SWAP1 PUSH2 0x42E5 JUMP JUMPDEST PUSH1 0xB DUP1 SLOAD PUSH1 0x3 PUSH1 0xFF NOT SWAP2 DUP3 AND DUP2 OR SWAP1 SWAP3 SSTORE PUSH1 0x40 DUP1 MLOAD PUSH1 0x60 DUP2 ADD DUP3 MSTORE DUP4 DUP2 MSTORE PUSH1 0x20 DUP1 DUP3 ADD DUP7 SWAP1 MSTORE TIMESTAMP SWAP2 DUP4 ADD DUP3 SWAP1 MSTORE PUSH1 0xC DUP1 SLOAD SWAP1 SWAP5 AND DUP6 OR SWAP1 SWAP4 SSTORE PUSH1 0xD DUP6 SWAP1 SSTORE PUSH1 0xE SSTORE DUP1 MLOAD DUP5 DUP2 MSTORE SWAP2 DUP3 ADD SWAP3 SWAP1 SWAP3 MSTORE DUP2 MLOAD SWAP3 SWAP4 POP ADDRESS SWAP3 PUSH32 0x69D62ED766FEBD9B36F4840F1349F992E6AFEA42CA344E8E19106C2DFFE02F47 SWAP3 SWAP2 DUP2 SWAP1 SUB SWAP1 SWAP2 ADD SWAP1 LOG2 POP POP PUSH2 0x9E3 PUSH1 0x1 PUSH1 0x0 SSTORE JUMP JUMPDEST PUSH1 0x0 PUSH1 0xA SLOAD PUSH1 0x0 SUB PUSH2 0xBCE JUMPI POP PUSH1 0x0 SWAP1 JUMP JUMPDEST PUSH1 0x0 PUSH2 0xBD8 PUSH2 0x102F JUMP JUMPDEST SWAP1 POP DUP1 PUSH1 0x0 SUB PUSH2 0xBEB JUMPI PUSH1 0x0 NOT SWAP2 POP POP SWAP1 JUMP JUMPDEST PUSH2 0xBFC DUP2 PUSH2 0xBF7 PUSH2 0x15EB JUMP JUMPDEST PUSH2 0x3630 JUMP JUMPDEST SWAP2 POP POP SWAP1 JUMP JUMPDEST PUSH1 0x1 SLOAD PUSH1 0x1 PUSH1 0x1 PUSH1 0xA0 SHL SUB AND CALLER EQ PUSH2 0xC2D JUMPI PUSH1 0x40 MLOAD PUSH4 0x30CD7471 PUSH1 0xE0 SHL DUP2 MSTORE PUSH1 0x4 ADD PUSH1 0x40 MLOAD DUP1 SWAP2 SUB SWAP1 REVERT JUMPDEST PUSH1 0x2 PUSH1 0x0 SWAP1 SLOAD SWAP1 PUSH2 0x100 EXP SWAP1 DIV PUSH1 0x1 PUSH1 0x1 PUSH1 0xA0 SHL SUB AND PUSH1 0x1 PUSH1 0x1 PUSH1 0xA0 SHL SUB AND PUSH4 0x5C975ABB PUSH1 0x40 MLOAD DUP2 PUSH4 0xFFFFFFFF AND PUSH1 0xE0 SHL DUP2 MSTORE PUSH1 0x4 ADD PUSH1 0x20 PUSH1 0x40 MLOAD DUP1 DUP4 SUB DUP2 DUP7 GAS STATICCALL ISZERO DUP1 ISZERO PUSH2 0xC80 JUMPI RETURNDATASIZE PUSH1 0x0 DUP1 RETURNDATACOPY RETURNDATASIZE PUSH1 0x0 REVERT JUMPDEST POP POP POP POP PUSH1 0x40 MLOAD RETURNDATASIZE PUSH1 0x1F NOT PUSH1 0x1F DUP3 ADD AND DUP3 ADD DUP1 PUSH1 0x40 MSTORE POP DUP2 ADD SWAP1 PUSH2 0xCA4 SWAP2 SWAP1 PUSH2 0x42FE JUMP JUMPDEST ISZERO PUSH2 0xCC2 JUMPI PUSH1 0x40 MLOAD PUSH4 0x4291DB15 PUSH1 0xE1 SHL DUP2 MSTORE PUSH1 0x4 ADD PUSH1 0x40 MLOAD DUP1 SWAP2 SUB SWAP1 REVERT JUMPDEST PUSH2 0xCCA PUSH2 0x35CD JUMP JUMPDEST PUSH1 0x0 PUSH1 0xB SLOAD PUSH1 0xFF AND PUSH1 0x4 DUP2 GT ISZERO PUSH2 0xCE3 JUMPI PUSH2 0xCE3 PUSH2 0x3FC5 JUMP JUMPDEST EQ PUSH2 0xD01 JUMPI PUSH1 0x40 MLOAD PUSH4 0x4291DB15 PUSH1 0xE1 SHL DUP2 MSTORE PUSH1 0x4 ADD PUSH1 0x40 MLOAD DUP1 SWAP2 SUB SWAP1 REVERT JUMPDEST PUSH3 0xF4240 PUSH1 0x9 SLOAD LT ISZERO PUSH2 0xD27 JUMPI PUSH1 0x40 MLOAD PUSH4 0x4DBFE81 PUSH1 0xE2 SHL DUP2 MSTORE PUSH1 0x4 ADD PUSH1 0x40 MLOAD DUP1 SWAP2 SUB SWAP1 REVERT JUMPDEST PUSH1 0x1 DUP3 PUSH1 0xFF AND LT DUP1 PUSH2 0xD48 JUMPI POP PUSH1 0x8 SLOAD PUSH1 0xFF PUSH1 0x1 PUSH1 0x38 SHL SWAP1 SWAP2 DIV DUP2 AND SWAP1 DUP4 AND GT JUMPDEST ISZERO PUSH2 0xD66 JUMPI PUSH1 0x40 MLOAD PUSH4 0x522007A5 PUSH1 0xE0 SHL DUP2 MSTORE PUSH1 0x4 ADD PUSH1 0x40 MLOAD DUP1 SWAP2 SUB SWAP1 REVERT JUMPDEST PUSH6 0x5AF3107A4000 CALLVALUE LT ISZERO PUSH2 0xD8D JUMPI PUSH1 0x40 MLOAD PUSH4 0x3ADC8FE7 PUSH1 0xE2 SHL DUP2 MSTORE PUSH1 0x4 ADD PUSH1 0x40 MLOAD DUP1 SWAP2 SUB SWAP1 REVERT JUMPDEST PUSH1 0x8 DUP1 SLOAD PUSH2 0xFFFF PUSH1 0x40 SHL NOT AND PUSH1 0x1 PUSH1 0x40 SHL PUSH1 0xFF DUP6 AND MUL PUSH1 0xFF PUSH1 0x48 SHL NOT AND OR PUSH1 0x1 PUSH1 0x48 SHL DUP4 ISZERO ISZERO MUL OR SWAP1 SSTORE PUSH1 0x3 SLOAD PUSH1 0x9 SLOAD PUSH1 0x5 SLOAD PUSH2 0xDD8 SWAP3 PUSH1 0x1 PUSH1 0x1 PUSH1 0xA0 SHL SUB SWAP2 DUP3 AND SWAP3 SWAP2 AND SWAP1 PUSH2 0x3683 JUMP JUMPDEST PUSH1 0x3 SLOAD PUSH1 0x7 SLOAD PUSH1 0x9 SLOAD PUSH1 0x4 DUP1 SLOAD PUSH1 0x40 DUP1 MLOAD PUSH4 0x4C6AFEE5 PUSH1 0xE1 SHL DUP2 MSTORE SWAP1 MLOAD PUSH1 0x0 SWAP7 PUSH1 0x1 PUSH1 0x1 PUSH1 0xA0 SHL SUB SWAP1 DUP2 AND SWAP7 PUSH4 0xB5B0862F SWAP7 CALLVALUE SWAP7 SWAP2 SWAP6 SWAP1 SWAP5 SWAP3 AND SWAP3 PUSH4 0x98D5FDCA SWAP3 DUP1 DUP4 ADD SWAP3 PUSH1 0x20 SWAP3 SWAP2 DUP3 SWAP1 SUB ADD DUP2 DUP7 GAS STATICCALL ISZERO DUP1 ISZERO PUSH2 0xE3A JUMPI RETURNDATASIZE PUSH1 0x0 DUP1 RETURNDATACOPY RETURNDATASIZE PUSH1 0x0 REVERT JUMPDEST POP POP POP POP PUSH1 0x40 MLOAD RETURNDATASIZE PUSH1 0x1F NOT PUSH1 0x1F DUP3 ADD AND DUP3 ADD DUP1 PUSH1 0x40 MSTORE POP DUP2 ADD SWAP1 PUSH2 0xE5E SWAP2 SWAP1 PUSH2 0x42E5 JUMP JUMPDEST PUSH1 0x40 MLOAD PUSH1 0x1 PUSH1 0x1 PUSH1 0xE0 SHL SUB NOT PUSH1 0xE0 DUP8 SWAP1 SHL AND DUP2 MSTORE PUSH1 0x4 DUP2 ADD SWAP4 SWAP1 SWAP4 MSTORE PUSH1 0x24 DUP4 ADD SWAP2 SWAP1 SWAP2 MSTORE PUSH1 0x44 DUP3 ADD MSTORE PUSH1 0xFF DUP8 AND PUSH1 0x64 DUP3 ADD MSTORE DUP6 ISZERO ISZERO PUSH1 0x84 DUP3 ADD MSTORE PUSH1 0xA4 ADD PUSH1 0x20 PUSH1 0x40 MLOAD DUP1 DUP4 SUB DUP2 DUP6 DUP9 GAS CALL ISZERO DUP1 ISZERO PUSH2 0xEB9 JUMPI RETURNDATASIZE PUSH1 0x0 DUP1 RETURNDATACOPY RETURNDATASIZE PUSH1 0x0 REVERT JUMPDEST POP POP POP POP POP PUSH1 0x40 MLOAD RETURNDATASIZE PUSH1 0x1F NOT PUSH1 0x1F DUP3 ADD AND DUP3 ADD DUP1 PUSH1 0x40 MSTORE POP DUP2 ADD SWAP1 PUSH2 0xEDE SWAP2 SWAP1 PUSH2 0x42E5 JUMP JUMPDEST PUSH1 0xB DUP1 SLOAD PUSH1 0x1 PUSH1 0xFF NOT SWAP2 DUP3 AND DUP2 OR SWAP1 SWAP3 SSTORE PUSH1 0x40 DUP1 MLOAD PUSH1 0x60 DUP1 DUP3 ADD DUP4 MSTORE DUP5 DUP3 MSTORE PUSH1 0x20 DUP1 DUP4 ADD DUP8 SWAP1 MSTORE TIMESTAMP SWAP3 DUP5 ADD DUP4 SWAP1 MSTORE PUSH1 0xC DUP1 SLOAD SWAP1 SWAP6 AND SWAP1 SWAP6 OR SWAP1 SWAP4 SSTORE PUSH1 0xD DUP6 SWAP1 SSTORE PUSH1 0xE SSTORE DUP1 MLOAD DUP5 DUP2 MSTORE PUSH1 0xFF DUP9 AND SWAP4 DUP2 ADD SWAP4 SWAP1 SWAP4 MSTORE DUP6 ISZERO ISZERO SWAP1 DUP4 ADD MSTORE SWAP2 SWAP3 POP ADDRESS SWAP2 PUSH32 0x4E3F6D3EE7E3781D95140A8C1BBB9E544AD186D11D46B416C5204053317E0489 SWAP2 ADD PUSH1 0x40 MLOAD DUP1 SWAP2 SUB SWAP1 LOG2 POP PUSH2 0xF73 PUSH1 0x1 PUSH1 0x0 SSTORE JUMP JUMPDEST POP POP JUMP JUMPDEST PUSH2 0xFA4 PUSH1 0x40 MLOAD DUP1 PUSH1 0x80 ADD PUSH1 0x40 MSTORE DUP1 PUSH1 0x0 ISZERO ISZERO DUP2 MSTORE PUSH1 0x20 ADD PUSH1 0x0 DUP2 MSTORE PUSH1 0x20 ADD PUSH1 0x0 DUP2 MSTORE PUSH1 0x20 ADD PUSH1 0x0 DUP2 MSTORE POP SWAP1 JUMP JUMPDEST PUSH1 0x3 SLOAD PUSH1 0x7 SLOAD PUSH1 0x8 SLOAD PUSH1 0x40 MLOAD PUSH4 0x3157D9C7 PUSH1 0xE0 SHL DUP2 MSTORE ADDRESS PUSH1 0x4 DUP3 ADD MSTORE PUSH1 0x24 DUP2 ADD SWAP3 SWAP1 SWAP3 MSTORE PUSH1 0x1 PUSH1 0x48 SHL SWAP1 DIV PUSH1 0xFF AND ISZERO ISZERO PUSH1 0x44 DUP3 ADD MSTORE PUSH1 0x1 PUSH1 0x1 PUSH1 0xA0 SHL SUB SWAP1 SWAP2 AND SWAP1 PUSH4 0x3157D9C7 SWAP1 PUSH1 0x64 ADD PUSH1 0x80 PUSH1 0x40 MLOAD DUP1 DUP4 SUB DUP2 DUP7 GAS STATICCALL ISZERO DUP1 ISZERO PUSH2 0x100B JUMPI RETURNDATASIZE PUSH1 0x0 DUP1 RETURNDATACOPY RETURNDATASIZE PUSH1 0x0 REVERT JUMPDEST POP POP POP POP PUSH1 0x40 MLOAD RETURNDATASIZE PUSH1 0x1F NOT PUSH1 0x1F DUP3 ADD AND DUP3 ADD DUP1 PUSH1 0x40 MSTORE POP DUP2 ADD SWAP1 PUSH2 0x9FF SWAP2 SWAP1 PUSH2 0x4322 JUMP JUMPDEST PUSH1 0x0 PUSH1 0x2 PUSH1 0xB SLOAD PUSH1 0xFF AND PUSH1 0x4 DUP2 GT ISZERO PUSH2 0x104A JUMPI PUSH2 0x104A PUSH2 0x3FC5 JUMP JUMPDEST EQ DUP1 PUSH2 0x106C JUMPI POP PUSH1 0x3 PUSH1 0xB SLOAD PUSH1 0xFF AND PUSH1 0x4 DUP2 GT ISZERO PUSH2 0x106A JUMPI PUSH2 0x106A PUSH2 0x3FC5 JUMP JUMPDEST EQ JUMPDEST DUP1 ISZERO PUSH2 0x1079 JUMPI POP PUSH1 0xF SLOAD ISZERO ISZERO JUMPDEST ISZERO PUSH2 0x10F4 JUMPI PUSH1 0x3 SLOAD PUSH1 0xF SLOAD PUSH1 0x40 MLOAD PUSH4 0x4CB7C319 PUSH1 0xE0 SHL DUP2 MSTORE PUSH1 0x1 PUSH1 0x1 PUSH1 0xA0 SHL SUB SWAP1 SWAP3 AND SWAP2 PUSH4 0x4CB7C319 SWAP2 PUSH2 0x10B3 SWAP2 PUSH1 0x4 ADD SWAP1 DUP2 MSTORE PUSH1 0x20 ADD SWAP1 JUMP JUMPDEST PUSH1 0x20 PUSH1 0x40 MLOAD DUP1 DUP4 SUB DUP2 DUP7 GAS STATICCALL ISZERO DUP1 ISZERO PUSH2 0x10D0 JUMPI RETURNDATASIZE PUSH1 0x0 DUP1 RETURNDATACOPY RETURNDATASIZE PUSH1 0x0 REVERT JUMPDEST POP POP POP POP PUSH1 0x40 MLOAD RETURNDATASIZE PUSH1 0x1F NOT PUSH1 0x1F DUP3 ADD AND DUP3 ADD DUP1 PUSH1 0x40 MSTORE POP DUP2 ADD SWAP1 PUSH2 0x9FF SWAP2 SWAP1 PUSH2 0x42E5 JUMP JUMPDEST PUSH2 0x9FF PUSH1 0x9 SLOAD PUSH2 0x3747 JUMP JUMPDEST PUSH1 0x11 SLOAD PUSH1 0x12 SLOAD PUSH1 0x0 SWAP2 SWAP1 DUP1 ISZERO DUP1 ISZERO SWAP1 PUSH2 0x111A JUMPI POP PUSH1 0x0 PUSH1 0xA SLOAD GT JUMPDEST ISZERO PUSH2 0x117C JUMPI PUSH1 0x0 PUSH2 0x112B DUP3 TIMESTAMP PUSH2 0x43B5 JUMP JUMPDEST SWAP1 POP PUSH2 0x113D PUSH4 0x1E13380 PUSH2 0x2710 PUSH2 0x43C8 JUMP JUMPDEST DUP2 PUSH1 0x96 PUSH2 0x1150 PUSH2 0x114B PUSH2 0x15EB JUMP JUMPDEST PUSH2 0x3758 JUMP JUMPDEST PUSH2 0x115A SWAP2 SWAP1 PUSH2 0x43C8 JUMP JUMPDEST PUSH2 0x1164 SWAP2 SWAP1 PUSH2 0x43C8 JUMP JUMPDEST PUSH2 0x116E SWAP2 SWAP1 PUSH2 0x43DF JUMP JUMPDEST PUSH2 0x1178 SWAP1 DUP5 PUSH2 0x4401 JUMP JUMPDEST SWAP3 POP POP JUMPDEST POP SWAP2 SWAP1 POP JUMP JUMPDEST PUSH1 0x1 SLOAD PUSH1 0x1 PUSH1 0x1 PUSH1 0xA0 SHL SUB AND CALLER EQ PUSH2 0x11AD JUMPI PUSH1 0x40 MLOAD PUSH4 0x30CD7471 PUSH1 0xE0 SHL DUP2 MSTORE PUSH1 0x4 ADD PUSH1 0x40 MLOAD DUP1 SWAP2 SUB SWAP1 REVERT JUMPDEST PUSH1 0x2 PUSH1 0x0 SWAP1 SLOAD SWAP1 PUSH2 0x100 EXP SWAP1 DIV PUSH1 0x1 PUSH1 0x1 PUSH1 0xA0 SHL SUB AND PUSH1 0x1 PUSH1 0x1 PUSH1 0xA0 SHL SUB AND PUSH4 0x5C975ABB PUSH1 0x40 MLOAD DUP2 PUSH4 0xFFFFFFFF AND PUSH1 0xE0 SHL DUP2 MSTORE PUSH1 0x4 ADD PUSH1 0x20 PUSH1 0x40 MLOAD DUP1 DUP4 SUB DUP2 DUP7 GAS STATICCALL ISZERO DUP1 ISZERO PUSH2 0x1200 JUMPI RETURNDATASIZE PUSH1 0x0 DUP1 RETURNDATACOPY RETURNDATASIZE PUSH1 0x0 REVERT JUMPDEST POP POP POP POP PUSH1 0x40 MLOAD RETURNDATASIZE PUSH1 0x1F NOT PUSH1 0x1F DUP3 ADD AND DUP3 ADD DUP1 PUSH1 0x40 MSTORE POP DUP2 ADD SWAP1 PUSH2 0x1224 SWAP2 SWAP1 PUSH2 0x42FE JUMP JUMPDEST ISZERO PUSH2 0x1242 JUMPI PUSH1 0x40 MLOAD PUSH4 0x4291DB15 PUSH1 0xE1 SHL DUP2 MSTORE PUSH1 0x4 ADD PUSH1 0x40 MLOAD DUP1 SWAP2 SUB SWAP1 REVERT JUMPDEST PUSH2 0x124A PUSH2 0x35CD JUMP JUMPDEST PUSH1 0x2 PUSH1 0xB SLOAD PUSH1 0xFF AND PUSH1 0x4 DUP2 GT ISZERO PUSH2 0x1263 JUMPI PUSH2 0x1263 PUSH2 0x3FC5 JUMP JUMPDEST EQ PUSH2 0x1281 JUMPI PUSH1 0x40 MLOAD PUSH4 0x4291DB15 PUSH1 0xE1 SHL DUP2 MSTORE PUSH1 0x4 ADD PUSH1 0x40 MLOAD DUP1 SWAP2 SUB SWAP1 REVERT JUMPDEST PUSH1 0x0 PUSH1 0xA SLOAD DUP3 GT PUSH2 0x1292 JUMPI DUP2 PUSH2 0x1296 JUMP JUMPDEST PUSH1 0xA SLOAD JUMPDEST SWAP1 POP PUSH1 0x0 DUP2 GT PUSH2 0x12E0 JUMPI PUSH1 0x40 MLOAD PUSH3 0x461BCD PUSH1 0xE5 SHL DUP2 MSTORE PUSH1 0x20 PUSH1 0x4 DUP3 ADD MSTORE PUSH1 0x10 PUSH1 0x24 DUP3 ADD MSTORE PUSH16 0x6E6F7468696E6720746F207265706179 PUSH1 0x80 SHL PUSH1 0x44 DUP3 ADD MSTORE PUSH1 0x64 ADD JUMPDEST PUSH1 0x40 MLOAD DUP1 SWAP2 SUB SWAP1 REVERT JUMPDEST PUSH2 0x12E8 PUSH2 0x3769 JUMP JUMPDEST PUSH2 0x2710 PUSH1 0x19 PUSH2 0x1370 PUSH2 0x114B DUP5 PUSH1 0x4 PUSH1 0x0 SWAP1 SLOAD SWAP1 PUSH2 0x100 EXP SWAP1 DIV PUSH1 0x1 PUSH1 0x1 PUSH1 0xA0 SHL SUB AND PUSH1 0x1 PUSH1 0x1 PUSH1 0xA0 SHL SUB AND PUSH4 0x98D5FDCA PUSH1 0x40 MLOAD DUP2 PUSH4 0xFFFFFFFF AND PUSH1 0xE0 SHL DUP2 MSTORE PUSH1 0x4 ADD PUSH1 0x20 PUSH1 0x40 MLOAD DUP1 DUP4 SUB DUP2 DUP7 GAS STATICCALL ISZERO DUP1 ISZERO PUSH2 0x1347 JUMPI RETURNDATASIZE PUSH1 0x0 DUP1 RETURNDATACOPY RETURNDATASIZE PUSH1 0x0 REVERT JUMPDEST POP POP POP POP PUSH1 0x40 MLOAD RETURNDATASIZE PUSH1 0x1F NOT PUSH1 0x1F DUP3 ADD AND DUP3 ADD DUP1 PUSH1 0x40 MSTORE POP DUP2 ADD SWAP1 PUSH2 0x136B SWAP2 SWAP1 PUSH2 0x42E5 JUMP JUMPDEST PUSH2 0x37F7 JUMP JUMPDEST PUSH2 0x137A SWAP2 SWAP1 PUSH2 0x43C8 JUMP JUMPDEST PUSH2 0x1384 SWAP2 SWAP1 PUSH2 0x43DF JUMP JUMPDEST PUSH1 0x11 PUSH1 0x0 DUP3 DUP3 SLOAD PUSH2 0x1395 SWAP2 SWAP1 PUSH2 0x4401 JUMP JUMPDEST SWAP3 POP POP DUP2 SWAP1 SSTORE POP DUP1 PUSH1 0xA PUSH1 0x0 DUP3 DUP3 SLOAD PUSH2 0x13AE SWAP2 SWAP1 PUSH2 0x43B5 JUMP JUMPDEST SWAP1 SWAP2 SSTORE POP POP PUSH1 0x6 SLOAD PUSH1 0x1 SLOAD PUSH1 0x40 MLOAD PUSH4 0x2770A7EB PUSH1 0xE2 SHL DUP2 MSTORE PUSH1 0x1 PUSH1 0x1 PUSH1 0xA0 SHL SUB SWAP2 DUP3 AND PUSH1 0x4 DUP3 ADD MSTORE PUSH1 0x24 DUP2 ADD DUP5 SWAP1 MSTORE SWAP2 AND SWAP1 PUSH4 0x9DC29FAC SWAP1 PUSH1 0x44 ADD PUSH1 0x0 PUSH1 0x40 MLOAD DUP1 DUP4 SUB DUP2 PUSH1 0x0 DUP8 DUP1 EXTCODESIZE ISZERO DUP1 ISZERO PUSH2 0x1403 JUMPI PUSH1 0x0 DUP1 REVERT JUMPDEST POP GAS CALL ISZERO DUP1 ISZERO PUSH2 0x1417 JUMPI RETURNDATASIZE PUSH1 0x0 DUP1 RETURNDATACOPY RETURNDATASIZE PUSH1 0x0 REVERT JUMPDEST POP POP PUSH1 0x40 MLOAD DUP4 DUP2 MSTORE ADDRESS SWAP3 POP PUSH32 0x67E8AC554BBB94933F3083114F69364878CBB40D24A4581F68CB3DA2167F4924 SWAP2 POP PUSH1 0x20 ADD JUMPDEST PUSH1 0x40 MLOAD DUP1 SWAP2 SUB SWAP1 LOG2 POP PUSH2 0x145C PUSH1 0x1 PUSH1 0x0 SSTORE JUMP JUMPDEST POP JUMP JUMPDEST PUSH1 0x3 SLOAD PUSH1 0x1 PUSH1 0x1 PUSH1 0xA0 SHL SUB AND CALLER EQ PUSH2 0x148A JUMPI PUSH1 0x40 MLOAD PUSH4 0x38A3CEBB PUSH1 0xE0 SHL DUP2 MSTORE PUSH1 0x4 ADD PUSH1 0x40 MLOAD DUP1 SWAP2 SUB SWAP1 REVERT JUMPDEST PUSH2 0x1492 PUSH2 0x35CD JUMP JUMPDEST PUSH1 0xD SLOAD DUP2 EQ PUSH2 0x14B4 JUMPI PUSH1 0x40 MLOAD PUSH4 0xEE9F2D53 PUSH1 0xE0 SHL DUP2 MSTORE PUSH1 0x4 ADD PUSH1 0x40 MLOAD DUP1 SWAP2 SUB SWAP1 REVERT JUMPDEST PUSH1 0x1 PUSH1 0xC SLOAD PUSH1 0xFF AND PUSH1 0x6 DUP2 GT ISZERO PUSH2 0x14CD JUMPI PUSH2 0x14CD PUSH2 0x3FC5 JUMP JUMPDEST EQ DUP1 PUSH2 0x14EF JUMPI POP PUSH1 0x4 PUSH1 0xC SLOAD PUSH1 0xFF AND PUSH1 0x6 DUP2 GT ISZERO PUSH2 0x14ED JUMPI PUSH2 0x14ED PUSH2 0x3FC5 JUMP JUMPDEST EQ JUMPDEST ISZERO PUSH2 0x15BD JUMPI PUSH1 0x5 SLOAD PUSH1 0x40 MLOAD PUSH4 0x70A08231 PUSH1 0xE0 SHL DUP2 MSTORE ADDRESS PUSH1 0x4 DUP3 ADD MSTORE PUSH1 0x1 PUSH1 0x1 PUSH1 0xA0 SHL SUB SWAP1 SWAP2 AND SWAP1 PUSH4 0x70A08231 SWAP1 PUSH1 0x24 ADD PUSH1 0x20 PUSH1 0x40 MLOAD DUP1 DUP4 SUB DUP2 DUP7 GAS STATICCALL ISZERO DUP1 ISZERO PUSH2 0x153C JUMPI RETURNDATASIZE PUSH1 0x0 DUP1 RETURNDATACOPY RETURNDATASIZE PUSH1 0x0 REVERT JUMPDEST POP POP POP POP PUSH1 0x40 MLOAD RETURNDATASIZE PUSH1 0x1F NOT PUSH1 0x1F DUP3 ADD AND DUP3 ADD DUP1 PUSH1 0x40 MSTORE POP DUP2 ADD SWAP1 PUSH2 0x1560 SWAP2 SWAP1 PUSH2 0x42E5 JUMP JUMPDEST PUSH1 0x9 SSTORE PUSH1 0xB DUP1 SLOAD PUSH1 0xFF NOT SWAP1 DUP2 AND SWAP1 SWAP2 SSTORE PUSH1 0xC DUP1 SLOAD SWAP1 SWAP2 AND SWAP1 SSTORE PUSH1 0x0 PUSH1 0xD DUP2 SWAP1 SSTORE PUSH1 0xE SSTORE PUSH1 0x40 MLOAD DUP2 DUP2 MSTORE ADDRESS SWAP1 PUSH32 0x1850340DE0C5A0C10CC6B290A43310EB90675D58DE5D2406600A177679CD8BA5 SWAP1 PUSH1 0x20 ADD PUSH1 0x40 MLOAD DUP1 SWAP2 SUB SWAP1 LOG2 PUSH2 0x15E1 JUMP JUMPDEST PUSH1 0xB DUP1 SLOAD PUSH1 0xFF NOT SWAP1 DUP2 AND PUSH1 0x2 OR SWAP1 SWAP2 SSTORE PUSH1 0xC DUP1 SLOAD SWAP1 SWAP2 AND SWAP1 SSTORE PUSH1 0x0 PUSH1 0xD DUP2 SWAP1 SSTORE PUSH1 0xE SSTORE JUMPDEST PUSH2 0x145C PUSH1 0x1 PUSH1 0x0 SSTORE JUMP JUMPDEST PUSH1 0xA SLOAD PUSH1 0x4 DUP1 SLOAD PUSH1 0x40 DUP1 MLOAD PUSH4 0x4C6AFEE5 PUSH1 0xE1 SHL DUP2 MSTORE SWAP1 MLOAD PUSH1 0x0 SWAP5 PUSH2 0x9FF SWAP5 SWAP1 SWAP4 PUSH1 0x1 PUSH1 0x1 PUSH1 0xA0 SHL SUB AND SWAP3 PUSH4 0x98D5FDCA SWAP3 DUP2 DUP4 ADD SWAP3 PUSH1 0x20 SWAP3 DUP3 SWAP1 SUB ADD DUP2 DUP7 GAS STATICCALL ISZERO DUP1 ISZERO PUSH2 0x1347 JUMPI RETURNDATASIZE PUSH1 0x0 DUP1 RETURNDATACOPY RETURNDATASIZE PUSH1 0x0 REVERT JUMPDEST PUSH2 0x174D PUSH1 0x40 DUP1 MLOAD PUSH2 0x3C0 DUP2 ADD DUP3 MSTORE PUSH1 0x0 DUP1 DUP3 MSTORE PUSH1 0x20 DUP1 DUP4 ADD DUP3 SWAP1 MSTORE DUP3 DUP5 ADD DUP3 SWAP1 MSTORE PUSH1 0x60 DUP1 DUP5 ADD DUP4 SWAP1 MSTORE PUSH1 0x80 DUP1 DUP6 ADD DUP5 SWAP1 MSTORE PUSH1 0xA0 DUP6 ADD DUP5 SWAP1 MSTORE PUSH1 0xC0 DUP6 ADD DUP5 SWAP1 MSTORE PUSH1 0xE0 DUP6 ADD DUP5 SWAP1 MSTORE PUSH2 0x100 DUP6 ADD DUP5 SWAP1 MSTORE PUSH2 0x120 DUP6 ADD DUP5 SWAP1 MSTORE PUSH2 0x140 DUP6 ADD DUP5 SWAP1 MSTORE PUSH2 0x160 DUP6 ADD DUP5 SWAP1 MSTORE PUSH2 0x180 DUP6 ADD DUP5 SWAP1 MSTORE PUSH2 0x1A0 DUP6 ADD DUP5 SWAP1 MSTORE PUSH2 0x1C0 DUP6 ADD DUP5 SWAP1 MSTORE PUSH2 0x1E0 DUP6 ADD DUP5 SWAP1 MSTORE PUSH2 0x200 DUP6 ADD DUP5 SWAP1 MSTORE PUSH2 0x220 DUP6 ADD DUP5 SWAP1 MSTORE PUSH2 0x240 DUP6 ADD DUP5 SWAP1 MSTORE PUSH2 0x260 DUP6 ADD DUP5 SWAP1 MSTORE PUSH2 0x280 DUP6 ADD DUP5 SWAP1 MSTORE PUSH2 0x2A0 DUP6 ADD DUP5 SWAP1 MSTORE PUSH2 0x2C0 DUP6 ADD DUP5 SWAP1 MSTORE PUSH2 0x2E0 DUP6 ADD DUP5 SWAP1 MSTORE PUSH2 0x300 DUP6 ADD DUP5 SWAP1 MSTORE PUSH2 0x320 DUP6 ADD DUP5 SWAP1 MSTORE PUSH2 0x340 DUP6 ADD DUP5 SWAP1 MSTORE PUSH2 0x360 DUP6 ADD DUP5 SWAP1 MSTORE PUSH2 0x380 DUP6 ADD DUP5 SWAP1 MSTORE DUP6 MLOAD SWAP1 DUP2 ADD DUP7 MSTORE DUP4 DUP2 MSTORE SWAP2 DUP3 ADD DUP4 SWAP1 MSTORE SWAP4 DUP2 ADD DUP3 SWAP1 MSTORE SWAP3 DUP4 ADD MSTORE SWAP1 PUSH2 0x3A0 DUP3 ADD MSTORE SWAP1 JUMP JUMPDEST PUSH1 0x0 PUSH2 0x1757 PUSH2 0x2C64 JUMP JUMPDEST SWAP1 POP PUSH1 0x0 PUSH2 0x1768 PUSH1 0x8 SLOAD PUSH2 0xFFFF AND SWAP1 JUMP JUMPDEST SWAP1 POP PUSH1 0x0 PUSH2 0x1774 PUSH2 0x102F JUMP JUMPDEST SWAP1 POP PUSH1 0x0 PUSH2 0x1780 PUSH2 0x15EB JUMP JUMPDEST SWAP1 POP PUSH1 0x0 PUSH2 0x178E DUP4 DUP4 PUSH2 0x384B JUMP JUMPDEST PUSH1 0x3 SLOAD PUSH1 0x7 SLOAD PUSH1 0x8 SLOAD PUSH1 0x40 MLOAD PUSH4 0x3157D9C7 PUSH1 0xE0 SHL DUP2 MSTORE ADDRESS PUSH1 0x4 DUP3 ADD MSTORE PUSH1 0x24 DUP2 ADD SWAP3 SWAP1 SWAP3 MSTORE PUSH1 0x1 PUSH1 0x48 SHL SWAP1 DIV PUSH1 0xFF AND ISZERO ISZERO PUSH1 0x44 DUP3 ADD MSTORE SWAP2 SWAP3 POP PUSH1 0x0 SWAP2 PUSH1 0x1 PUSH1 0x1 PUSH1 0xA0 SHL SUB SWAP1 SWAP2 AND SWAP1 PUSH4 0x3157D9C7 SWAP1 PUSH1 0x64 ADD PUSH1 0x80 PUSH1 0x40 MLOAD DUP1 DUP4 SUB DUP2 DUP7 GAS STATICCALL ISZERO DUP1 ISZERO PUSH2 0x17FB JUMPI RETURNDATASIZE PUSH1 0x0 DUP1 RETURNDATACOPY RETURNDATASIZE PUSH1 0x0 REVERT JUMPDEST POP POP POP POP PUSH1 0x40 MLOAD RETURNDATASIZE PUSH1 0x1F NOT PUSH1 0x1F DUP3 ADD AND DUP3 ADD DUP1 PUSH1 0x40 MSTORE POP DUP2 ADD SWAP1 PUSH2 0x181F SWAP2 SWAP1 PUSH2 0x4322 JUMP JUMPDEST PUSH1 0x1 SLOAD PUSH1 0x1 PUSH1 0x1 PUSH1 0xA0 SHL SUB AND DUP9 MSTORE PUSH1 0x7 SLOAD PUSH1 0x20 DUP10 ADD MSTORE PUSH1 0xB SLOAD SWAP1 SWAP2 POP PUSH1 0x40 DUP9 ADD SWAP1 PUSH1 0xFF AND PUSH1 0x4 DUP2 GT ISZERO PUSH2 0x1854 JUMPI PUSH2 0x1854 PUSH2 0x3FC5 JUMP JUMPDEST SWAP1 DUP2 PUSH1 0x4 DUP2 GT ISZERO PUSH2 0x1867 JUMPI PUSH2 0x1867 PUSH2 0x3FC5 JUMP JUMPDEST SWAP1 MSTORE POP PUSH1 0x8 SLOAD PUSH1 0xFF PUSH1 0x1 PUSH1 0x40 SHL DUP3 DIV DUP2 AND PUSH1 0x60 DUP11 ADD MSTORE PUSH1 0x1 PUSH1 0x48 SHL SWAP1 SWAP2 DIV DUP2 AND ISZERO ISZERO PUSH1 0x80 DUP10 ADD MSTORE PUSH1 0xF SLOAD PUSH1 0xA0 DUP10 ADD MSTORE PUSH1 0x9 SLOAD PUSH1 0xC0 DUP10 ADD MSTORE PUSH1 0xA SLOAD PUSH1 0xE0 DUP10 ADD MSTORE PUSH1 0xC SLOAD PUSH2 0x100 DUP10 ADD SWAP2 AND PUSH1 0x6 DUP2 GT ISZERO PUSH2 0x18C1 JUMPI PUSH2 0x18C1 PUSH2 0x3FC5 JUMP JUMPDEST SWAP1 DUP2 PUSH1 0x6 DUP2 GT ISZERO PUSH2 0x18D4 JUMPI PUSH2 0x18D4 PUSH2 0x3FC5 JUMP JUMPDEST SWAP1 MSTORE POP PUSH1 0xD SLOAD PUSH2 0x120 DUP9 ADD MSTORE PUSH1 0xE SLOAD PUSH2 0x140 DUP9 ADD MSTORE PUSH1 0x8 SLOAD PUSH2 0xFFFF DUP1 DUP3 AND PUSH2 0x160 DUP11 ADD MSTORE PUSH3 0x10000 DUP3 DIV DUP2 AND PUSH2 0x180 DUP11 ADD MSTORE PUSH5 0x100000000 DUP3 DIV AND PUSH2 0x1A0 DUP10 ADD MSTORE PUSH1 0xFF PUSH1 0x1 PUSH1 0x30 SHL DUP3 DIV DUP2 AND PUSH2 0x1C0 DUP11 ADD MSTORE PUSH1 0x1 PUSH1 0x38 SHL SWAP1 SWAP2 DIV AND PUSH2 0x1E0 DUP9 ADD MSTORE PUSH2 0x200 DUP8 ADD DUP5 SWAP1 MSTORE PUSH2 0x220 DUP8 ADD DUP4 SWAP1 MSTORE PUSH2 0x240 DUP8 ADD DUP3 SWAP1 MSTORE PUSH2 0x1957 DUP3 DUP8 PUSH2 0x35F7 JUMP JUMPDEST PUSH2 0x260 DUP9 ADD MSTORE PUSH2 0x280 DUP8 ADD DUP7 SWAP1 MSTORE PUSH2 0x2A0 DUP8 ADD DUP6 SWAP1 MSTORE PUSH2 0x1975 PUSH2 0x3337 JUMP JUMPDEST PUSH2 0x2C0 DUP9 ADD MSTORE PUSH1 0x4 DUP1 SLOAD PUSH1 0x40 DUP1 MLOAD PUSH4 0x4C6AFEE5 PUSH1 0xE1 SHL DUP2 MSTORE SWAP1 MLOAD PUSH1 0x1 PUSH1 0x1 PUSH1 0xA0 SHL SUB SWAP1 SWAP3 AND SWAP3 PUSH4 0x98D5FDCA SWAP3 DUP3 DUP3 ADD SWAP3 PUSH1 0x20 SWAP3 SWAP1 DUP3 SWAP1 SUB ADD DUP2 DUP7 GAS STATICCALL ISZERO DUP1 ISZERO PUSH2 0x19C2 JUMPI RETURNDATASIZE PUSH1 0x0 DUP1 RETURNDATACOPY RETURNDATASIZE PUSH1 0x0 REVERT JUMPDEST POP POP POP POP PUSH1 0x40 MLOAD RETURNDATASIZE PUSH1 0x1F NOT PUSH1 0x1F DUP3 ADD AND DUP3 ADD DUP1 PUSH1 0x40 MSTORE POP DUP2 ADD SWAP1 PUSH2 0x19E6 SWAP2 SWAP1 PUSH2 0x42E5 JUMP JUMPDEST PUSH2 0x2E0 DUP9 ADD MSTORE PUSH2 0x19F4 PUSH2 0x10FF JUMP JUMPDEST PUSH2 0x300 DUP9 ADD MSTORE PUSH1 0x2 PUSH1 0xB SLOAD PUSH1 0xFF AND PUSH1 0x4 DUP2 GT ISZERO PUSH2 0x1A13 JUMPI PUSH2 0x1A13 PUSH2 0x3FC5 JUMP JUMPDEST EQ DUP1 ISZERO PUSH2 0x1A26 JUMPI POP PUSH2 0x1A26 DUP3 DUP7 DUP9 PUSH2 0x387A JUMP JUMPDEST ISZERO ISZERO PUSH2 0x320 DUP9 ADD MSTORE PUSH1 0x2 PUSH1 0xB SLOAD PUSH1 0xFF AND PUSH1 0x4 DUP2 GT ISZERO PUSH2 0x1A47 JUMPI PUSH2 0x1A47 PUSH2 0x3FC5 JUMP JUMPDEST EQ DUP1 ISZERO PUSH2 0x1A54 JUMPI POP DUP2 DUP7 GT ISZERO JUMPDEST ISZERO ISZERO PUSH2 0x340 DUP9 ADD MSTORE PUSH1 0x13 SLOAD PUSH2 0x360 DUP9 ADD MSTORE PUSH1 0x14 SLOAD PUSH2 0x380 DUP9 ADD MSTORE PUSH1 0x40 DUP1 MLOAD PUSH1 0x80 DUP2 ADD DUP3 MSTORE DUP3 MLOAD ISZERO ISZERO DUP2 MSTORE PUSH1 0x20 DUP1 DUP5 ADD MLOAD SWAP1 DUP3 ADD MSTORE DUP3 DUP3 ADD MLOAD SWAP2 DUP2 ADD SWAP2 SWAP1 SWAP2 MSTORE PUSH1 0x60 SWAP2 DUP3 ADD MLOAD SWAP2 DUP2 ADD SWAP2 SWAP1 SWAP2 MSTORE PUSH2 0x3A0 DUP8 ADD MSTORE POP SWAP4 SWAP5 SWAP4 POP POP POP POP JUMP JUMPDEST PUSH1 0x1 SLOAD PUSH1 0x1 PUSH1 0x1 PUSH1 0xA0 SHL SUB AND CALLER EQ PUSH2 0x1ADB JUMPI PUSH1 0x40 MLOAD PUSH4 0x30CD7471 PUSH1 0xE0 SHL DUP2 MSTORE PUSH1 0x4 ADD PUSH1 0x40 MLOAD DUP1 SWAP2 SUB SWAP1 REVERT JUMPDEST PUSH2 0x1AE3 PUSH2 0x35CD JUMP JUMPDEST PUSH1 0x14 SLOAD DUP1 PUSH2 0x1B28 JUMPI PUSH1 0x40 MLOAD PUSH3 0x461BCD PUSH1 0xE5 SHL DUP2 MSTORE PUSH1 0x20 PUSH1 0x4 DUP3 ADD MSTORE PUSH1 0x12 PUSH1 0x24 DUP3 ADD MSTORE PUSH18 0x2B30BAB63A1D1037379029A61037B93232B9 PUSH1 0x71 SHL PUSH1 0x44 DUP3 ADD MSTORE PUSH1 0x64 ADD PUSH2 0x12D7 JUMP JUMPDEST PUSH1 0x0 PUSH1 0x14 SSTORE PUSH1 0x3 SLOAD PUSH1 0x40 MLOAD PUSH4 0x2F94CDD1 PUSH1 0xE0 SHL DUP2 MSTORE PUSH1 0x4 DUP2 ADD DUP4 SWAP1 MSTORE PUSH1 0x1 PUSH1 0x1 PUSH1 0xA0 SHL SUB SWAP1 SWAP2 AND SWAP1 PUSH4 0x2F94CDD1 SWAP1 PUSH1 0x24 ADD PUSH1 0x0 PUSH1 0x40 MLOAD DUP1 DUP4 SUB DUP2 PUSH1 0x0 DUP8 DUP1 EXTCODESIZE ISZERO DUP1 ISZERO PUSH2 0x1B73 JUMPI PUSH1 0x0 DUP1 REVERT JUMPDEST POP GAS CALL ISZERO DUP1 ISZERO PUSH2 0x1B87 JUMPI RETURNDATASIZE PUSH1 0x0 DUP1 RETURNDATACOPY RETURNDATASIZE PUSH1 0x0 REVERT JUMPDEST POP ADDRESS SWAP3 POP PUSH32 0x7C008348CBDBEBADBA2266268371C327483E2EFAB9563EDE3FEDBB9A45C7C5A8 SWAP2 POP DUP4 SWAP1 POP PUSH1 0x6 JUMPDEST PUSH1 0x40 DUP1 MLOAD SWAP3 DUP4 MSTORE PUSH1 0xFF SWAP1 SWAP2 AND PUSH1 0x20 DUP4 ADD MSTORE ADD PUSH1 0x40 MLOAD DUP1 SWAP2 SUB SWAP1 LOG2 POP PUSH2 0x9E3 PUSH1 0x1 PUSH1 0x0 SSTORE JUMP JUMPDEST PUSH1 0x0 PUSH2 0x1BE3 PUSH2 0x3893 JUMP JUMPDEST DUP1 SLOAD SWAP1 SWAP2 POP PUSH1 0xFF PUSH1 0x1 PUSH1 0x40 SHL DUP3 DIV AND ISZERO SWAP1 PUSH8 0xFFFFFFFFFFFFFFFF AND PUSH1 0x0 DUP2 ISZERO DUP1 ISZERO PUSH2 0x1C0B JUMPI POP DUP3 JUMPDEST SWAP1 POP PUSH1 0x0 DUP3 PUSH8 0xFFFFFFFFFFFFFFFF AND PUSH1 0x1 EQ DUP1 ISZERO PUSH2 0x1C28 JUMPI POP ADDRESS EXTCODESIZE ISZERO JUMPDEST SWAP1 POP DUP2 ISZERO DUP1 ISZERO PUSH2 0x1C36 JUMPI POP DUP1 ISZERO JUMPDEST ISZERO PUSH2 0x1C54 JUMPI PUSH1 0x40 MLOAD PUSH4 0xF92EE8A9 PUSH1 0xE0 SHL DUP2 MSTORE PUSH1 0x4 ADD PUSH1 0x40 MLOAD DUP1 SWAP2 SUB SWAP1 REVERT JUMPDEST DUP5 SLOAD PUSH8 0xFFFFFFFFFFFFFFFF NOT AND PUSH1 0x1 OR DUP6 SSTORE DUP4 ISZERO PUSH2 0x1C7E JUMPI DUP5 SLOAD PUSH1 0xFF PUSH1 0x40 SHL NOT AND PUSH1 0x1 PUSH1 0x40 SHL OR DUP6 SSTORE JUMPDEST DUP13 PUSH1 0x1 PUSH1 0x0 PUSH2 0x100 EXP DUP2 SLOAD DUP2 PUSH1 0x1 PUSH1 0x1 PUSH1 0xA0 SHL SUB MUL NOT AND SWAP1 DUP4 PUSH1 0x1 PUSH1 0x1 PUSH1 0xA0 SHL SUB AND MUL OR SWAP1 SSTORE POP DUP12 PUSH1 0x2 PUSH1 0x0 PUSH2 0x100 EXP DUP2 SLOAD DUP2 PUSH1 0x1 PUSH1 0x1 PUSH1 0xA0 SHL SUB MUL NOT AND SWAP1 DUP4 PUSH1 0x1 PUSH1 0x1 PUSH1 0xA0 SHL SUB AND MUL OR SWAP1 SSTORE POP DUP11 PUSH1 0x3 PUSH1 0x0 PUSH2 0x100 EXP DUP2 SLOAD DUP2 PUSH1 0x1 PUSH1 0x1 PUSH1 0xA0 SHL SUB MUL NOT AND SWAP1 DUP4 PUSH1 0x1 PUSH1 0x1 PUSH1 0xA0 SHL SUB AND MUL OR SWAP1 SSTORE POP DUP10 PUSH1 0x4 PUSH1 0x0 PUSH2 0x100 EXP DUP2 SLOAD DUP2 PUSH1 0x1 PUSH1 0x1 PUSH1 0xA0 SHL SUB MUL NOT AND SWAP1 DUP4 PUSH1 0x1 PUSH1 0x1 PUSH1 0xA0 SHL SUB AND MUL OR SWAP1 SSTORE POP DUP9 PUSH1 0x5 PUSH1 0x0 PUSH2 0x100 EXP DUP2 SLOAD DUP2 PUSH1 0x1 PUSH1 0x1 PUSH1 0xA0 SHL SUB MUL NOT AND SWAP1 DUP4 PUSH1 0x1 PUSH1 0x1 PUSH1 0xA0 SHL SUB AND MUL OR SWAP1 SSTORE POP DUP8 PUSH1 0x6 PUSH1 0x0 PUSH2 0x100 EXP DUP2 SLOAD DUP2 PUSH1 0x1 PUSH1 0x1 PUSH1 0xA0 SHL SUB MUL NOT AND SWAP1 DUP4 PUSH1 0x1 PUSH1 0x1 PUSH1 0xA0 SHL SUB AND MUL OR SWAP1 SSTORE POP DUP7 PUSH1 0x7 DUP2 SWAP1 SSTORE POP DUP6 PUSH1 0x0 ADD PUSH1 0x20 DUP2 ADD SWAP1 PUSH2 0x1D82 SWAP2 SWAP1 PUSH2 0x4414 JUMP JUMPDEST PUSH1 0x8 DUP1 SLOAD PUSH2 0xFFFF NOT AND PUSH2 0xFFFF SWAP3 SWAP1 SWAP3 AND SWAP2 SWAP1 SWAP2 OR SWAP1 SSTORE PUSH2 0x1DA8 PUSH1 0x40 DUP8 ADD PUSH1 0x20 DUP9 ADD PUSH2 0x4414 JUMP JUMPDEST PUSH1 0x8 DUP1 SLOAD PUSH2 0xFFFF SWAP3 SWAP1 SWAP3 AND PUSH3 0x10000 MUL PUSH4 0xFFFF0000 NOT SWAP1 SWAP3 AND SWAP2 SWAP1 SWAP2 OR SWAP1 SSTORE PUSH2 0x1DD7 PUSH1 0x60 DUP8 ADD PUSH1 0x40 DUP9 ADD PUSH2 0x4414 JUMP JUMPDEST PUSH1 0x8 DUP1 SLOAD PUSH2 0xFFFF SWAP3 SWAP1 SWAP3 AND PUSH5 0x100000000 MUL PUSH6 0xFFFF00000000 NOT SWAP1 SWAP3 AND SWAP2 SWAP1 SWAP2 OR SWAP1 SSTORE PUSH2 0x1E0A PUSH1 0x80 DUP8 ADD PUSH1 0x60 DUP9 ADD PUSH2 0x4438 JUMP JUMPDEST PUSH1 0x8 DUP1 SLOAD PUSH1 0xFF SWAP3 SWAP1 SWAP3 AND PUSH1 0x1 PUSH1 0x30 SHL MUL PUSH7 0xFF000000000000 NOT SWAP1 SWAP3 AND SWAP2 SWAP1 SWAP2 OR SWAP1 SSTORE PUSH2 0x1E3C PUSH1 0xA0 DUP8 ADD PUSH1 0x80 DUP9 ADD PUSH2 0x4438 JUMP JUMPDEST PUSH1 0x8 DUP1 SLOAD PUSH1 0xFF SWAP3 SWAP1 SWAP3 AND PUSH1 0x1 PUSH1 0x38 SHL MUL PUSH8 0xFF00000000000000 NOT SWAP1 SWAP3 AND SWAP2 SWAP1 SWAP2 OR SWAP1 SSTORE PUSH1 0xB DUP1 SLOAD PUSH1 0xFF NOT AND SWAP1 SSTORE DUP4 ISZERO PUSH2 0x1EAF JUMPI DUP5 SLOAD PUSH1 0xFF PUSH1 0x40 SHL NOT AND DUP6 SSTORE PUSH1 0x40 MLOAD PUSH1 0x1 DUP2 MSTORE PUSH32 0xC7F505B2F371AE2175EE4913F4499E1F2633A7B5936321EED1CDAEB6115181D2 SWAP1 PUSH1 0x20 ADD PUSH1 0x40 MLOAD DUP1 SWAP2 SUB SWAP1 LOG1 JUMPDEST POP POP POP POP POP POP POP POP POP POP POP POP POP JUMP JUMPDEST PUSH1 0x1 SLOAD PUSH1 0x1 PUSH1 0x1 PUSH1 0xA0 SHL SUB AND CALLER EQ PUSH2 0x1EE9 JUMPI PUSH1 0x40 MLOAD PUSH4 0x30CD7471 PUSH1 0xE0 SHL DUP2 MSTORE PUSH1 0x4 ADD PUSH1 0x40 MLOAD DUP1 SWAP2 SUB SWAP1 REVERT JUMPDEST PUSH2 0x1EF1 PUSH2 0x35CD JUMP JUMPDEST PUSH1 0x13 SLOAD DUP1 PUSH2 0x1F36 JUMPI PUSH1 0x40 MLOAD PUSH3 0x461BCD PUSH1 0xE5 SHL DUP2 MSTORE PUSH1 0x20 PUSH1 0x4 DUP3 ADD MSTORE PUSH1 0x12 PUSH1 0x24 DUP3 ADD MSTORE PUSH18 0x2B30BAB63A1D103737902A281037B93232B9 PUSH1 0x71 SHL PUSH1 0x44 DUP3 ADD MSTORE PUSH1 0x64 ADD PUSH2 0x12D7 JUMP JUMPDEST PUSH1 0x0 PUSH1 0x13 SSTORE PUSH1 0x3 SLOAD PUSH1 0x40 MLOAD PUSH4 0x2F94CDD1 PUSH1 0xE0 SHL DUP2 MSTORE PUSH1 0x4 DUP2 ADD DUP4 SWAP1 MSTORE PUSH1 0x1 PUSH1 0x1 PUSH1 0xA0 SHL SUB SWAP1 SWAP2 AND SWAP1 PUSH4 0x2F94CDD1 SWAP1 PUSH1 0x24 ADD PUSH1 0x0 PUSH1 0x40 MLOAD DUP1 DUP4 SUB DUP2 PUSH1 0x0 DUP8 DUP1 EXTCODESIZE ISZERO DUP1 ISZERO PUSH2 0x1F81 JUMPI PUSH1 0x0 DUP1 REVERT JUMPDEST POP GAS CALL ISZERO DUP1 ISZERO PUSH2 0x1F95 JUMPI RETURNDATASIZE PUSH1 0x0 DUP1 RETURNDATACOPY RETURNDATASIZE PUSH1 0x0 REVERT JUMPDEST POP ADDRESS SWAP3 POP PUSH32 0x7C008348CBDBEBADBA2266268371C327483E2EFAB9563EDE3FEDBB9A45C7C5A8 SWAP2 POP DUP4 SWAP1 POP PUSH1 0x5 PUSH2 0x1BB4 JUMP JUMPDEST PUSH1 0xB SLOAD PUSH1 0xFF AND PUSH1 0x3 DUP2 PUSH1 0x4 DUP2 GT ISZERO PUSH2 0x1FE0 JUMPI PUSH2 0x1FE0 PUSH2 0x3FC5 JUMP JUMPDEST EQ ISZERO DUP1 ISZERO PUSH2 0x2000 JUMPI POP PUSH1 0x1 DUP2 PUSH1 0x4 DUP2 GT ISZERO PUSH2 0x1FFD JUMPI PUSH2 0x1FFD PUSH2 0x3FC5 JUMP JUMPDEST EQ ISZERO JUMPDEST ISZERO PUSH2 0x201E JUMPI PUSH1 0x40 MLOAD PUSH4 0x4291DB15 PUSH1 0xE1 SHL DUP2 MSTORE PUSH1 0x4 ADD PUSH1 0x40 MLOAD DUP1 SWAP2 SUB SWAP1 REVERT JUMPDEST PUSH1 0x4 PUSH1 0xC SLOAD PUSH1 0xFF AND PUSH1 0x6 DUP2 GT ISZERO PUSH2 0x2037 JUMPI PUSH2 0x2037 PUSH2 0x3FC5 JUMP JUMPDEST SUB PUSH2 0x2055 JUMPI PUSH1 0x40 MLOAD PUSH4 0x4291DB15 PUSH1 0xE1 SHL DUP2 MSTORE PUSH1 0x4 ADD PUSH1 0x40 MLOAD DUP1 SWAP2 SUB SWAP1 REVERT JUMPDEST PUSH1 0xE SLOAD PUSH2 0x2065 SWAP1 PUSH2 0x12C SWAP1 PUSH2 0x4401 JUMP JUMPDEST TIMESTAMP GT PUSH2 0x2084 JUMPI PUSH1 0x40 MLOAD PUSH4 0x828630FB PUSH1 0xE0 SHL DUP2 MSTORE PUSH1 0x4 ADD PUSH1 0x40 MLOAD DUP1 SWAP2 SUB SWAP1 REVERT JUMPDEST PUSH1 0xD DUP1 SLOAD PUSH1 0xC DUP1 SLOAD PUSH1 0xFF NOT AND SWAP1 SSTORE PUSH1 0x0 SWAP2 DUP3 SWAP1 SSTORE PUSH1 0xE SWAP2 SWAP1 SWAP2 SSTORE PUSH1 0x3 DUP3 PUSH1 0x4 DUP2 GT ISZERO PUSH2 0x20B2 JUMPI PUSH2 0x20B2 PUSH2 0x3FC5 JUMP JUMPDEST SUB PUSH2 0x20C9 JUMPI PUSH1 0xB DUP1 SLOAD PUSH1 0xFF NOT AND PUSH1 0x2 OR SWAP1 SSTORE PUSH2 0x2143 JUMP JUMPDEST PUSH1 0x5 SLOAD PUSH1 0x40 MLOAD PUSH4 0x70A08231 PUSH1 0xE0 SHL DUP2 MSTORE ADDRESS PUSH1 0x4 DUP3 ADD MSTORE PUSH1 0x1 PUSH1 0x1 PUSH1 0xA0 SHL SUB SWAP1 SWAP2 AND SWAP1 PUSH4 0x70A08231 SWAP1 PUSH1 0x24 ADD PUSH1 0x20 PUSH1 0x40 MLOAD DUP1 DUP4 SUB DUP2 DUP7 GAS STATICCALL ISZERO DUP1 ISZERO PUSH2 0x2111 JUMPI RETURNDATASIZE PUSH1 0x0 DUP1 RETURNDATACOPY RETURNDATASIZE PUSH1 0x0 REVERT JUMPDEST POP POP POP POP PUSH1 0x40 MLOAD RETURNDATASIZE PUSH1 0x1F NOT PUSH1 0x1F DUP3 ADD AND DUP3 ADD DUP1 PUSH1 0x40 MSTORE POP DUP2 ADD SWAP1 PUSH2 0x2135 SWAP2 SWAP1 PUSH2 0x42E5 JUMP JUMPDEST PUSH1 0x9 SSTORE PUSH1 0xB DUP1 SLOAD PUSH1 0xFF NOT AND SWAP1 SSTORE JUMPDEST PUSH1 0x40 MLOAD DUP2 DUP2 MSTORE ADDRESS SWAP1 PUSH32 0xAC6F236AB4D2206E338939C4173730E691402945CFB6A6C5584FECFB5EBA4DFE SWAP1 PUSH1 0x20 ADD PUSH1 0x40 MLOAD DUP1 SWAP2 SUB SWAP1 LOG2 POP POP JUMP JUMPDEST PUSH1 0x1 SLOAD PUSH1 0x1 PUSH1 0x1 PUSH1 0xA0 SHL SUB AND CALLER EQ PUSH2 0x21A7 JUMPI PUSH1 0x40 MLOAD PUSH4 0x30CD7471 PUSH1 0xE0 SHL DUP2 MSTORE PUSH1 0x4 ADD PUSH1 0x40 MLOAD DUP1 SWAP2 SUB SWAP1 REVERT JUMPDEST PUSH1 0x2 PUSH1 0x0 SWAP1 SLOAD SWAP1 PUSH2 0x100 EXP SWAP1 DIV PUSH1 0x1 PUSH1 0x1 PUSH1 0xA0 SHL SUB AND PUSH1 0x1 PUSH1 0x1 PUSH1 0xA0 SHL SUB AND PUSH4 0x5C975ABB PUSH1 0x40 MLOAD DUP2 PUSH4 0xFFFFFFFF AND PUSH1 0xE0 SHL DUP2 MSTORE PUSH1 0x4 ADD PUSH1 0x20 PUSH1 0x40 MLOAD DUP1 DUP4 SUB DUP2 DUP7 GAS STATICCALL ISZERO DUP1 ISZERO PUSH2 0x21FA JUMPI RETURNDATASIZE PUSH1 0x0 DUP1 RETURNDATACOPY RETURNDATASIZE PUSH1 0x0 REVERT JUMPDEST POP POP POP POP PUSH1 0x40 MLOAD RETURNDATASIZE PUSH1 0x1F NOT PUSH1 0x1F DUP3 ADD AND DUP3 ADD DUP1 PUSH1 0x40 MSTORE POP DUP2 ADD SWAP1 PUSH2 0x221E SWAP2 SWAP1 PUSH2 0x42FE JUMP JUMPDEST ISZERO PUSH2 0x223C JUMPI PUSH1 0x40 MLOAD PUSH4 0x4291DB15 PUSH1 0xE1 SHL DUP2 MSTORE PUSH1 0x4 ADD PUSH1 0x40 MLOAD DUP1 SWAP2 SUB SWAP1 REVERT JUMPDEST PUSH2 0x2244 PUSH2 0x35CD JUMP JUMPDEST PUSH1 0x0 PUSH1 0xB SLOAD PUSH1 0xFF AND PUSH1 0x4 DUP2 GT ISZERO PUSH2 0x225D JUMPI PUSH2 0x225D PUSH2 0x3FC5 JUMP JUMPDEST EQ PUSH2 0x227B JUMPI PUSH1 0x40 MLOAD PUSH4 0x4291DB15 PUSH1 0xE1 SHL DUP2 MSTORE PUSH1 0x4 ADD PUSH1 0x40 MLOAD DUP1 SWAP2 SUB SWAP1 REVERT JUMPDEST PUSH3 0xF4240 PUSH1 0x9 SLOAD LT ISZERO PUSH2 0x22A1 JUMPI PUSH1 0x40 MLOAD PUSH4 0x4DBFE81 PUSH1 0xE2 SHL DUP2 MSTORE PUSH1 0x4 ADD PUSH1 0x40 MLOAD DUP1 SWAP2 SUB SWAP1 REVERT JUMPDEST PUSH1 0x1 DUP4 PUSH1 0xFF AND LT DUP1 PUSH2 0x22C2 JUMPI POP PUSH1 0x8 SLOAD PUSH1 0xFF PUSH1 0x1 PUSH1 0x38 SHL SWAP1 SWAP2 DIV DUP2 AND SWAP1 DUP5 AND GT JUMPDEST ISZERO PUSH2 0x22E0 JUMPI PUSH1 0x40 MLOAD PUSH4 0x522007A5 PUSH1 0xE0 SHL DUP2 MSTORE PUSH1 0x4 ADD PUSH1 0x40 MLOAD DUP1 SWAP2 SUB SWAP1 REVERT JUMPDEST PUSH6 0x5AF3107A4000 CALLVALUE LT ISZERO PUSH2 0x2307 JUMPI PUSH1 0x40 MLOAD PUSH4 0x3ADC8FE7 PUSH1 0xE2 SHL DUP2 MSTORE PUSH1 0x4 ADD PUSH1 0x40 MLOAD DUP1 SWAP2 SUB SWAP1 REVERT JUMPDEST PUSH1 0x0 DUP3 GT PUSH2 0x2357 JUMPI PUSH1 0x40 MLOAD PUSH3 0x461BCD PUSH1 0xE5 SHL DUP2 MSTORE PUSH1 0x20 PUSH1 0x4 DUP3 ADD MSTORE PUSH1 0x17 PUSH1 0x24 DUP3 ADD MSTORE PUSH32 0x5661756C743A207A65726F206C696D6974207072696365000000000000000000 PUSH1 0x44 DUP3 ADD MSTORE PUSH1 0x64 ADD PUSH2 0x12D7 JUMP JUMPDEST PUSH1 0x8 DUP1 SLOAD PUSH2 0xFFFF PUSH1 0x40 SHL NOT AND PUSH1 0x1 PUSH1 0x40 SHL PUSH1 0xFF DUP7 AND MUL PUSH1 0xFF PUSH1 0x48 SHL NOT AND OR PUSH1 0x1 PUSH1 0x48 SHL DUP4 ISZERO ISZERO MUL OR SWAP1 SSTORE PUSH1 0x3 SLOAD PUSH1 0x9 SLOAD PUSH1 0x5 SLOAD PUSH2 0x23A2 SWAP3 PUSH1 0x1 PUSH1 0x1 PUSH1 0xA0 SHL SUB SWAP2 DUP3 AND SWAP3 SWAP2 AND SWAP1 PUSH2 0x3683 JUMP JUMPDEST PUSH1 0x3 SLOAD PUSH1 0x7 SLOAD PUSH1 0x9 SLOAD PUSH1 0x40 MLOAD PUSH4 0x104AA81 PUSH1 0xE3 SHL DUP2 MSTORE PUSH1 0x4 DUP2 ADD SWAP3 SWAP1 SWAP3 MSTORE PUSH1 0x24 DUP3 ADD MSTORE PUSH1 0x44 DUP2 ADD DUP5 SWAP1 MSTORE PUSH1 0xFF DUP6 AND PUSH1 0x64 DUP3 ADD MSTORE DUP3 ISZERO ISZERO PUSH1 0x84 DUP3 ADD MSTORE PUSH1 0x0 SWAP2 PUSH1 0x1 PUSH1 0x1 PUSH1 0xA0 SHL SUB AND SWAP1 PUSH4 0x8255408 SWAP1 CALLVALUE SWAP1 PUSH1 0xA4 ADD PUSH1 0x20 PUSH1 0x40 MLOAD DUP1 DUP4 SUB DUP2 DUP6 DUP9 GAS CALL ISZERO DUP1 ISZERO PUSH2 0x2413 JUMPI RETURNDATASIZE PUSH1 0x0 DUP1 RETURNDATACOPY RETURNDATASIZE PUSH1 0x0 REVERT JUMPDEST POP POP POP POP POP PUSH1 0x40 MLOAD RETURNDATASIZE PUSH1 0x1F NOT PUSH1 0x1F DUP3 ADD AND DUP3 ADD DUP1 PUSH1 0x40 MSTORE POP DUP2 ADD SWAP1 PUSH2 0x2438 SWAP2 SWAP1 PUSH2 0x42E5 JUMP JUMPDEST PUSH1 0xB DUP1 SLOAD PUSH1 0x1 PUSH1 0xFF NOT SWAP2 DUP3 AND OR SWAP1 SWAP2 SSTORE PUSH1 0x40 DUP1 MLOAD PUSH1 0x60 DUP1 DUP3 ADD DUP4 MSTORE PUSH1 0x4 DUP1 DUP4 MSTORE PUSH1 0x20 DUP1 DUP5 ADD DUP8 SWAP1 MSTORE TIMESTAMP SWAP4 DUP6 ADD DUP5 SWAP1 MSTORE PUSH1 0xC DUP1 SLOAD SWAP1 SWAP7 AND SWAP1 SWAP2 OR SWAP1 SWAP5 SSTORE PUSH1 0xD DUP6 SWAP1 SSTORE PUSH1 0xE SWAP2 SWAP1 SWAP2 SSTORE DUP2 MLOAD DUP5 DUP2 MSTORE PUSH1 0xFF DUP10 AND SWAP4 DUP2 ADD SWAP4 SWAP1 SWAP4 MSTORE DUP6 ISZERO ISZERO DUP4 DUP4 ADD MSTORE SWAP1 MLOAD SWAP3 SWAP4 POP ADDRESS SWAP3 PUSH32 0x4E3F6D3EE7E3781D95140A8C1BBB9E544AD186D11D46B416C5204053317E0489 SWAP3 DUP2 SWAP1 SUB SWAP1 SWAP2 ADD SWAP1 LOG2 POP PUSH2 0x24D2 PUSH1 0x1 PUSH1 0x0 SSTORE JUMP JUMPDEST POP POP POP JUMP JUMPDEST PUSH1 0x1 SLOAD PUSH1 0x1 PUSH1 0x1 PUSH1 0xA0 SHL SUB AND CALLER EQ PUSH2 0x2502 JUMPI PUSH1 0x40 MLOAD PUSH4 0x30CD7471 PUSH1 0xE0 SHL DUP2 MSTORE PUSH1 0x4 ADD PUSH1 0x40 MLOAD DUP1 SWAP2 SUB SWAP1 REVERT JUMPDEST PUSH1 0x2 PUSH1 0x0 SWAP1 SLOAD SWAP1 PUSH2 0x100 EXP SWAP1 DIV PUSH1 0x1 PUSH1 0x1 PUSH1 0xA0 SHL SUB AND PUSH1 0x1 PUSH1 0x1 PUSH1 0xA0 SHL SUB AND PUSH4 0x5C975ABB PUSH1 0x40 MLOAD DUP2 PUSH4 0xFFFFFFFF AND PUSH1 0xE0 SHL DUP2 MSTORE PUSH1 0x4 ADD PUSH1 0x20 PUSH1 0x40 MLOAD DUP1 DUP4 SUB DUP2 DUP7 GAS STATICCALL ISZERO DUP1 ISZERO PUSH2 0x2555 JUMPI RETURNDATASIZE PUSH1 0x0 DUP1 RETURNDATACOPY RETURNDATASIZE PUSH1 0x0 REVERT JUMPDEST POP POP POP POP PUSH1 0x40 MLOAD RETURNDATASIZE PUSH1 0x1F NOT PUSH1 0x1F DUP3 ADD AND DUP3 ADD DUP1 PUSH1 0x40 MSTORE POP DUP2 ADD SWAP1 PUSH2 0x2579 SWAP2 SWAP1 PUSH2 0x42FE JUMP JUMPDEST ISZERO PUSH2 0x2597 JUMPI PUSH1 0x40 MLOAD PUSH4 0x4291DB15 PUSH1 0xE1 SHL DUP2 MSTORE PUSH1 0x4 ADD PUSH1 0x40 MLOAD DUP1 SWAP2 SUB SWAP1 REVERT JUMPDEST PUSH2 0x259F PUSH2 0x35CD JUMP JUMPDEST PUSH1 0x2 PUSH1 0xB SLOAD PUSH1 0xFF AND PUSH1 0x4 DUP2 GT ISZERO PUSH2 0x25B8 JUMPI PUSH2 0x25B8 PUSH2 0x3FC5 JUMP JUMPDEST EQ PUSH2 0x25D6 JUMPI PUSH1 0x40 MLOAD PUSH4 0x4291DB15 PUSH1 0xE1 SHL DUP2 MSTORE PUSH1 0x4 ADD PUSH1 0x40 MLOAD DUP1 SWAP2 SUB SWAP1 REVERT JUMPDEST PUSH6 0x5AF3107A4000 CALLVALUE LT ISZERO PUSH2 0x25FD JUMPI PUSH1 0x40 MLOAD PUSH4 0x3ADC8FE7 PUSH1 0xE2 SHL DUP2 MSTORE PUSH1 0x4 ADD PUSH1 0x40 MLOAD DUP1 SWAP2 SUB SWAP1 REVERT JUMPDEST PUSH1 0x0 DUP2 GT PUSH2 0x2644 JUMPI PUSH1 0x40 MLOAD PUSH3 0x461BCD PUSH1 0xE5 SHL DUP2 MSTORE PUSH1 0x20 PUSH1 0x4 DUP3 ADD MSTORE PUSH1 0x14 PUSH1 0x24 DUP3 ADD MSTORE PUSH20 0x5661756C743A207A65726F205450207072696365 PUSH1 0x60 SHL PUSH1 0x44 DUP3 ADD MSTORE PUSH1 0x64 ADD PUSH2 0x12D7 JUMP JUMPDEST PUSH1 0x3 SLOAD PUSH1 0xF SLOAD PUSH1 0x40 MLOAD PUSH4 0x3483BDD9 PUSH1 0xE1 SHL DUP2 MSTORE PUSH1 0x0 SWAP3 PUSH1 0x1 PUSH1 0x1 PUSH1 0xA0 SHL SUB AND SWAP2 PUSH4 0x69077BB2 SWAP2 CALLVALUE SWAP2 PUSH2 0x2683 SWAP2 DUP8 SWAP1 PUSH1 0x4 ADD SWAP2 DUP3 MSTORE PUSH1 0x20 DUP3 ADD MSTORE PUSH1 0x40 ADD SWAP1 JUMP JUMPDEST PUSH1 0x20 PUSH1 0x40 MLOAD DUP1 DUP4 SUB DUP2 DUP6 DUP9 GAS CALL ISZERO DUP1 ISZERO PUSH2 0x26A1 JUMPI RETURNDATASIZE PUSH1 0x0 DUP1 RETURNDATACOPY RETURNDATASIZE PUSH1 0x0 REVERT JUMPDEST POP POP POP POP POP PUSH1 0x40 MLOAD RETURNDATASIZE PUSH1 0x1F NOT PUSH1 0x1F DUP3 ADD AND DUP3 ADD DUP1 PUSH1 0x40 MSTORE POP DUP2 ADD SWAP1 PUSH2 0x26C6 SWAP2 SWAP1 PUSH2 0x42E5 JUMP JUMPDEST PUSH1 0x13 DUP2 SWAP1 SSTORE PUSH1 0x40 DUP1 MLOAD DUP3 DUP2 MSTORE PUSH1 0x20 DUP2 ADD DUP6 SWAP1 MSTORE SWAP2 SWAP3 POP ADDRESS SWAP2 PUSH32 0x44E28821089A6B1156324CBDBA5BA5C2A16B5B2058557FAA01C40BF3138BAB25 SWAP2 ADD PUSH2 0x1449 JUMP JUMPDEST PUSH1 0x1 SLOAD PUSH1 0x1 PUSH1 0x1 PUSH1 0xA0 SHL SUB AND CALLER EQ PUSH2 0x2731 JUMPI PUSH1 0x40 MLOAD PUSH4 0x30CD7471 PUSH1 0xE0 SHL DUP2 MSTORE PUSH1 0x4 ADD PUSH1 0x40 MLOAD DUP1 SWAP2 SUB SWAP1 REVERT JUMPDEST PUSH1 0x2 PUSH1 0x0 SWAP1 SLOAD SWAP1 PUSH2 0x100 EXP SWAP1 DIV PUSH1 0x1 PUSH1 0x1 PUSH1 0xA0 SHL SUB AND PUSH1 0x1 PUSH1 0x1 PUSH1 0xA0 SHL SUB AND PUSH4 0x5C975ABB PUSH1 0x40 MLOAD DUP2 PUSH4 0xFFFFFFFF AND PUSH1 0xE0 SHL DUP2 MSTORE PUSH1 0x4 ADD PUSH1 0x20 PUSH1 0x40 MLOAD DUP1 DUP4 SUB DUP2 DUP7 GAS STATICCALL ISZERO DUP1 ISZERO PUSH2 0x2784 JUMPI RETURNDATASIZE PUSH1 0x0 DUP1 RETURNDATACOPY RETURNDATASIZE PUSH1 0x0 REVERT JUMPDEST POP POP POP POP PUSH1 0x40 MLOAD RETURNDATASIZE PUSH1 0x1F NOT PUSH1 0x1F DUP3 ADD AND DUP3 ADD DUP1 PUSH1 0x40 MSTORE POP DUP2 ADD SWAP1 PUSH2 0x27A8 SWAP2 SWAP1 PUSH2 0x42FE JUMP JUMPDEST ISZERO PUSH2 0x27C6 JUMPI PUSH1 0x40 MLOAD PUSH4 0x4291DB15 PUSH1 0xE1 SHL DUP2 MSTORE PUSH1 0x4 ADD PUSH1 0x40 MLOAD DUP1 SWAP2 SUB SWAP1 REVERT JUMPDEST PUSH2 0x27CE PUSH2 0x35CD JUMP JUMPDEST PUSH1 0x2 PUSH1 0xB SLOAD PUSH1 0xFF AND PUSH1 0x4 DUP2 GT ISZERO PUSH2 0x27E7 JUMPI PUSH2 0x27E7 PUSH2 0x3FC5 JUMP JUMPDEST EQ PUSH2 0x2805 JUMPI PUSH1 0x40 MLOAD PUSH4 0x4291DB15 PUSH1 0xE1 SHL DUP2 MSTORE PUSH1 0x4 ADD PUSH1 0x40 MLOAD DUP1 SWAP2 SUB SWAP1 REVERT JUMPDEST PUSH1 0x0 DUP2 GT PUSH2 0x2841 JUMPI PUSH1 0x40 MLOAD PUSH3 0x461BCD PUSH1 0xE5 SHL DUP2 MSTORE PUSH1 0x20 PUSH1 0x4 DUP3 ADD MSTORE PUSH1 0x9 PUSH1 0x24 DUP3 ADD MSTORE PUSH9 0x1E995C9BC81B5A5B9D PUSH1 0xBA SHL PUSH1 0x44 DUP3 ADD MSTORE PUSH1 0x64 ADD PUSH2 0x12D7 JUMP JUMPDEST PUSH2 0x2849 PUSH2 0x3769 JUMP JUMPDEST PUSH1 0x0 PUSH2 0x2853 PUSH2 0x3337 JUMP JUMPDEST SWAP1 POP DUP1 PUSH1 0x0 SUB PUSH2 0x2876 JUMPI PUSH1 0x40 MLOAD PUSH4 0x5296A209 PUSH1 0xE1 SHL DUP2 MSTORE PUSH1 0x4 ADD PUSH1 0x40 MLOAD DUP1 SWAP2 SUB SWAP1 REVERT JUMPDEST PUSH1 0x0 DUP3 PUSH1 0xA SLOAD PUSH2 0x2886 SWAP2 SWAP1 PUSH2 0x4401 JUMP JUMPDEST SWAP1 POP PUSH1 0x0 PUSH2 0x28DF PUSH2 0x2895 PUSH2 0x102F JUMP JUMPDEST PUSH1 0x4 DUP1 SLOAD PUSH1 0x40 DUP1 MLOAD PUSH4 0x4C6AFEE5 PUSH1 0xE1 SHL DUP2 MSTORE SWAP1 MLOAD PUSH2 0xBF7 SWAP4 DUP9 SWAP4 PUSH1 0x1 PUSH1 0x1 PUSH1 0xA0 SHL SUB AND SWAP3 PUSH4 0x98D5FDCA SWAP3 DUP2 DUP4 ADD SWAP3 PUSH1 0x20 SWAP3 DUP3 SWAP1 SUB ADD DUP2 DUP7 GAS STATICCALL ISZERO DUP1 ISZERO PUSH2 0x1347 JUMPI RETURNDATASIZE PUSH1 0x0 DUP1 RETURNDATACOPY RETURNDATASIZE PUSH1 0x0 REVERT JUMPDEST SWAP1 POP DUP1 DUP4 LT ISZERO PUSH2 0x2902 JUMPI PUSH1 0x40 MLOAD PUSH4 0x5296A209 PUSH1 0xE1 SHL DUP2 MSTORE PUSH1 0x4 ADD PUSH1 0x40 MLOAD DUP1 SWAP2 SUB SWAP1 REVERT JUMPDEST PUSH2 0x2710 PUSH1 0x19 PUSH2 0x2961 PUSH2 0x114B DUP8 PUSH1 0x4 PUSH1 0x0 SWAP1 SLOAD SWAP1 PUSH2 0x100 EXP SWAP1 DIV PUSH1 0x1 PUSH1 0x1 PUSH1 0xA0 SHL SUB AND PUSH1 0x1 PUSH1 0x1 PUSH1 0xA0 SHL SUB AND PUSH4 0x98D5FDCA PUSH1 0x40 MLOAD DUP2 PUSH4 0xFFFFFFFF AND PUSH1 0xE0 SHL DUP2 MSTORE PUSH1 0x4 ADD PUSH1 0x20 PUSH1 0x40 MLOAD DUP1 DUP4 SUB DUP2 DUP7 GAS STATICCALL ISZERO DUP1 ISZERO PUSH2 0x1347 JUMPI RETURNDATASIZE PUSH1 0x0 DUP1 RETURNDATACOPY RETURNDATASIZE PUSH1 0x0 REVERT JUMPDEST PUSH2 0x296B SWAP2 SWAP1 PUSH2 0x43C8 JUMP JUMPDEST PUSH2 0x2975 SWAP2 SWAP1 PUSH2 0x43DF JUMP JUMPDEST PUSH1 0x11 PUSH1 0x0 DUP3 DUP3 SLOAD PUSH2 0x2986 SWAP2 SWAP1 PUSH2 0x4401 JUMP JUMPDEST SWAP1 SWAP2 SSTORE POP POP PUSH1 0xA DUP3 SWAP1 SSTORE PUSH1 0x6 SLOAD PUSH1 0x1 SLOAD PUSH1 0x40 MLOAD PUSH4 0x40C10F19 PUSH1 0xE0 SHL DUP2 MSTORE PUSH1 0x1 PUSH1 0x1 PUSH1 0xA0 SHL SUB SWAP2 DUP3 AND PUSH1 0x4 DUP3 ADD MSTORE PUSH1 0x24 DUP2 ADD DUP8 SWAP1 MSTORE SWAP2 AND SWAP1 PUSH4 0x40C10F19 SWAP1 PUSH1 0x44 ADD PUSH1 0x0 PUSH1 0x40 MLOAD DUP1 DUP4 SUB DUP2 PUSH1 0x0 DUP8 DUP1 EXTCODESIZE ISZERO DUP1 ISZERO PUSH2 0x29E0 JUMPI PUSH1 0x0 DUP1 REVERT JUMPDEST POP GAS CALL ISZERO DUP1 ISZERO PUSH2 0x29F4 JUMPI RETURNDATASIZE PUSH1 0x0 DUP1 RETURNDATACOPY RETURNDATASIZE PUSH1 0x0 REVERT JUMPDEST POP POP PUSH1 0x40 MLOAD DUP7 DUP2 MSTORE ADDRESS SWAP3 POP PUSH32 0xFC9C378C70D6C7D7ECB2262305DFC360E194E5027FD30900FEDAB89BCE176C24 SWAP2 POP PUSH1 0x20 ADD PUSH1 0x40 MLOAD DUP1 SWAP2 SUB SWAP1 LOG2 POP POP POP PUSH2 0x145C PUSH1 0x1 PUSH1 0x0 SSTORE JUMP JUMPDEST PUSH1 0x3 SLOAD PUSH1 0x1 PUSH1 0x1 PUSH1 0xA0 SHL SUB AND CALLER EQ PUSH2 0x2A65 JUMPI PUSH1 0x40 MLOAD PUSH4 0x38A3CEBB PUSH1 0xE0 SHL DUP2 MSTORE PUSH1 0x4 ADD PUSH1 0x40 MLOAD DUP1 SWAP2 SUB SWAP1 REVERT JUMPDEST PUSH2 0x2A6D PUSH2 0x35CD JUMP JUMPDEST PUSH1 0x13 SLOAD DUP2 EQ DUP1 PUSH2 0x2A7E JUMPI POP PUSH1 0x14 SLOAD DUP2 EQ JUMPDEST ISZERO PUSH2 0x2A9A JUMPI PUSH1 0x0 PUSH1 0x13 DUP2 SWAP1 SSTORE PUSH1 0x14 SSTORE PUSH2 0x2A95 PUSH2 0x38BC JUMP JUMPDEST PUSH2 0x15E1 JUMP JUMPDEST PUSH1 0xD SLOAD DUP2 EQ PUSH2 0x2ABC JUMPI PUSH1 0x40 MLOAD PUSH4 0xEE9F2D53 PUSH1 0xE0 SHL DUP2 MSTORE PUSH1 0x4 ADD PUSH1 0x40 MLOAD DUP1 SWAP2 SUB SWAP1 REVERT JUMPDEST PUSH1 0xC SLOAD PUSH1 0xFF AND PUSH1 0x1 DUP2 PUSH1 0x6 DUP2 GT ISZERO PUSH2 0x2AD6 JUMPI PUSH2 0x2AD6 PUSH2 0x3FC5 JUMP JUMPDEST EQ DUP1 PUSH2 0x2AF3 JUMPI POP PUSH1 0x4 DUP2 PUSH1 0x6 DUP2 GT ISZERO PUSH2 0x2AF1 JUMPI PUSH2 0x2AF1 PUSH2 0x3FC5 JUMP JUMPDEST EQ JUMPDEST ISZERO PUSH2 0x2BE9 JUMPI PUSH1 0x3 SLOAD PUSH1 0x7 SLOAD PUSH1 0x8 SLOAD PUSH1 0x40 MLOAD PUSH4 0x66BF5A9 PUSH1 0xE0 SHL DUP2 MSTORE ADDRESS PUSH1 0x4 DUP3 ADD MSTORE PUSH1 0x24 DUP2 ADD SWAP3 SWAP1 SWAP3 MSTORE PUSH1 0x1 PUSH1 0x48 SHL SWAP1 DIV PUSH1 0xFF AND ISZERO ISZERO PUSH1 0x44 DUP3 ADD MSTORE PUSH1 0x1 PUSH1 0x1 PUSH1 0xA0 SHL SUB SWAP1 SWAP2 AND SWAP1 PUSH4 0x66BF5A9 SWAP1 PUSH1 0x64 ADD PUSH1 0x20 PUSH1 0x40 MLOAD DUP1 DUP4 SUB DUP2 DUP7 GAS STATICCALL ISZERO DUP1 ISZERO PUSH2 0x2B5F JUMPI RETURNDATASIZE PUSH1 0x0 DUP1 RETURNDATACOPY RETURNDATASIZE PUSH1 0x0 REVERT JUMPDEST POP POP POP POP PUSH1 0x40 MLOAD RETURNDATASIZE PUSH1 0x1F NOT PUSH1 0x1F DUP3 ADD AND DUP3 ADD DUP1 PUSH1 0x40 MSTORE POP DUP2 ADD SWAP1 PUSH2 0x2B83 SWAP2 SWAP1 PUSH2 0x42E5 JUMP JUMPDEST PUSH1 0xF DUP2 SWAP1 SSTORE PUSH1 0xB DUP1 SLOAD PUSH1 0xFF NOT SWAP1 DUP2 AND PUSH1 0x2 OR SWAP1 SWAP2 SSTORE TIMESTAMP PUSH1 0x12 SSTORE PUSH1 0xC DUP1 SLOAD SWAP1 SWAP2 AND SWAP1 SSTORE PUSH1 0x0 PUSH1 0xD DUP2 SWAP1 SSTORE PUSH1 0xE SSTORE PUSH1 0x40 MLOAD SWAP1 DUP2 MSTORE ADDRESS SWAP1 PUSH32 0x4EE2F23BA3377A15E2C44FC57723F174419C592D3D78FE5942F2BEFC5CDB11D6 SWAP1 PUSH1 0x20 ADD PUSH1 0x40 MLOAD DUP1 SWAP2 SUB SWAP1 LOG2 PUSH2 0x2C17 JUMP JUMPDEST PUSH1 0x2 DUP2 PUSH1 0x6 DUP2 GT ISZERO PUSH2 0x2BFD JUMPI PUSH2 0x2BFD PUSH2 0x3FC5 JUMP JUMPDEST SUB PUSH2 0x2C0F JUMPI PUSH2 0x2C0A PUSH2 0x38BC JUMP JUMPDEST PUSH2 0x2C17 JUMP JUMPDEST PUSH2 0x2C17 PUSH2 0x3A46 JUMP JUMPDEST POP PUSH2 0x145C PUSH1 0x1 PUSH1 0x0 SSTORE JUMP JUMPDEST PUSH1 0x0 PUSH1 0x2 PUSH1 0xB SLOAD PUSH1 0xFF AND PUSH1 0x4 DUP2 GT ISZERO PUSH2 0x2C3D JUMPI PUSH2 0x2C3D PUSH2 0x3FC5 JUMP JUMPDEST EQ DUP1 ISZERO PUSH2 0x9FF JUMPI POP PUSH2 0x9FF PUSH2 0x2C50 PUSH2 0xBBC JUMP JUMPDEST PUSH1 0x8 SLOAD PUSH2 0xFFFF AND PUSH2 0x2C5F PUSH2 0x2C64 JUMP JUMPDEST PUSH2 0x387A JUMP JUMPDEST PUSH1 0x8 SLOAD PUSH1 0x0 SWAP1 PUSH2 0x9FF SWAP1 PUSH2 0xFFFF DUP1 DUP3 AND SWAP2 PUSH3 0x10000 SWAP1 DIV AND PUSH2 0x3CF2 JUMP JUMPDEST PUSH1 0x1 SLOAD PUSH1 0x1 PUSH1 0x1 PUSH1 0xA0 SHL SUB AND CALLER EQ PUSH2 0x2CAC JUMPI PUSH1 0x40 MLOAD PUSH4 0x30CD7471 PUSH1 0xE0 SHL DUP2 MSTORE PUSH1 0x4 ADD PUSH1 0x40 MLOAD DUP1 SWAP2 SUB SWAP1 REVERT JUMPDEST PUSH1 0x2 PUSH1 0x0 SWAP1 SLOAD SWAP1 PUSH2 0x100 EXP SWAP1 DIV PUSH1 0x1 PUSH1 0x1 PUSH1 0xA0 SHL SUB AND PUSH1 0x1 PUSH1 0x1 PUSH1 0xA0 SHL SUB AND PUSH4 0x5C975ABB PUSH1 0x40 MLOAD DUP2 PUSH4 0xFFFFFFFF AND PUSH1 0xE0 SHL DUP2 MSTORE PUSH1 0x4 ADD PUSH1 0x20 PUSH1 0x40 MLOAD DUP1 DUP4 SUB DUP2 DUP7 GAS STATICCALL ISZERO DUP1 ISZERO PUSH2 0x2CFF JUMPI RETURNDATASIZE PUSH1 0x0 DUP1 RETURNDATACOPY RETURNDATASIZE PUSH1 0x0 REVERT JUMPDEST POP POP POP POP PUSH1 0x40 MLOAD RETURNDATASIZE PUSH1 0x1F NOT PUSH1 0x1F DUP3 ADD AND DUP3 ADD DUP1 PUSH1 0x40 MSTORE POP DUP2 ADD SWAP1 PUSH2 0x2D23 SWAP2 SWAP1 PUSH2 0x42FE JUMP JUMPDEST ISZERO PUSH2 0x2D41 JUMPI PUSH1 0x40 MLOAD PUSH4 0x4291DB15 PUSH1 0xE1 SHL DUP2 MSTORE PUSH1 0x4 ADD PUSH1 0x40 MLOAD DUP1 SWAP2 SUB SWAP1 REVERT JUMPDEST PUSH2 0x2D49 PUSH2 0x35CD JUMP JUMPDEST PUSH1 0x0 PUSH1 0xB SLOAD PUSH1 0xFF AND PUSH1 0x4 DUP2 GT ISZERO PUSH2 0x2D62 JUMPI PUSH2 0x2D62 PUSH2 0x3FC5 JUMP JUMPDEST EQ ISZERO DUP1 ISZERO PUSH2 0x2D87 JUMPI POP PUSH1 0x2 PUSH1 0xB SLOAD PUSH1 0xFF AND PUSH1 0x4 DUP2 GT ISZERO PUSH2 0x2D84 JUMPI PUSH2 0x2D84 PUSH2 0x3FC5 JUMP JUMPDEST EQ ISZERO JUMPDEST ISZERO PUSH2 0x2DA5 JUMPI PUSH1 0x40 MLOAD PUSH4 0x4291DB15 PUSH1 0xE1 SHL DUP2 MSTORE PUSH1 0x4 ADD PUSH1 0x40 MLOAD DUP1 SWAP2 SUB SWAP1 REVERT JUMPDEST PUSH1 0x1 SLOAD PUSH1 0x5 SLOAD PUSH2 0x2DC3 SWAP2 PUSH1 0x1 PUSH1 0x1 PUSH1 0xA0 SHL SUB SWAP2 DUP3 AND SWAP2 AND ADDRESS DUP5 PUSH2 0x3CFE JUMP JUMPDEST DUP1 PUSH1 0x9 PUSH1 0x0 DUP3 DUP3 SLOAD PUSH2 0x2DD5 SWAP2 SWAP1 PUSH2 0x4401 JUMP JUMPDEST SWAP1 SWAP2 SSTORE POP POP PUSH1 0x40 MLOAD DUP2 DUP2 MSTORE ADDRESS SWAP1 PUSH32 0xD7243F6F8212D5188FD054141CF6EA89CFC0D91FACB8C3AFE2F88A1358480142 SWAP1 PUSH1 0x20 ADD PUSH1 0x40 MLOAD DUP1 SWAP2 SUB SWAP1 LOG2 PUSH2 0x145C PUSH1 0x1 PUSH1 0x0 SSTORE JUMP JUMPDEST PUSH1 0x1 SLOAD PUSH1 0x1 PUSH1 0x1 PUSH1 0xA0 SHL SUB AND CALLER EQ PUSH2 0x2E44 JUMPI PUSH1 0x40 MLOAD PUSH4 0x30CD7471 PUSH1 0xE0 SHL DUP2 MSTORE PUSH1 0x4 ADD PUSH1 0x40 MLOAD DUP1 SWAP2 SUB SWAP1 REVERT JUMPDEST PUSH1 0x2 PUSH1 0x0 SWAP1 SLOAD SWAP1 PUSH2 0x100 EXP SWAP1 DIV PUSH1 0x1 PUSH1 0x1 PUSH1 0xA0 SHL SUB AND PUSH1 0x1 PUSH1 0x1 PUSH1 0xA0 SHL SUB AND PUSH4 0x5C975ABB PUSH1 0x40 MLOAD DUP2 PUSH4 0xFFFFFFFF AND PUSH1 0xE0 SHL DUP2 MSTORE PUSH1 0x4 ADD PUSH1 0x20 PUSH1 0x40 MLOAD DUP1 DUP4 SUB DUP2 DUP7 GAS STATICCALL ISZERO DUP1 ISZERO PUSH2 0x2E97 JUMPI RETURNDATASIZE PUSH1 0x0 DUP1 RETURNDATACOPY RETURNDATASIZE PUSH1 0x0 REVERT JUMPDEST POP POP POP POP PUSH1 0x40 MLOAD RETURNDATASIZE PUSH1 0x1F NOT PUSH1 0x1F DUP3 ADD AND DUP3 ADD DUP1 PUSH1 0x40 MSTORE POP DUP2 ADD SWAP1 PUSH2 0x2EBB SWAP2 SWAP1 PUSH2 0x42FE JUMP JUMPDEST ISZERO PUSH2 0x2ED9 JUMPI PUSH1 0x40 MLOAD PUSH4 0x4291DB15 PUSH1 0xE1 SHL DUP2 MSTORE PUSH1 0x4 ADD PUSH1 0x40 MLOAD DUP1 SWAP2 SUB SWAP1 REVERT JUMPDEST PUSH2 0x2EE1 PUSH2 0x35CD JUMP JUMPDEST PUSH1 0x2 PUSH1 0xB SLOAD PUSH1 0xFF AND PUSH1 0x4 DUP2 GT ISZERO PUSH2 0x2EFA JUMPI PUSH2 0x2EFA PUSH2 0x3FC5 JUMP JUMPDEST EQ PUSH2 0x2F18 JUMPI PUSH1 0x40 MLOAD PUSH4 0x4291DB15 PUSH1 0xE1 SHL DUP2 MSTORE PUSH1 0x4 ADD PUSH1 0x40 MLOAD DUP1 SWAP2 SUB SWAP1 REVERT JUMPDEST PUSH1 0xA SLOAD ISZERO PUSH2 0x2F39 JUMPI PUSH1 0x40 MLOAD PUSH4 0x1D2197FD PUSH1 0xE3 SHL DUP2 MSTORE PUSH1 0x4 ADD PUSH1 0x40 MLOAD DUP1 SWAP2 SUB SWAP1 REVERT JUMPDEST PUSH6 0x5AF3107A4000 CALLVALUE LT ISZERO PUSH2 0x2F60 JUMPI PUSH1 0x40 MLOAD PUSH4 0x3ADC8FE7 PUSH1 0xE2 SHL DUP2 MSTORE PUSH1 0x4 ADD PUSH1 0x40 MLOAD DUP1 SWAP2 SUB SWAP1 REVERT JUMPDEST PUSH1 0x3 SLOAD PUSH1 0xF SLOAD PUSH1 0x40 MLOAD PUSH4 0x72525E23 PUSH1 0xE0 SHL DUP2 MSTORE PUSH1 0x0 SWAP3 PUSH1 0x1 PUSH1 0x1 PUSH1 0xA0 SHL SUB AND SWAP2 PUSH4 0x72525E23 SWAP2 CALLVALUE SWAP2 PUSH2 0x2F98 SWAP2 PUSH1 0x4 ADD SWAP1 DUP2 MSTORE PUSH1 0x20 ADD SWAP1 JUMP JUMPDEST PUSH1 0x20 PUSH1 0x40 MLOAD DUP1 DUP4 SUB DUP2 DUP6 DUP9 GAS CALL ISZERO DUP1 ISZERO PUSH2 0x2FB6 JUMPI RETURNDATASIZE PUSH1 0x0 DUP1 RETURNDATACOPY RETURNDATASIZE PUSH1 0x0 REVERT JUMPDEST POP POP POP POP POP PUSH1 0x40 MLOAD RETURNDATASIZE PUSH1 0x1F NOT PUSH1 0x1F DUP3 ADD AND DUP3 ADD DUP1 PUSH1 0x40 MSTORE POP DUP2 ADD SWAP1 PUSH2 0x2FDB SWAP2 SWAP1 PUSH2 0x42E5 JUMP JUMPDEST PUSH1 0xB DUP1 SLOAD PUSH1 0x3 PUSH1 0xFF NOT SWAP2 DUP3 AND OR SWAP1 SWAP2 SSTORE PUSH1 0x40 DUP1 MLOAD PUSH1 0x60 DUP2 ADD DUP3 MSTORE PUSH1 0x2 DUP1 DUP3 MSTORE PUSH1 0x20 DUP3 ADD DUP6 SWAP1 MSTORE TIMESTAMP SWAP2 SWAP1 SWAP3 ADD DUP2 SWAP1 MSTORE PUSH1 0xC DUP1 SLOAD SWAP1 SWAP4 AND DUP3 OR SWAP1 SWAP3 SSTORE PUSH1 0xD DUP4 SWAP1 SSTORE PUSH1 0xE SWAP2 SWAP1 SWAP2 SSTORE SWAP1 SWAP2 POP ADDRESS SWAP1 PUSH32 0x69D62ED766FEBD9B36F4840F1349F992E6AFEA42CA344E8E19106C2DFFE02F47 SWAP1 DUP4 SWAP1 PUSH2 0x1BB4 JUMP JUMPDEST PUSH2 0x3056 PUSH2 0x35CD JUMP JUMPDEST PUSH1 0x2 PUSH1 0xB SLOAD PUSH1 0xFF AND PUSH1 0x4 DUP2 GT ISZERO PUSH2 0x306F JUMPI PUSH2 0x306F PUSH2 0x3FC5 JUMP JUMPDEST EQ PUSH2 0x308D JUMPI PUSH1 0x40 MLOAD PUSH4 0x4291DB15 PUSH1 0xE1 SHL DUP2 MSTORE PUSH1 0x4 ADD PUSH1 0x40 MLOAD DUP1 SWAP2 SUB SWAP1 REVERT JUMPDEST PUSH2 0x3098 PUSH2 0x2C50 PUSH2 0xBBC JUMP JUMPDEST PUSH2 0x30B5 JUMPI PUSH1 0x40 MLOAD PUSH4 0x190A031 PUSH1 0xE7 SHL DUP2 MSTORE PUSH1 0x4 ADD PUSH1 0x40 MLOAD DUP1 SWAP2 SUB SWAP1 REVERT JUMPDEST PUSH1 0x0 PUSH1 0xA SLOAD DUP3 GT PUSH2 0x30C6 JUMPI DUP2 PUSH2 0x30CA JUMP JUMPDEST PUSH1 0xA SLOAD JUMPDEST SWAP1 POP PUSH1 0x0 DUP2 GT PUSH2 0x310A JUMPI PUSH1 0x40 MLOAD PUSH3 0x461BCD PUSH1 0xE5 SHL DUP2 MSTORE PUSH1 0x20 PUSH1 0x4 DUP3 ADD MSTORE PUSH1 0xB PUSH1 0x24 DUP3 ADD MSTORE PUSH11 0x7A65726F2072656465656D PUSH1 0xA8 SHL PUSH1 0x44 DUP3 ADD MSTORE PUSH1 0x64 ADD PUSH2 0x12D7 JUMP JUMPDEST PUSH2 0x3112 PUSH2 0x3769 JUMP JUMPDEST PUSH1 0x0 PUSH2 0x316E PUSH2 0x114B DUP4 PUSH1 0x4 PUSH1 0x0 SWAP1 SLOAD SWAP1 PUSH2 0x100 EXP SWAP1 DIV PUSH1 0x1 PUSH1 0x1 PUSH1 0xA0 SHL SUB AND PUSH1 0x1 PUSH1 0x1 PUSH1 0xA0 SHL SUB AND PUSH4 0x98D5FDCA PUSH1 0x40 MLOAD DUP2 PUSH4 0xFFFFFFFF AND PUSH1 0xE0 SHL DUP2 MSTORE PUSH1 0x4 ADD PUSH1 0x20 PUSH1 0x40 MLOAD DUP1 DUP4 SUB DUP2 DUP7 GAS STATICCALL ISZERO DUP1 ISZERO PUSH2 0x1347 JUMPI RETURNDATASIZE PUSH1 0x0 DUP1 RETURNDATACOPY RETURNDATASIZE PUSH1 0x0 REVERT JUMPDEST PUSH1 0x3 SLOAD PUSH1 0xF SLOAD PUSH1 0x40 MLOAD PUSH4 0x76197BA3 PUSH1 0xE0 SHL DUP2 MSTORE SWAP3 SWAP4 POP PUSH1 0x0 SWAP3 PUSH1 0x1 PUSH1 0x1 PUSH1 0xA0 SHL SUB SWAP1 SWAP3 AND SWAP2 PUSH4 0x76197BA3 SWAP2 PUSH2 0x31B0 SWAP2 DUP7 SWAP1 PUSH1 0x4 ADD SWAP2 DUP3 MSTORE PUSH1 0x20 DUP3 ADD MSTORE PUSH1 0x40 ADD SWAP1 JUMP JUMPDEST PUSH1 0x20 PUSH1 0x40 MLOAD DUP1 DUP4 SUB DUP2 PUSH1 0x0 DUP8 GAS CALL ISZERO DUP1 ISZERO PUSH2 0x31CF JUMPI RETURNDATASIZE PUSH1 0x0 DUP1 RETURNDATACOPY RETURNDATASIZE PUSH1 0x0 REVERT JUMPDEST POP POP POP POP PUSH1 0x40 MLOAD RETURNDATASIZE PUSH1 0x1F NOT PUSH1 0x1F DUP3 ADD AND DUP3 ADD DUP1 PUSH1 0x40 MSTORE POP DUP2 ADD SWAP1 PUSH2 0x31F3 SWAP2 SWAP1 PUSH2 0x42E5 JUMP JUMPDEST SWAP1 POP DUP3 PUSH1 0xA PUSH1 0x0 DUP3 DUP3 SLOAD PUSH2 0x3207 SWAP2 SWAP1 PUSH2 0x43B5 JUMP JUMPDEST SWAP1 SWAP2 SSTORE POP POP PUSH1 0x6 SLOAD PUSH1 0x40 MLOAD PUSH4 0x2770A7EB PUSH1 0xE2 SHL DUP2 MSTORE CALLER PUSH1 0x4 DUP3 ADD MSTORE PUSH1 0x24 DUP2 ADD DUP6 SWAP1 MSTORE PUSH1 0x1 PUSH1 0x1 PUSH1 0xA0 SHL SUB SWAP1 SWAP2 AND SWAP1 PUSH4 0x9DC29FAC SWAP1 PUSH1 0x44 ADD PUSH1 0x0 PUSH1 0x40 MLOAD DUP1 DUP4 SUB DUP2 PUSH1 0x0 DUP8 DUP1 EXTCODESIZE ISZERO DUP1 ISZERO PUSH2 0x3258 JUMPI PUSH1 0x0 DUP1 REVERT JUMPDEST POP GAS CALL ISZERO DUP1 ISZERO PUSH2 0x326C JUMPI RETURNDATASIZE PUSH1 0x0 DUP1 RETURNDATACOPY RETURNDATASIZE PUSH1 0x0 REVERT JUMPDEST POP POP POP POP PUSH1 0x0 PUSH2 0x2710 PUSH1 0x19 DUP4 PUSH2 0x3282 SWAP2 SWAP1 PUSH2 0x43C8 JUMP JUMPDEST PUSH2 0x328C SWAP2 SWAP1 PUSH2 0x43DF JUMP JUMPDEST SWAP1 POP DUP1 ISZERO PUSH2 0x32B1 JUMPI PUSH1 0x2 SLOAD PUSH1 0x5 SLOAD PUSH2 0x32B1 SWAP2 PUSH1 0x1 PUSH1 0x1 PUSH1 0xA0 SHL SUB SWAP2 DUP3 AND SWAP2 AND DUP4 PUSH2 0x3D37 JUMP JUMPDEST PUSH1 0x0 PUSH2 0x32BD DUP3 DUP5 PUSH2 0x43B5 JUMP JUMPDEST GT ISZERO PUSH2 0x32E4 JUMPI PUSH2 0x32E4 CALLER PUSH2 0x32D1 DUP4 DUP6 PUSH2 0x43B5 JUMP JUMPDEST PUSH1 0x5 SLOAD PUSH1 0x1 PUSH1 0x1 PUSH1 0xA0 SHL SUB AND SWAP2 SWAP1 PUSH2 0x3D37 JUMP JUMPDEST PUSH1 0x40 DUP1 MLOAD DUP6 DUP2 MSTORE PUSH1 0x20 DUP2 ADD DUP5 SWAP1 MSTORE SWAP1 DUP2 ADD DUP3 SWAP1 MSTORE CALLER SWAP1 ADDRESS SWAP1 PUSH32 0x764AEEB2D1EC3F2945D6486E2F7E3FAE9AC5FE11AA56B7A9D90C92212E33050C SWAP1 PUSH1 0x60 ADD PUSH1 0x40 MLOAD DUP1 SWAP2 SUB SWAP1 LOG3 POP POP POP POP PUSH2 0x145C PUSH1 0x1 PUSH1 0x0 SSTORE JUMP JUMPDEST PUSH1 0x8 SLOAD PUSH1 0x0 SWAP1 DUP2 SWAP1 PUSH1 0x1 PUSH1 0x40 SHL SWAP1 DIV PUSH1 0xFF AND ISZERO PUSH2 0x3360 JUMPI PUSH1 0x8 SLOAD PUSH1 0x1 PUSH1 0x40 SHL SWAP1 DIV PUSH1 0xFF AND PUSH2 0x3363 JUMP JUMPDEST PUSH1 0x1 JUMPDEST PUSH1 0x8 SLOAD SWAP1 SWAP2 POP PUSH2 0xBFC SWAP1 PUSH2 0xFFFF DUP1 DUP3 AND SWAP2 PUSH5 0x100000000 DUP2 DIV SWAP1 SWAP2 AND SWAP1 PUSH1 0xFF DUP1 DUP7 AND SWAP2 PUSH1 0x1 PUSH1 0x30 SHL DUP2 DIV DUP3 AND SWAP2 PUSH1 0x1 PUSH1 0x38 SHL SWAP1 SWAP2 DIV AND PUSH2 0x3D68 JUMP JUMPDEST PUSH1 0x1 SLOAD PUSH1 0x1 PUSH1 0x1 PUSH1 0xA0 SHL SUB AND CALLER EQ PUSH2 0x33C9 JUMPI PUSH1 0x40 MLOAD PUSH4 0x30CD7471 PUSH1 0xE0 SHL DUP2 MSTORE PUSH1 0x4 ADD PUSH1 0x40 MLOAD DUP1 SWAP2 SUB SWAP1 REVERT JUMPDEST PUSH1 0x2 PUSH1 0x0 SWAP1 SLOAD SWAP1 PUSH2 0x100 EXP SWAP1 DIV PUSH1 0x1 PUSH1 0x1 PUSH1 0xA0 SHL SUB AND PUSH1 0x1 PUSH1 0x1 PUSH1 0xA0 SHL SUB AND PUSH4 0x5C975ABB PUSH1 0x40 MLOAD DUP2 PUSH4 0xFFFFFFFF AND PUSH1 0xE0 SHL DUP2 MSTORE PUSH1 0x4 ADD PUSH1 0x20 PUSH1 0x40 MLOAD DUP1 DUP4 SUB DUP2 DUP7 GAS STATICCALL ISZERO DUP1 ISZERO PUSH2 0x341C JUMPI RETURNDATASIZE PUSH1 0x0 DUP1 RETURNDATACOPY RETURNDATASIZE PUSH1 0x0 REVERT JUMPDEST POP POP POP POP PUSH1 0x40 MLOAD RETURNDATASIZE PUSH1 0x1F NOT PUSH1 0x1F DUP3 ADD AND DUP3 ADD DUP1 PUSH1 0x40 MSTORE POP DUP2 ADD SWAP1 PUSH2 0x3440 SWAP2 SWAP1 PUSH2 0x42FE JUMP JUMPDEST ISZERO PUSH2 0x345E JUMPI PUSH1 0x40 MLOAD PUSH4 0x4291DB15 PUSH1 0xE1 SHL DUP2 MSTORE PUSH1 0x4 ADD PUSH1 0x40 MLOAD DUP1 SWAP2 SUB SWAP1 REVERT JUMPDEST PUSH2 0x3466 PUSH2 0x35CD JUMP JUMPDEST PUSH1 0x2 PUSH1 0xB SLOAD PUSH1 0xFF AND PUSH1 0x4 DUP2 GT ISZERO PUSH2 0x347F JUMPI PUSH2 0x347F PUSH2 0x3FC5 JUMP JUMPDEST EQ PUSH2 0x349D JUMPI PUSH1 0x40 MLOAD PUSH4 0x4291DB15 PUSH1 0xE1 SHL DUP2 MSTORE PUSH1 0x4 ADD PUSH1 0x40 MLOAD DUP1 SWAP2 SUB SWAP1 REVERT JUMPDEST PUSH6 0x5AF3107A4000 CALLVALUE LT ISZERO PUSH2 0x34C4 JUMPI PUSH1 0x40 MLOAD PUSH4 0x3ADC8FE7 PUSH1 0xE2 SHL DUP2 MSTORE PUSH1 0x4 ADD PUSH1 0x40 MLOAD DUP1 SWAP2 SUB SWAP1 REVERT JUMPDEST PUSH1 0x0 DUP2 GT PUSH2 0x350B JUMPI PUSH1 0x40 MLOAD PUSH3 0x461BCD PUSH1 0xE5 SHL DUP2 MSTORE PUSH1 0x20 PUSH1 0x4 DUP3 ADD MSTORE PUSH1 0x14 PUSH1 0x24 DUP3 ADD MSTORE PUSH20 0x5661756C743A207A65726F20534C207072696365 PUSH1 0x60 SHL PUSH1 0x44 DUP3 ADD MSTORE PUSH1 0x64 ADD PUSH2 0x12D7 JUMP JUMPDEST PUSH1 0x3 SLOAD PUSH1 0xF SLOAD PUSH1 0x40 MLOAD PUSH4 0x8C509FD5 PUSH1 0xE0 SHL DUP2 MSTORE PUSH1 0x0 SWAP3 PUSH1 0x1 PUSH1 0x1 PUSH1 0xA0 SHL SUB AND SWAP2 PUSH4 0x8C509FD5 SWAP2 CALLVALUE SWAP2 PUSH2 0x354A SWAP2 DUP8 SWAP1 PUSH1 0x4 ADD SWAP2 DUP3 MSTORE PUSH1 0x20 DUP3 ADD MSTORE PUSH1 0x40 ADD SWAP1 JUMP JUMPDEST PUSH1 0x20 PUSH1 0x40 MLOAD DUP1 DUP4 SUB DUP2 DUP6 DUP9 GAS CALL ISZERO DUP1 ISZERO PUSH2 0x3568 JUMPI RETURNDATASIZE PUSH1 0x0 DUP1 RETURNDATACOPY RETURNDATASIZE PUSH1 0x0 REVERT JUMPDEST POP POP POP POP POP PUSH1 0x40 MLOAD RETURNDATASIZE PUSH1 0x1F NOT PUSH1 0x1F DUP3 ADD AND DUP3 ADD DUP1 PUSH1 0x40 MSTORE POP DUP2 ADD SWAP1 PUSH2 0x358D SWAP2 SWAP1 PUSH2 0x42E5 JUMP JUMPDEST PUSH1 0x14 DUP2 SWAP1 SSTORE PUSH1 0x40 DUP1 MLOAD DUP3 DUP2 MSTORE PUSH1 0x20 DUP2 ADD DUP6 SWAP1 MSTORE SWAP2 SWAP3 POP ADDRESS SWAP2 PUSH32 0x8DFB2EC37AD94738FB02B6B3A967BE4F3DD85E28A4D6A181EA63C262D5FF0F27 SWAP2 ADD PUSH2 0x1449 JUMP JUMPDEST PUSH1 0x2 PUSH1 0x0 SLOAD SUB PUSH2 0x35F0 JUMPI PUSH1 0x40 MLOAD PUSH4 0x3EE5AEB5 PUSH1 0xE0 SHL DUP2 MSTORE PUSH1 0x4 ADD PUSH1 0x40 MLOAD DUP1 SWAP2 SUB SWAP1 REVERT JUMPDEST PUSH1 0x2 PUSH1 0x0 SSTORE JUMP JUMPDEST PUSH1 0x0 DUP3 PUSH1 0x0 SUB PUSH2 0x360A JUMPI POP PUSH1 0x0 NOT PUSH2 0x362A JUMP JUMPDEST DUP3 PUSH2 0x361D DUP4 PUSH8 0xDE0B6B3A7640000 PUSH2 0x43C8 JUMP JUMPDEST PUSH2 0x3627 SWAP2 SWAP1 PUSH2 0x43DF JUMP JUMPDEST SWAP1 POP JUMPDEST SWAP3 SWAP2 POP POP JUMP JUMPDEST PUSH1 0x0 DUP1 DUP4 GT PUSH2 0x3676 JUMPI PUSH1 0x40 MLOAD PUSH3 0x461BCD PUSH1 0xE5 SHL DUP2 MSTORE PUSH1 0x20 PUSH1 0x4 DUP3 ADD MSTORE PUSH1 0x12 PUSH1 0x24 DUP3 ADD MSTORE PUSH18 0x1315158E881B9BC818DBDB1B185D195C985B PUSH1 0x72 SHL PUSH1 0x44 DUP3 ADD MSTORE PUSH1 0x64 ADD PUSH2 0x12D7 JUMP JUMPDEST DUP3 PUSH2 0x361D PUSH2 0x2710 DUP5 PUSH2 0x43C8 JUMP JUMPDEST PUSH1 0x40 DUP1 MLOAD PUSH1 0x1 PUSH1 0x1 PUSH1 0xA0 SHL SUB DUP5 AND PUSH1 0x24 DUP3 ADD MSTORE PUSH1 0x44 DUP1 DUP3 ADD DUP5 SWAP1 MSTORE DUP3 MLOAD DUP1 DUP4 SUB SWAP1 SWAP2 ADD DUP2 MSTORE PUSH1 0x64 SWAP1 SWAP2 ADD SWAP1 SWAP2 MSTORE PUSH1 0x20 DUP2 ADD DUP1 MLOAD PUSH1 0x1 PUSH1 0x1 PUSH1 0xE0 SHL SUB AND PUSH4 0x95EA7B3 PUSH1 0xE0 SHL OR SWAP1 MSTORE PUSH2 0x36D4 DUP5 DUP3 PUSH2 0x3E64 JUMP JUMPDEST PUSH2 0x3741 JUMPI PUSH1 0x40 MLOAD PUSH1 0x1 PUSH1 0x1 PUSH1 0xA0 SHL SUB DUP5 DUP2 AND PUSH1 0x24 DUP4 ADD MSTORE PUSH1 0x0 PUSH1 0x44 DUP4 ADD MSTORE PUSH2 0x3737 SWAP2 DUP7 SWAP2 DUP3 AND SWAP1 PUSH4 0x95EA7B3 SWAP1 PUSH1 0x64 ADD JUMPDEST PUSH1 0x40 MLOAD PUSH1 0x20 DUP2 DUP4 SUB SUB DUP2 MSTORE SWAP1 PUSH1 0x40 MSTORE SWAP2 POP PUSH1 0xE0 SHL PUSH1 0x20 DUP3 ADD DUP1 MLOAD PUSH1 0x1 PUSH1 0x1 PUSH1 0xE0 SHL SUB DUP4 DUP2 DUP4 AND OR DUP4 MSTORE POP POP POP POP PUSH2 0x3EB3 JUMP JUMPDEST PUSH2 0x3741 DUP5 DUP3 PUSH2 0x3EB3 JUMP JUMPDEST POP POP POP POP JUMP JUMPDEST PUSH1 0x0 PUSH2 0x362A PUSH5 0xE8D4A51000 DUP4 PUSH2 0x43C8 JUMP JUMPDEST PUSH1 0x0 PUSH2 0x362A PUSH5 0xE8D4A51000 DUP4 PUSH2 0x43DF JUMP JUMPDEST PUSH1 0x12 SLOAD DUP1 ISZERO PUSH2 0x37F0 JUMPI PUSH1 0x0 PUSH2 0x377E DUP3 TIMESTAMP PUSH2 0x43B5 JUMP JUMPDEST SWAP1 POP PUSH1 0x0 DUP2 GT DUP1 ISZERO PUSH2 0x3792 JUMPI POP PUSH1 0x0 PUSH1 0xA SLOAD GT JUMPDEST ISZERO PUSH2 0x37EE JUMPI PUSH1 0x0 PUSH2 0x37A4 PUSH2 0x114B PUSH2 0x15EB JUMP JUMPDEST SWAP1 POP PUSH2 0x37B6 PUSH4 0x1E13380 PUSH2 0x2710 PUSH2 0x43C8 JUMP JUMPDEST DUP3 PUSH2 0x37C2 PUSH1 0x96 DUP5 PUSH2 0x43C8 JUMP JUMPDEST PUSH2 0x37CC SWAP2 SWAP1 PUSH2 0x43C8 JUMP JUMPDEST PUSH2 0x37D6 SWAP2 SWAP1 PUSH2 0x43DF JUMP JUMPDEST PUSH1 0x11 PUSH1 0x0 DUP3 DUP3 SLOAD PUSH2 0x37E7 SWAP2 SWAP1 PUSH2 0x4401 JUMP JUMPDEST SWAP1 SWAP2 SSTORE POP POP POP JUMPDEST POP JUMPDEST POP TIMESTAMP PUSH1 0x12 SSTORE JUMP JUMPDEST PUSH1 0x0 DUP1 DUP3 GT PUSH2 0x383C JUMPI PUSH1 0x40 MLOAD PUSH3 0x461BCD PUSH1 0xE5 SHL DUP2 MSTORE PUSH1 0x20 PUSH1 0x4 DUP3 ADD MSTORE PUSH1 0x11 PUSH1 0x24 DUP3 ADD MSTORE PUSH17 0x556E6974733A207A65726F207072696365 PUSH1 0x78 SHL PUSH1 0x44 DUP3 ADD MSTORE PUSH1 0x64 ADD PUSH2 0x12D7 JUMP JUMPDEST PUSH4 0x5F5E100 PUSH2 0x361D DUP4 DUP6 PUSH2 0x43C8 JUMP JUMPDEST PUSH1 0x0 PUSH1 0xA SLOAD PUSH1 0x0 SUB PUSH2 0x385F JUMPI POP PUSH1 0x0 PUSH2 0x362A JUMP JUMPDEST DUP3 PUSH1 0x0 SUB PUSH2 0x3870 JUMPI POP PUSH1 0x0 NOT PUSH2 0x362A JUMP JUMPDEST PUSH2 0x3627 DUP4 DUP4 PUSH2 0x3630 JUMP JUMPDEST PUSH1 0x0 DUP3 DUP5 LT ISZERO DUP1 ISZERO PUSH2 0x388B JUMPI POP DUP2 DUP5 LT JUMPDEST SWAP5 SWAP4 POP POP POP POP JUMP JUMPDEST PUSH1 0x0 DUP1 PUSH32 0xF0C57E16840DF040F15088DC2F81FE391C3923BEC73E23A9662EFC9C229C6A00 PUSH2 0x362A JUMP JUMPDEST PUSH2 0x38C4 PUSH2 0x3769 JUMP JUMPDEST PUSH1 0x5 SLOAD PUSH1 0x40 MLOAD PUSH4 0x70A08231 PUSH1 0xE0 SHL DUP2 MSTORE ADDRESS PUSH1 0x4 DUP3 ADD MSTORE PUSH1 0x0 SWAP2 PUSH1 0x1 PUSH1 0x1 PUSH1 0xA0 SHL SUB AND SWAP1 PUSH4 0x70A08231 SWAP1 PUSH1 0x24 ADD PUSH1 0x20 PUSH1 0x40 MLOAD DUP1 DUP4 SUB DUP2 DUP7 GAS STATICCALL ISZERO DUP1 ISZERO PUSH2 0x390D JUMPI RETURNDATASIZE PUSH1 0x0 DUP1 RETURNDATACOPY RETURNDATASIZE PUSH1 0x0 REVERT JUMPDEST POP POP POP POP PUSH1 0x40 MLOAD RETURNDATASIZE PUSH1 0x1F NOT PUSH1 0x1F DUP3 ADD AND DUP3 ADD DUP1 PUSH1 0x40 MSTORE POP DUP2 ADD SWAP1 PUSH2 0x3931 SWAP2 SWAP1 PUSH2 0x42E5 JUMP JUMPDEST SWAP1 POP PUSH1 0x0 DUP2 PUSH1 0x11 SLOAD GT PUSH2 0x3946 JUMPI PUSH1 0x11 SLOAD PUSH2 0x3948 JUMP JUMPDEST DUP2 JUMPDEST SWAP1 POP PUSH1 0x0 PUSH2 0x3956 DUP3 DUP5 PUSH2 0x43B5 JUMP JUMPDEST PUSH1 0x0 PUSH1 0x9 DUP2 SWAP1 SSTORE PUSH1 0xF DUP2 SWAP1 SSTORE PUSH1 0x11 DUP2 SWAP1 SSTORE PUSH1 0x13 DUP2 SWAP1 SSTORE PUSH1 0x14 DUP2 SWAP1 SSTORE PUSH1 0xB DUP1 SLOAD PUSH1 0xFF NOT SWAP1 DUP2 AND SWAP1 SWAP2 SSTORE PUSH1 0xC DUP1 SLOAD SWAP1 SWAP2 AND SWAP1 SSTORE PUSH1 0xD DUP2 SWAP1 SSTORE PUSH1 0xE SSTORE SWAP1 POP DUP2 ISZERO PUSH2 0x39B4 JUMPI PUSH1 0x2 SLOAD PUSH1 0x5 SLOAD PUSH2 0x39B4 SWAP2 PUSH1 0x1 PUSH1 0x1 PUSH1 0xA0 SHL SUB SWAP2 DUP3 AND SWAP2 AND DUP5 PUSH2 0x3D37 JUMP JUMPDEST DUP1 ISZERO PUSH2 0x39D7 JUMPI PUSH1 0x1 SLOAD PUSH1 0x5 SLOAD PUSH2 0x39D7 SWAP2 PUSH1 0x1 PUSH1 0x1 PUSH1 0xA0 SHL SUB SWAP2 DUP3 AND SWAP2 AND DUP4 PUSH2 0x3D37 JUMP JUMPDEST PUSH1 0x40 MLOAD DUP3 DUP2 MSTORE ADDRESS SWAP1 PUSH32 0xC74EE869A332E69E1B78099F39B1928DE8163D21074AD8BEB98AFF670953103A SWAP1 PUSH1 0x20 ADD PUSH1 0x40 MLOAD DUP1 SWAP2 SUB SWAP1 LOG2 PUSH1 0x40 MLOAD DUP2 DUP2 MSTORE ADDRESS SWAP1 PUSH32 0x62E59356F995B616EAFCC3BD0402C7C6F7C820E205C92EA61436902E30B4DC2E SWAP1 PUSH1 0x20 ADD PUSH1 0x40 MLOAD DUP1 SWAP2 SUB SWAP1 LOG2 POP POP POP JUMP JUMPDEST PUSH2 0x3A4E PUSH2 0x3769 JUMP JUMPDEST PUSH1 0x5 SLOAD PUSH1 0x40 MLOAD PUSH4 0x70A08231 PUSH1 0xE0 SHL DUP2 MSTORE ADDRESS PUSH1 0x4 DUP3 ADD MSTORE PUSH1 0x0 SWAP2 PUSH1 0x1 PUSH1 0x1 PUSH1 0xA0 SHL SUB AND SWAP1 PUSH4 0x70A08231 SWAP1 PUSH1 0x24 ADD PUSH1 0x20 PUSH1 0x40 MLOAD DUP1 DUP4 SUB DUP2 DUP7 GAS STATICCALL ISZERO DUP1 ISZERO PUSH2 0x3A97 JUMPI RETURNDATASIZE PUSH1 0x0 DUP1 RETURNDATACOPY RETURNDATASIZE PUSH1 0x0 REVERT JUMPDEST POP POP POP POP PUSH1 0x40 MLOAD RETURNDATASIZE PUSH1 0x1F NOT PUSH1 0x1F DUP3 ADD AND DUP3 ADD DUP1 PUSH1 0x40 MSTORE POP DUP2 ADD SWAP1 PUSH2 0x3ABB SWAP2 SWAP1 PUSH2 0x42E5 JUMP JUMPDEST SWAP1 POP PUSH1 0x0 PUSH2 0x3ACA PUSH2 0x114B PUSH2 0x15EB JUMP JUMPDEST SWAP1 POP PUSH1 0x0 DUP2 DUP4 LT ISZERO PUSH2 0x3ADC JUMPI DUP3 PUSH2 0x3ADE JUMP JUMPDEST DUP2 JUMPDEST SWAP1 POP PUSH1 0x0 PUSH2 0x3AEC DUP3 DUP6 PUSH2 0x43B5 JUMP JUMPDEST SWAP1 POP PUSH1 0x0 DUP2 PUSH1 0x11 SLOAD GT PUSH2 0x3B01 JUMPI PUSH1 0x11 SLOAD PUSH2 0x3B03 JUMP JUMPDEST DUP2 JUMPDEST SWAP1 POP PUSH1 0x0 PUSH2 0x3B11 DUP3 DUP5 PUSH2 0x43B5 JUMP JUMPDEST SWAP1 POP PUSH1 0x0 PUSH2 0x2710 PUSH2 0x3B24 PUSH2 0x3E8 DUP5 PUSH2 0x43C8 JUMP JUMPDEST PUSH2 0x3B2E SWAP2 SWAP1 PUSH2 0x43DF JUMP JUMPDEST SWAP1 POP PUSH1 0x0 PUSH2 0x3B3C DUP3 DUP5 PUSH2 0x43B5 JUMP JUMPDEST PUSH1 0x1 SLOAD PUSH1 0x10 SLOAD PUSH1 0x0 PUSH1 0xA DUP2 SWAP1 SSTORE PUSH1 0x9 DUP2 SWAP1 SSTORE PUSH1 0xF DUP2 SWAP1 SSTORE PUSH1 0x11 DUP2 SWAP1 SSTORE PUSH1 0x13 DUP2 SWAP1 SSTORE PUSH1 0x14 DUP2 SWAP1 SSTORE PUSH1 0xB DUP1 SLOAD PUSH1 0xFF NOT SWAP1 DUP2 AND SWAP1 SWAP2 SSTORE PUSH1 0xC DUP1 SLOAD SWAP1 SWAP2 AND SWAP1 SSTORE PUSH1 0xD DUP2 SWAP1 SSTORE PUSH1 0xE DUP2 SWAP1 SSTORE SWAP3 SWAP4 POP PUSH1 0x1 PUSH1 0x1 PUSH1 0xA0 SHL SUB SWAP2 DUP3 AND SWAP3 SWAP2 AND SWAP1 PUSH2 0x2710 PUSH2 0x3BA3 PUSH2 0x1770 DUP8 PUSH2 0x43C8 JUMP JUMPDEST PUSH2 0x3BAD SWAP2 SWAP1 PUSH2 0x43DF JUMP JUMPDEST SWAP1 POP PUSH1 0x0 PUSH2 0x3BBB DUP3 DUP8 PUSH2 0x43B5 JUMP JUMPDEST PUSH2 0x3BC5 DUP10 DUP13 PUSH2 0x4401 JUMP JUMPDEST PUSH2 0x3BCF SWAP2 SWAP1 PUSH2 0x4401 JUMP JUMPDEST SWAP1 POP DUP2 ISZERO PUSH2 0x3BEE JUMPI PUSH1 0x5 SLOAD PUSH2 0x3BEE SWAP1 PUSH1 0x1 PUSH1 0x1 PUSH1 0xA0 SHL SUB AND DUP5 DUP5 PUSH2 0x3D37 JUMP JUMPDEST DUP1 ISZERO PUSH2 0x3C11 JUMPI PUSH1 0x2 SLOAD PUSH1 0x5 SLOAD PUSH2 0x3C11 SWAP2 PUSH1 0x1 PUSH1 0x1 PUSH1 0xA0 SHL SUB SWAP2 DUP3 AND SWAP2 AND DUP4 PUSH2 0x3D37 JUMP JUMPDEST POP POP DUP3 ISZERO PUSH2 0x3C30 JUMPI PUSH1 0x5 SLOAD PUSH2 0x3C30 SWAP1 PUSH1 0x1 PUSH1 0x1 PUSH1 0xA0 SHL SUB AND DUP4 DUP6 PUSH2 0x3D37 JUMP JUMPDEST PUSH1 0x40 MLOAD DUP7 DUP2 MSTORE ADDRESS SWAP1 PUSH32 0xC74EE869A332E69E1B78099F39B1928DE8163D21074AD8BEB98AFF670953103A SWAP1 PUSH1 0x20 ADD PUSH1 0x40 MLOAD DUP1 SWAP2 SUB SWAP1 LOG2 PUSH1 0x40 DUP1 MLOAD DUP10 DUP2 MSTORE PUSH1 0x20 DUP2 ADD DUP6 SWAP1 MSTORE ADDRESS SWAP2 PUSH32 0x9C223CFCD8C93E245F558F5F8DE755FC0930FD9BC257441155EF5D54A170E0F SWAP2 ADD PUSH1 0x40 MLOAD DUP1 SWAP2 SUB SWAP1 LOG2 DUP8 DUP10 GT ISZERO PUSH2 0x3CE6 JUMPI ADDRESS PUSH32 0x290A68573F1E73F494DC2634F4D9426AF9210F8EEF772F3530AD921612CDC7D PUSH2 0x3CD4 DUP11 DUP13 PUSH2 0x43B5 JUMP JUMPDEST PUSH1 0x40 MLOAD SWAP1 DUP2 MSTORE PUSH1 0x20 ADD PUSH1 0x40 MLOAD DUP1 SWAP2 SUB SWAP1 LOG2 JUMPDEST POP POP POP POP POP POP POP POP POP POP JUMP JUMPDEST PUSH1 0x0 PUSH2 0x3627 DUP3 DUP5 PUSH2 0x4401 JUMP JUMPDEST PUSH1 0x40 MLOAD PUSH1 0x1 PUSH1 0x1 PUSH1 0xA0 SHL SUB DUP5 DUP2 AND PUSH1 0x24 DUP4 ADD MSTORE DUP4 DUP2 AND PUSH1 0x44 DUP4 ADD MSTORE PUSH1 0x64 DUP3 ADD DUP4 SWAP1 MSTORE PUSH2 0x3741 SWAP2 DUP7 SWAP2 DUP3 AND SWAP1 PUSH4 0x23B872DD SWAP1 PUSH1 0x84 ADD PUSH2 0x3705 JUMP JUMPDEST PUSH1 0x40 MLOAD PUSH1 0x1 PUSH1 0x1 PUSH1 0xA0 SHL SUB DUP4 DUP2 AND PUSH1 0x24 DUP4 ADD MSTORE PUSH1 0x44 DUP3 ADD DUP4 SWAP1 MSTORE PUSH2 0x24D2 SWAP2 DUP6 SWAP2 DUP3 AND SWAP1 PUSH4 0xA9059CBB SWAP1 PUSH1 0x64 ADD PUSH2 0x3705 JUMP JUMPDEST PUSH1 0x0 PUSH1 0x1 DUP5 LT ISZERO DUP1 ISZERO PUSH2 0x3D7B JUMPI POP DUP2 DUP5 GT ISZERO JUMPDEST PUSH2 0x3DBB JUMPI PUSH1 0x40 MLOAD PUSH3 0x461BCD PUSH1 0xE5 SHL DUP2 MSTORE PUSH1 0x20 PUSH1 0x4 DUP3 ADD MSTORE PUSH1 0x11 PUSH1 0x24 DUP3 ADD MSTORE PUSH17 0x4C54563A20626164206C65766572616765 PUSH1 0x78 SHL PUSH1 0x44 DUP3 ADD MSTORE PUSH1 0x64 ADD PUSH2 0x12D7 JUMP JUMPDEST DUP5 DUP7 LT ISZERO PUSH2 0x3DFC JUMPI PUSH1 0x40 MLOAD PUSH3 0x461BCD PUSH1 0xE5 SHL DUP2 MSTORE PUSH1 0x20 PUSH1 0x4 DUP3 ADD MSTORE PUSH1 0xE PUSH1 0x24 DUP3 ADD MSTORE PUSH14 0x4C54563A20626164206375727665 PUSH1 0x90 SHL PUSH1 0x44 DUP3 ADD MSTORE PUSH1 0x64 ADD PUSH2 0x12D7 JUMP JUMPDEST DUP3 DUP5 GT ISZERO DUP1 PUSH2 0x3E0B JUMPI POP DUP3 DUP3 GT ISZERO JUMPDEST ISZERO PUSH2 0x3E17 JUMPI POP DUP5 PUSH2 0x3E5B JUMP JUMPDEST PUSH1 0x0 PUSH2 0x3E23 DUP5 DUP5 PUSH2 0x43B5 JUMP JUMPDEST PUSH2 0x3E2D DUP6 DUP8 PUSH2 0x43B5 JUMP JUMPDEST PUSH2 0x3E37 DUP9 DUP11 PUSH2 0x43B5 JUMP JUMPDEST PUSH2 0x3E41 SWAP2 SWAP1 PUSH2 0x43C8 JUMP JUMPDEST PUSH2 0x3E4B SWAP2 SWAP1 PUSH2 0x43DF JUMP JUMPDEST SWAP1 POP PUSH2 0x3E57 DUP2 DUP9 PUSH2 0x43B5 JUMP JUMPDEST SWAP2 POP POP JUMPDEST SWAP6 SWAP5 POP POP POP POP POP JUMP JUMPDEST PUSH1 0x0 DUP1 PUSH1 0x0 DUP1 PUSH1 0x20 PUSH1 0x0 DUP7 MLOAD PUSH1 0x20 DUP9 ADD PUSH1 0x0 DUP11 GAS CALL SWAP3 POP RETURNDATASIZE SWAP2 POP PUSH1 0x0 MLOAD SWAP1 POP DUP3 DUP1 ISZERO PUSH2 0x3EA9 JUMPI POP DUP2 ISZERO PUSH2 0x3E9A JUMPI DUP1 PUSH1 0x1 EQ PUSH2 0x3EA9 JUMP JUMPDEST PUSH1 0x0 DUP7 PUSH1 0x1 PUSH1 0x1 PUSH1 0xA0 SHL SUB AND EXTCODESIZE GT JUMPDEST SWAP7 SWAP6 POP POP POP POP POP POP JUMP JUMPDEST PUSH1 0x0 DUP1 PUSH1 0x20 PUSH1 0x0 DUP5 MLOAD PUSH1 0x20 DUP7 ADD PUSH1 0x0 DUP9 GAS CALL DUP1 PUSH2 0x3ED6 JUMPI PUSH1 0x40 MLOAD RETURNDATASIZE PUSH1 0x0 DUP3 RETURNDATACOPY RETURNDATASIZE DUP2 REVERT JUMPDEST POP POP PUSH1 0x0 MLOAD RETURNDATASIZE SWAP2 POP DUP2 ISZERO PUSH2 0x3EEE JUMPI DUP1 PUSH1 0x1 EQ ISZERO PUSH2 0x3EFB JUMP JUMPDEST PUSH1 0x1 PUSH1 0x1 PUSH1 0xA0 SHL SUB DUP5 AND EXTCODESIZE ISZERO JUMPDEST ISZERO PUSH2 0x3741 JUMPI PUSH1 0x40 MLOAD PUSH4 0x5274AFE7 PUSH1 0xE0 SHL DUP2 MSTORE PUSH1 0x1 PUSH1 0x1 PUSH1 0xA0 SHL SUB DUP6 AND PUSH1 0x4 DUP3 ADD MSTORE PUSH1 0x24 ADD PUSH2 0x12D7 JUMP JUMPDEST DUP1 CALLDATALOAD PUSH1 0xFF DUP2 AND DUP2 EQ PUSH2 0x3F35 JUMPI PUSH1 0x0 DUP1 REVERT JUMPDEST SWAP2 SWAP1 POP JUMP JUMPDEST DUP1 ISZERO ISZERO DUP2 EQ PUSH2 0x145C JUMPI PUSH1 0x0 DUP1 REVERT JUMPDEST PUSH1 0x0 DUP1 PUSH1 0x40 DUP4 DUP6 SUB SLT ISZERO PUSH2 0x3F5B JUMPI PUSH1 0x0 DUP1 REVERT JUMPDEST PUSH2 0x3F64 DUP4 PUSH2 0x3F24 JUMP JUMPDEST SWAP2 POP PUSH1 0x20 DUP4 ADD CALLDATALOAD PUSH2 0x3F74 DUP2 PUSH2 0x3F3A JUMP JUMPDEST DUP1 SWAP2 POP POP SWAP3 POP SWAP3 SWAP1 POP JUMP JUMPDEST DUP2 MLOAD ISZERO ISZERO DUP2 MSTORE PUSH1 0x20 DUP1 DUP4 ADD MLOAD SWAP1 DUP3 ADD MSTORE PUSH1 0x40 DUP1 DUP4 ADD MLOAD SWAP1 DUP3 ADD MSTORE PUSH1 0x60 DUP1 DUP4 ADD MLOAD SWAP1 DUP3 ADD MSTORE PUSH1 0x80 DUP2 ADD PUSH2 0x362A JUMP JUMPDEST PUSH1 0x0 PUSH1 0x20 DUP3 DUP5 SUB SLT ISZERO PUSH2 0x3FBE JUMPI PUSH1 0x0 DUP1 REVERT JUMPDEST POP CALLDATALOAD SWAP2 SWAP1 POP JUMP JUMPDEST PUSH4 0x4E487B71 PUSH1 0xE0 SHL PUSH1 0x0 MSTORE PUSH1 0x21 PUSH1 0x4 MSTORE PUSH1 0x24 PUSH1 0x0 REVERT JUMPDEST PUSH1 0x5 DUP2 LT PUSH2 0x3FEB JUMPI PUSH2 0x3FEB PUSH2 0x3FC5 JUMP JUMPDEST SWAP1 MSTORE JUMP JUMPDEST PUSH1 0x7 DUP2 LT PUSH2 0x3FEB JUMPI PUSH2 0x3FEB PUSH2 0x3FC5 JUMP JUMPDEST DUP2 MLOAD PUSH1 0x1 PUSH1 0x1 PUSH1 0xA0 SHL SUB AND DUP2 MSTORE PUSH2 0x420 DUP2 ADD PUSH1 0x20 DUP4 ADD MLOAD PUSH1 0x20 DUP4 ADD MSTORE PUSH1 0x40 DUP4 ADD MLOAD PUSH2 0x402D PUSH1 0x40 DUP5 ADD DUP3 PUSH2 0x3FDB JUMP JUMPDEST POP PUSH1 0x60 DUP4 ADD MLOAD PUSH2 0x4042 PUSH1 0x60 DUP5 ADD DUP3 PUSH1 0xFF AND SWAP1 MSTORE JUMP JUMPDEST POP PUSH1 0x80 DUP4 ADD MLOAD PUSH2 0x4056 PUSH1 0x80 DUP5 ADD DUP3 ISZERO ISZERO SWAP1 MSTORE JUMP JUMPDEST POP PUSH1 0xA0 DUP4 ADD MLOAD PUSH1 0xA0 DUP4 ADD MSTORE PUSH1 0xC0 DUP4 ADD MLOAD PUSH1 0xC0 DUP4 ADD MSTORE PUSH1 0xE0 DUP4 ADD MLOAD PUSH1 0xE0 DUP4 ADD MSTORE PUSH2 0x100 DUP1 DUP5 ADD MLOAD PUSH2 0x4088 DUP3 DUP6 ADD DUP3 PUSH2 0x3FEF JUMP JUMPDEST POP POP PUSH2 0x120 DUP4 DUP2 ADD MLOAD SWAP1 DUP4 ADD MSTORE PUSH2 0x140 DUP1 DUP5 ADD MLOAD SWAP1 DUP4 ADD MSTORE PUSH2 0x160 DUP1 DUP5 ADD MLOAD PUSH2 0xFFFF SWAP1 DUP2 AND SWAP2 DUP5 ADD SWAP2 SWAP1 SWAP2 MSTORE PUSH2 0x180 DUP1 DUP6 ADD MLOAD DUP3 AND SWAP1 DUP5 ADD MSTORE PUSH2 0x1A0 DUP1 DUP6 ADD MLOAD SWAP1 SWAP2 AND SWAP1 DUP4 ADD MSTORE PUSH2 0x1C0 DUP1 DUP5 ADD MLOAD PUSH1 0xFF SWAP1 DUP2 AND SWAP2 DUP5 ADD SWAP2 SWAP1 SWAP2 MSTORE PUSH2 0x1E0 DUP1 DUP6 ADD MLOAD SWAP1 SWAP2 AND SWAP1 DUP4 ADD MSTORE PUSH2 0x200 DUP1 DUP5 ADD MLOAD SWAP1 DUP4 ADD MSTORE PUSH2 0x220 DUP1 DUP5 ADD MLOAD SWAP1 DUP4 ADD MSTORE PUSH2 0x240 DUP1 DUP5 ADD MLOAD SWAP1 DUP4 ADD MSTORE PUSH2 0x260 DUP1 DUP5 ADD MLOAD SWAP1 DUP4 ADD MSTORE PUSH2 0x280 DUP1 DUP5 ADD MLOAD SWAP1 DUP4 ADD MSTORE PUSH2 0x2A0 DUP1 DUP5 ADD MLOAD SWAP1 DUP4 ADD MSTORE PUSH2 0x2C0 DUP1 DUP5 ADD MLOAD SWAP1 DUP4 ADD MSTORE PUSH2 0x2E0 DUP1 DUP5 ADD MLOAD SWAP1 DUP4 ADD MSTORE PUSH2 0x300 DUP1 DUP5 ADD MLOAD SWAP1 DUP4 ADD MSTORE PUSH2 0x320 DUP1 DUP5 ADD MLOAD ISZERO ISZERO SWAP1 DUP4 ADD MSTORE PUSH2 0x340 DUP1 DUP5 ADD MLOAD ISZERO ISZERO SWAP1 DUP4 ADD MSTORE PUSH2 0x360 DUP1 DUP5 ADD MLOAD SWAP1 DUP4 ADD MSTORE PUSH2 0x380 DUP1 DUP5 ADD MLOAD SWAP1 DUP4 ADD MSTORE PUSH2 0x3A0 SWAP3 DUP4 ADD MLOAD DUP1 MLOAD ISZERO ISZERO SWAP4 DUP4 ADD SWAP4 SWAP1 SWAP4 MSTORE PUSH1 0x20 DUP4 ADD MLOAD PUSH2 0x3C0 DUP4 ADD MSTORE PUSH1 0x40 DUP4 ADD MLOAD PUSH2 0x3E0 DUP4 ADD MSTORE PUSH1 0x60 SWAP1 SWAP3 ADD MLOAD PUSH2 0x400 SWAP1 SWAP2 ADD MSTORE SWAP1 JUMP JUMPDEST PUSH1 0x1 PUSH1 0x1 PUSH1 0xA0 SHL SUB DUP2 AND DUP2 EQ PUSH2 0x145C JUMPI PUSH1 0x0 DUP1 REVERT JUMPDEST PUSH1 0x0 DUP1 PUSH1 0x0 DUP1 PUSH1 0x0 DUP1 PUSH1 0x0 DUP1 DUP9 DUP11 SUB PUSH2 0x180 DUP2 SLT ISZERO PUSH2 0x41EE JUMPI PUSH1 0x0 DUP1 REVERT JUMPDEST DUP10 CALLDATALOAD PUSH2 0x41F9 DUP2 PUSH2 0x41BB JUMP JUMPDEST SWAP9 POP PUSH1 0x20 DUP11 ADD CALLDATALOAD PUSH2 0x4209 DUP2 PUSH2 0x41BB JUMP JUMPDEST SWAP8 POP PUSH1 0x40 DUP11 ADD CALLDATALOAD PUSH2 0x4219 DUP2 PUSH2 0x41BB JUMP JUMPDEST SWAP7 POP PUSH1 0x60 DUP11 ADD CALLDATALOAD PUSH2 0x4229 DUP2 PUSH2 0x41BB JUMP JUMPDEST SWAP6 POP PUSH1 0x80 DUP11 ADD CALLDATALOAD PUSH2 0x4239 DUP2 PUSH2 0x41BB JUMP JUMPDEST SWAP5 POP PUSH1 0xA0 DUP11 ADD CALLDATALOAD PUSH2 0x4249 DUP2 PUSH2 0x41BB JUMP JUMPDEST SWAP4 POP PUSH1 0xC0 DUP11 ADD CALLDATALOAD SWAP3 POP PUSH1 0xA0 PUSH1 0xDF NOT DUP3 ADD SLT ISZERO PUSH2 0x4264 JUMPI PUSH1 0x0 DUP1 REVERT JUMPDEST POP PUSH1 0xE0 DUP10 ADD SWAP1 POP SWAP3 SWAP6 SWAP9 POP SWAP3 SWAP6 SWAP9 SWAP1 SWAP4 SWAP7 POP JUMP JUMPDEST PUSH1 0x0 DUP1 PUSH1 0x0 PUSH1 0x60 DUP5 DUP7 SUB SLT ISZERO PUSH2 0x428D JUMPI PUSH1 0x0 DUP1 REVERT JUMPDEST PUSH2 0x4296 DUP5 PUSH2 0x3F24 JUMP JUMPDEST SWAP3 POP PUSH1 0x20 DUP5 ADD CALLDATALOAD SWAP2 POP PUSH1 0x40 DUP5 ADD CALLDATALOAD PUSH2 0x42AD DUP2 PUSH2 0x3F3A JUMP JUMPDEST DUP1 SWAP2 POP POP SWAP3 POP SWAP3 POP SWAP3 JUMP JUMPDEST PUSH1 0x20 DUP2 ADD PUSH2 0x362A DUP3 DUP5 PUSH2 0x3FDB JUMP JUMPDEST PUSH1 0x60 DUP2 ADD PUSH2 0x42D4 DUP3 DUP7 PUSH2 0x3FEF JUMP JUMPDEST PUSH1 0x20 DUP3 ADD SWAP4 SWAP1 SWAP4 MSTORE PUSH1 0x40 ADD MSTORE SWAP2 SWAP1 POP JUMP JUMPDEST PUSH1 0x0 PUSH1 0x20 DUP3 DUP5 SUB SLT ISZERO PUSH2 0x42F7 JUMPI PUSH1 0x0 DUP1 REVERT JUMPDEST POP MLOAD SWAP2 SWAP1 POP JUMP JUMPDEST PUSH1 0x0 PUSH1 0x20 DUP3 DUP5 SUB SLT ISZERO PUSH2 0x4310 JUMPI PUSH1 0x0 DUP1 REVERT JUMPDEST DUP2 MLOAD PUSH2 0x431B DUP2 PUSH2 0x3F3A JUMP JUMPDEST SWAP4 SWAP3 POP POP POP JUMP JUMPDEST PUSH1 0x0 PUSH1 0x80 DUP3 DUP5 SUB SLT ISZERO PUSH2 0x4334 JUMPI PUSH1 0x0 DUP1 REVERT JUMPDEST PUSH1 0x40 MLOAD PUSH1 0x80 DUP2 ADD DUP2 DUP2 LT PUSH8 0xFFFFFFFFFFFFFFFF DUP3 GT OR ISZERO PUSH2 0x4365 JUMPI PUSH4 0x4E487B71 PUSH1 0xE0 SHL PUSH1 0x0 MSTORE PUSH1 0x41 PUSH1 0x4 MSTORE PUSH1 0x24 PUSH1 0x0 REVERT JUMPDEST PUSH1 0x40 MSTORE DUP3 MLOAD PUSH2 0x4373 DUP2 PUSH2 0x3F3A JUMP JUMPDEST DUP1 DUP3 MSTORE POP PUSH1 0x20 DUP4 ADD MLOAD PUSH1 0x20 DUP3 ADD MSTORE PUSH1 0x40 DUP4 ADD MLOAD PUSH1 0x40 DUP3 ADD MSTORE PUSH1 0x60 DUP4 ADD MLOAD PUSH1 0x60 DUP3 ADD MSTORE DUP1 SWAP2 POP POP SWAP3 SWAP2 POP POP JUMP JUMPDEST PUSH4 0x4E487B71 PUSH1 0xE0 SHL PUSH1 0x0 MSTORE PUSH1 0x11 PUSH1 0x4 MSTORE PUSH1 0x24 PUSH1 0x0 REVERT JUMPDEST DUP2 DUP2 SUB DUP2 DUP2 GT ISZERO PUSH2 0x362A JUMPI PUSH2 0x362A PUSH2 0x439F JUMP JUMPDEST DUP1 DUP3 MUL DUP2 ISZERO DUP3 DUP3 DIV DUP5 EQ OR PUSH2 0x362A JUMPI PUSH2 0x362A PUSH2 0x439F JUMP JUMPDEST PUSH1 0x0 DUP3 PUSH2 0x43FC JUMPI PUSH4 0x4E487B71 PUSH1 0xE0 SHL PUSH1 0x0 MSTORE PUSH1 0x12 PUSH1 0x4 MSTORE PUSH1 0x24 PUSH1 0x0 REVERT JUMPDEST POP DIV SWAP1 JUMP JUMPDEST DUP1 DUP3 ADD DUP1 DUP3 GT ISZERO PUSH2 0x362A JUMPI PUSH2 0x362A PUSH2 0x439F JUMP JUMPDEST PUSH1 0x0 PUSH1 0x20 DUP3 DUP5 SUB SLT ISZERO PUSH2 0x4426 JUMPI PUSH1 0x0 DUP1 REVERT JUMPDEST DUP2 CALLDATALOAD PUSH2 0xFFFF DUP2 AND DUP2 EQ PUSH2 0x431B JUMPI PUSH1 0x0 DUP1 REVERT JUMPDEST PUSH1 0x0 PUSH1 0x20 DUP3 DUP5 SUB SLT ISZERO PUSH2 0x444A JUMPI PUSH1 0x0 DUP1 REVERT JUMPDEST PUSH2 0x3627 DUP3 PUSH2 0x3F24 JUMP INVALID LOG2 PUSH5 0x6970667358 0x22 SLT KECCAK256 0xAF STOP MOD 0xC6 0x2D EXTCODESIZE 0x1F 0xD9 0xB2 ISZERO CALLVALUE 0xA9 0xB7 0xE1 SHL SWAP14 DUP5 SWAP4 0xEC 0xA5 0xBE JUMPDEST SIGNEXTEND 0xC4 PUSH19 0x33035DE7A63C8F64736F6C6343000818003300 "},"methodIdentifiers":{"accruedFeesUsdc()":"5987608c","afterOrderCancellation(bytes32)":"41fcf163","afterOrderExecution(bytes32)":"a83e12bd","bufferBps()":"c37b6337","cancelLimitOrder()":"2202ce8c","cancelStopLoss()":"5a88057f","cancelStuckOrder()":"6fcd3ee7","cancelTakeProfit()":"5f8867ed","closePosition()":"c393d0e3","collateral()":"d8dfeb45","collateralValueUsdWad()":"311918ed","currentLTV()":"28e72f97","debt()":"0dca59c1","debtValueUsdWad()":"4412a6b6","deposit(uint256)":"b6b55f25","effectiveMaxLtvBps()":"e4d755c3","factory()":"c45a0155","flatTier()":"f267378e","gmx()":"31e67c71","gmxPosition()":"2e2dbd22","healthFactor()":"22841f01","initialize(address,address,address,address,address,address,bytes32,(uint16,uint16,uint16,uint8,uint8))":"5dd92cd5","isLong()":"202a61a1","isRedeemable()":"af920582","lastAccrual()":"7b3baab4","leverage()":"2c86d98e","liquidate()":"28a07025","liquidator()":"4046ebae","lltvBps()":"b3604c96","marketId()":"6ed71ede","maxLeverage()":"ae3302c2","maxLtv1xBps()":"33d40efa","maxLtvAtMaxLevBps()":"042e1b6b","mint(uint256)":"a0712d68","openLimitPosition(uint8,uint256,bool)":"7dde818c","openPosition(uint8,bool)":"2a758439","oracle()":"7dc0d1d0","owner()":"8da5cb5b","pending()":"e20ccec3","pendingFeesUsdc()":"32335fbd","posKey()":"7aa3fa62","rToken()":"40c65f72","redeem(uint256)":"db006a75","repay(uint256)":"371fd8e6","rltBps()":"286112d0","setStopLoss(uint256)":"e525db20","setTakeProfit(uint256)":"8b52f5b1","slOrderKey()":"a7e566d0","state()":"c19d93fb","tpOrderKey()":"b47b7b72","usdc()":"3e413bee","vaultInfo()":"501ec738"}}}}}