{"src/adapters/GmxV2Adapter.sol":{"GmxV2Adapter":{"abi":[{"inputs":[{"internalType":"contract IERC20","name":"usdc_","type":"address"},{"internalType":"contract IGmxExchangeRouter","name":"exchangeRouter_","type":"address"},{"internalType":"address","name":"gmxRouter_","type":"address"},{"internalType":"address","name":"orderVault_","type":"address"},{"internalType":"address","name":"reader_","type":"address"},{"internalType":"address","name":"dataStore_","type":"address"},{"internalType":"address","name":"gmxOrderHandler_","type":"address"},{"internalType":"address","name":"owner_","type":"address"}],"stateMutability":"payable","type":"constructor"},{"inputs":[{"internalType":"address","name":"owner","type":"address"}],"name":"OwnableInvalidOwner","type":"error"},{"inputs":[{"internalType":"address","name":"account","type":"address"}],"name":"OwnableUnauthorizedAccount","type":"error"},{"inputs":[{"internalType":"address","name":"token","type":"address"}],"name":"SafeERC20FailedOperation","type":"error"},{"anonymous":false,"inputs":[{"indexed":true,"internalType":"bytes32","name":"marketId","type":"bytes32"},{"indexed":false,"internalType":"address","name":"oracle","type":"address"},{"indexed":false,"internalType":"address","name":"gmxMarket","type":"address"}],"name":"MarketRegistered","type":"event"},{"anonymous":false,"inputs":[{"indexed":true,"internalType":"bytes32","name":"orderKey","type":"bytes32"},{"indexed":false,"internalType":"bytes32","name":"gmxKey","type":"bytes32"}],"name":"OrderCancelled","type":"event"},{"anonymous":false,"inputs":[{"indexed":true,"internalType":"bytes32","name":"orderKey","type":"bytes32"},{"indexed":true,"internalType":"address","name":"vault","type":"address"},{"indexed":false,"internalType":"uint8","name":"kind","type":"uint8"},{"indexed":false,"internalType":"bytes32","name":"gmxKey","type":"bytes32"}],"name":"OrderCreated","type":"event"},{"anonymous":false,"inputs":[{"indexed":true,"internalType":"bytes32","name":"orderKey","type":"bytes32"},{"indexed":false,"internalType":"bytes32","name":"gmxKey","type":"bytes32"}],"name":"OrderExecuted","type":"event"},{"anonymous":false,"inputs":[{"indexed":true,"internalType":"bytes32","name":"gmxKey","type":"bytes32"}],"name":"OrderFrozen","type":"event"},{"anonymous":false,"inputs":[{"indexed":true,"internalType":"address","name":"previousOwner","type":"address"},{"indexed":true,"internalType":"address","name":"newOwner","type":"address"}],"name":"OwnershipTransferred","type":"event"},{"inputs":[],"name":"acceptablePriceMax","outputs":[{"internalType":"uint256","name":"","type":"uint256"}],"stateMutability":"view","type":"function"},{"inputs":[],"name":"acceptablePriceMin","outputs":[{"internalType":"uint256","name":"","type":"uint256"}],"stateMutability":"view","type":"function"},{"inputs":[{"internalType":"bytes32","name":"key","type":"bytes32"},{"components":[{"components":[{"components":[{"internalType":"string","name":"key","type":"string"},{"internalType":"address","name":"value","type":"address"}],"internalType":"struct IGmxOrderCallbackReceiver.AddressKeyValue[]","name":"items","type":"tuple[]"},{"components":[{"internalType":"string","name":"key","type":"string"},{"internalType":"address[]","name":"value","type":"address[]"}],"internalType":"struct IGmxOrderCallbackReceiver.AddressArrayKeyValue[]","name":"arrayItems","type":"tuple[]"}],"internalType":"struct IGmxOrderCallbackReceiver.AddressItems","name":"addressItems","type":"tuple"},{"components":[{"components":[{"internalType":"string","name":"key","type":"string"},{"internalType":"uint256","name":"value","type":"uint256"}],"internalType":"struct IGmxOrderCallbackReceiver.UintKeyValue[]","name":"items","type":"tuple[]"},{"components":[{"internalType":"string","name":"key","type":"string"},{"internalType":"uint256[]","name":"value","type":"uint256[]"}],"internalType":"struct IGmxOrderCallbackReceiver.UintArrayKeyValue[]","name":"arrayItems","type":"tuple[]"}],"internalType":"struct IGmxOrderCallbackReceiver.UintItems","name":"uintItems","type":"tuple"},{"components":[{"components":[{"internalType":"string","name":"key","type":"string"},{"internalType":"int256","name":"value","type":"int256"}],"internalType":"struct IGmxOrderCallbackReceiver.IntKeyValue[]","name":"items","type":"tuple[]"},{"components":[{"internalType":"string","name":"key","type":"string"},{"internalType":"int256[]","name":"value","type":"int256[]"}],"internalType":"struct IGmxOrderCallbackReceiver.IntArrayKeyValue[]","name":"arrayItems","type":"tuple[]"}],"internalType":"struct IGmxOrderCallbackReceiver.IntItems","name":"intItems","type":"tuple"},{"components":[{"components":[{"internalType":"string","name":"key","type":"string"},{"internalType":"bool","name":"value","type":"bool"}],"internalType":"struct IGmxOrderCallbackReceiver.BoolKeyValue[]","name":"items","type":"tuple[]"},{"components":[{"internalType":"string","name":"key","type":"string"},{"internalType":"bool[]","name":"value","type":"bool[]"}],"internalType":"struct IGmxOrderCallbackReceiver.BoolArrayKeyValue[]","name":"arrayItems","type":"tuple[]"}],"internalType":"struct IGmxOrderCallbackReceiver.BoolItems","name":"boolItems","type":"tuple"},{"components":[{"components":[{"internalType":"string","name":"key","type":"string"},{"internalType":"bytes32","name":"value","type":"bytes32"}],"internalType":"struct IGmxOrderCallbackReceiver.Bytes32KeyValue[]","name":"items","type":"tuple[]"},{"components":[{"internalType":"string","name":"key","type":"string"},{"internalType":"bytes32[]","name":"value","type":"bytes32[]"}],"internalType":"struct IGmxOrderCallbackReceiver.Bytes32ArrayKeyValue[]","name":"arrayItems","type":"tuple[]"}],"internalType":"struct IGmxOrderCallbackReceiver.Bytes32Items","name":"bytes32Items","type":"tuple"},{"components":[{"components":[{"internalType":"string","name":"key","type":"string"},{"internalType":"bytes","name":"value","type":"bytes"}],"internalType":"struct IGmxOrderCallbackReceiver.BytesKeyValue[]","name":"items","type":"tuple[]"},{"components":[{"internalType":"string","name":"key","type":"string"},{"internalType":"bytes[]","name":"value","type":"bytes[]"}],"internalType":"struct IGmxOrderCallbackReceiver.BytesArrayKeyValue[]","name":"arrayItems","type":"tuple[]"}],"internalType":"struct IGmxOrderCallbackReceiver.BytesItems","name":"bytesItems","type":"tuple"},{"components":[{"components":[{"internalType":"string","name":"key","type":"string"},{"internalType":"string","name":"value","type":"string"}],"internalType":"struct IGmxOrderCallbackReceiver.StringKeyValue[]","name":"items","type":"tuple[]"},{"components":[{"internalType":"string","name":"key","type":"string"},{"internalType":"string[]","name":"value","type":"string[]"}],"internalType":"struct IGmxOrderCallbackReceiver.StringArrayKeyValue[]","name":"arrayItems","type":"tuple[]"}],"internalType":"struct IGmxOrderCallbackReceiver.StringItems","name":"stringItems","type":"tuple"}],"internalType":"struct IGmxOrderCallbackReceiver.EventLogData","name":"","type":"tuple"},{"components":[{"components":[{"components":[{"internalType":"string","name":"key","type":"string"},{"internalType":"address","name":"value","type":"address"}],"internalType":"struct IGmxOrderCallbackReceiver.AddressKeyValue[]","name":"items","type":"tuple[]"},{"components":[{"internalType":"string","name":"key","type":"string"},{"internalType":"address[]","name":"value","type":"address[]"}],"internalType":"struct IGmxOrderCallbackReceiver.AddressArrayKeyValue[]","name":"arrayItems","type":"tuple[]"}],"internalType":"struct IGmxOrderCallbackReceiver.AddressItems","name":"addressItems","type":"tuple"},{"components":[{"components":[{"internalType":"string","name":"key","type":"string"},{"internalType":"uint256","name":"value","type":"uint256"}],"internalType":"struct IGmxOrderCallbackReceiver.UintKeyValue[]","name":"items","type":"tuple[]"},{"components":[{"internalType":"string","name":"key","type":"string"},{"internalType":"uint256[]","name":"value","type":"uint256[]"}],"internalType":"struct IGmxOrderCallbackReceiver.UintArrayKeyValue[]","name":"arrayItems","type":"tuple[]"}],"internalType":"struct IGmxOrderCallbackReceiver.UintItems","name":"uintItems","type":"tuple"},{"components":[{"components":[{"internalType":"string","name":"key","type":"string"},{"internalType":"int256","name":"value","type":"int256"}],"internalType":"struct IGmxOrderCallbackReceiver.IntKeyValue[]","name":"items","type":"tuple[]"},{"components":[{"internalType":"string","name":"key","type":"string"},{"internalType":"int256[]","name":"value","type":"int256[]"}],"internalType":"struct IGmxOrderCallbackReceiver.IntArrayKeyValue[]","name":"arrayItems","type":"tuple[]"}],"internalType":"struct IGmxOrderCallbackReceiver.IntItems","name":"intItems","type":"tuple"},{"components":[{"components":[{"internalType":"string","name":"key","type":"string"},{"internalType":"bool","name":"value","type":"bool"}],"internalType":"struct IGmxOrderCallbackReceiver.BoolKeyValue[]","name":"items","type":"tuple[]"},{"components":[{"internalType":"string","name":"key","type":"string"},{"internalType":"bool[]","name":"value","type":"bool[]"}],"internalType":"struct IGmxOrderCallbackReceiver.BoolArrayKeyValue[]","name":"arrayItems","type":"tuple[]"}],"internalType":"struct IGmxOrderCallbackReceiver.BoolItems","name":"boolItems","type":"tuple"},{"components":[{"components":[{"internalType":"string","name":"key","type":"string"},{"internalType":"bytes32","name":"value","type":"bytes32"}],"internalType":"struct IGmxOrderCallbackReceiver.Bytes32KeyValue[]","name":"items","type":"tuple[]"},{"components":[{"internalType":"string","name":"key","type":"string"},{"internalType":"bytes32[]","name":"value","type":"bytes32[]"}],"internalType":"struct IGmxOrderCallbackReceiver.Bytes32ArrayKeyValue[]","name":"arrayItems","type":"tuple[]"}],"internalType":"struct IGmxOrderCallbackReceiver.Bytes32Items","name":"bytes32Items","type":"tuple"},{"components":[{"components":[{"internalType":"string","name":"key","type":"string"},{"internalType":"bytes","name":"value","type":"bytes"}],"internalType":"struct IGmxOrderCallbackReceiver.BytesKeyValue[]","name":"items","type":"tuple[]"},{"components":[{"internalType":"string","name":"key","type":"string"},{"internalType":"bytes[]","name":"value","type":"bytes[]"}],"internalType":"struct IGmxOrderCallbackReceiver.BytesArrayKeyValue[]","name":"arrayItems","type":"tuple[]"}],"internalType":"struct IGmxOrderCallbackReceiver.BytesItems","name":"bytesItems","type":"tuple"},{"components":[{"components":[{"internalType":"string","name":"key","type":"string"},{"internalType":"string","name":"value","type":"string"}],"internalType":"struct IGmxOrderCallbackReceiver.StringKeyValue[]","name":"items","type":"tuple[]"},{"components":[{"internalType":"string","name":"key","type":"string"},{"internalType":"string[]","name":"value","type":"string[]"}],"internalType":"struct IGmxOrderCallbackReceiver.StringArrayKeyValue[]","name":"arrayItems","type":"tuple[]"}],"internalType":"struct IGmxOrderCallbackReceiver.StringItems","name":"stringItems","type":"tuple"}],"internalType":"struct IGmxOrderCallbackReceiver.EventLogData","name":"","type":"tuple"}],"name":"afterOrderCancellation","outputs":[],"stateMutability":"nonpayable","type":"function"},{"inputs":[{"internalType":"bytes32","name":"key","type":"bytes32"},{"components":[{"components":[{"components":[{"internalType":"string","name":"key","type":"string"},{"internalType":"address","name":"value","type":"address"}],"internalType":"struct IGmxOrderCallbackReceiver.AddressKeyValue[]","name":"items","type":"tuple[]"},{"components":[{"internalType":"string","name":"key","type":"string"},{"internalType":"address[]","name":"value","type":"address[]"}],"internalType":"struct IGmxOrderCallbackReceiver.AddressArrayKeyValue[]","name":"arrayItems","type":"tuple[]"}],"internalType":"struct IGmxOrderCallbackReceiver.AddressItems","name":"addressItems","type":"tuple"},{"components":[{"components":[{"internalType":"string","name":"key","type":"string"},{"internalType":"uint256","name":"value","type":"uint256"}],"internalType":"struct IGmxOrderCallbackReceiver.UintKeyValue[]","name":"items","type":"tuple[]"},{"components":[{"internalType":"string","name":"key","type":"string"},{"internalType":"uint256[]","name":"value","type":"uint256[]"}],"internalType":"struct IGmxOrderCallbackReceiver.UintArrayKeyValue[]","name":"arrayItems","type":"tuple[]"}],"internalType":"struct IGmxOrderCallbackReceiver.UintItems","name":"uintItems","type":"tuple"},{"components":[{"components":[{"internalType":"string","name":"key","type":"string"},{"internalType":"int256","name":"value","type":"int256"}],"internalType":"struct IGmxOrderCallbackReceiver.IntKeyValue[]","name":"items","type":"tuple[]"},{"components":[{"internalType":"string","name":"key","type":"string"},{"internalType":"int256[]","name":"value","type":"int256[]"}],"internalType":"struct IGmxOrderCallbackReceiver.IntArrayKeyValue[]","name":"arrayItems","type":"tuple[]"}],"internalType":"struct IGmxOrderCallbackReceiver.IntItems","name":"intItems","type":"tuple"},{"components":[{"components":[{"internalType":"string","name":"key","type":"string"},{"internalType":"bool","name":"value","type":"bool"}],"internalType":"struct IGmxOrderCallbackReceiver.BoolKeyValue[]","name":"items","type":"tuple[]"},{"components":[{"internalType":"string","name":"key","type":"string"},{"internalType":"bool[]","name":"value","type":"bool[]"}],"internalType":"struct IGmxOrderCallbackReceiver.BoolArrayKeyValue[]","name":"arrayItems","type":"tuple[]"}],"internalType":"struct IGmxOrderCallbackReceiver.BoolItems","name":"boolItems","type":"tuple"},{"components":[{"components":[{"internalType":"string","name":"key","type":"string"},{"internalType":"bytes32","name":"value","type":"bytes32"}],"internalType":"struct IGmxOrderCallbackReceiver.Bytes32KeyValue[]","name":"items","type":"tuple[]"},{"components":[{"internalType":"string","name":"key","type":"string"},{"internalType":"bytes32[]","name":"value","type":"bytes32[]"}],"internalType":"struct IGmxOrderCallbackReceiver.Bytes32ArrayKeyValue[]","name":"arrayItems","type":"tuple[]"}],"internalType":"struct IGmxOrderCallbackReceiver.Bytes32Items","name":"bytes32Items","type":"tuple"},{"components":[{"components":[{"internalType":"string","name":"key","type":"string"},{"internalType":"bytes","name":"value","type":"bytes"}],"internalType":"struct IGmxOrderCallbackReceiver.BytesKeyValue[]","name":"items","type":"tuple[]"},{"components":[{"internalType":"string","name":"key","type":"string"},{"internalType":"bytes[]","name":"value","type":"bytes[]"}],"internalType":"struct IGmxOrderCallbackReceiver.BytesArrayKeyValue[]","name":"arrayItems","type":"tuple[]"}],"internalType":"struct IGmxOrderCallbackReceiver.BytesItems","name":"bytesItems","type":"tuple"},{"components":[{"components":[{"internalType":"string","name":"key","type":"string"},{"internalType":"string","name":"value","type":"string"}],"internalType":"struct IGmxOrderCallbackReceiver.StringKeyValue[]","name":"items","type":"tuple[]"},{"components":[{"internalType":"string","name":"key","type":"string"},{"internalType":"string[]","name":"value","type":"string[]"}],"internalType":"struct IGmxOrderCallbackReceiver.StringArrayKeyValue[]","name":"arrayItems","type":"tuple[]"}],"internalType":"struct IGmxOrderCallbackReceiver.StringItems","name":"stringItems","type":"tuple"}],"internalType":"struct IGmxOrderCallbackReceiver.EventLogData","name":"","type":"tuple"},{"components":[{"components":[{"components":[{"internalType":"string","name":"key","type":"string"},{"internalType":"address","name":"value","type":"address"}],"internalType":"struct IGmxOrderCallbackReceiver.AddressKeyValue[]","name":"items","type":"tuple[]"},{"components":[{"internalType":"string","name":"key","type":"string"},{"internalType":"address[]","name":"value","type":"address[]"}],"internalType":"struct IGmxOrderCallbackReceiver.AddressArrayKeyValue[]","name":"arrayItems","type":"tuple[]"}],"internalType":"struct IGmxOrderCallbackReceiver.AddressItems","name":"addressItems","type":"tuple"},{"components":[{"components":[{"internalType":"string","name":"key","type":"string"},{"internalType":"uint256","name":"value","type":"uint256"}],"internalType":"struct IGmxOrderCallbackReceiver.UintKeyValue[]","name":"items","type":"tuple[]"},{"components":[{"internalType":"string","name":"key","type":"string"},{"internalType":"uint256[]","name":"value","type":"uint256[]"}],"internalType":"struct IGmxOrderCallbackReceiver.UintArrayKeyValue[]","name":"arrayItems","type":"tuple[]"}],"internalType":"struct IGmxOrderCallbackReceiver.UintItems","name":"uintItems","type":"tuple"},{"components":[{"components":[{"internalType":"string","name":"key","type":"string"},{"internalType":"int256","name":"value","type":"int256"}],"internalType":"struct IGmxOrderCallbackReceiver.IntKeyValue[]","name":"items","type":"tuple[]"},{"components":[{"internalType":"string","name":"key","type":"string"},{"internalType":"int256[]","name":"value","type":"int256[]"}],"internalType":"struct IGmxOrderCallbackReceiver.IntArrayKeyValue[]","name":"arrayItems","type":"tuple[]"}],"internalType":"struct IGmxOrderCallbackReceiver.IntItems","name":"intItems","type":"tuple"},{"components":[{"components":[{"internalType":"string","name":"key","type":"string"},{"internalType":"bool","name":"value","type":"bool"}],"internalType":"struct IGmxOrderCallbackReceiver.BoolKeyValue[]","name":"items","type":"tuple[]"},{"components":[{"internalType":"string","name":"key","type":"string"},{"internalType":"bool[]","name":"value","type":"bool[]"}],"internalType":"struct IGmxOrderCallbackReceiver.BoolArrayKeyValue[]","name":"arrayItems","type":"tuple[]"}],"internalType":"struct IGmxOrderCallbackReceiver.BoolItems","name":"boolItems","type":"tuple"},{"components":[{"components":[{"internalType":"string","name":"key","type":"string"},{"internalType":"bytes32","name":"value","type":"bytes32"}],"internalType":"struct IGmxOrderCallbackReceiver.Bytes32KeyValue[]","name":"items","type":"tuple[]"},{"components":[{"internalType":"string","name":"key","type":"string"},{"internalType":"bytes32[]","name":"value","type":"bytes32[]"}],"internalType":"struct IGmxOrderCallbackReceiver.Bytes32ArrayKeyValue[]","name":"arrayItems","type":"tuple[]"}],"internalType":"struct IGmxOrderCallbackReceiver.Bytes32Items","name":"bytes32Items","type":"tuple"},{"components":[{"components":[{"internalType":"string","name":"key","type":"string"},{"internalType":"bytes","name":"value","type":"bytes"}],"internalType":"struct IGmxOrderCallbackReceiver.BytesKeyValue[]","name":"items","type":"tuple[]"},{"components":[{"internalType":"string","name":"key","type":"string"},{"internalType":"bytes[]","name":"value","type":"bytes[]"}],"internalType":"struct IGmxOrderCallbackReceiver.BytesArrayKeyValue[]","name":"arrayItems","type":"tuple[]"}],"internalType":"struct IGmxOrderCallbackReceiver.BytesItems","name":"bytesItems","type":"tuple"},{"components":[{"components":[{"internalType":"string","name":"key","type":"string"},{"internalType":"string","name":"value","type":"string"}],"internalType":"struct IGmxOrderCallbackReceiver.StringKeyValue[]","name":"items","type":"tuple[]"},{"components":[{"internalType":"string","name":"key","type":"string"},{"internalType":"string[]","name":"value","type":"string[]"}],"internalType":"struct IGmxOrderCallbackReceiver.StringArrayKeyValue[]","name":"arrayItems","type":"tuple[]"}],"internalType":"struct IGmxOrderCallbackReceiver.StringItems","name":"stringItems","type":"tuple"}],"internalType":"struct IGmxOrderCallbackReceiver.EventLogData","name":"","type":"tuple"}],"name":"afterOrderExecution","outputs":[],"stateMutability":"nonpayable","type":"function"},{"inputs":[{"internalType":"bytes32","name":"key","type":"bytes32"},{"components":[{"components":[{"components":[{"internalType":"string","name":"key","type":"string"},{"internalType":"address","name":"value","type":"address"}],"internalType":"struct IGmxOrderCallbackReceiver.AddressKeyValue[]","name":"items","type":"tuple[]"},{"components":[{"internalType":"string","name":"key","type":"string"},{"internalType":"address[]","name":"value","type":"address[]"}],"internalType":"struct IGmxOrderCallbackReceiver.AddressArrayKeyValue[]","name":"arrayItems","type":"tuple[]"}],"internalType":"struct IGmxOrderCallbackReceiver.AddressItems","name":"addressItems","type":"tuple"},{"components":[{"components":[{"internalType":"string","name":"key","type":"string"},{"internalType":"uint256","name":"value","type":"uint256"}],"internalType":"struct IGmxOrderCallbackReceiver.UintKeyValue[]","name":"items","type":"tuple[]"},{"components":[{"internalType":"string","name":"key","type":"string"},{"internalType":"uint256[]","name":"value","type":"uint256[]"}],"internalType":"struct IGmxOrderCallbackReceiver.UintArrayKeyValue[]","name":"arrayItems","type":"tuple[]"}],"internalType":"struct IGmxOrderCallbackReceiver.UintItems","name":"uintItems","type":"tuple"},{"components":[{"components":[{"internalType":"string","name":"key","type":"string"},{"internalType":"int256","name":"value","type":"int256"}],"internalType":"struct IGmxOrderCallbackReceiver.IntKeyValue[]","name":"items","type":"tuple[]"},{"components":[{"internalType":"string","name":"key","type":"string"},{"internalType":"int256[]","name":"value","type":"int256[]"}],"internalType":"struct IGmxOrderCallbackReceiver.IntArrayKeyValue[]","name":"arrayItems","type":"tuple[]"}],"internalType":"struct IGmxOrderCallbackReceiver.IntItems","name":"intItems","type":"tuple"},{"components":[{"components":[{"internalType":"string","name":"key","type":"string"},{"internalType":"bool","name":"value","type":"bool"}],"internalType":"struct IGmxOrderCallbackReceiver.BoolKeyValue[]","name":"items","type":"tuple[]"},{"components":[{"internalType":"string","name":"key","type":"string"},{"internalType":"bool[]","name":"value","type":"bool[]"}],"internalType":"struct IGmxOrderCallbackReceiver.BoolArrayKeyValue[]","name":"arrayItems","type":"tuple[]"}],"internalType":"struct IGmxOrderCallbackReceiver.BoolItems","name":"boolItems","type":"tuple"},{"components":[{"components":[{"internalType":"string","name":"key","type":"string"},{"internalType":"bytes32","name":"value","type":"bytes32"}],"internalType":"struct IGmxOrderCallbackReceiver.Bytes32KeyValue[]","name":"items","type":"tuple[]"},{"components":[{"internalType":"string","name":"key","type":"string"},{"internalType":"bytes32[]","name":"value","type":"bytes32[]"}],"internalType":"struct IGmxOrderCallbackReceiver.Bytes32ArrayKeyValue[]","name":"arrayItems","type":"tuple[]"}],"internalType":"struct IGmxOrderCallbackReceiver.Bytes32Items","name":"bytes32Items","type":"tuple"},{"components":[{"components":[{"internalType":"string","name":"key","type":"string"},{"internalType":"bytes","name":"value","type":"bytes"}],"internalType":"struct IGmxOrderCallbackReceiver.BytesKeyValue[]","name":"items","type":"tuple[]"},{"components":[{"internalType":"string","name":"key","type":"string"},{"internalType":"bytes[]","name":"value","type":"bytes[]"}],"internalType":"struct IGmxOrderCallbackReceiver.BytesArrayKeyValue[]","name":"arrayItems","type":"tuple[]"}],"internalType":"struct IGmxOrderCallbackReceiver.BytesItems","name":"bytesItems","type":"tuple"},{"components":[{"components":[{"internalType":"string","name":"key","type":"string"},{"internalType":"string","name":"value","type":"string"}],"internalType":"struct IGmxOrderCallbackReceiver.StringKeyValue[]","name":"items","type":"tuple[]"},{"components":[{"internalType":"string","name":"key","type":"string"},{"internalType":"string[]","name":"value","type":"string[]"}],"internalType":"struct IGmxOrderCallbackReceiver.StringArrayKeyValue[]","name":"arrayItems","type":"tuple[]"}],"internalType":"struct IGmxOrderCallbackReceiver.StringItems","name":"stringItems","type":"tuple"}],"internalType":"struct IGmxOrderCallbackReceiver.EventLogData","name":"","type":"tuple"},{"components":[{"components":[{"components":[{"internalType":"string","name":"key","type":"string"},{"internalType":"address","name":"value","type":"address"}],"internalType":"struct IGmxOrderCallbackReceiver.AddressKeyValue[]","name":"items","type":"tuple[]"},{"components":[{"internalType":"string","name":"key","type":"string"},{"internalType":"address[]","name":"value","type":"address[]"}],"internalType":"struct IGmxOrderCallbackReceiver.AddressArrayKeyValue[]","name":"arrayItems","type":"tuple[]"}],"internalType":"struct IGmxOrderCallbackReceiver.AddressItems","name":"addressItems","type":"tuple"},{"components":[{"components":[{"internalType":"string","name":"key","type":"string"},{"internalType":"uint256","name":"value","type":"uint256"}],"internalType":"struct IGmxOrderCallbackReceiver.UintKeyValue[]","name":"items","type":"tuple[]"},{"components":[{"internalType":"string","name":"key","type":"string"},{"internalType":"uint256[]","name":"value","type":"uint256[]"}],"internalType":"struct IGmxOrderCallbackReceiver.UintArrayKeyValue[]","name":"arrayItems","type":"tuple[]"}],"internalType":"struct IGmxOrderCallbackReceiver.UintItems","name":"uintItems","type":"tuple"},{"components":[{"components":[{"internalType":"string","name":"key","type":"string"},{"internalType":"int256","name":"value","type":"int256"}],"internalType":"struct IGmxOrderCallbackReceiver.IntKeyValue[]","name":"items","type":"tuple[]"},{"components":[{"internalType":"string","name":"key","type":"string"},{"internalType":"int256[]","name":"value","type":"int256[]"}],"internalType":"struct IGmxOrderCallbackReceiver.IntArrayKeyValue[]","name":"arrayItems","type":"tuple[]"}],"internalType":"struct IGmxOrderCallbackReceiver.IntItems","name":"intItems","type":"tuple"},{"components":[{"components":[{"internalType":"string","name":"key","type":"string"},{"internalType":"bool","name":"value","type":"bool"}],"internalType":"struct IGmxOrderCallbackReceiver.BoolKeyValue[]","name":"items","type":"tuple[]"},{"components":[{"internalType":"string","name":"key","type":"string"},{"internalType":"bool[]","name":"value","type":"bool[]"}],"internalType":"struct IGmxOrderCallbackReceiver.BoolArrayKeyValue[]","name":"arrayItems","type":"tuple[]"}],"internalType":"struct IGmxOrderCallbackReceiver.BoolItems","name":"boolItems","type":"tuple"},{"components":[{"components":[{"internalType":"string","name":"key","type":"string"},{"internalType":"bytes32","name":"value","type":"bytes32"}],"internalType":"struct IGmxOrderCallbackReceiver.Bytes32KeyValue[]","name":"items","type":"tuple[]"},{"components":[{"internalType":"string","name":"key","type":"string"},{"internalType":"bytes32[]","name":"value","type":"bytes32[]"}],"internalType":"struct IGmxOrderCallbackReceiver.Bytes32ArrayKeyValue[]","name":"arrayItems","type":"tuple[]"}],"internalType":"struct IGmxOrderCallbackReceiver.Bytes32Items","name":"bytes32Items","type":"tuple"},{"components":[{"components":[{"internalType":"string","name":"key","type":"string"},{"internalType":"bytes","name":"value","type":"bytes"}],"internalType":"struct IGmxOrderCallbackReceiver.BytesKeyValue[]","name":"items","type":"tuple[]"},{"components":[{"internalType":"string","name":"key","type":"string"},{"internalType":"bytes[]","name":"value","type":"bytes[]"}],"internalType":"struct IGmxOrderCallbackReceiver.BytesArrayKeyValue[]","name":"arrayItems","type":"tuple[]"}],"internalType":"struct IGmxOrderCallbackReceiver.BytesItems","name":"bytesItems","type":"tuple"},{"components":[{"components":[{"internalType":"string","name":"key","type":"string"},{"internalType":"string","name":"value","type":"string"}],"internalType":"struct IGmxOrderCallbackReceiver.StringKeyValue[]","name":"items","type":"tuple[]"},{"components":[{"internalType":"string","name":"key","type":"string"},{"internalType":"string[]","name":"value","type":"string[]"}],"internalType":"struct IGmxOrderCallbackReceiver.StringArrayKeyValue[]","name":"arrayItems","type":"tuple[]"}],"internalType":"struct IGmxOrderCallbackReceiver.StringItems","name":"stringItems","type":"tuple"}],"internalType":"struct IGmxOrderCallbackReceiver.EventLogData","name":"","type":"tuple"}],"name":"afterOrderFrozen","outputs":[],"stateMutability":"nonpayable","type":"function"},{"inputs":[{"internalType":"bytes32","name":"orderKey","type":"bytes32"}],"name":"cancelOrder","outputs":[],"stateMutability":"nonpayable","type":"function"},{"inputs":[{"internalType":"bytes32","name":"pk","type":"bytes32"}],"name":"createCloseOrder","outputs":[{"internalType":"bytes32","name":"orderKey","type":"bytes32"}],"stateMutability":"payable","type":"function"},{"inputs":[{"internalType":"bytes32","name":"marketId","type":"bytes32"},{"internalType":"uint256","name":"collateralUsdc","type":"uint256"},{"internalType":"uint256","name":"triggerPrice8","type":"uint256"},{"internalType":"uint256","name":"leverage","type":"uint256"},{"internalType":"bool","name":"isLong","type":"bool"}],"name":"createLimitOrder","outputs":[{"internalType":"bytes32","name":"orderKey","type":"bytes32"}],"stateMutability":"payable","type":"function"},{"inputs":[{"internalType":"bytes32","name":"marketId","type":"bytes32"},{"internalType":"uint256","name":"collateralUsdc","type":"uint256"},{"internalType":"uint256","name":"indexPrice8","type":"uint256"},{"internalType":"uint256","name":"leverage","type":"uint256"},{"internalType":"bool","name":"isLong","type":"bool"}],"name":"createOpenOrder","outputs":[{"internalType":"bytes32","name":"orderKey","type":"bytes32"}],"stateMutability":"payable","type":"function"},{"inputs":[{"internalType":"bytes32","name":"pk","type":"bytes32"},{"internalType":"uint256","name":"triggerPrice8","type":"uint256"}],"name":"createStopLoss","outputs":[{"internalType":"bytes32","name":"orderKey","type":"bytes32"}],"stateMutability":"payable","type":"function"},{"inputs":[{"internalType":"bytes32","name":"pk","type":"bytes32"},{"internalType":"uint256","name":"triggerPrice8","type":"uint256"}],"name":"createTakeProfit","outputs":[{"internalType":"bytes32","name":"orderKey","type":"bytes32"}],"stateMutability":"payable","type":"function"},{"inputs":[],"name":"dataStore","outputs":[{"internalType":"address","name":"","type":"address"}],"stateMutability":"view","type":"function"},{"inputs":[],"name":"exchangeRouter","outputs":[{"internalType":"contract IGmxExchangeRouter","name":"","type":"address"}],"stateMutability":"view","type":"function"},{"inputs":[],"name":"execFee","outputs":[{"internalType":"uint256","name":"","type":"uint256"}],"stateMutability":"view","type":"function"},{"inputs":[{"internalType":"bytes32","name":"orderKey","type":"bytes32"}],"name":"executeOrder","outputs":[],"stateMutability":"nonpayable","type":"function"},{"inputs":[{"internalType":"address","name":"vaultAddr","type":"address"},{"internalType":"bytes32","name":"staleOrderKey","type":"bytes32"}],"name":"forceVaultReset","outputs":[],"stateMutability":"nonpayable","type":"function"},{"inputs":[{"internalType":"bytes32","name":"pk","type":"bytes32"}],"name":"getPositionValueUsd","outputs":[{"internalType":"uint256","name":"","type":"uint256"}],"stateMutability":"view","type":"function"},{"inputs":[{"internalType":"bytes32","name":"","type":"bytes32"}],"name":"gmxKeyToRyexKey","outputs":[{"internalType":"bytes32","name":"","type":"bytes32"}],"stateMutability":"view","type":"function"},{"inputs":[{"internalType":"bytes32","name":"","type":"bytes32"}],"name":"gmxMarketOf","outputs":[{"internalType":"address","name":"","type":"address"}],"stateMutability":"view","type":"function"},{"inputs":[],"name":"gmxOrderHandler","outputs":[{"internalType":"address","name":"","type":"address"}],"stateMutability":"view","type":"function"},{"inputs":[{"internalType":"address","name":"vault","type":"address"},{"internalType":"bytes32","name":"marketId","type":"bytes32"},{"internalType":"bool","name":"isLong","type":"bool"}],"name":"gmxPositionData","outputs":[{"components":[{"internalType":"bool","name":"exists","type":"bool"},{"internalType":"uint256","name":"sizeInUsd","type":"uint256"},{"internalType":"uint256","name":"collateralAmount","type":"uint256"},{"internalType":"uint256","name":"entryPrice8","type":"uint256"}],"internalType":"struct IGmxAdapter.GmxPositionData","name":"data","type":"tuple"}],"stateMutability":"view","type":"function"},{"inputs":[],"name":"gmxRouter","outputs":[{"internalType":"address","name":"","type":"address"}],"stateMutability":"view","type":"function"},{"inputs":[],"name":"lastOrderKey","outputs":[{"internalType":"bytes32","name":"","type":"bytes32"}],"stateMutability":"view","type":"function"},{"inputs":[{"internalType":"bytes32","name":"","type":"bytes32"}],"name":"marketOracle","outputs":[{"internalType":"contract IPriceOracle","name":"","type":"address"}],"stateMutability":"view","type":"function"},{"inputs":[],"name":"orderVault","outputs":[{"internalType":"address","name":"","type":"address"}],"stateMutability":"view","type":"function"},{"inputs":[{"internalType":"bytes32","name":"","type":"bytes32"}],"name":"orders","outputs":[{"internalType":"address","name":"vault","type":"address"},{"internalType":"uint8","name":"kind","type":"uint8"},{"internalType":"bytes32","name":"positionKey","type":"bytes32"},{"internalType":"bytes32","name":"gmxKey","type":"bytes32"},{"internalType":"bool","name":"executed","type":"bool"}],"stateMutability":"view","type":"function"},{"inputs":[],"name":"owner","outputs":[{"internalType":"address","name":"","type":"address"}],"stateMutability":"view","type":"function"},{"inputs":[{"internalType":"address","name":"account","type":"address"},{"internalType":"bytes32","name":"marketId","type":"bytes32"},{"internalType":"bool","name":"isLong","type":"bool"}],"name":"positionKey","outputs":[{"internalType":"bytes32","name":"","type":"bytes32"}],"stateMutability":"pure","type":"function"},{"inputs":[{"internalType":"bytes32","name":"","type":"bytes32"}],"name":"positions","outputs":[{"internalType":"address","name":"vault","type":"address"},{"internalType":"uint256","name":"collateral","type":"uint256"},{"internalType":"uint256","name":"entryPrice8","type":"uint256"},{"internalType":"bytes32","name":"marketId","type":"bytes32"},{"internalType":"uint256","name":"leverage","type":"uint256"},{"internalType":"uint256","name":"gmxSizeUsd","type":"uint256"},{"internalType":"bool","name":"active","type":"bool"},{"internalType":"bool","name":"isLong","type":"bool"}],"stateMutability":"view","type":"function"},{"inputs":[],"name":"reader","outputs":[{"internalType":"contract IGmxReader","name":"","type":"address"}],"stateMutability":"view","type":"function"},{"inputs":[{"internalType":"bytes32","name":"pk","type":"bytes32"},{"internalType":"uint256","name":"withdrawUsdc","type":"uint256"}],"name":"reducePosition","outputs":[{"internalType":"uint256","name":"paidUsdc","type":"uint256"}],"stateMutability":"nonpayable","type":"function"},{"inputs":[{"internalType":"bytes32","name":"marketId","type":"bytes32"},{"internalType":"contract IPriceOracle","name":"oracle","type":"address"},{"internalType":"address","name":"gmxMarket","type":"address"}],"name":"registerMarket","outputs":[],"stateMutability":"nonpayable","type":"function"},{"inputs":[],"name":"renounceOwnership","outputs":[],"stateMutability":"nonpayable","type":"function"},{"inputs":[{"internalType":"bytes32","name":"ryexOrderKey","type":"bytes32"}],"name":"requestCancellation","outputs":[],"stateMutability":"nonpayable","type":"function"},{"inputs":[{"internalType":"uint256","name":"max_","type":"uint256"},{"internalType":"uint256","name":"min_","type":"uint256"}],"name":"setAcceptablePrices","outputs":[],"stateMutability":"nonpayable","type":"function"},{"inputs":[{"internalType":"uint256","name":"fee","type":"uint256"}],"name":"setExecFee","outputs":[],"stateMutability":"nonpayable","type":"function"},{"inputs":[{"internalType":"address","name":"handler_","type":"address"}],"name":"setGmxOrderHandler","outputs":[],"stateMutability":"nonpayable","type":"function"},{"inputs":[{"internalType":"bytes32","name":"gmxKey","type":"bytes32"}],"name":"settleGmxOrder","outputs":[],"stateMutability":"nonpayable","type":"function"},{"inputs":[{"internalType":"address","name":"token","type":"address"},{"internalType":"address","name":"to","type":"address"},{"internalType":"uint256","name":"amount","type":"uint256"}],"name":"sweep","outputs":[],"stateMutability":"nonpayable","type":"function"},{"inputs":[{"internalType":"address","name":"newOwner","type":"address"}],"name":"transferOwnership","outputs":[],"stateMutability":"nonpayable","type":"function"},{"inputs":[],"name":"usdc","outputs":[{"internalType":"contract IERC20","name":"","type":"address"}],"stateMutability":"view","type":"function"},{"stateMutability":"payable","type":"receive"}],"evm":{"bytecode":{"linkReferences":{},"object":"61014060405266038d7ea4c68000600155600019600255600160035560405162004f5938038062004f598339810160408190526200003d91620002dc565b806001600160a01b0381166200006e57604051631e4fbdf760e01b8152600060048201526024015b60405180910390fd5b6200007981620000df565b506001600160a01b03888116608081905288821660a05287821660c05286821660e0528582166101005284821661012052600b80546001600160a01b03191692851692909217909155620000d190876000196200012f565b50505050505050506200039d565b600080546001600160a01b038381166001600160a01b0319831681178455604051919092169283917f8be0079c531659141344cd1fd0a4f28419497f9722a3daafe3b4186f6b6457e09190a35050565b604080516001600160a01b038416602482015260448082018490528251808303909101815260649091019091526020810180516001600160e01b0390811663095ea7b360e01b17909152620001899085908390620001fb16565b620001f557604080516001600160a01b038516602482015260006044808301919091528251808303909101815260649091019091526020810180516001600160e01b0390811663095ea7b360e01b17909152620001e99186916200024d16565b620001f584826200024d565b50505050565b6000806000806020600086516020880160008a5af192503d91506000519050828015620002435750811562000234578060011462000243565b6000866001600160a01b03163b115b9695505050505050565b600080602060008451602086016000885af18062000271576040513d6000823e3d81fd5b50506000513d915081156200028b57806001141562000298565b6001600160a01b0384163b155b15620001f557604051635274afe760e01b81526001600160a01b038516600482015260240162000065565b6001600160a01b0381168114620002d957600080fd5b50565b600080600080600080600080610100898b031215620002fa57600080fd5b88516200030781620002c3565b60208a01519098506200031a81620002c3565b60408a01519097506200032d81620002c3565b60608a01519096506200034081620002c3565b60808a01519095506200035381620002c3565b60a08a01519094506200036681620002c3565b60c08a01519093506200037981620002c3565b60e08a01519092506200038c81620002c3565b809150509295985092959890939650565b60805160a05160c05160e0516101005161012051614ad2620004876000396000818161061f01528181610d2b01528181611f71015261212501526000818161084b01528181610c7b01528181610d5d0152818161206c015261215701526000818161073f015281816129740152612a34015260006105cb01526000818161035e01528181610bf30152612b8c01526000818161045301528181610cc90152818161166c01528181611708015281816118ce0152818161197c01528181611ab0015281816120c3015281816122d601528181612376015281816127f10152612a030152614ad26000f3fe60806040526004361061024a5760003560e01c8063646e3ff4116101395780638da5cb5b116100b6578063d4fc42c61161007a578063d4fc42c614610839578063d8bbbe421461086d578063e59feeef1461088d578063f2fde38b146108ad578063fa37e576146108cd578063ffaf393f146108fa57600080fd5b80638da5cb5b1461070f57806393845e461461072d5780639c3f1e9014610761578063b5b0862f146107f0578063c8fe528d1461080357600080fd5b80637489ec23116100fd5780637489ec231461067c57806376197ba31461069c57806383fc34cf146106bc578063846ce088146106dc5780638c509fd5146106fc57600080fd5b8063646e3ff4146105ed578063660d0d671461060d57806369077bb214610641578063715018a61461065457806372525e231461066957600080fd5b806334b3c1e4116101c7578063511ea1881161018b578063511ea188146104b5578063514ea4bf146104cb5780635df970ef1461058357806362c0676714610599578063634e3180146105b957600080fd5b806334b3c1e41461040b5780633db12f8f146104215780633e413bee14610441578063453e5a2c146104755780634cb7c3191461049557600080fd5b80631c89fea91161020e5780631c89fea91461032c5780631cb858181461034c5780631ef75602146103805780632f94cdd1146103965780633157d9c7146103b657600080fd5b8063049b76c41461025657806305e4c29214610278578063066bf5a91461029857806308255408146102cb5780630e177ccc146102de57600080fd5b3661025157005b600080fd5b34801561026257600080fd5b50610276610271366004612ed0565b61091a565b005b34801561028457600080fd5b50610276610293366004612efe565b610981565b3480156102a457600080fd5b506102b86102b3366004612f38565b6109e8565b6040519081526020015b60405180910390f35b6102b86102d9366004612f7a565b610a3c565b3480156102ea57600080fd5b506103146102f9366004612ed0565b6005602052600090815260409020546001600160a01b031681565b6040516001600160a01b0390911681526020016102c2565b34801561033857600080fd5b50610276610347366004612fc7565b610a9f565b34801561035857600080fd5b506103147f000000000000000000000000000000000000000000000000000000000000000081565b34801561038c57600080fd5b506102b860025481565b3480156103a257600080fd5b506102766103b1366004612ed0565b610ab2565b3480156103c257600080fd5b506103d66103d1366004612f38565b610c2a565b6040516102c2919081511515815260208083015190820152604080830151908201526060918201519181019190915260800190565b34801561041757600080fd5b506102b860035481565b34801561042d57600080fd5b5061027661043c366004612ed0565b610e1a565b34801561044d57600080fd5b506103147f000000000000000000000000000000000000000000000000000000000000000081565b34801561048157600080fd5b50610276610490366004612fe9565b610e27565b3480156104a157600080fd5b506102b86104b0366004612ed0565b610eb1565b3480156104c157600080fd5b506102b8600a5481565b3480156104d757600080fd5b5061053a6104e6366004612ed0565b600660208190526000918252604090912080546001820154600283015460038401546004850154600586015495909601546001600160a01b0390941695929491939092919060ff8082169161010090041688565b604080516001600160a01b0390991689526020890197909752958701949094526060860192909252608085015260a0840152151560c0830152151560e0820152610100016102c2565b34801561058f57600080fd5b506102b860015481565b3480156105a557600080fd5b506102766105b4366004613020565b61105b565b3480156105c557600080fd5b506103147f000000000000000000000000000000000000000000000000000000000000000081565b3480156105f957600080fd5b50610276610608366004612ed0565b61111e565b34801561061957600080fd5b506103147f000000000000000000000000000000000000000000000000000000000000000081565b6102b861064f366004612fc7565b611294565b34801561066057600080fd5b506102766112ab565b6102b8610677366004612ed0565b6112bf565b34801561068857600080fd5b50610276610697366004612ed0565b6114c9565b3480156106a857600080fd5b506102b86106b7366004612fc7565b611523565b3480156106c857600080fd5b506102766106d7366004614381565b61173b565b3480156106e857600080fd5b506102766106f73660046143ed565b611773565b6102b861070a366004612fc7565b61179d565b34801561071b57600080fd5b506000546001600160a01b0316610314565b34801561073957600080fd5b506103147f000000000000000000000000000000000000000000000000000000000000000081565b34801561076d57600080fd5b506107ba61077c366004612ed0565b60076020526000908152604090208054600182015460028301546003909301546001600160a01b0383169360ff600160a01b90940484169390911685565b604080516001600160a01b03909616865260ff90941660208601529284019190915260608301521515608082015260a0016102c2565b6102b86107fe366004612f7a565b6117ab565b34801561080f57600080fd5b5061031461081e366004612ed0565b6004602052600090815260409020546001600160a01b031681565b34801561084557600080fd5b506103147f000000000000000000000000000000000000000000000000000000000000000081565b34801561087957600080fd5b50610276610888366004614381565b6117bc565b34801561089957600080fd5b50600b54610314906001600160a01b031681565b3480156108b957600080fd5b506102766108c83660046143ed565b6117cf565b3480156108d957600080fd5b506102b86108e8366004612ed0565b60086020526000908152604090205481565b34801561090657600080fd5b50610276610915366004614381565b61180d565b610922611820565b600081815260076020526040902080546001600160a01b03161580159061094e5750600381015460ff16155b6109735760405162461bcd60e51b815260040161096a9061440a565b60405180910390fd5b61097d828261184d565b5050565b610989611820565b6040516341fcf16360e01b8152600481018290526001600160a01b038316906341fcf163906024015b600060405180830381600087803b1580156109cc57600080fd5b505af11580156109e0573d6000803e3d6000fd5b505050505050565b6040516bffffffffffffffffffffffff19606085901b1660208201526034810183905281151560f81b60548201526000906055016040516020818303038152906040528051906020012090505b9392505050565b6000808411610a875760405162461bcd60e51b8152602060048201526017602482015276474d583a207a65726f207472696767657220707269636560481b604482015260640161096a565b610a95868686868887611a16565b9695505050505050565b610aa7611820565b600291909155600355565b600081815260076020908152604091829020825160a08101845281546001600160a01b03811680835260ff600160a01b90920482169483019490945260018301549482019490945260028201546060820152600390910154909216151560808301523314610b325760405162461bcd60e51b815260040161096a90614432565b806080015115610b7c5760405162461bcd60e51b815260206004820152601560248201527411d3560e88185b1c9958591e48195e1958dd5d1959605a1b604482015260640161096a565b6060810151610bd75760405162461bcd60e51b815260206004820152602160248201527f474d583a206e6f20474d58206b657920286d6f636b2d6f6e6c79206f726465726044820152602960f81b606482015260840161096a565b6060810151604051637489ec2360e01b815260048101919091527f00000000000000000000000000000000000000000000000000000000000000006001600160a01b031690637489ec23906024016109b2565b610c5760405180608001604052806000151581526020016000815260200160008152602001600081525090565b6000838152600560205260409020546001600160a01b03168015801590610ca657507f00000000000000000000000000000000000000000000000000000000000000006001600160a01b031615155b15610e0657604080513060208201526001600160a01b03838116928201929092527f00000000000000000000000000000000000000000000000000000000000000009091166060820152831515608082015260009060a00160408051601f198184030181529082905280516020909101206307d47a8b60e11b82526001600160a01b037f000000000000000000000000000000000000000000000000000000000000000081166004840152602483018290529092507f00000000000000000000000000000000000000000000000000000000000000001690630fa8f516906044016101a060405180830381865afa925050508015610dc1575060408051601f3d908101601f19168201909252610dbe918101906144a9565b60015b610dd657610dd186868686611dcf565b610dff565b602090810180515115158552805151918501919091525160409081015190840152600060608401525b5050610a35565b610e1285858585611dcf565b509392505050565b610e22611820565b600155565b610e2f611820565b600083815260046020908152604080832080546001600160a01b038781166001600160a01b0319928316811790935560058552948390208054958716959091168517905581519081529182019290925284917f393bf4ff2983ac2030da8f04a013ff4ac3176d2440549a516edff6f881c4db3b910160405180910390a2505050565b60008181526006602081815260408084208151610100808201845282546001600160a01b031682526001830154948201949094526002820154928101929092526003810154606083015260048101546080830152600581015460a08301529092015460ff80821615801560c08601529290910416151560e083015280610f3957506040810151155b15610f475750600092915050565b6000610f568260200151611e97565b60608301516000908152600460208181526040808420548151634c6afee560e11b8152915195965093946001600160a01b03909416936398d5fdca9382810193928290030181865afa158015610fb0573d6000803e3d6000fd5b505050506040513d601f19601f82011682018060405250810190610fd491906145aa565b905060008360400151905060008460e00151610ff957610ff483836145d9565b611003565b61100382846145d9565b9050600082828760800151876110199190614600565b6110239190614600565b61102d9190614646565b9050600061103b8287614674565b90506000811361104c57600061104e565b805b9998505050505050505050565b611063611820565b6001600160a01b038316611105576000826001600160a01b03168260405160006040518083038185875af1925050503d80600081146110be576040519150601f19603f3d011682016040523d82523d6000602084013e6110c3565b606091505b50509050806110ff5760405162461bcd60e51b8152602060048201526008602482015267195d1a081cd95b9960c21b604482015260640161096a565b50505050565b6111196001600160a01b0384168383611ea8565b505050565b600081815260086020526040902054806111705760405162461bcd60e51b8152602060048201526013602482015272474d583a20756e6b6e6f776e20676d784b657960681b604482015260640161096a565b600081815260076020526040902080546001600160a01b03161580159061119c5750600381015460ff16155b6111b85760405162461bcd60e51b815260040161096a9061440a565b6111c183611f07565b1561120e5760405162461bcd60e51b815260206004820152601860248201527f474d583a206f72646572207374696c6c2070656e64696e670000000000000000604482015260640161096a565b60018101546000908152600660208190526040822060038101549181015490929161124091610100900460ff1661204a565b8354909150600160a01b900460ff16600103611274578061126a5761126584846121e3565b61128d565b611265848461184d565b8061128357611265848461184d565b61128d84846121e3565b5050505050565b60006112a283836001612411565b90505b92915050565b6112b3611820565b6112bd6000612709565b565b60008181526006602081815260408084208151610100808201845282546001600160a01b031682526001830154948201949094526002820154928101929092526003810154606083015260048101546080830152600581015460a08301529092015460ff808216151560c085018190529290910416151560e083015261137a5760405162461bcd60e51b815260206004820152601060248201526f23a6ac1d103737903837b9b4ba34b7b760811b604482015260640161096a565b60608101516000908152600560205260408120546001600160a01b03169081156113d55760008360e001516113b1576002546113b5565b6003545b90506113d183600460008760a001516000868a60e00151612759565b9150505b6113de33612c6b565b6040805160a081018252338152600260208083018281528385018b81526060850188815260006080870181815289825260079095529690962094518554925160ff16600160a01b026001600160a81b03199093166001600160a01b03919091161791909117845551600184015592519082015590516003909101805491151560ff19909216919091179055935080156114835760008181526008602052604090208490555b604080516002815260208101839052339186917f540c54bd4517b6e7f64d6f6b3409494c1882f2141f71895f5294afdb60931ff8910160405180910390a3505050919050565b6114d1611820565b600081815260076020526040902080546001600160a01b0316158015906114fd5750600381015460ff16155b6115195760405162461bcd60e51b815260040161096a9061440a565b61097d82826121e3565b600082815260066020819052604082209081015460ff166115795760405162461bcd60e51b815260206004820152601060248201526f23a6ac1d103737903837b9b4ba34b7b760811b604482015260640161096a565b80546001600160a01b031633146115a25760405162461bcd60e51b815260040161096a90614432565b60006115b56115b086610eb1565b612cd7565b90506000811180156115c75750808411155b6116095760405162461bcd60e51b8152602060048201526013602482015272474d583a20657863656564732065717569747960681b604482015260640161096a565b60008185846001015461161c9190614694565b61162691906146ab565b9050826001015481111561163b575060018201545b8083600101600082825461164f91906146bf565b90915550506040516370a0823160e01b81523060048201526000907f00000000000000000000000000000000000000000000000000000000000000006001600160a01b0316906370a0823190602401602060405180830381865afa1580156116bb573d6000803e3d6000fd5b505050506040513d601f19601f820116820180604052508101906116df91906145aa565b90508086116116ee57856116f0565b805b94508415611731578354611731906001600160a01b037f00000000000000000000000000000000000000000000000000000000000000008116911687611ea8565b5050505092915050565b611743612ce8565b60405183907fce2584fe4322fcada2efbb32d03eebd6c5a7b73784a90fd6f527e2344a3be6bb90600090a2505050565b61177b611820565b600b80546001600160a01b0319166001600160a01b0392909216919091179055565b60006112a283836000612411565b6000610a9586868686600087611a16565b6117c4612ce8565b611119836000612d4b565b6117d7611820565b6001600160a01b03811661180157604051631e4fbdf760e01b81526000600482015260240161096a565b61180a81612709565b50565b611815612ce8565b611119836001612d4b565b6000546001600160a01b031633146112bd5760405163118cdaa760e01b815233600482015260240161096a565b60038101805460ff191660019081179091558154600160a01b900460ff16900361189957600181810154600090815260066020819052604090912001805460ff191690911790556119a8565b60006118ab6115b08360010154610eb1565b6040516370a0823160e01b81523060048201529091506000906001600160a01b037f000000000000000000000000000000000000000000000000000000000000000016906370a0823190602401602060405180830381865afa158015611915573d6000803e3d6000fd5b505050506040513d601f19601f8201168201806040525081019061193991906145aa565b905080821115611947578091505b6001830154600090815260066020819052604090912001805460ff1916905581156119a55782546119a5906001600160a01b037f00000000000000000000000000000000000000000000000000000000000000008116911684611ea8565b50505b817fe7ce370cc0425e330fd66bf98129d75f24695dba59b19d1df832da3c809327c382600201546040516119de91815260200190565b60405180910390a2805460405163a83e12bd60e01b8152600481018490526001600160a01b039091169063a83e12bd906024016109b2565b6000808611611a5e5760405162461bcd60e51b815260206004820152601460248201527311d3560e881e995c9bc818dbdb1b185d195c985b60621b604482015260640161096a565b6001841015611aa35760405162461bcd60e51b8152602060048201526011602482015270474d583a20626164206c6576657261676560781b604482015260640161096a565b611ad86001600160a01b037f000000000000000000000000000000000000000000000000000000000000000016333089612e26565b600084611aef8869d3c21bcecceda1000000614694565b611af99190614694565b6000898152600560205260408120549192506001600160a01b03909116908115611bc657600080600088600003611b4a57600292506000915087611b3f57600354611b43565b6002545b9050611bb1565b60039250611b628969021e19e0c9bab2400000614694565b91508715611b8c57612710611b786064826146d2565b611b829084614694565b611b4391906146ab565b612710611b9a6064826146bf565b611ba49084614694565b611bae91906146ab565b90505b611bc085848e8986868e612759565b93505050505b6000611bd3338c886109e8565b9050604051806101000160405280336001600160a01b031681526020018b81526020018a81526020018c81526020018981526020018581526020016000151581526020018715158152506006600083815260200190815260200160002060008201518160000160006101000a8154816001600160a01b0302191690836001600160a01b031602179055506020820151816001015560408201518160020155606082015181600301556080820151816004015560a0820151816005015560c08201518160060160006101000a81548160ff02191690831515021790555060e08201518160060160016101000a81548160ff021916908315150217905550905050611cdb33612c6b565b6040805160a081018252338152600160208083018281528385018781526060850189815260006080870181815289825260079095529690962094518554925160ff16600160a01b026001600160a81b03199093166001600160a01b03919091161791909117845551918301919091559151600282015590516003909101805491151560ff1990921691909117905594508115611d835760008281526008602052604090208590555b604080516001815260208101849052339187917f540c54bd4517b6e7f64d6f6b3409494c1882f2141f71895f5294afdb60931ff8910160405180910390a3505050509695505050505050565b6000611ddc8585856109e8565b6000818152600660208181526040928390208351610100808201865282546001600160a01b031682526001830154938201939093526002820154948101949094526003810154606085015260048101546080850152600581015460a08501529091015460ff808216151560c085018181529390920416151560e084015285525191925090611e6b576000611e71565b8060a001515b602080850191909152810151604080850191909152015160609092019190915250505050565b60006112a564e8d4a5100083614694565b6040516001600160a01b0383811660248301526044820183905261111991859182169063a9059cbb906064015b604051602081830303815290604052915060e01b6020820180516001600160e01b038381831617835250505050612e5f565b604080517f2125b00bb3668454c784fba74370d25c7b4178eab20f5346a5ff1c06387445f860208083019190915230828401528251808303840181526060830190935282519201919091206084820181905260a48201839052600091829081906001600160a01b037f0000000000000000000000000000000000000000000000000000000000000000169060c40160408051601f198184030181529181526020820180516001600160e01b0316632475100f60e21b17905251611fca9190614709565b600060405180830381855afa9150503d8060008114612005576040519150601f19603f3d011682016040523d82523d6000602084013e61200a565b606091505b509150915081158061201d575060208151105b1561202d57506000949350505050565b808060200190518101906120419190614725565b95945050505050565b6000828152600560205260408120546001600160a01b031680158061209657507f00000000000000000000000000000000000000000000000000000000000000006001600160a01b0316155b156120a55760009150506112a5565b604080513060208201526001600160a01b03838116928201929092527f00000000000000000000000000000000000000000000000000000000000000009091166060820152831515608082015260009060a00160408051601f198184030181529082905280516020909101206307d47a8b60e11b82526001600160a01b037f000000000000000000000000000000000000000000000000000000000000000081166004840152602483018290529092507f00000000000000000000000000000000000000000000000000000000000000001690630fa8f516906044016101a060405180830381865afa9250505080156121bb575060408051601f3d908101601f191682019092526121b8918101906144a9565b60015b6121ca576000925050506112a5565b6020015151151592506112a5915050565b505092915050565b60038101805460ff191660019081179091558154600160a01b900460ff1690036123a35760018181015460008181526006602081815260408084208151610100808201845282546001600160a01b03808216845299840180548488015260028501805485880152600386018054606087015260048088018054608089015260058901805460a08a0152898d01805460ff808216151560c08d0152998104909916151560e08b01529e8e529b909a526001600160a01b03199094169096559089905588905592879055938690559385905561ffff1990921690945592516370a0823160e01b815230938101939093529290917f0000000000000000000000000000000000000000000000000000000000000000909116906370a0823190602401602060405180830381865afa15801561231f573d6000803e3d6000fd5b505050506040513d601f19601f8201168201806040525081019061234391906145aa565b905060008183602001511161235c57826020015161235e565b815b9050801561239f57835461239f906001600160a01b037f00000000000000000000000000000000000000000000000000000000000000008116911683611ea8565b5050505b817f0b751d7bc7e902e8c7f5ae3b5a5cfaf6469fadd348681b2cdf779031fb629adc82600201546040516123d991815260200190565b60405180910390a280546040516341fcf16360e01b8152600481018490526001600160a01b03909116906341fcf163906024016109b2565b600080831161245c5760405162461bcd60e51b8152602060048201526017602482015276474d583a207a65726f207472696767657220707269636560481b604482015260640161096a565b6000848152600660208181526040928390208351610100808201865282546001600160a01b031682526001830154938201939093526002820154948101949094526003810154606085015260048101546080850152600581015460a08501529091015460ff808216151560c085018190529290910416151560e08301526125255760405162461bcd60e51b815260206004820152601760248201527f474d583a206e6f2061637469766520706f736974696f6e000000000000000000604482015260640161096a565b80516001600160a01b0316331461254e5760405162461bcd60e51b815260040161096a90614432565b60608101516000908152600560205260408120546001600160a01b031690811561261557600085612580576006612583565b60055b9050600061259b8869021e19e0c9bab2400000614694565b905060008560e00151156125d2576127106125b76064826146bf565b6125c19084614694565b6125cb91906146ab565b90506125f7565b6127106125e06064826146d2565b6125ea9084614694565b6125f491906146ab565b90505b61260f858460008960a0015186868c60e00151612759565b93505050505b61261e33612c6b565b6040805160a081018252338152600360208083018281528385018d81526060850188815260006080870181815289825260079095529690962094518554925160ff16600160a01b026001600160a81b03199093166001600160a01b0391909116179190911784555160018401559251600283015591519101805491151560ff19909216919091179055935080156126c15760008181526008602052604090208490555b604080516003815260208101839052339186917f540c54bd4517b6e7f64d6f6b3409494c1882f2141f71895f5294afdb60931ff8910160405180910390a35050509392505050565b600080546001600160a01b038381166001600160a01b0319831681178455604051919092169283917f8be0079c531659141344cd1fd0a4f28419497f9722a3daafe3b4186f6b6457e09190a35050565b600154600090478111156127af5760405162461bcd60e51b815260206004820152601e60248201527f474d583a206164617074657220756e64657266756e6465642028455448290000604482015260640161096a565b60408051610200810182523061012082018181526101408301829052610160830191909152600061018083018190526001600160a01b038d81166101a08501527f0000000000000000000000000000000000000000000000000000000000000000166101c0840152835181815260208101909452928291906101e083019081525081526020016040518061010001604052808a81526020018b81526020018981526020018881526020018581526020016216e360815260200160008152602001600081525081526020018a60ff168152602001600060ff16815260200185151581526020016000151581526020016000151581526020016000801b815260200160006001600160401b038111156128c8576128c8613061565b6040519080825280602002602001820160405280156128f1578160200160208202803683370190505b5090529050600060ff8a166002148061290d575060ff8a166003145b905060008161291d576002612920565b60035b60ff166001600160401b0381111561293a5761293a613061565b60405190808252806020026020018201604052801561296d57816020015b60608152602001906001900390816129585790505b50604080517f00000000000000000000000000000000000000000000000000000000000000006001600160a01b0316602482015260448082018890528251808303909101815260649091019091526020810180516001600160e01b0316637d39aaf160e01b17905281519192509082906000906129ec576129ec614742565b60200260200101819052508115612b1c57604080517f00000000000000000000000000000000000000000000000000000000000000006001600160a01b0390811660248301527f000000000000000000000000000000000000000000000000000000000000000016604482015260648082018d90528251808303909101815260849091019091526020810180516001600160e01b0316631cdacd5960e31b179052815182906001908110612aa257612aa2614742565b602002602001018190525063f59c48eb60e01b83604051602401612ac69190614837565b604051602081830303815290604052906001600160e01b0319166020820180516001600160e01b03838183161783525050505081600281518110612b0c57612b0c614742565b6020026020010181905250612b88565b60405163f59c48eb60e01b90612b36908590602401614837565b604051602081830303815290604052906001600160e01b0319166020820180516001600160e01b03838183161783525050505081600181518110612b7c57612b7c614742565b60200260200101819052505b60007f00000000000000000000000000000000000000000000000000000000000000006001600160a01b031663ac9650d886846040518363ffffffff1660e01b8152600401612bd7919061491d565b60006040518083038185885af1158015612bf5573d6000803e3d6000fd5b50505050506040513d6000823e601f3d908101601f19168201604052612c1e9190810190614997565b90508060018251612c2f91906146bf565b81518110612c3f57612c3f614742565b6020026020010151806020019051810190612c5a91906145aa565b9d9c50505050505050505050505050565b6009546040516bffffffffffffffffffffffff19606084901b166020820152603481019190915243605482015260009060740160408051601f198184030181529190528051602090910120600980549192506000612cc883614a83565b9091555050600a819055919050565b60006112a564e8d4a51000836146ab565b600b546001600160a01b0316156112bd57600b546001600160a01b031633146112bd5760405162461bcd60e51b815260206004820152601560248201527423a6ac1d103737ba1027b93232b92430b7323632b960591b604482015260640161096a565b60008281526008602052604090205480612d6457505050565b600081815260076020526040902080546001600160a01b03161580612d8d5750600381015460ff165b15612d985750505050565b600181015460009081526006602081905260408220600381015491810154909291612dca91610100900460ff1661204a565b90508415612e1c578254600160a01b900460ff16600103612e035780612df957612df484846121e3565b6109e0565b612df4848461184d565b80612e1257612df4848461184d565b612df484846121e3565b6109e084846121e3565b6040516001600160a01b0384811660248301528381166044830152606482018390526110ff9186918216906323b872dd90608401611ed5565b600080602060008451602086016000885af180612e82576040513d6000823e3d81fd5b50506000513d91508115612e9a578060011415612ea7565b6001600160a01b0384163b155b156110ff57604051635274afe760e01b81526001600160a01b038516600482015260240161096a565b600060208284031215612ee257600080fd5b5035919050565b6001600160a01b038116811461180a57600080fd5b60008060408385031215612f1157600080fd5b8235612f1c81612ee9565b946020939093013593505050565b801515811461180a57600080fd5b600080600060608486031215612f4d57600080fd5b8335612f5881612ee9565b9250602084013591506040840135612f6f81612f2a565b809150509250925092565b600080600080600060a08688031215612f9257600080fd5b853594506020860135935060408601359250606086013591506080860135612fb981612f2a565b809150509295509295909350565b60008060408385031215612fda57600080fd5b50508035926020909101359150565b600080600060608486031215612ffe57600080fd5b83359250602084013561301081612ee9565b91506040840135612f6f81612ee9565b60008060006060848603121561303557600080fd5b833561304081612ee9565b9250602084013561305081612ee9565b929592945050506040919091013590565b634e487b7160e01b600052604160045260246000fd5b604080519081016001600160401b038111828210171561309957613099613061565b60405290565b60405160e081016001600160401b038111828210171561309957613099613061565b604051606081016001600160401b038111828210171561309957613099613061565b60405161012081016001600160401b038111828210171561309957613099613061565b604051601f8201601f191681016001600160401b038111828210171561312e5761312e613061565b604052919050565b60006001600160401b0382111561314f5761314f613061565b5060051b60200190565b60006001600160401b0382111561317257613172613061565b50601f01601f191660200190565b600082601f83011261319157600080fd5b81356131a461319f82613159565b613106565b8181528460208386010111156131b957600080fd5b816020850160208301376000918101602001919091529392505050565b600082601f8301126131e757600080fd5b813560206131f761319f83613136565b828152600592831b850182019282820191908785111561321657600080fd5b8387015b858110156133175780356001600160401b038082111561323a5760008081fd5b908901906040828c03601f19018113156132545760008081fd5b61325c613077565b888401358381111561326e5760008081fd5b61327c8e8b83880101613180565b82525081840135838111156132915760008081fd5b8085019450508c603f8501126132a957600092508283fd5b8884013592506132bb61319f84613136565b83815292861b8401820192898101908e8511156132d85760008081fd5b948301945b8486101561330257853593506132f284612ee9565b838252948a0194908a01906132dd565b828b015250875250505092840192840161321a565b5090979650505050505050565b6000604080838503121561333757600080fd5b61333f613077565b915082356001600160401b038082111561335857600080fd5b818501915085601f83011261336c57600080fd5b8135602061337c61319f83613136565b82815260059290921b8401810191818101908984111561339b57600080fd5b8286015b8481101561341a578035868111156133b75760008081fd5b8701808c03601f19018913156133cd5760008081fd5b6133d5613077565b85820135888111156133e75760008081fd5b6133f58e8883860101613180565b825250908901359061340682612ee9565b80860191909152835291830191830161339f565b508752508681013594508285111561343157600080fd5b61343d888689016131d6565b81870152505050505092915050565b600082601f83011261345d57600080fd5b8135602061346d61319f83613136565b828152600592831b850182019282820191908785111561348c57600080fd5b8387015b858110156133175780356001600160401b03808211156134b05760008081fd5b908901906040828c03601f19018113156134ca5760008081fd5b6134d2613077565b88840135838111156134e45760008081fd5b6134f28e8b83880101613180565b82525081840135838111156135075760008081fd5b8085019450508c603f85011261351f57600092508283fd5b88840135925061353161319f84613136565b83815292861b8401820192898101908e85111561354e5760008081fd5b948301945b8486101561356c5785358252948a0194908a0190613553565b828b0152508752505050928401928401613490565b6000604080838503121561359457600080fd5b61359c613077565b915082356001600160401b03808211156135b557600080fd5b818501915085601f8301126135c957600080fd5b813560206135d961319f83613136565b82815260059290921b840181019181810190898411156135f857600080fd5b8286015b8481101561366a578035868111156136145760008081fd5b8701808c03601f190189131561362a5760008081fd5b613632613077565b85820135888111156136445760008081fd5b6136528e8883860101613180565b825250908901358582015283529183019183016135fc565b508752508681013594508285111561368157600080fd5b61343d8886890161344c565b600082601f83011261369e57600080fd5b813560206136ae61319f83613136565b828152600592831b85018201928282019190878511156136cd57600080fd5b8387015b858110156133175780356001600160401b03808211156136f15760008081fd5b908901906040828c03601f190181131561370b5760008081fd5b613713613077565b88840135838111156137255760008081fd5b6137338e8b83880101613180565b82525081840135838111156137485760008081fd5b8085019450508c603f85011261376057600092508283fd5b88840135925061377261319f84613136565b83815292861b8401820192898101908e85111561378f5760008081fd5b948301945b848610156137ad5785358252948a0194908a0190613794565b828b01525087525050509284019284016136d1565b600060408083850312156137d557600080fd5b6137dd613077565b915082356001600160401b03808211156137f657600080fd5b818501915085601f83011261380a57600080fd5b8135602061381a61319f83613136565b82815260059290921b8401810191818101908984111561383957600080fd5b8286015b848110156138ab578035868111156138555760008081fd5b8701808c03601f190189131561386b5760008081fd5b613873613077565b85820135888111156138855760008081fd5b6138938e8883860101613180565b8252509089013585820152835291830191830161383d565b50875250868101359450828511156138c257600080fd5b61343d8886890161368d565b600082601f8301126138df57600080fd5b813560206138ef61319f83613136565b828152600592831b850182019282820191908785111561390e57600080fd5b8387015b858110156133175780356001600160401b03808211156139325760008081fd5b908901906040828c03601f190181131561394c5760008081fd5b613954613077565b88840135838111156139665760008081fd5b6139748e8b83880101613180565b82525081840135838111156139895760008081fd5b8085019450508c603f8501126139a157600092508283fd5b8884013592506139b361319f84613136565b83815292861b8401820192898101908e8511156139d05760008081fd5b948301945b848610156139fa57853593506139ea84612f2a565b838252948a0194908a01906139d5565b828b0152508752505050928401928401613912565b60006040808385031215613a2257600080fd5b613a2a613077565b915082356001600160401b0380821115613a4357600080fd5b818501915085601f830112613a5757600080fd5b81356020613a6761319f83613136565b82815260059290921b84018101918181019089841115613a8657600080fd5b8286015b84811015613b0557803586811115613aa25760008081fd5b8701808c03601f1901891315613ab85760008081fd5b613ac0613077565b8582013588811115613ad25760008081fd5b613ae08e8883860101613180565b8252509089013590613af182612f2a565b808601919091528352918301918301613a8a565b5087525086810135945082851115613b1c57600080fd5b61343d888689016138ce565b600082601f830112613b3957600080fd5b81356020613b4961319f83613136565b828152600592831b8501820192828201919087851115613b6857600080fd5b8387015b858110156133175780356001600160401b0380821115613b8c5760008081fd5b908901906040828c03601f1901811315613ba65760008081fd5b613bae613077565b8884013583811115613bc05760008081fd5b613bce8e8b83880101613180565b8252508184013583811115613be35760008081fd5b8085019450508c603f850112613bfb57600092508283fd5b888401359250613c0d61319f84613136565b83815292861b8401820192898101908e851115613c2a5760008081fd5b948301945b84861015613c485785358252948a0194908a0190613c2f565b828b0152508752505050928401928401613b6c565b60006040808385031215613c7057600080fd5b613c78613077565b915082356001600160401b0380821115613c9157600080fd5b818501915085601f830112613ca557600080fd5b81356020613cb561319f83613136565b82815260059290921b84018101918181019089841115613cd457600080fd5b8286015b84811015613d4657803586811115613cf05760008081fd5b8701808c03601f1901891315613d065760008081fd5b613d0e613077565b8582013588811115613d205760008081fd5b613d2e8e8883860101613180565b82525090890135858201528352918301918301613cd8565b5087525086810135945082851115613d5d57600080fd5b61343d88868901613b28565b600082601f830112613d7a57600080fd5b81356020613d8a61319f83613136565b82815260059290921b84018101918181019086841115613da957600080fd5b8286015b84811015613eb2576001600160401b038082351115613dcb57600080fd5b813588016040818b03601f19011215613de357600080fd5b613deb613077565b8682013583811115613dfc57600080fd5b613e0a8c8983860101613180565b825250604082013583811115613e1f57600080fd5b8083019250508a603f830112613e3457600080fd5b86820135613e4461319f82613136565b81815260059190911b830160400190888101908d831115613e6457600080fd5b604085015b83811015613e9c578681351115613e7f57600080fd5b613e8f8f60408335890101613180565b8352918a01918a01613e69565b50838a0152505085525050918301918301613dad565b509695505050505050565b60006040808385031215613ed057600080fd5b613ed8613077565b915082356001600160401b0380821115613ef157600080fd5b818501915085601f830112613f0557600080fd5b81356020613f1561319f83613136565b82815260059290921b84018101918181019089841115613f3457600080fd5b8286015b84811015613fc457803586811115613f505760008081fd5b8701808c03601f1901891315613f665760008081fd5b613f6e613077565b8582013588811115613f805760008081fd5b613f8e8e8883860101613180565b8252508982013588811115613fa35760008081fd5b613fb18e8883860101613180565b8288015250845250918301918301613f38565b5087525086810135945082851115613fdb57600080fd5b61343d88868901613d69565b600082601f830112613ff857600080fd5b8135602061400861319f83613136565b82815260059290921b8401810191818101908684111561402757600080fd5b8286015b84811015613eb2576001600160401b03808235111561404957600080fd5b813588016040818b03601f1901121561406157600080fd5b614069613077565b868201358381111561407a57600080fd5b6140888c8983860101613180565b82525060408201358381111561409d57600080fd5b8083019250508a603f8301126140b257600080fd5b868201356140c261319f82613136565b81815260059190911b830160400190888101908d8311156140e257600080fd5b604085015b8381101561411a5786813511156140fd57600080fd5b61410d8f60408335890101613180565b8352918a01918a016140e7565b50838a015250508552505091830191830161402b565b6000604080838503121561414357600080fd5b61414b613077565b915082356001600160401b038082111561416457600080fd5b818501915085601f83011261417857600080fd5b8135602061418861319f83613136565b82815260059290921b840181019181810190898411156141a757600080fd5b8286015b84811015614237578035868111156141c35760008081fd5b8701808c03601f19018913156141d95760008081fd5b6141e1613077565b85820135888111156141f35760008081fd5b6142018e8883860101613180565b82525089820135888111156142165760008081fd5b6142248e8883860101613180565b82880152508452509183019183016141ab565b508752508681013594508285111561424e57600080fd5b61343d88868901613fe7565b600060e0828403121561426c57600080fd5b61427461309f565b905081356001600160401b038082111561428d57600080fd5b61429985838601613324565b835260208401359150808211156142af57600080fd5b6142bb85838601613581565b602084015260408401359150808211156142d457600080fd5b6142e0858386016137c2565b604084015260608401359150808211156142f957600080fd5b61430585838601613a0f565b6060840152608084013591508082111561431e57600080fd5b61432a85838601613c5d565b608084015260a084013591508082111561434357600080fd5b61434f85838601613ebd565b60a084015260c084013591508082111561436857600080fd5b5061437584828501614130565b60c08301525092915050565b60008060006060848603121561439657600080fd5b8335925060208401356001600160401b03808211156143b457600080fd5b6143c08783880161425a565b935060408601359150808211156143d657600080fd5b506143e38682870161425a565b9150509250925092565b6000602082840312156143ff57600080fd5b8135610a3581612ee9565b6020808252600e908201526d23a6ac1d103130b21037b93232b960911b604082015260600190565b6020808252600e908201526d11d3560e881b9bdd081d985d5b1d60921b604082015260600190565b60006020828403121561446c57600080fd5b604051602081018181106001600160401b038211171561448e5761448e613061565b806040525080915082516144a181612f2a565b905292915050565b60008183036101a08112156144bd57600080fd5b6144c56130c1565b60608212156144d357600080fd5b6144db6130c1565b84516144e681612ee9565b815260208501516144f681612ee9565b6020820152604085015161450981612ee9565b60408201528152610120605f19830181131561452457600080fd5b61452c6130e3565b9250606085015183526080850151602084015260a0850151604084015260c0850151606084015260e085015160808401526101008086015160a08501528186015160c085015261014086015160e085015261016086015181850152505081602082015261459d85610180860161445a565b6040820152949350505050565b6000602082840312156145bc57600080fd5b5051919050565b634e487b7160e01b600052601160045260246000fd5b81810360008312801583831316838312821617156145f9576145f96145c3565b5092915050565b80820260008212600160ff1b8414161561461c5761461c6145c3565b81810583148215176112a5576112a56145c3565b634e487b7160e01b600052601260045260246000fd5b60008261465557614655614630565b600160ff1b82146000198414161561466f5761466f6145c3565b500590565b80820182811260008312801582168215821617156121db576121db6145c3565b80820281158282048414176112a5576112a56145c3565b6000826146ba576146ba614630565b500490565b818103818111156112a5576112a56145c3565b808201808211156112a5576112a56145c3565b60005b838110156147005781810151838201526020016146e8565b50506000910152565b6000825161471b8184602087016146e5565b9190910192915050565b60006020828403121561473757600080fd5b8151610a3581612f2a565b634e487b7160e01b600052603260045260246000fd5b600060e0830160018060a01b0380845116855260208160208601511660208701528160408601511660408701528160608601511660608701528160808601511660808701528160a08601511660a087015260c085015160e060c088015283815180865261010089019150602083019550600092505b808310156147ef578551851682529483019460019290920191908301906147cd565b50979650505050505050565b60008151808452602080850194506020840160005b8381101561482c57815187529582019590820190600101614810565b509495945050505050565b6020815260008251610200806020850152614856610220850183614758565b915060208501516148b36040860182805182526020810151602083015260408101516040830152606081015160608301526080810151608083015260a081015160a083015260c081015160c083015260e081015160e08301525050565b50604085015160ff9081166101408601526060860151166101608501526080850151151561018085015260a085015115156101a085015260c085015115156101c085015260e08501516101e0850152610100850151848303601f190182860152610a9583826147fb565b6000602080830181845280855180835260408601915060408160051b870101925083870160005b8281101561498a57878503603f190184528151805180875261496b818989018a85016146e5565b601f01601f191695909501860194509285019290850190600101614944565b5092979650505050505050565b600060208083850312156149aa57600080fd5b82516001600160401b03808211156149c157600080fd5b818501915085601f8301126149d557600080fd5b81516149e361319f82613136565b81815260059190911b83018401908481019088831115614a0257600080fd5b8585015b83811015614a7657805185811115614a1e5760008081fd5b8601603f81018b13614a305760008081fd5b878101516040614a4261319f83613159565b8281528d82848601011115614a575760008081fd5b614a66838c83018487016146e5565b8652505050918601918601614a06565b5098975050505050505050565b600060018201614a9557614a956145c3565b506001019056fea264697066735822122049d4b127747ab744b294da6a7ad7b38a941684152c4454dae6b045baef65d85b64736f6c63430008180033","opcodes":"PUSH2 0x140 PUSH1 0x40 MSTORE PUSH7 0x38D7EA4C68000 PUSH1 0x1 SSTORE PUSH1 0x0 NOT PUSH1 0x2 SSTORE PUSH1 0x1 PUSH1 0x3 SSTORE PUSH1 0x40 MLOAD PUSH3 0x4F59 CODESIZE SUB DUP1 PUSH3 0x4F59 DUP4 CODECOPY DUP2 ADD PUSH1 0x40 DUP2 SWAP1 MSTORE PUSH3 0x3D SWAP2 PUSH3 0x2DC JUMP JUMPDEST DUP1 PUSH1 0x1 PUSH1 0x1 PUSH1 0xA0 SHL SUB DUP2 AND PUSH3 0x6E JUMPI PUSH1 0x40 MLOAD PUSH4 0x1E4FBDF7 PUSH1 0xE0 SHL DUP2 MSTORE PUSH1 0x0 PUSH1 0x4 DUP3 ADD MSTORE PUSH1 0x24 ADD JUMPDEST PUSH1 0x40 MLOAD DUP1 SWAP2 SUB SWAP1 REVERT JUMPDEST PUSH3 0x79 DUP2 PUSH3 0xDF JUMP JUMPDEST POP PUSH1 0x1 PUSH1 0x1 PUSH1 0xA0 SHL SUB DUP9 DUP2 AND PUSH1 0x80 DUP2 SWAP1 MSTORE DUP9 DUP3 AND PUSH1 0xA0 MSTORE DUP8 DUP3 AND PUSH1 0xC0 MSTORE DUP7 DUP3 AND PUSH1 0xE0 MSTORE DUP6 DUP3 AND PUSH2 0x100 MSTORE DUP5 DUP3 AND PUSH2 0x120 MSTORE PUSH1 0xB DUP1 SLOAD PUSH1 0x1 PUSH1 0x1 PUSH1 0xA0 SHL SUB NOT AND SWAP3 DUP6 AND SWAP3 SWAP1 SWAP3 OR SWAP1 SWAP2 SSTORE PUSH3 0xD1 SWAP1 DUP8 PUSH1 0x0 NOT PUSH3 0x12F JUMP JUMPDEST POP POP POP POP POP POP POP POP PUSH3 0x39D JUMP JUMPDEST PUSH1 0x0 DUP1 SLOAD PUSH1 0x1 PUSH1 0x1 PUSH1 0xA0 SHL SUB DUP4 DUP2 AND PUSH1 0x1 PUSH1 0x1 PUSH1 0xA0 SHL SUB NOT DUP4 AND DUP2 OR DUP5 SSTORE PUSH1 0x40 MLOAD SWAP2 SWAP1 SWAP3 AND SWAP3 DUP4 SWAP2 PUSH32 0x8BE0079C531659141344CD1FD0A4F28419497F9722A3DAAFE3B4186F6B6457E0 SWAP2 SWAP1 LOG3 POP POP JUMP JUMPDEST PUSH1 0x40 DUP1 MLOAD PUSH1 0x1 PUSH1 0x1 PUSH1 0xA0 SHL SUB DUP5 AND PUSH1 0x24 DUP3 ADD MSTORE PUSH1 0x44 DUP1 DUP3 ADD DUP5 SWAP1 MSTORE DUP3 MLOAD DUP1 DUP4 SUB SWAP1 SWAP2 ADD DUP2 MSTORE PUSH1 0x64 SWAP1 SWAP2 ADD SWAP1 SWAP2 MSTORE PUSH1 0x20 DUP2 ADD DUP1 MLOAD PUSH1 0x1 PUSH1 0x1 PUSH1 0xE0 SHL SUB SWAP1 DUP2 AND PUSH4 0x95EA7B3 PUSH1 0xE0 SHL OR SWAP1 SWAP2 MSTORE PUSH3 0x189 SWAP1 DUP6 SWAP1 DUP4 SWAP1 PUSH3 0x1FB AND JUMP JUMPDEST PUSH3 0x1F5 JUMPI PUSH1 0x40 DUP1 MLOAD PUSH1 0x1 PUSH1 0x1 PUSH1 0xA0 SHL SUB DUP6 AND PUSH1 0x24 DUP3 ADD MSTORE PUSH1 0x0 PUSH1 0x44 DUP1 DUP4 ADD SWAP2 SWAP1 SWAP2 MSTORE DUP3 MLOAD DUP1 DUP4 SUB SWAP1 SWAP2 ADD DUP2 MSTORE PUSH1 0x64 SWAP1 SWAP2 ADD SWAP1 SWAP2 MSTORE PUSH1 0x20 DUP2 ADD DUP1 MLOAD PUSH1 0x1 PUSH1 0x1 PUSH1 0xE0 SHL SUB SWAP1 DUP2 AND PUSH4 0x95EA7B3 PUSH1 0xE0 SHL OR SWAP1 SWAP2 MSTORE PUSH3 0x1E9 SWAP2 DUP7 SWAP2 PUSH3 0x24D AND JUMP JUMPDEST PUSH3 0x1F5 DUP5 DUP3 PUSH3 0x24D JUMP JUMPDEST POP POP POP POP JUMP JUMPDEST PUSH1 0x0 DUP1 PUSH1 0x0 DUP1 PUSH1 0x20 PUSH1 0x0 DUP7 MLOAD PUSH1 0x20 DUP9 ADD PUSH1 0x0 DUP11 GAS CALL SWAP3 POP RETURNDATASIZE SWAP2 POP PUSH1 0x0 MLOAD SWAP1 POP DUP3 DUP1 ISZERO PUSH3 0x243 JUMPI POP DUP2 ISZERO PUSH3 0x234 JUMPI DUP1 PUSH1 0x1 EQ PUSH3 0x243 JUMP JUMPDEST PUSH1 0x0 DUP7 PUSH1 0x1 PUSH1 0x1 PUSH1 0xA0 SHL SUB AND EXTCODESIZE GT JUMPDEST SWAP7 SWAP6 POP POP POP POP POP POP JUMP JUMPDEST PUSH1 0x0 DUP1 PUSH1 0x20 PUSH1 0x0 DUP5 MLOAD PUSH1 0x20 DUP7 ADD PUSH1 0x0 DUP9 GAS CALL DUP1 PUSH3 0x271 JUMPI PUSH1 0x40 MLOAD RETURNDATASIZE PUSH1 0x0 DUP3 RETURNDATACOPY RETURNDATASIZE DUP2 REVERT JUMPDEST POP POP PUSH1 0x0 MLOAD RETURNDATASIZE SWAP2 POP DUP2 ISZERO PUSH3 0x28B JUMPI DUP1 PUSH1 0x1 EQ ISZERO PUSH3 0x298 JUMP JUMPDEST PUSH1 0x1 PUSH1 0x1 PUSH1 0xA0 SHL SUB DUP5 AND EXTCODESIZE ISZERO JUMPDEST ISZERO PUSH3 0x1F5 JUMPI PUSH1 0x40 MLOAD PUSH4 0x5274AFE7 PUSH1 0xE0 SHL DUP2 MSTORE PUSH1 0x1 PUSH1 0x1 PUSH1 0xA0 SHL SUB DUP6 AND PUSH1 0x4 DUP3 ADD MSTORE PUSH1 0x24 ADD PUSH3 0x65 JUMP JUMPDEST PUSH1 0x1 PUSH1 0x1 PUSH1 0xA0 SHL SUB DUP2 AND DUP2 EQ PUSH3 0x2D9 JUMPI PUSH1 0x0 DUP1 REVERT JUMPDEST POP JUMP JUMPDEST PUSH1 0x0 DUP1 PUSH1 0x0 DUP1 PUSH1 0x0 DUP1 PUSH1 0x0 DUP1 PUSH2 0x100 DUP10 DUP12 SUB SLT ISZERO PUSH3 0x2FA JUMPI PUSH1 0x0 DUP1 REVERT JUMPDEST DUP9 MLOAD PUSH3 0x307 DUP2 PUSH3 0x2C3 JUMP JUMPDEST PUSH1 0x20 DUP11 ADD MLOAD SWAP1 SWAP9 POP PUSH3 0x31A DUP2 PUSH3 0x2C3 JUMP JUMPDEST PUSH1 0x40 DUP11 ADD MLOAD SWAP1 SWAP8 POP PUSH3 0x32D DUP2 PUSH3 0x2C3 JUMP JUMPDEST PUSH1 0x60 DUP11 ADD MLOAD SWAP1 SWAP7 POP PUSH3 0x340 DUP2 PUSH3 0x2C3 JUMP JUMPDEST PUSH1 0x80 DUP11 ADD MLOAD SWAP1 SWAP6 POP PUSH3 0x353 DUP2 PUSH3 0x2C3 JUMP JUMPDEST PUSH1 0xA0 DUP11 ADD MLOAD SWAP1 SWAP5 POP PUSH3 0x366 DUP2 PUSH3 0x2C3 JUMP JUMPDEST PUSH1 0xC0 DUP11 ADD MLOAD SWAP1 SWAP4 POP PUSH3 0x379 DUP2 PUSH3 0x2C3 JUMP JUMPDEST PUSH1 0xE0 DUP11 ADD MLOAD SWAP1 SWAP3 POP PUSH3 0x38C DUP2 PUSH3 0x2C3 JUMP JUMPDEST DUP1 SWAP2 POP POP SWAP3 SWAP6 SWAP9 POP SWAP3 SWAP6 SWAP9 SWAP1 SWAP4 SWAP7 POP JUMP JUMPDEST PUSH1 0x80 MLOAD PUSH1 0xA0 MLOAD PUSH1 0xC0 MLOAD PUSH1 0xE0 MLOAD PUSH2 0x100 MLOAD PUSH2 0x120 MLOAD PUSH2 0x4AD2 PUSH3 0x487 PUSH1 0x0 CODECOPY PUSH1 0x0 DUP2 DUP2 PUSH2 0x61F ADD MSTORE DUP2 DUP2 PUSH2 0xD2B ADD MSTORE DUP2 DUP2 PUSH2 0x1F71 ADD MSTORE PUSH2 0x2125 ADD MSTORE PUSH1 0x0 DUP2 DUP2 PUSH2 0x84B ADD MSTORE DUP2 DUP2 PUSH2 0xC7B ADD MSTORE DUP2 DUP2 PUSH2 0xD5D ADD MSTORE DUP2 DUP2 PUSH2 0x206C ADD MSTORE PUSH2 0x2157 ADD MSTORE PUSH1 0x0 DUP2 DUP2 PUSH2 0x73F ADD MSTORE DUP2 DUP2 PUSH2 0x2974 ADD MSTORE PUSH2 0x2A34 ADD MSTORE PUSH1 0x0 PUSH2 0x5CB ADD MSTORE PUSH1 0x0 DUP2 DUP2 PUSH2 0x35E ADD MSTORE DUP2 DUP2 PUSH2 0xBF3 ADD MSTORE PUSH2 0x2B8C ADD MSTORE PUSH1 0x0 DUP2 DUP2 PUSH2 0x453 ADD MSTORE DUP2 DUP2 PUSH2 0xCC9 ADD MSTORE DUP2 DUP2 PUSH2 0x166C ADD MSTORE DUP2 DUP2 PUSH2 0x1708 ADD MSTORE DUP2 DUP2 PUSH2 0x18CE ADD MSTORE DUP2 DUP2 PUSH2 0x197C ADD MSTORE DUP2 DUP2 PUSH2 0x1AB0 ADD MSTORE DUP2 DUP2 PUSH2 0x20C3 ADD MSTORE DUP2 DUP2 PUSH2 0x22D6 ADD MSTORE DUP2 DUP2 PUSH2 0x2376 ADD MSTORE DUP2 DUP2 PUSH2 0x27F1 ADD MSTORE PUSH2 0x2A03 ADD MSTORE PUSH2 0x4AD2 PUSH1 0x0 RETURN INVALID PUSH1 0x80 PUSH1 0x40 MSTORE PUSH1 0x4 CALLDATASIZE LT PUSH2 0x24A JUMPI PUSH1 0x0 CALLDATALOAD PUSH1 0xE0 SHR DUP1 PUSH4 0x646E3FF4 GT PUSH2 0x139 JUMPI DUP1 PUSH4 0x8DA5CB5B GT PUSH2 0xB6 JUMPI DUP1 PUSH4 0xD4FC42C6 GT PUSH2 0x7A JUMPI DUP1 PUSH4 0xD4FC42C6 EQ PUSH2 0x839 JUMPI DUP1 PUSH4 0xD8BBBE42 EQ PUSH2 0x86D JUMPI DUP1 PUSH4 0xE59FEEEF EQ PUSH2 0x88D JUMPI DUP1 PUSH4 0xF2FDE38B EQ PUSH2 0x8AD JUMPI DUP1 PUSH4 0xFA37E576 EQ PUSH2 0x8CD JUMPI DUP1 PUSH4 0xFFAF393F EQ PUSH2 0x8FA JUMPI PUSH1 0x0 DUP1 REVERT JUMPDEST DUP1 PUSH4 0x8DA5CB5B EQ PUSH2 0x70F JUMPI DUP1 PUSH4 0x93845E46 EQ PUSH2 0x72D JUMPI DUP1 PUSH4 0x9C3F1E90 EQ PUSH2 0x761 JUMPI DUP1 PUSH4 0xB5B0862F EQ PUSH2 0x7F0 JUMPI DUP1 PUSH4 0xC8FE528D EQ PUSH2 0x803 JUMPI PUSH1 0x0 DUP1 REVERT JUMPDEST DUP1 PUSH4 0x7489EC23 GT PUSH2 0xFD JUMPI DUP1 PUSH4 0x7489EC23 EQ PUSH2 0x67C JUMPI DUP1 PUSH4 0x76197BA3 EQ PUSH2 0x69C JUMPI DUP1 PUSH4 0x83FC34CF EQ PUSH2 0x6BC JUMPI DUP1 PUSH4 0x846CE088 EQ PUSH2 0x6DC JUMPI DUP1 PUSH4 0x8C509FD5 EQ PUSH2 0x6FC JUMPI PUSH1 0x0 DUP1 REVERT JUMPDEST DUP1 PUSH4 0x646E3FF4 EQ PUSH2 0x5ED JUMPI DUP1 PUSH4 0x660D0D67 EQ PUSH2 0x60D JUMPI DUP1 PUSH4 0x69077BB2 EQ PUSH2 0x641 JUMPI DUP1 PUSH4 0x715018A6 EQ PUSH2 0x654 JUMPI DUP1 PUSH4 0x72525E23 EQ PUSH2 0x669 JUMPI PUSH1 0x0 DUP1 REVERT JUMPDEST DUP1 PUSH4 0x34B3C1E4 GT PUSH2 0x1C7 JUMPI DUP1 PUSH4 0x511EA188 GT PUSH2 0x18B JUMPI DUP1 PUSH4 0x511EA188 EQ PUSH2 0x4B5 JUMPI DUP1 PUSH4 0x514EA4BF EQ PUSH2 0x4CB JUMPI DUP1 PUSH4 0x5DF970EF EQ PUSH2 0x583 JUMPI DUP1 PUSH4 0x62C06767 EQ PUSH2 0x599 JUMPI DUP1 PUSH4 0x634E3180 EQ PUSH2 0x5B9 JUMPI PUSH1 0x0 DUP1 REVERT JUMPDEST DUP1 PUSH4 0x34B3C1E4 EQ PUSH2 0x40B JUMPI DUP1 PUSH4 0x3DB12F8F EQ PUSH2 0x421 JUMPI DUP1 PUSH4 0x3E413BEE EQ PUSH2 0x441 JUMPI DUP1 PUSH4 0x453E5A2C EQ PUSH2 0x475 JUMPI DUP1 PUSH4 0x4CB7C319 EQ PUSH2 0x495 JUMPI PUSH1 0x0 DUP1 REVERT JUMPDEST DUP1 PUSH4 0x1C89FEA9 GT PUSH2 0x20E JUMPI DUP1 PUSH4 0x1C89FEA9 EQ PUSH2 0x32C JUMPI DUP1 PUSH4 0x1CB85818 EQ PUSH2 0x34C JUMPI DUP1 PUSH4 0x1EF75602 EQ PUSH2 0x380 JUMPI DUP1 PUSH4 0x2F94CDD1 EQ PUSH2 0x396 JUMPI DUP1 PUSH4 0x3157D9C7 EQ PUSH2 0x3B6 JUMPI PUSH1 0x0 DUP1 REVERT JUMPDEST DUP1 PUSH4 0x49B76C4 EQ PUSH2 0x256 JUMPI DUP1 PUSH4 0x5E4C292 EQ PUSH2 0x278 JUMPI DUP1 PUSH4 0x66BF5A9 EQ PUSH2 0x298 JUMPI DUP1 PUSH4 0x8255408 EQ PUSH2 0x2CB JUMPI DUP1 PUSH4 0xE177CCC EQ PUSH2 0x2DE JUMPI PUSH1 0x0 DUP1 REVERT JUMPDEST CALLDATASIZE PUSH2 0x251 JUMPI STOP JUMPDEST PUSH1 0x0 DUP1 REVERT JUMPDEST CALLVALUE DUP1 ISZERO PUSH2 0x262 JUMPI PUSH1 0x0 DUP1 REVERT JUMPDEST POP PUSH2 0x276 PUSH2 0x271 CALLDATASIZE PUSH1 0x4 PUSH2 0x2ED0 JUMP JUMPDEST PUSH2 0x91A JUMP JUMPDEST STOP JUMPDEST CALLVALUE DUP1 ISZERO PUSH2 0x284 JUMPI PUSH1 0x0 DUP1 REVERT JUMPDEST POP PUSH2 0x276 PUSH2 0x293 CALLDATASIZE PUSH1 0x4 PUSH2 0x2EFE JUMP JUMPDEST PUSH2 0x981 JUMP JUMPDEST CALLVALUE DUP1 ISZERO PUSH2 0x2A4 JUMPI PUSH1 0x0 DUP1 REVERT JUMPDEST POP PUSH2 0x2B8 PUSH2 0x2B3 CALLDATASIZE PUSH1 0x4 PUSH2 0x2F38 JUMP JUMPDEST PUSH2 0x9E8 JUMP JUMPDEST PUSH1 0x40 MLOAD SWAP1 DUP2 MSTORE PUSH1 0x20 ADD JUMPDEST PUSH1 0x40 MLOAD DUP1 SWAP2 SUB SWAP1 RETURN JUMPDEST PUSH2 0x2B8 PUSH2 0x2D9 CALLDATASIZE PUSH1 0x4 PUSH2 0x2F7A JUMP JUMPDEST PUSH2 0xA3C JUMP JUMPDEST CALLVALUE DUP1 ISZERO PUSH2 0x2EA JUMPI PUSH1 0x0 DUP1 REVERT JUMPDEST POP PUSH2 0x314 PUSH2 0x2F9 CALLDATASIZE PUSH1 0x4 PUSH2 0x2ED0 JUMP JUMPDEST PUSH1 0x5 PUSH1 0x20 MSTORE PUSH1 0x0 SWAP1 DUP2 MSTORE PUSH1 0x40 SWAP1 KECCAK256 SLOAD PUSH1 0x1 PUSH1 0x1 PUSH1 0xA0 SHL SUB AND DUP2 JUMP JUMPDEST PUSH1 0x40 MLOAD PUSH1 0x1 PUSH1 0x1 PUSH1 0xA0 SHL SUB SWAP1 SWAP2 AND DUP2 MSTORE PUSH1 0x20 ADD PUSH2 0x2C2 JUMP JUMPDEST CALLVALUE DUP1 ISZERO PUSH2 0x338 JUMPI PUSH1 0x0 DUP1 REVERT JUMPDEST POP PUSH2 0x276 PUSH2 0x347 CALLDATASIZE PUSH1 0x4 PUSH2 0x2FC7 JUMP JUMPDEST PUSH2 0xA9F JUMP JUMPDEST CALLVALUE DUP1 ISZERO PUSH2 0x358 JUMPI PUSH1 0x0 DUP1 REVERT JUMPDEST POP PUSH2 0x314 PUSH32 0x0 DUP2 JUMP JUMPDEST CALLVALUE DUP1 ISZERO PUSH2 0x38C JUMPI PUSH1 0x0 DUP1 REVERT JUMPDEST POP PUSH2 0x2B8 PUSH1 0x2 SLOAD DUP2 JUMP JUMPDEST CALLVALUE DUP1 ISZERO PUSH2 0x3A2 JUMPI PUSH1 0x0 DUP1 REVERT JUMPDEST POP PUSH2 0x276 PUSH2 0x3B1 CALLDATASIZE PUSH1 0x4 PUSH2 0x2ED0 JUMP JUMPDEST PUSH2 0xAB2 JUMP JUMPDEST CALLVALUE DUP1 ISZERO PUSH2 0x3C2 JUMPI PUSH1 0x0 DUP1 REVERT JUMPDEST POP PUSH2 0x3D6 PUSH2 0x3D1 CALLDATASIZE PUSH1 0x4 PUSH2 0x2F38 JUMP JUMPDEST PUSH2 0xC2A JUMP JUMPDEST PUSH1 0x40 MLOAD PUSH2 0x2C2 SWAP2 SWAP1 DUP2 MLOAD ISZERO ISZERO DUP2 MSTORE PUSH1 0x20 DUP1 DUP4 ADD MLOAD SWAP1 DUP3 ADD MSTORE PUSH1 0x40 DUP1 DUP4 ADD MLOAD SWAP1 DUP3 ADD MSTORE PUSH1 0x60 SWAP2 DUP3 ADD MLOAD SWAP2 DUP2 ADD SWAP2 SWAP1 SWAP2 MSTORE PUSH1 0x80 ADD SWAP1 JUMP JUMPDEST CALLVALUE DUP1 ISZERO PUSH2 0x417 JUMPI PUSH1 0x0 DUP1 REVERT JUMPDEST POP PUSH2 0x2B8 PUSH1 0x3 SLOAD DUP2 JUMP JUMPDEST CALLVALUE DUP1 ISZERO PUSH2 0x42D JUMPI PUSH1 0x0 DUP1 REVERT JUMPDEST POP PUSH2 0x276 PUSH2 0x43C CALLDATASIZE PUSH1 0x4 PUSH2 0x2ED0 JUMP JUMPDEST PUSH2 0xE1A JUMP JUMPDEST CALLVALUE DUP1 ISZERO PUSH2 0x44D JUMPI PUSH1 0x0 DUP1 REVERT JUMPDEST POP PUSH2 0x314 PUSH32 0x0 DUP2 JUMP JUMPDEST CALLVALUE DUP1 ISZERO PUSH2 0x481 JUMPI PUSH1 0x0 DUP1 REVERT JUMPDEST POP PUSH2 0x276 PUSH2 0x490 CALLDATASIZE PUSH1 0x4 PUSH2 0x2FE9 JUMP JUMPDEST PUSH2 0xE27 JUMP JUMPDEST CALLVALUE DUP1 ISZERO PUSH2 0x4A1 JUMPI PUSH1 0x0 DUP1 REVERT JUMPDEST POP PUSH2 0x2B8 PUSH2 0x4B0 CALLDATASIZE PUSH1 0x4 PUSH2 0x2ED0 JUMP JUMPDEST PUSH2 0xEB1 JUMP JUMPDEST CALLVALUE DUP1 ISZERO PUSH2 0x4C1 JUMPI PUSH1 0x0 DUP1 REVERT JUMPDEST POP PUSH2 0x2B8 PUSH1 0xA SLOAD DUP2 JUMP JUMPDEST CALLVALUE DUP1 ISZERO PUSH2 0x4D7 JUMPI PUSH1 0x0 DUP1 REVERT JUMPDEST POP PUSH2 0x53A PUSH2 0x4E6 CALLDATASIZE PUSH1 0x4 PUSH2 0x2ED0 JUMP JUMPDEST PUSH1 0x6 PUSH1 0x20 DUP2 SWAP1 MSTORE PUSH1 0x0 SWAP2 DUP3 MSTORE PUSH1 0x40 SWAP1 SWAP2 KECCAK256 DUP1 SLOAD PUSH1 0x1 DUP3 ADD SLOAD PUSH1 0x2 DUP4 ADD SLOAD PUSH1 0x3 DUP5 ADD SLOAD PUSH1 0x4 DUP6 ADD SLOAD PUSH1 0x5 DUP7 ADD SLOAD SWAP6 SWAP1 SWAP7 ADD SLOAD PUSH1 0x1 PUSH1 0x1 PUSH1 0xA0 SHL SUB SWAP1 SWAP5 AND SWAP6 SWAP3 SWAP5 SWAP2 SWAP4 SWAP1 SWAP3 SWAP2 SWAP1 PUSH1 0xFF DUP1 DUP3 AND SWAP2 PUSH2 0x100 SWAP1 DIV AND DUP9 JUMP JUMPDEST PUSH1 0x40 DUP1 MLOAD PUSH1 0x1 PUSH1 0x1 PUSH1 0xA0 SHL SUB SWAP1 SWAP10 AND DUP10 MSTORE PUSH1 0x20 DUP10 ADD SWAP8 SWAP1 SWAP8 MSTORE SWAP6 DUP8 ADD SWAP5 SWAP1 SWAP5 MSTORE PUSH1 0x60 DUP7 ADD SWAP3 SWAP1 SWAP3 MSTORE PUSH1 0x80 DUP6 ADD MSTORE PUSH1 0xA0 DUP5 ADD MSTORE ISZERO ISZERO PUSH1 0xC0 DUP4 ADD MSTORE ISZERO ISZERO PUSH1 0xE0 DUP3 ADD MSTORE PUSH2 0x100 ADD PUSH2 0x2C2 JUMP JUMPDEST CALLVALUE DUP1 ISZERO PUSH2 0x58F JUMPI PUSH1 0x0 DUP1 REVERT JUMPDEST POP PUSH2 0x2B8 PUSH1 0x1 SLOAD DUP2 JUMP JUMPDEST CALLVALUE DUP1 ISZERO PUSH2 0x5A5 JUMPI PUSH1 0x0 DUP1 REVERT JUMPDEST POP PUSH2 0x276 PUSH2 0x5B4 CALLDATASIZE PUSH1 0x4 PUSH2 0x3020 JUMP JUMPDEST PUSH2 0x105B JUMP JUMPDEST CALLVALUE DUP1 ISZERO PUSH2 0x5C5 JUMPI PUSH1 0x0 DUP1 REVERT JUMPDEST POP PUSH2 0x314 PUSH32 0x0 DUP2 JUMP JUMPDEST CALLVALUE DUP1 ISZERO PUSH2 0x5F9 JUMPI PUSH1 0x0 DUP1 REVERT JUMPDEST POP PUSH2 0x276 PUSH2 0x608 CALLDATASIZE PUSH1 0x4 PUSH2 0x2ED0 JUMP JUMPDEST PUSH2 0x111E JUMP JUMPDEST CALLVALUE DUP1 ISZERO PUSH2 0x619 JUMPI PUSH1 0x0 DUP1 REVERT JUMPDEST POP PUSH2 0x314 PUSH32 0x0 DUP2 JUMP JUMPDEST PUSH2 0x2B8 PUSH2 0x64F CALLDATASIZE PUSH1 0x4 PUSH2 0x2FC7 JUMP JUMPDEST PUSH2 0x1294 JUMP JUMPDEST CALLVALUE DUP1 ISZERO PUSH2 0x660 JUMPI PUSH1 0x0 DUP1 REVERT JUMPDEST POP PUSH2 0x276 PUSH2 0x12AB JUMP JUMPDEST PUSH2 0x2B8 PUSH2 0x677 CALLDATASIZE PUSH1 0x4 PUSH2 0x2ED0 JUMP JUMPDEST PUSH2 0x12BF JUMP JUMPDEST CALLVALUE DUP1 ISZERO PUSH2 0x688 JUMPI PUSH1 0x0 DUP1 REVERT JUMPDEST POP PUSH2 0x276 PUSH2 0x697 CALLDATASIZE PUSH1 0x4 PUSH2 0x2ED0 JUMP JUMPDEST PUSH2 0x14C9 JUMP JUMPDEST CALLVALUE DUP1 ISZERO PUSH2 0x6A8 JUMPI PUSH1 0x0 DUP1 REVERT JUMPDEST POP PUSH2 0x2B8 PUSH2 0x6B7 CALLDATASIZE PUSH1 0x4 PUSH2 0x2FC7 JUMP JUMPDEST PUSH2 0x1523 JUMP JUMPDEST CALLVALUE DUP1 ISZERO PUSH2 0x6C8 JUMPI PUSH1 0x0 DUP1 REVERT JUMPDEST POP PUSH2 0x276 PUSH2 0x6D7 CALLDATASIZE PUSH1 0x4 PUSH2 0x4381 JUMP JUMPDEST PUSH2 0x173B JUMP JUMPDEST CALLVALUE DUP1 ISZERO PUSH2 0x6E8 JUMPI PUSH1 0x0 DUP1 REVERT JUMPDEST POP PUSH2 0x276 PUSH2 0x6F7 CALLDATASIZE PUSH1 0x4 PUSH2 0x43ED JUMP JUMPDEST PUSH2 0x1773 JUMP JUMPDEST PUSH2 0x2B8 PUSH2 0x70A CALLDATASIZE PUSH1 0x4 PUSH2 0x2FC7 JUMP JUMPDEST PUSH2 0x179D JUMP JUMPDEST CALLVALUE DUP1 ISZERO PUSH2 0x71B JUMPI PUSH1 0x0 DUP1 REVERT JUMPDEST POP PUSH1 0x0 SLOAD PUSH1 0x1 PUSH1 0x1 PUSH1 0xA0 SHL SUB AND PUSH2 0x314 JUMP JUMPDEST CALLVALUE DUP1 ISZERO PUSH2 0x739 JUMPI PUSH1 0x0 DUP1 REVERT JUMPDEST POP PUSH2 0x314 PUSH32 0x0 DUP2 JUMP JUMPDEST CALLVALUE DUP1 ISZERO PUSH2 0x76D JUMPI PUSH1 0x0 DUP1 REVERT JUMPDEST POP PUSH2 0x7BA PUSH2 0x77C CALLDATASIZE PUSH1 0x4 PUSH2 0x2ED0 JUMP JUMPDEST PUSH1 0x7 PUSH1 0x20 MSTORE PUSH1 0x0 SWAP1 DUP2 MSTORE PUSH1 0x40 SWAP1 KECCAK256 DUP1 SLOAD PUSH1 0x1 DUP3 ADD SLOAD PUSH1 0x2 DUP4 ADD SLOAD PUSH1 0x3 SWAP1 SWAP4 ADD SLOAD PUSH1 0x1 PUSH1 0x1 PUSH1 0xA0 SHL SUB DUP4 AND SWAP4 PUSH1 0xFF PUSH1 0x1 PUSH1 0xA0 SHL SWAP1 SWAP5 DIV DUP5 AND SWAP4 SWAP1 SWAP2 AND DUP6 JUMP JUMPDEST PUSH1 0x40 DUP1 MLOAD PUSH1 0x1 PUSH1 0x1 PUSH1 0xA0 SHL SUB SWAP1 SWAP7 AND DUP7 MSTORE PUSH1 0xFF SWAP1 SWAP5 AND PUSH1 0x20 DUP7 ADD MSTORE SWAP3 DUP5 ADD SWAP2 SWAP1 SWAP2 MSTORE PUSH1 0x60 DUP4 ADD MSTORE ISZERO ISZERO PUSH1 0x80 DUP3 ADD MSTORE PUSH1 0xA0 ADD PUSH2 0x2C2 JUMP JUMPDEST PUSH2 0x2B8 PUSH2 0x7FE CALLDATASIZE PUSH1 0x4 PUSH2 0x2F7A JUMP JUMPDEST PUSH2 0x17AB JUMP JUMPDEST CALLVALUE DUP1 ISZERO PUSH2 0x80F JUMPI PUSH1 0x0 DUP1 REVERT JUMPDEST POP PUSH2 0x314 PUSH2 0x81E CALLDATASIZE PUSH1 0x4 PUSH2 0x2ED0 JUMP JUMPDEST PUSH1 0x4 PUSH1 0x20 MSTORE PUSH1 0x0 SWAP1 DUP2 MSTORE PUSH1 0x40 SWAP1 KECCAK256 SLOAD PUSH1 0x1 PUSH1 0x1 PUSH1 0xA0 SHL SUB AND DUP2 JUMP JUMPDEST CALLVALUE DUP1 ISZERO PUSH2 0x845 JUMPI PUSH1 0x0 DUP1 REVERT JUMPDEST POP PUSH2 0x314 PUSH32 0x0 DUP2 JUMP JUMPDEST CALLVALUE DUP1 ISZERO PUSH2 0x879 JUMPI PUSH1 0x0 DUP1 REVERT JUMPDEST POP PUSH2 0x276 PUSH2 0x888 CALLDATASIZE PUSH1 0x4 PUSH2 0x4381 JUMP JUMPDEST PUSH2 0x17BC JUMP JUMPDEST CALLVALUE DUP1 ISZERO PUSH2 0x899 JUMPI PUSH1 0x0 DUP1 REVERT JUMPDEST POP PUSH1 0xB SLOAD PUSH2 0x314 SWAP1 PUSH1 0x1 PUSH1 0x1 PUSH1 0xA0 SHL SUB AND DUP2 JUMP JUMPDEST CALLVALUE DUP1 ISZERO PUSH2 0x8B9 JUMPI PUSH1 0x0 DUP1 REVERT JUMPDEST POP PUSH2 0x276 PUSH2 0x8C8 CALLDATASIZE PUSH1 0x4 PUSH2 0x43ED JUMP JUMPDEST PUSH2 0x17CF JUMP JUMPDEST CALLVALUE DUP1 ISZERO PUSH2 0x8D9 JUMPI PUSH1 0x0 DUP1 REVERT JUMPDEST POP PUSH2 0x2B8 PUSH2 0x8E8 CALLDATASIZE PUSH1 0x4 PUSH2 0x2ED0 JUMP JUMPDEST PUSH1 0x8 PUSH1 0x20 MSTORE PUSH1 0x0 SWAP1 DUP2 MSTORE PUSH1 0x40 SWAP1 KECCAK256 SLOAD DUP2 JUMP JUMPDEST CALLVALUE DUP1 ISZERO PUSH2 0x906 JUMPI PUSH1 0x0 DUP1 REVERT JUMPDEST POP PUSH2 0x276 PUSH2 0x915 CALLDATASIZE PUSH1 0x4 PUSH2 0x4381 JUMP JUMPDEST PUSH2 0x180D JUMP JUMPDEST PUSH2 0x922 PUSH2 0x1820 JUMP JUMPDEST PUSH1 0x0 DUP2 DUP2 MSTORE PUSH1 0x7 PUSH1 0x20 MSTORE PUSH1 0x40 SWAP1 KECCAK256 DUP1 SLOAD PUSH1 0x1 PUSH1 0x1 PUSH1 0xA0 SHL SUB AND ISZERO DUP1 ISZERO SWAP1 PUSH2 0x94E JUMPI POP PUSH1 0x3 DUP2 ADD SLOAD PUSH1 0xFF AND ISZERO JUMPDEST PUSH2 0x973 JUMPI PUSH1 0x40 MLOAD PUSH3 0x461BCD PUSH1 0xE5 SHL DUP2 MSTORE PUSH1 0x4 ADD PUSH2 0x96A SWAP1 PUSH2 0x440A JUMP JUMPDEST PUSH1 0x40 MLOAD DUP1 SWAP2 SUB SWAP1 REVERT JUMPDEST PUSH2 0x97D DUP3 DUP3 PUSH2 0x184D JUMP JUMPDEST POP POP JUMP JUMPDEST PUSH2 0x989 PUSH2 0x1820 JUMP JUMPDEST PUSH1 0x40 MLOAD PUSH4 0x41FCF163 PUSH1 0xE0 SHL DUP2 MSTORE PUSH1 0x4 DUP2 ADD DUP3 SWAP1 MSTORE PUSH1 0x1 PUSH1 0x1 PUSH1 0xA0 SHL SUB DUP4 AND SWAP1 PUSH4 0x41FCF163 SWAP1 PUSH1 0x24 ADD JUMPDEST PUSH1 0x0 PUSH1 0x40 MLOAD DUP1 DUP4 SUB DUP2 PUSH1 0x0 DUP8 DUP1 EXTCODESIZE ISZERO DUP1 ISZERO PUSH2 0x9CC JUMPI PUSH1 0x0 DUP1 REVERT JUMPDEST POP GAS CALL ISZERO DUP1 ISZERO PUSH2 0x9E0 JUMPI RETURNDATASIZE PUSH1 0x0 DUP1 RETURNDATACOPY RETURNDATASIZE PUSH1 0x0 REVERT JUMPDEST POP POP POP POP POP POP JUMP JUMPDEST PUSH1 0x40 MLOAD PUSH12 0xFFFFFFFFFFFFFFFFFFFFFFFF NOT PUSH1 0x60 DUP6 SWAP1 SHL AND PUSH1 0x20 DUP3 ADD MSTORE PUSH1 0x34 DUP2 ADD DUP4 SWAP1 MSTORE DUP2 ISZERO ISZERO PUSH1 0xF8 SHL PUSH1 0x54 DUP3 ADD MSTORE PUSH1 0x0 SWAP1 PUSH1 0x55 ADD PUSH1 0x40 MLOAD PUSH1 0x20 DUP2 DUP4 SUB SUB DUP2 MSTORE SWAP1 PUSH1 0x40 MSTORE DUP1 MLOAD SWAP1 PUSH1 0x20 ADD KECCAK256 SWAP1 POP JUMPDEST SWAP4 SWAP3 POP POP POP JUMP JUMPDEST PUSH1 0x0 DUP1 DUP5 GT PUSH2 0xA87 JUMPI PUSH1 0x40 MLOAD PUSH3 0x461BCD PUSH1 0xE5 SHL DUP2 MSTORE PUSH1 0x20 PUSH1 0x4 DUP3 ADD MSTORE PUSH1 0x17 PUSH1 0x24 DUP3 ADD MSTORE PUSH23 0x474D583A207A65726F2074726967676572207072696365 PUSH1 0x48 SHL PUSH1 0x44 DUP3 ADD MSTORE PUSH1 0x64 ADD PUSH2 0x96A JUMP JUMPDEST PUSH2 0xA95 DUP7 DUP7 DUP7 DUP7 DUP9 DUP8 PUSH2 0x1A16 JUMP JUMPDEST SWAP7 SWAP6 POP POP POP POP POP POP JUMP JUMPDEST PUSH2 0xAA7 PUSH2 0x1820 JUMP JUMPDEST PUSH1 0x2 SWAP2 SWAP1 SWAP2 SSTORE PUSH1 0x3 SSTORE JUMP JUMPDEST PUSH1 0x0 DUP2 DUP2 MSTORE PUSH1 0x7 PUSH1 0x20 SWAP1 DUP2 MSTORE PUSH1 0x40 SWAP2 DUP3 SWAP1 KECCAK256 DUP3 MLOAD PUSH1 0xA0 DUP2 ADD DUP5 MSTORE DUP2 SLOAD PUSH1 0x1 PUSH1 0x1 PUSH1 0xA0 SHL SUB DUP2 AND DUP1 DUP4 MSTORE PUSH1 0xFF PUSH1 0x1 PUSH1 0xA0 SHL SWAP1 SWAP3 DIV DUP3 AND SWAP5 DUP4 ADD SWAP5 SWAP1 SWAP5 MSTORE PUSH1 0x1 DUP4 ADD SLOAD SWAP5 DUP3 ADD SWAP5 SWAP1 SWAP5 MSTORE PUSH1 0x2 DUP3 ADD SLOAD PUSH1 0x60 DUP3 ADD MSTORE PUSH1 0x3 SWAP1 SWAP2 ADD SLOAD SWAP1 SWAP3 AND ISZERO ISZERO PUSH1 0x80 DUP4 ADD MSTORE CALLER EQ PUSH2 0xB32 JUMPI PUSH1 0x40 MLOAD PUSH3 0x461BCD PUSH1 0xE5 SHL DUP2 MSTORE PUSH1 0x4 ADD PUSH2 0x96A SWAP1 PUSH2 0x4432 JUMP JUMPDEST DUP1 PUSH1 0x80 ADD MLOAD ISZERO PUSH2 0xB7C JUMPI PUSH1 0x40 MLOAD PUSH3 0x461BCD PUSH1 0xE5 SHL DUP2 MSTORE PUSH1 0x20 PUSH1 0x4 DUP3 ADD MSTORE PUSH1 0x15 PUSH1 0x24 DUP3 ADD MSTORE PUSH21 0x11D3560E88185B1C9958591E48195E1958DD5D1959 PUSH1 0x5A SHL PUSH1 0x44 DUP3 ADD MSTORE PUSH1 0x64 ADD PUSH2 0x96A JUMP JUMPDEST PUSH1 0x60 DUP2 ADD MLOAD PUSH2 0xBD7 JUMPI PUSH1 0x40 MLOAD PUSH3 0x461BCD PUSH1 0xE5 SHL DUP2 MSTORE PUSH1 0x20 PUSH1 0x4 DUP3 ADD MSTORE PUSH1 0x21 PUSH1 0x24 DUP3 ADD MSTORE PUSH32 0x474D583A206E6F20474D58206B657920286D6F636B2D6F6E6C79206F72646572 PUSH1 0x44 DUP3 ADD MSTORE PUSH1 0x29 PUSH1 0xF8 SHL PUSH1 0x64 DUP3 ADD MSTORE PUSH1 0x84 ADD PUSH2 0x96A JUMP JUMPDEST PUSH1 0x60 DUP2 ADD MLOAD PUSH1 0x40 MLOAD PUSH4 0x7489EC23 PUSH1 0xE0 SHL DUP2 MSTORE PUSH1 0x4 DUP2 ADD SWAP2 SWAP1 SWAP2 MSTORE PUSH32 0x0 PUSH1 0x1 PUSH1 0x1 PUSH1 0xA0 SHL SUB AND SWAP1 PUSH4 0x7489EC23 SWAP1 PUSH1 0x24 ADD PUSH2 0x9B2 JUMP JUMPDEST PUSH2 0xC57 PUSH1 0x40 MLOAD DUP1 PUSH1 0x80 ADD PUSH1 0x40 MSTORE DUP1 PUSH1 0x0 ISZERO ISZERO DUP2 MSTORE PUSH1 0x20 ADD PUSH1 0x0 DUP2 MSTORE PUSH1 0x20 ADD PUSH1 0x0 DUP2 MSTORE PUSH1 0x20 ADD PUSH1 0x0 DUP2 MSTORE POP SWAP1 JUMP JUMPDEST PUSH1 0x0 DUP4 DUP2 MSTORE PUSH1 0x5 PUSH1 0x20 MSTORE PUSH1 0x40 SWAP1 KECCAK256 SLOAD PUSH1 0x1 PUSH1 0x1 PUSH1 0xA0 SHL SUB AND DUP1 ISZERO DUP1 ISZERO SWAP1 PUSH2 0xCA6 JUMPI POP PUSH32 0x0 PUSH1 0x1 PUSH1 0x1 PUSH1 0xA0 SHL SUB AND ISZERO ISZERO JUMPDEST ISZERO PUSH2 0xE06 JUMPI PUSH1 0x40 DUP1 MLOAD ADDRESS PUSH1 0x20 DUP3 ADD MSTORE PUSH1 0x1 PUSH1 0x1 PUSH1 0xA0 SHL SUB DUP4 DUP2 AND SWAP3 DUP3 ADD SWAP3 SWAP1 SWAP3 MSTORE PUSH32 0x0 SWAP1 SWAP2 AND PUSH1 0x60 DUP3 ADD MSTORE DUP4 ISZERO ISZERO PUSH1 0x80 DUP3 ADD MSTORE PUSH1 0x0 SWAP1 PUSH1 0xA0 ADD PUSH1 0x40 DUP1 MLOAD PUSH1 0x1F NOT DUP2 DUP5 SUB ADD DUP2 MSTORE SWAP1 DUP3 SWAP1 MSTORE DUP1 MLOAD PUSH1 0x20 SWAP1 SWAP2 ADD KECCAK256 PUSH4 0x7D47A8B PUSH1 0xE1 SHL DUP3 MSTORE PUSH1 0x1 PUSH1 0x1 PUSH1 0xA0 SHL SUB PUSH32 0x0 DUP2 AND PUSH1 0x4 DUP5 ADD MSTORE PUSH1 0x24 DUP4 ADD DUP3 SWAP1 MSTORE SWAP1 SWAP3 POP PUSH32 0x0 AND SWAP1 PUSH4 0xFA8F516 SWAP1 PUSH1 0x44 ADD PUSH2 0x1A0 PUSH1 0x40 MLOAD DUP1 DUP4 SUB DUP2 DUP7 GAS STATICCALL SWAP3 POP POP POP DUP1 ISZERO PUSH2 0xDC1 JUMPI POP PUSH1 0x40 DUP1 MLOAD PUSH1 0x1F RETURNDATASIZE SWAP1 DUP2 ADD PUSH1 0x1F NOT AND DUP3 ADD SWAP1 SWAP3 MSTORE PUSH2 0xDBE SWAP2 DUP2 ADD SWAP1 PUSH2 0x44A9 JUMP JUMPDEST PUSH1 0x1 JUMPDEST PUSH2 0xDD6 JUMPI PUSH2 0xDD1 DUP7 DUP7 DUP7 DUP7 PUSH2 0x1DCF JUMP JUMPDEST PUSH2 0xDFF JUMP JUMPDEST PUSH1 0x20 SWAP1 DUP2 ADD DUP1 MLOAD MLOAD ISZERO ISZERO DUP6 MSTORE DUP1 MLOAD MLOAD SWAP2 DUP6 ADD SWAP2 SWAP1 SWAP2 MSTORE MLOAD PUSH1 0x40 SWAP1 DUP2 ADD MLOAD SWAP1 DUP5 ADD MSTORE PUSH1 0x0 PUSH1 0x60 DUP5 ADD MSTORE JUMPDEST POP POP PUSH2 0xA35 JUMP JUMPDEST PUSH2 0xE12 DUP6 DUP6 DUP6 DUP6 PUSH2 0x1DCF JUMP JUMPDEST POP SWAP4 SWAP3 POP POP POP JUMP JUMPDEST PUSH2 0xE22 PUSH2 0x1820 JUMP JUMPDEST PUSH1 0x1 SSTORE JUMP JUMPDEST PUSH2 0xE2F PUSH2 0x1820 JUMP JUMPDEST PUSH1 0x0 DUP4 DUP2 MSTORE PUSH1 0x4 PUSH1 0x20 SWAP1 DUP2 MSTORE PUSH1 0x40 DUP1 DUP4 KECCAK256 DUP1 SLOAD PUSH1 0x1 PUSH1 0x1 PUSH1 0xA0 SHL SUB DUP8 DUP2 AND PUSH1 0x1 PUSH1 0x1 PUSH1 0xA0 SHL SUB NOT SWAP3 DUP4 AND DUP2 OR SWAP1 SWAP4 SSTORE PUSH1 0x5 DUP6 MSTORE SWAP5 DUP4 SWAP1 KECCAK256 DUP1 SLOAD SWAP6 DUP8 AND SWAP6 SWAP1 SWAP2 AND DUP6 OR SWAP1 SSTORE DUP2 MLOAD SWAP1 DUP2 MSTORE SWAP2 DUP3 ADD SWAP3 SWAP1 SWAP3 MSTORE DUP5 SWAP2 PUSH32 0x393BF4FF2983AC2030DA8F04A013FF4AC3176D2440549A516EDFF6F881C4DB3B SWAP2 ADD PUSH1 0x40 MLOAD DUP1 SWAP2 SUB SWAP1 LOG2 POP POP POP JUMP JUMPDEST PUSH1 0x0 DUP2 DUP2 MSTORE PUSH1 0x6 PUSH1 0x20 DUP2 DUP2 MSTORE PUSH1 0x40 DUP1 DUP5 KECCAK256 DUP2 MLOAD PUSH2 0x100 DUP1 DUP3 ADD DUP5 MSTORE DUP3 SLOAD PUSH1 0x1 PUSH1 0x1 PUSH1 0xA0 SHL SUB AND DUP3 MSTORE PUSH1 0x1 DUP4 ADD SLOAD SWAP5 DUP3 ADD SWAP5 SWAP1 SWAP5 MSTORE PUSH1 0x2 DUP3 ADD SLOAD SWAP3 DUP2 ADD SWAP3 SWAP1 SWAP3 MSTORE PUSH1 0x3 DUP2 ADD SLOAD PUSH1 0x60 DUP4 ADD MSTORE PUSH1 0x4 DUP2 ADD SLOAD PUSH1 0x80 DUP4 ADD MSTORE PUSH1 0x5 DUP2 ADD SLOAD PUSH1 0xA0 DUP4 ADD MSTORE SWAP1 SWAP3 ADD SLOAD PUSH1 0xFF DUP1 DUP3 AND ISZERO DUP1 ISZERO PUSH1 0xC0 DUP7 ADD MSTORE SWAP3 SWAP1 SWAP2 DIV AND ISZERO ISZERO PUSH1 0xE0 DUP4 ADD MSTORE DUP1 PUSH2 0xF39 JUMPI POP PUSH1 0x40 DUP2 ADD MLOAD ISZERO JUMPDEST ISZERO PUSH2 0xF47 JUMPI POP PUSH1 0x0 SWAP3 SWAP2 POP POP JUMP JUMPDEST PUSH1 0x0 PUSH2 0xF56 DUP3 PUSH1 0x20 ADD MLOAD PUSH2 0x1E97 JUMP JUMPDEST PUSH1 0x60 DUP4 ADD MLOAD PUSH1 0x0 SWAP1 DUP2 MSTORE PUSH1 0x4 PUSH1 0x20 DUP2 DUP2 MSTORE PUSH1 0x40 DUP1 DUP5 KECCAK256 SLOAD DUP2 MLOAD PUSH4 0x4C6AFEE5 PUSH1 0xE1 SHL DUP2 MSTORE SWAP2 MLOAD SWAP6 SWAP7 POP SWAP4 SWAP5 PUSH1 0x1 PUSH1 0x1 PUSH1 0xA0 SHL SUB SWAP1 SWAP5 AND SWAP4 PUSH4 0x98D5FDCA SWAP4 DUP3 DUP2 ADD SWAP4 SWAP3 DUP3 SWAP1 SUB ADD DUP2 DUP7 GAS STATICCALL ISZERO DUP1 ISZERO PUSH2 0xFB0 JUMPI RETURNDATASIZE PUSH1 0x0 DUP1 RETURNDATACOPY RETURNDATASIZE PUSH1 0x0 REVERT JUMPDEST POP POP POP POP PUSH1 0x40 MLOAD RETURNDATASIZE PUSH1 0x1F NOT PUSH1 0x1F DUP3 ADD AND DUP3 ADD DUP1 PUSH1 0x40 MSTORE POP DUP2 ADD SWAP1 PUSH2 0xFD4 SWAP2 SWAP1 PUSH2 0x45AA JUMP JUMPDEST SWAP1 POP PUSH1 0x0 DUP4 PUSH1 0x40 ADD MLOAD SWAP1 POP PUSH1 0x0 DUP5 PUSH1 0xE0 ADD MLOAD PUSH2 0xFF9 JUMPI PUSH2 0xFF4 DUP4 DUP4 PUSH2 0x45D9 JUMP JUMPDEST PUSH2 0x1003 JUMP JUMPDEST PUSH2 0x1003 DUP3 DUP5 PUSH2 0x45D9 JUMP JUMPDEST SWAP1 POP PUSH1 0x0 DUP3 DUP3 DUP8 PUSH1 0x80 ADD MLOAD DUP8 PUSH2 0x1019 SWAP2 SWAP1 PUSH2 0x4600 JUMP JUMPDEST PUSH2 0x1023 SWAP2 SWAP1 PUSH2 0x4600 JUMP JUMPDEST PUSH2 0x102D SWAP2 SWAP1 PUSH2 0x4646 JUMP JUMPDEST SWAP1 POP PUSH1 0x0 PUSH2 0x103B DUP3 DUP8 PUSH2 0x4674 JUMP JUMPDEST SWAP1 POP PUSH1 0x0 DUP2 SGT PUSH2 0x104C JUMPI PUSH1 0x0 PUSH2 0x104E JUMP JUMPDEST DUP1 JUMPDEST SWAP10 SWAP9 POP POP POP POP POP POP POP POP POP JUMP JUMPDEST PUSH2 0x1063 PUSH2 0x1820 JUMP JUMPDEST PUSH1 0x1 PUSH1 0x1 PUSH1 0xA0 SHL SUB DUP4 AND PUSH2 0x1105 JUMPI PUSH1 0x0 DUP3 PUSH1 0x1 PUSH1 0x1 PUSH1 0xA0 SHL SUB AND DUP3 PUSH1 0x40 MLOAD PUSH1 0x0 PUSH1 0x40 MLOAD DUP1 DUP4 SUB DUP2 DUP6 DUP8 GAS CALL SWAP3 POP POP POP RETURNDATASIZE DUP1 PUSH1 0x0 DUP2 EQ PUSH2 0x10BE JUMPI PUSH1 0x40 MLOAD SWAP2 POP PUSH1 0x1F NOT PUSH1 0x3F RETURNDATASIZE ADD AND DUP3 ADD PUSH1 0x40 MSTORE RETURNDATASIZE DUP3 MSTORE RETURNDATASIZE PUSH1 0x0 PUSH1 0x20 DUP5 ADD RETURNDATACOPY PUSH2 0x10C3 JUMP JUMPDEST PUSH1 0x60 SWAP2 POP JUMPDEST POP POP SWAP1 POP DUP1 PUSH2 0x10FF JUMPI PUSH1 0x40 MLOAD PUSH3 0x461BCD PUSH1 0xE5 SHL DUP2 MSTORE PUSH1 0x20 PUSH1 0x4 DUP3 ADD MSTORE PUSH1 0x8 PUSH1 0x24 DUP3 ADD MSTORE PUSH8 0x195D1A081CD95B99 PUSH1 0xC2 SHL PUSH1 0x44 DUP3 ADD MSTORE PUSH1 0x64 ADD PUSH2 0x96A JUMP JUMPDEST POP POP POP POP JUMP JUMPDEST PUSH2 0x1119 PUSH1 0x1 PUSH1 0x1 PUSH1 0xA0 SHL SUB DUP5 AND DUP4 DUP4 PUSH2 0x1EA8 JUMP JUMPDEST POP POP POP JUMP JUMPDEST PUSH1 0x0 DUP2 DUP2 MSTORE PUSH1 0x8 PUSH1 0x20 MSTORE PUSH1 0x40 SWAP1 KECCAK256 SLOAD DUP1 PUSH2 0x1170 JUMPI PUSH1 0x40 MLOAD PUSH3 0x461BCD PUSH1 0xE5 SHL DUP2 MSTORE PUSH1 0x20 PUSH1 0x4 DUP3 ADD MSTORE PUSH1 0x13 PUSH1 0x24 DUP3 ADD MSTORE PUSH19 0x474D583A20756E6B6E6F776E20676D784B6579 PUSH1 0x68 SHL PUSH1 0x44 DUP3 ADD MSTORE PUSH1 0x64 ADD PUSH2 0x96A JUMP JUMPDEST PUSH1 0x0 DUP2 DUP2 MSTORE PUSH1 0x7 PUSH1 0x20 MSTORE PUSH1 0x40 SWAP1 KECCAK256 DUP1 SLOAD PUSH1 0x1 PUSH1 0x1 PUSH1 0xA0 SHL SUB AND ISZERO DUP1 ISZERO SWAP1 PUSH2 0x119C JUMPI POP PUSH1 0x3 DUP2 ADD SLOAD PUSH1 0xFF AND ISZERO JUMPDEST PUSH2 0x11B8 JUMPI PUSH1 0x40 MLOAD PUSH3 0x461BCD PUSH1 0xE5 SHL DUP2 MSTORE PUSH1 0x4 ADD PUSH2 0x96A SWAP1 PUSH2 0x440A JUMP JUMPDEST PUSH2 0x11C1 DUP4 PUSH2 0x1F07 JUMP JUMPDEST ISZERO PUSH2 0x120E JUMPI PUSH1 0x40 MLOAD PUSH3 0x461BCD PUSH1 0xE5 SHL DUP2 MSTORE PUSH1 0x20 PUSH1 0x4 DUP3 ADD MSTORE PUSH1 0x18 PUSH1 0x24 DUP3 ADD MSTORE PUSH32 0x474D583A206F72646572207374696C6C2070656E64696E670000000000000000 PUSH1 0x44 DUP3 ADD MSTORE PUSH1 0x64 ADD PUSH2 0x96A JUMP JUMPDEST PUSH1 0x1 DUP2 ADD SLOAD PUSH1 0x0 SWAP1 DUP2 MSTORE PUSH1 0x6 PUSH1 0x20 DUP2 SWAP1 MSTORE PUSH1 0x40 DUP3 KECCAK256 PUSH1 0x3 DUP2 ADD SLOAD SWAP2 DUP2 ADD SLOAD SWAP1 SWAP3 SWAP2 PUSH2 0x1240 SWAP2 PUSH2 0x100 SWAP1 DIV PUSH1 0xFF AND PUSH2 0x204A JUMP JUMPDEST DUP4 SLOAD SWAP1 SWAP2 POP PUSH1 0x1 PUSH1 0xA0 SHL SWAP1 DIV PUSH1 0xFF AND PUSH1 0x1 SUB PUSH2 0x1274 JUMPI DUP1 PUSH2 0x126A JUMPI PUSH2 0x1265 DUP5 DUP5 PUSH2 0x21E3 JUMP JUMPDEST PUSH2 0x128D JUMP JUMPDEST PUSH2 0x1265 DUP5 DUP5 PUSH2 0x184D JUMP JUMPDEST DUP1 PUSH2 0x1283 JUMPI PUSH2 0x1265 DUP5 DUP5 PUSH2 0x184D JUMP JUMPDEST PUSH2 0x128D DUP5 DUP5 PUSH2 0x21E3 JUMP JUMPDEST POP POP POP POP POP JUMP JUMPDEST PUSH1 0x0 PUSH2 0x12A2 DUP4 DUP4 PUSH1 0x1 PUSH2 0x2411 JUMP JUMPDEST SWAP1 POP JUMPDEST SWAP3 SWAP2 POP POP JUMP JUMPDEST PUSH2 0x12B3 PUSH2 0x1820 JUMP JUMPDEST PUSH2 0x12BD PUSH1 0x0 PUSH2 0x2709 JUMP JUMPDEST JUMP JUMPDEST PUSH1 0x0 DUP2 DUP2 MSTORE PUSH1 0x6 PUSH1 0x20 DUP2 DUP2 MSTORE PUSH1 0x40 DUP1 DUP5 KECCAK256 DUP2 MLOAD PUSH2 0x100 DUP1 DUP3 ADD DUP5 MSTORE DUP3 SLOAD PUSH1 0x1 PUSH1 0x1 PUSH1 0xA0 SHL SUB AND DUP3 MSTORE PUSH1 0x1 DUP4 ADD SLOAD SWAP5 DUP3 ADD SWAP5 SWAP1 SWAP5 MSTORE PUSH1 0x2 DUP3 ADD SLOAD SWAP3 DUP2 ADD SWAP3 SWAP1 SWAP3 MSTORE PUSH1 0x3 DUP2 ADD SLOAD PUSH1 0x60 DUP4 ADD MSTORE PUSH1 0x4 DUP2 ADD SLOAD PUSH1 0x80 DUP4 ADD MSTORE PUSH1 0x5 DUP2 ADD SLOAD PUSH1 0xA0 DUP4 ADD MSTORE SWAP1 SWAP3 ADD SLOAD PUSH1 0xFF DUP1 DUP3 AND ISZERO ISZERO PUSH1 0xC0 DUP6 ADD DUP2 SWAP1 MSTORE SWAP3 SWAP1 SWAP2 DIV AND ISZERO ISZERO PUSH1 0xE0 DUP4 ADD MSTORE PUSH2 0x137A JUMPI PUSH1 0x40 MLOAD PUSH3 0x461BCD PUSH1 0xE5 SHL DUP2 MSTORE PUSH1 0x20 PUSH1 0x4 DUP3 ADD MSTORE PUSH1 0x10 PUSH1 0x24 DUP3 ADD MSTORE PUSH16 0x23A6AC1D103737903837B9B4BA34B7B7 PUSH1 0x81 SHL PUSH1 0x44 DUP3 ADD MSTORE PUSH1 0x64 ADD PUSH2 0x96A JUMP JUMPDEST PUSH1 0x60 DUP2 ADD MLOAD PUSH1 0x0 SWAP1 DUP2 MSTORE PUSH1 0x5 PUSH1 0x20 MSTORE PUSH1 0x40 DUP2 KECCAK256 SLOAD PUSH1 0x1 PUSH1 0x1 PUSH1 0xA0 SHL SUB AND SWAP1 DUP2 ISZERO PUSH2 0x13D5 JUMPI PUSH1 0x0 DUP4 PUSH1 0xE0 ADD MLOAD PUSH2 0x13B1 JUMPI PUSH1 0x2 SLOAD PUSH2 0x13B5 JUMP JUMPDEST PUSH1 0x3 SLOAD JUMPDEST SWAP1 POP PUSH2 0x13D1 DUP4 PUSH1 0x4 PUSH1 0x0 DUP8 PUSH1 0xA0 ADD MLOAD PUSH1 0x0 DUP7 DUP11 PUSH1 0xE0 ADD MLOAD PUSH2 0x2759 JUMP JUMPDEST SWAP2 POP POP JUMPDEST PUSH2 0x13DE CALLER PUSH2 0x2C6B JUMP JUMPDEST PUSH1 0x40 DUP1 MLOAD PUSH1 0xA0 DUP2 ADD DUP3 MSTORE CALLER DUP2 MSTORE PUSH1 0x2 PUSH1 0x20 DUP1 DUP4 ADD DUP3 DUP2 MSTORE DUP4 DUP6 ADD DUP12 DUP2 MSTORE PUSH1 0x60 DUP6 ADD DUP9 DUP2 MSTORE PUSH1 0x0 PUSH1 0x80 DUP8 ADD DUP2 DUP2 MSTORE DUP10 DUP3 MSTORE PUSH1 0x7 SWAP1 SWAP6 MSTORE SWAP7 SWAP1 SWAP7 KECCAK256 SWAP5 MLOAD DUP6 SLOAD SWAP3 MLOAD PUSH1 0xFF AND PUSH1 0x1 PUSH1 0xA0 SHL MUL PUSH1 0x1 PUSH1 0x1 PUSH1 0xA8 SHL SUB NOT SWAP1 SWAP4 AND PUSH1 0x1 PUSH1 0x1 PUSH1 0xA0 SHL SUB SWAP2 SWAP1 SWAP2 AND OR SWAP2 SWAP1 SWAP2 OR DUP5 SSTORE MLOAD PUSH1 0x1 DUP5 ADD SSTORE SWAP3 MLOAD SWAP1 DUP3 ADD SSTORE SWAP1 MLOAD PUSH1 0x3 SWAP1 SWAP2 ADD DUP1 SLOAD SWAP2 ISZERO ISZERO PUSH1 0xFF NOT SWAP1 SWAP3 AND SWAP2 SWAP1 SWAP2 OR SWAP1 SSTORE SWAP4 POP DUP1 ISZERO PUSH2 0x1483 JUMPI PUSH1 0x0 DUP2 DUP2 MSTORE PUSH1 0x8 PUSH1 0x20 MSTORE PUSH1 0x40 SWAP1 KECCAK256 DUP5 SWAP1 SSTORE JUMPDEST PUSH1 0x40 DUP1 MLOAD PUSH1 0x2 DUP2 MSTORE PUSH1 0x20 DUP2 ADD DUP4 SWAP1 MSTORE CALLER SWAP2 DUP7 SWAP2 PUSH32 0x540C54BD4517B6E7F64D6F6B3409494C1882F2141F71895F5294AFDB60931FF8 SWAP2 ADD PUSH1 0x40 MLOAD DUP1 SWAP2 SUB SWAP1 LOG3 POP POP POP SWAP2 SWAP1 POP JUMP JUMPDEST PUSH2 0x14D1 PUSH2 0x1820 JUMP JUMPDEST PUSH1 0x0 DUP2 DUP2 MSTORE PUSH1 0x7 PUSH1 0x20 MSTORE PUSH1 0x40 SWAP1 KECCAK256 DUP1 SLOAD PUSH1 0x1 PUSH1 0x1 PUSH1 0xA0 SHL SUB AND ISZERO DUP1 ISZERO SWAP1 PUSH2 0x14FD JUMPI POP PUSH1 0x3 DUP2 ADD SLOAD PUSH1 0xFF AND ISZERO JUMPDEST PUSH2 0x1519 JUMPI PUSH1 0x40 MLOAD PUSH3 0x461BCD PUSH1 0xE5 SHL DUP2 MSTORE PUSH1 0x4 ADD PUSH2 0x96A SWAP1 PUSH2 0x440A JUMP JUMPDEST PUSH2 0x97D DUP3 DUP3 PUSH2 0x21E3 JUMP JUMPDEST PUSH1 0x0 DUP3 DUP2 MSTORE PUSH1 0x6 PUSH1 0x20 DUP2 SWAP1 MSTORE PUSH1 0x40 DUP3 KECCAK256 SWAP1 DUP2 ADD SLOAD PUSH1 0xFF AND PUSH2 0x1579 JUMPI PUSH1 0x40 MLOAD PUSH3 0x461BCD PUSH1 0xE5 SHL DUP2 MSTORE PUSH1 0x20 PUSH1 0x4 DUP3 ADD MSTORE PUSH1 0x10 PUSH1 0x24 DUP3 ADD MSTORE PUSH16 0x23A6AC1D103737903837B9B4BA34B7B7 PUSH1 0x81 SHL PUSH1 0x44 DUP3 ADD MSTORE PUSH1 0x64 ADD PUSH2 0x96A JUMP JUMPDEST DUP1 SLOAD PUSH1 0x1 PUSH1 0x1 PUSH1 0xA0 SHL SUB AND CALLER EQ PUSH2 0x15A2 JUMPI PUSH1 0x40 MLOAD PUSH3 0x461BCD PUSH1 0xE5 SHL DUP2 MSTORE PUSH1 0x4 ADD PUSH2 0x96A SWAP1 PUSH2 0x4432 JUMP JUMPDEST PUSH1 0x0 PUSH2 0x15B5 PUSH2 0x15B0 DUP7 PUSH2 0xEB1 JUMP JUMPDEST PUSH2 0x2CD7 JUMP JUMPDEST SWAP1 POP PUSH1 0x0 DUP2 GT DUP1 ISZERO PUSH2 0x15C7 JUMPI POP DUP1 DUP5 GT ISZERO JUMPDEST PUSH2 0x1609 JUMPI PUSH1 0x40 MLOAD PUSH3 0x461BCD PUSH1 0xE5 SHL DUP2 MSTORE PUSH1 0x20 PUSH1 0x4 DUP3 ADD MSTORE PUSH1 0x13 PUSH1 0x24 DUP3 ADD MSTORE PUSH19 0x474D583A206578636565647320657175697479 PUSH1 0x68 SHL PUSH1 0x44 DUP3 ADD MSTORE PUSH1 0x64 ADD PUSH2 0x96A JUMP JUMPDEST PUSH1 0x0 DUP2 DUP6 DUP5 PUSH1 0x1 ADD SLOAD PUSH2 0x161C SWAP2 SWAP1 PUSH2 0x4694 JUMP JUMPDEST PUSH2 0x1626 SWAP2 SWAP1 PUSH2 0x46AB JUMP JUMPDEST SWAP1 POP DUP3 PUSH1 0x1 ADD SLOAD DUP2 GT ISZERO PUSH2 0x163B JUMPI POP PUSH1 0x1 DUP3 ADD SLOAD JUMPDEST DUP1 DUP4 PUSH1 0x1 ADD PUSH1 0x0 DUP3 DUP3 SLOAD PUSH2 0x164F SWAP2 SWAP1 PUSH2 0x46BF JUMP JUMPDEST SWAP1 SWAP2 SSTORE POP POP PUSH1 0x40 MLOAD PUSH4 0x70A08231 PUSH1 0xE0 SHL DUP2 MSTORE ADDRESS PUSH1 0x4 DUP3 ADD MSTORE PUSH1 0x0 SWAP1 PUSH32 0x0 PUSH1 0x1 PUSH1 0x1 PUSH1 0xA0 SHL SUB AND SWAP1 PUSH4 0x70A08231 SWAP1 PUSH1 0x24 ADD PUSH1 0x20 PUSH1 0x40 MLOAD DUP1 DUP4 SUB DUP2 DUP7 GAS STATICCALL ISZERO DUP1 ISZERO PUSH2 0x16BB JUMPI RETURNDATASIZE PUSH1 0x0 DUP1 RETURNDATACOPY RETURNDATASIZE PUSH1 0x0 REVERT JUMPDEST POP POP POP POP PUSH1 0x40 MLOAD RETURNDATASIZE PUSH1 0x1F NOT PUSH1 0x1F DUP3 ADD AND DUP3 ADD DUP1 PUSH1 0x40 MSTORE POP DUP2 ADD SWAP1 PUSH2 0x16DF SWAP2 SWAP1 PUSH2 0x45AA JUMP JUMPDEST SWAP1 POP DUP1 DUP7 GT PUSH2 0x16EE JUMPI DUP6 PUSH2 0x16F0 JUMP JUMPDEST DUP1 JUMPDEST SWAP5 POP DUP5 ISZERO PUSH2 0x1731 JUMPI DUP4 SLOAD PUSH2 0x1731 SWAP1 PUSH1 0x1 PUSH1 0x1 PUSH1 0xA0 SHL SUB PUSH32 0x0 DUP2 AND SWAP2 AND DUP8 PUSH2 0x1EA8 JUMP JUMPDEST POP POP POP POP SWAP3 SWAP2 POP POP JUMP JUMPDEST PUSH2 0x1743 PUSH2 0x2CE8 JUMP JUMPDEST PUSH1 0x40 MLOAD DUP4 SWAP1 PUSH32 0xCE2584FE4322FCADA2EFBB32D03EEBD6C5A7B73784A90FD6F527E2344A3BE6BB SWAP1 PUSH1 0x0 SWAP1 LOG2 POP POP POP JUMP JUMPDEST PUSH2 0x177B PUSH2 0x1820 JUMP JUMPDEST PUSH1 0xB DUP1 SLOAD PUSH1 0x1 PUSH1 0x1 PUSH1 0xA0 SHL SUB NOT AND PUSH1 0x1 PUSH1 0x1 PUSH1 0xA0 SHL SUB SWAP3 SWAP1 SWAP3 AND SWAP2 SWAP1 SWAP2 OR SWAP1 SSTORE JUMP JUMPDEST PUSH1 0x0 PUSH2 0x12A2 DUP4 DUP4 PUSH1 0x0 PUSH2 0x2411 JUMP JUMPDEST PUSH1 0x0 PUSH2 0xA95 DUP7 DUP7 DUP7 DUP7 PUSH1 0x0 DUP8 PUSH2 0x1A16 JUMP JUMPDEST PUSH2 0x17C4 PUSH2 0x2CE8 JUMP JUMPDEST PUSH2 0x1119 DUP4 PUSH1 0x0 PUSH2 0x2D4B JUMP JUMPDEST PUSH2 0x17D7 PUSH2 0x1820 JUMP JUMPDEST PUSH1 0x1 PUSH1 0x1 PUSH1 0xA0 SHL SUB DUP2 AND PUSH2 0x1801 JUMPI PUSH1 0x40 MLOAD PUSH4 0x1E4FBDF7 PUSH1 0xE0 SHL DUP2 MSTORE PUSH1 0x0 PUSH1 0x4 DUP3 ADD MSTORE PUSH1 0x24 ADD PUSH2 0x96A JUMP JUMPDEST PUSH2 0x180A DUP2 PUSH2 0x2709 JUMP JUMPDEST POP JUMP JUMPDEST PUSH2 0x1815 PUSH2 0x2CE8 JUMP JUMPDEST PUSH2 0x1119 DUP4 PUSH1 0x1 PUSH2 0x2D4B JUMP JUMPDEST PUSH1 0x0 SLOAD PUSH1 0x1 PUSH1 0x1 PUSH1 0xA0 SHL SUB AND CALLER EQ PUSH2 0x12BD JUMPI PUSH1 0x40 MLOAD PUSH4 0x118CDAA7 PUSH1 0xE0 SHL DUP2 MSTORE CALLER PUSH1 0x4 DUP3 ADD MSTORE PUSH1 0x24 ADD PUSH2 0x96A JUMP JUMPDEST PUSH1 0x3 DUP2 ADD DUP1 SLOAD PUSH1 0xFF NOT AND PUSH1 0x1 SWAP1 DUP2 OR SWAP1 SWAP2 SSTORE DUP2 SLOAD PUSH1 0x1 PUSH1 0xA0 SHL SWAP1 DIV PUSH1 0xFF AND SWAP1 SUB PUSH2 0x1899 JUMPI PUSH1 0x1 DUP2 DUP2 ADD SLOAD PUSH1 0x0 SWAP1 DUP2 MSTORE PUSH1 0x6 PUSH1 0x20 DUP2 SWAP1 MSTORE PUSH1 0x40 SWAP1 SWAP2 KECCAK256 ADD DUP1 SLOAD PUSH1 0xFF NOT AND SWAP1 SWAP2 OR SWAP1 SSTORE PUSH2 0x19A8 JUMP JUMPDEST PUSH1 0x0 PUSH2 0x18AB PUSH2 0x15B0 DUP4 PUSH1 0x1 ADD SLOAD PUSH2 0xEB1 JUMP JUMPDEST PUSH1 0x40 MLOAD PUSH4 0x70A08231 PUSH1 0xE0 SHL DUP2 MSTORE ADDRESS PUSH1 0x4 DUP3 ADD MSTORE SWAP1 SWAP2 POP PUSH1 0x0 SWAP1 PUSH1 0x1 PUSH1 0x1 PUSH1 0xA0 SHL SUB PUSH32 0x0 AND SWAP1 PUSH4 0x70A08231 SWAP1 PUSH1 0x24 ADD PUSH1 0x20 PUSH1 0x40 MLOAD DUP1 DUP4 SUB DUP2 DUP7 GAS STATICCALL ISZERO DUP1 ISZERO PUSH2 0x1915 JUMPI RETURNDATASIZE PUSH1 0x0 DUP1 RETURNDATACOPY RETURNDATASIZE PUSH1 0x0 REVERT JUMPDEST POP POP POP POP PUSH1 0x40 MLOAD RETURNDATASIZE PUSH1 0x1F NOT PUSH1 0x1F DUP3 ADD AND DUP3 ADD DUP1 PUSH1 0x40 MSTORE POP DUP2 ADD SWAP1 PUSH2 0x1939 SWAP2 SWAP1 PUSH2 0x45AA JUMP JUMPDEST SWAP1 POP DUP1 DUP3 GT ISZERO PUSH2 0x1947 JUMPI DUP1 SWAP2 POP JUMPDEST PUSH1 0x1 DUP4 ADD SLOAD PUSH1 0x0 SWAP1 DUP2 MSTORE PUSH1 0x6 PUSH1 0x20 DUP2 SWAP1 MSTORE PUSH1 0x40 SWAP1 SWAP2 KECCAK256 ADD DUP1 SLOAD PUSH1 0xFF NOT AND SWAP1 SSTORE DUP2 ISZERO PUSH2 0x19A5 JUMPI DUP3 SLOAD PUSH2 0x19A5 SWAP1 PUSH1 0x1 PUSH1 0x1 PUSH1 0xA0 SHL SUB PUSH32 0x0 DUP2 AND SWAP2 AND DUP5 PUSH2 0x1EA8 JUMP JUMPDEST POP POP JUMPDEST DUP2 PUSH32 0xE7CE370CC0425E330FD66BF98129D75F24695DBA59B19D1DF832DA3C809327C3 DUP3 PUSH1 0x2 ADD SLOAD PUSH1 0x40 MLOAD PUSH2 0x19DE SWAP2 DUP2 MSTORE PUSH1 0x20 ADD SWAP1 JUMP JUMPDEST PUSH1 0x40 MLOAD DUP1 SWAP2 SUB SWAP1 LOG2 DUP1 SLOAD PUSH1 0x40 MLOAD PUSH4 0xA83E12BD PUSH1 0xE0 SHL DUP2 MSTORE PUSH1 0x4 DUP2 ADD DUP5 SWAP1 MSTORE PUSH1 0x1 PUSH1 0x1 PUSH1 0xA0 SHL SUB SWAP1 SWAP2 AND SWAP1 PUSH4 0xA83E12BD SWAP1 PUSH1 0x24 ADD PUSH2 0x9B2 JUMP JUMPDEST PUSH1 0x0 DUP1 DUP7 GT PUSH2 0x1A5E JUMPI PUSH1 0x40 MLOAD PUSH3 0x461BCD PUSH1 0xE5 SHL DUP2 MSTORE PUSH1 0x20 PUSH1 0x4 DUP3 ADD MSTORE PUSH1 0x14 PUSH1 0x24 DUP3 ADD MSTORE PUSH20 0x11D3560E881E995C9BC818DBDB1B185D195C985B PUSH1 0x62 SHL PUSH1 0x44 DUP3 ADD MSTORE PUSH1 0x64 ADD PUSH2 0x96A JUMP JUMPDEST PUSH1 0x1 DUP5 LT ISZERO PUSH2 0x1AA3 JUMPI PUSH1 0x40 MLOAD PUSH3 0x461BCD PUSH1 0xE5 SHL DUP2 MSTORE PUSH1 0x20 PUSH1 0x4 DUP3 ADD MSTORE PUSH1 0x11 PUSH1 0x24 DUP3 ADD MSTORE PUSH17 0x474D583A20626164206C65766572616765 PUSH1 0x78 SHL PUSH1 0x44 DUP3 ADD MSTORE PUSH1 0x64 ADD PUSH2 0x96A JUMP JUMPDEST PUSH2 0x1AD8 PUSH1 0x1 PUSH1 0x1 PUSH1 0xA0 SHL SUB PUSH32 0x0 AND CALLER ADDRESS DUP10 PUSH2 0x2E26 JUMP JUMPDEST PUSH1 0x0 DUP5 PUSH2 0x1AEF DUP9 PUSH10 0xD3C21BCECCEDA1000000 PUSH2 0x4694 JUMP JUMPDEST PUSH2 0x1AF9 SWAP2 SWAP1 PUSH2 0x4694 JUMP JUMPDEST PUSH1 0x0 DUP10 DUP2 MSTORE PUSH1 0x5 PUSH1 0x20 MSTORE PUSH1 0x40 DUP2 KECCAK256 SLOAD SWAP2 SWAP3 POP PUSH1 0x1 PUSH1 0x1 PUSH1 0xA0 SHL SUB SWAP1 SWAP2 AND SWAP1 DUP2 ISZERO PUSH2 0x1BC6 JUMPI PUSH1 0x0 DUP1 PUSH1 0x0 DUP9 PUSH1 0x0 SUB PUSH2 0x1B4A JUMPI PUSH1 0x2 SWAP3 POP PUSH1 0x0 SWAP2 POP DUP8 PUSH2 0x1B3F JUMPI PUSH1 0x3 SLOAD PUSH2 0x1B43 JUMP JUMPDEST PUSH1 0x2 SLOAD JUMPDEST SWAP1 POP PUSH2 0x1BB1 JUMP JUMPDEST PUSH1 0x3 SWAP3 POP PUSH2 0x1B62 DUP10 PUSH10 0x21E19E0C9BAB2400000 PUSH2 0x4694 JUMP JUMPDEST SWAP2 POP DUP8 ISZERO PUSH2 0x1B8C JUMPI PUSH2 0x2710 PUSH2 0x1B78 PUSH1 0x64 DUP3 PUSH2 0x46D2 JUMP JUMPDEST PUSH2 0x1B82 SWAP1 DUP5 PUSH2 0x4694 JUMP JUMPDEST PUSH2 0x1B43 SWAP2 SWAP1 PUSH2 0x46AB JUMP JUMPDEST PUSH2 0x2710 PUSH2 0x1B9A PUSH1 0x64 DUP3 PUSH2 0x46BF JUMP JUMPDEST PUSH2 0x1BA4 SWAP1 DUP5 PUSH2 0x4694 JUMP JUMPDEST PUSH2 0x1BAE SWAP2 SWAP1 PUSH2 0x46AB JUMP JUMPDEST SWAP1 POP JUMPDEST PUSH2 0x1BC0 DUP6 DUP5 DUP15 DUP10 DUP7 DUP7 DUP15 PUSH2 0x2759 JUMP JUMPDEST SWAP4 POP POP POP POP JUMPDEST PUSH1 0x0 PUSH2 0x1BD3 CALLER DUP13 DUP9 PUSH2 0x9E8 JUMP JUMPDEST SWAP1 POP PUSH1 0x40 MLOAD DUP1 PUSH2 0x100 ADD PUSH1 0x40 MSTORE DUP1 CALLER PUSH1 0x1 PUSH1 0x1 PUSH1 0xA0 SHL SUB AND DUP2 MSTORE PUSH1 0x20 ADD DUP12 DUP2 MSTORE PUSH1 0x20 ADD DUP11 DUP2 MSTORE PUSH1 0x20 ADD DUP13 DUP2 MSTORE PUSH1 0x20 ADD DUP10 DUP2 MSTORE PUSH1 0x20 ADD DUP6 DUP2 MSTORE PUSH1 0x20 ADD PUSH1 0x0 ISZERO ISZERO DUP2 MSTORE PUSH1 0x20 ADD DUP8 ISZERO ISZERO DUP2 MSTORE POP PUSH1 0x6 PUSH1 0x0 DUP4 DUP2 MSTORE PUSH1 0x20 ADD SWAP1 DUP2 MSTORE PUSH1 0x20 ADD PUSH1 0x0 KECCAK256 PUSH1 0x0 DUP3 ADD MLOAD DUP2 PUSH1 0x0 ADD PUSH1 0x0 PUSH2 0x100 EXP DUP2 SLOAD DUP2 PUSH1 0x1 PUSH1 0x1 PUSH1 0xA0 SHL SUB MUL NOT AND SWAP1 DUP4 PUSH1 0x1 PUSH1 0x1 PUSH1 0xA0 SHL SUB AND MUL OR SWAP1 SSTORE POP PUSH1 0x20 DUP3 ADD MLOAD DUP2 PUSH1 0x1 ADD SSTORE PUSH1 0x40 DUP3 ADD MLOAD DUP2 PUSH1 0x2 ADD SSTORE PUSH1 0x60 DUP3 ADD MLOAD DUP2 PUSH1 0x3 ADD SSTORE PUSH1 0x80 DUP3 ADD MLOAD DUP2 PUSH1 0x4 ADD SSTORE PUSH1 0xA0 DUP3 ADD MLOAD DUP2 PUSH1 0x5 ADD SSTORE PUSH1 0xC0 DUP3 ADD MLOAD DUP2 PUSH1 0x6 ADD PUSH1 0x0 PUSH2 0x100 EXP DUP2 SLOAD DUP2 PUSH1 0xFF MUL NOT AND SWAP1 DUP4 ISZERO ISZERO MUL OR SWAP1 SSTORE POP PUSH1 0xE0 DUP3 ADD MLOAD DUP2 PUSH1 0x6 ADD PUSH1 0x1 PUSH2 0x100 EXP DUP2 SLOAD DUP2 PUSH1 0xFF MUL NOT AND SWAP1 DUP4 ISZERO ISZERO MUL OR SWAP1 SSTORE POP SWAP1 POP POP PUSH2 0x1CDB CALLER PUSH2 0x2C6B JUMP JUMPDEST PUSH1 0x40 DUP1 MLOAD PUSH1 0xA0 DUP2 ADD DUP3 MSTORE CALLER DUP2 MSTORE PUSH1 0x1 PUSH1 0x20 DUP1 DUP4 ADD DUP3 DUP2 MSTORE DUP4 DUP6 ADD DUP8 DUP2 MSTORE PUSH1 0x60 DUP6 ADD DUP10 DUP2 MSTORE PUSH1 0x0 PUSH1 0x80 DUP8 ADD DUP2 DUP2 MSTORE DUP10 DUP3 MSTORE PUSH1 0x7 SWAP1 SWAP6 MSTORE SWAP7 SWAP1 SWAP7 KECCAK256 SWAP5 MLOAD DUP6 SLOAD SWAP3 MLOAD PUSH1 0xFF AND PUSH1 0x1 PUSH1 0xA0 SHL MUL PUSH1 0x1 PUSH1 0x1 PUSH1 0xA8 SHL SUB NOT SWAP1 SWAP4 AND PUSH1 0x1 PUSH1 0x1 PUSH1 0xA0 SHL SUB SWAP2 SWAP1 SWAP2 AND OR SWAP2 SWAP1 SWAP2 OR DUP5 SSTORE MLOAD SWAP2 DUP4 ADD SWAP2 SWAP1 SWAP2 SSTORE SWAP2 MLOAD PUSH1 0x2 DUP3 ADD SSTORE SWAP1 MLOAD PUSH1 0x3 SWAP1 SWAP2 ADD DUP1 SLOAD SWAP2 ISZERO ISZERO PUSH1 0xFF NOT SWAP1 SWAP3 AND SWAP2 SWAP1 SWAP2 OR SWAP1 SSTORE SWAP5 POP DUP2 ISZERO PUSH2 0x1D83 JUMPI PUSH1 0x0 DUP3 DUP2 MSTORE PUSH1 0x8 PUSH1 0x20 MSTORE PUSH1 0x40 SWAP1 KECCAK256 DUP6 SWAP1 SSTORE JUMPDEST PUSH1 0x40 DUP1 MLOAD PUSH1 0x1 DUP2 MSTORE PUSH1 0x20 DUP2 ADD DUP5 SWAP1 MSTORE CALLER SWAP2 DUP8 SWAP2 PUSH32 0x540C54BD4517B6E7F64D6F6B3409494C1882F2141F71895F5294AFDB60931FF8 SWAP2 ADD PUSH1 0x40 MLOAD DUP1 SWAP2 SUB SWAP1 LOG3 POP POP POP POP SWAP7 SWAP6 POP POP POP POP POP POP JUMP JUMPDEST PUSH1 0x0 PUSH2 0x1DDC DUP6 DUP6 DUP6 PUSH2 0x9E8 JUMP JUMPDEST PUSH1 0x0 DUP2 DUP2 MSTORE PUSH1 0x6 PUSH1 0x20 DUP2 DUP2 MSTORE PUSH1 0x40 SWAP3 DUP4 SWAP1 KECCAK256 DUP4 MLOAD PUSH2 0x100 DUP1 DUP3 ADD DUP7 MSTORE DUP3 SLOAD PUSH1 0x1 PUSH1 0x1 PUSH1 0xA0 SHL SUB AND DUP3 MSTORE PUSH1 0x1 DUP4 ADD SLOAD SWAP4 DUP3 ADD SWAP4 SWAP1 SWAP4 MSTORE PUSH1 0x2 DUP3 ADD SLOAD SWAP5 DUP2 ADD SWAP5 SWAP1 SWAP5 MSTORE PUSH1 0x3 DUP2 ADD SLOAD PUSH1 0x60 DUP6 ADD MSTORE PUSH1 0x4 DUP2 ADD SLOAD PUSH1 0x80 DUP6 ADD MSTORE PUSH1 0x5 DUP2 ADD SLOAD PUSH1 0xA0 DUP6 ADD MSTORE SWAP1 SWAP2 ADD SLOAD PUSH1 0xFF DUP1 DUP3 AND ISZERO ISZERO PUSH1 0xC0 DUP6 ADD DUP2 DUP2 MSTORE SWAP4 SWAP1 SWAP3 DIV AND ISZERO ISZERO PUSH1 0xE0 DUP5 ADD MSTORE DUP6 MSTORE MLOAD SWAP2 SWAP3 POP SWAP1 PUSH2 0x1E6B JUMPI PUSH1 0x0 PUSH2 0x1E71 JUMP JUMPDEST DUP1 PUSH1 0xA0 ADD MLOAD JUMPDEST PUSH1 0x20 DUP1 DUP6 ADD SWAP2 SWAP1 SWAP2 MSTORE DUP2 ADD MLOAD PUSH1 0x40 DUP1 DUP6 ADD SWAP2 SWAP1 SWAP2 MSTORE ADD MLOAD PUSH1 0x60 SWAP1 SWAP3 ADD SWAP2 SWAP1 SWAP2 MSTORE POP POP POP POP JUMP JUMPDEST PUSH1 0x0 PUSH2 0x12A5 PUSH5 0xE8D4A51000 DUP4 PUSH2 0x4694 JUMP JUMPDEST PUSH1 0x40 MLOAD PUSH1 0x1 PUSH1 0x1 PUSH1 0xA0 SHL SUB DUP4 DUP2 AND PUSH1 0x24 DUP4 ADD MSTORE PUSH1 0x44 DUP3 ADD DUP4 SWAP1 MSTORE PUSH2 0x1119 SWAP2 DUP6 SWAP2 DUP3 AND SWAP1 PUSH4 0xA9059CBB SWAP1 PUSH1 0x64 ADD JUMPDEST PUSH1 0x40 MLOAD PUSH1 0x20 DUP2 DUP4 SUB SUB DUP2 MSTORE SWAP1 PUSH1 0x40 MSTORE SWAP2 POP PUSH1 0xE0 SHL PUSH1 0x20 DUP3 ADD DUP1 MLOAD PUSH1 0x1 PUSH1 0x1 PUSH1 0xE0 SHL SUB DUP4 DUP2 DUP4 AND OR DUP4 MSTORE POP POP POP POP PUSH2 0x2E5F JUMP JUMPDEST PUSH1 0x40 DUP1 MLOAD PUSH32 0x2125B00BB3668454C784FBA74370D25C7B4178EAB20F5346A5FF1C06387445F8 PUSH1 0x20 DUP1 DUP4 ADD SWAP2 SWAP1 SWAP2 MSTORE ADDRESS DUP3 DUP5 ADD MSTORE DUP3 MLOAD DUP1 DUP4 SUB DUP5 ADD DUP2 MSTORE PUSH1 0x60 DUP4 ADD SWAP1 SWAP4 MSTORE DUP3 MLOAD SWAP3 ADD SWAP2 SWAP1 SWAP2 KECCAK256 PUSH1 0x84 DUP3 ADD DUP2 SWAP1 MSTORE PUSH1 0xA4 DUP3 ADD DUP4 SWAP1 MSTORE PUSH1 0x0 SWAP2 DUP3 SWAP1 DUP2 SWAP1 PUSH1 0x1 PUSH1 0x1 PUSH1 0xA0 SHL SUB PUSH32 0x0 AND SWAP1 PUSH1 0xC4 ADD PUSH1 0x40 DUP1 MLOAD PUSH1 0x1F NOT DUP2 DUP5 SUB ADD DUP2 MSTORE SWAP2 DUP2 MSTORE PUSH1 0x20 DUP3 ADD DUP1 MLOAD PUSH1 0x1 PUSH1 0x1 PUSH1 0xE0 SHL SUB AND PUSH4 0x2475100F PUSH1 0xE2 SHL OR SWAP1 MSTORE MLOAD PUSH2 0x1FCA SWAP2 SWAP1 PUSH2 0x4709 JUMP JUMPDEST PUSH1 0x0 PUSH1 0x40 MLOAD DUP1 DUP4 SUB DUP2 DUP6 GAS STATICCALL SWAP2 POP POP RETURNDATASIZE DUP1 PUSH1 0x0 DUP2 EQ PUSH2 0x2005 JUMPI PUSH1 0x40 MLOAD SWAP2 POP PUSH1 0x1F NOT PUSH1 0x3F RETURNDATASIZE ADD AND DUP3 ADD PUSH1 0x40 MSTORE RETURNDATASIZE DUP3 MSTORE RETURNDATASIZE PUSH1 0x0 PUSH1 0x20 DUP5 ADD RETURNDATACOPY PUSH2 0x200A JUMP JUMPDEST PUSH1 0x60 SWAP2 POP JUMPDEST POP SWAP2 POP SWAP2 POP DUP2 ISZERO DUP1 PUSH2 0x201D JUMPI POP PUSH1 0x20 DUP2 MLOAD LT JUMPDEST ISZERO PUSH2 0x202D JUMPI POP PUSH1 0x0 SWAP5 SWAP4 POP POP POP POP JUMP JUMPDEST DUP1 DUP1 PUSH1 0x20 ADD SWAP1 MLOAD DUP2 ADD SWAP1 PUSH2 0x2041 SWAP2 SWAP1 PUSH2 0x4725 JUMP JUMPDEST SWAP6 SWAP5 POP POP POP POP POP JUMP JUMPDEST PUSH1 0x0 DUP3 DUP2 MSTORE PUSH1 0x5 PUSH1 0x20 MSTORE PUSH1 0x40 DUP2 KECCAK256 SLOAD PUSH1 0x1 PUSH1 0x1 PUSH1 0xA0 SHL SUB AND DUP1 ISZERO DUP1 PUSH2 0x2096 JUMPI POP PUSH32 0x0 PUSH1 0x1 PUSH1 0x1 PUSH1 0xA0 SHL SUB AND ISZERO JUMPDEST ISZERO PUSH2 0x20A5 JUMPI PUSH1 0x0 SWAP2 POP POP PUSH2 0x12A5 JUMP JUMPDEST PUSH1 0x40 DUP1 MLOAD ADDRESS PUSH1 0x20 DUP3 ADD MSTORE PUSH1 0x1 PUSH1 0x1 PUSH1 0xA0 SHL SUB DUP4 DUP2 AND SWAP3 DUP3 ADD SWAP3 SWAP1 SWAP3 MSTORE PUSH32 0x0 SWAP1 SWAP2 AND PUSH1 0x60 DUP3 ADD MSTORE DUP4 ISZERO ISZERO PUSH1 0x80 DUP3 ADD MSTORE PUSH1 0x0 SWAP1 PUSH1 0xA0 ADD PUSH1 0x40 DUP1 MLOAD PUSH1 0x1F NOT DUP2 DUP5 SUB ADD DUP2 MSTORE SWAP1 DUP3 SWAP1 MSTORE DUP1 MLOAD PUSH1 0x20 SWAP1 SWAP2 ADD KECCAK256 PUSH4 0x7D47A8B PUSH1 0xE1 SHL DUP3 MSTORE PUSH1 0x1 PUSH1 0x1 PUSH1 0xA0 SHL SUB PUSH32 0x0 DUP2 AND PUSH1 0x4 DUP5 ADD MSTORE PUSH1 0x24 DUP4 ADD DUP3 SWAP1 MSTORE SWAP1 SWAP3 POP PUSH32 0x0 AND SWAP1 PUSH4 0xFA8F516 SWAP1 PUSH1 0x44 ADD PUSH2 0x1A0 PUSH1 0x40 MLOAD DUP1 DUP4 SUB DUP2 DUP7 GAS STATICCALL SWAP3 POP POP POP DUP1 ISZERO PUSH2 0x21BB JUMPI POP PUSH1 0x40 DUP1 MLOAD PUSH1 0x1F RETURNDATASIZE SWAP1 DUP2 ADD PUSH1 0x1F NOT AND DUP3 ADD SWAP1 SWAP3 MSTORE PUSH2 0x21B8 SWAP2 DUP2 ADD SWAP1 PUSH2 0x44A9 JUMP JUMPDEST PUSH1 0x1 JUMPDEST PUSH2 0x21CA JUMPI PUSH1 0x0 SWAP3 POP POP POP PUSH2 0x12A5 JUMP JUMPDEST PUSH1 0x20 ADD MLOAD MLOAD ISZERO ISZERO SWAP3 POP PUSH2 0x12A5 SWAP2 POP POP JUMP JUMPDEST POP POP SWAP3 SWAP2 POP POP JUMP JUMPDEST PUSH1 0x3 DUP2 ADD DUP1 SLOAD PUSH1 0xFF NOT AND PUSH1 0x1 SWAP1 DUP2 OR SWAP1 SWAP2 SSTORE DUP2 SLOAD PUSH1 0x1 PUSH1 0xA0 SHL SWAP1 DIV PUSH1 0xFF AND SWAP1 SUB PUSH2 0x23A3 JUMPI PUSH1 0x1 DUP2 DUP2 ADD SLOAD PUSH1 0x0 DUP2 DUP2 MSTORE PUSH1 0x6 PUSH1 0x20 DUP2 DUP2 MSTORE PUSH1 0x40 DUP1 DUP5 KECCAK256 DUP2 MLOAD PUSH2 0x100 DUP1 DUP3 ADD DUP5 MSTORE DUP3 SLOAD PUSH1 0x1 PUSH1 0x1 PUSH1 0xA0 SHL SUB DUP1 DUP3 AND DUP5 MSTORE SWAP10 DUP5 ADD DUP1 SLOAD DUP5 DUP9 ADD MSTORE PUSH1 0x2 DUP6 ADD DUP1 SLOAD DUP6 DUP9 ADD MSTORE PUSH1 0x3 DUP7 ADD DUP1 SLOAD PUSH1 0x60 DUP8 ADD MSTORE PUSH1 0x4 DUP1 DUP9 ADD DUP1 SLOAD PUSH1 0x80 DUP10 ADD MSTORE PUSH1 0x5 DUP10 ADD DUP1 SLOAD PUSH1 0xA0 DUP11 ADD MSTORE DUP10 DUP14 ADD DUP1 SLOAD PUSH1 0xFF DUP1 DUP3 AND ISZERO ISZERO PUSH1 0xC0 DUP14 ADD MSTORE SWAP10 DUP2 DIV SWAP1 SWAP10 AND ISZERO ISZERO PUSH1 0xE0 DUP12 ADD MSTORE SWAP15 DUP15 MSTORE SWAP12 SWAP1 SWAP11 MSTORE PUSH1 0x1 PUSH1 0x1 PUSH1 0xA0 SHL SUB NOT SWAP1 SWAP5 AND SWAP1 SWAP7 SSTORE SWAP1 DUP10 SWAP1 SSTORE DUP9 SWAP1 SSTORE SWAP3 DUP8 SWAP1 SSTORE SWAP4 DUP7 SWAP1 SSTORE SWAP4 DUP6 SWAP1 SSTORE PUSH2 0xFFFF NOT SWAP1 SWAP3 AND SWAP1 SWAP5 SSTORE SWAP3 MLOAD PUSH4 0x70A08231 PUSH1 0xE0 SHL DUP2 MSTORE ADDRESS SWAP4 DUP2 ADD SWAP4 SWAP1 SWAP4 MSTORE SWAP3 SWAP1 SWAP2 PUSH32 0x0 SWAP1 SWAP2 AND SWAP1 PUSH4 0x70A08231 SWAP1 PUSH1 0x24 ADD PUSH1 0x20 PUSH1 0x40 MLOAD DUP1 DUP4 SUB DUP2 DUP7 GAS STATICCALL ISZERO DUP1 ISZERO PUSH2 0x231F JUMPI RETURNDATASIZE PUSH1 0x0 DUP1 RETURNDATACOPY RETURNDATASIZE PUSH1 0x0 REVERT JUMPDEST POP POP POP POP PUSH1 0x40 MLOAD RETURNDATASIZE PUSH1 0x1F NOT PUSH1 0x1F DUP3 ADD AND DUP3 ADD DUP1 PUSH1 0x40 MSTORE POP DUP2 ADD SWAP1 PUSH2 0x2343 SWAP2 SWAP1 PUSH2 0x45AA JUMP JUMPDEST SWAP1 POP PUSH1 0x0 DUP2 DUP4 PUSH1 0x20 ADD MLOAD GT PUSH2 0x235C JUMPI DUP3 PUSH1 0x20 ADD MLOAD PUSH2 0x235E JUMP JUMPDEST DUP2 JUMPDEST SWAP1 POP DUP1 ISZERO PUSH2 0x239F JUMPI DUP4 SLOAD PUSH2 0x239F SWAP1 PUSH1 0x1 PUSH1 0x1 PUSH1 0xA0 SHL SUB PUSH32 0x0 DUP2 AND SWAP2 AND DUP4 PUSH2 0x1EA8 JUMP JUMPDEST POP POP POP JUMPDEST DUP2 PUSH32 0xB751D7BC7E902E8C7F5AE3B5A5CFAF6469FADD348681B2CDF779031FB629ADC DUP3 PUSH1 0x2 ADD SLOAD PUSH1 0x40 MLOAD PUSH2 0x23D9 SWAP2 DUP2 MSTORE PUSH1 0x20 ADD SWAP1 JUMP JUMPDEST PUSH1 0x40 MLOAD DUP1 SWAP2 SUB SWAP1 LOG2 DUP1 SLOAD PUSH1 0x40 MLOAD PUSH4 0x41FCF163 PUSH1 0xE0 SHL DUP2 MSTORE PUSH1 0x4 DUP2 ADD DUP5 SWAP1 MSTORE PUSH1 0x1 PUSH1 0x1 PUSH1 0xA0 SHL SUB SWAP1 SWAP2 AND SWAP1 PUSH4 0x41FCF163 SWAP1 PUSH1 0x24 ADD PUSH2 0x9B2 JUMP JUMPDEST PUSH1 0x0 DUP1 DUP4 GT PUSH2 0x245C JUMPI PUSH1 0x40 MLOAD PUSH3 0x461BCD PUSH1 0xE5 SHL DUP2 MSTORE PUSH1 0x20 PUSH1 0x4 DUP3 ADD MSTORE PUSH1 0x17 PUSH1 0x24 DUP3 ADD MSTORE PUSH23 0x474D583A207A65726F2074726967676572207072696365 PUSH1 0x48 SHL PUSH1 0x44 DUP3 ADD MSTORE PUSH1 0x64 ADD PUSH2 0x96A JUMP JUMPDEST PUSH1 0x0 DUP5 DUP2 MSTORE PUSH1 0x6 PUSH1 0x20 DUP2 DUP2 MSTORE PUSH1 0x40 SWAP3 DUP4 SWAP1 KECCAK256 DUP4 MLOAD PUSH2 0x100 DUP1 DUP3 ADD DUP7 MSTORE DUP3 SLOAD PUSH1 0x1 PUSH1 0x1 PUSH1 0xA0 SHL SUB AND DUP3 MSTORE PUSH1 0x1 DUP4 ADD SLOAD SWAP4 DUP3 ADD SWAP4 SWAP1 SWAP4 MSTORE PUSH1 0x2 DUP3 ADD SLOAD SWAP5 DUP2 ADD SWAP5 SWAP1 SWAP5 MSTORE PUSH1 0x3 DUP2 ADD SLOAD PUSH1 0x60 DUP6 ADD MSTORE PUSH1 0x4 DUP2 ADD SLOAD PUSH1 0x80 DUP6 ADD MSTORE PUSH1 0x5 DUP2 ADD SLOAD PUSH1 0xA0 DUP6 ADD MSTORE SWAP1 SWAP2 ADD SLOAD PUSH1 0xFF DUP1 DUP3 AND ISZERO ISZERO PUSH1 0xC0 DUP6 ADD DUP2 SWAP1 MSTORE SWAP3 SWAP1 SWAP2 DIV AND ISZERO ISZERO PUSH1 0xE0 DUP4 ADD MSTORE PUSH2 0x2525 JUMPI PUSH1 0x40 MLOAD PUSH3 0x461BCD PUSH1 0xE5 SHL DUP2 MSTORE PUSH1 0x20 PUSH1 0x4 DUP3 ADD MSTORE PUSH1 0x17 PUSH1 0x24 DUP3 ADD MSTORE PUSH32 0x474D583A206E6F2061637469766520706F736974696F6E000000000000000000 PUSH1 0x44 DUP3 ADD MSTORE PUSH1 0x64 ADD PUSH2 0x96A JUMP JUMPDEST DUP1 MLOAD PUSH1 0x1 PUSH1 0x1 PUSH1 0xA0 SHL SUB AND CALLER EQ PUSH2 0x254E JUMPI PUSH1 0x40 MLOAD PUSH3 0x461BCD PUSH1 0xE5 SHL DUP2 MSTORE PUSH1 0x4 ADD PUSH2 0x96A SWAP1 PUSH2 0x4432 JUMP JUMPDEST PUSH1 0x60 DUP2 ADD MLOAD PUSH1 0x0 SWAP1 DUP2 MSTORE PUSH1 0x5 PUSH1 0x20 MSTORE PUSH1 0x40 DUP2 KECCAK256 SLOAD PUSH1 0x1 PUSH1 0x1 PUSH1 0xA0 SHL SUB AND SWAP1 DUP2 ISZERO PUSH2 0x2615 JUMPI PUSH1 0x0 DUP6 PUSH2 0x2580 JUMPI PUSH1 0x6 PUSH2 0x2583 JUMP JUMPDEST PUSH1 0x5 JUMPDEST SWAP1 POP PUSH1 0x0 PUSH2 0x259B DUP9 PUSH10 0x21E19E0C9BAB2400000 PUSH2 0x4694 JUMP JUMPDEST SWAP1 POP PUSH1 0x0 DUP6 PUSH1 0xE0 ADD MLOAD ISZERO PUSH2 0x25D2 JUMPI PUSH2 0x2710 PUSH2 0x25B7 PUSH1 0x64 DUP3 PUSH2 0x46BF JUMP JUMPDEST PUSH2 0x25C1 SWAP1 DUP5 PUSH2 0x4694 JUMP JUMPDEST PUSH2 0x25CB SWAP2 SWAP1 PUSH2 0x46AB JUMP JUMPDEST SWAP1 POP PUSH2 0x25F7 JUMP JUMPDEST PUSH2 0x2710 PUSH2 0x25E0 PUSH1 0x64 DUP3 PUSH2 0x46D2 JUMP JUMPDEST PUSH2 0x25EA SWAP1 DUP5 PUSH2 0x4694 JUMP JUMPDEST PUSH2 0x25F4 SWAP2 SWAP1 PUSH2 0x46AB JUMP JUMPDEST SWAP1 POP JUMPDEST PUSH2 0x260F DUP6 DUP5 PUSH1 0x0 DUP10 PUSH1 0xA0 ADD MLOAD DUP7 DUP7 DUP13 PUSH1 0xE0 ADD MLOAD PUSH2 0x2759 JUMP JUMPDEST SWAP4 POP POP POP POP JUMPDEST PUSH2 0x261E CALLER PUSH2 0x2C6B JUMP JUMPDEST PUSH1 0x40 DUP1 MLOAD PUSH1 0xA0 DUP2 ADD DUP3 MSTORE CALLER DUP2 MSTORE PUSH1 0x3 PUSH1 0x20 DUP1 DUP4 ADD DUP3 DUP2 MSTORE DUP4 DUP6 ADD DUP14 DUP2 MSTORE PUSH1 0x60 DUP6 ADD DUP9 DUP2 MSTORE PUSH1 0x0 PUSH1 0x80 DUP8 ADD DUP2 DUP2 MSTORE DUP10 DUP3 MSTORE PUSH1 0x7 SWAP1 SWAP6 MSTORE SWAP7 SWAP1 SWAP7 KECCAK256 SWAP5 MLOAD DUP6 SLOAD SWAP3 MLOAD PUSH1 0xFF AND PUSH1 0x1 PUSH1 0xA0 SHL MUL PUSH1 0x1 PUSH1 0x1 PUSH1 0xA8 SHL SUB NOT SWAP1 SWAP4 AND PUSH1 0x1 PUSH1 0x1 PUSH1 0xA0 SHL SUB SWAP2 SWAP1 SWAP2 AND OR SWAP2 SWAP1 SWAP2 OR DUP5 SSTORE MLOAD PUSH1 0x1 DUP5 ADD SSTORE SWAP3 MLOAD PUSH1 0x2 DUP4 ADD SSTORE SWAP2 MLOAD SWAP2 ADD DUP1 SLOAD SWAP2 ISZERO ISZERO PUSH1 0xFF NOT SWAP1 SWAP3 AND SWAP2 SWAP1 SWAP2 OR SWAP1 SSTORE SWAP4 POP DUP1 ISZERO PUSH2 0x26C1 JUMPI PUSH1 0x0 DUP2 DUP2 MSTORE PUSH1 0x8 PUSH1 0x20 MSTORE PUSH1 0x40 SWAP1 KECCAK256 DUP5 SWAP1 SSTORE JUMPDEST PUSH1 0x40 DUP1 MLOAD PUSH1 0x3 DUP2 MSTORE PUSH1 0x20 DUP2 ADD DUP4 SWAP1 MSTORE CALLER SWAP2 DUP7 SWAP2 PUSH32 0x540C54BD4517B6E7F64D6F6B3409494C1882F2141F71895F5294AFDB60931FF8 SWAP2 ADD PUSH1 0x40 MLOAD DUP1 SWAP2 SUB SWAP1 LOG3 POP POP POP SWAP4 SWAP3 POP POP POP JUMP JUMPDEST PUSH1 0x0 DUP1 SLOAD PUSH1 0x1 PUSH1 0x1 PUSH1 0xA0 SHL SUB DUP4 DUP2 AND PUSH1 0x1 PUSH1 0x1 PUSH1 0xA0 SHL SUB NOT DUP4 AND DUP2 OR DUP5 SSTORE PUSH1 0x40 MLOAD SWAP2 SWAP1 SWAP3 AND SWAP3 DUP4 SWAP2 PUSH32 0x8BE0079C531659141344CD1FD0A4F28419497F9722A3DAAFE3B4186F6B6457E0 SWAP2 SWAP1 LOG3 POP POP JUMP JUMPDEST PUSH1 0x1 SLOAD PUSH1 0x0 SWAP1 SELFBALANCE DUP2 GT ISZERO PUSH2 0x27AF JUMPI PUSH1 0x40 MLOAD PUSH3 0x461BCD PUSH1 0xE5 SHL DUP2 MSTORE PUSH1 0x20 PUSH1 0x4 DUP3 ADD MSTORE PUSH1 0x1E PUSH1 0x24 DUP3 ADD MSTORE PUSH32 0x474D583A206164617074657220756E64657266756E6465642028455448290000 PUSH1 0x44 DUP3 ADD MSTORE PUSH1 0x64 ADD PUSH2 0x96A JUMP JUMPDEST PUSH1 0x40 DUP1 MLOAD PUSH2 0x200 DUP2 ADD DUP3 MSTORE ADDRESS PUSH2 0x120 DUP3 ADD DUP2 DUP2 MSTORE PUSH2 0x140 DUP4 ADD DUP3 SWAP1 MSTORE PUSH2 0x160 DUP4 ADD SWAP2 SWAP1 SWAP2 MSTORE PUSH1 0x0 PUSH2 0x180 DUP4 ADD DUP2 SWAP1 MSTORE PUSH1 0x1 PUSH1 0x1 PUSH1 0xA0 SHL SUB DUP14 DUP2 AND PUSH2 0x1A0 DUP6 ADD MSTORE PUSH32 0x0 AND PUSH2 0x1C0 DUP5 ADD MSTORE DUP4 MLOAD DUP2 DUP2 MSTORE PUSH1 0x20 DUP2 ADD SWAP1 SWAP5 MSTORE SWAP3 DUP3 SWAP2 SWAP1 PUSH2 0x1E0 DUP4 ADD SWAP1 DUP2 MSTORE POP DUP2 MSTORE PUSH1 0x20 ADD PUSH1 0x40 MLOAD DUP1 PUSH2 0x100 ADD PUSH1 0x40 MSTORE DUP1 DUP11 DUP2 MSTORE PUSH1 0x20 ADD DUP12 DUP2 MSTORE PUSH1 0x20 ADD DUP10 DUP2 MSTORE PUSH1 0x20 ADD DUP9 DUP2 MSTORE PUSH1 0x20 ADD DUP6 DUP2 MSTORE PUSH1 0x20 ADD PUSH3 0x16E360 DUP2 MSTORE PUSH1 0x20 ADD PUSH1 0x0 DUP2 MSTORE PUSH1 0x20 ADD PUSH1 0x0 DUP2 MSTORE POP DUP2 MSTORE PUSH1 0x20 ADD DUP11 PUSH1 0xFF AND DUP2 MSTORE PUSH1 0x20 ADD PUSH1 0x0 PUSH1 0xFF AND DUP2 MSTORE PUSH1 0x20 ADD DUP6 ISZERO ISZERO DUP2 MSTORE PUSH1 0x20 ADD PUSH1 0x0 ISZERO ISZERO DUP2 MSTORE PUSH1 0x20 ADD PUSH1 0x0 ISZERO ISZERO DUP2 MSTORE PUSH1 0x20 ADD PUSH1 0x0 DUP1 SHL DUP2 MSTORE PUSH1 0x20 ADD PUSH1 0x0 PUSH1 0x1 PUSH1 0x1 PUSH1 0x40 SHL SUB DUP2 GT ISZERO PUSH2 0x28C8 JUMPI PUSH2 0x28C8 PUSH2 0x3061 JUMP JUMPDEST PUSH1 0x40 MLOAD SWAP1 DUP1 DUP3 MSTORE DUP1 PUSH1 0x20 MUL PUSH1 0x20 ADD DUP3 ADD PUSH1 0x40 MSTORE DUP1 ISZERO PUSH2 0x28F1 JUMPI DUP2 PUSH1 0x20 ADD PUSH1 0x20 DUP3 MUL DUP1 CALLDATASIZE DUP4 CALLDATACOPY ADD SWAP1 POP JUMPDEST POP SWAP1 MSTORE SWAP1 POP PUSH1 0x0 PUSH1 0xFF DUP11 AND PUSH1 0x2 EQ DUP1 PUSH2 0x290D JUMPI POP PUSH1 0xFF DUP11 AND PUSH1 0x3 EQ JUMPDEST SWAP1 POP PUSH1 0x0 DUP2 PUSH2 0x291D JUMPI PUSH1 0x2 PUSH2 0x2920 JUMP JUMPDEST PUSH1 0x3 JUMPDEST PUSH1 0xFF AND PUSH1 0x1 PUSH1 0x1 PUSH1 0x40 SHL SUB DUP2 GT ISZERO PUSH2 0x293A JUMPI PUSH2 0x293A PUSH2 0x3061 JUMP JUMPDEST PUSH1 0x40 MLOAD SWAP1 DUP1 DUP3 MSTORE DUP1 PUSH1 0x20 MUL PUSH1 0x20 ADD DUP3 ADD PUSH1 0x40 MSTORE DUP1 ISZERO PUSH2 0x296D JUMPI DUP2 PUSH1 0x20 ADD JUMPDEST PUSH1 0x60 DUP2 MSTORE PUSH1 0x20 ADD SWAP1 PUSH1 0x1 SWAP1 SUB SWAP1 DUP2 PUSH2 0x2958 JUMPI SWAP1 POP JUMPDEST POP PUSH1 0x40 DUP1 MLOAD PUSH32 0x0 PUSH1 0x1 PUSH1 0x1 PUSH1 0xA0 SHL SUB AND PUSH1 0x24 DUP3 ADD MSTORE PUSH1 0x44 DUP1 DUP3 ADD DUP9 SWAP1 MSTORE DUP3 MLOAD DUP1 DUP4 SUB SWAP1 SWAP2 ADD DUP2 MSTORE PUSH1 0x64 SWAP1 SWAP2 ADD SWAP1 SWAP2 MSTORE PUSH1 0x20 DUP2 ADD DUP1 MLOAD PUSH1 0x1 PUSH1 0x1 PUSH1 0xE0 SHL SUB AND PUSH4 0x7D39AAF1 PUSH1 0xE0 SHL OR SWAP1 MSTORE DUP2 MLOAD SWAP2 SWAP3 POP SWAP1 DUP3 SWAP1 PUSH1 0x0 SWAP1 PUSH2 0x29EC JUMPI PUSH2 0x29EC PUSH2 0x4742 JUMP JUMPDEST PUSH1 0x20 MUL PUSH1 0x20 ADD ADD DUP2 SWAP1 MSTORE POP DUP2 ISZERO PUSH2 0x2B1C JUMPI PUSH1 0x40 DUP1 MLOAD PUSH32 0x0 PUSH1 0x1 PUSH1 0x1 PUSH1 0xA0 SHL SUB SWAP1 DUP2 AND PUSH1 0x24 DUP4 ADD MSTORE PUSH32 0x0 AND PUSH1 0x44 DUP3 ADD MSTORE PUSH1 0x64 DUP1 DUP3 ADD DUP14 SWAP1 MSTORE DUP3 MLOAD DUP1 DUP4 SUB SWAP1 SWAP2 ADD DUP2 MSTORE PUSH1 0x84 SWAP1 SWAP2 ADD SWAP1 SWAP2 MSTORE PUSH1 0x20 DUP2 ADD DUP1 MLOAD PUSH1 0x1 PUSH1 0x1 PUSH1 0xE0 SHL SUB AND PUSH4 0x1CDACD59 PUSH1 0xE3 SHL OR SWAP1 MSTORE DUP2 MLOAD DUP3 SWAP1 PUSH1 0x1 SWAP1 DUP2 LT PUSH2 0x2AA2 JUMPI PUSH2 0x2AA2 PUSH2 0x4742 JUMP JUMPDEST PUSH1 0x20 MUL PUSH1 0x20 ADD ADD DUP2 SWAP1 MSTORE POP PUSH4 0xF59C48EB PUSH1 0xE0 SHL DUP4 PUSH1 0x40 MLOAD PUSH1 0x24 ADD PUSH2 0x2AC6 SWAP2 SWAP1 PUSH2 0x4837 JUMP JUMPDEST PUSH1 0x40 MLOAD PUSH1 0x20 DUP2 DUP4 SUB SUB DUP2 MSTORE SWAP1 PUSH1 0x40 MSTORE SWAP1 PUSH1 0x1 PUSH1 0x1 PUSH1 0xE0 SHL SUB NOT AND PUSH1 0x20 DUP3 ADD DUP1 MLOAD PUSH1 0x1 PUSH1 0x1 PUSH1 0xE0 SHL SUB DUP4 DUP2 DUP4 AND OR DUP4 MSTORE POP POP POP POP DUP2 PUSH1 0x2 DUP2 MLOAD DUP2 LT PUSH2 0x2B0C JUMPI PUSH2 0x2B0C PUSH2 0x4742 JUMP JUMPDEST PUSH1 0x20 MUL PUSH1 0x20 ADD ADD DUP2 SWAP1 MSTORE POP PUSH2 0x2B88 JUMP JUMPDEST PUSH1 0x40 MLOAD PUSH4 0xF59C48EB PUSH1 0xE0 SHL SWAP1 PUSH2 0x2B36 SWAP1 DUP6 SWAP1 PUSH1 0x24 ADD PUSH2 0x4837 JUMP JUMPDEST PUSH1 0x40 MLOAD PUSH1 0x20 DUP2 DUP4 SUB SUB DUP2 MSTORE SWAP1 PUSH1 0x40 MSTORE SWAP1 PUSH1 0x1 PUSH1 0x1 PUSH1 0xE0 SHL SUB NOT AND PUSH1 0x20 DUP3 ADD DUP1 MLOAD PUSH1 0x1 PUSH1 0x1 PUSH1 0xE0 SHL SUB DUP4 DUP2 DUP4 AND OR DUP4 MSTORE POP POP POP POP DUP2 PUSH1 0x1 DUP2 MLOAD DUP2 LT PUSH2 0x2B7C JUMPI PUSH2 0x2B7C PUSH2 0x4742 JUMP JUMPDEST PUSH1 0x20 MUL PUSH1 0x20 ADD ADD DUP2 SWAP1 MSTORE POP JUMPDEST PUSH1 0x0 PUSH32 0x0 PUSH1 0x1 PUSH1 0x1 PUSH1 0xA0 SHL SUB AND PUSH4 0xAC9650D8 DUP7 DUP5 PUSH1 0x40 MLOAD DUP4 PUSH4 0xFFFFFFFF AND PUSH1 0xE0 SHL DUP2 MSTORE PUSH1 0x4 ADD PUSH2 0x2BD7 SWAP2 SWAP1 PUSH2 0x491D JUMP JUMPDEST PUSH1 0x0 PUSH1 0x40 MLOAD DUP1 DUP4 SUB DUP2 DUP6 DUP9 GAS CALL ISZERO DUP1 ISZERO PUSH2 0x2BF5 JUMPI RETURNDATASIZE PUSH1 0x0 DUP1 RETURNDATACOPY RETURNDATASIZE PUSH1 0x0 REVERT JUMPDEST POP POP POP POP POP PUSH1 0x40 MLOAD RETURNDATASIZE PUSH1 0x0 DUP3 RETURNDATACOPY PUSH1 0x1F RETURNDATASIZE SWAP1 DUP2 ADD PUSH1 0x1F NOT AND DUP3 ADD PUSH1 0x40 MSTORE PUSH2 0x2C1E SWAP2 SWAP1 DUP2 ADD SWAP1 PUSH2 0x4997 JUMP JUMPDEST SWAP1 POP DUP1 PUSH1 0x1 DUP3 MLOAD PUSH2 0x2C2F SWAP2 SWAP1 PUSH2 0x46BF JUMP JUMPDEST DUP2 MLOAD DUP2 LT PUSH2 0x2C3F JUMPI PUSH2 0x2C3F PUSH2 0x4742 JUMP JUMPDEST PUSH1 0x20 MUL PUSH1 0x20 ADD ADD MLOAD DUP1 PUSH1 0x20 ADD SWAP1 MLOAD DUP2 ADD SWAP1 PUSH2 0x2C5A SWAP2 SWAP1 PUSH2 0x45AA JUMP JUMPDEST SWAP14 SWAP13 POP POP POP POP POP POP POP POP POP POP POP POP POP JUMP JUMPDEST PUSH1 0x9 SLOAD PUSH1 0x40 MLOAD PUSH12 0xFFFFFFFFFFFFFFFFFFFFFFFF NOT PUSH1 0x60 DUP5 SWAP1 SHL AND PUSH1 0x20 DUP3 ADD MSTORE PUSH1 0x34 DUP2 ADD SWAP2 SWAP1 SWAP2 MSTORE NUMBER PUSH1 0x54 DUP3 ADD MSTORE PUSH1 0x0 SWAP1 PUSH1 0x74 ADD PUSH1 0x40 DUP1 MLOAD PUSH1 0x1F NOT DUP2 DUP5 SUB ADD DUP2 MSTORE SWAP2 SWAP1 MSTORE DUP1 MLOAD PUSH1 0x20 SWAP1 SWAP2 ADD KECCAK256 PUSH1 0x9 DUP1 SLOAD SWAP2 SWAP3 POP PUSH1 0x0 PUSH2 0x2CC8 DUP4 PUSH2 0x4A83 JUMP JUMPDEST SWAP1 SWAP2 SSTORE POP POP PUSH1 0xA DUP2 SWAP1 SSTORE SWAP2 SWAP1 POP JUMP JUMPDEST PUSH1 0x0 PUSH2 0x12A5 PUSH5 0xE8D4A51000 DUP4 PUSH2 0x46AB JUMP JUMPDEST PUSH1 0xB SLOAD PUSH1 0x1 PUSH1 0x1 PUSH1 0xA0 SHL SUB AND ISZERO PUSH2 0x12BD JUMPI PUSH1 0xB SLOAD PUSH1 0x1 PUSH1 0x1 PUSH1 0xA0 SHL SUB AND CALLER EQ PUSH2 0x12BD JUMPI PUSH1 0x40 MLOAD PUSH3 0x461BCD PUSH1 0xE5 SHL DUP2 MSTORE PUSH1 0x20 PUSH1 0x4 DUP3 ADD MSTORE PUSH1 0x15 PUSH1 0x24 DUP3 ADD MSTORE PUSH21 0x23A6AC1D103737BA1027B93232B92430B7323632B9 PUSH1 0x59 SHL PUSH1 0x44 DUP3 ADD MSTORE PUSH1 0x64 ADD PUSH2 0x96A JUMP JUMPDEST PUSH1 0x0 DUP3 DUP2 MSTORE PUSH1 0x8 PUSH1 0x20 MSTORE PUSH1 0x40 SWAP1 KECCAK256 SLOAD DUP1 PUSH2 0x2D64 JUMPI POP POP POP JUMP JUMPDEST PUSH1 0x0 DUP2 DUP2 MSTORE PUSH1 0x7 PUSH1 0x20 MSTORE PUSH1 0x40 SWAP1 KECCAK256 DUP1 SLOAD PUSH1 0x1 PUSH1 0x1 PUSH1 0xA0 SHL SUB AND ISZERO DUP1 PUSH2 0x2D8D JUMPI POP PUSH1 0x3 DUP2 ADD SLOAD PUSH1 0xFF AND JUMPDEST ISZERO PUSH2 0x2D98 JUMPI POP POP POP POP JUMP JUMPDEST PUSH1 0x1 DUP2 ADD SLOAD PUSH1 0x0 SWAP1 DUP2 MSTORE PUSH1 0x6 PUSH1 0x20 DUP2 SWAP1 MSTORE PUSH1 0x40 DUP3 KECCAK256 PUSH1 0x3 DUP2 ADD SLOAD SWAP2 DUP2 ADD SLOAD SWAP1 SWAP3 SWAP2 PUSH2 0x2DCA SWAP2 PUSH2 0x100 SWAP1 DIV PUSH1 0xFF AND PUSH2 0x204A JUMP JUMPDEST SWAP1 POP DUP5 ISZERO PUSH2 0x2E1C JUMPI DUP3 SLOAD PUSH1 0x1 PUSH1 0xA0 SHL SWAP1 DIV PUSH1 0xFF AND PUSH1 0x1 SUB PUSH2 0x2E03 JUMPI DUP1 PUSH2 0x2DF9 JUMPI PUSH2 0x2DF4 DUP5 DUP5 PUSH2 0x21E3 JUMP JUMPDEST PUSH2 0x9E0 JUMP JUMPDEST PUSH2 0x2DF4 DUP5 DUP5 PUSH2 0x184D JUMP JUMPDEST DUP1 PUSH2 0x2E12 JUMPI PUSH2 0x2DF4 DUP5 DUP5 PUSH2 0x184D JUMP JUMPDEST PUSH2 0x2DF4 DUP5 DUP5 PUSH2 0x21E3 JUMP JUMPDEST PUSH2 0x9E0 DUP5 DUP5 PUSH2 0x21E3 JUMP JUMPDEST PUSH1 0x40 MLOAD PUSH1 0x1 PUSH1 0x1 PUSH1 0xA0 SHL SUB DUP5 DUP2 AND PUSH1 0x24 DUP4 ADD MSTORE DUP4 DUP2 AND PUSH1 0x44 DUP4 ADD MSTORE PUSH1 0x64 DUP3 ADD DUP4 SWAP1 MSTORE PUSH2 0x10FF SWAP2 DUP7 SWAP2 DUP3 AND SWAP1 PUSH4 0x23B872DD SWAP1 PUSH1 0x84 ADD PUSH2 0x1ED5 JUMP JUMPDEST PUSH1 0x0 DUP1 PUSH1 0x20 PUSH1 0x0 DUP5 MLOAD PUSH1 0x20 DUP7 ADD PUSH1 0x0 DUP9 GAS CALL DUP1 PUSH2 0x2E82 JUMPI PUSH1 0x40 MLOAD RETURNDATASIZE PUSH1 0x0 DUP3 RETURNDATACOPY RETURNDATASIZE DUP2 REVERT JUMPDEST POP POP PUSH1 0x0 MLOAD RETURNDATASIZE SWAP2 POP DUP2 ISZERO PUSH2 0x2E9A JUMPI DUP1 PUSH1 0x1 EQ ISZERO PUSH2 0x2EA7 JUMP JUMPDEST PUSH1 0x1 PUSH1 0x1 PUSH1 0xA0 SHL SUB DUP5 AND EXTCODESIZE ISZERO JUMPDEST ISZERO PUSH2 0x10FF JUMPI PUSH1 0x40 MLOAD PUSH4 0x5274AFE7 PUSH1 0xE0 SHL DUP2 MSTORE PUSH1 0x1 PUSH1 0x1 PUSH1 0xA0 SHL SUB DUP6 AND PUSH1 0x4 DUP3 ADD MSTORE PUSH1 0x24 ADD PUSH2 0x96A JUMP JUMPDEST PUSH1 0x0 PUSH1 0x20 DUP3 DUP5 SUB SLT ISZERO PUSH2 0x2EE2 JUMPI PUSH1 0x0 DUP1 REVERT JUMPDEST POP CALLDATALOAD SWAP2 SWAP1 POP JUMP JUMPDEST PUSH1 0x1 PUSH1 0x1 PUSH1 0xA0 SHL SUB DUP2 AND DUP2 EQ PUSH2 0x180A JUMPI PUSH1 0x0 DUP1 REVERT JUMPDEST PUSH1 0x0 DUP1 PUSH1 0x40 DUP4 DUP6 SUB SLT ISZERO PUSH2 0x2F11 JUMPI PUSH1 0x0 DUP1 REVERT JUMPDEST DUP3 CALLDATALOAD PUSH2 0x2F1C DUP2 PUSH2 0x2EE9 JUMP JUMPDEST SWAP5 PUSH1 0x20 SWAP4 SWAP1 SWAP4 ADD CALLDATALOAD SWAP4 POP POP POP JUMP JUMPDEST DUP1 ISZERO ISZERO DUP2 EQ PUSH2 0x180A JUMPI PUSH1 0x0 DUP1 REVERT JUMPDEST PUSH1 0x0 DUP1 PUSH1 0x0 PUSH1 0x60 DUP5 DUP7 SUB SLT ISZERO PUSH2 0x2F4D JUMPI PUSH1 0x0 DUP1 REVERT JUMPDEST DUP4 CALLDATALOAD PUSH2 0x2F58 DUP2 PUSH2 0x2EE9 JUMP JUMPDEST SWAP3 POP PUSH1 0x20 DUP5 ADD CALLDATALOAD SWAP2 POP PUSH1 0x40 DUP5 ADD CALLDATALOAD PUSH2 0x2F6F DUP2 PUSH2 0x2F2A JUMP JUMPDEST DUP1 SWAP2 POP POP SWAP3 POP SWAP3 POP SWAP3 JUMP JUMPDEST PUSH1 0x0 DUP1 PUSH1 0x0 DUP1 PUSH1 0x0 PUSH1 0xA0 DUP7 DUP9 SUB SLT ISZERO PUSH2 0x2F92 JUMPI PUSH1 0x0 DUP1 REVERT JUMPDEST DUP6 CALLDATALOAD SWAP5 POP PUSH1 0x20 DUP7 ADD CALLDATALOAD SWAP4 POP PUSH1 0x40 DUP7 ADD CALLDATALOAD SWAP3 POP PUSH1 0x60 DUP7 ADD CALLDATALOAD SWAP2 POP PUSH1 0x80 DUP7 ADD CALLDATALOAD PUSH2 0x2FB9 DUP2 PUSH2 0x2F2A JUMP JUMPDEST DUP1 SWAP2 POP POP SWAP3 SWAP6 POP SWAP3 SWAP6 SWAP1 SWAP4 POP JUMP JUMPDEST PUSH1 0x0 DUP1 PUSH1 0x40 DUP4 DUP6 SUB SLT ISZERO PUSH2 0x2FDA JUMPI PUSH1 0x0 DUP1 REVERT JUMPDEST POP POP DUP1 CALLDATALOAD SWAP3 PUSH1 0x20 SWAP1 SWAP2 ADD CALLDATALOAD SWAP2 POP JUMP JUMPDEST PUSH1 0x0 DUP1 PUSH1 0x0 PUSH1 0x60 DUP5 DUP7 SUB SLT ISZERO PUSH2 0x2FFE JUMPI PUSH1 0x0 DUP1 REVERT JUMPDEST DUP4 CALLDATALOAD SWAP3 POP PUSH1 0x20 DUP5 ADD CALLDATALOAD PUSH2 0x3010 DUP2 PUSH2 0x2EE9 JUMP JUMPDEST SWAP2 POP PUSH1 0x40 DUP5 ADD CALLDATALOAD PUSH2 0x2F6F DUP2 PUSH2 0x2EE9 JUMP JUMPDEST PUSH1 0x0 DUP1 PUSH1 0x0 PUSH1 0x60 DUP5 DUP7 SUB SLT ISZERO PUSH2 0x3035 JUMPI PUSH1 0x0 DUP1 REVERT JUMPDEST DUP4 CALLDATALOAD PUSH2 0x3040 DUP2 PUSH2 0x2EE9 JUMP JUMPDEST SWAP3 POP PUSH1 0x20 DUP5 ADD CALLDATALOAD PUSH2 0x3050 DUP2 PUSH2 0x2EE9 JUMP JUMPDEST SWAP3 SWAP6 SWAP3 SWAP5 POP POP POP PUSH1 0x40 SWAP2 SWAP1 SWAP2 ADD CALLDATALOAD SWAP1 JUMP JUMPDEST PUSH4 0x4E487B71 PUSH1 0xE0 SHL PUSH1 0x0 MSTORE PUSH1 0x41 PUSH1 0x4 MSTORE PUSH1 0x24 PUSH1 0x0 REVERT JUMPDEST PUSH1 0x40 DUP1 MLOAD SWAP1 DUP2 ADD PUSH1 0x1 PUSH1 0x1 PUSH1 0x40 SHL SUB DUP2 GT DUP3 DUP3 LT OR ISZERO PUSH2 0x3099 JUMPI PUSH2 0x3099 PUSH2 0x3061 JUMP JUMPDEST PUSH1 0x40 MSTORE SWAP1 JUMP JUMPDEST PUSH1 0x40 MLOAD PUSH1 0xE0 DUP2 ADD PUSH1 0x1 PUSH1 0x1 PUSH1 0x40 SHL SUB DUP2 GT DUP3 DUP3 LT OR ISZERO PUSH2 0x3099 JUMPI PUSH2 0x3099 PUSH2 0x3061 JUMP JUMPDEST PUSH1 0x40 MLOAD PUSH1 0x60 DUP2 ADD PUSH1 0x1 PUSH1 0x1 PUSH1 0x40 SHL SUB DUP2 GT DUP3 DUP3 LT OR ISZERO PUSH2 0x3099 JUMPI PUSH2 0x3099 PUSH2 0x3061 JUMP JUMPDEST PUSH1 0x40 MLOAD PUSH2 0x120 DUP2 ADD PUSH1 0x1 PUSH1 0x1 PUSH1 0x40 SHL SUB DUP2 GT DUP3 DUP3 LT OR ISZERO PUSH2 0x3099 JUMPI PUSH2 0x3099 PUSH2 0x3061 JUMP JUMPDEST PUSH1 0x40 MLOAD PUSH1 0x1F DUP3 ADD PUSH1 0x1F NOT AND DUP2 ADD PUSH1 0x1 PUSH1 0x1 PUSH1 0x40 SHL SUB DUP2 GT DUP3 DUP3 LT OR ISZERO PUSH2 0x312E JUMPI PUSH2 0x312E PUSH2 0x3061 JUMP JUMPDEST PUSH1 0x40 MSTORE SWAP2 SWAP1 POP JUMP JUMPDEST PUSH1 0x0 PUSH1 0x1 PUSH1 0x1 PUSH1 0x40 SHL SUB DUP3 GT ISZERO PUSH2 0x314F JUMPI PUSH2 0x314F PUSH2 0x3061 JUMP JUMPDEST POP PUSH1 0x5 SHL PUSH1 0x20 ADD SWAP1 JUMP JUMPDEST PUSH1 0x0 PUSH1 0x1 PUSH1 0x1 PUSH1 0x40 SHL SUB DUP3 GT ISZERO PUSH2 0x3172 JUMPI PUSH2 0x3172 PUSH2 0x3061 JUMP JUMPDEST POP PUSH1 0x1F ADD PUSH1 0x1F NOT AND PUSH1 0x20 ADD SWAP1 JUMP JUMPDEST PUSH1 0x0 DUP3 PUSH1 0x1F DUP4 ADD SLT PUSH2 0x3191 JUMPI PUSH1 0x0 DUP1 REVERT JUMPDEST DUP2 CALLDATALOAD PUSH2 0x31A4 PUSH2 0x319F DUP3 PUSH2 0x3159 JUMP JUMPDEST PUSH2 0x3106 JUMP JUMPDEST DUP2 DUP2 MSTORE DUP5 PUSH1 0x20 DUP4 DUP7 ADD ADD GT ISZERO PUSH2 0x31B9 JUMPI PUSH1 0x0 DUP1 REVERT JUMPDEST DUP2 PUSH1 0x20 DUP6 ADD PUSH1 0x20 DUP4 ADD CALLDATACOPY PUSH1 0x0 SWAP2 DUP2 ADD PUSH1 0x20 ADD SWAP2 SWAP1 SWAP2 MSTORE SWAP4 SWAP3 POP POP POP JUMP JUMPDEST PUSH1 0x0 DUP3 PUSH1 0x1F DUP4 ADD SLT PUSH2 0x31E7 JUMPI PUSH1 0x0 DUP1 REVERT JUMPDEST DUP2 CALLDATALOAD PUSH1 0x20 PUSH2 0x31F7 PUSH2 0x319F DUP4 PUSH2 0x3136 JUMP JUMPDEST DUP3 DUP2 MSTORE PUSH1 0x5 SWAP3 DUP4 SHL DUP6 ADD DUP3 ADD SWAP3 DUP3 DUP3 ADD SWAP2 SWAP1 DUP8 DUP6 GT ISZERO PUSH2 0x3216 JUMPI PUSH1 0x0 DUP1 REVERT JUMPDEST DUP4 DUP8 ADD JUMPDEST DUP6 DUP2 LT ISZERO PUSH2 0x3317 JUMPI DUP1 CALLDATALOAD PUSH1 0x1 PUSH1 0x1 PUSH1 0x40 SHL SUB DUP1 DUP3 GT ISZERO PUSH2 0x323A JUMPI PUSH1 0x0 DUP1 DUP2 REVERT JUMPDEST SWAP1 DUP10 ADD SWAP1 PUSH1 0x40 DUP3 DUP13 SUB PUSH1 0x1F NOT ADD DUP2 SGT ISZERO PUSH2 0x3254 JUMPI PUSH1 0x0 DUP1 DUP2 REVERT JUMPDEST PUSH2 0x325C PUSH2 0x3077 JUMP JUMPDEST DUP9 DUP5 ADD CALLDATALOAD DUP4 DUP2 GT ISZERO PUSH2 0x326E JUMPI PUSH1 0x0 DUP1 DUP2 REVERT JUMPDEST PUSH2 0x327C DUP15 DUP12 DUP4 DUP9 ADD ADD PUSH2 0x3180 JUMP JUMPDEST DUP3 MSTORE POP DUP2 DUP5 ADD CALLDATALOAD DUP4 DUP2 GT ISZERO PUSH2 0x3291 JUMPI PUSH1 0x0 DUP1 DUP2 REVERT JUMPDEST DUP1 DUP6 ADD SWAP5 POP POP DUP13 PUSH1 0x3F DUP6 ADD SLT PUSH2 0x32A9 JUMPI PUSH1 0x0 SWAP3 POP DUP3 DUP4 REVERT JUMPDEST DUP9 DUP5 ADD CALLDATALOAD SWAP3 POP PUSH2 0x32BB PUSH2 0x319F DUP5 PUSH2 0x3136 JUMP JUMPDEST DUP4 DUP2 MSTORE SWAP3 DUP7 SHL DUP5 ADD DUP3 ADD SWAP3 DUP10 DUP2 ADD SWAP1 DUP15 DUP6 GT ISZERO PUSH2 0x32D8 JUMPI PUSH1 0x0 DUP1 DUP2 REVERT JUMPDEST SWAP5 DUP4 ADD SWAP5 JUMPDEST DUP5 DUP7 LT ISZERO PUSH2 0x3302 JUMPI DUP6 CALLDATALOAD SWAP4 POP PUSH2 0x32F2 DUP5 PUSH2 0x2EE9 JUMP JUMPDEST DUP4 DUP3 MSTORE SWAP5 DUP11 ADD SWAP5 SWAP1 DUP11 ADD SWAP1 PUSH2 0x32DD JUMP JUMPDEST DUP3 DUP12 ADD MSTORE POP DUP8 MSTORE POP POP POP SWAP3 DUP5 ADD SWAP3 DUP5 ADD PUSH2 0x321A JUMP JUMPDEST POP SWAP1 SWAP8 SWAP7 POP POP POP POP POP POP POP JUMP JUMPDEST PUSH1 0x0 PUSH1 0x40 DUP1 DUP4 DUP6 SUB SLT ISZERO PUSH2 0x3337 JUMPI PUSH1 0x0 DUP1 REVERT JUMPDEST PUSH2 0x333F PUSH2 0x3077 JUMP JUMPDEST SWAP2 POP DUP3 CALLDATALOAD PUSH1 0x1 PUSH1 0x1 PUSH1 0x40 SHL SUB DUP1 DUP3 GT ISZERO PUSH2 0x3358 JUMPI PUSH1 0x0 DUP1 REVERT JUMPDEST DUP2 DUP6 ADD SWAP2 POP DUP6 PUSH1 0x1F DUP4 ADD SLT PUSH2 0x336C JUMPI PUSH1 0x0 DUP1 REVERT JUMPDEST DUP2 CALLDATALOAD PUSH1 0x20 PUSH2 0x337C PUSH2 0x319F DUP4 PUSH2 0x3136 JUMP JUMPDEST DUP3 DUP2 MSTORE PUSH1 0x5 SWAP3 SWAP1 SWAP3 SHL DUP5 ADD DUP2 ADD SWAP2 DUP2 DUP2 ADD SWAP1 DUP10 DUP5 GT ISZERO PUSH2 0x339B JUMPI PUSH1 0x0 DUP1 REVERT JUMPDEST DUP3 DUP7 ADD JUMPDEST DUP5 DUP2 LT ISZERO PUSH2 0x341A JUMPI DUP1 CALLDATALOAD DUP7 DUP2 GT ISZERO PUSH2 0x33B7 JUMPI PUSH1 0x0 DUP1 DUP2 REVERT JUMPDEST DUP8 ADD DUP1 DUP13 SUB PUSH1 0x1F NOT ADD DUP10 SGT ISZERO PUSH2 0x33CD JUMPI PUSH1 0x0 DUP1 DUP2 REVERT JUMPDEST PUSH2 0x33D5 PUSH2 0x3077 JUMP JUMPDEST DUP6 DUP3 ADD CALLDATALOAD DUP9 DUP2 GT ISZERO PUSH2 0x33E7 JUMPI PUSH1 0x0 DUP1 DUP2 REVERT JUMPDEST PUSH2 0x33F5 DUP15 DUP9 DUP4 DUP7 ADD ADD PUSH2 0x3180 JUMP JUMPDEST DUP3 MSTORE POP SWAP1 DUP10 ADD CALLDATALOAD SWAP1 PUSH2 0x3406 DUP3 PUSH2 0x2EE9 JUMP JUMPDEST DUP1 DUP7 ADD SWAP2 SWAP1 SWAP2 MSTORE DUP4 MSTORE SWAP2 DUP4 ADD SWAP2 DUP4 ADD PUSH2 0x339F JUMP JUMPDEST POP DUP8 MSTORE POP DUP7 DUP2 ADD CALLDATALOAD SWAP5 POP DUP3 DUP6 GT ISZERO PUSH2 0x3431 JUMPI PUSH1 0x0 DUP1 REVERT JUMPDEST PUSH2 0x343D DUP9 DUP7 DUP10 ADD PUSH2 0x31D6 JUMP JUMPDEST DUP2 DUP8 ADD MSTORE POP POP POP POP POP SWAP3 SWAP2 POP POP JUMP JUMPDEST PUSH1 0x0 DUP3 PUSH1 0x1F DUP4 ADD SLT PUSH2 0x345D JUMPI PUSH1 0x0 DUP1 REVERT JUMPDEST DUP2 CALLDATALOAD PUSH1 0x20 PUSH2 0x346D PUSH2 0x319F DUP4 PUSH2 0x3136 JUMP JUMPDEST DUP3 DUP2 MSTORE PUSH1 0x5 SWAP3 DUP4 SHL DUP6 ADD DUP3 ADD SWAP3 DUP3 DUP3 ADD SWAP2 SWAP1 DUP8 DUP6 GT ISZERO PUSH2 0x348C JUMPI PUSH1 0x0 DUP1 REVERT JUMPDEST DUP4 DUP8 ADD JUMPDEST DUP6 DUP2 LT ISZERO PUSH2 0x3317 JUMPI DUP1 CALLDATALOAD PUSH1 0x1 PUSH1 0x1 PUSH1 0x40 SHL SUB DUP1 DUP3 GT ISZERO PUSH2 0x34B0 JUMPI PUSH1 0x0 DUP1 DUP2 REVERT JUMPDEST SWAP1 DUP10 ADD SWAP1 PUSH1 0x40 DUP3 DUP13 SUB PUSH1 0x1F NOT ADD DUP2 SGT ISZERO PUSH2 0x34CA JUMPI PUSH1 0x0 DUP1 DUP2 REVERT JUMPDEST PUSH2 0x34D2 PUSH2 0x3077 JUMP JUMPDEST DUP9 DUP5 ADD CALLDATALOAD DUP4 DUP2 GT ISZERO PUSH2 0x34E4 JUMPI PUSH1 0x0 DUP1 DUP2 REVERT JUMPDEST PUSH2 0x34F2 DUP15 DUP12 DUP4 DUP9 ADD ADD PUSH2 0x3180 JUMP JUMPDEST DUP3 MSTORE POP DUP2 DUP5 ADD CALLDATALOAD DUP4 DUP2 GT ISZERO PUSH2 0x3507 JUMPI PUSH1 0x0 DUP1 DUP2 REVERT JUMPDEST DUP1 DUP6 ADD SWAP5 POP POP DUP13 PUSH1 0x3F DUP6 ADD SLT PUSH2 0x351F JUMPI PUSH1 0x0 SWAP3 POP DUP3 DUP4 REVERT JUMPDEST DUP9 DUP5 ADD CALLDATALOAD SWAP3 POP PUSH2 0x3531 PUSH2 0x319F DUP5 PUSH2 0x3136 JUMP JUMPDEST DUP4 DUP2 MSTORE SWAP3 DUP7 SHL DUP5 ADD DUP3 ADD SWAP3 DUP10 DUP2 ADD SWAP1 DUP15 DUP6 GT ISZERO PUSH2 0x354E JUMPI PUSH1 0x0 DUP1 DUP2 REVERT JUMPDEST SWAP5 DUP4 ADD SWAP5 JUMPDEST DUP5 DUP7 LT ISZERO PUSH2 0x356C JUMPI DUP6 CALLDATALOAD DUP3 MSTORE SWAP5 DUP11 ADD SWAP5 SWAP1 DUP11 ADD SWAP1 PUSH2 0x3553 JUMP JUMPDEST DUP3 DUP12 ADD MSTORE POP DUP8 MSTORE POP POP POP SWAP3 DUP5 ADD SWAP3 DUP5 ADD PUSH2 0x3490 JUMP JUMPDEST PUSH1 0x0 PUSH1 0x40 DUP1 DUP4 DUP6 SUB SLT ISZERO PUSH2 0x3594 JUMPI PUSH1 0x0 DUP1 REVERT JUMPDEST PUSH2 0x359C PUSH2 0x3077 JUMP JUMPDEST SWAP2 POP DUP3 CALLDATALOAD PUSH1 0x1 PUSH1 0x1 PUSH1 0x40 SHL SUB DUP1 DUP3 GT ISZERO PUSH2 0x35B5 JUMPI PUSH1 0x0 DUP1 REVERT JUMPDEST DUP2 DUP6 ADD SWAP2 POP DUP6 PUSH1 0x1F DUP4 ADD SLT PUSH2 0x35C9 JUMPI PUSH1 0x0 DUP1 REVERT JUMPDEST DUP2 CALLDATALOAD PUSH1 0x20 PUSH2 0x35D9 PUSH2 0x319F DUP4 PUSH2 0x3136 JUMP JUMPDEST DUP3 DUP2 MSTORE PUSH1 0x5 SWAP3 SWAP1 SWAP3 SHL DUP5 ADD DUP2 ADD SWAP2 DUP2 DUP2 ADD SWAP1 DUP10 DUP5 GT ISZERO PUSH2 0x35F8 JUMPI PUSH1 0x0 DUP1 REVERT JUMPDEST DUP3 DUP7 ADD JUMPDEST DUP5 DUP2 LT ISZERO PUSH2 0x366A JUMPI DUP1 CALLDATALOAD DUP7 DUP2 GT ISZERO PUSH2 0x3614 JUMPI PUSH1 0x0 DUP1 DUP2 REVERT JUMPDEST DUP8 ADD DUP1 DUP13 SUB PUSH1 0x1F NOT ADD DUP10 SGT ISZERO PUSH2 0x362A JUMPI PUSH1 0x0 DUP1 DUP2 REVERT JUMPDEST PUSH2 0x3632 PUSH2 0x3077 JUMP JUMPDEST DUP6 DUP3 ADD CALLDATALOAD DUP9 DUP2 GT ISZERO PUSH2 0x3644 JUMPI PUSH1 0x0 DUP1 DUP2 REVERT JUMPDEST PUSH2 0x3652 DUP15 DUP9 DUP4 DUP7 ADD ADD PUSH2 0x3180 JUMP JUMPDEST DUP3 MSTORE POP SWAP1 DUP10 ADD CALLDATALOAD DUP6 DUP3 ADD MSTORE DUP4 MSTORE SWAP2 DUP4 ADD SWAP2 DUP4 ADD PUSH2 0x35FC JUMP JUMPDEST POP DUP8 MSTORE POP DUP7 DUP2 ADD CALLDATALOAD SWAP5 POP DUP3 DUP6 GT ISZERO PUSH2 0x3681 JUMPI PUSH1 0x0 DUP1 REVERT JUMPDEST PUSH2 0x343D DUP9 DUP7 DUP10 ADD PUSH2 0x344C JUMP JUMPDEST PUSH1 0x0 DUP3 PUSH1 0x1F DUP4 ADD SLT PUSH2 0x369E JUMPI PUSH1 0x0 DUP1 REVERT JUMPDEST DUP2 CALLDATALOAD PUSH1 0x20 PUSH2 0x36AE PUSH2 0x319F DUP4 PUSH2 0x3136 JUMP JUMPDEST DUP3 DUP2 MSTORE PUSH1 0x5 SWAP3 DUP4 SHL DUP6 ADD DUP3 ADD SWAP3 DUP3 DUP3 ADD SWAP2 SWAP1 DUP8 DUP6 GT ISZERO PUSH2 0x36CD JUMPI PUSH1 0x0 DUP1 REVERT JUMPDEST DUP4 DUP8 ADD JUMPDEST DUP6 DUP2 LT ISZERO PUSH2 0x3317 JUMPI DUP1 CALLDATALOAD PUSH1 0x1 PUSH1 0x1 PUSH1 0x40 SHL SUB DUP1 DUP3 GT ISZERO PUSH2 0x36F1 JUMPI PUSH1 0x0 DUP1 DUP2 REVERT JUMPDEST SWAP1 DUP10 ADD SWAP1 PUSH1 0x40 DUP3 DUP13 SUB PUSH1 0x1F NOT ADD DUP2 SGT ISZERO PUSH2 0x370B JUMPI PUSH1 0x0 DUP1 DUP2 REVERT JUMPDEST PUSH2 0x3713 PUSH2 0x3077 JUMP JUMPDEST DUP9 DUP5 ADD CALLDATALOAD DUP4 DUP2 GT ISZERO PUSH2 0x3725 JUMPI PUSH1 0x0 DUP1 DUP2 REVERT JUMPDEST PUSH2 0x3733 DUP15 DUP12 DUP4 DUP9 ADD ADD PUSH2 0x3180 JUMP JUMPDEST DUP3 MSTORE POP DUP2 DUP5 ADD CALLDATALOAD DUP4 DUP2 GT ISZERO PUSH2 0x3748 JUMPI PUSH1 0x0 DUP1 DUP2 REVERT JUMPDEST DUP1 DUP6 ADD SWAP5 POP POP DUP13 PUSH1 0x3F DUP6 ADD SLT PUSH2 0x3760 JUMPI PUSH1 0x0 SWAP3 POP DUP3 DUP4 REVERT JUMPDEST DUP9 DUP5 ADD CALLDATALOAD SWAP3 POP PUSH2 0x3772 PUSH2 0x319F DUP5 PUSH2 0x3136 JUMP JUMPDEST DUP4 DUP2 MSTORE SWAP3 DUP7 SHL DUP5 ADD DUP3 ADD SWAP3 DUP10 DUP2 ADD SWAP1 DUP15 DUP6 GT ISZERO PUSH2 0x378F JUMPI PUSH1 0x0 DUP1 DUP2 REVERT JUMPDEST SWAP5 DUP4 ADD SWAP5 JUMPDEST DUP5 DUP7 LT ISZERO PUSH2 0x37AD JUMPI DUP6 CALLDATALOAD DUP3 MSTORE SWAP5 DUP11 ADD SWAP5 SWAP1 DUP11 ADD SWAP1 PUSH2 0x3794 JUMP JUMPDEST DUP3 DUP12 ADD MSTORE POP DUP8 MSTORE POP POP POP SWAP3 DUP5 ADD SWAP3 DUP5 ADD PUSH2 0x36D1 JUMP JUMPDEST PUSH1 0x0 PUSH1 0x40 DUP1 DUP4 DUP6 SUB SLT ISZERO PUSH2 0x37D5 JUMPI PUSH1 0x0 DUP1 REVERT JUMPDEST PUSH2 0x37DD PUSH2 0x3077 JUMP JUMPDEST SWAP2 POP DUP3 CALLDATALOAD PUSH1 0x1 PUSH1 0x1 PUSH1 0x40 SHL SUB DUP1 DUP3 GT ISZERO PUSH2 0x37F6 JUMPI PUSH1 0x0 DUP1 REVERT JUMPDEST DUP2 DUP6 ADD SWAP2 POP DUP6 PUSH1 0x1F DUP4 ADD SLT PUSH2 0x380A JUMPI PUSH1 0x0 DUP1 REVERT JUMPDEST DUP2 CALLDATALOAD PUSH1 0x20 PUSH2 0x381A PUSH2 0x319F DUP4 PUSH2 0x3136 JUMP JUMPDEST DUP3 DUP2 MSTORE PUSH1 0x5 SWAP3 SWAP1 SWAP3 SHL DUP5 ADD DUP2 ADD SWAP2 DUP2 DUP2 ADD SWAP1 DUP10 DUP5 GT ISZERO PUSH2 0x3839 JUMPI PUSH1 0x0 DUP1 REVERT JUMPDEST DUP3 DUP7 ADD JUMPDEST DUP5 DUP2 LT ISZERO PUSH2 0x38AB JUMPI DUP1 CALLDATALOAD DUP7 DUP2 GT ISZERO PUSH2 0x3855 JUMPI PUSH1 0x0 DUP1 DUP2 REVERT JUMPDEST DUP8 ADD DUP1 DUP13 SUB PUSH1 0x1F NOT ADD DUP10 SGT ISZERO PUSH2 0x386B JUMPI PUSH1 0x0 DUP1 DUP2 REVERT JUMPDEST PUSH2 0x3873 PUSH2 0x3077 JUMP JUMPDEST DUP6 DUP3 ADD CALLDATALOAD DUP9 DUP2 GT ISZERO PUSH2 0x3885 JUMPI PUSH1 0x0 DUP1 DUP2 REVERT JUMPDEST PUSH2 0x3893 DUP15 DUP9 DUP4 DUP7 ADD ADD PUSH2 0x3180 JUMP JUMPDEST DUP3 MSTORE POP SWAP1 DUP10 ADD CALLDATALOAD DUP6 DUP3 ADD MSTORE DUP4 MSTORE SWAP2 DUP4 ADD SWAP2 DUP4 ADD PUSH2 0x383D JUMP JUMPDEST POP DUP8 MSTORE POP DUP7 DUP2 ADD CALLDATALOAD SWAP5 POP DUP3 DUP6 GT ISZERO PUSH2 0x38C2 JUMPI PUSH1 0x0 DUP1 REVERT JUMPDEST PUSH2 0x343D DUP9 DUP7 DUP10 ADD PUSH2 0x368D JUMP JUMPDEST PUSH1 0x0 DUP3 PUSH1 0x1F DUP4 ADD SLT PUSH2 0x38DF JUMPI PUSH1 0x0 DUP1 REVERT JUMPDEST DUP2 CALLDATALOAD PUSH1 0x20 PUSH2 0x38EF PUSH2 0x319F DUP4 PUSH2 0x3136 JUMP JUMPDEST DUP3 DUP2 MSTORE PUSH1 0x5 SWAP3 DUP4 SHL DUP6 ADD DUP3 ADD SWAP3 DUP3 DUP3 ADD SWAP2 SWAP1 DUP8 DUP6 GT ISZERO PUSH2 0x390E JUMPI PUSH1 0x0 DUP1 REVERT JUMPDEST DUP4 DUP8 ADD JUMPDEST DUP6 DUP2 LT ISZERO PUSH2 0x3317 JUMPI DUP1 CALLDATALOAD PUSH1 0x1 PUSH1 0x1 PUSH1 0x40 SHL SUB DUP1 DUP3 GT ISZERO PUSH2 0x3932 JUMPI PUSH1 0x0 DUP1 DUP2 REVERT JUMPDEST SWAP1 DUP10 ADD SWAP1 PUSH1 0x40 DUP3 DUP13 SUB PUSH1 0x1F NOT ADD DUP2 SGT ISZERO PUSH2 0x394C JUMPI PUSH1 0x0 DUP1 DUP2 REVERT JUMPDEST PUSH2 0x3954 PUSH2 0x3077 JUMP JUMPDEST DUP9 DUP5 ADD CALLDATALOAD DUP4 DUP2 GT ISZERO PUSH2 0x3966 JUMPI PUSH1 0x0 DUP1 DUP2 REVERT JUMPDEST PUSH2 0x3974 DUP15 DUP12 DUP4 DUP9 ADD ADD PUSH2 0x3180 JUMP JUMPDEST DUP3 MSTORE POP DUP2 DUP5 ADD CALLDATALOAD DUP4 DUP2 GT ISZERO PUSH2 0x3989 JUMPI PUSH1 0x0 DUP1 DUP2 REVERT JUMPDEST DUP1 DUP6 ADD SWAP5 POP POP DUP13 PUSH1 0x3F DUP6 ADD SLT PUSH2 0x39A1 JUMPI PUSH1 0x0 SWAP3 POP DUP3 DUP4 REVERT JUMPDEST DUP9 DUP5 ADD CALLDATALOAD SWAP3 POP PUSH2 0x39B3 PUSH2 0x319F DUP5 PUSH2 0x3136 JUMP JUMPDEST DUP4 DUP2 MSTORE SWAP3 DUP7 SHL DUP5 ADD DUP3 ADD SWAP3 DUP10 DUP2 ADD SWAP1 DUP15 DUP6 GT ISZERO PUSH2 0x39D0 JUMPI PUSH1 0x0 DUP1 DUP2 REVERT JUMPDEST SWAP5 DUP4 ADD SWAP5 JUMPDEST DUP5 DUP7 LT ISZERO PUSH2 0x39FA JUMPI DUP6 CALLDATALOAD SWAP4 POP PUSH2 0x39EA DUP5 PUSH2 0x2F2A JUMP JUMPDEST DUP4 DUP3 MSTORE SWAP5 DUP11 ADD SWAP5 SWAP1 DUP11 ADD SWAP1 PUSH2 0x39D5 JUMP JUMPDEST DUP3 DUP12 ADD MSTORE POP DUP8 MSTORE POP POP POP SWAP3 DUP5 ADD SWAP3 DUP5 ADD PUSH2 0x3912 JUMP JUMPDEST PUSH1 0x0 PUSH1 0x40 DUP1 DUP4 DUP6 SUB SLT ISZERO PUSH2 0x3A22 JUMPI PUSH1 0x0 DUP1 REVERT JUMPDEST PUSH2 0x3A2A PUSH2 0x3077 JUMP JUMPDEST SWAP2 POP DUP3 CALLDATALOAD PUSH1 0x1 PUSH1 0x1 PUSH1 0x40 SHL SUB DUP1 DUP3 GT ISZERO PUSH2 0x3A43 JUMPI PUSH1 0x0 DUP1 REVERT JUMPDEST DUP2 DUP6 ADD SWAP2 POP DUP6 PUSH1 0x1F DUP4 ADD SLT PUSH2 0x3A57 JUMPI PUSH1 0x0 DUP1 REVERT JUMPDEST DUP2 CALLDATALOAD PUSH1 0x20 PUSH2 0x3A67 PUSH2 0x319F DUP4 PUSH2 0x3136 JUMP JUMPDEST DUP3 DUP2 MSTORE PUSH1 0x5 SWAP3 SWAP1 SWAP3 SHL DUP5 ADD DUP2 ADD SWAP2 DUP2 DUP2 ADD SWAP1 DUP10 DUP5 GT ISZERO PUSH2 0x3A86 JUMPI PUSH1 0x0 DUP1 REVERT JUMPDEST DUP3 DUP7 ADD JUMPDEST DUP5 DUP2 LT ISZERO PUSH2 0x3B05 JUMPI DUP1 CALLDATALOAD DUP7 DUP2 GT ISZERO PUSH2 0x3AA2 JUMPI PUSH1 0x0 DUP1 DUP2 REVERT JUMPDEST DUP8 ADD DUP1 DUP13 SUB PUSH1 0x1F NOT ADD DUP10 SGT ISZERO PUSH2 0x3AB8 JUMPI PUSH1 0x0 DUP1 DUP2 REVERT JUMPDEST PUSH2 0x3AC0 PUSH2 0x3077 JUMP JUMPDEST DUP6 DUP3 ADD CALLDATALOAD DUP9 DUP2 GT ISZERO PUSH2 0x3AD2 JUMPI PUSH1 0x0 DUP1 DUP2 REVERT JUMPDEST PUSH2 0x3AE0 DUP15 DUP9 DUP4 DUP7 ADD ADD PUSH2 0x3180 JUMP JUMPDEST DUP3 MSTORE POP SWAP1 DUP10 ADD CALLDATALOAD SWAP1 PUSH2 0x3AF1 DUP3 PUSH2 0x2F2A JUMP JUMPDEST DUP1 DUP7 ADD SWAP2 SWAP1 SWAP2 MSTORE DUP4 MSTORE SWAP2 DUP4 ADD SWAP2 DUP4 ADD PUSH2 0x3A8A JUMP JUMPDEST POP DUP8 MSTORE POP DUP7 DUP2 ADD CALLDATALOAD SWAP5 POP DUP3 DUP6 GT ISZERO PUSH2 0x3B1C JUMPI PUSH1 0x0 DUP1 REVERT JUMPDEST PUSH2 0x343D DUP9 DUP7 DUP10 ADD PUSH2 0x38CE JUMP JUMPDEST PUSH1 0x0 DUP3 PUSH1 0x1F DUP4 ADD SLT PUSH2 0x3B39 JUMPI PUSH1 0x0 DUP1 REVERT JUMPDEST DUP2 CALLDATALOAD PUSH1 0x20 PUSH2 0x3B49 PUSH2 0x319F DUP4 PUSH2 0x3136 JUMP JUMPDEST DUP3 DUP2 MSTORE PUSH1 0x5 SWAP3 DUP4 SHL DUP6 ADD DUP3 ADD SWAP3 DUP3 DUP3 ADD SWAP2 SWAP1 DUP8 DUP6 GT ISZERO PUSH2 0x3B68 JUMPI PUSH1 0x0 DUP1 REVERT JUMPDEST DUP4 DUP8 ADD JUMPDEST DUP6 DUP2 LT ISZERO PUSH2 0x3317 JUMPI DUP1 CALLDATALOAD PUSH1 0x1 PUSH1 0x1 PUSH1 0x40 SHL SUB DUP1 DUP3 GT ISZERO PUSH2 0x3B8C JUMPI PUSH1 0x0 DUP1 DUP2 REVERT JUMPDEST SWAP1 DUP10 ADD SWAP1 PUSH1 0x40 DUP3 DUP13 SUB PUSH1 0x1F NOT ADD DUP2 SGT ISZERO PUSH2 0x3BA6 JUMPI PUSH1 0x0 DUP1 DUP2 REVERT JUMPDEST PUSH2 0x3BAE PUSH2 0x3077 JUMP JUMPDEST DUP9 DUP5 ADD CALLDATALOAD DUP4 DUP2 GT ISZERO PUSH2 0x3BC0 JUMPI PUSH1 0x0 DUP1 DUP2 REVERT JUMPDEST PUSH2 0x3BCE DUP15 DUP12 DUP4 DUP9 ADD ADD PUSH2 0x3180 JUMP JUMPDEST DUP3 MSTORE POP DUP2 DUP5 ADD CALLDATALOAD DUP4 DUP2 GT ISZERO PUSH2 0x3BE3 JUMPI PUSH1 0x0 DUP1 DUP2 REVERT JUMPDEST DUP1 DUP6 ADD SWAP5 POP POP DUP13 PUSH1 0x3F DUP6 ADD SLT PUSH2 0x3BFB JUMPI PUSH1 0x0 SWAP3 POP DUP3 DUP4 REVERT JUMPDEST DUP9 DUP5 ADD CALLDATALOAD SWAP3 POP PUSH2 0x3C0D PUSH2 0x319F DUP5 PUSH2 0x3136 JUMP JUMPDEST DUP4 DUP2 MSTORE SWAP3 DUP7 SHL DUP5 ADD DUP3 ADD SWAP3 DUP10 DUP2 ADD SWAP1 DUP15 DUP6 GT ISZERO PUSH2 0x3C2A JUMPI PUSH1 0x0 DUP1 DUP2 REVERT JUMPDEST SWAP5 DUP4 ADD SWAP5 JUMPDEST DUP5 DUP7 LT ISZERO PUSH2 0x3C48 JUMPI DUP6 CALLDATALOAD DUP3 MSTORE SWAP5 DUP11 ADD SWAP5 SWAP1 DUP11 ADD SWAP1 PUSH2 0x3C2F JUMP JUMPDEST DUP3 DUP12 ADD MSTORE POP DUP8 MSTORE POP POP POP SWAP3 DUP5 ADD SWAP3 DUP5 ADD PUSH2 0x3B6C JUMP JUMPDEST PUSH1 0x0 PUSH1 0x40 DUP1 DUP4 DUP6 SUB SLT ISZERO PUSH2 0x3C70 JUMPI PUSH1 0x0 DUP1 REVERT JUMPDEST PUSH2 0x3C78 PUSH2 0x3077 JUMP JUMPDEST SWAP2 POP DUP3 CALLDATALOAD PUSH1 0x1 PUSH1 0x1 PUSH1 0x40 SHL SUB DUP1 DUP3 GT ISZERO PUSH2 0x3C91 JUMPI PUSH1 0x0 DUP1 REVERT JUMPDEST DUP2 DUP6 ADD SWAP2 POP DUP6 PUSH1 0x1F DUP4 ADD SLT PUSH2 0x3CA5 JUMPI PUSH1 0x0 DUP1 REVERT JUMPDEST DUP2 CALLDATALOAD PUSH1 0x20 PUSH2 0x3CB5 PUSH2 0x319F DUP4 PUSH2 0x3136 JUMP JUMPDEST DUP3 DUP2 MSTORE PUSH1 0x5 SWAP3 SWAP1 SWAP3 SHL DUP5 ADD DUP2 ADD SWAP2 DUP2 DUP2 ADD SWAP1 DUP10 DUP5 GT ISZERO PUSH2 0x3CD4 JUMPI PUSH1 0x0 DUP1 REVERT JUMPDEST DUP3 DUP7 ADD JUMPDEST DUP5 DUP2 LT ISZERO PUSH2 0x3D46 JUMPI DUP1 CALLDATALOAD DUP7 DUP2 GT ISZERO PUSH2 0x3CF0 JUMPI PUSH1 0x0 DUP1 DUP2 REVERT JUMPDEST DUP8 ADD DUP1 DUP13 SUB PUSH1 0x1F NOT ADD DUP10 SGT ISZERO PUSH2 0x3D06 JUMPI PUSH1 0x0 DUP1 DUP2 REVERT JUMPDEST PUSH2 0x3D0E PUSH2 0x3077 JUMP JUMPDEST DUP6 DUP3 ADD CALLDATALOAD DUP9 DUP2 GT ISZERO PUSH2 0x3D20 JUMPI PUSH1 0x0 DUP1 DUP2 REVERT JUMPDEST PUSH2 0x3D2E DUP15 DUP9 DUP4 DUP7 ADD ADD PUSH2 0x3180 JUMP JUMPDEST DUP3 MSTORE POP SWAP1 DUP10 ADD CALLDATALOAD DUP6 DUP3 ADD MSTORE DUP4 MSTORE SWAP2 DUP4 ADD SWAP2 DUP4 ADD PUSH2 0x3CD8 JUMP JUMPDEST POP DUP8 MSTORE POP DUP7 DUP2 ADD CALLDATALOAD SWAP5 POP DUP3 DUP6 GT ISZERO PUSH2 0x3D5D JUMPI PUSH1 0x0 DUP1 REVERT JUMPDEST PUSH2 0x343D DUP9 DUP7 DUP10 ADD PUSH2 0x3B28 JUMP JUMPDEST PUSH1 0x0 DUP3 PUSH1 0x1F DUP4 ADD SLT PUSH2 0x3D7A JUMPI PUSH1 0x0 DUP1 REVERT JUMPDEST DUP2 CALLDATALOAD PUSH1 0x20 PUSH2 0x3D8A PUSH2 0x319F DUP4 PUSH2 0x3136 JUMP JUMPDEST DUP3 DUP2 MSTORE PUSH1 0x5 SWAP3 SWAP1 SWAP3 SHL DUP5 ADD DUP2 ADD SWAP2 DUP2 DUP2 ADD SWAP1 DUP7 DUP5 GT ISZERO PUSH2 0x3DA9 JUMPI PUSH1 0x0 DUP1 REVERT JUMPDEST DUP3 DUP7 ADD JUMPDEST DUP5 DUP2 LT ISZERO PUSH2 0x3EB2 JUMPI PUSH1 0x1 PUSH1 0x1 PUSH1 0x40 SHL SUB DUP1 DUP3 CALLDATALOAD GT ISZERO PUSH2 0x3DCB JUMPI PUSH1 0x0 DUP1 REVERT JUMPDEST DUP2 CALLDATALOAD DUP9 ADD PUSH1 0x40 DUP2 DUP12 SUB PUSH1 0x1F NOT ADD SLT ISZERO PUSH2 0x3DE3 JUMPI PUSH1 0x0 DUP1 REVERT JUMPDEST PUSH2 0x3DEB PUSH2 0x3077 JUMP JUMPDEST DUP7 DUP3 ADD CALLDATALOAD DUP4 DUP2 GT ISZERO PUSH2 0x3DFC JUMPI PUSH1 0x0 DUP1 REVERT JUMPDEST PUSH2 0x3E0A DUP13 DUP10 DUP4 DUP7 ADD ADD PUSH2 0x3180 JUMP JUMPDEST DUP3 MSTORE POP PUSH1 0x40 DUP3 ADD CALLDATALOAD DUP4 DUP2 GT ISZERO PUSH2 0x3E1F JUMPI PUSH1 0x0 DUP1 REVERT JUMPDEST DUP1 DUP4 ADD SWAP3 POP POP DUP11 PUSH1 0x3F DUP4 ADD SLT PUSH2 0x3E34 JUMPI PUSH1 0x0 DUP1 REVERT JUMPDEST DUP7 DUP3 ADD CALLDATALOAD PUSH2 0x3E44 PUSH2 0x319F DUP3 PUSH2 0x3136 JUMP JUMPDEST DUP2 DUP2 MSTORE PUSH1 0x5 SWAP2 SWAP1 SWAP2 SHL DUP4 ADD PUSH1 0x40 ADD SWAP1 DUP9 DUP2 ADD SWAP1 DUP14 DUP4 GT ISZERO PUSH2 0x3E64 JUMPI PUSH1 0x0 DUP1 REVERT JUMPDEST PUSH1 0x40 DUP6 ADD JUMPDEST DUP4 DUP2 LT ISZERO PUSH2 0x3E9C JUMPI DUP7 DUP2 CALLDATALOAD GT ISZERO PUSH2 0x3E7F JUMPI PUSH1 0x0 DUP1 REVERT JUMPDEST PUSH2 0x3E8F DUP16 PUSH1 0x40 DUP4 CALLDATALOAD DUP10 ADD ADD PUSH2 0x3180 JUMP JUMPDEST DUP4 MSTORE SWAP2 DUP11 ADD SWAP2 DUP11 ADD PUSH2 0x3E69 JUMP JUMPDEST POP DUP4 DUP11 ADD MSTORE POP POP DUP6 MSTORE POP POP SWAP2 DUP4 ADD SWAP2 DUP4 ADD PUSH2 0x3DAD JUMP JUMPDEST POP SWAP7 SWAP6 POP POP POP POP POP POP JUMP JUMPDEST PUSH1 0x0 PUSH1 0x40 DUP1 DUP4 DUP6 SUB SLT ISZERO PUSH2 0x3ED0 JUMPI PUSH1 0x0 DUP1 REVERT JUMPDEST PUSH2 0x3ED8 PUSH2 0x3077 JUMP JUMPDEST SWAP2 POP DUP3 CALLDATALOAD PUSH1 0x1 PUSH1 0x1 PUSH1 0x40 SHL SUB DUP1 DUP3 GT ISZERO PUSH2 0x3EF1 JUMPI PUSH1 0x0 DUP1 REVERT JUMPDEST DUP2 DUP6 ADD SWAP2 POP DUP6 PUSH1 0x1F DUP4 ADD SLT PUSH2 0x3F05 JUMPI PUSH1 0x0 DUP1 REVERT JUMPDEST DUP2 CALLDATALOAD PUSH1 0x20 PUSH2 0x3F15 PUSH2 0x319F DUP4 PUSH2 0x3136 JUMP JUMPDEST DUP3 DUP2 MSTORE PUSH1 0x5 SWAP3 SWAP1 SWAP3 SHL DUP5 ADD DUP2 ADD SWAP2 DUP2 DUP2 ADD SWAP1 DUP10 DUP5 GT ISZERO PUSH2 0x3F34 JUMPI PUSH1 0x0 DUP1 REVERT JUMPDEST DUP3 DUP7 ADD JUMPDEST DUP5 DUP2 LT ISZERO PUSH2 0x3FC4 JUMPI DUP1 CALLDATALOAD DUP7 DUP2 GT ISZERO PUSH2 0x3F50 JUMPI PUSH1 0x0 DUP1 DUP2 REVERT JUMPDEST DUP8 ADD DUP1 DUP13 SUB PUSH1 0x1F NOT ADD DUP10 SGT ISZERO PUSH2 0x3F66 JUMPI PUSH1 0x0 DUP1 DUP2 REVERT JUMPDEST PUSH2 0x3F6E PUSH2 0x3077 JUMP JUMPDEST DUP6 DUP3 ADD CALLDATALOAD DUP9 DUP2 GT ISZERO PUSH2 0x3F80 JUMPI PUSH1 0x0 DUP1 DUP2 REVERT JUMPDEST PUSH2 0x3F8E DUP15 DUP9 DUP4 DUP7 ADD ADD PUSH2 0x3180 JUMP JUMPDEST DUP3 MSTORE POP DUP10 DUP3 ADD CALLDATALOAD DUP9 DUP2 GT ISZERO PUSH2 0x3FA3 JUMPI PUSH1 0x0 DUP1 DUP2 REVERT JUMPDEST PUSH2 0x3FB1 DUP15 DUP9 DUP4 DUP7 ADD ADD PUSH2 0x3180 JUMP JUMPDEST DUP3 DUP9 ADD MSTORE POP DUP5 MSTORE POP SWAP2 DUP4 ADD SWAP2 DUP4 ADD PUSH2 0x3F38 JUMP JUMPDEST POP DUP8 MSTORE POP DUP7 DUP2 ADD CALLDATALOAD SWAP5 POP DUP3 DUP6 GT ISZERO PUSH2 0x3FDB JUMPI PUSH1 0x0 DUP1 REVERT JUMPDEST PUSH2 0x343D DUP9 DUP7 DUP10 ADD PUSH2 0x3D69 JUMP JUMPDEST PUSH1 0x0 DUP3 PUSH1 0x1F DUP4 ADD SLT PUSH2 0x3FF8 JUMPI PUSH1 0x0 DUP1 REVERT JUMPDEST DUP2 CALLDATALOAD PUSH1 0x20 PUSH2 0x4008 PUSH2 0x319F DUP4 PUSH2 0x3136 JUMP JUMPDEST DUP3 DUP2 MSTORE PUSH1 0x5 SWAP3 SWAP1 SWAP3 SHL DUP5 ADD DUP2 ADD SWAP2 DUP2 DUP2 ADD SWAP1 DUP7 DUP5 GT ISZERO PUSH2 0x4027 JUMPI PUSH1 0x0 DUP1 REVERT JUMPDEST DUP3 DUP7 ADD JUMPDEST DUP5 DUP2 LT ISZERO PUSH2 0x3EB2 JUMPI PUSH1 0x1 PUSH1 0x1 PUSH1 0x40 SHL SUB DUP1 DUP3 CALLDATALOAD GT ISZERO PUSH2 0x4049 JUMPI PUSH1 0x0 DUP1 REVERT JUMPDEST DUP2 CALLDATALOAD DUP9 ADD PUSH1 0x40 DUP2 DUP12 SUB PUSH1 0x1F NOT ADD SLT ISZERO PUSH2 0x4061 JUMPI PUSH1 0x0 DUP1 REVERT JUMPDEST PUSH2 0x4069 PUSH2 0x3077 JUMP JUMPDEST DUP7 DUP3 ADD CALLDATALOAD DUP4 DUP2 GT ISZERO PUSH2 0x407A JUMPI PUSH1 0x0 DUP1 REVERT JUMPDEST PUSH2 0x4088 DUP13 DUP10 DUP4 DUP7 ADD ADD PUSH2 0x3180 JUMP JUMPDEST DUP3 MSTORE POP PUSH1 0x40 DUP3 ADD CALLDATALOAD DUP4 DUP2 GT ISZERO PUSH2 0x409D JUMPI PUSH1 0x0 DUP1 REVERT JUMPDEST DUP1 DUP4 ADD SWAP3 POP POP DUP11 PUSH1 0x3F DUP4 ADD SLT PUSH2 0x40B2 JUMPI PUSH1 0x0 DUP1 REVERT JUMPDEST DUP7 DUP3 ADD CALLDATALOAD PUSH2 0x40C2 PUSH2 0x319F DUP3 PUSH2 0x3136 JUMP JUMPDEST DUP2 DUP2 MSTORE PUSH1 0x5 SWAP2 SWAP1 SWAP2 SHL DUP4 ADD PUSH1 0x40 ADD SWAP1 DUP9 DUP2 ADD SWAP1 DUP14 DUP4 GT ISZERO PUSH2 0x40E2 JUMPI PUSH1 0x0 DUP1 REVERT JUMPDEST PUSH1 0x40 DUP6 ADD JUMPDEST DUP4 DUP2 LT ISZERO PUSH2 0x411A JUMPI DUP7 DUP2 CALLDATALOAD GT ISZERO PUSH2 0x40FD JUMPI PUSH1 0x0 DUP1 REVERT JUMPDEST PUSH2 0x410D DUP16 PUSH1 0x40 DUP4 CALLDATALOAD DUP10 ADD ADD PUSH2 0x3180 JUMP JUMPDEST DUP4 MSTORE SWAP2 DUP11 ADD SWAP2 DUP11 ADD PUSH2 0x40E7 JUMP JUMPDEST POP DUP4 DUP11 ADD MSTORE POP POP DUP6 MSTORE POP POP SWAP2 DUP4 ADD SWAP2 DUP4 ADD PUSH2 0x402B JUMP JUMPDEST PUSH1 0x0 PUSH1 0x40 DUP1 DUP4 DUP6 SUB SLT ISZERO PUSH2 0x4143 JUMPI PUSH1 0x0 DUP1 REVERT JUMPDEST PUSH2 0x414B PUSH2 0x3077 JUMP JUMPDEST SWAP2 POP DUP3 CALLDATALOAD PUSH1 0x1 PUSH1 0x1 PUSH1 0x40 SHL SUB DUP1 DUP3 GT ISZERO PUSH2 0x4164 JUMPI PUSH1 0x0 DUP1 REVERT JUMPDEST DUP2 DUP6 ADD SWAP2 POP DUP6 PUSH1 0x1F DUP4 ADD SLT PUSH2 0x4178 JUMPI PUSH1 0x0 DUP1 REVERT JUMPDEST DUP2 CALLDATALOAD PUSH1 0x20 PUSH2 0x4188 PUSH2 0x319F DUP4 PUSH2 0x3136 JUMP JUMPDEST DUP3 DUP2 MSTORE PUSH1 0x5 SWAP3 SWAP1 SWAP3 SHL DUP5 ADD DUP2 ADD SWAP2 DUP2 DUP2 ADD SWAP1 DUP10 DUP5 GT ISZERO PUSH2 0x41A7 JUMPI PUSH1 0x0 DUP1 REVERT JUMPDEST DUP3 DUP7 ADD JUMPDEST DUP5 DUP2 LT ISZERO PUSH2 0x4237 JUMPI DUP1 CALLDATALOAD DUP7 DUP2 GT ISZERO PUSH2 0x41C3 JUMPI PUSH1 0x0 DUP1 DUP2 REVERT JUMPDEST DUP8 ADD DUP1 DUP13 SUB PUSH1 0x1F NOT ADD DUP10 SGT ISZERO PUSH2 0x41D9 JUMPI PUSH1 0x0 DUP1 DUP2 REVERT JUMPDEST PUSH2 0x41E1 PUSH2 0x3077 JUMP JUMPDEST DUP6 DUP3 ADD CALLDATALOAD DUP9 DUP2 GT ISZERO PUSH2 0x41F3 JUMPI PUSH1 0x0 DUP1 DUP2 REVERT JUMPDEST PUSH2 0x4201 DUP15 DUP9 DUP4 DUP7 ADD ADD PUSH2 0x3180 JUMP JUMPDEST DUP3 MSTORE POP DUP10 DUP3 ADD CALLDATALOAD DUP9 DUP2 GT ISZERO PUSH2 0x4216 JUMPI PUSH1 0x0 DUP1 DUP2 REVERT JUMPDEST PUSH2 0x4224 DUP15 DUP9 DUP4 DUP7 ADD ADD PUSH2 0x3180 JUMP JUMPDEST DUP3 DUP9 ADD MSTORE POP DUP5 MSTORE POP SWAP2 DUP4 ADD SWAP2 DUP4 ADD PUSH2 0x41AB JUMP JUMPDEST POP DUP8 MSTORE POP DUP7 DUP2 ADD CALLDATALOAD SWAP5 POP DUP3 DUP6 GT ISZERO PUSH2 0x424E JUMPI PUSH1 0x0 DUP1 REVERT JUMPDEST PUSH2 0x343D DUP9 DUP7 DUP10 ADD PUSH2 0x3FE7 JUMP JUMPDEST PUSH1 0x0 PUSH1 0xE0 DUP3 DUP5 SUB SLT ISZERO PUSH2 0x426C JUMPI PUSH1 0x0 DUP1 REVERT JUMPDEST PUSH2 0x4274 PUSH2 0x309F JUMP JUMPDEST SWAP1 POP DUP2 CALLDATALOAD PUSH1 0x1 PUSH1 0x1 PUSH1 0x40 SHL SUB DUP1 DUP3 GT ISZERO PUSH2 0x428D JUMPI PUSH1 0x0 DUP1 REVERT JUMPDEST PUSH2 0x4299 DUP6 DUP4 DUP7 ADD PUSH2 0x3324 JUMP JUMPDEST DUP4 MSTORE PUSH1 0x20 DUP5 ADD CALLDATALOAD SWAP2 POP DUP1 DUP3 GT ISZERO PUSH2 0x42AF JUMPI PUSH1 0x0 DUP1 REVERT JUMPDEST PUSH2 0x42BB DUP6 DUP4 DUP7 ADD PUSH2 0x3581 JUMP JUMPDEST PUSH1 0x20 DUP5 ADD MSTORE PUSH1 0x40 DUP5 ADD CALLDATALOAD SWAP2 POP DUP1 DUP3 GT ISZERO PUSH2 0x42D4 JUMPI PUSH1 0x0 DUP1 REVERT JUMPDEST PUSH2 0x42E0 DUP6 DUP4 DUP7 ADD PUSH2 0x37C2 JUMP JUMPDEST PUSH1 0x40 DUP5 ADD MSTORE PUSH1 0x60 DUP5 ADD CALLDATALOAD SWAP2 POP DUP1 DUP3 GT ISZERO PUSH2 0x42F9 JUMPI PUSH1 0x0 DUP1 REVERT JUMPDEST PUSH2 0x4305 DUP6 DUP4 DUP7 ADD PUSH2 0x3A0F JUMP JUMPDEST PUSH1 0x60 DUP5 ADD MSTORE PUSH1 0x80 DUP5 ADD CALLDATALOAD SWAP2 POP DUP1 DUP3 GT ISZERO PUSH2 0x431E JUMPI PUSH1 0x0 DUP1 REVERT JUMPDEST PUSH2 0x432A DUP6 DUP4 DUP7 ADD PUSH2 0x3C5D JUMP JUMPDEST PUSH1 0x80 DUP5 ADD MSTORE PUSH1 0xA0 DUP5 ADD CALLDATALOAD SWAP2 POP DUP1 DUP3 GT ISZERO PUSH2 0x4343 JUMPI PUSH1 0x0 DUP1 REVERT JUMPDEST PUSH2 0x434F DUP6 DUP4 DUP7 ADD PUSH2 0x3EBD JUMP JUMPDEST PUSH1 0xA0 DUP5 ADD MSTORE PUSH1 0xC0 DUP5 ADD CALLDATALOAD SWAP2 POP DUP1 DUP3 GT ISZERO PUSH2 0x4368 JUMPI PUSH1 0x0 DUP1 REVERT JUMPDEST POP PUSH2 0x4375 DUP5 DUP3 DUP6 ADD PUSH2 0x4130 JUMP JUMPDEST PUSH1 0xC0 DUP4 ADD MSTORE POP SWAP3 SWAP2 POP POP JUMP JUMPDEST PUSH1 0x0 DUP1 PUSH1 0x0 PUSH1 0x60 DUP5 DUP7 SUB SLT ISZERO PUSH2 0x4396 JUMPI PUSH1 0x0 DUP1 REVERT JUMPDEST DUP4 CALLDATALOAD SWAP3 POP PUSH1 0x20 DUP5 ADD CALLDATALOAD PUSH1 0x1 PUSH1 0x1 PUSH1 0x40 SHL SUB DUP1 DUP3 GT ISZERO PUSH2 0x43B4 JUMPI PUSH1 0x0 DUP1 REVERT JUMPDEST PUSH2 0x43C0 DUP8 DUP4 DUP9 ADD PUSH2 0x425A JUMP JUMPDEST SWAP4 POP PUSH1 0x40 DUP7 ADD CALLDATALOAD SWAP2 POP DUP1 DUP3 GT ISZERO PUSH2 0x43D6 JUMPI PUSH1 0x0 DUP1 REVERT JUMPDEST POP PUSH2 0x43E3 DUP7 DUP3 DUP8 ADD PUSH2 0x425A JUMP JUMPDEST SWAP2 POP POP SWAP3 POP SWAP3 POP SWAP3 JUMP JUMPDEST PUSH1 0x0 PUSH1 0x20 DUP3 DUP5 SUB SLT ISZERO PUSH2 0x43FF JUMPI PUSH1 0x0 DUP1 REVERT JUMPDEST DUP2 CALLDATALOAD PUSH2 0xA35 DUP2 PUSH2 0x2EE9 JUMP JUMPDEST PUSH1 0x20 DUP1 DUP3 MSTORE PUSH1 0xE SWAP1 DUP3 ADD MSTORE PUSH14 0x23A6AC1D103130B21037B93232B9 PUSH1 0x91 SHL PUSH1 0x40 DUP3 ADD MSTORE PUSH1 0x60 ADD SWAP1 JUMP JUMPDEST PUSH1 0x20 DUP1 DUP3 MSTORE PUSH1 0xE SWAP1 DUP3 ADD MSTORE PUSH14 0x11D3560E881B9BDD081D985D5B1D PUSH1 0x92 SHL PUSH1 0x40 DUP3 ADD MSTORE PUSH1 0x60 ADD SWAP1 JUMP JUMPDEST PUSH1 0x0 PUSH1 0x20 DUP3 DUP5 SUB SLT ISZERO PUSH2 0x446C JUMPI PUSH1 0x0 DUP1 REVERT JUMPDEST PUSH1 0x40 MLOAD PUSH1 0x20 DUP2 ADD DUP2 DUP2 LT PUSH1 0x1 PUSH1 0x1 PUSH1 0x40 SHL SUB DUP3 GT OR ISZERO PUSH2 0x448E JUMPI PUSH2 0x448E PUSH2 0x3061 JUMP JUMPDEST DUP1 PUSH1 0x40 MSTORE POP DUP1 SWAP2 POP DUP3 MLOAD PUSH2 0x44A1 DUP2 PUSH2 0x2F2A JUMP JUMPDEST SWAP1 MSTORE SWAP3 SWAP2 POP POP JUMP JUMPDEST PUSH1 0x0 DUP2 DUP4 SUB PUSH2 0x1A0 DUP2 SLT ISZERO PUSH2 0x44BD JUMPI PUSH1 0x0 DUP1 REVERT JUMPDEST PUSH2 0x44C5 PUSH2 0x30C1 JUMP JUMPDEST PUSH1 0x60 DUP3 SLT ISZERO PUSH2 0x44D3 JUMPI PUSH1 0x0 DUP1 REVERT JUMPDEST PUSH2 0x44DB PUSH2 0x30C1 JUMP JUMPDEST DUP5 MLOAD PUSH2 0x44E6 DUP2 PUSH2 0x2EE9 JUMP JUMPDEST DUP2 MSTORE PUSH1 0x20 DUP6 ADD MLOAD PUSH2 0x44F6 DUP2 PUSH2 0x2EE9 JUMP JUMPDEST PUSH1 0x20 DUP3 ADD MSTORE PUSH1 0x40 DUP6 ADD MLOAD PUSH2 0x4509 DUP2 PUSH2 0x2EE9 JUMP JUMPDEST PUSH1 0x40 DUP3 ADD MSTORE DUP2 MSTORE PUSH2 0x120 PUSH1 0x5F NOT DUP4 ADD DUP2 SGT ISZERO PUSH2 0x4524 JUMPI PUSH1 0x0 DUP1 REVERT JUMPDEST PUSH2 0x452C PUSH2 0x30E3 JUMP JUMPDEST SWAP3 POP PUSH1 0x60 DUP6 ADD MLOAD DUP4 MSTORE PUSH1 0x80 DUP6 ADD MLOAD PUSH1 0x20 DUP5 ADD MSTORE PUSH1 0xA0 DUP6 ADD MLOAD PUSH1 0x40 DUP5 ADD MSTORE PUSH1 0xC0 DUP6 ADD MLOAD PUSH1 0x60 DUP5 ADD MSTORE PUSH1 0xE0 DUP6 ADD MLOAD PUSH1 0x80 DUP5 ADD MSTORE PUSH2 0x100 DUP1 DUP7 ADD MLOAD PUSH1 0xA0 DUP6 ADD MSTORE DUP2 DUP7 ADD MLOAD PUSH1 0xC0 DUP6 ADD MSTORE PUSH2 0x140 DUP7 ADD MLOAD PUSH1 0xE0 DUP6 ADD MSTORE PUSH2 0x160 DUP7 ADD MLOAD DUP2 DUP6 ADD MSTORE POP POP DUP2 PUSH1 0x20 DUP3 ADD MSTORE PUSH2 0x459D DUP6 PUSH2 0x180 DUP7 ADD PUSH2 0x445A JUMP JUMPDEST PUSH1 0x40 DUP3 ADD MSTORE SWAP5 SWAP4 POP POP POP POP JUMP JUMPDEST PUSH1 0x0 PUSH1 0x20 DUP3 DUP5 SUB SLT ISZERO PUSH2 0x45BC JUMPI PUSH1 0x0 DUP1 REVERT JUMPDEST POP MLOAD SWAP2 SWAP1 POP JUMP JUMPDEST PUSH4 0x4E487B71 PUSH1 0xE0 SHL PUSH1 0x0 MSTORE PUSH1 0x11 PUSH1 0x4 MSTORE PUSH1 0x24 PUSH1 0x0 REVERT JUMPDEST DUP2 DUP2 SUB PUSH1 0x0 DUP4 SLT DUP1 ISZERO DUP4 DUP4 SGT AND DUP4 DUP4 SLT DUP3 AND OR ISZERO PUSH2 0x45F9 JUMPI PUSH2 0x45F9 PUSH2 0x45C3 JUMP JUMPDEST POP SWAP3 SWAP2 POP POP JUMP JUMPDEST DUP1 DUP3 MUL PUSH1 0x0 DUP3 SLT PUSH1 0x1 PUSH1 0xFF SHL DUP5 EQ AND ISZERO PUSH2 0x461C JUMPI PUSH2 0x461C PUSH2 0x45C3 JUMP JUMPDEST DUP2 DUP2 SDIV DUP4 EQ DUP3 ISZERO OR PUSH2 0x12A5 JUMPI PUSH2 0x12A5 PUSH2 0x45C3 JUMP JUMPDEST PUSH4 0x4E487B71 PUSH1 0xE0 SHL PUSH1 0x0 MSTORE PUSH1 0x12 PUSH1 0x4 MSTORE PUSH1 0x24 PUSH1 0x0 REVERT JUMPDEST PUSH1 0x0 DUP3 PUSH2 0x4655 JUMPI PUSH2 0x4655 PUSH2 0x4630 JUMP JUMPDEST PUSH1 0x1 PUSH1 0xFF SHL DUP3 EQ PUSH1 0x0 NOT DUP5 EQ AND ISZERO PUSH2 0x466F JUMPI PUSH2 0x466F PUSH2 0x45C3 JUMP JUMPDEST POP SDIV SWAP1 JUMP JUMPDEST DUP1 DUP3 ADD DUP3 DUP2 SLT PUSH1 0x0 DUP4 SLT DUP1 ISZERO DUP3 AND DUP3 ISZERO DUP3 AND OR ISZERO PUSH2 0x21DB JUMPI PUSH2 0x21DB PUSH2 0x45C3 JUMP JUMPDEST DUP1 DUP3 MUL DUP2 ISZERO DUP3 DUP3 DIV DUP5 EQ OR PUSH2 0x12A5 JUMPI PUSH2 0x12A5 PUSH2 0x45C3 JUMP JUMPDEST PUSH1 0x0 DUP3 PUSH2 0x46BA JUMPI PUSH2 0x46BA PUSH2 0x4630 JUMP JUMPDEST POP DIV SWAP1 JUMP JUMPDEST DUP2 DUP2 SUB DUP2 DUP2 GT ISZERO PUSH2 0x12A5 JUMPI PUSH2 0x12A5 PUSH2 0x45C3 JUMP JUMPDEST DUP1 DUP3 ADD DUP1 DUP3 GT ISZERO PUSH2 0x12A5 JUMPI PUSH2 0x12A5 PUSH2 0x45C3 JUMP JUMPDEST PUSH1 0x0 JUMPDEST DUP4 DUP2 LT ISZERO PUSH2 0x4700 JUMPI DUP2 DUP2 ADD MLOAD DUP4 DUP3 ADD MSTORE PUSH1 0x20 ADD PUSH2 0x46E8 JUMP JUMPDEST POP POP PUSH1 0x0 SWAP2 ADD MSTORE JUMP JUMPDEST PUSH1 0x0 DUP3 MLOAD PUSH2 0x471B DUP2 DUP5 PUSH1 0x20 DUP8 ADD PUSH2 0x46E5 JUMP JUMPDEST SWAP2 SWAP1 SWAP2 ADD SWAP3 SWAP2 POP POP JUMP JUMPDEST PUSH1 0x0 PUSH1 0x20 DUP3 DUP5 SUB SLT ISZERO PUSH2 0x4737 JUMPI PUSH1 0x0 DUP1 REVERT JUMPDEST DUP2 MLOAD PUSH2 0xA35 DUP2 PUSH2 0x2F2A JUMP JUMPDEST PUSH4 0x4E487B71 PUSH1 0xE0 SHL PUSH1 0x0 MSTORE PUSH1 0x32 PUSH1 0x4 MSTORE PUSH1 0x24 PUSH1 0x0 REVERT JUMPDEST PUSH1 0x0 PUSH1 0xE0 DUP4 ADD PUSH1 0x1 DUP1 PUSH1 0xA0 SHL SUB DUP1 DUP5 MLOAD AND DUP6 MSTORE PUSH1 0x20 DUP2 PUSH1 0x20 DUP7 ADD MLOAD AND PUSH1 0x20 DUP8 ADD MSTORE DUP2 PUSH1 0x40 DUP7 ADD MLOAD AND PUSH1 0x40 DUP8 ADD MSTORE DUP2 PUSH1 0x60 DUP7 ADD MLOAD AND PUSH1 0x60 DUP8 ADD MSTORE DUP2 PUSH1 0x80 DUP7 ADD MLOAD AND PUSH1 0x80 DUP8 ADD MSTORE DUP2 PUSH1 0xA0 DUP7 ADD MLOAD AND PUSH1 0xA0 DUP8 ADD MSTORE PUSH1 0xC0 DUP6 ADD MLOAD PUSH1 0xE0 PUSH1 0xC0 DUP9 ADD MSTORE DUP4 DUP2 MLOAD DUP1 DUP7 MSTORE PUSH2 0x100 DUP10 ADD SWAP2 POP PUSH1 0x20 DUP4 ADD SWAP6 POP PUSH1 0x0 SWAP3 POP JUMPDEST DUP1 DUP4 LT ISZERO PUSH2 0x47EF JUMPI DUP6 MLOAD DUP6 AND DUP3 MSTORE SWAP5 DUP4 ADD SWAP5 PUSH1 0x1 SWAP3 SWAP1 SWAP3 ADD SWAP2 SWAP1 DUP4 ADD SWAP1 PUSH2 0x47CD JUMP JUMPDEST POP SWAP8 SWAP7 POP POP POP POP POP POP POP JUMP JUMPDEST PUSH1 0x0 DUP2 MLOAD DUP1 DUP5 MSTORE PUSH1 0x20 DUP1 DUP6 ADD SWAP5 POP PUSH1 0x20 DUP5 ADD PUSH1 0x0 JUMPDEST DUP4 DUP2 LT ISZERO PUSH2 0x482C JUMPI DUP2 MLOAD DUP8 MSTORE SWAP6 DUP3 ADD SWAP6 SWAP1 DUP3 ADD SWAP1 PUSH1 0x1 ADD PUSH2 0x4810 JUMP JUMPDEST POP SWAP5 SWAP6 SWAP5 POP POP POP POP POP JUMP JUMPDEST PUSH1 0x20 DUP2 MSTORE PUSH1 0x0 DUP3 MLOAD PUSH2 0x200 DUP1 PUSH1 0x20 DUP6 ADD MSTORE PUSH2 0x4856 PUSH2 0x220 DUP6 ADD DUP4 PUSH2 0x4758 JUMP JUMPDEST SWAP2 POP PUSH1 0x20 DUP6 ADD MLOAD PUSH2 0x48B3 PUSH1 0x40 DUP7 ADD DUP3 DUP1 MLOAD DUP3 MSTORE PUSH1 0x20 DUP2 ADD MLOAD PUSH1 0x20 DUP4 ADD MSTORE PUSH1 0x40 DUP2 ADD MLOAD PUSH1 0x40 DUP4 ADD MSTORE PUSH1 0x60 DUP2 ADD MLOAD PUSH1 0x60 DUP4 ADD MSTORE PUSH1 0x80 DUP2 ADD MLOAD PUSH1 0x80 DUP4 ADD MSTORE PUSH1 0xA0 DUP2 ADD MLOAD PUSH1 0xA0 DUP4 ADD MSTORE PUSH1 0xC0 DUP2 ADD MLOAD PUSH1 0xC0 DUP4 ADD MSTORE PUSH1 0xE0 DUP2 ADD MLOAD PUSH1 0xE0 DUP4 ADD MSTORE POP POP JUMP JUMPDEST POP PUSH1 0x40 DUP6 ADD MLOAD PUSH1 0xFF SWAP1 DUP2 AND PUSH2 0x140 DUP7 ADD MSTORE PUSH1 0x60 DUP7 ADD MLOAD AND PUSH2 0x160 DUP6 ADD MSTORE PUSH1 0x80 DUP6 ADD MLOAD ISZERO ISZERO PUSH2 0x180 DUP6 ADD MSTORE PUSH1 0xA0 DUP6 ADD MLOAD ISZERO ISZERO PUSH2 0x1A0 DUP6 ADD MSTORE PUSH1 0xC0 DUP6 ADD MLOAD ISZERO ISZERO PUSH2 0x1C0 DUP6 ADD MSTORE PUSH1 0xE0 DUP6 ADD MLOAD PUSH2 0x1E0 DUP6 ADD MSTORE PUSH2 0x100 DUP6 ADD MLOAD DUP5 DUP4 SUB PUSH1 0x1F NOT ADD DUP3 DUP7 ADD MSTORE PUSH2 0xA95 DUP4 DUP3 PUSH2 0x47FB JUMP JUMPDEST PUSH1 0x0 PUSH1 0x20 DUP1 DUP4 ADD DUP2 DUP5 MSTORE DUP1 DUP6 MLOAD DUP1 DUP4 MSTORE PUSH1 0x40 DUP7 ADD SWAP2 POP PUSH1 0x40 DUP2 PUSH1 0x5 SHL DUP8 ADD ADD SWAP3 POP DUP4 DUP8 ADD PUSH1 0x0 JUMPDEST DUP3 DUP2 LT ISZERO PUSH2 0x498A JUMPI DUP8 DUP6 SUB PUSH1 0x3F NOT ADD DUP5 MSTORE DUP2 MLOAD DUP1 MLOAD DUP1 DUP8 MSTORE PUSH2 0x496B DUP2 DUP10 DUP10 ADD DUP11 DUP6 ADD PUSH2 0x46E5 JUMP JUMPDEST PUSH1 0x1F ADD PUSH1 0x1F NOT AND SWAP6 SWAP1 SWAP6 ADD DUP7 ADD SWAP5 POP SWAP3 DUP6 ADD SWAP3 SWAP1 DUP6 ADD SWAP1 PUSH1 0x1 ADD PUSH2 0x4944 JUMP JUMPDEST POP SWAP3 SWAP8 SWAP7 POP POP POP POP POP POP POP JUMP JUMPDEST PUSH1 0x0 PUSH1 0x20 DUP1 DUP4 DUP6 SUB SLT ISZERO PUSH2 0x49AA JUMPI PUSH1 0x0 DUP1 REVERT JUMPDEST DUP3 MLOAD PUSH1 0x1 PUSH1 0x1 PUSH1 0x40 SHL SUB DUP1 DUP3 GT ISZERO PUSH2 0x49C1 JUMPI PUSH1 0x0 DUP1 REVERT JUMPDEST DUP2 DUP6 ADD SWAP2 POP DUP6 PUSH1 0x1F DUP4 ADD SLT PUSH2 0x49D5 JUMPI PUSH1 0x0 DUP1 REVERT JUMPDEST DUP2 MLOAD PUSH2 0x49E3 PUSH2 0x319F DUP3 PUSH2 0x3136 JUMP JUMPDEST DUP2 DUP2 MSTORE PUSH1 0x5 SWAP2 SWAP1 SWAP2 SHL DUP4 ADD DUP5 ADD SWAP1 DUP5 DUP2 ADD SWAP1 DUP9 DUP4 GT ISZERO PUSH2 0x4A02 JUMPI PUSH1 0x0 DUP1 REVERT JUMPDEST DUP6 DUP6 ADD JUMPDEST DUP4 DUP2 LT ISZERO PUSH2 0x4A76 JUMPI DUP1 MLOAD DUP6 DUP2 GT ISZERO PUSH2 0x4A1E JUMPI PUSH1 0x0 DUP1 DUP2 REVERT JUMPDEST DUP7 ADD PUSH1 0x3F DUP2 ADD DUP12 SGT PUSH2 0x4A30 JUMPI PUSH1 0x0 DUP1 DUP2 REVERT JUMPDEST DUP8 DUP2 ADD MLOAD PUSH1 0x40 PUSH2 0x4A42 PUSH2 0x319F DUP4 PUSH2 0x3159 JUMP JUMPDEST DUP3 DUP2 MSTORE DUP14 DUP3 DUP5 DUP7 ADD ADD GT ISZERO PUSH2 0x4A57 JUMPI PUSH1 0x0 DUP1 DUP2 REVERT JUMPDEST PUSH2 0x4A66 DUP4 DUP13 DUP4 ADD DUP5 DUP8 ADD PUSH2 0x46E5 JUMP JUMPDEST DUP7 MSTORE POP POP POP SWAP2 DUP7 ADD SWAP2 DUP7 ADD PUSH2 0x4A06 JUMP JUMPDEST POP SWAP9 SWAP8 POP POP POP POP POP POP POP POP JUMP JUMPDEST PUSH1 0x0 PUSH1 0x1 DUP3 ADD PUSH2 0x4A95 JUMPI PUSH2 0x4A95 PUSH2 0x45C3 JUMP JUMPDEST POP PUSH1 0x1 ADD SWAP1 JUMP INVALID LOG2 PUSH5 0x6970667358 0x22 SLT KECCAK256 BLOBHASH 0xD4 0xB1 0x27 PUSH21 0x7AB744B294DA6A7AD7B38A941684152C4454DAE6B0 GASLIMIT 0xBA 0xEF PUSH6 0xD85B64736F6C PUSH4 0x43000818 STOP CALLER "},"methodIdentifiers":{"acceptablePriceMax()":"1ef75602","acceptablePriceMin()":"34b3c1e4","afterOrderCancellation(bytes32,(((string,address)[],(string,address[])[]),((string,uint256)[],(string,uint256[])[]),((string,int256)[],(string,int256[])[]),((string,bool)[],(string,bool[])[]),((string,bytes32)[],(string,bytes32[])[]),((string,bytes)[],(string,bytes[])[]),((string,string)[],(string,string[])[])),(((string,address)[],(string,address[])[]),((string,uint256)[],(string,uint256[])[]),((string,int256)[],(string,int256[])[]),((string,bool)[],(string,bool[])[]),((string,bytes32)[],(string,bytes32[])[]),((string,bytes)[],(string,bytes[])[]),((string,string)[],(string,string[])[])))":"d8bbbe42","afterOrderExecution(bytes32,(((string,address)[],(string,address[])[]),((string,uint256)[],(string,uint256[])[]),((string,int256)[],(string,int256[])[]),((string,bool)[],(string,bool[])[]),((string,bytes32)[],(string,bytes32[])[]),((string,bytes)[],(string,bytes[])[]),((string,string)[],(string,string[])[])),(((string,address)[],(string,address[])[]),((string,uint256)[],(string,uint256[])[]),((string,int256)[],(string,int256[])[]),((string,bool)[],(string,bool[])[]),((string,bytes32)[],(string,bytes32[])[]),((string,bytes)[],(string,bytes[])[]),((string,string)[],(string,string[])[])))":"ffaf393f","afterOrderFrozen(bytes32,(((string,address)[],(string,address[])[]),((string,uint256)[],(string,uint256[])[]),((string,int256)[],(string,int256[])[]),((string,bool)[],(string,bool[])[]),((string,bytes32)[],(string,bytes32[])[]),((string,bytes)[],(string,bytes[])[]),((string,string)[],(string,string[])[])),(((string,address)[],(string,address[])[]),((string,uint256)[],(string,uint256[])[]),((string,int256)[],(string,int256[])[]),((string,bool)[],(string,bool[])[]),((string,bytes32)[],(string,bytes32[])[]),((string,bytes)[],(string,bytes[])[]),((string,string)[],(string,string[])[])))":"83fc34cf","cancelOrder(bytes32)":"7489ec23","createCloseOrder(bytes32)":"72525e23","createLimitOrder(bytes32,uint256,uint256,uint256,bool)":"08255408","createOpenOrder(bytes32,uint256,uint256,uint256,bool)":"b5b0862f","createStopLoss(bytes32,uint256)":"8c509fd5","createTakeProfit(bytes32,uint256)":"69077bb2","dataStore()":"660d0d67","exchangeRouter()":"1cb85818","execFee()":"5df970ef","executeOrder(bytes32)":"049b76c4","forceVaultReset(address,bytes32)":"05e4c292","getPositionValueUsd(bytes32)":"4cb7c319","gmxKeyToRyexKey(bytes32)":"fa37e576","gmxMarketOf(bytes32)":"0e177ccc","gmxOrderHandler()":"e59feeef","gmxPositionData(address,bytes32,bool)":"3157d9c7","gmxRouter()":"634e3180","lastOrderKey()":"511ea188","marketOracle(bytes32)":"c8fe528d","orderVault()":"93845e46","orders(bytes32)":"9c3f1e90","owner()":"8da5cb5b","positionKey(address,bytes32,bool)":"066bf5a9","positions(bytes32)":"514ea4bf","reader()":"d4fc42c6","reducePosition(bytes32,uint256)":"76197ba3","registerMarket(bytes32,address,address)":"453e5a2c","renounceOwnership()":"715018a6","requestCancellation(bytes32)":"2f94cdd1","setAcceptablePrices(uint256,uint256)":"1c89fea9","setExecFee(uint256)":"3db12f8f","setGmxOrderHandler(address)":"846ce088","settleGmxOrder(bytes32)":"646e3ff4","sweep(address,address,uint256)":"62c06767","transferOwnership(address)":"f2fde38b","usdc()":"3e413bee"}}}}}