{"src/VaultFactory.sol":{"VaultFactory":{"abi":[{"inputs":[{"internalType":"address","name":"implementation_","type":"address"},{"internalType":"contract IGmxAdapter","name":"gmx_","type":"address"},{"internalType":"address","name":"usdc_","type":"address"},{"internalType":"address","name":"admin_","type":"address"}],"stateMutability":"nonpayable","type":"constructor"},{"inputs":[],"name":"BadRiskParams","type":"error"},{"inputs":[],"name":"EnforcedPause","type":"error"},{"inputs":[],"name":"ExpectedPause","type":"error"},{"inputs":[],"name":"FailedDeployment","type":"error"},{"inputs":[{"internalType":"uint256","name":"balance","type":"uint256"},{"internalType":"uint256","name":"needed","type":"uint256"}],"name":"InsufficientBalance","type":"error"},{"inputs":[],"name":"MarketExists","type":"error"},{"inputs":[],"name":"MarketMismatch","type":"error"},{"inputs":[],"name":"NoMarket","type":"error"},{"inputs":[],"name":"NotRedeemable","type":"error"},{"inputs":[{"internalType":"address","name":"owner","type":"address"}],"name":"OwnableInvalidOwner","type":"error"},{"inputs":[{"internalType":"address","name":"account","type":"address"}],"name":"OwnableUnauthorizedAccount","type":"error"},{"inputs":[{"internalType":"address","name":"token","type":"address"}],"name":"SafeERC20FailedOperation","type":"error"},{"inputs":[],"name":"StillRedeemable","type":"error"},{"inputs":[],"name":"VaultExists","type":"error"},{"inputs":[],"name":"ZeroAddress","type":"error"},{"anonymous":false,"inputs":[{"indexed":true,"internalType":"bytes32","name":"marketId","type":"bytes32"},{"indexed":false,"internalType":"address","name":"oracle","type":"address"},{"indexed":false,"internalType":"address","name":"rToken","type":"address"}],"name":"MarketAdded","type":"event"},{"anonymous":false,"inputs":[{"indexed":true,"internalType":"address","name":"previousOwner","type":"address"},{"indexed":true,"internalType":"address","name":"newOwner","type":"address"}],"name":"OwnershipTransferred","type":"event"},{"anonymous":false,"inputs":[{"indexed":false,"internalType":"address","name":"account","type":"address"}],"name":"Paused","type":"event"},{"anonymous":false,"inputs":[{"indexed":true,"internalType":"bytes32","name":"marketId","type":"bytes32"},{"indexed":true,"internalType":"address","name":"vault","type":"address"}],"name":"RedemptionDequeued","type":"event"},{"anonymous":false,"inputs":[{"indexed":true,"internalType":"bytes32","name":"marketId","type":"bytes32"},{"indexed":true,"internalType":"address","name":"vault","type":"address"}],"name":"RedemptionEnqueued","type":"event"},{"anonymous":false,"inputs":[{"indexed":true,"internalType":"address","name":"token","type":"address"},{"indexed":true,"internalType":"address","name":"to","type":"address"},{"indexed":false,"internalType":"uint256","name":"amount","type":"uint256"}],"name":"SweptFees","type":"event"},{"anonymous":false,"inputs":[{"indexed":false,"internalType":"address","name":"account","type":"address"}],"name":"Unpaused","type":"event"},{"anonymous":false,"inputs":[{"indexed":true,"internalType":"address","name":"owner","type":"address"},{"indexed":true,"internalType":"bytes32","name":"marketId","type":"bytes32"},{"indexed":false,"internalType":"address","name":"vault","type":"address"}],"name":"VaultCreated","type":"event"},{"inputs":[{"internalType":"bytes32","name":"marketId","type":"bytes32"},{"internalType":"contract IPriceOracle","name":"oracle","type":"address"},{"internalType":"string","name":"name","type":"string"},{"internalType":"string","name":"symbol","type":"string"},{"components":[{"internalType":"uint16","name":"maxLtv1xBps","type":"uint16"},{"internalType":"uint16","name":"bufferBps","type":"uint16"},{"internalType":"uint16","name":"maxLtvAtMaxLevBps","type":"uint16"},{"internalType":"uint8","name":"flatTier","type":"uint8"},{"internalType":"uint8","name":"maxLeverage","type":"uint8"}],"internalType":"struct RiskParams","name":"risk","type":"tuple"}],"name":"addMarket","outputs":[{"internalType":"address","name":"rToken","type":"address"}],"stateMutability":"nonpayable","type":"function"},{"inputs":[{"internalType":"bytes32","name":"marketId","type":"bytes32"}],"name":"createVault","outputs":[{"internalType":"address","name":"vault","type":"address"}],"stateMutability":"nonpayable","type":"function"},{"inputs":[{"internalType":"bytes32","name":"marketId","type":"bytes32"},{"internalType":"address","name":"vault","type":"address"}],"name":"enqueueRedemption","outputs":[],"stateMutability":"nonpayable","type":"function"},{"inputs":[],"name":"gmxAdapter","outputs":[{"internalType":"contract IGmxAdapter","name":"","type":"address"}],"stateMutability":"view","type":"function"},{"inputs":[],"name":"implementation","outputs":[{"internalType":"address","name":"","type":"address"}],"stateMutability":"view","type":"function"},{"inputs":[{"internalType":"bytes32","name":"","type":"bytes32"},{"internalType":"address","name":"","type":"address"}],"name":"inRedemptionQueue","outputs":[{"internalType":"bool","name":"","type":"bool"}],"stateMutability":"view","type":"function"},{"inputs":[{"internalType":"address","name":"","type":"address"}],"name":"isVault","outputs":[{"internalType":"bool","name":"","type":"bool"}],"stateMutability":"view","type":"function"},{"inputs":[],"name":"marketCount","outputs":[{"internalType":"uint256","name":"","type":"uint256"}],"stateMutability":"view","type":"function"},{"inputs":[{"internalType":"uint256","name":"","type":"uint256"}],"name":"marketIds","outputs":[{"internalType":"bytes32","name":"","type":"bytes32"}],"stateMutability":"view","type":"function"},{"inputs":[{"internalType":"bytes32","name":"","type":"bytes32"}],"name":"markets","outputs":[{"internalType":"bool","name":"active","type":"bool"},{"internalType":"address","name":"oracle","type":"address"},{"internalType":"address","name":"rToken","type":"address"},{"internalType":"uint16","name":"maxLtv1xBps","type":"uint16"},{"internalType":"uint16","name":"bufferBps","type":"uint16"},{"internalType":"uint16","name":"maxLtvAtMaxLevBps","type":"uint16"},{"internalType":"uint8","name":"flatTier","type":"uint8"},{"internalType":"uint8","name":"maxLeverage","type":"uint8"}],"stateMutability":"view","type":"function"},{"inputs":[{"internalType":"bytes32","name":"marketId","type":"bytes32"}],"name":"nextRedeemable","outputs":[{"internalType":"address","name":"","type":"address"}],"stateMutability":"view","type":"function"},{"inputs":[{"internalType":"int256","name":"delta","type":"int256"}],"name":"onCollateralChanged","outputs":[],"stateMutability":"nonpayable","type":"function"},{"inputs":[],"name":"owner","outputs":[{"internalType":"address","name":"","type":"address"}],"stateMutability":"view","type":"function"},{"inputs":[],"name":"pause","outputs":[],"stateMutability":"nonpayable","type":"function"},{"inputs":[],"name":"paused","outputs":[{"internalType":"bool","name":"","type":"bool"}],"stateMutability":"view","type":"function"},{"inputs":[{"internalType":"bytes32","name":"marketId","type":"bytes32"},{"internalType":"uint256","name":"index","type":"uint256"}],"name":"pruneRedemption","outputs":[],"stateMutability":"nonpayable","type":"function"},{"inputs":[{"internalType":"bytes32","name":"marketId","type":"bytes32"},{"internalType":"uint256","name":"i","type":"uint256"}],"name":"redemptionQueueAt","outputs":[{"internalType":"address","name":"","type":"address"}],"stateMutability":"view","type":"function"},{"inputs":[{"internalType":"bytes32","name":"marketId","type":"bytes32"}],"name":"redemptionQueueLength","outputs":[{"internalType":"uint256","name":"","type":"uint256"}],"stateMutability":"view","type":"function"},{"inputs":[],"name":"renounceOwnership","outputs":[],"stateMutability":"nonpayable","type":"function"},{"inputs":[{"internalType":"contract IGmxAdapter","name":"gmx_","type":"address"}],"name":"setGmxAdapter","outputs":[],"stateMutability":"nonpayable","type":"function"},{"inputs":[{"internalType":"contract IERC20","name":"token","type":"address"},{"internalType":"address","name":"to","type":"address"},{"internalType":"uint256","name":"amount","type":"uint256"}],"name":"sweepFees","outputs":[],"stateMutability":"nonpayable","type":"function"},{"inputs":[],"name":"totalCollateralLocked","outputs":[{"internalType":"uint256","name":"","type":"uint256"}],"stateMutability":"view","type":"function"},{"inputs":[],"name":"totalVaults","outputs":[{"internalType":"uint256","name":"","type":"uint256"}],"stateMutability":"view","type":"function"},{"inputs":[{"internalType":"address","name":"newOwner","type":"address"}],"name":"transferOwnership","outputs":[],"stateMutability":"nonpayable","type":"function"},{"inputs":[],"name":"unpause","outputs":[],"stateMutability":"nonpayable","type":"function"},{"inputs":[],"name":"usdc","outputs":[{"internalType":"address","name":"","type":"address"}],"stateMutability":"view","type":"function"},{"inputs":[{"internalType":"address","name":"","type":"address"},{"internalType":"bytes32","name":"","type":"bytes32"}],"name":"vaultOf","outputs":[{"internalType":"address","name":"","type":"address"}],"stateMutability":"view","type":"function"}],"evm":{"bytecode":{"linkReferences":{},"object":"60a06040523480156200001157600080fd5b50604051620029e7380380620029e7833981016040819052620000349162000161565b806001600160a01b0381166200006457604051631e4fbdf760e01b81526000600482015260240160405180910390fd5b6200006f81620000f8565b506001600160a01b03841615806200008e57506001600160a01b038216155b80620000a157506001600160a01b038316155b15620000c05760405163d92e233d60e01b815260040160405180910390fd5b506001600160a01b03928316608052600180549284166001600160a01b031993841617905560028054919093169116179055620001c9565b600080546001600160a01b038381166001600160a01b0319831681178455604051919092169283917f8be0079c531659141344cd1fd0a4f28419497f9722a3daafe3b4186f6b6457e09190a35050565b6001600160a01b03811681146200015e57600080fd5b50565b600080600080608085870312156200017857600080fd5b8451620001858162000148565b6020860151909450620001988162000148565b6040860151909350620001ab8162000148565b6060860151909250620001be8162000148565b939692955090935050565b6080516127fb620001ec600039600081816102f6015261077b01526127fb6000f3fe60806040523480156200001157600080fd5b5060043610620001cc5760003560e01c8063715018a6116200010d5780639ca3590411620000a3578063e70372f1116200007a578063e70372f114620004d0578063ec97908214620004e7578063f2fde38b14620004f0578063feb3ff0c146200050757600080fd5b80639ca35904146200047f578063ac44317f1462000496578063c909985b14620004b957600080fd5b80637e3e91ce11620000e45780637e3e91ce14620004425780638456cb5914620004595780638d65402314620004635780638da5cb5b146200046d57600080fd5b8063715018a614620003515780637564912b146200035b578063779a9683146200042b57600080fd5b80633f4ba83a11620001835780634e52b48c116200015a5780634e52b48c14620002dc5780635c60da1b14620002f05780635c975abb1462000318578063652b9b41146200032b57600080fd5b80633f4ba83a14620002a25780634531c4c314620002ae5780634b91fa9314620002c557600080fd5b806308a128b014620001d157806309b2d6bd146200020557806317799f36146200021c57806335d1e92014620002335780633df5878c146200024c5780633e413bee146200028e575b600080fd5b620001e8620001e23660046200169f565b6200053e565b6040516001600160a01b0390911681526020015b60405180910390f35b620001e862000216366004620016c2565b6200057f565b620001e86200022d366004620016c2565b62000671565b6200023d60085481565b604051908152602001620001fc565b6200027d6200025d366004620016f2565b600a60209081526000928352604080842090915290825290205460ff1681565b6040519015158152602001620001fc565b600254620001e8906001600160a01b031681565b620002ac62000963565b005b620002ac620002bf366004620016c2565b62000979565b620002ac620002d6366004620016f2565b62000a18565b600154620001e8906001600160a01b031681565b620001e87f000000000000000000000000000000000000000000000000000000000000000081565b600054600160a01b900460ff166200027d565b6200027d6200033c36600462001725565b60066020526000908152604090205460ff1681565b620002ac62000c42565b620003d46200036c366004620016c2565b6003602052600090815260409020805460019091015460ff808316926001600160a01b036101009091048116929081169161ffff600160a01b8304811692600160b01b8104821692600160c01b820490921691600160d01b8204811691600160d81b90041688565b6040805198151589526001600160a01b0397881660208a0152969095169587019590955261ffff928316606087015290821660808601521660a084015260ff91821660c08401521660e082015261010001620001fc565b6200023d6200043c366004620016c2565b62000c58565b620001e86200045336600462001798565b62000c7a565b620002ac62001078565b6200023d60075481565b6000546001600160a01b0316620001e8565b620002ac620004903660046200169f565b6200108c565b6200023d620004a7366004620016c2565b60009081526009602052604090205490565b620002ac620004ca3660046200184b565b6200126d565b620002ac620004e136600462001725565b62001308565b6004546200023d565b620002ac6200050136600462001725565b6200135c565b620001e86200051836600462001891565b60056020908152600092835260408084209091529082529020546001600160a01b031681565b6000828152600960205260408120805483908110620005615762000561620018c0565b6000918252602090912001546001600160a01b031690505b92915050565b60008181526009602052604081208054825b818110156200066657828181548110620005af57620005af620018c0565b60009182526020918290200154604080516357c902c160e11b815290516001600160a01b039092169263af920582926004808401938290030181865afa158015620005fe573d6000803e3d6000fd5b505050506040513d601f19601f82011682018060405250810190620006249190620018d6565b156200065d578281815481106200063f576200063f620018c0565b6000918252602090912001546001600160a01b031695945050505050565b60010162000591565b506000949350505050565b60006200067d620013a1565b60008281526003602090815260409182902082516101008082018552825460ff80821615158085526001600160a01b03939092048316958401959095526001909301549081169482019490945261ffff600160a01b850481166060830152600160b01b850481166080830152600160c01b85041660a0820152600160d01b8404831660c0820152600160d81b90930490911660e08301526200073257604051631e3700c360e21b815260040160405180910390fd5b3360009081526005602090815260408083208684529091529020546001600160a01b031615620007755760405163108e5c5f60e21b815260040160405180910390fd5b620007a07f0000000000000000000000000000000000000000000000000000000000000000620013cd565b336000908152600560209081526040808320878452825280832080546001600160a01b0319166001600160a01b038616908117909155835260069091528120805460ff191660011790556007805492945090620007fd8362001910565b90915550506040805160a0808201835260608085015161ffff90811684526080808701518216602080870191825294880151831686880190815260c089015160ff90811695880195865260e08a01518116938801938452600154968a01516002548b8b01519a51635dd92cd560e01b81523360048201523060248201526001600160a01b03998a16604482015291891660648301528816608482015298871660a48a015260c489018c90528751851660e48a0152915184166101048901525190921661012487015291518116610144860152905116610164840152909190841690635dd92cd59061018401600060405180830381600087803b1580156200090357600080fd5b505af115801562000918573d6000803e3d6000fd5b50506040516001600160a01b03861681528692503391507f5fc82289990be1fbf29d342f6783ce37256c887a0a9d9f32a24c95a9b991a4ef9060200160405180910390a35050919050565b6200096d620013dc565b620009776200140b565b565b3360009081526006602052604090205460ff16620009aa57604051631e3700c360e21b815260040160405180910390fd5b6000811315620009d4578060086000828254620009c891906200192c565b9091555062000a159050565b600081121562000a15576000620009eb8262001942565b9050600854811162000a0d578060085462000a07919062001961565b62000a10565b60005b600855505b50565b6001600160a01b03811660009081526006602052604090205460ff1662000a5257604051631e3700c360e21b815260040160405180910390fd5b60008281526003602052604090205460ff1662000a8257604051631e3700c360e21b815260040160405180910390fd5b81816001600160a01b0316636ed71ede6040518163ffffffff1660e01b8152600401602060405180830381865afa15801562000ac2573d6000803e3d6000fd5b505050506040513d601f19601f8201168201806040525081019062000ae8919062001977565b1462000b0757604051632c7d83fd60e01b815260040160405180910390fd5b806001600160a01b031663af9205826040518163ffffffff1660e01b8152600401602060405180830381865afa15801562000b46573d6000803e3d6000fd5b505050506040513d601f19601f8201168201806040525081019062000b6c9190620018d6565b62000b8a57604051630190a03160e71b815260040160405180910390fd5b6000828152600a602090815260408083206001600160a01b038516845290915290205460ff161562000bba575050565b6000828152600a602090815260408083206001600160a01b038516808552908352818420805460ff191660019081179091558685526009845282852080549182018155855292842090920180546001600160a01b0319168317905551909184917fa6a4f77845856d1b09ef816c06ef940d8a52b5c1855a6d75abf615327b581b629190a35050565b62000c4c620013dc565b62000977600062001462565b6004818154811062000c6957600080fd5b600091825260209091200154905081565b600062000c86620013dc565b60008881526003602052604090205460ff161562000cb757604051638fc6f59b60e01b815260040160405180910390fd5b6001600160a01b03871662000cdf5760405163d92e233d60e01b815260040160405180910390fd5b62000cf160a083016080840162001991565b60ff16158062000d11575062000d0b6020830183620019b6565b61ffff16155b8062000d30575062000d2a6040830160208401620019b6565b61ffff16155b8062000d4e575062000d49608083016060840162001991565b60ff16155b8062000d81575062000d6760a083016080840162001991565b60ff1662000d7c608084016060850162001991565b60ff16115b8062000db3575062000d976020830183620019b6565b61ffff1662000dad6060840160408501620019b6565b61ffff16115b8062000df4575061271062000dcf6040840160208501620019b6565b61ffff1662000de26020850185620019b6565b61ffff1662000df291906200192c565b115b1562000e13576040516305f88d2d60e51b815260040160405180910390fd5b308686868660405162000e269062001691565b62000e3695949392919062001a05565b604051809103906000f08015801562000e53573d6000803e3d6000fd5b509050604051806101000160405280600115158152602001886001600160a01b03168152602001826001600160a01b0316815260200183600001602081019062000e9e9190620019b6565b61ffff16815260200183602001602081019062000ebc9190620019b6565b61ffff16815260200162000ed76060850160408601620019b6565b61ffff16815260200162000ef2608085016060860162001991565b60ff16815260200162000f0c60a085016080860162001991565b60ff90811690915260008a815260036020908152604080832085518154878501516001600160a81b0319909116911515610100600160a81b031916919091176101006001600160a01b0392831602178255868301516001928301805460608a015160808b015160a08c015160c08d015160e0909d01519587166001600160b01b031990941693909317600160a01b61ffff938416021763ffffffff60b01b1916600160b01b9183169190910261ffff60c01b191617600160c01b91909216021761ffff60d01b1916600160d01b9989169990990260ff60d81b191698909817600160d81b9190971602959095179095556004805495860181559092527f8a35acfbc15ff81a39ae7d344fd709f28e8600b4aa8c65c6b64bfe7fe36bd19b9093018b905580518a831681529184169282019290925289917ff09d1fdc6abef8a7c2b3d689b6d8d0b273f33fa33fc97ba9b1ee89f2c71ad175910160405180910390a2979650505050505050565b62001082620013dc565b62000977620014b2565b60008281526009602052604081208054909190829084908110620010b457620010b4620018c0565b60009182526020918290200154604080516357c902c160e11b815290516001600160a01b039092169350839263af920582926004808401938290030181865afa15801562001106573d6000803e3d6000fd5b505050506040513d601f19601f820116820180604052508101906200112c9190620018d6565b156200114b57604051635057320d60e11b815260040160405180910390fd5b6000848152600a602090815260408083206001600160a01b03851684529091529020805460ff1916905581548290620011879060019062001961565b815481106200119a576200119a620018c0565b9060005260206000200160009054906101000a90046001600160a01b0316828481548110620011cd57620011cd620018c0565b9060005260206000200160006101000a8154816001600160a01b0302191690836001600160a01b03160217905550818054806200120e576200120e62001a4d565b600082815260208120820160001990810180546001600160a01b03191690559091019091556040516001600160a01b0383169186917f9027485cd014c90c0d501ae6517e58a7767b6212fa0dfa99493b2fa7b4f9b9cc9190a350505050565b62001277620013dc565b6001600160a01b0382166200129f5760405163d92e233d60e01b815260040160405180910390fd5b620012b56001600160a01b0384168383620014f8565b816001600160a01b0316836001600160a01b03167f50d2874e76fb9bfa29a91846ffc3f4be5a18e6cb549294b1ffbb11c1f264544383604051620012fb91815260200190565b60405180910390a3505050565b62001312620013dc565b6001600160a01b0381166200133a5760405163d92e233d60e01b815260040160405180910390fd5b600180546001600160a01b0319166001600160a01b0392909216919091179055565b62001366620013dc565b6001600160a01b0381166200139657604051631e4fbdf760e01b8152600060048201526024015b60405180910390fd5b62000a158162001462565b600054600160a01b900460ff1615620009775760405163d93c066560e01b815260040160405180910390fd5b60006200057982600062001551565b6000546001600160a01b03163314620009775760405163118cdaa760e01b81523360048201526024016200138d565b62001415620015ea565b6000805460ff60a01b191690557f5db9ee0a495bf2e6ff9c91a7834c1ba4fdd244a5e8aa4e537bd38aeae4b073aa335b6040516001600160a01b03909116815260200160405180910390a1565b600080546001600160a01b038381166001600160a01b0319831681178455604051919092169283917f8be0079c531659141344cd1fd0a4f28419497f9722a3daafe3b4186f6b6457e09190a35050565b620014bc620013a1565b6000805460ff60a01b1916600160a01b1790557f62e78cea01bee320cd4e420270b5ea74000d11b0c9f74754ebdbfc544b05a258620014453390565b604080516001600160a01b038416602482015260448082018490528251808303909101815260649091019091526020810180516001600160e01b031663a9059cbb60e01b1790526200154c90849062001615565b505050565b6000814710156200157f5760405163cf47918160e01b8152476004820152602481018390526044016200138d565b763d602d80600a3d3981f3363d3d373d3d3d363d730000008360601b60e81c176000526e5af43d82803e903d91602b57fd5bf38360781b176020526037600983f090506001600160a01b038116620005795760405163b06ebf3d60e01b815260040160405180910390fd5b600054600160a01b900460ff166200097757604051638dfc202b60e01b815260040160405180910390fd5b600080602060008451602086016000885af18062001639576040513d6000823e3d81fd5b50506000513d915081156200165357806001141562001660565b6001600160a01b0384163b155b156200168b57604051635274afe760e01b81526001600160a01b03851660048201526024016200138d565b50505050565b610d628062001a6483390190565b60008060408385031215620016b357600080fd5b50508035926020909101359150565b600060208284031215620016d557600080fd5b5035919050565b6001600160a01b038116811462000a1557600080fd5b600080604083850312156200170657600080fd5b8235915060208301356200171a81620016dc565b809150509250929050565b6000602082840312156200173857600080fd5b81356200174581620016dc565b9392505050565b60008083601f8401126200175f57600080fd5b50813567ffffffffffffffff8111156200177857600080fd5b6020830191508360208285010111156200179157600080fd5b9250929050565b6000806000806000806000878903610120811215620017b657600080fd5b883597506020890135620017ca81620016dc565b9650604089013567ffffffffffffffff80821115620017e857600080fd5b620017f68c838d016200174c565b909850965060608b01359150808211156200181057600080fd5b506200181f8b828c016200174c565b90955093505060a0607f19820112156200183857600080fd5b5060808801905092959891949750929550565b6000806000606084860312156200186157600080fd5b83356200186e81620016dc565b925060208401356200188081620016dc565b929592945050506040919091013590565b60008060408385031215620018a557600080fd5b8235620018b281620016dc565b946020939093013593505050565b634e487b7160e01b600052603260045260246000fd5b600060208284031215620018e957600080fd5b815180151581146200174557600080fd5b634e487b7160e01b600052601160045260246000fd5b600060018201620019255762001925620018fa565b5060010190565b80820180821115620005795762000579620018fa565b6000600160ff1b82016200195a576200195a620018fa565b5060000390565b81810381811115620005795762000579620018fa565b6000602082840312156200198a57600080fd5b5051919050565b600060208284031215620019a457600080fd5b813560ff811681146200174557600080fd5b600060208284031215620019c957600080fd5b813561ffff811681146200174557600080fd5b81835281816020850137506000828201602090810191909152601f909101601f19169091010190565b6001600160a01b038616815260606020820181905260009062001a2c9083018688620019dc565b828103604084015262001a41818587620019dc565b98975050505050505050565b634e487b7160e01b600052603160045260246000fdfe60a06040523480156200001157600080fd5b5060405162000d6238038062000d62833981016040819052620000349162000135565b8181600362000044838262000250565b50600462000053828262000250565b5050506001600160a01b03909216608052506200031c9050565b634e487b7160e01b600052604160045260246000fd5b600082601f8301126200009557600080fd5b81516001600160401b0380821115620000b257620000b26200006d565b604051601f8301601f19908116603f01168101908282118183101715620000dd57620000dd6200006d565b8160405283815260209250866020858801011115620000fb57600080fd5b600091505b838210156200011f578582018301518183018401529082019062000100565b6000602085830101528094505050505092915050565b6000806000606084860312156200014b57600080fd5b83516001600160a01b03811681146200016357600080fd5b60208501519093506001600160401b03808211156200018157600080fd5b6200018f8783880162000083565b93506040860151915080821115620001a657600080fd5b50620001b58682870162000083565b9150509250925092565b600181811c90821680620001d457607f821691505b602082108103620001f557634e487b7160e01b600052602260045260246000fd5b50919050565b601f8211156200024b576000816000526020600020601f850160051c81016020861015620002265750805b601f850160051c820191505b81811015620002475782815560010162000232565b5050505b505050565b81516001600160401b038111156200026c576200026c6200006d565b62000284816200027d8454620001bf565b84620001fb565b602080601f831160018114620002bc5760008415620002a35750858301515b600019600386901b1c1916600185901b17855562000247565b600085815260208120601f198616915b82811015620002ed57888601518255948401946001909101908401620002cc565b50858210156200030c5787850151600019600388901b60f8161c191681555b5050505050600190811b01905550565b608051610a1c620003466000396000818161019f015281816102f701526103fa0152610a1c6000f3fe608060405234801561001057600080fd5b50600436106100b45760003560e01c806370a082311161007157806370a082311461014357806395d89b411461016c5780639dc29fac14610174578063a9059cbb14610187578063c45a01551461019a578063dd62ed3e146101d957600080fd5b806306fdde03146100b9578063095ea7b3146100d757806318160ddd146100fa57806323b872dd1461010c578063313ce5671461011f57806340c10f191461012e575b600080fd5b6100c1610212565b6040516100ce9190610843565b60405180910390f35b6100ea6100e53660046108ae565b6102a4565b60405190151581526020016100ce565b6002545b6040519081526020016100ce565b6100ea61011a3660046108d8565b6102be565b604051601281526020016100ce565b61014161013c3660046108ae565b6102e2565b005b6100fe610151366004610914565b6001600160a01b031660009081526020819052604090205490565b6100c16103d6565b6101416101823660046108ae565b6103e5565b6100ea6101953660046108ae565b6104d1565b6101c17f000000000000000000000000000000000000000000000000000000000000000081565b6040516001600160a01b0390911681526020016100ce565b6100fe6101e7366004610936565b6001600160a01b03918216600090815260016020908152604080832093909416825291909152205490565b60606003805461022190610969565b80601f016020809104026020016040519081016040528092919081815260200182805461024d90610969565b801561029a5780601f1061026f5761010080835404028352916020019161029a565b820191906000526020600020905b81548152906001019060200180831161027d57829003601f168201915b5050505050905090565b6000336102b28185856104df565b60019150505b92915050565b6000336102cc8582856104f1565b6102d7858585610575565b506001949350505050565b60405163652b9b4160e01b81523360048201527f00000000000000000000000000000000000000000000000000000000000000006001600160a01b03169063652b9b4190602401602060405180830381865afa158015610346573d6000803e3d6000fd5b505050506040513d601f19601f8201168201806040525081019061036a91906109a3565b610387576040516362df054560e01b815260040160405180910390fd5b61039182826105d4565b6040518181526001600160a01b0383169033907fce21accfb51ee72824636232a59efe25f42552fdcb56b05ee1b63f85811f4aa1906020015b60405180910390a35050565b60606004805461022190610969565b60405163652b9b4160e01b81523360048201527f00000000000000000000000000000000000000000000000000000000000000006001600160a01b03169063652b9b4190602401602060405180830381865afa158015610449573d6000803e3d6000fd5b505050506040513d601f19601f8201168201806040525081019061046d91906109a3565b61048a576040516362df054560e01b815260040160405180910390fd5b610494828261060e565b6040518181526001600160a01b0383169033907f18bebb4077e3fc4372a880e99e47e7e1d3711dd0b821adbc9853719aab033b3d906020016103ca565b6000336102b2818585610575565b6104ec8383836001610644565b505050565b6001600160a01b0383811660009081526001602090815260408083209386168352929052205460001981101561056f578181101561056057604051637dc7a0d960e11b81526001600160a01b038416600482015260248101829052604481018390526064015b60405180910390fd5b61056f84848484036000610644565b50505050565b6001600160a01b03831661059f57604051634b637e8f60e11b815260006004820152602401610557565b6001600160a01b0382166105c95760405163ec442f0560e01b815260006004820152602401610557565b6104ec838383610719565b6001600160a01b0382166105fe5760405163ec442f0560e01b815260006004820152602401610557565b61060a60008383610719565b5050565b6001600160a01b03821661063857604051634b637e8f60e11b815260006004820152602401610557565b61060a82600083610719565b6001600160a01b03841661066e5760405163e602df0560e01b815260006004820152602401610557565b6001600160a01b03831661069857604051634a1406b160e11b815260006004820152602401610557565b6001600160a01b038085166000908152600160209081526040808320938716835292905220829055801561056f57826001600160a01b0316846001600160a01b03167f8c5be1e5ebec7d5bd14f71427d1e84f3dd0314c0f7b2291e5b200ac8c7c3b9258460405161070b91815260200190565b60405180910390a350505050565b6001600160a01b03831661074457806002600082825461073991906109c5565b909155506107b69050565b6001600160a01b038316600090815260208190526040902054818110156107975760405163391434e360e21b81526001600160a01b03851660048201526024810182905260448101839052606401610557565b6001600160a01b03841660009081526020819052604090209082900390555b6001600160a01b0382166107d2576002805482900390556107f1565b6001600160a01b03821660009081526020819052604090208054820190555b816001600160a01b0316836001600160a01b03167fddf252ad1be2c89b69c2b068fc378daa952ba7f163c4a11628f55a4df523b3ef8360405161083691815260200190565b60405180910390a3505050565b60006020808352835180602085015260005b8181101561087157858101830151858201604001528201610855565b506000604082860101526040601f19601f8301168501019250505092915050565b80356001600160a01b03811681146108a957600080fd5b919050565b600080604083850312156108c157600080fd5b6108ca83610892565b946020939093013593505050565b6000806000606084860312156108ed57600080fd5b6108f684610892565b925061090460208501610892565b9150604084013590509250925092565b60006020828403121561092657600080fd5b61092f82610892565b9392505050565b6000806040838503121561094957600080fd5b61095283610892565b915061096060208401610892565b90509250929050565b600181811c9082168061097d57607f821691505b60208210810361099d57634e487b7160e01b600052602260045260246000fd5b50919050565b6000602082840312156109b557600080fd5b8151801515811461092f57600080fd5b808201808211156102b857634e487b7160e01b600052601160045260246000fdfea26469706673582212207991a3fb4c0285d23b2582c4c4ba29dcaa3bac392e944b6230c50562e19fcf9964736f6c63430008180033a26469706673582212202ba36449c02be337e5b79d9531ae0d6039b89a9f39cabc1fb54567754aff7ccd64736f6c63430008180033","opcodes":"PUSH1 0xA0 PUSH1 0x40 MSTORE CALLVALUE DUP1 ISZERO PUSH3 0x11 JUMPI PUSH1 0x0 DUP1 REVERT JUMPDEST POP PUSH1 0x40 MLOAD PUSH3 0x29E7 CODESIZE SUB DUP1 PUSH3 0x29E7 DUP4 CODECOPY DUP2 ADD PUSH1 0x40 DUP2 SWAP1 MSTORE PUSH3 0x34 SWAP2 PUSH3 0x161 JUMP JUMPDEST DUP1 PUSH1 0x1 PUSH1 0x1 PUSH1 0xA0 SHL SUB DUP2 AND PUSH3 0x64 JUMPI PUSH1 0x40 MLOAD PUSH4 0x1E4FBDF7 PUSH1 0xE0 SHL DUP2 MSTORE PUSH1 0x0 PUSH1 0x4 DUP3 ADD MSTORE PUSH1 0x24 ADD PUSH1 0x40 MLOAD DUP1 SWAP2 SUB SWAP1 REVERT JUMPDEST PUSH3 0x6F DUP2 PUSH3 0xF8 JUMP JUMPDEST POP PUSH1 0x1 PUSH1 0x1 PUSH1 0xA0 SHL SUB DUP5 AND ISZERO DUP1 PUSH3 0x8E JUMPI POP PUSH1 0x1 PUSH1 0x1 PUSH1 0xA0 SHL SUB DUP3 AND ISZERO JUMPDEST DUP1 PUSH3 0xA1 JUMPI POP PUSH1 0x1 PUSH1 0x1 PUSH1 0xA0 SHL SUB DUP4 AND ISZERO JUMPDEST ISZERO PUSH3 0xC0 JUMPI PUSH1 0x40 MLOAD PUSH4 0xD92E233D PUSH1 0xE0 SHL DUP2 MSTORE PUSH1 0x4 ADD PUSH1 0x40 MLOAD DUP1 SWAP2 SUB SWAP1 REVERT JUMPDEST POP PUSH1 0x1 PUSH1 0x1 PUSH1 0xA0 SHL SUB SWAP3 DUP4 AND PUSH1 0x80 MSTORE PUSH1 0x1 DUP1 SLOAD SWAP3 DUP5 AND PUSH1 0x1 PUSH1 0x1 PUSH1 0xA0 SHL SUB NOT SWAP4 DUP5 AND OR SWAP1 SSTORE PUSH1 0x2 DUP1 SLOAD SWAP2 SWAP1 SWAP4 AND SWAP2 AND OR SWAP1 SSTORE PUSH3 0x1C9 JUMP JUMPDEST PUSH1 0x0 DUP1 SLOAD PUSH1 0x1 PUSH1 0x1 PUSH1 0xA0 SHL SUB DUP4 DUP2 AND PUSH1 0x1 PUSH1 0x1 PUSH1 0xA0 SHL SUB NOT DUP4 AND DUP2 OR DUP5 SSTORE PUSH1 0x40 MLOAD SWAP2 SWAP1 SWAP3 AND SWAP3 DUP4 SWAP2 PUSH32 0x8BE0079C531659141344CD1FD0A4F28419497F9722A3DAAFE3B4186F6B6457E0 SWAP2 SWAP1 LOG3 POP POP JUMP JUMPDEST PUSH1 0x1 PUSH1 0x1 PUSH1 0xA0 SHL SUB DUP2 AND DUP2 EQ PUSH3 0x15E JUMPI PUSH1 0x0 DUP1 REVERT JUMPDEST POP JUMP JUMPDEST PUSH1 0x0 DUP1 PUSH1 0x0 DUP1 PUSH1 0x80 DUP6 DUP8 SUB SLT ISZERO PUSH3 0x178 JUMPI PUSH1 0x0 DUP1 REVERT JUMPDEST DUP5 MLOAD PUSH3 0x185 DUP2 PUSH3 0x148 JUMP JUMPDEST PUSH1 0x20 DUP7 ADD MLOAD SWAP1 SWAP5 POP PUSH3 0x198 DUP2 PUSH3 0x148 JUMP JUMPDEST PUSH1 0x40 DUP7 ADD MLOAD SWAP1 SWAP4 POP PUSH3 0x1AB DUP2 PUSH3 0x148 JUMP JUMPDEST PUSH1 0x60 DUP7 ADD MLOAD SWAP1 SWAP3 POP PUSH3 0x1BE DUP2 PUSH3 0x148 JUMP JUMPDEST SWAP4 SWAP7 SWAP3 SWAP6 POP SWAP1 SWAP4 POP POP JUMP JUMPDEST PUSH1 0x80 MLOAD PUSH2 0x27FB PUSH3 0x1EC PUSH1 0x0 CODECOPY PUSH1 0x0 DUP2 DUP2 PUSH2 0x2F6 ADD MSTORE PUSH2 0x77B ADD MSTORE PUSH2 0x27FB PUSH1 0x0 RETURN INVALID PUSH1 0x80 PUSH1 0x40 MSTORE CALLVALUE DUP1 ISZERO PUSH3 0x11 JUMPI PUSH1 0x0 DUP1 REVERT JUMPDEST POP PUSH1 0x4 CALLDATASIZE LT PUSH3 0x1CC JUMPI PUSH1 0x0 CALLDATALOAD PUSH1 0xE0 SHR DUP1 PUSH4 0x715018A6 GT PUSH3 0x10D JUMPI DUP1 PUSH4 0x9CA35904 GT PUSH3 0xA3 JUMPI DUP1 PUSH4 0xE70372F1 GT PUSH3 0x7A JUMPI DUP1 PUSH4 0xE70372F1 EQ PUSH3 0x4D0 JUMPI DUP1 PUSH4 0xEC979082 EQ PUSH3 0x4E7 JUMPI DUP1 PUSH4 0xF2FDE38B EQ PUSH3 0x4F0 JUMPI DUP1 PUSH4 0xFEB3FF0C EQ PUSH3 0x507 JUMPI PUSH1 0x0 DUP1 REVERT JUMPDEST DUP1 PUSH4 0x9CA35904 EQ PUSH3 0x47F JUMPI DUP1 PUSH4 0xAC44317F EQ PUSH3 0x496 JUMPI DUP1 PUSH4 0xC909985B EQ PUSH3 0x4B9 JUMPI PUSH1 0x0 DUP1 REVERT JUMPDEST DUP1 PUSH4 0x7E3E91CE GT PUSH3 0xE4 JUMPI DUP1 PUSH4 0x7E3E91CE EQ PUSH3 0x442 JUMPI DUP1 PUSH4 0x8456CB59 EQ PUSH3 0x459 JUMPI DUP1 PUSH4 0x8D654023 EQ PUSH3 0x463 JUMPI DUP1 PUSH4 0x8DA5CB5B EQ PUSH3 0x46D JUMPI PUSH1 0x0 DUP1 REVERT JUMPDEST DUP1 PUSH4 0x715018A6 EQ PUSH3 0x351 JUMPI DUP1 PUSH4 0x7564912B EQ PUSH3 0x35B JUMPI DUP1 PUSH4 0x779A9683 EQ PUSH3 0x42B JUMPI PUSH1 0x0 DUP1 REVERT JUMPDEST DUP1 PUSH4 0x3F4BA83A GT PUSH3 0x183 JUMPI DUP1 PUSH4 0x4E52B48C GT PUSH3 0x15A JUMPI DUP1 PUSH4 0x4E52B48C EQ PUSH3 0x2DC JUMPI DUP1 PUSH4 0x5C60DA1B EQ PUSH3 0x2F0 JUMPI DUP1 PUSH4 0x5C975ABB EQ PUSH3 0x318 JUMPI DUP1 PUSH4 0x652B9B41 EQ PUSH3 0x32B JUMPI PUSH1 0x0 DUP1 REVERT JUMPDEST DUP1 PUSH4 0x3F4BA83A EQ PUSH3 0x2A2 JUMPI DUP1 PUSH4 0x4531C4C3 EQ PUSH3 0x2AE JUMPI DUP1 PUSH4 0x4B91FA93 EQ PUSH3 0x2C5 JUMPI PUSH1 0x0 DUP1 REVERT JUMPDEST DUP1 PUSH4 0x8A128B0 EQ PUSH3 0x1D1 JUMPI DUP1 PUSH4 0x9B2D6BD EQ PUSH3 0x205 JUMPI DUP1 PUSH4 0x17799F36 EQ PUSH3 0x21C JUMPI DUP1 PUSH4 0x35D1E920 EQ PUSH3 0x233 JUMPI DUP1 PUSH4 0x3DF5878C EQ PUSH3 0x24C JUMPI DUP1 PUSH4 0x3E413BEE EQ PUSH3 0x28E JUMPI JUMPDEST PUSH1 0x0 DUP1 REVERT JUMPDEST PUSH3 0x1E8 PUSH3 0x1E2 CALLDATASIZE PUSH1 0x4 PUSH3 0x169F JUMP JUMPDEST PUSH3 0x53E JUMP JUMPDEST PUSH1 0x40 MLOAD PUSH1 0x1 PUSH1 0x1 PUSH1 0xA0 SHL SUB SWAP1 SWAP2 AND DUP2 MSTORE PUSH1 0x20 ADD JUMPDEST PUSH1 0x40 MLOAD DUP1 SWAP2 SUB SWAP1 RETURN JUMPDEST PUSH3 0x1E8 PUSH3 0x216 CALLDATASIZE PUSH1 0x4 PUSH3 0x16C2 JUMP JUMPDEST PUSH3 0x57F JUMP JUMPDEST PUSH3 0x1E8 PUSH3 0x22D CALLDATASIZE PUSH1 0x4 PUSH3 0x16C2 JUMP JUMPDEST PUSH3 0x671 JUMP JUMPDEST PUSH3 0x23D PUSH1 0x8 SLOAD DUP2 JUMP JUMPDEST PUSH1 0x40 MLOAD SWAP1 DUP2 MSTORE PUSH1 0x20 ADD PUSH3 0x1FC JUMP JUMPDEST PUSH3 0x27D PUSH3 0x25D CALLDATASIZE PUSH1 0x4 PUSH3 0x16F2 JUMP JUMPDEST PUSH1 0xA PUSH1 0x20 SWAP1 DUP2 MSTORE PUSH1 0x0 SWAP3 DUP4 MSTORE PUSH1 0x40 DUP1 DUP5 KECCAK256 SWAP1 SWAP2 MSTORE SWAP1 DUP3 MSTORE SWAP1 KECCAK256 SLOAD PUSH1 0xFF AND DUP2 JUMP JUMPDEST PUSH1 0x40 MLOAD SWAP1 ISZERO ISZERO DUP2 MSTORE PUSH1 0x20 ADD PUSH3 0x1FC JUMP JUMPDEST PUSH1 0x2 SLOAD PUSH3 0x1E8 SWAP1 PUSH1 0x1 PUSH1 0x1 PUSH1 0xA0 SHL SUB AND DUP2 JUMP JUMPDEST PUSH3 0x2AC PUSH3 0x963 JUMP JUMPDEST STOP JUMPDEST PUSH3 0x2AC PUSH3 0x2BF CALLDATASIZE PUSH1 0x4 PUSH3 0x16C2 JUMP JUMPDEST PUSH3 0x979 JUMP JUMPDEST PUSH3 0x2AC PUSH3 0x2D6 CALLDATASIZE PUSH1 0x4 PUSH3 0x16F2 JUMP JUMPDEST PUSH3 0xA18 JUMP JUMPDEST PUSH1 0x1 SLOAD PUSH3 0x1E8 SWAP1 PUSH1 0x1 PUSH1 0x1 PUSH1 0xA0 SHL SUB AND DUP2 JUMP JUMPDEST PUSH3 0x1E8 PUSH32 0x0 DUP2 JUMP JUMPDEST PUSH1 0x0 SLOAD PUSH1 0x1 PUSH1 0xA0 SHL SWAP1 DIV PUSH1 0xFF AND PUSH3 0x27D JUMP JUMPDEST PUSH3 0x27D PUSH3 0x33C CALLDATASIZE PUSH1 0x4 PUSH3 0x1725 JUMP JUMPDEST PUSH1 0x6 PUSH1 0x20 MSTORE PUSH1 0x0 SWAP1 DUP2 MSTORE PUSH1 0x40 SWAP1 KECCAK256 SLOAD PUSH1 0xFF AND DUP2 JUMP JUMPDEST PUSH3 0x2AC PUSH3 0xC42 JUMP JUMPDEST PUSH3 0x3D4 PUSH3 0x36C CALLDATASIZE PUSH1 0x4 PUSH3 0x16C2 JUMP JUMPDEST PUSH1 0x3 PUSH1 0x20 MSTORE PUSH1 0x0 SWAP1 DUP2 MSTORE PUSH1 0x40 SWAP1 KECCAK256 DUP1 SLOAD PUSH1 0x1 SWAP1 SWAP2 ADD SLOAD PUSH1 0xFF DUP1 DUP4 AND SWAP3 PUSH1 0x1 PUSH1 0x1 PUSH1 0xA0 SHL SUB PUSH2 0x100 SWAP1 SWAP2 DIV DUP2 AND SWAP3 SWAP1 DUP2 AND SWAP2 PUSH2 0xFFFF PUSH1 0x1 PUSH1 0xA0 SHL DUP4 DIV DUP2 AND SWAP3 PUSH1 0x1 PUSH1 0xB0 SHL DUP2 DIV DUP3 AND SWAP3 PUSH1 0x1 PUSH1 0xC0 SHL DUP3 DIV SWAP1 SWAP3 AND SWAP2 PUSH1 0x1 PUSH1 0xD0 SHL DUP3 DIV DUP2 AND SWAP2 PUSH1 0x1 PUSH1 0xD8 SHL SWAP1 DIV AND DUP9 JUMP JUMPDEST PUSH1 0x40 DUP1 MLOAD SWAP9 ISZERO ISZERO DUP10 MSTORE PUSH1 0x1 PUSH1 0x1 PUSH1 0xA0 SHL SUB SWAP8 DUP9 AND PUSH1 0x20 DUP11 ADD MSTORE SWAP7 SWAP1 SWAP6 AND SWAP6 DUP8 ADD SWAP6 SWAP1 SWAP6 MSTORE PUSH2 0xFFFF SWAP3 DUP4 AND PUSH1 0x60 DUP8 ADD MSTORE SWAP1 DUP3 AND PUSH1 0x80 DUP7 ADD MSTORE AND PUSH1 0xA0 DUP5 ADD MSTORE PUSH1 0xFF SWAP2 DUP3 AND PUSH1 0xC0 DUP5 ADD MSTORE AND PUSH1 0xE0 DUP3 ADD MSTORE PUSH2 0x100 ADD PUSH3 0x1FC JUMP JUMPDEST PUSH3 0x23D PUSH3 0x43C CALLDATASIZE PUSH1 0x4 PUSH3 0x16C2 JUMP JUMPDEST PUSH3 0xC58 JUMP JUMPDEST PUSH3 0x1E8 PUSH3 0x453 CALLDATASIZE PUSH1 0x4 PUSH3 0x1798 JUMP JUMPDEST PUSH3 0xC7A JUMP JUMPDEST PUSH3 0x2AC PUSH3 0x1078 JUMP JUMPDEST PUSH3 0x23D PUSH1 0x7 SLOAD DUP2 JUMP JUMPDEST PUSH1 0x0 SLOAD PUSH1 0x1 PUSH1 0x1 PUSH1 0xA0 SHL SUB AND PUSH3 0x1E8 JUMP JUMPDEST PUSH3 0x2AC PUSH3 0x490 CALLDATASIZE PUSH1 0x4 PUSH3 0x169F JUMP JUMPDEST PUSH3 0x108C JUMP JUMPDEST PUSH3 0x23D PUSH3 0x4A7 CALLDATASIZE PUSH1 0x4 PUSH3 0x16C2 JUMP JUMPDEST PUSH1 0x0 SWAP1 DUP2 MSTORE PUSH1 0x9 PUSH1 0x20 MSTORE PUSH1 0x40 SWAP1 KECCAK256 SLOAD SWAP1 JUMP JUMPDEST PUSH3 0x2AC PUSH3 0x4CA CALLDATASIZE PUSH1 0x4 PUSH3 0x184B JUMP JUMPDEST PUSH3 0x126D JUMP JUMPDEST PUSH3 0x2AC PUSH3 0x4E1 CALLDATASIZE PUSH1 0x4 PUSH3 0x1725 JUMP JUMPDEST PUSH3 0x1308 JUMP JUMPDEST PUSH1 0x4 SLOAD PUSH3 0x23D JUMP JUMPDEST PUSH3 0x2AC PUSH3 0x501 CALLDATASIZE PUSH1 0x4 PUSH3 0x1725 JUMP JUMPDEST PUSH3 0x135C JUMP JUMPDEST PUSH3 0x1E8 PUSH3 0x518 CALLDATASIZE PUSH1 0x4 PUSH3 0x1891 JUMP JUMPDEST PUSH1 0x5 PUSH1 0x20 SWAP1 DUP2 MSTORE PUSH1 0x0 SWAP3 DUP4 MSTORE PUSH1 0x40 DUP1 DUP5 KECCAK256 SWAP1 SWAP2 MSTORE SWAP1 DUP3 MSTORE SWAP1 KECCAK256 SLOAD PUSH1 0x1 PUSH1 0x1 PUSH1 0xA0 SHL SUB AND DUP2 JUMP JUMPDEST PUSH1 0x0 DUP3 DUP2 MSTORE PUSH1 0x9 PUSH1 0x20 MSTORE PUSH1 0x40 DUP2 KECCAK256 DUP1 SLOAD DUP4 SWAP1 DUP2 LT PUSH3 0x561 JUMPI PUSH3 0x561 PUSH3 0x18C0 JUMP JUMPDEST PUSH1 0x0 SWAP2 DUP3 MSTORE PUSH1 0x20 SWAP1 SWAP2 KECCAK256 ADD SLOAD PUSH1 0x1 PUSH1 0x1 PUSH1 0xA0 SHL SUB AND SWAP1 POP JUMPDEST SWAP3 SWAP2 POP POP JUMP JUMPDEST PUSH1 0x0 DUP2 DUP2 MSTORE PUSH1 0x9 PUSH1 0x20 MSTORE PUSH1 0x40 DUP2 KECCAK256 DUP1 SLOAD DUP3 JUMPDEST DUP2 DUP2 LT ISZERO PUSH3 0x666 JUMPI DUP3 DUP2 DUP2 SLOAD DUP2 LT PUSH3 0x5AF JUMPI PUSH3 0x5AF PUSH3 0x18C0 JUMP JUMPDEST PUSH1 0x0 SWAP2 DUP3 MSTORE PUSH1 0x20 SWAP2 DUP3 SWAP1 KECCAK256 ADD SLOAD PUSH1 0x40 DUP1 MLOAD PUSH4 0x57C902C1 PUSH1 0xE1 SHL DUP2 MSTORE SWAP1 MLOAD PUSH1 0x1 PUSH1 0x1 PUSH1 0xA0 SHL SUB SWAP1 SWAP3 AND SWAP3 PUSH4 0xAF920582 SWAP3 PUSH1 0x4 DUP1 DUP5 ADD SWAP4 DUP3 SWAP1 SUB ADD DUP2 DUP7 GAS STATICCALL ISZERO DUP1 ISZERO PUSH3 0x5FE JUMPI RETURNDATASIZE PUSH1 0x0 DUP1 RETURNDATACOPY RETURNDATASIZE PUSH1 0x0 REVERT JUMPDEST POP POP POP POP PUSH1 0x40 MLOAD RETURNDATASIZE PUSH1 0x1F NOT PUSH1 0x1F DUP3 ADD AND DUP3 ADD DUP1 PUSH1 0x40 MSTORE POP DUP2 ADD SWAP1 PUSH3 0x624 SWAP2 SWAP1 PUSH3 0x18D6 JUMP JUMPDEST ISZERO PUSH3 0x65D JUMPI DUP3 DUP2 DUP2 SLOAD DUP2 LT PUSH3 0x63F JUMPI PUSH3 0x63F PUSH3 0x18C0 JUMP JUMPDEST PUSH1 0x0 SWAP2 DUP3 MSTORE PUSH1 0x20 SWAP1 SWAP2 KECCAK256 ADD SLOAD PUSH1 0x1 PUSH1 0x1 PUSH1 0xA0 SHL SUB AND SWAP6 SWAP5 POP POP POP POP POP JUMP JUMPDEST PUSH1 0x1 ADD PUSH3 0x591 JUMP JUMPDEST POP PUSH1 0x0 SWAP5 SWAP4 POP POP POP POP JUMP JUMPDEST PUSH1 0x0 PUSH3 0x67D PUSH3 0x13A1 JUMP JUMPDEST PUSH1 0x0 DUP3 DUP2 MSTORE PUSH1 0x3 PUSH1 0x20 SWAP1 DUP2 MSTORE PUSH1 0x40 SWAP2 DUP3 SWAP1 KECCAK256 DUP3 MLOAD PUSH2 0x100 DUP1 DUP3 ADD DUP6 MSTORE DUP3 SLOAD PUSH1 0xFF DUP1 DUP3 AND ISZERO ISZERO DUP1 DUP6 MSTORE PUSH1 0x1 PUSH1 0x1 PUSH1 0xA0 SHL SUB SWAP4 SWAP1 SWAP3 DIV DUP4 AND SWAP6 DUP5 ADD SWAP6 SWAP1 SWAP6 MSTORE PUSH1 0x1 SWAP1 SWAP4 ADD SLOAD SWAP1 DUP2 AND SWAP5 DUP3 ADD SWAP5 SWAP1 SWAP5 MSTORE PUSH2 0xFFFF PUSH1 0x1 PUSH1 0xA0 SHL DUP6 DIV DUP2 AND PUSH1 0x60 DUP4 ADD MSTORE PUSH1 0x1 PUSH1 0xB0 SHL DUP6 DIV DUP2 AND PUSH1 0x80 DUP4 ADD MSTORE PUSH1 0x1 PUSH1 0xC0 SHL DUP6 DIV AND PUSH1 0xA0 DUP3 ADD MSTORE PUSH1 0x1 PUSH1 0xD0 SHL DUP5 DIV DUP4 AND PUSH1 0xC0 DUP3 ADD MSTORE PUSH1 0x1 PUSH1 0xD8 SHL SWAP1 SWAP4 DIV SWAP1 SWAP2 AND PUSH1 0xE0 DUP4 ADD MSTORE PUSH3 0x732 JUMPI PUSH1 0x40 MLOAD PUSH4 0x1E3700C3 PUSH1 0xE2 SHL DUP2 MSTORE PUSH1 0x4 ADD PUSH1 0x40 MLOAD DUP1 SWAP2 SUB SWAP1 REVERT JUMPDEST CALLER PUSH1 0x0 SWAP1 DUP2 MSTORE PUSH1 0x5 PUSH1 0x20 SWAP1 DUP2 MSTORE PUSH1 0x40 DUP1 DUP4 KECCAK256 DUP7 DUP5 MSTORE SWAP1 SWAP2 MSTORE SWAP1 KECCAK256 SLOAD PUSH1 0x1 PUSH1 0x1 PUSH1 0xA0 SHL SUB AND ISZERO PUSH3 0x775 JUMPI PUSH1 0x40 MLOAD PUSH4 0x108E5C5F PUSH1 0xE2 SHL DUP2 MSTORE PUSH1 0x4 ADD PUSH1 0x40 MLOAD DUP1 SWAP2 SUB SWAP1 REVERT JUMPDEST PUSH3 0x7A0 PUSH32 0x0 PUSH3 0x13CD JUMP JUMPDEST CALLER PUSH1 0x0 SWAP1 DUP2 MSTORE PUSH1 0x5 PUSH1 0x20 SWAP1 DUP2 MSTORE PUSH1 0x40 DUP1 DUP4 KECCAK256 DUP8 DUP5 MSTORE DUP3 MSTORE DUP1 DUP4 KECCAK256 DUP1 SLOAD PUSH1 0x1 PUSH1 0x1 PUSH1 0xA0 SHL SUB NOT AND PUSH1 0x1 PUSH1 0x1 PUSH1 0xA0 SHL SUB DUP7 AND SWAP1 DUP2 OR SWAP1 SWAP2 SSTORE DUP4 MSTORE PUSH1 0x6 SWAP1 SWAP2 MSTORE DUP2 KECCAK256 DUP1 SLOAD PUSH1 0xFF NOT AND PUSH1 0x1 OR SWAP1 SSTORE PUSH1 0x7 DUP1 SLOAD SWAP3 SWAP5 POP SWAP1 PUSH3 0x7FD DUP4 PUSH3 0x1910 JUMP JUMPDEST SWAP1 SWAP2 SSTORE POP POP PUSH1 0x40 DUP1 MLOAD PUSH1 0xA0 DUP1 DUP3 ADD DUP4 MSTORE PUSH1 0x60 DUP1 DUP6 ADD MLOAD PUSH2 0xFFFF SWAP1 DUP2 AND DUP5 MSTORE PUSH1 0x80 DUP1 DUP8 ADD MLOAD DUP3 AND PUSH1 0x20 DUP1 DUP8 ADD SWAP2 DUP3 MSTORE SWAP5 DUP9 ADD MLOAD DUP4 AND DUP7 DUP9 ADD SWAP1 DUP2 MSTORE PUSH1 0xC0 DUP10 ADD MLOAD PUSH1 0xFF SWAP1 DUP2 AND SWAP6 DUP9 ADD SWAP6 DUP7 MSTORE PUSH1 0xE0 DUP11 ADD MLOAD DUP2 AND SWAP4 DUP9 ADD SWAP4 DUP5 MSTORE PUSH1 0x1 SLOAD SWAP7 DUP11 ADD MLOAD PUSH1 0x2 SLOAD DUP12 DUP12 ADD MLOAD SWAP11 MLOAD PUSH4 0x5DD92CD5 PUSH1 0xE0 SHL DUP2 MSTORE CALLER PUSH1 0x4 DUP3 ADD MSTORE ADDRESS PUSH1 0x24 DUP3 ADD MSTORE PUSH1 0x1 PUSH1 0x1 PUSH1 0xA0 SHL SUB SWAP10 DUP11 AND PUSH1 0x44 DUP3 ADD MSTORE SWAP2 DUP10 AND PUSH1 0x64 DUP4 ADD MSTORE DUP9 AND PUSH1 0x84 DUP3 ADD MSTORE SWAP9 DUP8 AND PUSH1 0xA4 DUP11 ADD MSTORE PUSH1 0xC4 DUP10 ADD DUP13 SWAP1 MSTORE DUP8 MLOAD DUP6 AND PUSH1 0xE4 DUP11 ADD MSTORE SWAP2 MLOAD DUP5 AND PUSH2 0x104 DUP10 ADD MSTORE MLOAD SWAP1 SWAP3 AND PUSH2 0x124 DUP8 ADD MSTORE SWAP2 MLOAD DUP2 AND PUSH2 0x144 DUP7 ADD MSTORE SWAP1 MLOAD AND PUSH2 0x164 DUP5 ADD MSTORE SWAP1 SWAP2 SWAP1 DUP5 AND SWAP1 PUSH4 0x5DD92CD5 SWAP1 PUSH2 0x184 ADD PUSH1 0x0 PUSH1 0x40 MLOAD DUP1 DUP4 SUB DUP2 PUSH1 0x0 DUP8 DUP1 EXTCODESIZE ISZERO DUP1 ISZERO PUSH3 0x903 JUMPI PUSH1 0x0 DUP1 REVERT JUMPDEST POP GAS CALL ISZERO DUP1 ISZERO PUSH3 0x918 JUMPI RETURNDATASIZE PUSH1 0x0 DUP1 RETURNDATACOPY RETURNDATASIZE PUSH1 0x0 REVERT JUMPDEST POP POP PUSH1 0x40 MLOAD PUSH1 0x1 PUSH1 0x1 PUSH1 0xA0 SHL SUB DUP7 AND DUP2 MSTORE DUP7 SWAP3 POP CALLER SWAP2 POP PUSH32 0x5FC82289990BE1FBF29D342F6783CE37256C887A0A9D9F32A24C95A9B991A4EF SWAP1 PUSH1 0x20 ADD PUSH1 0x40 MLOAD DUP1 SWAP2 SUB SWAP1 LOG3 POP POP SWAP2 SWAP1 POP JUMP JUMPDEST PUSH3 0x96D PUSH3 0x13DC JUMP JUMPDEST PUSH3 0x977 PUSH3 0x140B JUMP JUMPDEST JUMP JUMPDEST CALLER PUSH1 0x0 SWAP1 DUP2 MSTORE PUSH1 0x6 PUSH1 0x20 MSTORE PUSH1 0x40 SWAP1 KECCAK256 SLOAD PUSH1 0xFF AND PUSH3 0x9AA JUMPI PUSH1 0x40 MLOAD PUSH4 0x1E3700C3 PUSH1 0xE2 SHL DUP2 MSTORE PUSH1 0x4 ADD PUSH1 0x40 MLOAD DUP1 SWAP2 SUB SWAP1 REVERT JUMPDEST PUSH1 0x0 DUP2 SGT ISZERO PUSH3 0x9D4 JUMPI DUP1 PUSH1 0x8 PUSH1 0x0 DUP3 DUP3 SLOAD PUSH3 0x9C8 SWAP2 SWAP1 PUSH3 0x192C JUMP JUMPDEST SWAP1 SWAP2 SSTORE POP PUSH3 0xA15 SWAP1 POP JUMP JUMPDEST PUSH1 0x0 DUP2 SLT ISZERO PUSH3 0xA15 JUMPI PUSH1 0x0 PUSH3 0x9EB DUP3 PUSH3 0x1942 JUMP JUMPDEST SWAP1 POP PUSH1 0x8 SLOAD DUP2 GT PUSH3 0xA0D JUMPI DUP1 PUSH1 0x8 SLOAD PUSH3 0xA07 SWAP2 SWAP1 PUSH3 0x1961 JUMP JUMPDEST PUSH3 0xA10 JUMP JUMPDEST PUSH1 0x0 JUMPDEST PUSH1 0x8 SSTORE POP JUMPDEST POP JUMP JUMPDEST PUSH1 0x1 PUSH1 0x1 PUSH1 0xA0 SHL SUB DUP2 AND PUSH1 0x0 SWAP1 DUP2 MSTORE PUSH1 0x6 PUSH1 0x20 MSTORE PUSH1 0x40 SWAP1 KECCAK256 SLOAD PUSH1 0xFF AND PUSH3 0xA52 JUMPI PUSH1 0x40 MLOAD PUSH4 0x1E3700C3 PUSH1 0xE2 SHL DUP2 MSTORE PUSH1 0x4 ADD PUSH1 0x40 MLOAD DUP1 SWAP2 SUB SWAP1 REVERT JUMPDEST PUSH1 0x0 DUP3 DUP2 MSTORE PUSH1 0x3 PUSH1 0x20 MSTORE PUSH1 0x40 SWAP1 KECCAK256 SLOAD PUSH1 0xFF AND PUSH3 0xA82 JUMPI PUSH1 0x40 MLOAD PUSH4 0x1E3700C3 PUSH1 0xE2 SHL DUP2 MSTORE PUSH1 0x4 ADD PUSH1 0x40 MLOAD DUP1 SWAP2 SUB SWAP1 REVERT JUMPDEST DUP2 DUP2 PUSH1 0x1 PUSH1 0x1 PUSH1 0xA0 SHL SUB AND PUSH4 0x6ED71EDE PUSH1 0x40 MLOAD DUP2 PUSH4 0xFFFFFFFF AND PUSH1 0xE0 SHL DUP2 MSTORE PUSH1 0x4 ADD PUSH1 0x20 PUSH1 0x40 MLOAD DUP1 DUP4 SUB DUP2 DUP7 GAS STATICCALL ISZERO DUP1 ISZERO PUSH3 0xAC2 JUMPI RETURNDATASIZE PUSH1 0x0 DUP1 RETURNDATACOPY RETURNDATASIZE PUSH1 0x0 REVERT JUMPDEST POP POP POP POP PUSH1 0x40 MLOAD RETURNDATASIZE PUSH1 0x1F NOT PUSH1 0x1F DUP3 ADD AND DUP3 ADD DUP1 PUSH1 0x40 MSTORE POP DUP2 ADD SWAP1 PUSH3 0xAE8 SWAP2 SWAP1 PUSH3 0x1977 JUMP JUMPDEST EQ PUSH3 0xB07 JUMPI PUSH1 0x40 MLOAD PUSH4 0x2C7D83FD PUSH1 0xE0 SHL DUP2 MSTORE PUSH1 0x4 ADD PUSH1 0x40 MLOAD DUP1 SWAP2 SUB SWAP1 REVERT JUMPDEST DUP1 PUSH1 0x1 PUSH1 0x1 PUSH1 0xA0 SHL SUB AND PUSH4 0xAF920582 PUSH1 0x40 MLOAD DUP2 PUSH4 0xFFFFFFFF AND PUSH1 0xE0 SHL DUP2 MSTORE PUSH1 0x4 ADD PUSH1 0x20 PUSH1 0x40 MLOAD DUP1 DUP4 SUB DUP2 DUP7 GAS STATICCALL ISZERO DUP1 ISZERO PUSH3 0xB46 JUMPI RETURNDATASIZE PUSH1 0x0 DUP1 RETURNDATACOPY RETURNDATASIZE PUSH1 0x0 REVERT JUMPDEST POP POP POP POP PUSH1 0x40 MLOAD RETURNDATASIZE PUSH1 0x1F NOT PUSH1 0x1F DUP3 ADD AND DUP3 ADD DUP1 PUSH1 0x40 MSTORE POP DUP2 ADD SWAP1 PUSH3 0xB6C SWAP2 SWAP1 PUSH3 0x18D6 JUMP JUMPDEST PUSH3 0xB8A JUMPI PUSH1 0x40 MLOAD PUSH4 0x190A031 PUSH1 0xE7 SHL DUP2 MSTORE PUSH1 0x4 ADD PUSH1 0x40 MLOAD DUP1 SWAP2 SUB SWAP1 REVERT JUMPDEST PUSH1 0x0 DUP3 DUP2 MSTORE PUSH1 0xA PUSH1 0x20 SWAP1 DUP2 MSTORE PUSH1 0x40 DUP1 DUP4 KECCAK256 PUSH1 0x1 PUSH1 0x1 PUSH1 0xA0 SHL SUB DUP6 AND DUP5 MSTORE SWAP1 SWAP2 MSTORE SWAP1 KECCAK256 SLOAD PUSH1 0xFF AND ISZERO PUSH3 0xBBA JUMPI POP POP JUMP JUMPDEST PUSH1 0x0 DUP3 DUP2 MSTORE PUSH1 0xA PUSH1 0x20 SWAP1 DUP2 MSTORE PUSH1 0x40 DUP1 DUP4 KECCAK256 PUSH1 0x1 PUSH1 0x1 PUSH1 0xA0 SHL SUB DUP6 AND DUP1 DUP6 MSTORE SWAP1 DUP4 MSTORE DUP2 DUP5 KECCAK256 DUP1 SLOAD PUSH1 0xFF NOT AND PUSH1 0x1 SWAP1 DUP2 OR SWAP1 SWAP2 SSTORE DUP7 DUP6 MSTORE PUSH1 0x9 DUP5 MSTORE DUP3 DUP6 KECCAK256 DUP1 SLOAD SWAP2 DUP3 ADD DUP2 SSTORE DUP6 MSTORE SWAP3 DUP5 KECCAK256 SWAP1 SWAP3 ADD DUP1 SLOAD PUSH1 0x1 PUSH1 0x1 PUSH1 0xA0 SHL SUB NOT AND DUP4 OR SWAP1 SSTORE MLOAD SWAP1 SWAP2 DUP5 SWAP2 PUSH32 0xA6A4F77845856D1B09EF816C06EF940D8A52B5C1855A6D75ABF615327B581B62 SWAP2 SWAP1 LOG3 POP POP JUMP JUMPDEST PUSH3 0xC4C PUSH3 0x13DC JUMP JUMPDEST PUSH3 0x977 PUSH1 0x0 PUSH3 0x1462 JUMP JUMPDEST PUSH1 0x4 DUP2 DUP2 SLOAD DUP2 LT PUSH3 0xC69 JUMPI PUSH1 0x0 DUP1 REVERT JUMPDEST PUSH1 0x0 SWAP2 DUP3 MSTORE PUSH1 0x20 SWAP1 SWAP2 KECCAK256 ADD SLOAD SWAP1 POP DUP2 JUMP JUMPDEST PUSH1 0x0 PUSH3 0xC86 PUSH3 0x13DC JUMP JUMPDEST PUSH1 0x0 DUP9 DUP2 MSTORE PUSH1 0x3 PUSH1 0x20 MSTORE PUSH1 0x40 SWAP1 KECCAK256 SLOAD PUSH1 0xFF AND ISZERO PUSH3 0xCB7 JUMPI PUSH1 0x40 MLOAD PUSH4 0x8FC6F59B PUSH1 0xE0 SHL DUP2 MSTORE PUSH1 0x4 ADD PUSH1 0x40 MLOAD DUP1 SWAP2 SUB SWAP1 REVERT JUMPDEST PUSH1 0x1 PUSH1 0x1 PUSH1 0xA0 SHL SUB DUP8 AND PUSH3 0xCDF JUMPI PUSH1 0x40 MLOAD PUSH4 0xD92E233D PUSH1 0xE0 SHL DUP2 MSTORE PUSH1 0x4 ADD PUSH1 0x40 MLOAD DUP1 SWAP2 SUB SWAP1 REVERT JUMPDEST PUSH3 0xCF1 PUSH1 0xA0 DUP4 ADD PUSH1 0x80 DUP5 ADD PUSH3 0x1991 JUMP JUMPDEST PUSH1 0xFF AND ISZERO DUP1 PUSH3 0xD11 JUMPI POP PUSH3 0xD0B PUSH1 0x20 DUP4 ADD DUP4 PUSH3 0x19B6 JUMP JUMPDEST PUSH2 0xFFFF AND ISZERO JUMPDEST DUP1 PUSH3 0xD30 JUMPI POP PUSH3 0xD2A PUSH1 0x40 DUP4 ADD PUSH1 0x20 DUP5 ADD PUSH3 0x19B6 JUMP JUMPDEST PUSH2 0xFFFF AND ISZERO JUMPDEST DUP1 PUSH3 0xD4E JUMPI POP PUSH3 0xD49 PUSH1 0x80 DUP4 ADD PUSH1 0x60 DUP5 ADD PUSH3 0x1991 JUMP JUMPDEST PUSH1 0xFF AND ISZERO JUMPDEST DUP1 PUSH3 0xD81 JUMPI POP PUSH3 0xD67 PUSH1 0xA0 DUP4 ADD PUSH1 0x80 DUP5 ADD PUSH3 0x1991 JUMP JUMPDEST PUSH1 0xFF AND PUSH3 0xD7C PUSH1 0x80 DUP5 ADD PUSH1 0x60 DUP6 ADD PUSH3 0x1991 JUMP JUMPDEST PUSH1 0xFF AND GT JUMPDEST DUP1 PUSH3 0xDB3 JUMPI POP PUSH3 0xD97 PUSH1 0x20 DUP4 ADD DUP4 PUSH3 0x19B6 JUMP JUMPDEST PUSH2 0xFFFF AND PUSH3 0xDAD PUSH1 0x60 DUP5 ADD PUSH1 0x40 DUP6 ADD PUSH3 0x19B6 JUMP JUMPDEST PUSH2 0xFFFF AND GT JUMPDEST DUP1 PUSH3 0xDF4 JUMPI POP PUSH2 0x2710 PUSH3 0xDCF PUSH1 0x40 DUP5 ADD PUSH1 0x20 DUP6 ADD PUSH3 0x19B6 JUMP JUMPDEST PUSH2 0xFFFF AND PUSH3 0xDE2 PUSH1 0x20 DUP6 ADD DUP6 PUSH3 0x19B6 JUMP JUMPDEST PUSH2 0xFFFF AND PUSH3 0xDF2 SWAP2 SWAP1 PUSH3 0x192C JUMP JUMPDEST GT JUMPDEST ISZERO PUSH3 0xE13 JUMPI PUSH1 0x40 MLOAD PUSH4 0x5F88D2D PUSH1 0xE5 SHL DUP2 MSTORE PUSH1 0x4 ADD PUSH1 0x40 MLOAD DUP1 SWAP2 SUB SWAP1 REVERT JUMPDEST ADDRESS DUP7 DUP7 DUP7 DUP7 PUSH1 0x40 MLOAD PUSH3 0xE26 SWAP1 PUSH3 0x1691 JUMP JUMPDEST PUSH3 0xE36 SWAP6 SWAP5 SWAP4 SWAP3 SWAP2 SWAP1 PUSH3 0x1A05 JUMP JUMPDEST PUSH1 0x40 MLOAD DUP1 SWAP2 SUB SWAP1 PUSH1 0x0 CREATE DUP1 ISZERO DUP1 ISZERO PUSH3 0xE53 JUMPI RETURNDATASIZE PUSH1 0x0 DUP1 RETURNDATACOPY RETURNDATASIZE PUSH1 0x0 REVERT JUMPDEST POP SWAP1 POP PUSH1 0x40 MLOAD DUP1 PUSH2 0x100 ADD PUSH1 0x40 MSTORE DUP1 PUSH1 0x1 ISZERO ISZERO DUP2 MSTORE PUSH1 0x20 ADD DUP9 PUSH1 0x1 PUSH1 0x1 PUSH1 0xA0 SHL SUB AND DUP2 MSTORE PUSH1 0x20 ADD DUP3 PUSH1 0x1 PUSH1 0x1 PUSH1 0xA0 SHL SUB AND DUP2 MSTORE PUSH1 0x20 ADD DUP4 PUSH1 0x0 ADD PUSH1 0x20 DUP2 ADD SWAP1 PUSH3 0xE9E SWAP2 SWAP1 PUSH3 0x19B6 JUMP JUMPDEST PUSH2 0xFFFF AND DUP2 MSTORE PUSH1 0x20 ADD DUP4 PUSH1 0x20 ADD PUSH1 0x20 DUP2 ADD SWAP1 PUSH3 0xEBC SWAP2 SWAP1 PUSH3 0x19B6 JUMP JUMPDEST PUSH2 0xFFFF AND DUP2 MSTORE PUSH1 0x20 ADD PUSH3 0xED7 PUSH1 0x60 DUP6 ADD PUSH1 0x40 DUP7 ADD PUSH3 0x19B6 JUMP JUMPDEST PUSH2 0xFFFF AND DUP2 MSTORE PUSH1 0x20 ADD PUSH3 0xEF2 PUSH1 0x80 DUP6 ADD PUSH1 0x60 DUP7 ADD PUSH3 0x1991 JUMP JUMPDEST PUSH1 0xFF AND DUP2 MSTORE PUSH1 0x20 ADD PUSH3 0xF0C PUSH1 0xA0 DUP6 ADD PUSH1 0x80 DUP7 ADD PUSH3 0x1991 JUMP JUMPDEST PUSH1 0xFF SWAP1 DUP2 AND SWAP1 SWAP2 MSTORE PUSH1 0x0 DUP11 DUP2 MSTORE PUSH1 0x3 PUSH1 0x20 SWAP1 DUP2 MSTORE PUSH1 0x40 DUP1 DUP4 KECCAK256 DUP6 MLOAD DUP2 SLOAD DUP8 DUP6 ADD MLOAD PUSH1 0x1 PUSH1 0x1 PUSH1 0xA8 SHL SUB NOT SWAP1 SWAP2 AND SWAP2 ISZERO ISZERO PUSH2 0x100 PUSH1 0x1 PUSH1 0xA8 SHL SUB NOT AND SWAP2 SWAP1 SWAP2 OR PUSH2 0x100 PUSH1 0x1 PUSH1 0x1 PUSH1 0xA0 SHL SUB SWAP3 DUP4 AND MUL OR DUP3 SSTORE DUP7 DUP4 ADD MLOAD PUSH1 0x1 SWAP3 DUP4 ADD DUP1 SLOAD PUSH1 0x60 DUP11 ADD MLOAD PUSH1 0x80 DUP12 ADD MLOAD PUSH1 0xA0 DUP13 ADD MLOAD PUSH1 0xC0 DUP14 ADD MLOAD PUSH1 0xE0 SWAP1 SWAP14 ADD MLOAD SWAP6 DUP8 AND PUSH1 0x1 PUSH1 0x1 PUSH1 0xB0 SHL SUB NOT SWAP1 SWAP5 AND SWAP4 SWAP1 SWAP4 OR PUSH1 0x1 PUSH1 0xA0 SHL PUSH2 0xFFFF SWAP4 DUP5 AND MUL OR PUSH4 0xFFFFFFFF PUSH1 0xB0 SHL NOT AND PUSH1 0x1 PUSH1 0xB0 SHL SWAP2 DUP4 AND SWAP2 SWAP1 SWAP2 MUL PUSH2 0xFFFF PUSH1 0xC0 SHL NOT AND OR PUSH1 0x1 PUSH1 0xC0 SHL SWAP2 SWAP1 SWAP3 AND MUL OR PUSH2 0xFFFF PUSH1 0xD0 SHL NOT AND PUSH1 0x1 PUSH1 0xD0 SHL SWAP10 DUP10 AND SWAP10 SWAP1 SWAP10 MUL PUSH1 0xFF PUSH1 0xD8 SHL NOT AND SWAP9 SWAP1 SWAP9 OR PUSH1 0x1 PUSH1 0xD8 SHL SWAP2 SWAP1 SWAP8 AND MUL SWAP6 SWAP1 SWAP6 OR SWAP1 SWAP6 SSTORE PUSH1 0x4 DUP1 SLOAD SWAP6 DUP7 ADD DUP2 SSTORE SWAP1 SWAP3 MSTORE PUSH32 0x8A35ACFBC15FF81A39AE7D344FD709F28E8600B4AA8C65C6B64BFE7FE36BD19B SWAP1 SWAP4 ADD DUP12 SWAP1 SSTORE DUP1 MLOAD DUP11 DUP4 AND DUP2 MSTORE SWAP2 DUP5 AND SWAP3 DUP3 ADD SWAP3 SWAP1 SWAP3 MSTORE DUP10 SWAP2 PUSH32 0xF09D1FDC6ABEF8A7C2B3D689B6D8D0B273F33FA33FC97BA9B1EE89F2C71AD175 SWAP2 ADD PUSH1 0x40 MLOAD DUP1 SWAP2 SUB SWAP1 LOG2 SWAP8 SWAP7 POP POP POP POP POP POP POP JUMP JUMPDEST PUSH3 0x1082 PUSH3 0x13DC JUMP JUMPDEST PUSH3 0x977 PUSH3 0x14B2 JUMP JUMPDEST PUSH1 0x0 DUP3 DUP2 MSTORE PUSH1 0x9 PUSH1 0x20 MSTORE PUSH1 0x40 DUP2 KECCAK256 DUP1 SLOAD SWAP1 SWAP2 SWAP1 DUP3 SWAP1 DUP5 SWAP1 DUP2 LT PUSH3 0x10B4 JUMPI PUSH3 0x10B4 PUSH3 0x18C0 JUMP JUMPDEST PUSH1 0x0 SWAP2 DUP3 MSTORE PUSH1 0x20 SWAP2 DUP3 SWAP1 KECCAK256 ADD SLOAD PUSH1 0x40 DUP1 MLOAD PUSH4 0x57C902C1 PUSH1 0xE1 SHL DUP2 MSTORE SWAP1 MLOAD PUSH1 0x1 PUSH1 0x1 PUSH1 0xA0 SHL SUB SWAP1 SWAP3 AND SWAP4 POP DUP4 SWAP3 PUSH4 0xAF920582 SWAP3 PUSH1 0x4 DUP1 DUP5 ADD SWAP4 DUP3 SWAP1 SUB ADD DUP2 DUP7 GAS STATICCALL ISZERO DUP1 ISZERO PUSH3 0x1106 JUMPI RETURNDATASIZE PUSH1 0x0 DUP1 RETURNDATACOPY RETURNDATASIZE PUSH1 0x0 REVERT JUMPDEST POP POP POP POP PUSH1 0x40 MLOAD RETURNDATASIZE PUSH1 0x1F NOT PUSH1 0x1F DUP3 ADD AND DUP3 ADD DUP1 PUSH1 0x40 MSTORE POP DUP2 ADD SWAP1 PUSH3 0x112C SWAP2 SWAP1 PUSH3 0x18D6 JUMP JUMPDEST ISZERO PUSH3 0x114B JUMPI PUSH1 0x40 MLOAD PUSH4 0x5057320D PUSH1 0xE1 SHL DUP2 MSTORE PUSH1 0x4 ADD PUSH1 0x40 MLOAD DUP1 SWAP2 SUB SWAP1 REVERT JUMPDEST PUSH1 0x0 DUP5 DUP2 MSTORE PUSH1 0xA PUSH1 0x20 SWAP1 DUP2 MSTORE PUSH1 0x40 DUP1 DUP4 KECCAK256 PUSH1 0x1 PUSH1 0x1 PUSH1 0xA0 SHL SUB DUP6 AND DUP5 MSTORE SWAP1 SWAP2 MSTORE SWAP1 KECCAK256 DUP1 SLOAD PUSH1 0xFF NOT AND SWAP1 SSTORE DUP2 SLOAD DUP3 SWAP1 PUSH3 0x1187 SWAP1 PUSH1 0x1 SWAP1 PUSH3 0x1961 JUMP JUMPDEST DUP2 SLOAD DUP2 LT PUSH3 0x119A JUMPI PUSH3 0x119A PUSH3 0x18C0 JUMP JUMPDEST SWAP1 PUSH1 0x0 MSTORE PUSH1 0x20 PUSH1 0x0 KECCAK256 ADD PUSH1 0x0 SWAP1 SLOAD SWAP1 PUSH2 0x100 EXP SWAP1 DIV PUSH1 0x1 PUSH1 0x1 PUSH1 0xA0 SHL SUB AND DUP3 DUP5 DUP2 SLOAD DUP2 LT PUSH3 0x11CD JUMPI PUSH3 0x11CD PUSH3 0x18C0 JUMP JUMPDEST SWAP1 PUSH1 0x0 MSTORE PUSH1 0x20 PUSH1 0x0 KECCAK256 ADD PUSH1 0x0 PUSH2 0x100 EXP DUP2 SLOAD DUP2 PUSH1 0x1 PUSH1 0x1 PUSH1 0xA0 SHL SUB MUL NOT AND SWAP1 DUP4 PUSH1 0x1 PUSH1 0x1 PUSH1 0xA0 SHL SUB AND MUL OR SWAP1 SSTORE POP DUP2 DUP1 SLOAD DUP1 PUSH3 0x120E JUMPI PUSH3 0x120E PUSH3 0x1A4D JUMP JUMPDEST PUSH1 0x0 DUP3 DUP2 MSTORE PUSH1 0x20 DUP2 KECCAK256 DUP3 ADD PUSH1 0x0 NOT SWAP1 DUP2 ADD DUP1 SLOAD PUSH1 0x1 PUSH1 0x1 PUSH1 0xA0 SHL SUB NOT AND SWAP1 SSTORE SWAP1 SWAP2 ADD SWAP1 SWAP2 SSTORE PUSH1 0x40 MLOAD PUSH1 0x1 PUSH1 0x1 PUSH1 0xA0 SHL SUB DUP4 AND SWAP2 DUP7 SWAP2 PUSH32 0x9027485CD014C90C0D501AE6517E58A7767B6212FA0DFA99493B2FA7B4F9B9CC SWAP2 SWAP1 LOG3 POP POP POP POP JUMP JUMPDEST PUSH3 0x1277 PUSH3 0x13DC JUMP JUMPDEST PUSH1 0x1 PUSH1 0x1 PUSH1 0xA0 SHL SUB DUP3 AND PUSH3 0x129F JUMPI PUSH1 0x40 MLOAD PUSH4 0xD92E233D PUSH1 0xE0 SHL DUP2 MSTORE PUSH1 0x4 ADD PUSH1 0x40 MLOAD DUP1 SWAP2 SUB SWAP1 REVERT JUMPDEST PUSH3 0x12B5 PUSH1 0x1 PUSH1 0x1 PUSH1 0xA0 SHL SUB DUP5 AND DUP4 DUP4 PUSH3 0x14F8 JUMP JUMPDEST DUP2 PUSH1 0x1 PUSH1 0x1 PUSH1 0xA0 SHL SUB AND DUP4 PUSH1 0x1 PUSH1 0x1 PUSH1 0xA0 SHL SUB AND PUSH32 0x50D2874E76FB9BFA29A91846FFC3F4BE5A18E6CB549294B1FFBB11C1F2645443 DUP4 PUSH1 0x40 MLOAD PUSH3 0x12FB SWAP2 DUP2 MSTORE PUSH1 0x20 ADD SWAP1 JUMP JUMPDEST PUSH1 0x40 MLOAD DUP1 SWAP2 SUB SWAP1 LOG3 POP POP POP JUMP JUMPDEST PUSH3 0x1312 PUSH3 0x13DC JUMP JUMPDEST PUSH1 0x1 PUSH1 0x1 PUSH1 0xA0 SHL SUB DUP2 AND PUSH3 0x133A JUMPI PUSH1 0x40 MLOAD PUSH4 0xD92E233D PUSH1 0xE0 SHL DUP2 MSTORE PUSH1 0x4 ADD PUSH1 0x40 MLOAD DUP1 SWAP2 SUB SWAP1 REVERT JUMPDEST PUSH1 0x1 DUP1 SLOAD PUSH1 0x1 PUSH1 0x1 PUSH1 0xA0 SHL SUB NOT AND PUSH1 0x1 PUSH1 0x1 PUSH1 0xA0 SHL SUB SWAP3 SWAP1 SWAP3 AND SWAP2 SWAP1 SWAP2 OR SWAP1 SSTORE JUMP JUMPDEST PUSH3 0x1366 PUSH3 0x13DC JUMP JUMPDEST PUSH1 0x1 PUSH1 0x1 PUSH1 0xA0 SHL SUB DUP2 AND PUSH3 0x1396 JUMPI PUSH1 0x40 MLOAD PUSH4 0x1E4FBDF7 PUSH1 0xE0 SHL DUP2 MSTORE PUSH1 0x0 PUSH1 0x4 DUP3 ADD MSTORE PUSH1 0x24 ADD JUMPDEST PUSH1 0x40 MLOAD DUP1 SWAP2 SUB SWAP1 REVERT JUMPDEST PUSH3 0xA15 DUP2 PUSH3 0x1462 JUMP JUMPDEST PUSH1 0x0 SLOAD PUSH1 0x1 PUSH1 0xA0 SHL SWAP1 DIV PUSH1 0xFF AND ISZERO PUSH3 0x977 JUMPI PUSH1 0x40 MLOAD PUSH4 0xD93C0665 PUSH1 0xE0 SHL DUP2 MSTORE PUSH1 0x4 ADD PUSH1 0x40 MLOAD DUP1 SWAP2 SUB SWAP1 REVERT JUMPDEST PUSH1 0x0 PUSH3 0x579 DUP3 PUSH1 0x0 PUSH3 0x1551 JUMP JUMPDEST PUSH1 0x0 SLOAD PUSH1 0x1 PUSH1 0x1 PUSH1 0xA0 SHL SUB AND CALLER EQ PUSH3 0x977 JUMPI PUSH1 0x40 MLOAD PUSH4 0x118CDAA7 PUSH1 0xE0 SHL DUP2 MSTORE CALLER PUSH1 0x4 DUP3 ADD MSTORE PUSH1 0x24 ADD PUSH3 0x138D JUMP JUMPDEST PUSH3 0x1415 PUSH3 0x15EA JUMP JUMPDEST PUSH1 0x0 DUP1 SLOAD PUSH1 0xFF PUSH1 0xA0 SHL NOT AND SWAP1 SSTORE PUSH32 0x5DB9EE0A495BF2E6FF9C91A7834C1BA4FDD244A5E8AA4E537BD38AEAE4B073AA CALLER JUMPDEST PUSH1 0x40 MLOAD PUSH1 0x1 PUSH1 0x1 PUSH1 0xA0 SHL SUB SWAP1 SWAP2 AND DUP2 MSTORE PUSH1 0x20 ADD PUSH1 0x40 MLOAD DUP1 SWAP2 SUB SWAP1 LOG1 JUMP JUMPDEST PUSH1 0x0 DUP1 SLOAD PUSH1 0x1 PUSH1 0x1 PUSH1 0xA0 SHL SUB DUP4 DUP2 AND PUSH1 0x1 PUSH1 0x1 PUSH1 0xA0 SHL SUB NOT DUP4 AND DUP2 OR DUP5 SSTORE PUSH1 0x40 MLOAD SWAP2 SWAP1 SWAP3 AND SWAP3 DUP4 SWAP2 PUSH32 0x8BE0079C531659141344CD1FD0A4F28419497F9722A3DAAFE3B4186F6B6457E0 SWAP2 SWAP1 LOG3 POP POP JUMP JUMPDEST PUSH3 0x14BC PUSH3 0x13A1 JUMP JUMPDEST PUSH1 0x0 DUP1 SLOAD PUSH1 0xFF PUSH1 0xA0 SHL NOT AND PUSH1 0x1 PUSH1 0xA0 SHL OR SWAP1 SSTORE PUSH32 0x62E78CEA01BEE320CD4E420270B5EA74000D11B0C9F74754EBDBFC544B05A258 PUSH3 0x1445 CALLER SWAP1 JUMP JUMPDEST PUSH1 0x40 DUP1 MLOAD PUSH1 0x1 PUSH1 0x1 PUSH1 0xA0 SHL SUB DUP5 AND PUSH1 0x24 DUP3 ADD MSTORE PUSH1 0x44 DUP1 DUP3 ADD DUP5 SWAP1 MSTORE DUP3 MLOAD DUP1 DUP4 SUB SWAP1 SWAP2 ADD DUP2 MSTORE PUSH1 0x64 SWAP1 SWAP2 ADD SWAP1 SWAP2 MSTORE PUSH1 0x20 DUP2 ADD DUP1 MLOAD PUSH1 0x1 PUSH1 0x1 PUSH1 0xE0 SHL SUB AND PUSH4 0xA9059CBB PUSH1 0xE0 SHL OR SWAP1 MSTORE PUSH3 0x154C SWAP1 DUP5 SWAP1 PUSH3 0x1615 JUMP JUMPDEST POP POP POP JUMP JUMPDEST PUSH1 0x0 DUP2 SELFBALANCE LT ISZERO PUSH3 0x157F JUMPI PUSH1 0x40 MLOAD PUSH4 0xCF479181 PUSH1 0xE0 SHL DUP2 MSTORE SELFBALANCE PUSH1 0x4 DUP3 ADD MSTORE PUSH1 0x24 DUP2 ADD DUP4 SWAP1 MSTORE PUSH1 0x44 ADD PUSH3 0x138D JUMP JUMPDEST PUSH23 0x3D602D80600A3D3981F3363D3D373D3D3D363D73000000 DUP4 PUSH1 0x60 SHL PUSH1 0xE8 SHR OR PUSH1 0x0 MSTORE PUSH15 0x5AF43D82803E903D91602B57FD5BF3 DUP4 PUSH1 0x78 SHL OR PUSH1 0x20 MSTORE PUSH1 0x37 PUSH1 0x9 DUP4 CREATE SWAP1 POP PUSH1 0x1 PUSH1 0x1 PUSH1 0xA0 SHL SUB DUP2 AND PUSH3 0x579 JUMPI PUSH1 0x40 MLOAD PUSH4 0xB06EBF3D PUSH1 0xE0 SHL DUP2 MSTORE PUSH1 0x4 ADD PUSH1 0x40 MLOAD DUP1 SWAP2 SUB SWAP1 REVERT JUMPDEST PUSH1 0x0 SLOAD PUSH1 0x1 PUSH1 0xA0 SHL SWAP1 DIV PUSH1 0xFF AND PUSH3 0x977 JUMPI PUSH1 0x40 MLOAD PUSH4 0x8DFC202B PUSH1 0xE0 SHL DUP2 MSTORE PUSH1 0x4 ADD PUSH1 0x40 MLOAD DUP1 SWAP2 SUB SWAP1 REVERT JUMPDEST PUSH1 0x0 DUP1 PUSH1 0x20 PUSH1 0x0 DUP5 MLOAD PUSH1 0x20 DUP7 ADD PUSH1 0x0 DUP9 GAS CALL DUP1 PUSH3 0x1639 JUMPI PUSH1 0x40 MLOAD RETURNDATASIZE PUSH1 0x0 DUP3 RETURNDATACOPY RETURNDATASIZE DUP2 REVERT JUMPDEST POP POP PUSH1 0x0 MLOAD RETURNDATASIZE SWAP2 POP DUP2 ISZERO PUSH3 0x1653 JUMPI DUP1 PUSH1 0x1 EQ ISZERO PUSH3 0x1660 JUMP JUMPDEST PUSH1 0x1 PUSH1 0x1 PUSH1 0xA0 SHL SUB DUP5 AND EXTCODESIZE ISZERO JUMPDEST ISZERO PUSH3 0x168B JUMPI PUSH1 0x40 MLOAD PUSH4 0x5274AFE7 PUSH1 0xE0 SHL DUP2 MSTORE PUSH1 0x1 PUSH1 0x1 PUSH1 0xA0 SHL SUB DUP6 AND PUSH1 0x4 DUP3 ADD MSTORE PUSH1 0x24 ADD PUSH3 0x138D JUMP JUMPDEST POP POP POP POP JUMP JUMPDEST PUSH2 0xD62 DUP1 PUSH3 0x1A64 DUP4 CODECOPY ADD SWAP1 JUMP JUMPDEST PUSH1 0x0 DUP1 PUSH1 0x40 DUP4 DUP6 SUB SLT ISZERO PUSH3 0x16B3 JUMPI PUSH1 0x0 DUP1 REVERT JUMPDEST POP POP DUP1 CALLDATALOAD SWAP3 PUSH1 0x20 SWAP1 SWAP2 ADD CALLDATALOAD SWAP2 POP JUMP JUMPDEST PUSH1 0x0 PUSH1 0x20 DUP3 DUP5 SUB SLT ISZERO PUSH3 0x16D5 JUMPI PUSH1 0x0 DUP1 REVERT JUMPDEST POP CALLDATALOAD SWAP2 SWAP1 POP JUMP JUMPDEST PUSH1 0x1 PUSH1 0x1 PUSH1 0xA0 SHL SUB DUP2 AND DUP2 EQ PUSH3 0xA15 JUMPI PUSH1 0x0 DUP1 REVERT JUMPDEST PUSH1 0x0 DUP1 PUSH1 0x40 DUP4 DUP6 SUB SLT ISZERO PUSH3 0x1706 JUMPI PUSH1 0x0 DUP1 REVERT JUMPDEST DUP3 CALLDATALOAD SWAP2 POP PUSH1 0x20 DUP4 ADD CALLDATALOAD PUSH3 0x171A DUP2 PUSH3 0x16DC JUMP JUMPDEST DUP1 SWAP2 POP POP SWAP3 POP SWAP3 SWAP1 POP JUMP JUMPDEST PUSH1 0x0 PUSH1 0x20 DUP3 DUP5 SUB SLT ISZERO PUSH3 0x1738 JUMPI PUSH1 0x0 DUP1 REVERT JUMPDEST DUP2 CALLDATALOAD PUSH3 0x1745 DUP2 PUSH3 0x16DC JUMP JUMPDEST SWAP4 SWAP3 POP POP POP JUMP JUMPDEST PUSH1 0x0 DUP1 DUP4 PUSH1 0x1F DUP5 ADD SLT PUSH3 0x175F JUMPI PUSH1 0x0 DUP1 REVERT JUMPDEST POP DUP2 CALLDATALOAD PUSH8 0xFFFFFFFFFFFFFFFF DUP2 GT ISZERO PUSH3 0x1778 JUMPI PUSH1 0x0 DUP1 REVERT JUMPDEST PUSH1 0x20 DUP4 ADD SWAP2 POP DUP4 PUSH1 0x20 DUP3 DUP6 ADD ADD GT ISZERO PUSH3 0x1791 JUMPI PUSH1 0x0 DUP1 REVERT JUMPDEST SWAP3 POP SWAP3 SWAP1 POP JUMP JUMPDEST PUSH1 0x0 DUP1 PUSH1 0x0 DUP1 PUSH1 0x0 DUP1 PUSH1 0x0 DUP8 DUP10 SUB PUSH2 0x120 DUP2 SLT ISZERO PUSH3 0x17B6 JUMPI PUSH1 0x0 DUP1 REVERT JUMPDEST DUP9 CALLDATALOAD SWAP8 POP PUSH1 0x20 DUP10 ADD CALLDATALOAD PUSH3 0x17CA DUP2 PUSH3 0x16DC JUMP JUMPDEST SWAP7 POP PUSH1 0x40 DUP10 ADD CALLDATALOAD PUSH8 0xFFFFFFFFFFFFFFFF DUP1 DUP3 GT ISZERO PUSH3 0x17E8 JUMPI PUSH1 0x0 DUP1 REVERT JUMPDEST PUSH3 0x17F6 DUP13 DUP4 DUP14 ADD PUSH3 0x174C JUMP JUMPDEST SWAP1 SWAP9 POP SWAP7 POP PUSH1 0x60 DUP12 ADD CALLDATALOAD SWAP2 POP DUP1 DUP3 GT ISZERO PUSH3 0x1810 JUMPI PUSH1 0x0 DUP1 REVERT JUMPDEST POP PUSH3 0x181F DUP12 DUP3 DUP13 ADD PUSH3 0x174C JUMP JUMPDEST SWAP1 SWAP6 POP SWAP4 POP POP PUSH1 0xA0 PUSH1 0x7F NOT DUP3 ADD SLT ISZERO PUSH3 0x1838 JUMPI PUSH1 0x0 DUP1 REVERT JUMPDEST POP PUSH1 0x80 DUP9 ADD SWAP1 POP SWAP3 SWAP6 SWAP9 SWAP2 SWAP5 SWAP8 POP SWAP3 SWAP6 POP JUMP JUMPDEST PUSH1 0x0 DUP1 PUSH1 0x0 PUSH1 0x60 DUP5 DUP7 SUB SLT ISZERO PUSH3 0x1861 JUMPI PUSH1 0x0 DUP1 REVERT JUMPDEST DUP4 CALLDATALOAD PUSH3 0x186E DUP2 PUSH3 0x16DC JUMP JUMPDEST SWAP3 POP PUSH1 0x20 DUP5 ADD CALLDATALOAD PUSH3 0x1880 DUP2 PUSH3 0x16DC JUMP JUMPDEST SWAP3 SWAP6 SWAP3 SWAP5 POP POP POP PUSH1 0x40 SWAP2 SWAP1 SWAP2 ADD CALLDATALOAD SWAP1 JUMP JUMPDEST PUSH1 0x0 DUP1 PUSH1 0x40 DUP4 DUP6 SUB SLT ISZERO PUSH3 0x18A5 JUMPI PUSH1 0x0 DUP1 REVERT JUMPDEST DUP3 CALLDATALOAD PUSH3 0x18B2 DUP2 PUSH3 0x16DC JUMP JUMPDEST SWAP5 PUSH1 0x20 SWAP4 SWAP1 SWAP4 ADD CALLDATALOAD SWAP4 POP POP POP JUMP JUMPDEST PUSH4 0x4E487B71 PUSH1 0xE0 SHL PUSH1 0x0 MSTORE PUSH1 0x32 PUSH1 0x4 MSTORE PUSH1 0x24 PUSH1 0x0 REVERT JUMPDEST PUSH1 0x0 PUSH1 0x20 DUP3 DUP5 SUB SLT ISZERO PUSH3 0x18E9 JUMPI PUSH1 0x0 DUP1 REVERT JUMPDEST DUP2 MLOAD DUP1 ISZERO ISZERO DUP2 EQ PUSH3 0x1745 JUMPI PUSH1 0x0 DUP1 REVERT JUMPDEST PUSH4 0x4E487B71 PUSH1 0xE0 SHL PUSH1 0x0 MSTORE PUSH1 0x11 PUSH1 0x4 MSTORE PUSH1 0x24 PUSH1 0x0 REVERT JUMPDEST PUSH1 0x0 PUSH1 0x1 DUP3 ADD PUSH3 0x1925 JUMPI PUSH3 0x1925 PUSH3 0x18FA JUMP JUMPDEST POP PUSH1 0x1 ADD SWAP1 JUMP JUMPDEST DUP1 DUP3 ADD DUP1 DUP3 GT ISZERO PUSH3 0x579 JUMPI PUSH3 0x579 PUSH3 0x18FA JUMP JUMPDEST PUSH1 0x0 PUSH1 0x1 PUSH1 0xFF SHL DUP3 ADD PUSH3 0x195A JUMPI PUSH3 0x195A PUSH3 0x18FA JUMP JUMPDEST POP PUSH1 0x0 SUB SWAP1 JUMP JUMPDEST DUP2 DUP2 SUB DUP2 DUP2 GT ISZERO PUSH3 0x579 JUMPI PUSH3 0x579 PUSH3 0x18FA JUMP JUMPDEST PUSH1 0x0 PUSH1 0x20 DUP3 DUP5 SUB SLT ISZERO PUSH3 0x198A JUMPI PUSH1 0x0 DUP1 REVERT JUMPDEST POP MLOAD SWAP2 SWAP1 POP JUMP JUMPDEST PUSH1 0x0 PUSH1 0x20 DUP3 DUP5 SUB SLT ISZERO PUSH3 0x19A4 JUMPI PUSH1 0x0 DUP1 REVERT JUMPDEST DUP2 CALLDATALOAD PUSH1 0xFF DUP2 AND DUP2 EQ PUSH3 0x1745 JUMPI PUSH1 0x0 DUP1 REVERT JUMPDEST PUSH1 0x0 PUSH1 0x20 DUP3 DUP5 SUB SLT ISZERO PUSH3 0x19C9 JUMPI PUSH1 0x0 DUP1 REVERT JUMPDEST DUP2 CALLDATALOAD PUSH2 0xFFFF DUP2 AND DUP2 EQ PUSH3 0x1745 JUMPI PUSH1 0x0 DUP1 REVERT JUMPDEST DUP2 DUP4 MSTORE DUP2 DUP2 PUSH1 0x20 DUP6 ADD CALLDATACOPY POP PUSH1 0x0 DUP3 DUP3 ADD PUSH1 0x20 SWAP1 DUP2 ADD SWAP2 SWAP1 SWAP2 MSTORE PUSH1 0x1F SWAP1 SWAP2 ADD PUSH1 0x1F NOT AND SWAP1 SWAP2 ADD ADD SWAP1 JUMP JUMPDEST PUSH1 0x1 PUSH1 0x1 PUSH1 0xA0 SHL SUB DUP7 AND DUP2 MSTORE PUSH1 0x60 PUSH1 0x20 DUP3 ADD DUP2 SWAP1 MSTORE PUSH1 0x0 SWAP1 PUSH3 0x1A2C SWAP1 DUP4 ADD DUP7 DUP9 PUSH3 0x19DC JUMP JUMPDEST DUP3 DUP2 SUB PUSH1 0x40 DUP5 ADD MSTORE PUSH3 0x1A41 DUP2 DUP6 DUP8 PUSH3 0x19DC JUMP JUMPDEST SWAP9 SWAP8 POP POP POP POP POP POP POP POP JUMP JUMPDEST PUSH4 0x4E487B71 PUSH1 0xE0 SHL PUSH1 0x0 MSTORE PUSH1 0x31 PUSH1 0x4 MSTORE PUSH1 0x24 PUSH1 0x0 REVERT INVALID PUSH1 0xA0 PUSH1 0x40 MSTORE CALLVALUE DUP1 ISZERO PUSH3 0x11 JUMPI PUSH1 0x0 DUP1 REVERT JUMPDEST POP PUSH1 0x40 MLOAD PUSH3 0xD62 CODESIZE SUB DUP1 PUSH3 0xD62 DUP4 CODECOPY DUP2 ADD PUSH1 0x40 DUP2 SWAP1 MSTORE PUSH3 0x34 SWAP2 PUSH3 0x135 JUMP JUMPDEST DUP2 DUP2 PUSH1 0x3 PUSH3 0x44 DUP4 DUP3 PUSH3 0x250 JUMP JUMPDEST POP PUSH1 0x4 PUSH3 0x53 DUP3 DUP3 PUSH3 0x250 JUMP JUMPDEST POP POP POP PUSH1 0x1 PUSH1 0x1 PUSH1 0xA0 SHL SUB SWAP1 SWAP3 AND PUSH1 0x80 MSTORE POP PUSH3 0x31C SWAP1 POP JUMP JUMPDEST PUSH4 0x4E487B71 PUSH1 0xE0 SHL PUSH1 0x0 MSTORE PUSH1 0x41 PUSH1 0x4 MSTORE PUSH1 0x24 PUSH1 0x0 REVERT JUMPDEST PUSH1 0x0 DUP3 PUSH1 0x1F DUP4 ADD SLT PUSH3 0x95 JUMPI PUSH1 0x0 DUP1 REVERT JUMPDEST DUP2 MLOAD PUSH1 0x1 PUSH1 0x1 PUSH1 0x40 SHL SUB DUP1 DUP3 GT ISZERO PUSH3 0xB2 JUMPI PUSH3 0xB2 PUSH3 0x6D JUMP JUMPDEST PUSH1 0x40 MLOAD PUSH1 0x1F DUP4 ADD PUSH1 0x1F NOT SWAP1 DUP2 AND PUSH1 0x3F ADD AND DUP2 ADD SWAP1 DUP3 DUP3 GT DUP2 DUP4 LT OR ISZERO PUSH3 0xDD JUMPI PUSH3 0xDD PUSH3 0x6D JUMP JUMPDEST DUP2 PUSH1 0x40 MSTORE DUP4 DUP2 MSTORE PUSH1 0x20 SWAP3 POP DUP7 PUSH1 0x20 DUP6 DUP9 ADD ADD GT ISZERO PUSH3 0xFB JUMPI PUSH1 0x0 DUP1 REVERT JUMPDEST PUSH1 0x0 SWAP2 POP JUMPDEST DUP4 DUP3 LT ISZERO PUSH3 0x11F JUMPI DUP6 DUP3 ADD DUP4 ADD MLOAD DUP2 DUP4 ADD DUP5 ADD MSTORE SWAP1 DUP3 ADD SWAP1 PUSH3 0x100 JUMP JUMPDEST PUSH1 0x0 PUSH1 0x20 DUP6 DUP4 ADD ADD MSTORE DUP1 SWAP5 POP POP POP POP POP SWAP3 SWAP2 POP POP JUMP JUMPDEST PUSH1 0x0 DUP1 PUSH1 0x0 PUSH1 0x60 DUP5 DUP7 SUB SLT ISZERO PUSH3 0x14B JUMPI PUSH1 0x0 DUP1 REVERT JUMPDEST DUP4 MLOAD PUSH1 0x1 PUSH1 0x1 PUSH1 0xA0 SHL SUB DUP2 AND DUP2 EQ PUSH3 0x163 JUMPI PUSH1 0x0 DUP1 REVERT JUMPDEST PUSH1 0x20 DUP6 ADD MLOAD SWAP1 SWAP4 POP PUSH1 0x1 PUSH1 0x1 PUSH1 0x40 SHL SUB DUP1 DUP3 GT ISZERO PUSH3 0x181 JUMPI PUSH1 0x0 DUP1 REVERT JUMPDEST PUSH3 0x18F DUP8 DUP4 DUP9 ADD PUSH3 0x83 JUMP JUMPDEST SWAP4 POP PUSH1 0x40 DUP7 ADD MLOAD SWAP2 POP DUP1 DUP3 GT ISZERO PUSH3 0x1A6 JUMPI PUSH1 0x0 DUP1 REVERT JUMPDEST POP PUSH3 0x1B5 DUP7 DUP3 DUP8 ADD PUSH3 0x83 JUMP JUMPDEST SWAP2 POP POP SWAP3 POP SWAP3 POP SWAP3 JUMP JUMPDEST PUSH1 0x1 DUP2 DUP2 SHR SWAP1 DUP3 AND DUP1 PUSH3 0x1D4 JUMPI PUSH1 0x7F DUP3 AND SWAP2 POP JUMPDEST PUSH1 0x20 DUP3 LT DUP2 SUB PUSH3 0x1F5 JUMPI PUSH4 0x4E487B71 PUSH1 0xE0 SHL PUSH1 0x0 MSTORE PUSH1 0x22 PUSH1 0x4 MSTORE PUSH1 0x24 PUSH1 0x0 REVERT JUMPDEST POP SWAP2 SWAP1 POP JUMP JUMPDEST PUSH1 0x1F DUP3 GT ISZERO PUSH3 0x24B JUMPI PUSH1 0x0 DUP2 PUSH1 0x0 MSTORE PUSH1 0x20 PUSH1 0x0 KECCAK256 PUSH1 0x1F DUP6 ADD PUSH1 0x5 SHR DUP2 ADD PUSH1 0x20 DUP7 LT ISZERO PUSH3 0x226 JUMPI POP DUP1 JUMPDEST PUSH1 0x1F DUP6 ADD PUSH1 0x5 SHR DUP3 ADD SWAP2 POP JUMPDEST DUP2 DUP2 LT ISZERO PUSH3 0x247 JUMPI DUP3 DUP2 SSTORE PUSH1 0x1 ADD PUSH3 0x232 JUMP JUMPDEST POP POP POP JUMPDEST POP POP POP JUMP JUMPDEST DUP2 MLOAD PUSH1 0x1 PUSH1 0x1 PUSH1 0x40 SHL SUB DUP2 GT ISZERO PUSH3 0x26C JUMPI PUSH3 0x26C PUSH3 0x6D JUMP JUMPDEST PUSH3 0x284 DUP2 PUSH3 0x27D DUP5 SLOAD PUSH3 0x1BF JUMP JUMPDEST DUP5 PUSH3 0x1FB JUMP JUMPDEST PUSH1 0x20 DUP1 PUSH1 0x1F DUP4 GT PUSH1 0x1 DUP2 EQ PUSH3 0x2BC JUMPI PUSH1 0x0 DUP5 ISZERO PUSH3 0x2A3 JUMPI POP DUP6 DUP4 ADD MLOAD JUMPDEST PUSH1 0x0 NOT PUSH1 0x3 DUP7 SWAP1 SHL SHR NOT AND PUSH1 0x1 DUP6 SWAP1 SHL OR DUP6 SSTORE PUSH3 0x247 JUMP JUMPDEST PUSH1 0x0 DUP6 DUP2 MSTORE PUSH1 0x20 DUP2 KECCAK256 PUSH1 0x1F NOT DUP7 AND SWAP2 JUMPDEST DUP3 DUP2 LT ISZERO PUSH3 0x2ED JUMPI DUP9 DUP7 ADD MLOAD DUP3 SSTORE SWAP5 DUP5 ADD SWAP5 PUSH1 0x1 SWAP1 SWAP2 ADD SWAP1 DUP5 ADD PUSH3 0x2CC JUMP JUMPDEST POP DUP6 DUP3 LT ISZERO PUSH3 0x30C JUMPI DUP8 DUP6 ADD MLOAD PUSH1 0x0 NOT PUSH1 0x3 DUP9 SWAP1 SHL PUSH1 0xF8 AND SHR NOT AND DUP2 SSTORE JUMPDEST POP POP POP POP POP PUSH1 0x1 SWAP1 DUP2 SHL ADD SWAP1 SSTORE POP JUMP JUMPDEST PUSH1 0x80 MLOAD PUSH2 0xA1C PUSH3 0x346 PUSH1 0x0 CODECOPY PUSH1 0x0 DUP2 DUP2 PUSH2 0x19F ADD MSTORE DUP2 DUP2 PUSH2 0x2F7 ADD MSTORE PUSH2 0x3FA ADD MSTORE PUSH2 0xA1C PUSH1 0x0 RETURN INVALID PUSH1 0x80 PUSH1 0x40 MSTORE CALLVALUE DUP1 ISZERO PUSH2 0x10 JUMPI PUSH1 0x0 DUP1 REVERT JUMPDEST POP PUSH1 0x4 CALLDATASIZE LT PUSH2 0xB4 JUMPI PUSH1 0x0 CALLDATALOAD PUSH1 0xE0 SHR DUP1 PUSH4 0x70A08231 GT PUSH2 0x71 JUMPI DUP1 PUSH4 0x70A08231 EQ PUSH2 0x143 JUMPI DUP1 PUSH4 0x95D89B41 EQ PUSH2 0x16C JUMPI DUP1 PUSH4 0x9DC29FAC EQ PUSH2 0x174 JUMPI DUP1 PUSH4 0xA9059CBB EQ PUSH2 0x187 JUMPI DUP1 PUSH4 0xC45A0155 EQ PUSH2 0x19A JUMPI DUP1 PUSH4 0xDD62ED3E EQ PUSH2 0x1D9 JUMPI PUSH1 0x0 DUP1 REVERT JUMPDEST DUP1 PUSH4 0x6FDDE03 EQ PUSH2 0xB9 JUMPI DUP1 PUSH4 0x95EA7B3 EQ PUSH2 0xD7 JUMPI DUP1 PUSH4 0x18160DDD EQ PUSH2 0xFA JUMPI DUP1 PUSH4 0x23B872DD EQ PUSH2 0x10C JUMPI DUP1 PUSH4 0x313CE567 EQ PUSH2 0x11F JUMPI DUP1 PUSH4 0x40C10F19 EQ PUSH2 0x12E JUMPI JUMPDEST PUSH1 0x0 DUP1 REVERT JUMPDEST PUSH2 0xC1 PUSH2 0x212 JUMP JUMPDEST PUSH1 0x40 MLOAD PUSH2 0xCE SWAP2 SWAP1 PUSH2 0x843 JUMP JUMPDEST PUSH1 0x40 MLOAD DUP1 SWAP2 SUB SWAP1 RETURN JUMPDEST PUSH2 0xEA PUSH2 0xE5 CALLDATASIZE PUSH1 0x4 PUSH2 0x8AE JUMP JUMPDEST PUSH2 0x2A4 JUMP JUMPDEST PUSH1 0x40 MLOAD SWAP1 ISZERO ISZERO DUP2 MSTORE PUSH1 0x20 ADD PUSH2 0xCE JUMP JUMPDEST PUSH1 0x2 SLOAD JUMPDEST PUSH1 0x40 MLOAD SWAP1 DUP2 MSTORE PUSH1 0x20 ADD PUSH2 0xCE JUMP JUMPDEST PUSH2 0xEA PUSH2 0x11A CALLDATASIZE PUSH1 0x4 PUSH2 0x8D8 JUMP JUMPDEST PUSH2 0x2BE JUMP JUMPDEST PUSH1 0x40 MLOAD PUSH1 0x12 DUP2 MSTORE PUSH1 0x20 ADD PUSH2 0xCE JUMP JUMPDEST PUSH2 0x141 PUSH2 0x13C CALLDATASIZE PUSH1 0x4 PUSH2 0x8AE JUMP JUMPDEST PUSH2 0x2E2 JUMP JUMPDEST STOP JUMPDEST PUSH2 0xFE PUSH2 0x151 CALLDATASIZE PUSH1 0x4 PUSH2 0x914 JUMP JUMPDEST PUSH1 0x1 PUSH1 0x1 PUSH1 0xA0 SHL SUB AND PUSH1 0x0 SWAP1 DUP2 MSTORE PUSH1 0x20 DUP2 SWAP1 MSTORE PUSH1 0x40 SWAP1 KECCAK256 SLOAD SWAP1 JUMP JUMPDEST PUSH2 0xC1 PUSH2 0x3D6 JUMP JUMPDEST PUSH2 0x141 PUSH2 0x182 CALLDATASIZE PUSH1 0x4 PUSH2 0x8AE JUMP JUMPDEST PUSH2 0x3E5 JUMP JUMPDEST PUSH2 0xEA PUSH2 0x195 CALLDATASIZE PUSH1 0x4 PUSH2 0x8AE JUMP JUMPDEST PUSH2 0x4D1 JUMP JUMPDEST PUSH2 0x1C1 PUSH32 0x0 DUP2 JUMP JUMPDEST PUSH1 0x40 MLOAD PUSH1 0x1 PUSH1 0x1 PUSH1 0xA0 SHL SUB SWAP1 SWAP2 AND DUP2 MSTORE PUSH1 0x20 ADD PUSH2 0xCE JUMP JUMPDEST PUSH2 0xFE PUSH2 0x1E7 CALLDATASIZE PUSH1 0x4 PUSH2 0x936 JUMP JUMPDEST PUSH1 0x1 PUSH1 0x1 PUSH1 0xA0 SHL SUB SWAP2 DUP3 AND PUSH1 0x0 SWAP1 DUP2 MSTORE PUSH1 0x1 PUSH1 0x20 SWAP1 DUP2 MSTORE PUSH1 0x40 DUP1 DUP4 KECCAK256 SWAP4 SWAP1 SWAP5 AND DUP3 MSTORE SWAP2 SWAP1 SWAP2 MSTORE KECCAK256 SLOAD SWAP1 JUMP JUMPDEST PUSH1 0x60 PUSH1 0x3 DUP1 SLOAD PUSH2 0x221 SWAP1 PUSH2 0x969 JUMP JUMPDEST DUP1 PUSH1 0x1F ADD PUSH1 0x20 DUP1 SWAP2 DIV MUL PUSH1 0x20 ADD PUSH1 0x40 MLOAD SWAP1 DUP2 ADD PUSH1 0x40 MSTORE DUP1 SWAP3 SWAP2 SWAP1 DUP2 DUP2 MSTORE PUSH1 0x20 ADD DUP3 DUP1 SLOAD PUSH2 0x24D SWAP1 PUSH2 0x969 JUMP JUMPDEST DUP1 ISZERO PUSH2 0x29A JUMPI DUP1 PUSH1 0x1F LT PUSH2 0x26F JUMPI PUSH2 0x100 DUP1 DUP4 SLOAD DIV MUL DUP4 MSTORE SWAP2 PUSH1 0x20 ADD SWAP2 PUSH2 0x29A JUMP JUMPDEST DUP3 ADD SWAP2 SWAP1 PUSH1 0x0 MSTORE PUSH1 0x20 PUSH1 0x0 KECCAK256 SWAP1 JUMPDEST DUP2 SLOAD DUP2 MSTORE SWAP1 PUSH1 0x1 ADD SWAP1 PUSH1 0x20 ADD DUP1 DUP4 GT PUSH2 0x27D JUMPI DUP3 SWAP1 SUB PUSH1 0x1F AND DUP3 ADD SWAP2 JUMPDEST POP POP POP POP POP SWAP1 POP SWAP1 JUMP JUMPDEST PUSH1 0x0 CALLER PUSH2 0x2B2 DUP2 DUP6 DUP6 PUSH2 0x4DF JUMP JUMPDEST PUSH1 0x1 SWAP2 POP POP JUMPDEST SWAP3 SWAP2 POP POP JUMP JUMPDEST PUSH1 0x0 CALLER PUSH2 0x2CC DUP6 DUP3 DUP6 PUSH2 0x4F1 JUMP JUMPDEST PUSH2 0x2D7 DUP6 DUP6 DUP6 PUSH2 0x575 JUMP JUMPDEST POP PUSH1 0x1 SWAP5 SWAP4 POP POP POP POP JUMP JUMPDEST PUSH1 0x40 MLOAD PUSH4 0x652B9B41 PUSH1 0xE0 SHL DUP2 MSTORE CALLER PUSH1 0x4 DUP3 ADD MSTORE PUSH32 0x0 PUSH1 0x1 PUSH1 0x1 PUSH1 0xA0 SHL SUB AND SWAP1 PUSH4 0x652B9B41 SWAP1 PUSH1 0x24 ADD PUSH1 0x20 PUSH1 0x40 MLOAD DUP1 DUP4 SUB DUP2 DUP7 GAS STATICCALL ISZERO DUP1 ISZERO PUSH2 0x346 JUMPI RETURNDATASIZE PUSH1 0x0 DUP1 RETURNDATACOPY RETURNDATASIZE PUSH1 0x0 REVERT JUMPDEST POP POP POP POP PUSH1 0x40 MLOAD RETURNDATASIZE PUSH1 0x1F NOT PUSH1 0x1F DUP3 ADD AND DUP3 ADD DUP1 PUSH1 0x40 MSTORE POP DUP2 ADD SWAP1 PUSH2 0x36A SWAP2 SWAP1 PUSH2 0x9A3 JUMP JUMPDEST PUSH2 0x387 JUMPI PUSH1 0x40 MLOAD PUSH4 0x62DF0545 PUSH1 0xE0 SHL DUP2 MSTORE PUSH1 0x4 ADD PUSH1 0x40 MLOAD DUP1 SWAP2 SUB SWAP1 REVERT JUMPDEST PUSH2 0x391 DUP3 DUP3 PUSH2 0x5D4 JUMP JUMPDEST PUSH1 0x40 MLOAD DUP2 DUP2 MSTORE PUSH1 0x1 PUSH1 0x1 PUSH1 0xA0 SHL SUB DUP4 AND SWAP1 CALLER SWAP1 PUSH32 0xCE21ACCFB51EE72824636232A59EFE25F42552FDCB56B05EE1B63F85811F4AA1 SWAP1 PUSH1 0x20 ADD JUMPDEST PUSH1 0x40 MLOAD DUP1 SWAP2 SUB SWAP1 LOG3 POP POP JUMP JUMPDEST PUSH1 0x60 PUSH1 0x4 DUP1 SLOAD PUSH2 0x221 SWAP1 PUSH2 0x969 JUMP JUMPDEST PUSH1 0x40 MLOAD PUSH4 0x652B9B41 PUSH1 0xE0 SHL DUP2 MSTORE CALLER PUSH1 0x4 DUP3 ADD MSTORE PUSH32 0x0 PUSH1 0x1 PUSH1 0x1 PUSH1 0xA0 SHL SUB AND SWAP1 PUSH4 0x652B9B41 SWAP1 PUSH1 0x24 ADD PUSH1 0x20 PUSH1 0x40 MLOAD DUP1 DUP4 SUB DUP2 DUP7 GAS STATICCALL ISZERO DUP1 ISZERO PUSH2 0x449 JUMPI RETURNDATASIZE PUSH1 0x0 DUP1 RETURNDATACOPY RETURNDATASIZE PUSH1 0x0 REVERT JUMPDEST POP POP POP POP PUSH1 0x40 MLOAD RETURNDATASIZE PUSH1 0x1F NOT PUSH1 0x1F DUP3 ADD AND DUP3 ADD DUP1 PUSH1 0x40 MSTORE POP DUP2 ADD SWAP1 PUSH2 0x46D SWAP2 SWAP1 PUSH2 0x9A3 JUMP JUMPDEST PUSH2 0x48A JUMPI PUSH1 0x40 MLOAD PUSH4 0x62DF0545 PUSH1 0xE0 SHL DUP2 MSTORE PUSH1 0x4 ADD PUSH1 0x40 MLOAD DUP1 SWAP2 SUB SWAP1 REVERT JUMPDEST PUSH2 0x494 DUP3 DUP3 PUSH2 0x60E JUMP JUMPDEST PUSH1 0x40 MLOAD DUP2 DUP2 MSTORE PUSH1 0x1 PUSH1 0x1 PUSH1 0xA0 SHL SUB DUP4 AND SWAP1 CALLER SWAP1 PUSH32 0x18BEBB4077E3FC4372A880E99E47E7E1D3711DD0B821ADBC9853719AAB033B3D SWAP1 PUSH1 0x20 ADD PUSH2 0x3CA JUMP JUMPDEST PUSH1 0x0 CALLER PUSH2 0x2B2 DUP2 DUP6 DUP6 PUSH2 0x575 JUMP JUMPDEST PUSH2 0x4EC DUP4 DUP4 DUP4 PUSH1 0x1 PUSH2 0x644 JUMP JUMPDEST POP POP POP JUMP JUMPDEST PUSH1 0x1 PUSH1 0x1 PUSH1 0xA0 SHL SUB DUP4 DUP2 AND PUSH1 0x0 SWAP1 DUP2 MSTORE PUSH1 0x1 PUSH1 0x20 SWAP1 DUP2 MSTORE PUSH1 0x40 DUP1 DUP4 KECCAK256 SWAP4 DUP7 AND DUP4 MSTORE SWAP3 SWAP1 MSTORE KECCAK256 SLOAD PUSH1 0x0 NOT DUP2 LT ISZERO PUSH2 0x56F JUMPI DUP2 DUP2 LT ISZERO PUSH2 0x560 JUMPI PUSH1 0x40 MLOAD PUSH4 0x7DC7A0D9 PUSH1 0xE1 SHL DUP2 MSTORE PUSH1 0x1 PUSH1 0x1 PUSH1 0xA0 SHL SUB DUP5 AND PUSH1 0x4 DUP3 ADD MSTORE PUSH1 0x24 DUP2 ADD DUP3 SWAP1 MSTORE PUSH1 0x44 DUP2 ADD DUP4 SWAP1 MSTORE PUSH1 0x64 ADD JUMPDEST PUSH1 0x40 MLOAD DUP1 SWAP2 SUB SWAP1 REVERT JUMPDEST PUSH2 0x56F DUP5 DUP5 DUP5 DUP5 SUB PUSH1 0x0 PUSH2 0x644 JUMP JUMPDEST POP POP POP POP JUMP JUMPDEST PUSH1 0x1 PUSH1 0x1 PUSH1 0xA0 SHL SUB DUP4 AND PUSH2 0x59F JUMPI PUSH1 0x40 MLOAD PUSH4 0x4B637E8F PUSH1 0xE1 SHL DUP2 MSTORE PUSH1 0x0 PUSH1 0x4 DUP3 ADD MSTORE PUSH1 0x24 ADD PUSH2 0x557 JUMP JUMPDEST PUSH1 0x1 PUSH1 0x1 PUSH1 0xA0 SHL SUB DUP3 AND PUSH2 0x5C9 JUMPI PUSH1 0x40 MLOAD PUSH4 0xEC442F05 PUSH1 0xE0 SHL DUP2 MSTORE PUSH1 0x0 PUSH1 0x4 DUP3 ADD MSTORE PUSH1 0x24 ADD PUSH2 0x557 JUMP JUMPDEST PUSH2 0x4EC DUP4 DUP4 DUP4 PUSH2 0x719 JUMP JUMPDEST PUSH1 0x1 PUSH1 0x1 PUSH1 0xA0 SHL SUB DUP3 AND PUSH2 0x5FE JUMPI PUSH1 0x40 MLOAD PUSH4 0xEC442F05 PUSH1 0xE0 SHL DUP2 MSTORE PUSH1 0x0 PUSH1 0x4 DUP3 ADD MSTORE PUSH1 0x24 ADD PUSH2 0x557 JUMP JUMPDEST PUSH2 0x60A PUSH1 0x0 DUP4 DUP4 PUSH2 0x719 JUMP JUMPDEST POP POP JUMP JUMPDEST PUSH1 0x1 PUSH1 0x1 PUSH1 0xA0 SHL SUB DUP3 AND PUSH2 0x638 JUMPI PUSH1 0x40 MLOAD PUSH4 0x4B637E8F PUSH1 0xE1 SHL DUP2 MSTORE PUSH1 0x0 PUSH1 0x4 DUP3 ADD MSTORE PUSH1 0x24 ADD PUSH2 0x557 JUMP JUMPDEST PUSH2 0x60A DUP3 PUSH1 0x0 DUP4 PUSH2 0x719 JUMP JUMPDEST PUSH1 0x1 PUSH1 0x1 PUSH1 0xA0 SHL SUB DUP5 AND PUSH2 0x66E JUMPI PUSH1 0x40 MLOAD PUSH4 0xE602DF05 PUSH1 0xE0 SHL DUP2 MSTORE PUSH1 0x0 PUSH1 0x4 DUP3 ADD MSTORE PUSH1 0x24 ADD PUSH2 0x557 JUMP JUMPDEST PUSH1 0x1 PUSH1 0x1 PUSH1 0xA0 SHL SUB DUP4 AND PUSH2 0x698 JUMPI PUSH1 0x40 MLOAD PUSH4 0x4A1406B1 PUSH1 0xE1 SHL DUP2 MSTORE PUSH1 0x0 PUSH1 0x4 DUP3 ADD MSTORE PUSH1 0x24 ADD PUSH2 0x557 JUMP JUMPDEST PUSH1 0x1 PUSH1 0x1 PUSH1 0xA0 SHL SUB DUP1 DUP6 AND PUSH1 0x0 SWAP1 DUP2 MSTORE PUSH1 0x1 PUSH1 0x20 SWAP1 DUP2 MSTORE PUSH1 0x40 DUP1 DUP4 KECCAK256 SWAP4 DUP8 AND DUP4 MSTORE SWAP3 SWAP1 MSTORE KECCAK256 DUP3 SWAP1 SSTORE DUP1 ISZERO PUSH2 0x56F JUMPI DUP3 PUSH1 0x1 PUSH1 0x1 PUSH1 0xA0 SHL SUB AND DUP5 PUSH1 0x1 PUSH1 0x1 PUSH1 0xA0 SHL SUB AND PUSH32 0x8C5BE1E5EBEC7D5BD14F71427D1E84F3DD0314C0F7B2291E5B200AC8C7C3B925 DUP5 PUSH1 0x40 MLOAD PUSH2 0x70B SWAP2 DUP2 MSTORE PUSH1 0x20 ADD SWAP1 JUMP JUMPDEST PUSH1 0x40 MLOAD DUP1 SWAP2 SUB SWAP1 LOG3 POP POP POP POP JUMP JUMPDEST PUSH1 0x1 PUSH1 0x1 PUSH1 0xA0 SHL SUB DUP4 AND PUSH2 0x744 JUMPI DUP1 PUSH1 0x2 PUSH1 0x0 DUP3 DUP3 SLOAD PUSH2 0x739 SWAP2 SWAP1 PUSH2 0x9C5 JUMP JUMPDEST SWAP1 SWAP2 SSTORE POP PUSH2 0x7B6 SWAP1 POP JUMP JUMPDEST PUSH1 0x1 PUSH1 0x1 PUSH1 0xA0 SHL SUB DUP4 AND PUSH1 0x0 SWAP1 DUP2 MSTORE PUSH1 0x20 DUP2 SWAP1 MSTORE PUSH1 0x40 SWAP1 KECCAK256 SLOAD DUP2 DUP2 LT ISZERO PUSH2 0x797 JUMPI PUSH1 0x40 MLOAD PUSH4 0x391434E3 PUSH1 0xE2 SHL DUP2 MSTORE PUSH1 0x1 PUSH1 0x1 PUSH1 0xA0 SHL SUB DUP6 AND PUSH1 0x4 DUP3 ADD MSTORE PUSH1 0x24 DUP2 ADD DUP3 SWAP1 MSTORE PUSH1 0x44 DUP2 ADD DUP4 SWAP1 MSTORE PUSH1 0x64 ADD PUSH2 0x557 JUMP JUMPDEST PUSH1 0x1 PUSH1 0x1 PUSH1 0xA0 SHL SUB DUP5 AND PUSH1 0x0 SWAP1 DUP2 MSTORE PUSH1 0x20 DUP2 SWAP1 MSTORE PUSH1 0x40 SWAP1 KECCAK256 SWAP1 DUP3 SWAP1 SUB SWAP1 SSTORE JUMPDEST PUSH1 0x1 PUSH1 0x1 PUSH1 0xA0 SHL SUB DUP3 AND PUSH2 0x7D2 JUMPI PUSH1 0x2 DUP1 SLOAD DUP3 SWAP1 SUB SWAP1 SSTORE PUSH2 0x7F1 JUMP JUMPDEST PUSH1 0x1 PUSH1 0x1 PUSH1 0xA0 SHL SUB DUP3 AND PUSH1 0x0 SWAP1 DUP2 MSTORE PUSH1 0x20 DUP2 SWAP1 MSTORE PUSH1 0x40 SWAP1 KECCAK256 DUP1 SLOAD DUP3 ADD SWAP1 SSTORE JUMPDEST DUP2 PUSH1 0x1 PUSH1 0x1 PUSH1 0xA0 SHL SUB AND DUP4 PUSH1 0x1 PUSH1 0x1 PUSH1 0xA0 SHL SUB AND PUSH32 0xDDF252AD1BE2C89B69C2B068FC378DAA952BA7F163C4A11628F55A4DF523B3EF DUP4 PUSH1 0x40 MLOAD PUSH2 0x836 SWAP2 DUP2 MSTORE PUSH1 0x20 ADD SWAP1 JUMP JUMPDEST PUSH1 0x40 MLOAD DUP1 SWAP2 SUB SWAP1 LOG3 POP POP POP JUMP JUMPDEST PUSH1 0x0 PUSH1 0x20 DUP1 DUP4 MSTORE DUP4 MLOAD DUP1 PUSH1 0x20 DUP6 ADD MSTORE PUSH1 0x0 JUMPDEST DUP2 DUP2 LT ISZERO PUSH2 0x871 JUMPI DUP6 DUP2 ADD DUP4 ADD MLOAD DUP6 DUP3 ADD PUSH1 0x40 ADD MSTORE DUP3 ADD PUSH2 0x855 JUMP JUMPDEST POP PUSH1 0x0 PUSH1 0x40 DUP3 DUP7 ADD ADD MSTORE PUSH1 0x40 PUSH1 0x1F NOT PUSH1 0x1F DUP4 ADD AND DUP6 ADD ADD SWAP3 POP POP POP SWAP3 SWAP2 POP POP JUMP JUMPDEST DUP1 CALLDATALOAD PUSH1 0x1 PUSH1 0x1 PUSH1 0xA0 SHL SUB DUP2 AND DUP2 EQ PUSH2 0x8A9 JUMPI PUSH1 0x0 DUP1 REVERT JUMPDEST SWAP2 SWAP1 POP JUMP JUMPDEST PUSH1 0x0 DUP1 PUSH1 0x40 DUP4 DUP6 SUB SLT ISZERO PUSH2 0x8C1 JUMPI PUSH1 0x0 DUP1 REVERT JUMPDEST PUSH2 0x8CA DUP4 PUSH2 0x892 JUMP JUMPDEST SWAP5 PUSH1 0x20 SWAP4 SWAP1 SWAP4 ADD CALLDATALOAD SWAP4 POP POP POP JUMP JUMPDEST PUSH1 0x0 DUP1 PUSH1 0x0 PUSH1 0x60 DUP5 DUP7 SUB SLT ISZERO PUSH2 0x8ED JUMPI PUSH1 0x0 DUP1 REVERT JUMPDEST PUSH2 0x8F6 DUP5 PUSH2 0x892 JUMP JUMPDEST SWAP3 POP PUSH2 0x904 PUSH1 0x20 DUP6 ADD PUSH2 0x892 JUMP JUMPDEST SWAP2 POP PUSH1 0x40 DUP5 ADD CALLDATALOAD SWAP1 POP SWAP3 POP SWAP3 POP SWAP3 JUMP JUMPDEST PUSH1 0x0 PUSH1 0x20 DUP3 DUP5 SUB SLT ISZERO PUSH2 0x926 JUMPI PUSH1 0x0 DUP1 REVERT JUMPDEST PUSH2 0x92F DUP3 PUSH2 0x892 JUMP JUMPDEST SWAP4 SWAP3 POP POP POP JUMP JUMPDEST PUSH1 0x0 DUP1 PUSH1 0x40 DUP4 DUP6 SUB SLT ISZERO PUSH2 0x949 JUMPI PUSH1 0x0 DUP1 REVERT JUMPDEST PUSH2 0x952 DUP4 PUSH2 0x892 JUMP JUMPDEST SWAP2 POP PUSH2 0x960 PUSH1 0x20 DUP5 ADD PUSH2 0x892 JUMP JUMPDEST SWAP1 POP SWAP3 POP SWAP3 SWAP1 POP JUMP JUMPDEST PUSH1 0x1 DUP2 DUP2 SHR SWAP1 DUP3 AND DUP1 PUSH2 0x97D JUMPI PUSH1 0x7F DUP3 AND SWAP2 POP JUMPDEST PUSH1 0x20 DUP3 LT DUP2 SUB PUSH2 0x99D JUMPI PUSH4 0x4E487B71 PUSH1 0xE0 SHL PUSH1 0x0 MSTORE PUSH1 0x22 PUSH1 0x4 MSTORE PUSH1 0x24 PUSH1 0x0 REVERT JUMPDEST POP SWAP2 SWAP1 POP JUMP JUMPDEST PUSH1 0x0 PUSH1 0x20 DUP3 DUP5 SUB SLT ISZERO PUSH2 0x9B5 JUMPI PUSH1 0x0 DUP1 REVERT JUMPDEST DUP2 MLOAD DUP1 ISZERO ISZERO DUP2 EQ PUSH2 0x92F JUMPI PUSH1 0x0 DUP1 REVERT JUMPDEST DUP1 DUP3 ADD DUP1 DUP3 GT ISZERO PUSH2 0x2B8 JUMPI PUSH4 0x4E487B71 PUSH1 0xE0 SHL PUSH1 0x0 MSTORE PUSH1 0x11 PUSH1 0x4 MSTORE PUSH1 0x24 PUSH1 0x0 REVERT INVALID LOG2 PUSH5 0x6970667358 0x22 SLT KECCAK256 PUSH26 0x91A3FB4C0285D23B2582C4C4BA29DCAA3BAC392E944B6230C505 PUSH3 0xE19FCF SWAP10 PUSH5 0x736F6C6343 STOP ADDMOD XOR STOP CALLER LOG2 PUSH5 0x6970667358 0x22 SLT KECCAK256 0x2B LOG3 PUSH5 0x49C02BE337 0xE5 0xB7 SWAP14 SWAP6 BALANCE 0xAE 0xD PUSH1 0x39 0xB8 SWAP11 SWAP16 CODECOPY 0xCA 0xBC 0x1F 0xB5 GASLIMIT PUSH8 0x754AFF7CCD64736F PUSH13 0x63430008180033000000000000 "},"methodIdentifiers":{"addMarket(bytes32,address,string,string,(uint16,uint16,uint16,uint8,uint8))":"7e3e91ce","createVault(bytes32)":"17799f36","enqueueRedemption(bytes32,address)":"4b91fa93","gmxAdapter()":"4e52b48c","implementation()":"5c60da1b","inRedemptionQueue(bytes32,address)":"3df5878c","isVault(address)":"652b9b41","marketCount()":"ec979082","marketIds(uint256)":"779a9683","markets(bytes32)":"7564912b","nextRedeemable(bytes32)":"09b2d6bd","onCollateralChanged(int256)":"4531c4c3","owner()":"8da5cb5b","pause()":"8456cb59","paused()":"5c975abb","pruneRedemption(bytes32,uint256)":"9ca35904","redemptionQueueAt(bytes32,uint256)":"08a128b0","redemptionQueueLength(bytes32)":"ac44317f","renounceOwnership()":"715018a6","setGmxAdapter(address)":"e70372f1","sweepFees(address,address,uint256)":"c909985b","totalCollateralLocked()":"35d1e920","totalVaults()":"8d654023","transferOwnership(address)":"f2fde38b","unpause()":"3f4ba83a","usdc()":"3e413bee","vaultOf(address,bytes32)":"feb3ff0c"}}}}}