{"src/PositionVault.sol":{"PositionVault":{"abi":[{"inputs":[],"stateMutability":"nonpayable","type":"constructor"},{"inputs":[],"name":"BadKey","type":"error"},{"inputs":[],"name":"BadLeverage","type":"error"},{"inputs":[],"name":"BadState","type":"error"},{"inputs":[],"name":"BelowMinCollateral","type":"error"},{"inputs":[],"name":"ExceedsMaxLTV","type":"error"},{"inputs":[],"name":"InsufficientExecFee","type":"error"},{"inputs":[],"name":"InvalidInitialization","type":"error"},{"inputs":[],"name":"NotGmx","type":"error"},{"inputs":[],"name":"NotInitializing","type":"error"},{"inputs":[],"name":"NotLiquidatable","type":"error"},{"inputs":[],"name":"NotOwner","type":"error"},{"inputs":[],"name":"NotRedeemable","type":"error"},{"inputs":[],"name":"NotTimedOut","type":"error"},{"inputs":[],"name":"OutstandingDebt","type":"error"},{"inputs":[],"name":"ReentrancyGuardReentrantCall","type":"error"},{"inputs":[{"internalType":"address","name":"token","type":"address"}],"name":"SafeERC20FailedOperation","type":"error"},{"anonymous":false,"inputs":[{"indexed":true,"internalType":"address","name":"vault","type":"address"},{"indexed":false,"internalType":"uint256","name":"shortfallUsdc","type":"uint256"}],"name":"BadDebt","type":"event"},{"anonymous":false,"inputs":[{"indexed":true,"internalType":"address","name":"vault","type":"address"},{"indexed":false,"internalType":"uint256","name":"returned","type":"uint256"}],"name":"Closed","type":"event"},{"anonymous":false,"inputs":[{"indexed":true,"internalType":"address","name":"vault","type":"address"},{"indexed":false,"internalType":"uint256","name":"amount","type":"uint256"}],"name":"CollateralDeposited","type":"event"},{"anonymous":false,"inputs":[{"indexed":true,"internalType":"address","name":"vault","type":"address"},{"indexed":false,"internalType":"uint256","name":"amount","type":"uint256"}],"name":"CollateralWithdrawn","type":"event"},{"anonymous":false,"inputs":[{"indexed":true,"internalType":"address","name":"vault","type":"address"},{"indexed":false,"internalType":"bytes32","name":"orderKey","type":"bytes32"},{"indexed":false,"internalType":"uint8","name":"kind","type":"uint8"}],"name":"ConditionalOrderCancelled","type":"event"},{"anonymous":false,"inputs":[{"indexed":true,"internalType":"address","name":"vault","type":"address"},{"indexed":false,"internalType":"uint256","name":"toTreasuryUsdc","type":"uint256"}],"name":"FeesSettled","type":"event"},{"anonymous":false,"inputs":[{"indexed":false,"internalType":"uint64","name":"version","type":"uint64"}],"name":"Initialized","type":"event"},{"anonymous":false,"inputs":[{"indexed":true,"internalType":"address","name":"vault","type":"address"},{"indexed":false,"internalType":"uint256","name":"debtRepaidUsdc","type":"uint256"},{"indexed":false,"internalType":"uint256","name":"refundUsdc","type":"uint256"}],"name":"Liquidated","type":"event"},{"anonymous":false,"inputs":[{"indexed":true,"internalType":"address","name":"vault","type":"address"},{"indexed":false,"internalType":"bytes32","name":"orderKey","type":"bytes32"},{"indexed":false,"internalType":"uint8","name":"kind","type":"uint8"}],"name":"PositionCloseRequested","type":"event"},{"anonymous":false,"inputs":[{"indexed":true,"internalType":"address","name":"vault","type":"address"},{"indexed":false,"internalType":"bytes32","name":"orderKey","type":"bytes32"}],"name":"PositionOpenFailed","type":"event"},{"anonymous":false,"inputs":[{"indexed":true,"internalType":"address","name":"vault","type":"address"},{"indexed":false,"internalType":"bytes32","name":"orderKey","type":"bytes32"},{"indexed":false,"internalType":"uint8","name":"leverage","type":"uint8"},{"indexed":false,"internalType":"bool","name":"isLong","type":"bool"}],"name":"PositionOpenRequested","type":"event"},{"anonymous":false,"inputs":[{"indexed":true,"internalType":"address","name":"vault","type":"address"},{"indexed":false,"internalType":"bytes32","name":"posKey","type":"bytes32"}],"name":"PositionOpened","type":"event"},{"anonymous":false,"inputs":[{"indexed":true,"internalType":"address","name":"vault","type":"address"},{"indexed":false,"internalType":"uint256","name":"amount","type":"uint256"}],"name":"RBTCMinted","type":"event"},{"anonymous":false,"inputs":[{"indexed":true,"internalType":"address","name":"vault","type":"address"},{"indexed":false,"internalType":"uint256","name":"amount","type":"uint256"}],"name":"RBTCRepaid","type":"event"},{"anonymous":false,"inputs":[{"indexed":true,"internalType":"address","name":"vault","type":"address"},{"indexed":true,"internalType":"address","name":"redeemer","type":"address"},{"indexed":false,"internalType":"uint256","name":"rTokenAmount","type":"uint256"},{"indexed":false,"internalType":"uint256","name":"usdcOut","type":"uint256"},{"indexed":false,"internalType":"uint256","name":"feeUsdc","type":"uint256"}],"name":"Redeemed","type":"event"},{"anonymous":false,"inputs":[{"indexed":true,"internalType":"address","name":"vault","type":"address"},{"indexed":false,"internalType":"bytes32","name":"orderKey","type":"bytes32"},{"indexed":false,"internalType":"uint256","name":"triggerPrice8","type":"uint256"}],"name":"StopLossSet","type":"event"},{"anonymous":false,"inputs":[{"indexed":true,"internalType":"address","name":"vault","type":"address"},{"indexed":false,"internalType":"bytes32","name":"orderKey","type":"bytes32"}],"name":"StuckOrderRecovered","type":"event"},{"anonymous":false,"inputs":[{"indexed":true,"internalType":"address","name":"vault","type":"address"},{"indexed":false,"internalType":"bytes32","name":"orderKey","type":"bytes32"},{"indexed":false,"internalType":"uint256","name":"triggerPrice8","type":"uint256"}],"name":"TakeProfitSet","type":"event"},{"inputs":[],"name":"accruedFeesUsdc","outputs":[{"internalType":"uint256","name":"","type":"uint256"}],"stateMutability":"view","type":"function"},{"inputs":[{"internalType":"bytes32","name":"orderKey","type":"bytes32"}],"name":"afterOrderCancellation","outputs":[],"stateMutability":"nonpayable","type":"function"},{"inputs":[{"internalType":"bytes32","name":"orderKey","type":"bytes32"}],"name":"afterOrderExecution","outputs":[],"stateMutability":"nonpayable","type":"function"},{"inputs":[],"name":"bufferBps","outputs":[{"internalType":"uint16","name":"","type":"uint16"}],"stateMutability":"view","type":"function"},{"inputs":[],"name":"cancelLimitOrder","outputs":[],"stateMutability":"nonpayable","type":"function"},{"inputs":[],"name":"cancelStopLoss","outputs":[],"stateMutability":"nonpayable","type":"function"},{"inputs":[],"name":"cancelStuckOrder","outputs":[],"stateMutability":"nonpayable","type":"function"},{"inputs":[],"name":"cancelTakeProfit","outputs":[],"stateMutability":"nonpayable","type":"function"},{"inputs":[],"name":"closePosition","outputs":[],"stateMutability":"payable","type":"function"},{"inputs":[],"name":"collateral","outputs":[{"internalType":"uint256","name":"","type":"uint256"}],"stateMutability":"view","type":"function"},{"inputs":[],"name":"collateralValueUsdWad","outputs":[{"internalType":"uint256","name":"","type":"uint256"}],"stateMutability":"view","type":"function"},{"inputs":[],"name":"currentLTV","outputs":[{"internalType":"uint256","name":"","type":"uint256"}],"stateMutability":"view","type":"function"},{"inputs":[],"name":"debt","outputs":[{"internalType":"uint256","name":"","type":"uint256"}],"stateMutability":"view","type":"function"},{"inputs":[],"name":"debtValueUsdWad","outputs":[{"internalType":"uint256","name":"","type":"uint256"}],"stateMutability":"view","type":"function"},{"inputs":[{"internalType":"uint256","name":"usdcAmount","type":"uint256"}],"name":"deposit","outputs":[],"stateMutability":"nonpayable","type":"function"},{"inputs":[],"name":"effectiveMaxLtvBps","outputs":[{"internalType":"uint256","name":"","type":"uint256"}],"stateMutability":"view","type":"function"},{"inputs":[],"name":"factory","outputs":[{"internalType":"address","name":"","type":"address"}],"stateMutability":"view","type":"function"},{"inputs":[],"name":"flatTier","outputs":[{"internalType":"uint8","name":"","type":"uint8"}],"stateMutability":"view","type":"function"},{"inputs":[],"name":"gmx","outputs":[{"internalType":"contract IGmxAdapter","name":"","type":"address"}],"stateMutability":"view","type":"function"},{"inputs":[],"name":"gmxPosition","outputs":[{"components":[{"internalType":"bool","name":"exists","type":"bool"},{"internalType":"uint256","name":"sizeInUsd","type":"uint256"},{"internalType":"uint256","name":"collateralAmount","type":"uint256"},{"internalType":"uint256","name":"entryPrice8","type":"uint256"}],"internalType":"struct IGmxAdapter.GmxPositionData","name":"","type":"tuple"}],"stateMutability":"view","type":"function"},{"inputs":[],"name":"healthFactor","outputs":[{"internalType":"uint256","name":"","type":"uint256"}],"stateMutability":"view","type":"function"},{"inputs":[{"internalType":"address","name":"owner_","type":"address"},{"internalType":"address","name":"factory_","type":"address"},{"internalType":"contract IGmxAdapter","name":"gmx_","type":"address"},{"internalType":"contract IPriceOracle","name":"oracle_","type":"address"},{"internalType":"address","name":"usdc_","type":"address"},{"internalType":"address","name":"rToken_","type":"address"},{"internalType":"bytes32","name":"marketId_","type":"bytes32"},{"components":[{"internalType":"uint16","name":"maxLtv1xBps","type":"uint16"},{"internalType":"uint16","name":"bufferBps","type":"uint16"},{"internalType":"uint16","name":"maxLtvAtMaxLevBps","type":"uint16"},{"internalType":"uint8","name":"flatTier","type":"uint8"},{"internalType":"uint8","name":"maxLeverage","type":"uint8"}],"internalType":"struct RiskParams","name":"risk","type":"tuple"}],"name":"initialize","outputs":[],"stateMutability":"nonpayable","type":"function"},{"inputs":[],"name":"isLong","outputs":[{"internalType":"bool","name":"","type":"bool"}],"stateMutability":"view","type":"function"},{"inputs":[],"name":"isRedeemable","outputs":[{"internalType":"bool","name":"","type":"bool"}],"stateMutability":"view","type":"function"},{"inputs":[],"name":"lastAccrual","outputs":[{"internalType":"uint256","name":"","type":"uint256"}],"stateMutability":"view","type":"function"},{"inputs":[],"name":"leverage","outputs":[{"internalType":"uint8","name":"","type":"uint8"}],"stateMutability":"view","type":"function"},{"inputs":[],"name":"liquidate","outputs":[],"stateMutability":"payable","type":"function"},{"inputs":[],"name":"liquidator","outputs":[{"internalType":"address","name":"","type":"address"}],"stateMutability":"view","type":"function"},{"inputs":[],"name":"lltvBps","outputs":[{"internalType":"uint256","name":"","type":"uint256"}],"stateMutability":"view","type":"function"},{"inputs":[],"name":"marketId","outputs":[{"internalType":"bytes32","name":"","type":"bytes32"}],"stateMutability":"view","type":"function"},{"inputs":[],"name":"maxLeverage","outputs":[{"internalType":"uint8","name":"","type":"uint8"}],"stateMutability":"view","type":"function"},{"inputs":[],"name":"maxLtv1xBps","outputs":[{"internalType":"uint16","name":"","type":"uint16"}],"stateMutability":"view","type":"function"},{"inputs":[],"name":"maxLtvAtMaxLevBps","outputs":[{"internalType":"uint16","name":"","type":"uint16"}],"stateMutability":"view","type":"function"},{"inputs":[{"internalType":"uint256","name":"rBtcAmount","type":"uint256"}],"name":"mint","outputs":[],"stateMutability":"nonpayable","type":"function"},{"inputs":[{"internalType":"uint8","name":"leverage_","type":"uint8"},{"internalType":"uint256","name":"triggerPrice8","type":"uint256"},{"internalType":"bool","name":"isLong_","type":"bool"}],"name":"openLimitPosition","outputs":[],"stateMutability":"payable","type":"function"},{"inputs":[{"internalType":"uint8","name":"leverage_","type":"uint8"},{"internalType":"bool","name":"isLong_","type":"bool"}],"name":"openPosition","outputs":[],"stateMutability":"payable","type":"function"},{"inputs":[],"name":"oracle","outputs":[{"internalType":"contract IPriceOracle","name":"","type":"address"}],"stateMutability":"view","type":"function"},{"inputs":[],"name":"owner","outputs":[{"internalType":"address","name":"","type":"address"}],"stateMutability":"view","type":"function"},{"inputs":[],"name":"pending","outputs":[{"internalType":"enum OrderKind","name":"kind","type":"uint8"},{"internalType":"bytes32","name":"orderKey","type":"bytes32"},{"internalType":"uint256","name":"createdAt","type":"uint256"}],"stateMutability":"view","type":"function"},{"inputs":[],"name":"pendingFeesUsdc","outputs":[{"internalType":"uint256","name":"","type":"uint256"}],"stateMutability":"view","type":"function"},{"inputs":[],"name":"posKey","outputs":[{"internalType":"bytes32","name":"","type":"bytes32"}],"stateMutability":"view","type":"function"},{"inputs":[],"name":"rToken","outputs":[{"internalType":"contract IRToken","name":"","type":"address"}],"stateMutability":"view","type":"function"},{"inputs":[{"internalType":"uint256","name":"rTokenAmount","type":"uint256"}],"name":"redeem","outputs":[],"stateMutability":"nonpayable","type":"function"},{"inputs":[{"internalType":"uint256","name":"rBtcAmount","type":"uint256"}],"name":"repay","outputs":[],"stateMutability":"nonpayable","type":"function"},{"inputs":[],"name":"rltBps","outputs":[{"internalType":"uint256","name":"","type":"uint256"}],"stateMutability":"view","type":"function"},{"inputs":[{"internalType":"uint256","name":"triggerPrice8","type":"uint256"}],"name":"setStopLoss","outputs":[],"stateMutability":"payable","type":"function"},{"inputs":[{"internalType":"uint256","name":"triggerPrice8","type":"uint256"}],"name":"setTakeProfit","outputs":[],"stateMutability":"payable","type":"function"},{"inputs":[],"name":"slOrderKey","outputs":[{"internalType":"bytes32","name":"","type":"bytes32"}],"stateMutability":"view","type":"function"},{"inputs":[],"name":"state","outputs":[{"internalType":"enum VaultState","name":"","type":"uint8"}],"stateMutability":"view","type":"function"},{"inputs":[],"name":"tpOrderKey","outputs":[{"internalType":"bytes32","name":"","type":"bytes32"}],"stateMutability":"view","type":"function"},{"inputs":[],"name":"usdc","outputs":[{"internalType":"contract IERC20","name":"","type":"address"}],"stateMutability":"view","type":"function"},{"inputs":[],"name":"vaultInfo","outputs":[{"components":[{"internalType":"address","name":"owner","type":"address"},{"internalType":"bytes32","name":"marketId","type":"bytes32"},{"internalType":"enum VaultState","name":"state","type":"uint8"},{"internalType":"uint8","name":"leverage","type":"uint8"},{"internalType":"bool","name":"isLong","type":"bool"},{"internalType":"bytes32","name":"posKey","type":"bytes32"},{"internalType":"uint256","name":"collateralUsdc","type":"uint256"},{"internalType":"uint256","name":"debtRToken","type":"uint256"},{"internalType":"enum OrderKind","name":"pendingKind","type":"uint8"},{"internalType":"bytes32","name":"pendingOrderKey","type":"bytes32"},{"internalType":"uint256","name":"pendingCreatedAt","type":"uint256"},{"internalType":"uint16","name":"maxLtv1xBps","type":"uint16"},{"internalType":"uint16","name":"bufferBps","type":"uint16"},{"internalType":"uint16","name":"maxLtvAtMaxLevBps","type":"uint16"},{"internalType":"uint8","name":"flatTier","type":"uint8"},{"internalType":"uint8","name":"maxLeverage","type":"uint8"},{"internalType":"uint256","name":"collateralValueUsdWad","type":"uint256"},{"internalType":"uint256","name":"debtValueUsdWad","type":"uint256"},{"internalType":"uint256","name":"currentLtvBps","type":"uint256"},{"internalType":"uint256","name":"healthFactorWad","type":"uint256"},{"internalType":"uint256","name":"lltvBps","type":"uint256"},{"internalType":"uint256","name":"rltBps","type":"uint256"},{"internalType":"uint256","name":"effectiveMaxLtvBps","type":"uint256"},{"internalType":"uint256","name":"oraclePrice8","type":"uint256"},{"internalType":"uint256","name":"pendingFeesUsdc","type":"uint256"},{"internalType":"bool","name":"isRedeemable","type":"bool"},{"internalType":"bool","name":"isLiquidatable","type":"bool"},{"internalType":"bytes32","name":"tpOrderKey","type":"bytes32"},{"internalType":"bytes32","name":"slOrderKey","type":"bytes32"},{"components":[{"internalType":"bool","name":"exists","type":"bool"},{"internalType":"uint256","name":"sizeInUsd","type":"uint256"},{"internalType":"uint256","name":"collateralAmount","type":"uint256"},{"internalType":"uint256","name":"entryPrice8","type":"uint256"}],"internalType":"struct VaultGmxPosition","name":"gmx","type":"tuple"}],"internalType":"struct VaultSnapshot","name":"s","type":"tuple"}],"stateMutability":"view","type":"function"},{"inputs":[{"internalType":"uint256","name":"usdcAmount","type":"uint256"}],"name":"withdraw","outputs":[],"stateMutability":"nonpayable","type":"function"},{"stateMutability":"payable","type":"receive"}],"evm":{"bytecode":{"linkReferences":{},"object":"60806040523480156200001157600080fd5b5060016000556200002162000027565b620000db565b7ff0c57e16840df040f15088dc2f81fe391c3923bec73e23a9662efc9c229c6a00805468010000000000000000900460ff1615620000785760405163f92ee8a960e01b815260040160405180910390fd5b80546001600160401b0390811614620000d85780546001600160401b0319166001600160401b0390811782556040519081527fc7f505b2f371ae2175ee4913f4499e1f2633a7b5936321eed1cdaeb6115181d29060200160405180910390a15b50565b61479a80620000eb6000396000f3fe60806040526004361061031e5760003560e01c80635f8867ed116101ab578063af920582116100f7578063c45a015511610095578063e20ccec31161006f578063e20ccec314610892578063e4d755c3146108c3578063e525db20146108d8578063f267378e146108eb57600080fd5b8063c45a01551461083c578063d8dfeb451461085c578063db006a751461087257600080fd5b8063b6b55f25116100d1578063b6b55f25146107cc578063c19d93fb146107ec578063c37b633714610813578063c393d0e31461083457600080fd5b8063af9205821461078c578063b3604c96146107a1578063b47b7b72146107b657600080fd5b80637dde818c11610164578063a0712d681161013e578063a0712d6814610715578063a7e566d014610735578063a83e12bd1461074b578063ae3302c21461076b57600080fd5b80637dde818c146106cf5780638b52f5b1146106e25780638da5cb5b146106f557600080fd5b80635f8867ed146106435780636ed71ede146106585780636fcd3ee71461066e5780637aa3fa62146106835780637b3baab4146106995780637dc0d1d0146106af57600080fd5b806331e67c711161026a57806340c65f7211610223578063501ec738116101fd578063501ec738146105d65780635987608c146105f85780635a88057f1461060e5780635dd92cd51461062357600080fd5b806340c65f721461058157806341fcf163146105a15780634412a6b6146105c157600080fd5b806331e67c71146104b957806332335fbd146104f157806333d40efa14610506578063371fd8e6146105215780633e413bee146105415780634046ebae1461056157600080fd5b806328a07025116102d75780632c86d98e116102b15780632c86d98e1461042f5780632e1a7d4d146104625780632e2dbd2214610482578063311918ed146104a457600080fd5b806328a07025146103ff57806328e72f97146104075780632a7584391461041c57600080fd5b8063042e1b6b1461032a5780630dca59c114610365578063202a61a1146103895780632202ce8c146103ba57806322841f01146103d1578063286112d0146103e657600080fd5b3661032557005b600080fd5b34801561033657600080fd5b5060085461034d90640100000000900461ffff1681565b60405161ffff90911681526020015b60405180910390f35b34801561037157600080fd5b5061037b600a5481565b60405190815260200161035c565b34801561039557600080fd5b506008546103aa90600160481b900460ff1681565b604051901515815260200161035c565b3480156103c657600080fd5b506103cf61090c565b005b3480156103dd57600080fd5b5061037b610a20565b3480156103f257600080fd5b5060085461ffff1661037b565b6103cf610a3f565b34801561041357600080fd5b5061037b610bf7565b6103cf61042a366004614216565b610c3d565b34801561043b57600080fd5b5060085461045090600160401b900460ff1681565b60405160ff909116815260200161035c565b34801561046e57600080fd5b506103cf61047d36600461424d565b610fb2565b34801561048e57600080fd5b50610497611183565b60405161035c9190614266565b3480156104b057600080fd5b5061037b61123b565b3480156104c557600080fd5b506003546104d9906001600160a01b031681565b6040516001600160a01b03909116815260200161035c565b3480156104fd57600080fd5b5061037b61130b565b34801561051257600080fd5b5060085461034d9061ffff1681565b34801561052d57600080fd5b506103cf61053c36600461424d565b61138e565b34801561054d57600080fd5b506005546104d9906001600160a01b031681565b34801561056d57600080fd5b506010546104d9906001600160a01b031681565b34801561058d57600080fd5b506006546104d9906001600160a01b031681565b3480156105ad57600080fd5b506103cf6105bc36600461424d565b611663565b3480156105cd57600080fd5b5061037b611810565b3480156105e257600080fd5b506105eb611860565b60405161035c91906142cd565b34801561060457600080fd5b5061037b60115481565b34801561061a57600080fd5b506103cf611cd5565b34801561062f57600080fd5b506103cf61063e36600461449e565b611dfe565b34801561064f57600080fd5b506103cf6120e3565b34801561066457600080fd5b5061037b60075481565b34801561067a57600080fd5b506103cf6121eb565b34801561068f57600080fd5b5061037b600f5481565b3480156106a557600080fd5b5061037b60125481565b3480156106bb57600080fd5b506004546104d9906001600160a01b031681565b6103cf6106dd366004614546565b6123be565b6103cf6106f036600461424d565b612719565b34801561070157600080fd5b506001546104d9906001600160a01b031681565b34801561072157600080fd5b506103cf61073036600461424d565b612948565b34801561074157600080fd5b5061037b60145481565b34801561075757600080fd5b506103cf61076636600461424d565b612c7c565b34801561077757600080fd5b5060085461045090600160381b900460ff1681565b34801561079857600080fd5b506103aa612e64565b3480156107ad57600080fd5b5061037b612ea6565b3480156107c257600080fd5b5061037b60135481565b3480156107d857600080fd5b506103cf6107e736600461424d565b612ec3565b3480156107f857600080fd5b50600b546108069060ff1681565b60405161035c9190614586565b34801561081f57600080fd5b5060085461034d9062010000900461ffff1681565b6103cf61305a565b34801561084857600080fd5b506002546104d9906001600160a01b031681565b34801561086857600080fd5b5061037b60095481565b34801561087e57600080fd5b506103cf61088d36600461424d565b61328f565b34801561089e57600080fd5b50600c54600d54600e546108b49260ff16919083565b60405161035c93929190614594565b3480156108cf57600080fd5b5061037b613578565b6103cf6108e636600461424d565b6135df565b3480156108f757600080fd5b5060085461045090600160301b900460ff1681565b6001546001600160a01b03163314610937576040516330cd747160e01b815260040160405180910390fd5b61093f61380e565b6001600b5460ff16600481111561095857610958614293565b1461097657604051634291db1560e11b815260040160405180910390fd5b6004600c5460ff16600681111561098f5761098f614293565b146109ad57604051634291db1560e11b815260040160405180910390fd5b600354600d54604051632f94cdd160e01b81526001600160a01b0390921691632f94cdd1916109e29160040190815260200190565b600060405180830381600087803b1580156109fc57600080fd5b505af1158015610a10573d6000803e3d6000fd5b50505050610a1e6001600055565b565b6000610a3a610a2d610bf7565b610a35612ea6565b613838565b905090565b610a4761380e565b6002600b5460ff166004811115610a6057610a60614293565b14610a7e57604051634291db1560e11b815260040160405180910390fd5b655af3107a4000341015610aa557604051633adc8fe760e21b815260040160405180910390fd5b6000610aaf610bf7565b9050610ac281610abd612ea6565b111590565b610adf57604051636ef5bcdd60e11b815260040160405180910390fd5b601080546001600160a01b03191633179055600354600f546040516372525e2360e01b81526000926001600160a01b0316916372525e23913491610b299160040190815260200190565b60206040518083038185885af1158015610b47573d6000803e3d6000fd5b50505050506040513d601f19601f82011682018060405250810190610b6c91906145b3565b600b8054600360ff19918216811790925560408051606081018252838152602080820186905242918301829052600c80549094168517909355600d859055600e55805184815291820192909252815192935030927f69d62ed766febd9b36f4840f1349f992e6afea42ca344e8e19106c2dffe02f47929181900390910190a25050610a1e6001600055565b6000600a54600003610c095750600090565b6000610c1361123b565b905080600003610c265760001991505090565b610c3781610c32611810565b613871565b91505090565b6001546001600160a01b03163314610c68576040516330cd747160e01b815260040160405180910390fd5b600260009054906101000a90046001600160a01b03166001600160a01b0316635c975abb6040518163ffffffff1660e01b8152600401602060405180830381865afa158015610cbb573d6000803e3d6000fd5b505050506040513d601f19601f82011682018060405250810190610cdf91906145cc565b15610cfd57604051634291db1560e11b815260040160405180910390fd5b610d0561380e565b6000600b5460ff166004811115610d1e57610d1e614293565b14610d3c57604051634291db1560e11b815260040160405180910390fd5b620f42406009541015610d62576040516304dbfe8160e21b815260040160405180910390fd5b60018260ff161080610d83575060085460ff600160381b9091048116908316115b15610da15760405163522007a560e01b815260040160405180910390fd5b655af3107a4000341015610dc857604051633adc8fe760e21b815260040160405180910390fd5b6008805461ffff60401b1916600160401b60ff85160260ff60481b191617600160481b83151502179055600354600954600554610e13926001600160a01b03918216929116906138c4565b6003546007546009546004805460408051634c6afee560e11b815290516000966001600160a01b039081169663b5b0862f963496919590949216926398d5fdca9280830192602092918290030181865afa158015610e75573d6000803e3d6000fd5b505050506040513d601f19601f82011682018060405250810190610e9991906145b3565b6040516001600160e01b031960e087901b16815260048101939093526024830191909152604482015260ff87166064820152851515608482015260a40160206040518083038185885af1158015610ef4573d6000803e3d6000fd5b50505050506040513d601f19601f82011682018060405250810190610f1991906145b3565b600b8054600160ff1991821681179092556040805160608082018352848252602080830187905242928401839052600c8054909516909517909355600d859055600e55805184815260ff8816938101939093528515159083015291925030917f4e3f6d3ee7e3781d95140a8c1bbb9e544ad186d11d46b416c5204053317e0489910160405180910390a250610fae6001600055565b5050565b6001546001600160a01b03163314610fdd576040516330cd747160e01b815260040160405180910390fd5b600260009054906101000a90046001600160a01b03166001600160a01b0316635c975abb6040518163ffffffff1660e01b8152600401602060405180830381865afa158015611030573d6000803e3d6000fd5b505050506040513d601f19601f8201168201806040525081019061105491906145cc565b1561107257604051634291db1560e11b815260040160405180910390fd5b61107a61380e565b6000600b5460ff16600481111561109357611093614293565b146110b157604051634291db1560e11b815260040160405180910390fd5b6009548111156110fc5760405162461bcd60e51b8152602060048201526011602482015270195e18d959590818dbdb1b185d195c985b607a1b60448201526064015b60405180910390fd5b806009600082825461110e9190614606565b9091555050600154600554611130916001600160a01b03918216911683613988565b60405181815230907fc30fcfbcaac9e0deffa719714eaa82396ff506a0d0d0eebe170830177288715d9060200160405180910390a261117661117182614619565b6139b9565b6111806001600055565b50565b6111b060405180608001604052806000151581526020016000815260200160008152602001600081525090565b600354600754600854604051633157d9c760e01b81523060048201526024810192909252600160481b900460ff16151560448201526001600160a01b0390911690633157d9c790606401608060405180830381865afa158015611217573d6000803e3d6000fd5b505050506040513d601f19601f82011682018060405250810190610a3a9190614635565b60006002600b5460ff16600481111561125657611256614293565b148061127857506003600b5460ff16600481111561127657611276614293565b145b80156112855750600f5415155b1561130057600354600f54604051634cb7c31960e01b81526001600160a01b0390921691634cb7c319916112bf9160040190815260200190565b602060405180830381865afa1580156112dc573d6000803e3d6000fd5b505050506040513d601f19601f82011682018060405250810190610a3a91906145b3565b610a3a600954613a23565b60115460125460009190801580159061132657506000600a54115b156113885760006113378242614606565b90506113496301e133806127106146b2565b81609661135c611357611810565b613a34565b61136691906146b2565b61137091906146b2565b61137a91906146c9565b61138490846146eb565b9250505b50919050565b6001546001600160a01b031633146113b9576040516330cd747160e01b815260040160405180910390fd5b600260009054906101000a90046001600160a01b03166001600160a01b0316635c975abb6040518163ffffffff1660e01b8152600401602060405180830381865afa15801561140c573d6000803e3d6000fd5b505050506040513d601f19601f8201168201806040525081019061143091906145cc565b1561144e57604051634291db1560e11b815260040160405180910390fd5b61145661380e565b6002600b5460ff16600481111561146f5761146f614293565b1461148d57604051634291db1560e11b815260040160405180910390fd5b6000600a54821161149e57816114a2565b600a545b9050600081116114e75760405162461bcd60e51b815260206004820152601060248201526f6e6f7468696e6720746f20726570617960801b60448201526064016110f3565b6114ef613a45565b612710601961157761135784600460009054906101000a90046001600160a01b03166001600160a01b03166398d5fdca6040518163ffffffff1660e01b8152600401602060405180830381865afa15801561154e573d6000803e3d6000fd5b505050506040513d601f19601f8201168201806040525081019061157291906145b3565b613ad3565b61158191906146b2565b61158b91906146c9565b6011600082825461159c91906146eb565b9250508190555080600a60008282546115b59190614606565b9091555050600654600154604051632770a7eb60e21b81526001600160a01b03918216600482015260248101849052911690639dc29fac90604401600060405180830381600087803b15801561160a57600080fd5b505af115801561161e573d6000803e3d6000fd5b50506040518381523092507f67e8ac554bbb94933f3083114f69364878cbb40d24a4581f68cb3da2167f492491506020015b60405180910390a2506111806001600055565b6003546001600160a01b0316331461168e576040516338a3cebb60e01b815260040160405180910390fd5b61169661380e565b600d5481146116b85760405163ee9f2d5360e01b815260040160405180910390fd5b6001600c5460ff1660068111156116d1576116d1614293565b14806116f357506004600c5460ff1660068111156116f1576116f1614293565b145b156117de576009546005546040516370a0823160e01b81523060048201526001600160a01b03909116906370a0823190602401602060405180830381865afa158015611743573d6000803e3d6000fd5b505050506040513d601f19601f8201168201806040525081019061176791906145b3565b60098190558114611783576117838160095461117191906146fe565b600b805460ff19908116909155600c805490911690556000600d819055600e5560405182815230907f1850340de0c5a0c10cc6b290a43310eb90675d58de5d2406600a177679cd8ba59060200160405180910390a250611176565b600b80546002919060ff19166001830217905550600c805460ff191690556000600d819055600e556111806001600055565b600a546004805460408051634c6afee560e11b81529051600094610a3a9490936001600160a01b0316926398d5fdca92818301926020928290030181865afa15801561154e573d6000803e3d6000fd5b611972604080516103c081018252600080825260208083018290528284018290526060808401839052608080850184905260a0850184905260c0850184905260e08501849052610100850184905261012085018490526101408501849052610160850184905261018085018490526101a085018490526101c085018490526101e08501849052610200850184905261022085018490526102408501849052610260850184905261028085018490526102a085018490526102c085018490526102e08501849052610300850184905261032085018490526103408501849052610360850184905261038085018490528551908101865283815291820183905293810182905292830152906103a082015290565b600061197c612ea6565b9050600061198d60085461ffff1690565b9050600061199961123b565b905060006119a5611810565b905060006119b38383613b27565b600354600754600854604051633157d9c760e01b81523060048201526024810192909252600160481b900460ff16151560448201529192506000916001600160a01b0390911690633157d9c790606401608060405180830381865afa158015611a20573d6000803e3d6000fd5b505050506040513d601f19601f82011682018060405250810190611a449190614635565b6001546001600160a01b031688526007546020890152600b54909150604088019060ff166004811115611a7957611a79614293565b90816004811115611a8c57611a8c614293565b90525060085460ff600160401b8204811660608a0152600160481b909104811615156080890152600f5460a089015260095460c0890152600a5460e0890152600c54610100890191166006811115611ae657611ae6614293565b90816006811115611af957611af9614293565b905250600d54610120880152600e5461014088015260085461ffff8082166101608a015262010000820481166101808a01526401000000008204166101a089015260ff600160301b820481166101c08a0152600160381b909104166101e0880152610200870184905261022087018390526102408701829052611b7c8287613838565b61026088015261028087018690526102a08701859052611b9a613578565b6102c08801526004805460408051634c6afee560e11b815290516001600160a01b03909216926398d5fdca9282820192602092908290030181865afa158015611be7573d6000803e3d6000fd5b505050506040513d601f19601f82011682018060405250810190611c0b91906145b3565b6102e0880152611c1961130b565b6103008801526002600b5460ff166004811115611c3857611c38614293565b148015611c4b5750611c4b828688613b56565b15156103208801526002600b5460ff166004811115611c6c57611c6c614293565b148015611c795750818611155b151561034088015260135461036088015260145461038088015260408051608081018252825115158152602080840151908201528282015191810191909152606091820151918101919091526103a08701525093949350505050565b6001546001600160a01b03163314611d00576040516330cd747160e01b815260040160405180910390fd5b611d0861380e565b60145480611d4d5760405162461bcd60e51b81526020600482015260126024820152712b30bab63a1d1037379029a61037b93232b960711b60448201526064016110f3565b6000601455600354604051632f94cdd160e01b8152600481018390526001600160a01b0390911690632f94cdd190602401600060405180830381600087803b158015611d9857600080fd5b505af1158015611dac573d6000803e3d6000fd5b503092507f7c008348cbdbebadba2266268371c327483e2efab9563ede3fedbb9a45c7c5a8915083905060065b6040805192835260ff90911660208301520160405180910390a250610a1e6001600055565b6000611e08613b6f565b805490915060ff600160401b820416159067ffffffffffffffff16600081158015611e305750825b905060008267ffffffffffffffff166001148015611e4d5750303b155b905081158015611e5b575080155b15611e795760405163f92ee8a960e01b815260040160405180910390fd5b845467ffffffffffffffff191660011785558315611ea357845460ff60401b1916600160401b1785555b8c600160006101000a8154816001600160a01b0302191690836001600160a01b031602179055508b600260006101000a8154816001600160a01b0302191690836001600160a01b031602179055508a600360006101000a8154816001600160a01b0302191690836001600160a01b0316021790555089600460006101000a8154816001600160a01b0302191690836001600160a01b0316021790555088600560006101000a8154816001600160a01b0302191690836001600160a01b0316021790555087600660006101000a8154816001600160a01b0302191690836001600160a01b0316021790555086600781905550856000016020810190611fa79190614725565b6008805461ffff191661ffff92909216919091179055611fcd6040870160208801614725565b6008805461ffff92909216620100000263ffff000019909216919091179055611ffc6060870160408801614725565b6008805461ffff929092166401000000000265ffff000000001990921691909117905561202f6080870160608801614749565b6008805460ff92909216600160301b0266ff0000000000001990921691909117905561206160a0870160808801614749565b6008805460ff92909216600160381b0267ff0000000000000019909216919091179055600b805460ff1916905583156120d457845460ff60401b19168555604051600181527fc7f505b2f371ae2175ee4913f4499e1f2633a7b5936321eed1cdaeb6115181d29060200160405180910390a15b50505050505050505050505050565b6001546001600160a01b0316331461210e576040516330cd747160e01b815260040160405180910390fd5b61211661380e565b6013548061215b5760405162461bcd60e51b81526020600482015260126024820152712b30bab63a1d103737902a281037b93232b960711b60448201526064016110f3565b6000601355600354604051632f94cdd160e01b8152600481018390526001600160a01b0390911690632f94cdd190602401600060405180830381600087803b1580156121a657600080fd5b505af11580156121ba573d6000803e3d6000fd5b503092507f7c008348cbdbebadba2266268371c327483e2efab9563ede3fedbb9a45c7c5a891508390506005611dd9565b600b5460ff16600381600481111561220557612205614293565b141580156122255750600181600481111561222257612222614293565b14155b1561224357604051634291db1560e11b815260040160405180910390fd5b6004600c5460ff16600681111561225c5761225c614293565b0361227a57604051634291db1560e11b815260040160405180910390fd5b600e5461228a9061012c906146eb565b42116122a95760405163828630fb60e01b815260040160405180910390fd5b600d8054600c805460ff19169055600091829055600e9190915560038260048111156122d7576122d7614293565b036122ee57600b805460ff19166002179055612385565b6009546005546040516370a0823160e01b81523060048201526001600160a01b03909116906370a0823190602401602060405180830381865afa158015612339573d6000803e3d6000fd5b505050506040513d601f19601f8201168201806040525081019061235d91906145b3565b60098190558114612379576123798160095461117191906146fe565b50600b805460ff191690555b60405181815230907fac6f236ab4d2206e338939c4173730e691402945cfb6a6c5584fecfb5eba4dfe9060200160405180910390a25050565b6001546001600160a01b031633146123e9576040516330cd747160e01b815260040160405180910390fd5b600260009054906101000a90046001600160a01b03166001600160a01b0316635c975abb6040518163ffffffff1660e01b8152600401602060405180830381865afa15801561243c573d6000803e3d6000fd5b505050506040513d601f19601f8201168201806040525081019061246091906145cc565b1561247e57604051634291db1560e11b815260040160405180910390fd5b61248661380e565b6000600b5460ff16600481111561249f5761249f614293565b146124bd57604051634291db1560e11b815260040160405180910390fd5b620f424060095410156124e3576040516304dbfe8160e21b815260040160405180910390fd5b60018360ff161080612504575060085460ff600160381b9091048116908416115b156125225760405163522007a560e01b815260040160405180910390fd5b655af3107a400034101561254957604051633adc8fe760e21b815260040160405180910390fd5b600082116125995760405162461bcd60e51b815260206004820152601760248201527f5661756c743a207a65726f206c696d697420707269636500000000000000000060448201526064016110f3565b6008805461ffff60401b1916600160401b60ff86160260ff60481b191617600160481b831515021790556003546009546005546125e4926001600160a01b03918216929116906138c4565b600354600754600954604051630104aa8160e31b8152600481019290925260248201526044810184905260ff8516606482015282151560848201526000916001600160a01b031690630825540890349060a40160206040518083038185885af1158015612655573d6000803e3d6000fd5b50505050506040513d601f19601f8201168201806040525081019061267a91906145b3565b600b8054600160ff199182161790915560408051606080820183526004808352602080840187905242938501849052600c8054909616909117909455600d859055600e91909155815184815260ff89169381019390935285151583830152905192935030927f4e3f6d3ee7e3781d95140a8c1bbb9e544ad186d11d46b416c5204053317e04899281900390910190a2506127146001600055565b505050565b6001546001600160a01b03163314612744576040516330cd747160e01b815260040160405180910390fd5b600260009054906101000a90046001600160a01b03166001600160a01b0316635c975abb6040518163ffffffff1660e01b8152600401602060405180830381865afa158015612797573d6000803e3d6000fd5b505050506040513d601f19601f820116820180604052508101906127bb91906145cc565b156127d957604051634291db1560e11b815260040160405180910390fd5b6127e161380e565b6002600b5460ff1660048111156127fa576127fa614293565b1461281857604051634291db1560e11b815260040160405180910390fd5b655af3107a400034101561283f57604051633adc8fe760e21b815260040160405180910390fd5b600081116128865760405162461bcd60e51b81526020600482015260146024820152735661756c743a207a65726f20545020707269636560601b60448201526064016110f3565b600354600f54604051633483bdd960e11b81526000926001600160a01b0316916369077bb29134916128c5918790600401918252602082015260400190565b60206040518083038185885af11580156128e3573d6000803e3d6000fd5b50505050506040513d601f19601f8201168201806040525081019061290891906145b3565b6013819055604080518281526020810185905291925030917f44e28821089a6b1156324cbdba5ba5c2a16b5b2058557faa01c40bf3138bab259101611650565b6001546001600160a01b03163314612973576040516330cd747160e01b815260040160405180910390fd5b600260009054906101000a90046001600160a01b03166001600160a01b0316635c975abb6040518163ffffffff1660e01b8152600401602060405180830381865afa1580156129c6573d6000803e3d6000fd5b505050506040513d601f19601f820116820180604052508101906129ea91906145cc565b15612a0857604051634291db1560e11b815260040160405180910390fd5b612a1061380e565b6002600b5460ff166004811115612a2957612a29614293565b14612a4757604051634291db1560e11b815260040160405180910390fd5b60008111612a835760405162461bcd60e51b81526020600482015260096024820152681e995c9bc81b5a5b9d60ba1b60448201526064016110f3565b612a8b613a45565b6000612a95613578565b905080600003612ab857604051635296a20960e11b815260040160405180910390fd5b600082600a54612ac891906146eb565b90506000612b21612ad761123b565b6004805460408051634c6afee560e11b81529051610c329388936001600160a01b0316926398d5fdca92818301926020928290030181865afa15801561154e573d6000803e3d6000fd5b905080831015612b4457604051635296a20960e11b815260040160405180910390fd5b6127106019612ba361135787600460009054906101000a90046001600160a01b03166001600160a01b03166398d5fdca6040518163ffffffff1660e01b8152600401602060405180830381865afa15801561154e573d6000803e3d6000fd5b612bad91906146b2565b612bb791906146c9565b60116000828254612bc891906146eb565b9091555050600a8290556006546001546040516340c10f1960e01b81526001600160a01b039182166004820152602481018790529116906340c10f1990604401600060405180830381600087803b158015612c2257600080fd5b505af1158015612c36573d6000803e3d6000fd5b50506040518681523092507ffc9c378c70d6c7d7ecb2262305dfc360e194e5027fd30900fedab89bce176c24915060200160405180910390a25050506111806001600055565b6003546001600160a01b03163314612ca7576040516338a3cebb60e01b815260040160405180910390fd5b612caf61380e565b601354811480612cc0575060145481145b15612cdc5760006013819055601455612cd7613b98565b611176565b600d548114612cfe5760405163ee9f2d5360e01b815260040160405180910390fd5b600c5460ff166001816006811115612d1857612d18614293565b1480612d3557506004816006811115612d3357612d33614293565b145b15612e2b5760035460075460085460405163066bf5a960e01b81523060048201526024810192909252600160481b900460ff16151560448201526001600160a01b039091169063066bf5a990606401602060405180830381865afa158015612da1573d6000803e3d6000fd5b505050506040513d601f19601f82011682018060405250810190612dc591906145b3565b600f819055600b805460ff1990811660021790915542601255600c805490911690556000600d819055600e5560405190815230907f4ee2f23ba3377a15e2c44fc57723f174419c592d3d78fe5942f2befc5cdb11d69060200160405180910390a2612e59565b6002816006811115612e3f57612e3f614293565b03612e5157612e4c613b98565b612e59565b612e59613d34565b506111806001600055565b60006002600b5460ff166004811115612e7f57612e7f614293565b148015610a3a5750610a3a612e92610bf7565b60085461ffff16612ea1612ea6565b613b56565b600854600090610a3a9061ffff8082169162010000900416613ff1565b6001546001600160a01b03163314612eee576040516330cd747160e01b815260040160405180910390fd5b600260009054906101000a90046001600160a01b03166001600160a01b0316635c975abb6040518163ffffffff1660e01b8152600401602060405180830381865afa158015612f41573d6000803e3d6000fd5b505050506040513d601f19601f82011682018060405250810190612f6591906145cc565b15612f8357604051634291db1560e11b815260040160405180910390fd5b612f8b61380e565b6000600b5460ff166004811115612fa457612fa4614293565b14158015612fc957506002600b5460ff166004811115612fc657612fc6614293565b14155b15612fe757604051634291db1560e11b815260040160405180910390fd5b600154600554613005916001600160a01b0391821691163084613ffd565b806009600082825461301791906146eb565b909155505060405181815230907fd7243f6f8212d5188fd054141cf6ea89cfc0d91facb8c3afe2f88a13584801429060200160405180910390a2611176816139b9565b6001546001600160a01b03163314613085576040516330cd747160e01b815260040160405180910390fd5b600260009054906101000a90046001600160a01b03166001600160a01b0316635c975abb6040518163ffffffff1660e01b8152600401602060405180830381865afa1580156130d8573d6000803e3d6000fd5b505050506040513d601f19601f820116820180604052508101906130fc91906145cc565b1561311a57604051634291db1560e11b815260040160405180910390fd5b61312261380e565b6002600b5460ff16600481111561313b5761313b614293565b1461315957604051634291db1560e11b815260040160405180910390fd5b600a541561317a57604051631d2197fd60e31b815260040160405180910390fd5b655af3107a40003410156131a157604051633adc8fe760e21b815260040160405180910390fd5b600354600f546040516372525e2360e01b81526000926001600160a01b0316916372525e239134916131d99160040190815260200190565b60206040518083038185885af11580156131f7573d6000803e3d6000fd5b50505050506040513d601f19601f8201168201806040525081019061321c91906145b3565b600b8054600360ff1991821617909155604080516060810182526002808252602082018590524291909201819052600c80549093168217909255600d839055600e9190915590915030907f69d62ed766febd9b36f4840f1349f992e6afea42ca344e8e19106c2dffe02f47908390611dd9565b61329761380e565b6002600b5460ff1660048111156132b0576132b0614293565b146132ce57604051634291db1560e11b815260040160405180910390fd5b6132d9612e92610bf7565b6132f657604051630190a03160e71b815260040160405180910390fd5b6000600a548211613307578161330b565b600a545b90506000811161334b5760405162461bcd60e51b815260206004820152600b60248201526a7a65726f2072656465656d60a81b60448201526064016110f3565b613353613a45565b60006133af61135783600460009054906101000a90046001600160a01b03166001600160a01b03166398d5fdca6040518163ffffffff1660e01b8152600401602060405180830381865afa15801561154e573d6000803e3d6000fd5b600354600f546040516376197ba360e01b81529293506000926001600160a01b03909216916376197ba3916133f1918690600401918252602082015260400190565b6020604051808303816000875af1158015613410573d6000803e3d6000fd5b505050506040513d601f19601f8201168201806040525081019061343491906145b3565b905082600a60008282546134489190614606565b9091555050600654604051632770a7eb60e21b8152336004820152602481018590526001600160a01b0390911690639dc29fac90604401600060405180830381600087803b15801561349957600080fd5b505af11580156134ad573d6000803e3d6000fd5b5050505060006127106019836134c391906146b2565b6134cd91906146c9565b905080156134f2576002546005546134f2916001600160a01b03918216911683613988565b60006134fe8284614606565b111561352557613525336135128385614606565b6005546001600160a01b03169190613988565b6040805185815260208101849052908101829052339030907f764aeeb2d1ec3f2945d6486e2f7e3fae9ac5fe11aa56b7a9d90c92212e33050c9060600160405180910390a3505050506111806001600055565b6008546000908190600160401b900460ff16156135a157600854600160401b900460ff166135a4565b60015b600854909150610c379061ffff8082169164010000000081049091169060ff80861691600160301b8104821691600160381b90910416614036565b6001546001600160a01b0316331461360a576040516330cd747160e01b815260040160405180910390fd5b600260009054906101000a90046001600160a01b03166001600160a01b0316635c975abb6040518163ffffffff1660e01b8152600401602060405180830381865afa15801561365d573d6000803e3d6000fd5b505050506040513d601f19601f8201168201806040525081019061368191906145cc565b1561369f57604051634291db1560e11b815260040160405180910390fd5b6136a761380e565b6002600b5460ff1660048111156136c0576136c0614293565b146136de57604051634291db1560e11b815260040160405180910390fd5b655af3107a400034101561370557604051633adc8fe760e21b815260040160405180910390fd5b6000811161374c5760405162461bcd60e51b81526020600482015260146024820152735661756c743a207a65726f20534c20707269636560601b60448201526064016110f3565b600354600f54604051638c509fd560e01b81526000926001600160a01b031691638c509fd591349161378b918790600401918252602082015260400190565b60206040518083038185885af11580156137a9573d6000803e3d6000fd5b50505050506040513d601f19601f820116820180604052508101906137ce91906145b3565b6014819055604080518281526020810185905291925030917f8dfb2ec37ad94738fb02b6b3a967be4f3dd85e28a4d6a181ea63c262d5ff0f279101611650565b60026000540361383157604051633ee5aeb560e01b815260040160405180910390fd5b6002600055565b60008260000361384b575060001961386b565b8261385e83670de0b6b3a76400006146b2565b61386891906146c9565b90505b92915050565b60008083116138b75760405162461bcd60e51b81526020600482015260126024820152711315158e881b9bc818dbdb1b185d195c985b60721b60448201526064016110f3565b8261385e612710846146b2565b604080516001600160a01b038416602482015260448082018490528251808303909101815260649091019091526020810180516001600160e01b031663095ea7b360e01b1790526139158482614132565b613982576040516001600160a01b0384811660248301526000604483015261397891869182169063095ea7b3906064015b604051602081830303815290604052915060e01b6020820180516001600160e01b038381831617835250505050614181565b6139828482614181565b50505050565b6040516001600160a01b0383811660248301526044820183905261271491859182169063a9059cbb90606401613946565b806000036139c45750565b600254604051634531c4c360e01b8152600481018390526001600160a01b0390911690634531c4c390602401600060405180830381600087803b158015613a0a57600080fd5b505af1925050508015613a1b575060015b156111805750565b600061386b64e8d4a51000836146b2565b600061386b64e8d4a51000836146c9565b6012548015613acc576000613a5a8242614606565b9050600081118015613a6e57506000600a54115b15613aca576000613a80611357611810565b9050613a926301e133806127106146b2565b82613a9e6096846146b2565b613aa891906146b2565b613ab291906146c9565b60116000828254613ac391906146eb565b9091555050505b505b5042601255565b6000808211613b185760405162461bcd60e51b8152602060048201526011602482015270556e6974733a207a65726f20707269636560781b60448201526064016110f3565b6305f5e10061385e83856146b2565b6000600a54600003613b3b5750600061386b565b82600003613b4c575060001961386b565b6138688383613871565b6000828410158015613b6757508184105b949350505050565b6000807ff0c57e16840df040f15088dc2f81fe391c3923bec73e23a9662efc9c229c6a0061386b565b613ba0613a45565b6005546040516370a0823160e01b81523060048201526000916001600160a01b0316906370a0823190602401602060405180830381865afa158015613be9573d6000803e3d6000fd5b505050506040513d601f19601f82011682018060405250810190613c0d91906145b3565b905060008160115411613c2257601154613c24565b815b90506000613c328284614606565b600980546000909155909150613c4a61117182614619565b6000600f819055601181905560138190556014819055600b805460ff19908116909155600c80549091169055600d819055600e558215613ca157600254600554613ca1916001600160a01b03918216911685613988565b8115613cc457600154600554613cc4916001600160a01b03918216911684613988565b60405183815230907fc74ee869a332e69e1b78099f39b1928de8163d21074ad8beb98aff670953103a9060200160405180910390a260405182815230907f62e59356f995b616eafcc3bd0402c7c6f7c820e205c92ea61436902e30b4dc2e9060200160405180910390a250505050565b613d3c613a45565b6005546040516370a0823160e01b81523060048201526000916001600160a01b0316906370a0823190602401602060405180830381865afa158015613d85573d6000803e3d6000fd5b505050506040513d601f19601f82011682018060405250810190613da991906145b3565b90506000613db8611357611810565b9050600081831015613dca5782613dcc565b815b90506000613dda8285614606565b905060008160115411613def57601154613df1565b815b90506000613dff8284614606565b90506000612710613e126103e8846146b2565b613e1c91906146c9565b90506000613e2a8284614606565b600154601054600980546000600a8190559091559293506001600160a01b0391821692911690613e5c61117182614619565b6000600f819055601181905560138190556014819055600b805460ff19908116909155600c80549091169055600d819055600e819055612710613ea1611770886146b2565b613eab91906146c9565b90506000613eb98288614606565b613ec38a8d6146eb565b613ecd91906146eb565b90508115613eec57600554613eec906001600160a01b03168584613988565b8015613f0f57600254600554613f0f916001600160a01b03918216911683613988565b50508315613f2e57600554613f2e906001600160a01b03168486613988565b60405187815230907fc74ee869a332e69e1b78099f39b1928de8163d21074ad8beb98aff670953103a9060200160405180910390a2604080518a81526020810186905230917f09c223cfcd8c93e245f558f5f8de755fc0930fd9bc257441155ef5d54a170e0f910160405180910390a2888a1115613fe457307f0290a68573f1e73f494dc2634f4d9426af9210f8eef772f3530ad921612cdc7d613fd28b8d614606565b60405190815260200160405180910390a25b5050505050505050505050565b600061386882846146eb565b6040516001600160a01b0384811660248301528381166044830152606482018390526139829186918216906323b872dd90608401613946565b6000600184101580156140495750818411155b6140895760405162461bcd60e51b81526020600482015260116024820152704c54563a20626164206c6576657261676560781b60448201526064016110f3565b848610156140ca5760405162461bcd60e51b815260206004820152600e60248201526d4c54563a2062616420637572766560901b60448201526064016110f3565b82841115806140d95750828211155b156140e5575084614129565b60006140f18484614606565b6140fb8587614606565b614105888a614606565b61410f91906146b2565b61411991906146c9565b90506141258188614606565b9150505b95945050505050565b6000806000806020600086516020880160008a5af192503d91506000519050828015614177575081156141685780600114614177565b6000866001600160a01b03163b115b9695505050505050565b600080602060008451602086016000885af1806141a4576040513d6000823e3d81fd5b50506000513d915081156141bc5780600114156141c9565b6001600160a01b0384163b155b1561398257604051635274afe760e01b81526001600160a01b03851660048201526024016110f3565b803560ff8116811461420357600080fd5b919050565b801515811461118057600080fd5b6000806040838503121561422957600080fd5b614232836141f2565b9150602083013561424281614208565b809150509250929050565b60006020828403121561425f57600080fd5b5035919050565b8151151581526020808301519082015260408083015190820152606080830151908201526080810161386b565b634e487b7160e01b600052602160045260246000fd5b600581106142b9576142b9614293565b9052565b600781106142b9576142b9614293565b81516001600160a01b0316815261042081016020830151602083015260408301516142fb60408401826142a9565b506060830151614310606084018260ff169052565b506080830151614324608084018215159052565b5060a083015160a083015260c083015160c083015260e083015160e083015261010080840151614356828501826142bd565b5050610120838101519083015261014080840151908301526101608084015161ffff90811691840191909152610180808501518216908401526101a080850151909116908301526101c08084015160ff908116918401919091526101e08085015190911690830152610200808401519083015261022080840151908301526102408084015190830152610260808401519083015261028080840151908301526102a080840151908301526102c080840151908301526102e0808401519083015261030080840151908301526103208084015115159083015261034080840151151590830152610360808401519083015261038080840151908301526103a092830151805115159383019390935260208301516103c083015260408301516103e08301526060909201516104009091015290565b6001600160a01b038116811461118057600080fd5b600080600080600080600080888a036101808112156144bc57600080fd5b89356144c781614489565b985060208a01356144d781614489565b975060408a01356144e781614489565b965060608a01356144f781614489565b955060808a013561450781614489565b945060a08a013561451781614489565b935060c08a0135925060a060df198201121561453257600080fd5b5060e0890190509295985092959890939650565b60008060006060848603121561455b57600080fd5b614564846141f2565b925060208401359150604084013561457b81614208565b809150509250925092565b6020810161386b82846142a9565b606081016145a282866142bd565b602082019390935260400152919050565b6000602082840312156145c557600080fd5b5051919050565b6000602082840312156145de57600080fd5b81516145e981614208565b9392505050565b634e487b7160e01b600052601160045260246000fd5b8181038181111561386b5761386b6145f0565b6000600160ff1b820161462e5761462e6145f0565b5060000390565b60006080828403121561464757600080fd5b6040516080810181811067ffffffffffffffff8211171561467857634e487b7160e01b600052604160045260246000fd5b604052825161468681614208565b808252506020830151602082015260408301516040820152606083015160608201528091505092915050565b808202811582820484141761386b5761386b6145f0565b6000826146e657634e487b7160e01b600052601260045260246000fd5b500490565b8082018082111561386b5761386b6145f0565b818103600083128015838313168383128216171561471e5761471e6145f0565b5092915050565b60006020828403121561473757600080fd5b813561ffff811681146145e957600080fd5b60006020828403121561475b57600080fd5b613868826141f256fea2646970667358221220b7375b1652a6f131a156116b0815f223d18a8be9256fd061367203381bceee9464736f6c63430008180033","opcodes":"PUSH1 0x80 PUSH1 0x40 MSTORE CALLVALUE DUP1 ISZERO PUSH3 0x11 JUMPI PUSH1 0x0 DUP1 REVERT JUMPDEST POP PUSH1 0x1 PUSH1 0x0 SSTORE PUSH3 0x21 PUSH3 0x27 JUMP JUMPDEST PUSH3 0xDB JUMP JUMPDEST PUSH32 0xF0C57E16840DF040F15088DC2F81FE391C3923BEC73E23A9662EFC9C229C6A00 DUP1 SLOAD PUSH9 0x10000000000000000 SWAP1 DIV PUSH1 0xFF AND ISZERO PUSH3 0x78 JUMPI PUSH1 0x40 MLOAD PUSH4 0xF92EE8A9 PUSH1 0xE0 SHL DUP2 MSTORE PUSH1 0x4 ADD PUSH1 0x40 MLOAD DUP1 SWAP2 SUB SWAP1 REVERT JUMPDEST DUP1 SLOAD PUSH1 0x1 PUSH1 0x1 PUSH1 0x40 SHL SUB SWAP1 DUP2 AND EQ PUSH3 0xD8 JUMPI DUP1 SLOAD PUSH1 0x1 PUSH1 0x1 PUSH1 0x40 SHL SUB NOT AND PUSH1 0x1 PUSH1 0x1 PUSH1 0x40 SHL SUB SWAP1 DUP2 OR DUP3 SSTORE PUSH1 0x40 MLOAD SWAP1 DUP2 MSTORE PUSH32 0xC7F505B2F371AE2175EE4913F4499E1F2633A7B5936321EED1CDAEB6115181D2 SWAP1 PUSH1 0x20 ADD PUSH1 0x40 MLOAD DUP1 SWAP2 SUB SWAP1 LOG1 JUMPDEST POP JUMP JUMPDEST PUSH2 0x479A DUP1 PUSH3 0xEB PUSH1 0x0 CODECOPY PUSH1 0x0 RETURN INVALID PUSH1 0x80 PUSH1 0x40 MSTORE PUSH1 0x4 CALLDATASIZE LT PUSH2 0x31E JUMPI PUSH1 0x0 CALLDATALOAD PUSH1 0xE0 SHR DUP1 PUSH4 0x5F8867ED GT PUSH2 0x1AB JUMPI DUP1 PUSH4 0xAF920582 GT PUSH2 0xF7 JUMPI DUP1 PUSH4 0xC45A0155 GT PUSH2 0x95 JUMPI DUP1 PUSH4 0xE20CCEC3 GT PUSH2 0x6F JUMPI DUP1 PUSH4 0xE20CCEC3 EQ PUSH2 0x892 JUMPI DUP1 PUSH4 0xE4D755C3 EQ PUSH2 0x8C3 JUMPI DUP1 PUSH4 0xE525DB20 EQ PUSH2 0x8D8 JUMPI DUP1 PUSH4 0xF267378E EQ PUSH2 0x8EB JUMPI PUSH1 0x0 DUP1 REVERT JUMPDEST DUP1 PUSH4 0xC45A0155 EQ PUSH2 0x83C JUMPI DUP1 PUSH4 0xD8DFEB45 EQ PUSH2 0x85C JUMPI DUP1 PUSH4 0xDB006A75 EQ PUSH2 0x872 JUMPI PUSH1 0x0 DUP1 REVERT JUMPDEST DUP1 PUSH4 0xB6B55F25 GT PUSH2 0xD1 JUMPI DUP1 PUSH4 0xB6B55F25 EQ PUSH2 0x7CC JUMPI DUP1 PUSH4 0xC19D93FB EQ PUSH2 0x7EC JUMPI DUP1 PUSH4 0xC37B6337 EQ PUSH2 0x813 JUMPI DUP1 PUSH4 0xC393D0E3 EQ PUSH2 0x834 JUMPI PUSH1 0x0 DUP1 REVERT JUMPDEST DUP1 PUSH4 0xAF920582 EQ PUSH2 0x78C JUMPI DUP1 PUSH4 0xB3604C96 EQ PUSH2 0x7A1 JUMPI DUP1 PUSH4 0xB47B7B72 EQ PUSH2 0x7B6 JUMPI PUSH1 0x0 DUP1 REVERT JUMPDEST DUP1 PUSH4 0x7DDE818C GT PUSH2 0x164 JUMPI DUP1 PUSH4 0xA0712D68 GT PUSH2 0x13E JUMPI DUP1 PUSH4 0xA0712D68 EQ PUSH2 0x715 JUMPI DUP1 PUSH4 0xA7E566D0 EQ PUSH2 0x735 JUMPI DUP1 PUSH4 0xA83E12BD EQ PUSH2 0x74B JUMPI DUP1 PUSH4 0xAE3302C2 EQ PUSH2 0x76B JUMPI PUSH1 0x0 DUP1 REVERT JUMPDEST DUP1 PUSH4 0x7DDE818C EQ PUSH2 0x6CF JUMPI DUP1 PUSH4 0x8B52F5B1 EQ PUSH2 0x6E2 JUMPI DUP1 PUSH4 0x8DA5CB5B EQ PUSH2 0x6F5 JUMPI PUSH1 0x0 DUP1 REVERT JUMPDEST DUP1 PUSH4 0x5F8867ED EQ PUSH2 0x643 JUMPI DUP1 PUSH4 0x6ED71EDE EQ PUSH2 0x658 JUMPI DUP1 PUSH4 0x6FCD3EE7 EQ PUSH2 0x66E JUMPI DUP1 PUSH4 0x7AA3FA62 EQ PUSH2 0x683 JUMPI DUP1 PUSH4 0x7B3BAAB4 EQ PUSH2 0x699 JUMPI DUP1 PUSH4 0x7DC0D1D0 EQ PUSH2 0x6AF JUMPI PUSH1 0x0 DUP1 REVERT JUMPDEST DUP1 PUSH4 0x31E67C71 GT PUSH2 0x26A JUMPI DUP1 PUSH4 0x40C65F72 GT PUSH2 0x223 JUMPI DUP1 PUSH4 0x501EC738 GT PUSH2 0x1FD JUMPI DUP1 PUSH4 0x501EC738 EQ PUSH2 0x5D6 JUMPI DUP1 PUSH4 0x5987608C EQ PUSH2 0x5F8 JUMPI DUP1 PUSH4 0x5A88057F EQ PUSH2 0x60E JUMPI DUP1 PUSH4 0x5DD92CD5 EQ PUSH2 0x623 JUMPI PUSH1 0x0 DUP1 REVERT JUMPDEST DUP1 PUSH4 0x40C65F72 EQ PUSH2 0x581 JUMPI DUP1 PUSH4 0x41FCF163 EQ PUSH2 0x5A1 JUMPI DUP1 PUSH4 0x4412A6B6 EQ PUSH2 0x5C1 JUMPI PUSH1 0x0 DUP1 REVERT JUMPDEST DUP1 PUSH4 0x31E67C71 EQ PUSH2 0x4B9 JUMPI DUP1 PUSH4 0x32335FBD EQ PUSH2 0x4F1 JUMPI DUP1 PUSH4 0x33D40EFA EQ PUSH2 0x506 JUMPI DUP1 PUSH4 0x371FD8E6 EQ PUSH2 0x521 JUMPI DUP1 PUSH4 0x3E413BEE EQ PUSH2 0x541 JUMPI DUP1 PUSH4 0x4046EBAE EQ PUSH2 0x561 JUMPI PUSH1 0x0 DUP1 REVERT JUMPDEST DUP1 PUSH4 0x28A07025 GT PUSH2 0x2D7 JUMPI DUP1 PUSH4 0x2C86D98E GT PUSH2 0x2B1 JUMPI DUP1 PUSH4 0x2C86D98E EQ PUSH2 0x42F JUMPI DUP1 PUSH4 0x2E1A7D4D EQ PUSH2 0x462 JUMPI DUP1 PUSH4 0x2E2DBD22 EQ PUSH2 0x482 JUMPI DUP1 PUSH4 0x311918ED EQ PUSH2 0x4A4 JUMPI PUSH1 0x0 DUP1 REVERT JUMPDEST DUP1 PUSH4 0x28A07025 EQ PUSH2 0x3FF JUMPI DUP1 PUSH4 0x28E72F97 EQ PUSH2 0x407 JUMPI DUP1 PUSH4 0x2A758439 EQ PUSH2 0x41C JUMPI PUSH1 0x0 DUP1 REVERT JUMPDEST DUP1 PUSH4 0x42E1B6B EQ PUSH2 0x32A JUMPI DUP1 PUSH4 0xDCA59C1 EQ PUSH2 0x365 JUMPI DUP1 PUSH4 0x202A61A1 EQ PUSH2 0x389 JUMPI DUP1 PUSH4 0x2202CE8C EQ PUSH2 0x3BA JUMPI DUP1 PUSH4 0x22841F01 EQ PUSH2 0x3D1 JUMPI DUP1 PUSH4 0x286112D0 EQ PUSH2 0x3E6 JUMPI PUSH1 0x0 DUP1 REVERT JUMPDEST CALLDATASIZE PUSH2 0x325 JUMPI STOP JUMPDEST PUSH1 0x0 DUP1 REVERT JUMPDEST CALLVALUE DUP1 ISZERO PUSH2 0x336 JUMPI PUSH1 0x0 DUP1 REVERT JUMPDEST POP PUSH1 0x8 SLOAD PUSH2 0x34D SWAP1 PUSH5 0x100000000 SWAP1 DIV PUSH2 0xFFFF AND DUP2 JUMP JUMPDEST PUSH1 0x40 MLOAD PUSH2 0xFFFF SWAP1 SWAP2 AND DUP2 MSTORE PUSH1 0x20 ADD JUMPDEST PUSH1 0x40 MLOAD DUP1 SWAP2 SUB SWAP1 RETURN JUMPDEST CALLVALUE DUP1 ISZERO PUSH2 0x371 JUMPI PUSH1 0x0 DUP1 REVERT JUMPDEST POP PUSH2 0x37B PUSH1 0xA SLOAD DUP2 JUMP JUMPDEST PUSH1 0x40 MLOAD SWAP1 DUP2 MSTORE PUSH1 0x20 ADD PUSH2 0x35C JUMP JUMPDEST CALLVALUE DUP1 ISZERO PUSH2 0x395 JUMPI PUSH1 0x0 DUP1 REVERT JUMPDEST POP PUSH1 0x8 SLOAD PUSH2 0x3AA SWAP1 PUSH1 0x1 PUSH1 0x48 SHL SWAP1 DIV PUSH1 0xFF AND DUP2 JUMP JUMPDEST PUSH1 0x40 MLOAD SWAP1 ISZERO ISZERO DUP2 MSTORE PUSH1 0x20 ADD PUSH2 0x35C JUMP JUMPDEST CALLVALUE DUP1 ISZERO PUSH2 0x3C6 JUMPI PUSH1 0x0 DUP1 REVERT JUMPDEST POP PUSH2 0x3CF PUSH2 0x90C JUMP JUMPDEST STOP JUMPDEST CALLVALUE DUP1 ISZERO PUSH2 0x3DD JUMPI PUSH1 0x0 DUP1 REVERT JUMPDEST POP PUSH2 0x37B PUSH2 0xA20 JUMP JUMPDEST CALLVALUE DUP1 ISZERO PUSH2 0x3F2 JUMPI PUSH1 0x0 DUP1 REVERT JUMPDEST POP PUSH1 0x8 SLOAD PUSH2 0xFFFF AND PUSH2 0x37B JUMP JUMPDEST PUSH2 0x3CF PUSH2 0xA3F JUMP JUMPDEST CALLVALUE DUP1 ISZERO PUSH2 0x413 JUMPI PUSH1 0x0 DUP1 REVERT JUMPDEST POP PUSH2 0x37B PUSH2 0xBF7 JUMP JUMPDEST PUSH2 0x3CF PUSH2 0x42A CALLDATASIZE PUSH1 0x4 PUSH2 0x4216 JUMP JUMPDEST PUSH2 0xC3D JUMP JUMPDEST CALLVALUE DUP1 ISZERO PUSH2 0x43B JUMPI PUSH1 0x0 DUP1 REVERT JUMPDEST POP PUSH1 0x8 SLOAD PUSH2 0x450 SWAP1 PUSH1 0x1 PUSH1 0x40 SHL SWAP1 DIV PUSH1 0xFF AND DUP2 JUMP JUMPDEST PUSH1 0x40 MLOAD PUSH1 0xFF SWAP1 SWAP2 AND DUP2 MSTORE PUSH1 0x20 ADD PUSH2 0x35C JUMP JUMPDEST CALLVALUE DUP1 ISZERO PUSH2 0x46E JUMPI PUSH1 0x0 DUP1 REVERT JUMPDEST POP PUSH2 0x3CF PUSH2 0x47D CALLDATASIZE PUSH1 0x4 PUSH2 0x424D JUMP JUMPDEST PUSH2 0xFB2 JUMP JUMPDEST CALLVALUE DUP1 ISZERO PUSH2 0x48E JUMPI PUSH1 0x0 DUP1 REVERT JUMPDEST POP PUSH2 0x497 PUSH2 0x1183 JUMP JUMPDEST PUSH1 0x40 MLOAD PUSH2 0x35C SWAP2 SWAP1 PUSH2 0x4266 JUMP JUMPDEST CALLVALUE DUP1 ISZERO PUSH2 0x4B0 JUMPI PUSH1 0x0 DUP1 REVERT JUMPDEST POP PUSH2 0x37B PUSH2 0x123B JUMP JUMPDEST CALLVALUE DUP1 ISZERO PUSH2 0x4C5 JUMPI PUSH1 0x0 DUP1 REVERT JUMPDEST POP PUSH1 0x3 SLOAD PUSH2 0x4D9 SWAP1 PUSH1 0x1 PUSH1 0x1 PUSH1 0xA0 SHL SUB AND DUP2 JUMP JUMPDEST PUSH1 0x40 MLOAD PUSH1 0x1 PUSH1 0x1 PUSH1 0xA0 SHL SUB SWAP1 SWAP2 AND DUP2 MSTORE PUSH1 0x20 ADD PUSH2 0x35C JUMP JUMPDEST CALLVALUE DUP1 ISZERO PUSH2 0x4FD JUMPI PUSH1 0x0 DUP1 REVERT JUMPDEST POP PUSH2 0x37B PUSH2 0x130B JUMP JUMPDEST CALLVALUE DUP1 ISZERO PUSH2 0x512 JUMPI PUSH1 0x0 DUP1 REVERT JUMPDEST POP PUSH1 0x8 SLOAD PUSH2 0x34D SWAP1 PUSH2 0xFFFF AND DUP2 JUMP JUMPDEST CALLVALUE DUP1 ISZERO PUSH2 0x52D JUMPI PUSH1 0x0 DUP1 REVERT JUMPDEST POP PUSH2 0x3CF PUSH2 0x53C CALLDATASIZE PUSH1 0x4 PUSH2 0x424D JUMP JUMPDEST PUSH2 0x138E JUMP JUMPDEST CALLVALUE DUP1 ISZERO PUSH2 0x54D JUMPI PUSH1 0x0 DUP1 REVERT JUMPDEST POP PUSH1 0x5 SLOAD PUSH2 0x4D9 SWAP1 PUSH1 0x1 PUSH1 0x1 PUSH1 0xA0 SHL SUB AND DUP2 JUMP JUMPDEST CALLVALUE DUP1 ISZERO PUSH2 0x56D JUMPI PUSH1 0x0 DUP1 REVERT JUMPDEST POP PUSH1 0x10 SLOAD PUSH2 0x4D9 SWAP1 PUSH1 0x1 PUSH1 0x1 PUSH1 0xA0 SHL SUB AND DUP2 JUMP JUMPDEST CALLVALUE DUP1 ISZERO PUSH2 0x58D JUMPI PUSH1 0x0 DUP1 REVERT JUMPDEST POP PUSH1 0x6 SLOAD PUSH2 0x4D9 SWAP1 PUSH1 0x1 PUSH1 0x1 PUSH1 0xA0 SHL SUB AND DUP2 JUMP JUMPDEST CALLVALUE DUP1 ISZERO PUSH2 0x5AD JUMPI PUSH1 0x0 DUP1 REVERT JUMPDEST POP PUSH2 0x3CF PUSH2 0x5BC CALLDATASIZE PUSH1 0x4 PUSH2 0x424D JUMP JUMPDEST PUSH2 0x1663 JUMP JUMPDEST CALLVALUE DUP1 ISZERO PUSH2 0x5CD JUMPI PUSH1 0x0 DUP1 REVERT JUMPDEST POP PUSH2 0x37B PUSH2 0x1810 JUMP JUMPDEST CALLVALUE DUP1 ISZERO PUSH2 0x5E2 JUMPI PUSH1 0x0 DUP1 REVERT JUMPDEST POP PUSH2 0x5EB PUSH2 0x1860 JUMP JUMPDEST PUSH1 0x40 MLOAD PUSH2 0x35C SWAP2 SWAP1 PUSH2 0x42CD JUMP JUMPDEST CALLVALUE DUP1 ISZERO PUSH2 0x604 JUMPI PUSH1 0x0 DUP1 REVERT JUMPDEST POP PUSH2 0x37B PUSH1 0x11 SLOAD DUP2 JUMP JUMPDEST CALLVALUE DUP1 ISZERO PUSH2 0x61A JUMPI PUSH1 0x0 DUP1 REVERT JUMPDEST POP PUSH2 0x3CF PUSH2 0x1CD5 JUMP JUMPDEST CALLVALUE DUP1 ISZERO PUSH2 0x62F JUMPI PUSH1 0x0 DUP1 REVERT JUMPDEST POP PUSH2 0x3CF PUSH2 0x63E CALLDATASIZE PUSH1 0x4 PUSH2 0x449E JUMP JUMPDEST PUSH2 0x1DFE JUMP JUMPDEST CALLVALUE DUP1 ISZERO PUSH2 0x64F JUMPI PUSH1 0x0 DUP1 REVERT JUMPDEST POP PUSH2 0x3CF PUSH2 0x20E3 JUMP JUMPDEST CALLVALUE DUP1 ISZERO PUSH2 0x664 JUMPI PUSH1 0x0 DUP1 REVERT JUMPDEST POP PUSH2 0x37B PUSH1 0x7 SLOAD DUP2 JUMP JUMPDEST CALLVALUE DUP1 ISZERO PUSH2 0x67A JUMPI PUSH1 0x0 DUP1 REVERT JUMPDEST POP PUSH2 0x3CF PUSH2 0x21EB JUMP JUMPDEST CALLVALUE DUP1 ISZERO PUSH2 0x68F JUMPI PUSH1 0x0 DUP1 REVERT JUMPDEST POP PUSH2 0x37B PUSH1 0xF SLOAD DUP2 JUMP JUMPDEST CALLVALUE DUP1 ISZERO PUSH2 0x6A5 JUMPI PUSH1 0x0 DUP1 REVERT JUMPDEST POP PUSH2 0x37B PUSH1 0x12 SLOAD DUP2 JUMP JUMPDEST CALLVALUE DUP1 ISZERO PUSH2 0x6BB JUMPI PUSH1 0x0 DUP1 REVERT JUMPDEST POP PUSH1 0x4 SLOAD PUSH2 0x4D9 SWAP1 PUSH1 0x1 PUSH1 0x1 PUSH1 0xA0 SHL SUB AND DUP2 JUMP JUMPDEST PUSH2 0x3CF PUSH2 0x6DD CALLDATASIZE PUSH1 0x4 PUSH2 0x4546 JUMP JUMPDEST PUSH2 0x23BE JUMP JUMPDEST PUSH2 0x3CF PUSH2 0x6F0 CALLDATASIZE PUSH1 0x4 PUSH2 0x424D JUMP JUMPDEST PUSH2 0x2719 JUMP JUMPDEST CALLVALUE DUP1 ISZERO PUSH2 0x701 JUMPI PUSH1 0x0 DUP1 REVERT JUMPDEST POP PUSH1 0x1 SLOAD PUSH2 0x4D9 SWAP1 PUSH1 0x1 PUSH1 0x1 PUSH1 0xA0 SHL SUB AND DUP2 JUMP JUMPDEST CALLVALUE DUP1 ISZERO PUSH2 0x721 JUMPI PUSH1 0x0 DUP1 REVERT JUMPDEST POP PUSH2 0x3CF PUSH2 0x730 CALLDATASIZE PUSH1 0x4 PUSH2 0x424D JUMP JUMPDEST PUSH2 0x2948 JUMP JUMPDEST CALLVALUE DUP1 ISZERO PUSH2 0x741 JUMPI PUSH1 0x0 DUP1 REVERT JUMPDEST POP PUSH2 0x37B PUSH1 0x14 SLOAD DUP2 JUMP JUMPDEST CALLVALUE DUP1 ISZERO PUSH2 0x757 JUMPI PUSH1 0x0 DUP1 REVERT JUMPDEST POP PUSH2 0x3CF PUSH2 0x766 CALLDATASIZE PUSH1 0x4 PUSH2 0x424D JUMP JUMPDEST PUSH2 0x2C7C JUMP JUMPDEST CALLVALUE DUP1 ISZERO PUSH2 0x777 JUMPI PUSH1 0x0 DUP1 REVERT JUMPDEST POP PUSH1 0x8 SLOAD PUSH2 0x450 SWAP1 PUSH1 0x1 PUSH1 0x38 SHL SWAP1 DIV PUSH1 0xFF AND DUP2 JUMP JUMPDEST CALLVALUE DUP1 ISZERO PUSH2 0x798 JUMPI PUSH1 0x0 DUP1 REVERT JUMPDEST POP PUSH2 0x3AA PUSH2 0x2E64 JUMP JUMPDEST CALLVALUE DUP1 ISZERO PUSH2 0x7AD JUMPI PUSH1 0x0 DUP1 REVERT JUMPDEST POP PUSH2 0x37B PUSH2 0x2EA6 JUMP JUMPDEST CALLVALUE DUP1 ISZERO PUSH2 0x7C2 JUMPI PUSH1 0x0 DUP1 REVERT JUMPDEST POP PUSH2 0x37B PUSH1 0x13 SLOAD DUP2 JUMP JUMPDEST CALLVALUE DUP1 ISZERO PUSH2 0x7D8 JUMPI PUSH1 0x0 DUP1 REVERT JUMPDEST POP PUSH2 0x3CF PUSH2 0x7E7 CALLDATASIZE PUSH1 0x4 PUSH2 0x424D JUMP JUMPDEST PUSH2 0x2EC3 JUMP JUMPDEST CALLVALUE DUP1 ISZERO PUSH2 0x7F8 JUMPI PUSH1 0x0 DUP1 REVERT JUMPDEST POP PUSH1 0xB SLOAD PUSH2 0x806 SWAP1 PUSH1 0xFF AND DUP2 JUMP JUMPDEST PUSH1 0x40 MLOAD PUSH2 0x35C SWAP2 SWAP1 PUSH2 0x4586 JUMP JUMPDEST CALLVALUE DUP1 ISZERO PUSH2 0x81F JUMPI PUSH1 0x0 DUP1 REVERT JUMPDEST POP PUSH1 0x8 SLOAD PUSH2 0x34D SWAP1 PUSH3 0x10000 SWAP1 DIV PUSH2 0xFFFF AND DUP2 JUMP JUMPDEST PUSH2 0x3CF PUSH2 0x305A JUMP JUMPDEST CALLVALUE DUP1 ISZERO PUSH2 0x848 JUMPI PUSH1 0x0 DUP1 REVERT JUMPDEST POP PUSH1 0x2 SLOAD PUSH2 0x4D9 SWAP1 PUSH1 0x1 PUSH1 0x1 PUSH1 0xA0 SHL SUB AND DUP2 JUMP JUMPDEST CALLVALUE DUP1 ISZERO PUSH2 0x868 JUMPI PUSH1 0x0 DUP1 REVERT JUMPDEST POP PUSH2 0x37B PUSH1 0x9 SLOAD DUP2 JUMP JUMPDEST CALLVALUE DUP1 ISZERO PUSH2 0x87E JUMPI PUSH1 0x0 DUP1 REVERT JUMPDEST POP PUSH2 0x3CF PUSH2 0x88D CALLDATASIZE PUSH1 0x4 PUSH2 0x424D JUMP JUMPDEST PUSH2 0x328F JUMP JUMPDEST CALLVALUE DUP1 ISZERO PUSH2 0x89E JUMPI PUSH1 0x0 DUP1 REVERT JUMPDEST POP PUSH1 0xC SLOAD PUSH1 0xD SLOAD PUSH1 0xE SLOAD PUSH2 0x8B4 SWAP3 PUSH1 0xFF AND SWAP2 SWAP1 DUP4 JUMP JUMPDEST PUSH1 0x40 MLOAD PUSH2 0x35C SWAP4 SWAP3 SWAP2 SWAP1 PUSH2 0x4594 JUMP JUMPDEST CALLVALUE DUP1 ISZERO PUSH2 0x8CF JUMPI PUSH1 0x0 DUP1 REVERT JUMPDEST POP PUSH2 0x37B PUSH2 0x3578 JUMP JUMPDEST PUSH2 0x3CF PUSH2 0x8E6 CALLDATASIZE PUSH1 0x4 PUSH2 0x424D JUMP JUMPDEST PUSH2 0x35DF JUMP JUMPDEST CALLVALUE DUP1 ISZERO PUSH2 0x8F7 JUMPI PUSH1 0x0 DUP1 REVERT JUMPDEST POP PUSH1 0x8 SLOAD PUSH2 0x450 SWAP1 PUSH1 0x1 PUSH1 0x30 SHL SWAP1 DIV PUSH1 0xFF AND DUP2 JUMP JUMPDEST PUSH1 0x1 SLOAD PUSH1 0x1 PUSH1 0x1 PUSH1 0xA0 SHL SUB AND CALLER EQ PUSH2 0x937 JUMPI PUSH1 0x40 MLOAD PUSH4 0x30CD7471 PUSH1 0xE0 SHL DUP2 MSTORE PUSH1 0x4 ADD PUSH1 0x40 MLOAD DUP1 SWAP2 SUB SWAP1 REVERT JUMPDEST PUSH2 0x93F PUSH2 0x380E JUMP JUMPDEST PUSH1 0x1 PUSH1 0xB SLOAD PUSH1 0xFF AND PUSH1 0x4 DUP2 GT ISZERO PUSH2 0x958 JUMPI PUSH2 0x958 PUSH2 0x4293 JUMP JUMPDEST EQ PUSH2 0x976 JUMPI PUSH1 0x40 MLOAD PUSH4 0x4291DB15 PUSH1 0xE1 SHL DUP2 MSTORE PUSH1 0x4 ADD PUSH1 0x40 MLOAD DUP1 SWAP2 SUB SWAP1 REVERT JUMPDEST PUSH1 0x4 PUSH1 0xC SLOAD PUSH1 0xFF AND PUSH1 0x6 DUP2 GT ISZERO PUSH2 0x98F JUMPI PUSH2 0x98F PUSH2 0x4293 JUMP JUMPDEST EQ PUSH2 0x9AD JUMPI PUSH1 0x40 MLOAD PUSH4 0x4291DB15 PUSH1 0xE1 SHL DUP2 MSTORE PUSH1 0x4 ADD PUSH1 0x40 MLOAD DUP1 SWAP2 SUB SWAP1 REVERT JUMPDEST PUSH1 0x3 SLOAD PUSH1 0xD SLOAD PUSH1 0x40 MLOAD PUSH4 0x2F94CDD1 PUSH1 0xE0 SHL DUP2 MSTORE PUSH1 0x1 PUSH1 0x1 PUSH1 0xA0 SHL SUB SWAP1 SWAP3 AND SWAP2 PUSH4 0x2F94CDD1 SWAP2 PUSH2 0x9E2 SWAP2 PUSH1 0x4 ADD SWAP1 DUP2 MSTORE PUSH1 0x20 ADD SWAP1 JUMP JUMPDEST PUSH1 0x0 PUSH1 0x40 MLOAD DUP1 DUP4 SUB DUP2 PUSH1 0x0 DUP8 DUP1 EXTCODESIZE ISZERO DUP1 ISZERO PUSH2 0x9FC JUMPI PUSH1 0x0 DUP1 REVERT JUMPDEST POP GAS CALL ISZERO DUP1 ISZERO PUSH2 0xA10 JUMPI RETURNDATASIZE PUSH1 0x0 DUP1 RETURNDATACOPY RETURNDATASIZE PUSH1 0x0 REVERT JUMPDEST POP POP POP POP PUSH2 0xA1E PUSH1 0x1 PUSH1 0x0 SSTORE JUMP JUMPDEST JUMP JUMPDEST PUSH1 0x0 PUSH2 0xA3A PUSH2 0xA2D PUSH2 0xBF7 JUMP JUMPDEST PUSH2 0xA35 PUSH2 0x2EA6 JUMP JUMPDEST PUSH2 0x3838 JUMP JUMPDEST SWAP1 POP SWAP1 JUMP JUMPDEST PUSH2 0xA47 PUSH2 0x380E JUMP JUMPDEST PUSH1 0x2 PUSH1 0xB SLOAD PUSH1 0xFF AND PUSH1 0x4 DUP2 GT ISZERO PUSH2 0xA60 JUMPI PUSH2 0xA60 PUSH2 0x4293 JUMP JUMPDEST EQ PUSH2 0xA7E JUMPI PUSH1 0x40 MLOAD PUSH4 0x4291DB15 PUSH1 0xE1 SHL DUP2 MSTORE PUSH1 0x4 ADD PUSH1 0x40 MLOAD DUP1 SWAP2 SUB SWAP1 REVERT JUMPDEST PUSH6 0x5AF3107A4000 CALLVALUE LT ISZERO PUSH2 0xAA5 JUMPI PUSH1 0x40 MLOAD PUSH4 0x3ADC8FE7 PUSH1 0xE2 SHL DUP2 MSTORE PUSH1 0x4 ADD PUSH1 0x40 MLOAD DUP1 SWAP2 SUB SWAP1 REVERT JUMPDEST PUSH1 0x0 PUSH2 0xAAF PUSH2 0xBF7 JUMP JUMPDEST SWAP1 POP PUSH2 0xAC2 DUP2 PUSH2 0xABD PUSH2 0x2EA6 JUMP JUMPDEST GT ISZERO SWAP1 JUMP JUMPDEST PUSH2 0xADF JUMPI PUSH1 0x40 MLOAD PUSH4 0x6EF5BCDD PUSH1 0xE1 SHL DUP2 MSTORE PUSH1 0x4 ADD PUSH1 0x40 MLOAD DUP1 SWAP2 SUB SWAP1 REVERT JUMPDEST PUSH1 0x10 DUP1 SLOAD PUSH1 0x1 PUSH1 0x1 PUSH1 0xA0 SHL SUB NOT AND CALLER OR SWAP1 SSTORE PUSH1 0x3 SLOAD PUSH1 0xF SLOAD PUSH1 0x40 MLOAD PUSH4 0x72525E23 PUSH1 0xE0 SHL DUP2 MSTORE PUSH1 0x0 SWAP3 PUSH1 0x1 PUSH1 0x1 PUSH1 0xA0 SHL SUB AND SWAP2 PUSH4 0x72525E23 SWAP2 CALLVALUE SWAP2 PUSH2 0xB29 SWAP2 PUSH1 0x4 ADD SWAP1 DUP2 MSTORE PUSH1 0x20 ADD SWAP1 JUMP JUMPDEST PUSH1 0x20 PUSH1 0x40 MLOAD DUP1 DUP4 SUB DUP2 DUP6 DUP9 GAS CALL ISZERO DUP1 ISZERO PUSH2 0xB47 JUMPI RETURNDATASIZE PUSH1 0x0 DUP1 RETURNDATACOPY RETURNDATASIZE PUSH1 0x0 REVERT JUMPDEST POP POP POP POP POP PUSH1 0x40 MLOAD RETURNDATASIZE PUSH1 0x1F NOT PUSH1 0x1F DUP3 ADD AND DUP3 ADD DUP1 PUSH1 0x40 MSTORE POP DUP2 ADD SWAP1 PUSH2 0xB6C SWAP2 SWAP1 PUSH2 0x45B3 JUMP JUMPDEST PUSH1 0xB DUP1 SLOAD PUSH1 0x3 PUSH1 0xFF NOT SWAP2 DUP3 AND DUP2 OR SWAP1 SWAP3 SSTORE PUSH1 0x40 DUP1 MLOAD PUSH1 0x60 DUP2 ADD DUP3 MSTORE DUP4 DUP2 MSTORE PUSH1 0x20 DUP1 DUP3 ADD DUP7 SWAP1 MSTORE TIMESTAMP SWAP2 DUP4 ADD DUP3 SWAP1 MSTORE PUSH1 0xC DUP1 SLOAD SWAP1 SWAP5 AND DUP6 OR SWAP1 SWAP4 SSTORE PUSH1 0xD DUP6 SWAP1 SSTORE PUSH1 0xE SSTORE DUP1 MLOAD DUP5 DUP2 MSTORE SWAP2 DUP3 ADD SWAP3 SWAP1 SWAP3 MSTORE DUP2 MLOAD SWAP3 SWAP4 POP ADDRESS SWAP3 PUSH32 0x69D62ED766FEBD9B36F4840F1349F992E6AFEA42CA344E8E19106C2DFFE02F47 SWAP3 SWAP2 DUP2 SWAP1 SUB SWAP1 SWAP2 ADD SWAP1 LOG2 POP POP PUSH2 0xA1E PUSH1 0x1 PUSH1 0x0 SSTORE JUMP JUMPDEST PUSH1 0x0 PUSH1 0xA SLOAD PUSH1 0x0 SUB PUSH2 0xC09 JUMPI POP PUSH1 0x0 SWAP1 JUMP JUMPDEST PUSH1 0x0 PUSH2 0xC13 PUSH2 0x123B JUMP JUMPDEST SWAP1 POP DUP1 PUSH1 0x0 SUB PUSH2 0xC26 JUMPI PUSH1 0x0 NOT SWAP2 POP POP SWAP1 JUMP JUMPDEST PUSH2 0xC37 DUP2 PUSH2 0xC32 PUSH2 0x1810 JUMP JUMPDEST PUSH2 0x3871 JUMP JUMPDEST SWAP2 POP POP SWAP1 JUMP JUMPDEST PUSH1 0x1 SLOAD PUSH1 0x1 PUSH1 0x1 PUSH1 0xA0 SHL SUB AND CALLER EQ PUSH2 0xC68 JUMPI PUSH1 0x40 MLOAD PUSH4 0x30CD7471 PUSH1 0xE0 SHL DUP2 MSTORE PUSH1 0x4 ADD PUSH1 0x40 MLOAD DUP1 SWAP2 SUB SWAP1 REVERT JUMPDEST PUSH1 0x2 PUSH1 0x0 SWAP1 SLOAD SWAP1 PUSH2 0x100 EXP SWAP1 DIV PUSH1 0x1 PUSH1 0x1 PUSH1 0xA0 SHL SUB AND PUSH1 0x1 PUSH1 0x1 PUSH1 0xA0 SHL SUB AND PUSH4 0x5C975ABB PUSH1 0x40 MLOAD DUP2 PUSH4 0xFFFFFFFF AND PUSH1 0xE0 SHL DUP2 MSTORE PUSH1 0x4 ADD PUSH1 0x20 PUSH1 0x40 MLOAD DUP1 DUP4 SUB DUP2 DUP7 GAS STATICCALL ISZERO DUP1 ISZERO PUSH2 0xCBB JUMPI RETURNDATASIZE PUSH1 0x0 DUP1 RETURNDATACOPY RETURNDATASIZE PUSH1 0x0 REVERT JUMPDEST POP POP POP POP PUSH1 0x40 MLOAD RETURNDATASIZE PUSH1 0x1F NOT PUSH1 0x1F DUP3 ADD AND DUP3 ADD DUP1 PUSH1 0x40 MSTORE POP DUP2 ADD SWAP1 PUSH2 0xCDF SWAP2 SWAP1 PUSH2 0x45CC JUMP JUMPDEST ISZERO PUSH2 0xCFD JUMPI PUSH1 0x40 MLOAD PUSH4 0x4291DB15 PUSH1 0xE1 SHL DUP2 MSTORE PUSH1 0x4 ADD PUSH1 0x40 MLOAD DUP1 SWAP2 SUB SWAP1 REVERT JUMPDEST PUSH2 0xD05 PUSH2 0x380E JUMP JUMPDEST PUSH1 0x0 PUSH1 0xB SLOAD PUSH1 0xFF AND PUSH1 0x4 DUP2 GT ISZERO PUSH2 0xD1E JUMPI PUSH2 0xD1E PUSH2 0x4293 JUMP JUMPDEST EQ PUSH2 0xD3C JUMPI PUSH1 0x40 MLOAD PUSH4 0x4291DB15 PUSH1 0xE1 SHL DUP2 MSTORE PUSH1 0x4 ADD PUSH1 0x40 MLOAD DUP1 SWAP2 SUB SWAP1 REVERT JUMPDEST PUSH3 0xF4240 PUSH1 0x9 SLOAD LT ISZERO PUSH2 0xD62 JUMPI PUSH1 0x40 MLOAD PUSH4 0x4DBFE81 PUSH1 0xE2 SHL DUP2 MSTORE PUSH1 0x4 ADD PUSH1 0x40 MLOAD DUP1 SWAP2 SUB SWAP1 REVERT JUMPDEST PUSH1 0x1 DUP3 PUSH1 0xFF AND LT DUP1 PUSH2 0xD83 JUMPI POP PUSH1 0x8 SLOAD PUSH1 0xFF PUSH1 0x1 PUSH1 0x38 SHL SWAP1 SWAP2 DIV DUP2 AND SWAP1 DUP4 AND GT JUMPDEST ISZERO PUSH2 0xDA1 JUMPI PUSH1 0x40 MLOAD PUSH4 0x522007A5 PUSH1 0xE0 SHL DUP2 MSTORE PUSH1 0x4 ADD PUSH1 0x40 MLOAD DUP1 SWAP2 SUB SWAP1 REVERT JUMPDEST PUSH6 0x5AF3107A4000 CALLVALUE LT ISZERO PUSH2 0xDC8 JUMPI PUSH1 0x40 MLOAD PUSH4 0x3ADC8FE7 PUSH1 0xE2 SHL DUP2 MSTORE PUSH1 0x4 ADD PUSH1 0x40 MLOAD DUP1 SWAP2 SUB SWAP1 REVERT JUMPDEST PUSH1 0x8 DUP1 SLOAD PUSH2 0xFFFF PUSH1 0x40 SHL NOT AND PUSH1 0x1 PUSH1 0x40 SHL PUSH1 0xFF DUP6 AND MUL PUSH1 0xFF PUSH1 0x48 SHL NOT AND OR PUSH1 0x1 PUSH1 0x48 SHL DUP4 ISZERO ISZERO MUL OR SWAP1 SSTORE PUSH1 0x3 SLOAD PUSH1 0x9 SLOAD PUSH1 0x5 SLOAD PUSH2 0xE13 SWAP3 PUSH1 0x1 PUSH1 0x1 PUSH1 0xA0 SHL SUB SWAP2 DUP3 AND SWAP3 SWAP2 AND SWAP1 PUSH2 0x38C4 JUMP JUMPDEST PUSH1 0x3 SLOAD PUSH1 0x7 SLOAD PUSH1 0x9 SLOAD PUSH1 0x4 DUP1 SLOAD PUSH1 0x40 DUP1 MLOAD PUSH4 0x4C6AFEE5 PUSH1 0xE1 SHL DUP2 MSTORE SWAP1 MLOAD PUSH1 0x0 SWAP7 PUSH1 0x1 PUSH1 0x1 PUSH1 0xA0 SHL SUB SWAP1 DUP2 AND SWAP7 PUSH4 0xB5B0862F SWAP7 CALLVALUE SWAP7 SWAP2 SWAP6 SWAP1 SWAP5 SWAP3 AND SWAP3 PUSH4 0x98D5FDCA SWAP3 DUP1 DUP4 ADD SWAP3 PUSH1 0x20 SWAP3 SWAP2 DUP3 SWAP1 SUB ADD DUP2 DUP7 GAS STATICCALL ISZERO DUP1 ISZERO PUSH2 0xE75 JUMPI RETURNDATASIZE PUSH1 0x0 DUP1 RETURNDATACOPY RETURNDATASIZE PUSH1 0x0 REVERT JUMPDEST POP POP POP POP PUSH1 0x40 MLOAD RETURNDATASIZE PUSH1 0x1F NOT PUSH1 0x1F DUP3 ADD AND DUP3 ADD DUP1 PUSH1 0x40 MSTORE POP DUP2 ADD SWAP1 PUSH2 0xE99 SWAP2 SWAP1 PUSH2 0x45B3 JUMP JUMPDEST PUSH1 0x40 MLOAD PUSH1 0x1 PUSH1 0x1 PUSH1 0xE0 SHL SUB NOT PUSH1 0xE0 DUP8 SWAP1 SHL AND DUP2 MSTORE PUSH1 0x4 DUP2 ADD SWAP4 SWAP1 SWAP4 MSTORE PUSH1 0x24 DUP4 ADD SWAP2 SWAP1 SWAP2 MSTORE PUSH1 0x44 DUP3 ADD MSTORE PUSH1 0xFF DUP8 AND PUSH1 0x64 DUP3 ADD MSTORE DUP6 ISZERO ISZERO PUSH1 0x84 DUP3 ADD MSTORE PUSH1 0xA4 ADD PUSH1 0x20 PUSH1 0x40 MLOAD DUP1 DUP4 SUB DUP2 DUP6 DUP9 GAS CALL ISZERO DUP1 ISZERO PUSH2 0xEF4 JUMPI RETURNDATASIZE PUSH1 0x0 DUP1 RETURNDATACOPY RETURNDATASIZE PUSH1 0x0 REVERT JUMPDEST POP POP POP POP POP PUSH1 0x40 MLOAD RETURNDATASIZE PUSH1 0x1F NOT PUSH1 0x1F DUP3 ADD AND DUP3 ADD DUP1 PUSH1 0x40 MSTORE POP DUP2 ADD SWAP1 PUSH2 0xF19 SWAP2 SWAP1 PUSH2 0x45B3 JUMP JUMPDEST PUSH1 0xB DUP1 SLOAD PUSH1 0x1 PUSH1 0xFF NOT SWAP2 DUP3 AND DUP2 OR SWAP1 SWAP3 SSTORE PUSH1 0x40 DUP1 MLOAD PUSH1 0x60 DUP1 DUP3 ADD DUP4 MSTORE DUP5 DUP3 MSTORE PUSH1 0x20 DUP1 DUP4 ADD DUP8 SWAP1 MSTORE TIMESTAMP SWAP3 DUP5 ADD DUP4 SWAP1 MSTORE PUSH1 0xC DUP1 SLOAD SWAP1 SWAP6 AND SWAP1 SWAP6 OR SWAP1 SWAP4 SSTORE PUSH1 0xD DUP6 SWAP1 SSTORE PUSH1 0xE SSTORE DUP1 MLOAD DUP5 DUP2 MSTORE PUSH1 0xFF DUP9 AND SWAP4 DUP2 ADD SWAP4 SWAP1 SWAP4 MSTORE DUP6 ISZERO ISZERO SWAP1 DUP4 ADD MSTORE SWAP2 SWAP3 POP ADDRESS SWAP2 PUSH32 0x4E3F6D3EE7E3781D95140A8C1BBB9E544AD186D11D46B416C5204053317E0489 SWAP2 ADD PUSH1 0x40 MLOAD DUP1 SWAP2 SUB SWAP1 LOG2 POP PUSH2 0xFAE PUSH1 0x1 PUSH1 0x0 SSTORE JUMP JUMPDEST POP POP JUMP JUMPDEST PUSH1 0x1 SLOAD PUSH1 0x1 PUSH1 0x1 PUSH1 0xA0 SHL SUB AND CALLER EQ PUSH2 0xFDD JUMPI PUSH1 0x40 MLOAD PUSH4 0x30CD7471 PUSH1 0xE0 SHL DUP2 MSTORE PUSH1 0x4 ADD PUSH1 0x40 MLOAD DUP1 SWAP2 SUB SWAP1 REVERT JUMPDEST PUSH1 0x2 PUSH1 0x0 SWAP1 SLOAD SWAP1 PUSH2 0x100 EXP SWAP1 DIV PUSH1 0x1 PUSH1 0x1 PUSH1 0xA0 SHL SUB AND PUSH1 0x1 PUSH1 0x1 PUSH1 0xA0 SHL SUB AND PUSH4 0x5C975ABB PUSH1 0x40 MLOAD DUP2 PUSH4 0xFFFFFFFF AND PUSH1 0xE0 SHL DUP2 MSTORE PUSH1 0x4 ADD PUSH1 0x20 PUSH1 0x40 MLOAD DUP1 DUP4 SUB DUP2 DUP7 GAS STATICCALL ISZERO DUP1 ISZERO PUSH2 0x1030 JUMPI RETURNDATASIZE PUSH1 0x0 DUP1 RETURNDATACOPY RETURNDATASIZE PUSH1 0x0 REVERT JUMPDEST POP POP POP POP PUSH1 0x40 MLOAD RETURNDATASIZE PUSH1 0x1F NOT PUSH1 0x1F DUP3 ADD AND DUP3 ADD DUP1 PUSH1 0x40 MSTORE POP DUP2 ADD SWAP1 PUSH2 0x1054 SWAP2 SWAP1 PUSH2 0x45CC JUMP JUMPDEST ISZERO PUSH2 0x1072 JUMPI PUSH1 0x40 MLOAD PUSH4 0x4291DB15 PUSH1 0xE1 SHL DUP2 MSTORE PUSH1 0x4 ADD PUSH1 0x40 MLOAD DUP1 SWAP2 SUB SWAP1 REVERT JUMPDEST PUSH2 0x107A PUSH2 0x380E JUMP JUMPDEST PUSH1 0x0 PUSH1 0xB SLOAD PUSH1 0xFF AND PUSH1 0x4 DUP2 GT ISZERO PUSH2 0x1093 JUMPI PUSH2 0x1093 PUSH2 0x4293 JUMP JUMPDEST EQ PUSH2 0x10B1 JUMPI PUSH1 0x40 MLOAD PUSH4 0x4291DB15 PUSH1 0xE1 SHL DUP2 MSTORE PUSH1 0x4 ADD PUSH1 0x40 MLOAD DUP1 SWAP2 SUB SWAP1 REVERT JUMPDEST PUSH1 0x9 SLOAD DUP2 GT ISZERO PUSH2 0x10FC JUMPI PUSH1 0x40 MLOAD PUSH3 0x461BCD PUSH1 0xE5 SHL DUP2 MSTORE PUSH1 0x20 PUSH1 0x4 DUP3 ADD MSTORE PUSH1 0x11 PUSH1 0x24 DUP3 ADD MSTORE PUSH17 0x195E18D959590818DBDB1B185D195C985B PUSH1 0x7A SHL PUSH1 0x44 DUP3 ADD MSTORE PUSH1 0x64 ADD JUMPDEST PUSH1 0x40 MLOAD DUP1 SWAP2 SUB SWAP1 REVERT JUMPDEST DUP1 PUSH1 0x9 PUSH1 0x0 DUP3 DUP3 SLOAD PUSH2 0x110E SWAP2 SWAP1 PUSH2 0x4606 JUMP JUMPDEST SWAP1 SWAP2 SSTORE POP POP PUSH1 0x1 SLOAD PUSH1 0x5 SLOAD PUSH2 0x1130 SWAP2 PUSH1 0x1 PUSH1 0x1 PUSH1 0xA0 SHL SUB SWAP2 DUP3 AND SWAP2 AND DUP4 PUSH2 0x3988 JUMP JUMPDEST PUSH1 0x40 MLOAD DUP2 DUP2 MSTORE ADDRESS SWAP1 PUSH32 0xC30FCFBCAAC9E0DEFFA719714EAA82396FF506A0D0D0EEBE170830177288715D SWAP1 PUSH1 0x20 ADD PUSH1 0x40 MLOAD DUP1 SWAP2 SUB SWAP1 LOG2 PUSH2 0x1176 PUSH2 0x1171 DUP3 PUSH2 0x4619 JUMP JUMPDEST PUSH2 0x39B9 JUMP JUMPDEST PUSH2 0x1180 PUSH1 0x1 PUSH1 0x0 SSTORE JUMP JUMPDEST POP JUMP JUMPDEST PUSH2 0x11B0 PUSH1 0x40 MLOAD DUP1 PUSH1 0x80 ADD PUSH1 0x40 MSTORE DUP1 PUSH1 0x0 ISZERO ISZERO DUP2 MSTORE PUSH1 0x20 ADD PUSH1 0x0 DUP2 MSTORE PUSH1 0x20 ADD PUSH1 0x0 DUP2 MSTORE PUSH1 0x20 ADD PUSH1 0x0 DUP2 MSTORE POP SWAP1 JUMP JUMPDEST PUSH1 0x3 SLOAD PUSH1 0x7 SLOAD PUSH1 0x8 SLOAD PUSH1 0x40 MLOAD PUSH4 0x3157D9C7 PUSH1 0xE0 SHL DUP2 MSTORE ADDRESS PUSH1 0x4 DUP3 ADD MSTORE PUSH1 0x24 DUP2 ADD SWAP3 SWAP1 SWAP3 MSTORE PUSH1 0x1 PUSH1 0x48 SHL SWAP1 DIV PUSH1 0xFF AND ISZERO ISZERO PUSH1 0x44 DUP3 ADD MSTORE PUSH1 0x1 PUSH1 0x1 PUSH1 0xA0 SHL SUB SWAP1 SWAP2 AND SWAP1 PUSH4 0x3157D9C7 SWAP1 PUSH1 0x64 ADD PUSH1 0x80 PUSH1 0x40 MLOAD DUP1 DUP4 SUB DUP2 DUP7 GAS STATICCALL ISZERO DUP1 ISZERO PUSH2 0x1217 JUMPI RETURNDATASIZE PUSH1 0x0 DUP1 RETURNDATACOPY RETURNDATASIZE PUSH1 0x0 REVERT JUMPDEST POP POP POP POP PUSH1 0x40 MLOAD RETURNDATASIZE PUSH1 0x1F NOT PUSH1 0x1F DUP3 ADD AND DUP3 ADD DUP1 PUSH1 0x40 MSTORE POP DUP2 ADD SWAP1 PUSH2 0xA3A SWAP2 SWAP1 PUSH2 0x4635 JUMP JUMPDEST PUSH1 0x0 PUSH1 0x2 PUSH1 0xB SLOAD PUSH1 0xFF AND PUSH1 0x4 DUP2 GT ISZERO PUSH2 0x1256 JUMPI PUSH2 0x1256 PUSH2 0x4293 JUMP JUMPDEST EQ DUP1 PUSH2 0x1278 JUMPI POP PUSH1 0x3 PUSH1 0xB SLOAD PUSH1 0xFF AND PUSH1 0x4 DUP2 GT ISZERO PUSH2 0x1276 JUMPI PUSH2 0x1276 PUSH2 0x4293 JUMP JUMPDEST EQ JUMPDEST DUP1 ISZERO PUSH2 0x1285 JUMPI POP PUSH1 0xF SLOAD ISZERO ISZERO JUMPDEST ISZERO PUSH2 0x1300 JUMPI PUSH1 0x3 SLOAD PUSH1 0xF SLOAD PUSH1 0x40 MLOAD PUSH4 0x4CB7C319 PUSH1 0xE0 SHL DUP2 MSTORE PUSH1 0x1 PUSH1 0x1 PUSH1 0xA0 SHL SUB SWAP1 SWAP3 AND SWAP2 PUSH4 0x4CB7C319 SWAP2 PUSH2 0x12BF SWAP2 PUSH1 0x4 ADD SWAP1 DUP2 MSTORE PUSH1 0x20 ADD SWAP1 JUMP JUMPDEST PUSH1 0x20 PUSH1 0x40 MLOAD DUP1 DUP4 SUB DUP2 DUP7 GAS STATICCALL ISZERO DUP1 ISZERO PUSH2 0x12DC JUMPI RETURNDATASIZE PUSH1 0x0 DUP1 RETURNDATACOPY RETURNDATASIZE PUSH1 0x0 REVERT JUMPDEST POP POP POP POP PUSH1 0x40 MLOAD RETURNDATASIZE PUSH1 0x1F NOT PUSH1 0x1F DUP3 ADD AND DUP3 ADD DUP1 PUSH1 0x40 MSTORE POP DUP2 ADD SWAP1 PUSH2 0xA3A SWAP2 SWAP1 PUSH2 0x45B3 JUMP JUMPDEST PUSH2 0xA3A PUSH1 0x9 SLOAD PUSH2 0x3A23 JUMP JUMPDEST PUSH1 0x11 SLOAD PUSH1 0x12 SLOAD PUSH1 0x0 SWAP2 SWAP1 DUP1 ISZERO DUP1 ISZERO SWAP1 PUSH2 0x1326 JUMPI POP PUSH1 0x0 PUSH1 0xA SLOAD GT JUMPDEST ISZERO PUSH2 0x1388 JUMPI PUSH1 0x0 PUSH2 0x1337 DUP3 TIMESTAMP PUSH2 0x4606 JUMP JUMPDEST SWAP1 POP PUSH2 0x1349 PUSH4 0x1E13380 PUSH2 0x2710 PUSH2 0x46B2 JUMP JUMPDEST DUP2 PUSH1 0x96 PUSH2 0x135C PUSH2 0x1357 PUSH2 0x1810 JUMP JUMPDEST PUSH2 0x3A34 JUMP JUMPDEST PUSH2 0x1366 SWAP2 SWAP1 PUSH2 0x46B2 JUMP JUMPDEST PUSH2 0x1370 SWAP2 SWAP1 PUSH2 0x46B2 JUMP JUMPDEST PUSH2 0x137A SWAP2 SWAP1 PUSH2 0x46C9 JUMP JUMPDEST PUSH2 0x1384 SWAP1 DUP5 PUSH2 0x46EB JUMP JUMPDEST SWAP3 POP POP JUMPDEST POP SWAP2 SWAP1 POP JUMP JUMPDEST PUSH1 0x1 SLOAD PUSH1 0x1 PUSH1 0x1 PUSH1 0xA0 SHL SUB AND CALLER EQ PUSH2 0x13B9 JUMPI PUSH1 0x40 MLOAD PUSH4 0x30CD7471 PUSH1 0xE0 SHL DUP2 MSTORE PUSH1 0x4 ADD PUSH1 0x40 MLOAD DUP1 SWAP2 SUB SWAP1 REVERT JUMPDEST PUSH1 0x2 PUSH1 0x0 SWAP1 SLOAD SWAP1 PUSH2 0x100 EXP SWAP1 DIV PUSH1 0x1 PUSH1 0x1 PUSH1 0xA0 SHL SUB AND PUSH1 0x1 PUSH1 0x1 PUSH1 0xA0 SHL SUB AND PUSH4 0x5C975ABB PUSH1 0x40 MLOAD DUP2 PUSH4 0xFFFFFFFF AND PUSH1 0xE0 SHL DUP2 MSTORE PUSH1 0x4 ADD PUSH1 0x20 PUSH1 0x40 MLOAD DUP1 DUP4 SUB DUP2 DUP7 GAS STATICCALL ISZERO DUP1 ISZERO PUSH2 0x140C JUMPI RETURNDATASIZE PUSH1 0x0 DUP1 RETURNDATACOPY RETURNDATASIZE PUSH1 0x0 REVERT JUMPDEST POP POP POP POP PUSH1 0x40 MLOAD RETURNDATASIZE PUSH1 0x1F NOT PUSH1 0x1F DUP3 ADD AND DUP3 ADD DUP1 PUSH1 0x40 MSTORE POP DUP2 ADD SWAP1 PUSH2 0x1430 SWAP2 SWAP1 PUSH2 0x45CC JUMP JUMPDEST ISZERO PUSH2 0x144E JUMPI PUSH1 0x40 MLOAD PUSH4 0x4291DB15 PUSH1 0xE1 SHL DUP2 MSTORE PUSH1 0x4 ADD PUSH1 0x40 MLOAD DUP1 SWAP2 SUB SWAP1 REVERT JUMPDEST PUSH2 0x1456 PUSH2 0x380E JUMP JUMPDEST PUSH1 0x2 PUSH1 0xB SLOAD PUSH1 0xFF AND PUSH1 0x4 DUP2 GT ISZERO PUSH2 0x146F JUMPI PUSH2 0x146F PUSH2 0x4293 JUMP JUMPDEST EQ PUSH2 0x148D JUMPI PUSH1 0x40 MLOAD PUSH4 0x4291DB15 PUSH1 0xE1 SHL DUP2 MSTORE PUSH1 0x4 ADD PUSH1 0x40 MLOAD DUP1 SWAP2 SUB SWAP1 REVERT JUMPDEST PUSH1 0x0 PUSH1 0xA SLOAD DUP3 GT PUSH2 0x149E JUMPI DUP2 PUSH2 0x14A2 JUMP JUMPDEST PUSH1 0xA SLOAD JUMPDEST SWAP1 POP PUSH1 0x0 DUP2 GT PUSH2 0x14E7 JUMPI PUSH1 0x40 MLOAD PUSH3 0x461BCD PUSH1 0xE5 SHL DUP2 MSTORE PUSH1 0x20 PUSH1 0x4 DUP3 ADD MSTORE PUSH1 0x10 PUSH1 0x24 DUP3 ADD MSTORE PUSH16 0x6E6F7468696E6720746F207265706179 PUSH1 0x80 SHL PUSH1 0x44 DUP3 ADD MSTORE PUSH1 0x64 ADD PUSH2 0x10F3 JUMP JUMPDEST PUSH2 0x14EF PUSH2 0x3A45 JUMP JUMPDEST PUSH2 0x2710 PUSH1 0x19 PUSH2 0x1577 PUSH2 0x1357 DUP5 PUSH1 0x4 PUSH1 0x0 SWAP1 SLOAD SWAP1 PUSH2 0x100 EXP SWAP1 DIV PUSH1 0x1 PUSH1 0x1 PUSH1 0xA0 SHL SUB AND PUSH1 0x1 PUSH1 0x1 PUSH1 0xA0 SHL SUB AND PUSH4 0x98D5FDCA PUSH1 0x40 MLOAD DUP2 PUSH4 0xFFFFFFFF AND PUSH1 0xE0 SHL DUP2 MSTORE PUSH1 0x4 ADD PUSH1 0x20 PUSH1 0x40 MLOAD DUP1 DUP4 SUB DUP2 DUP7 GAS STATICCALL ISZERO DUP1 ISZERO PUSH2 0x154E JUMPI RETURNDATASIZE PUSH1 0x0 DUP1 RETURNDATACOPY RETURNDATASIZE PUSH1 0x0 REVERT JUMPDEST POP POP POP POP PUSH1 0x40 MLOAD RETURNDATASIZE PUSH1 0x1F NOT PUSH1 0x1F DUP3 ADD AND DUP3 ADD DUP1 PUSH1 0x40 MSTORE POP DUP2 ADD SWAP1 PUSH2 0x1572 SWAP2 SWAP1 PUSH2 0x45B3 JUMP JUMPDEST PUSH2 0x3AD3 JUMP JUMPDEST PUSH2 0x1581 SWAP2 SWAP1 PUSH2 0x46B2 JUMP JUMPDEST PUSH2 0x158B SWAP2 SWAP1 PUSH2 0x46C9 JUMP JUMPDEST PUSH1 0x11 PUSH1 0x0 DUP3 DUP3 SLOAD PUSH2 0x159C SWAP2 SWAP1 PUSH2 0x46EB JUMP JUMPDEST SWAP3 POP POP DUP2 SWAP1 SSTORE POP DUP1 PUSH1 0xA PUSH1 0x0 DUP3 DUP3 SLOAD PUSH2 0x15B5 SWAP2 SWAP1 PUSH2 0x4606 JUMP JUMPDEST SWAP1 SWAP2 SSTORE POP POP PUSH1 0x6 SLOAD PUSH1 0x1 SLOAD PUSH1 0x40 MLOAD PUSH4 0x2770A7EB PUSH1 0xE2 SHL DUP2 MSTORE PUSH1 0x1 PUSH1 0x1 PUSH1 0xA0 SHL SUB SWAP2 DUP3 AND PUSH1 0x4 DUP3 ADD MSTORE PUSH1 0x24 DUP2 ADD DUP5 SWAP1 MSTORE SWAP2 AND SWAP1 PUSH4 0x9DC29FAC SWAP1 PUSH1 0x44 ADD PUSH1 0x0 PUSH1 0x40 MLOAD DUP1 DUP4 SUB DUP2 PUSH1 0x0 DUP8 DUP1 EXTCODESIZE ISZERO DUP1 ISZERO PUSH2 0x160A JUMPI PUSH1 0x0 DUP1 REVERT JUMPDEST POP GAS CALL ISZERO DUP1 ISZERO PUSH2 0x161E JUMPI RETURNDATASIZE PUSH1 0x0 DUP1 RETURNDATACOPY RETURNDATASIZE PUSH1 0x0 REVERT JUMPDEST POP POP PUSH1 0x40 MLOAD DUP4 DUP2 MSTORE ADDRESS SWAP3 POP PUSH32 0x67E8AC554BBB94933F3083114F69364878CBB40D24A4581F68CB3DA2167F4924 SWAP2 POP PUSH1 0x20 ADD JUMPDEST PUSH1 0x40 MLOAD DUP1 SWAP2 SUB SWAP1 LOG2 POP PUSH2 0x1180 PUSH1 0x1 PUSH1 0x0 SSTORE JUMP JUMPDEST PUSH1 0x3 SLOAD PUSH1 0x1 PUSH1 0x1 PUSH1 0xA0 SHL SUB AND CALLER EQ PUSH2 0x168E JUMPI PUSH1 0x40 MLOAD PUSH4 0x38A3CEBB PUSH1 0xE0 SHL DUP2 MSTORE PUSH1 0x4 ADD PUSH1 0x40 MLOAD DUP1 SWAP2 SUB SWAP1 REVERT JUMPDEST PUSH2 0x1696 PUSH2 0x380E JUMP JUMPDEST PUSH1 0xD SLOAD DUP2 EQ PUSH2 0x16B8 JUMPI PUSH1 0x40 MLOAD PUSH4 0xEE9F2D53 PUSH1 0xE0 SHL DUP2 MSTORE PUSH1 0x4 ADD PUSH1 0x40 MLOAD DUP1 SWAP2 SUB SWAP1 REVERT JUMPDEST PUSH1 0x1 PUSH1 0xC SLOAD PUSH1 0xFF AND PUSH1 0x6 DUP2 GT ISZERO PUSH2 0x16D1 JUMPI PUSH2 0x16D1 PUSH2 0x4293 JUMP JUMPDEST EQ DUP1 PUSH2 0x16F3 JUMPI POP PUSH1 0x4 PUSH1 0xC SLOAD PUSH1 0xFF AND PUSH1 0x6 DUP2 GT ISZERO PUSH2 0x16F1 JUMPI PUSH2 0x16F1 PUSH2 0x4293 JUMP JUMPDEST EQ JUMPDEST ISZERO PUSH2 0x17DE JUMPI PUSH1 0x9 SLOAD PUSH1 0x5 SLOAD PUSH1 0x40 MLOAD PUSH4 0x70A08231 PUSH1 0xE0 SHL DUP2 MSTORE ADDRESS PUSH1 0x4 DUP3 ADD MSTORE PUSH1 0x1 PUSH1 0x1 PUSH1 0xA0 SHL SUB SWAP1 SWAP2 AND SWAP1 PUSH4 0x70A08231 SWAP1 PUSH1 0x24 ADD PUSH1 0x20 PUSH1 0x40 MLOAD DUP1 DUP4 SUB DUP2 DUP7 GAS STATICCALL ISZERO DUP1 ISZERO PUSH2 0x1743 JUMPI RETURNDATASIZE PUSH1 0x0 DUP1 RETURNDATACOPY RETURNDATASIZE PUSH1 0x0 REVERT JUMPDEST POP POP POP POP PUSH1 0x40 MLOAD RETURNDATASIZE PUSH1 0x1F NOT PUSH1 0x1F DUP3 ADD AND DUP3 ADD DUP1 PUSH1 0x40 MSTORE POP DUP2 ADD SWAP1 PUSH2 0x1767 SWAP2 SWAP1 PUSH2 0x45B3 JUMP JUMPDEST PUSH1 0x9 DUP2 SWAP1 SSTORE DUP2 EQ PUSH2 0x1783 JUMPI PUSH2 0x1783 DUP2 PUSH1 0x9 SLOAD PUSH2 0x1171 SWAP2 SWAP1 PUSH2 0x46FE JUMP JUMPDEST PUSH1 0xB DUP1 SLOAD PUSH1 0xFF NOT SWAP1 DUP2 AND SWAP1 SWAP2 SSTORE PUSH1 0xC DUP1 SLOAD SWAP1 SWAP2 AND SWAP1 SSTORE PUSH1 0x0 PUSH1 0xD DUP2 SWAP1 SSTORE PUSH1 0xE SSTORE PUSH1 0x40 MLOAD DUP3 DUP2 MSTORE ADDRESS SWAP1 PUSH32 0x1850340DE0C5A0C10CC6B290A43310EB90675D58DE5D2406600A177679CD8BA5 SWAP1 PUSH1 0x20 ADD PUSH1 0x40 MLOAD DUP1 SWAP2 SUB SWAP1 LOG2 POP PUSH2 0x1176 JUMP JUMPDEST PUSH1 0xB DUP1 SLOAD PUSH1 0x2 SWAP2 SWAP1 PUSH1 0xFF NOT AND PUSH1 0x1 DUP4 MUL OR SWAP1 SSTORE POP PUSH1 0xC DUP1 SLOAD PUSH1 0xFF NOT AND SWAP1 SSTORE PUSH1 0x0 PUSH1 0xD DUP2 SWAP1 SSTORE PUSH1 0xE SSTORE PUSH2 0x1180 PUSH1 0x1 PUSH1 0x0 SSTORE JUMP JUMPDEST PUSH1 0xA SLOAD PUSH1 0x4 DUP1 SLOAD PUSH1 0x40 DUP1 MLOAD PUSH4 0x4C6AFEE5 PUSH1 0xE1 SHL DUP2 MSTORE SWAP1 MLOAD PUSH1 0x0 SWAP5 PUSH2 0xA3A SWAP5 SWAP1 SWAP4 PUSH1 0x1 PUSH1 0x1 PUSH1 0xA0 SHL SUB AND SWAP3 PUSH4 0x98D5FDCA SWAP3 DUP2 DUP4 ADD SWAP3 PUSH1 0x20 SWAP3 DUP3 SWAP1 SUB ADD DUP2 DUP7 GAS STATICCALL ISZERO DUP1 ISZERO PUSH2 0x154E JUMPI RETURNDATASIZE PUSH1 0x0 DUP1 RETURNDATACOPY RETURNDATASIZE PUSH1 0x0 REVERT JUMPDEST PUSH2 0x1972 PUSH1 0x40 DUP1 MLOAD PUSH2 0x3C0 DUP2 ADD DUP3 MSTORE PUSH1 0x0 DUP1 DUP3 MSTORE PUSH1 0x20 DUP1 DUP4 ADD DUP3 SWAP1 MSTORE DUP3 DUP5 ADD DUP3 SWAP1 MSTORE PUSH1 0x60 DUP1 DUP5 ADD DUP4 SWAP1 MSTORE PUSH1 0x80 DUP1 DUP6 ADD DUP5 SWAP1 MSTORE PUSH1 0xA0 DUP6 ADD DUP5 SWAP1 MSTORE PUSH1 0xC0 DUP6 ADD DUP5 SWAP1 MSTORE PUSH1 0xE0 DUP6 ADD DUP5 SWAP1 MSTORE PUSH2 0x100 DUP6 ADD DUP5 SWAP1 MSTORE PUSH2 0x120 DUP6 ADD DUP5 SWAP1 MSTORE PUSH2 0x140 DUP6 ADD DUP5 SWAP1 MSTORE PUSH2 0x160 DUP6 ADD DUP5 SWAP1 MSTORE PUSH2 0x180 DUP6 ADD DUP5 SWAP1 MSTORE PUSH2 0x1A0 DUP6 ADD DUP5 SWAP1 MSTORE PUSH2 0x1C0 DUP6 ADD DUP5 SWAP1 MSTORE PUSH2 0x1E0 DUP6 ADD DUP5 SWAP1 MSTORE PUSH2 0x200 DUP6 ADD DUP5 SWAP1 MSTORE PUSH2 0x220 DUP6 ADD DUP5 SWAP1 MSTORE PUSH2 0x240 DUP6 ADD DUP5 SWAP1 MSTORE PUSH2 0x260 DUP6 ADD DUP5 SWAP1 MSTORE PUSH2 0x280 DUP6 ADD DUP5 SWAP1 MSTORE PUSH2 0x2A0 DUP6 ADD DUP5 SWAP1 MSTORE PUSH2 0x2C0 DUP6 ADD DUP5 SWAP1 MSTORE PUSH2 0x2E0 DUP6 ADD DUP5 SWAP1 MSTORE PUSH2 0x300 DUP6 ADD DUP5 SWAP1 MSTORE PUSH2 0x320 DUP6 ADD DUP5 SWAP1 MSTORE PUSH2 0x340 DUP6 ADD DUP5 SWAP1 MSTORE PUSH2 0x360 DUP6 ADD DUP5 SWAP1 MSTORE PUSH2 0x380 DUP6 ADD DUP5 SWAP1 MSTORE DUP6 MLOAD SWAP1 DUP2 ADD DUP7 MSTORE DUP4 DUP2 MSTORE SWAP2 DUP3 ADD DUP4 SWAP1 MSTORE SWAP4 DUP2 ADD DUP3 SWAP1 MSTORE SWAP3 DUP4 ADD MSTORE SWAP1 PUSH2 0x3A0 DUP3 ADD MSTORE SWAP1 JUMP JUMPDEST PUSH1 0x0 PUSH2 0x197C PUSH2 0x2EA6 JUMP JUMPDEST SWAP1 POP PUSH1 0x0 PUSH2 0x198D PUSH1 0x8 SLOAD PUSH2 0xFFFF AND SWAP1 JUMP JUMPDEST SWAP1 POP PUSH1 0x0 PUSH2 0x1999 PUSH2 0x123B JUMP JUMPDEST SWAP1 POP PUSH1 0x0 PUSH2 0x19A5 PUSH2 0x1810 JUMP JUMPDEST SWAP1 POP PUSH1 0x0 PUSH2 0x19B3 DUP4 DUP4 PUSH2 0x3B27 JUMP JUMPDEST PUSH1 0x3 SLOAD PUSH1 0x7 SLOAD PUSH1 0x8 SLOAD PUSH1 0x40 MLOAD PUSH4 0x3157D9C7 PUSH1 0xE0 SHL DUP2 MSTORE ADDRESS PUSH1 0x4 DUP3 ADD MSTORE PUSH1 0x24 DUP2 ADD SWAP3 SWAP1 SWAP3 MSTORE PUSH1 0x1 PUSH1 0x48 SHL SWAP1 DIV PUSH1 0xFF AND ISZERO ISZERO PUSH1 0x44 DUP3 ADD MSTORE SWAP2 SWAP3 POP PUSH1 0x0 SWAP2 PUSH1 0x1 PUSH1 0x1 PUSH1 0xA0 SHL SUB SWAP1 SWAP2 AND SWAP1 PUSH4 0x3157D9C7 SWAP1 PUSH1 0x64 ADD PUSH1 0x80 PUSH1 0x40 MLOAD DUP1 DUP4 SUB DUP2 DUP7 GAS STATICCALL ISZERO DUP1 ISZERO PUSH2 0x1A20 JUMPI RETURNDATASIZE PUSH1 0x0 DUP1 RETURNDATACOPY RETURNDATASIZE PUSH1 0x0 REVERT JUMPDEST POP POP POP POP PUSH1 0x40 MLOAD RETURNDATASIZE PUSH1 0x1F NOT PUSH1 0x1F DUP3 ADD AND DUP3 ADD DUP1 PUSH1 0x40 MSTORE POP DUP2 ADD SWAP1 PUSH2 0x1A44 SWAP2 SWAP1 PUSH2 0x4635 JUMP JUMPDEST PUSH1 0x1 SLOAD PUSH1 0x1 PUSH1 0x1 PUSH1 0xA0 SHL SUB AND DUP9 MSTORE PUSH1 0x7 SLOAD PUSH1 0x20 DUP10 ADD MSTORE PUSH1 0xB SLOAD SWAP1 SWAP2 POP PUSH1 0x40 DUP9 ADD SWAP1 PUSH1 0xFF AND PUSH1 0x4 DUP2 GT ISZERO PUSH2 0x1A79 JUMPI PUSH2 0x1A79 PUSH2 0x4293 JUMP JUMPDEST SWAP1 DUP2 PUSH1 0x4 DUP2 GT ISZERO PUSH2 0x1A8C JUMPI PUSH2 0x1A8C PUSH2 0x4293 JUMP JUMPDEST SWAP1 MSTORE POP PUSH1 0x8 SLOAD PUSH1 0xFF PUSH1 0x1 PUSH1 0x40 SHL DUP3 DIV DUP2 AND PUSH1 0x60 DUP11 ADD MSTORE PUSH1 0x1 PUSH1 0x48 SHL SWAP1 SWAP2 DIV DUP2 AND ISZERO ISZERO PUSH1 0x80 DUP10 ADD MSTORE PUSH1 0xF SLOAD PUSH1 0xA0 DUP10 ADD MSTORE PUSH1 0x9 SLOAD PUSH1 0xC0 DUP10 ADD MSTORE PUSH1 0xA SLOAD PUSH1 0xE0 DUP10 ADD MSTORE PUSH1 0xC SLOAD PUSH2 0x100 DUP10 ADD SWAP2 AND PUSH1 0x6 DUP2 GT ISZERO PUSH2 0x1AE6 JUMPI PUSH2 0x1AE6 PUSH2 0x4293 JUMP JUMPDEST SWAP1 DUP2 PUSH1 0x6 DUP2 GT ISZERO PUSH2 0x1AF9 JUMPI PUSH2 0x1AF9 PUSH2 0x4293 JUMP JUMPDEST SWAP1 MSTORE POP PUSH1 0xD SLOAD PUSH2 0x120 DUP9 ADD MSTORE PUSH1 0xE SLOAD PUSH2 0x140 DUP9 ADD MSTORE PUSH1 0x8 SLOAD PUSH2 0xFFFF DUP1 DUP3 AND PUSH2 0x160 DUP11 ADD MSTORE PUSH3 0x10000 DUP3 DIV DUP2 AND PUSH2 0x180 DUP11 ADD MSTORE PUSH5 0x100000000 DUP3 DIV AND PUSH2 0x1A0 DUP10 ADD MSTORE PUSH1 0xFF PUSH1 0x1 PUSH1 0x30 SHL DUP3 DIV DUP2 AND PUSH2 0x1C0 DUP11 ADD MSTORE PUSH1 0x1 PUSH1 0x38 SHL SWAP1 SWAP2 DIV AND PUSH2 0x1E0 DUP9 ADD MSTORE PUSH2 0x200 DUP8 ADD DUP5 SWAP1 MSTORE PUSH2 0x220 DUP8 ADD DUP4 SWAP1 MSTORE PUSH2 0x240 DUP8 ADD DUP3 SWAP1 MSTORE PUSH2 0x1B7C DUP3 DUP8 PUSH2 0x3838 JUMP JUMPDEST PUSH2 0x260 DUP9 ADD MSTORE PUSH2 0x280 DUP8 ADD DUP7 SWAP1 MSTORE PUSH2 0x2A0 DUP8 ADD DUP6 SWAP1 MSTORE PUSH2 0x1B9A PUSH2 0x3578 JUMP JUMPDEST PUSH2 0x2C0 DUP9 ADD MSTORE PUSH1 0x4 DUP1 SLOAD PUSH1 0x40 DUP1 MLOAD PUSH4 0x4C6AFEE5 PUSH1 0xE1 SHL DUP2 MSTORE SWAP1 MLOAD PUSH1 0x1 PUSH1 0x1 PUSH1 0xA0 SHL SUB SWAP1 SWAP3 AND SWAP3 PUSH4 0x98D5FDCA SWAP3 DUP3 DUP3 ADD SWAP3 PUSH1 0x20 SWAP3 SWAP1 DUP3 SWAP1 SUB ADD DUP2 DUP7 GAS STATICCALL ISZERO DUP1 ISZERO PUSH2 0x1BE7 JUMPI RETURNDATASIZE PUSH1 0x0 DUP1 RETURNDATACOPY RETURNDATASIZE PUSH1 0x0 REVERT JUMPDEST POP POP POP POP PUSH1 0x40 MLOAD RETURNDATASIZE PUSH1 0x1F NOT PUSH1 0x1F DUP3 ADD AND DUP3 ADD DUP1 PUSH1 0x40 MSTORE POP DUP2 ADD SWAP1 PUSH2 0x1C0B SWAP2 SWAP1 PUSH2 0x45B3 JUMP JUMPDEST PUSH2 0x2E0 DUP9 ADD MSTORE PUSH2 0x1C19 PUSH2 0x130B JUMP JUMPDEST PUSH2 0x300 DUP9 ADD MSTORE PUSH1 0x2 PUSH1 0xB SLOAD PUSH1 0xFF AND PUSH1 0x4 DUP2 GT ISZERO PUSH2 0x1C38 JUMPI PUSH2 0x1C38 PUSH2 0x4293 JUMP JUMPDEST EQ DUP1 ISZERO PUSH2 0x1C4B JUMPI POP PUSH2 0x1C4B DUP3 DUP7 DUP9 PUSH2 0x3B56 JUMP JUMPDEST ISZERO ISZERO PUSH2 0x320 DUP9 ADD MSTORE PUSH1 0x2 PUSH1 0xB SLOAD PUSH1 0xFF AND PUSH1 0x4 DUP2 GT ISZERO PUSH2 0x1C6C JUMPI PUSH2 0x1C6C PUSH2 0x4293 JUMP JUMPDEST EQ DUP1 ISZERO PUSH2 0x1C79 JUMPI POP DUP2 DUP7 GT ISZERO JUMPDEST ISZERO ISZERO PUSH2 0x340 DUP9 ADD MSTORE PUSH1 0x13 SLOAD PUSH2 0x360 DUP9 ADD MSTORE PUSH1 0x14 SLOAD PUSH2 0x380 DUP9 ADD MSTORE PUSH1 0x40 DUP1 MLOAD PUSH1 0x80 DUP2 ADD DUP3 MSTORE DUP3 MLOAD ISZERO ISZERO DUP2 MSTORE PUSH1 0x20 DUP1 DUP5 ADD MLOAD SWAP1 DUP3 ADD MSTORE DUP3 DUP3 ADD MLOAD SWAP2 DUP2 ADD SWAP2 SWAP1 SWAP2 MSTORE PUSH1 0x60 SWAP2 DUP3 ADD MLOAD SWAP2 DUP2 ADD SWAP2 SWAP1 SWAP2 MSTORE PUSH2 0x3A0 DUP8 ADD MSTORE POP SWAP4 SWAP5 SWAP4 POP POP POP POP JUMP JUMPDEST PUSH1 0x1 SLOAD PUSH1 0x1 PUSH1 0x1 PUSH1 0xA0 SHL SUB AND CALLER EQ PUSH2 0x1D00 JUMPI PUSH1 0x40 MLOAD PUSH4 0x30CD7471 PUSH1 0xE0 SHL DUP2 MSTORE PUSH1 0x4 ADD PUSH1 0x40 MLOAD DUP1 SWAP2 SUB SWAP1 REVERT JUMPDEST PUSH2 0x1D08 PUSH2 0x380E JUMP JUMPDEST PUSH1 0x14 SLOAD DUP1 PUSH2 0x1D4D JUMPI PUSH1 0x40 MLOAD PUSH3 0x461BCD PUSH1 0xE5 SHL DUP2 MSTORE PUSH1 0x20 PUSH1 0x4 DUP3 ADD MSTORE PUSH1 0x12 PUSH1 0x24 DUP3 ADD MSTORE PUSH18 0x2B30BAB63A1D1037379029A61037B93232B9 PUSH1 0x71 SHL PUSH1 0x44 DUP3 ADD MSTORE PUSH1 0x64 ADD PUSH2 0x10F3 JUMP JUMPDEST PUSH1 0x0 PUSH1 0x14 SSTORE PUSH1 0x3 SLOAD PUSH1 0x40 MLOAD PUSH4 0x2F94CDD1 PUSH1 0xE0 SHL DUP2 MSTORE PUSH1 0x4 DUP2 ADD DUP4 SWAP1 MSTORE PUSH1 0x1 PUSH1 0x1 PUSH1 0xA0 SHL SUB SWAP1 SWAP2 AND SWAP1 PUSH4 0x2F94CDD1 SWAP1 PUSH1 0x24 ADD PUSH1 0x0 PUSH1 0x40 MLOAD DUP1 DUP4 SUB DUP2 PUSH1 0x0 DUP8 DUP1 EXTCODESIZE ISZERO DUP1 ISZERO PUSH2 0x1D98 JUMPI PUSH1 0x0 DUP1 REVERT JUMPDEST POP GAS CALL ISZERO DUP1 ISZERO PUSH2 0x1DAC JUMPI RETURNDATASIZE PUSH1 0x0 DUP1 RETURNDATACOPY RETURNDATASIZE PUSH1 0x0 REVERT JUMPDEST POP ADDRESS SWAP3 POP PUSH32 0x7C008348CBDBEBADBA2266268371C327483E2EFAB9563EDE3FEDBB9A45C7C5A8 SWAP2 POP DUP4 SWAP1 POP PUSH1 0x6 JUMPDEST PUSH1 0x40 DUP1 MLOAD SWAP3 DUP4 MSTORE PUSH1 0xFF SWAP1 SWAP2 AND PUSH1 0x20 DUP4 ADD MSTORE ADD PUSH1 0x40 MLOAD DUP1 SWAP2 SUB SWAP1 LOG2 POP PUSH2 0xA1E PUSH1 0x1 PUSH1 0x0 SSTORE JUMP JUMPDEST PUSH1 0x0 PUSH2 0x1E08 PUSH2 0x3B6F JUMP JUMPDEST DUP1 SLOAD SWAP1 SWAP2 POP PUSH1 0xFF PUSH1 0x1 PUSH1 0x40 SHL DUP3 DIV AND ISZERO SWAP1 PUSH8 0xFFFFFFFFFFFFFFFF AND PUSH1 0x0 DUP2 ISZERO DUP1 ISZERO PUSH2 0x1E30 JUMPI POP DUP3 JUMPDEST SWAP1 POP PUSH1 0x0 DUP3 PUSH8 0xFFFFFFFFFFFFFFFF AND PUSH1 0x1 EQ DUP1 ISZERO PUSH2 0x1E4D JUMPI POP ADDRESS EXTCODESIZE ISZERO JUMPDEST SWAP1 POP DUP2 ISZERO DUP1 ISZERO PUSH2 0x1E5B JUMPI POP DUP1 ISZERO JUMPDEST ISZERO PUSH2 0x1E79 JUMPI PUSH1 0x40 MLOAD PUSH4 0xF92EE8A9 PUSH1 0xE0 SHL DUP2 MSTORE PUSH1 0x4 ADD PUSH1 0x40 MLOAD DUP1 SWAP2 SUB SWAP1 REVERT JUMPDEST DUP5 SLOAD PUSH8 0xFFFFFFFFFFFFFFFF NOT AND PUSH1 0x1 OR DUP6 SSTORE DUP4 ISZERO PUSH2 0x1EA3 JUMPI DUP5 SLOAD PUSH1 0xFF PUSH1 0x40 SHL NOT AND PUSH1 0x1 PUSH1 0x40 SHL OR DUP6 SSTORE JUMPDEST DUP13 PUSH1 0x1 PUSH1 0x0 PUSH2 0x100 EXP DUP2 SLOAD DUP2 PUSH1 0x1 PUSH1 0x1 PUSH1 0xA0 SHL SUB MUL NOT AND SWAP1 DUP4 PUSH1 0x1 PUSH1 0x1 PUSH1 0xA0 SHL SUB AND MUL OR SWAP1 SSTORE POP DUP12 PUSH1 0x2 PUSH1 0x0 PUSH2 0x100 EXP DUP2 SLOAD DUP2 PUSH1 0x1 PUSH1 0x1 PUSH1 0xA0 SHL SUB MUL NOT AND SWAP1 DUP4 PUSH1 0x1 PUSH1 0x1 PUSH1 0xA0 SHL SUB AND MUL OR SWAP1 SSTORE POP DUP11 PUSH1 0x3 PUSH1 0x0 PUSH2 0x100 EXP DUP2 SLOAD DUP2 PUSH1 0x1 PUSH1 0x1 PUSH1 0xA0 SHL SUB MUL NOT AND SWAP1 DUP4 PUSH1 0x1 PUSH1 0x1 PUSH1 0xA0 SHL SUB AND MUL OR SWAP1 SSTORE POP DUP10 PUSH1 0x4 PUSH1 0x0 PUSH2 0x100 EXP DUP2 SLOAD DUP2 PUSH1 0x1 PUSH1 0x1 PUSH1 0xA0 SHL SUB MUL NOT AND SWAP1 DUP4 PUSH1 0x1 PUSH1 0x1 PUSH1 0xA0 SHL SUB AND MUL OR SWAP1 SSTORE POP DUP9 PUSH1 0x5 PUSH1 0x0 PUSH2 0x100 EXP DUP2 SLOAD DUP2 PUSH1 0x1 PUSH1 0x1 PUSH1 0xA0 SHL SUB MUL NOT AND SWAP1 DUP4 PUSH1 0x1 PUSH1 0x1 PUSH1 0xA0 SHL SUB AND MUL OR SWAP1 SSTORE POP DUP8 PUSH1 0x6 PUSH1 0x0 PUSH2 0x100 EXP DUP2 SLOAD DUP2 PUSH1 0x1 PUSH1 0x1 PUSH1 0xA0 SHL SUB MUL NOT AND SWAP1 DUP4 PUSH1 0x1 PUSH1 0x1 PUSH1 0xA0 SHL SUB AND MUL OR SWAP1 SSTORE POP DUP7 PUSH1 0x7 DUP2 SWAP1 SSTORE POP DUP6 PUSH1 0x0 ADD PUSH1 0x20 DUP2 ADD SWAP1 PUSH2 0x1FA7 SWAP2 SWAP1 PUSH2 0x4725 JUMP JUMPDEST PUSH1 0x8 DUP1 SLOAD PUSH2 0xFFFF NOT AND PUSH2 0xFFFF SWAP3 SWAP1 SWAP3 AND SWAP2 SWAP1 SWAP2 OR SWAP1 SSTORE PUSH2 0x1FCD PUSH1 0x40 DUP8 ADD PUSH1 0x20 DUP9 ADD PUSH2 0x4725 JUMP JUMPDEST PUSH1 0x8 DUP1 SLOAD PUSH2 0xFFFF SWAP3 SWAP1 SWAP3 AND PUSH3 0x10000 MUL PUSH4 0xFFFF0000 NOT SWAP1 SWAP3 AND SWAP2 SWAP1 SWAP2 OR SWAP1 SSTORE PUSH2 0x1FFC PUSH1 0x60 DUP8 ADD PUSH1 0x40 DUP9 ADD PUSH2 0x4725 JUMP JUMPDEST PUSH1 0x8 DUP1 SLOAD PUSH2 0xFFFF SWAP3 SWAP1 SWAP3 AND PUSH5 0x100000000 MUL PUSH6 0xFFFF00000000 NOT SWAP1 SWAP3 AND SWAP2 SWAP1 SWAP2 OR SWAP1 SSTORE PUSH2 0x202F PUSH1 0x80 DUP8 ADD PUSH1 0x60 DUP9 ADD PUSH2 0x4749 JUMP JUMPDEST PUSH1 0x8 DUP1 SLOAD PUSH1 0xFF SWAP3 SWAP1 SWAP3 AND PUSH1 0x1 PUSH1 0x30 SHL MUL PUSH7 0xFF000000000000 NOT SWAP1 SWAP3 AND SWAP2 SWAP1 SWAP2 OR SWAP1 SSTORE PUSH2 0x2061 PUSH1 0xA0 DUP8 ADD PUSH1 0x80 DUP9 ADD PUSH2 0x4749 JUMP JUMPDEST PUSH1 0x8 DUP1 SLOAD PUSH1 0xFF SWAP3 SWAP1 SWAP3 AND PUSH1 0x1 PUSH1 0x38 SHL MUL PUSH8 0xFF00000000000000 NOT SWAP1 SWAP3 AND SWAP2 SWAP1 SWAP2 OR SWAP1 SSTORE PUSH1 0xB DUP1 SLOAD PUSH1 0xFF NOT AND SWAP1 SSTORE DUP4 ISZERO PUSH2 0x20D4 JUMPI DUP5 SLOAD PUSH1 0xFF PUSH1 0x40 SHL NOT AND DUP6 SSTORE PUSH1 0x40 MLOAD PUSH1 0x1 DUP2 MSTORE PUSH32 0xC7F505B2F371AE2175EE4913F4499E1F2633A7B5936321EED1CDAEB6115181D2 SWAP1 PUSH1 0x20 ADD PUSH1 0x40 MLOAD DUP1 SWAP2 SUB SWAP1 LOG1 JUMPDEST POP POP POP POP POP POP POP POP POP POP POP POP POP JUMP JUMPDEST PUSH1 0x1 SLOAD PUSH1 0x1 PUSH1 0x1 PUSH1 0xA0 SHL SUB AND CALLER EQ PUSH2 0x210E JUMPI PUSH1 0x40 MLOAD PUSH4 0x30CD7471 PUSH1 0xE0 SHL DUP2 MSTORE PUSH1 0x4 ADD PUSH1 0x40 MLOAD DUP1 SWAP2 SUB SWAP1 REVERT JUMPDEST PUSH2 0x2116 PUSH2 0x380E JUMP JUMPDEST PUSH1 0x13 SLOAD DUP1 PUSH2 0x215B JUMPI PUSH1 0x40 MLOAD PUSH3 0x461BCD PUSH1 0xE5 SHL DUP2 MSTORE PUSH1 0x20 PUSH1 0x4 DUP3 ADD MSTORE PUSH1 0x12 PUSH1 0x24 DUP3 ADD MSTORE PUSH18 0x2B30BAB63A1D103737902A281037B93232B9 PUSH1 0x71 SHL PUSH1 0x44 DUP3 ADD MSTORE PUSH1 0x64 ADD PUSH2 0x10F3 JUMP JUMPDEST PUSH1 0x0 PUSH1 0x13 SSTORE PUSH1 0x3 SLOAD PUSH1 0x40 MLOAD PUSH4 0x2F94CDD1 PUSH1 0xE0 SHL DUP2 MSTORE PUSH1 0x4 DUP2 ADD DUP4 SWAP1 MSTORE PUSH1 0x1 PUSH1 0x1 PUSH1 0xA0 SHL SUB SWAP1 SWAP2 AND SWAP1 PUSH4 0x2F94CDD1 SWAP1 PUSH1 0x24 ADD PUSH1 0x0 PUSH1 0x40 MLOAD DUP1 DUP4 SUB DUP2 PUSH1 0x0 DUP8 DUP1 EXTCODESIZE ISZERO DUP1 ISZERO PUSH2 0x21A6 JUMPI PUSH1 0x0 DUP1 REVERT JUMPDEST POP GAS CALL ISZERO DUP1 ISZERO PUSH2 0x21BA JUMPI RETURNDATASIZE PUSH1 0x0 DUP1 RETURNDATACOPY RETURNDATASIZE PUSH1 0x0 REVERT JUMPDEST POP ADDRESS SWAP3 POP PUSH32 0x7C008348CBDBEBADBA2266268371C327483E2EFAB9563EDE3FEDBB9A45C7C5A8 SWAP2 POP DUP4 SWAP1 POP PUSH1 0x5 PUSH2 0x1DD9 JUMP JUMPDEST PUSH1 0xB SLOAD PUSH1 0xFF AND PUSH1 0x3 DUP2 PUSH1 0x4 DUP2 GT ISZERO PUSH2 0x2205 JUMPI PUSH2 0x2205 PUSH2 0x4293 JUMP JUMPDEST EQ ISZERO DUP1 ISZERO PUSH2 0x2225 JUMPI POP PUSH1 0x1 DUP2 PUSH1 0x4 DUP2 GT ISZERO PUSH2 0x2222 JUMPI PUSH2 0x2222 PUSH2 0x4293 JUMP JUMPDEST EQ ISZERO JUMPDEST ISZERO PUSH2 0x2243 JUMPI PUSH1 0x40 MLOAD PUSH4 0x4291DB15 PUSH1 0xE1 SHL DUP2 MSTORE PUSH1 0x4 ADD PUSH1 0x40 MLOAD DUP1 SWAP2 SUB SWAP1 REVERT JUMPDEST PUSH1 0x4 PUSH1 0xC SLOAD PUSH1 0xFF AND PUSH1 0x6 DUP2 GT ISZERO PUSH2 0x225C JUMPI PUSH2 0x225C PUSH2 0x4293 JUMP JUMPDEST SUB PUSH2 0x227A JUMPI PUSH1 0x40 MLOAD PUSH4 0x4291DB15 PUSH1 0xE1 SHL DUP2 MSTORE PUSH1 0x4 ADD PUSH1 0x40 MLOAD DUP1 SWAP2 SUB SWAP1 REVERT JUMPDEST PUSH1 0xE SLOAD PUSH2 0x228A SWAP1 PUSH2 0x12C SWAP1 PUSH2 0x46EB JUMP JUMPDEST TIMESTAMP GT PUSH2 0x22A9 JUMPI PUSH1 0x40 MLOAD PUSH4 0x828630FB PUSH1 0xE0 SHL DUP2 MSTORE PUSH1 0x4 ADD PUSH1 0x40 MLOAD DUP1 SWAP2 SUB SWAP1 REVERT JUMPDEST PUSH1 0xD DUP1 SLOAD PUSH1 0xC DUP1 SLOAD PUSH1 0xFF NOT AND SWAP1 SSTORE PUSH1 0x0 SWAP2 DUP3 SWAP1 SSTORE PUSH1 0xE SWAP2 SWAP1 SWAP2 SSTORE PUSH1 0x3 DUP3 PUSH1 0x4 DUP2 GT ISZERO PUSH2 0x22D7 JUMPI PUSH2 0x22D7 PUSH2 0x4293 JUMP JUMPDEST SUB PUSH2 0x22EE JUMPI PUSH1 0xB DUP1 SLOAD PUSH1 0xFF NOT AND PUSH1 0x2 OR SWAP1 SSTORE PUSH2 0x2385 JUMP JUMPDEST PUSH1 0x9 SLOAD PUSH1 0x5 SLOAD PUSH1 0x40 MLOAD PUSH4 0x70A08231 PUSH1 0xE0 SHL DUP2 MSTORE ADDRESS PUSH1 0x4 DUP3 ADD MSTORE PUSH1 0x1 PUSH1 0x1 PUSH1 0xA0 SHL SUB SWAP1 SWAP2 AND SWAP1 PUSH4 0x70A08231 SWAP1 PUSH1 0x24 ADD PUSH1 0x20 PUSH1 0x40 MLOAD DUP1 DUP4 SUB DUP2 DUP7 GAS STATICCALL ISZERO DUP1 ISZERO PUSH2 0x2339 JUMPI RETURNDATASIZE PUSH1 0x0 DUP1 RETURNDATACOPY RETURNDATASIZE PUSH1 0x0 REVERT JUMPDEST POP POP POP POP PUSH1 0x40 MLOAD RETURNDATASIZE PUSH1 0x1F NOT PUSH1 0x1F DUP3 ADD AND DUP3 ADD DUP1 PUSH1 0x40 MSTORE POP DUP2 ADD SWAP1 PUSH2 0x235D SWAP2 SWAP1 PUSH2 0x45B3 JUMP JUMPDEST PUSH1 0x9 DUP2 SWAP1 SSTORE DUP2 EQ PUSH2 0x2379 JUMPI PUSH2 0x2379 DUP2 PUSH1 0x9 SLOAD PUSH2 0x1171 SWAP2 SWAP1 PUSH2 0x46FE JUMP JUMPDEST POP PUSH1 0xB DUP1 SLOAD PUSH1 0xFF NOT AND SWAP1 SSTORE JUMPDEST PUSH1 0x40 MLOAD DUP2 DUP2 MSTORE ADDRESS SWAP1 PUSH32 0xAC6F236AB4D2206E338939C4173730E691402945CFB6A6C5584FECFB5EBA4DFE SWAP1 PUSH1 0x20 ADD PUSH1 0x40 MLOAD DUP1 SWAP2 SUB SWAP1 LOG2 POP POP JUMP JUMPDEST PUSH1 0x1 SLOAD PUSH1 0x1 PUSH1 0x1 PUSH1 0xA0 SHL SUB AND CALLER EQ PUSH2 0x23E9 JUMPI PUSH1 0x40 MLOAD PUSH4 0x30CD7471 PUSH1 0xE0 SHL DUP2 MSTORE PUSH1 0x4 ADD PUSH1 0x40 MLOAD DUP1 SWAP2 SUB SWAP1 REVERT JUMPDEST PUSH1 0x2 PUSH1 0x0 SWAP1 SLOAD SWAP1 PUSH2 0x100 EXP SWAP1 DIV PUSH1 0x1 PUSH1 0x1 PUSH1 0xA0 SHL SUB AND PUSH1 0x1 PUSH1 0x1 PUSH1 0xA0 SHL SUB AND PUSH4 0x5C975ABB PUSH1 0x40 MLOAD DUP2 PUSH4 0xFFFFFFFF AND PUSH1 0xE0 SHL DUP2 MSTORE PUSH1 0x4 ADD PUSH1 0x20 PUSH1 0x40 MLOAD DUP1 DUP4 SUB DUP2 DUP7 GAS STATICCALL ISZERO DUP1 ISZERO PUSH2 0x243C JUMPI RETURNDATASIZE PUSH1 0x0 DUP1 RETURNDATACOPY RETURNDATASIZE PUSH1 0x0 REVERT JUMPDEST POP POP POP POP PUSH1 0x40 MLOAD RETURNDATASIZE PUSH1 0x1F NOT PUSH1 0x1F DUP3 ADD AND DUP3 ADD DUP1 PUSH1 0x40 MSTORE POP DUP2 ADD SWAP1 PUSH2 0x2460 SWAP2 SWAP1 PUSH2 0x45CC JUMP JUMPDEST ISZERO PUSH2 0x247E JUMPI PUSH1 0x40 MLOAD PUSH4 0x4291DB15 PUSH1 0xE1 SHL DUP2 MSTORE PUSH1 0x4 ADD PUSH1 0x40 MLOAD DUP1 SWAP2 SUB SWAP1 REVERT JUMPDEST PUSH2 0x2486 PUSH2 0x380E JUMP JUMPDEST PUSH1 0x0 PUSH1 0xB SLOAD PUSH1 0xFF AND PUSH1 0x4 DUP2 GT ISZERO PUSH2 0x249F JUMPI PUSH2 0x249F PUSH2 0x4293 JUMP JUMPDEST EQ PUSH2 0x24BD JUMPI PUSH1 0x40 MLOAD PUSH4 0x4291DB15 PUSH1 0xE1 SHL DUP2 MSTORE PUSH1 0x4 ADD PUSH1 0x40 MLOAD DUP1 SWAP2 SUB SWAP1 REVERT JUMPDEST PUSH3 0xF4240 PUSH1 0x9 SLOAD LT ISZERO PUSH2 0x24E3 JUMPI PUSH1 0x40 MLOAD PUSH4 0x4DBFE81 PUSH1 0xE2 SHL DUP2 MSTORE PUSH1 0x4 ADD PUSH1 0x40 MLOAD DUP1 SWAP2 SUB SWAP1 REVERT JUMPDEST PUSH1 0x1 DUP4 PUSH1 0xFF AND LT DUP1 PUSH2 0x2504 JUMPI POP PUSH1 0x8 SLOAD PUSH1 0xFF PUSH1 0x1 PUSH1 0x38 SHL SWAP1 SWAP2 DIV DUP2 AND SWAP1 DUP5 AND GT JUMPDEST ISZERO PUSH2 0x2522 JUMPI PUSH1 0x40 MLOAD PUSH4 0x522007A5 PUSH1 0xE0 SHL DUP2 MSTORE PUSH1 0x4 ADD PUSH1 0x40 MLOAD DUP1 SWAP2 SUB SWAP1 REVERT JUMPDEST PUSH6 0x5AF3107A4000 CALLVALUE LT ISZERO PUSH2 0x2549 JUMPI PUSH1 0x40 MLOAD PUSH4 0x3ADC8FE7 PUSH1 0xE2 SHL DUP2 MSTORE PUSH1 0x4 ADD PUSH1 0x40 MLOAD DUP1 SWAP2 SUB SWAP1 REVERT JUMPDEST PUSH1 0x0 DUP3 GT PUSH2 0x2599 JUMPI PUSH1 0x40 MLOAD PUSH3 0x461BCD PUSH1 0xE5 SHL DUP2 MSTORE PUSH1 0x20 PUSH1 0x4 DUP3 ADD MSTORE PUSH1 0x17 PUSH1 0x24 DUP3 ADD MSTORE PUSH32 0x5661756C743A207A65726F206C696D6974207072696365000000000000000000 PUSH1 0x44 DUP3 ADD MSTORE PUSH1 0x64 ADD PUSH2 0x10F3 JUMP JUMPDEST PUSH1 0x8 DUP1 SLOAD PUSH2 0xFFFF PUSH1 0x40 SHL NOT AND PUSH1 0x1 PUSH1 0x40 SHL PUSH1 0xFF DUP7 AND MUL PUSH1 0xFF PUSH1 0x48 SHL NOT AND OR PUSH1 0x1 PUSH1 0x48 SHL DUP4 ISZERO ISZERO MUL OR SWAP1 SSTORE PUSH1 0x3 SLOAD PUSH1 0x9 SLOAD PUSH1 0x5 SLOAD PUSH2 0x25E4 SWAP3 PUSH1 0x1 PUSH1 0x1 PUSH1 0xA0 SHL SUB SWAP2 DUP3 AND SWAP3 SWAP2 AND SWAP1 PUSH2 0x38C4 JUMP JUMPDEST PUSH1 0x3 SLOAD PUSH1 0x7 SLOAD PUSH1 0x9 SLOAD PUSH1 0x40 MLOAD PUSH4 0x104AA81 PUSH1 0xE3 SHL DUP2 MSTORE PUSH1 0x4 DUP2 ADD SWAP3 SWAP1 SWAP3 MSTORE PUSH1 0x24 DUP3 ADD MSTORE PUSH1 0x44 DUP2 ADD DUP5 SWAP1 MSTORE PUSH1 0xFF DUP6 AND PUSH1 0x64 DUP3 ADD MSTORE DUP3 ISZERO ISZERO PUSH1 0x84 DUP3 ADD MSTORE PUSH1 0x0 SWAP2 PUSH1 0x1 PUSH1 0x1 PUSH1 0xA0 SHL SUB AND SWAP1 PUSH4 0x8255408 SWAP1 CALLVALUE SWAP1 PUSH1 0xA4 ADD PUSH1 0x20 PUSH1 0x40 MLOAD DUP1 DUP4 SUB DUP2 DUP6 DUP9 GAS CALL ISZERO DUP1 ISZERO PUSH2 0x2655 JUMPI RETURNDATASIZE PUSH1 0x0 DUP1 RETURNDATACOPY RETURNDATASIZE PUSH1 0x0 REVERT JUMPDEST POP POP POP POP POP PUSH1 0x40 MLOAD RETURNDATASIZE PUSH1 0x1F NOT PUSH1 0x1F DUP3 ADD AND DUP3 ADD DUP1 PUSH1 0x40 MSTORE POP DUP2 ADD SWAP1 PUSH2 0x267A SWAP2 SWAP1 PUSH2 0x45B3 JUMP JUMPDEST PUSH1 0xB DUP1 SLOAD PUSH1 0x1 PUSH1 0xFF NOT SWAP2 DUP3 AND OR SWAP1 SWAP2 SSTORE PUSH1 0x40 DUP1 MLOAD PUSH1 0x60 DUP1 DUP3 ADD DUP4 MSTORE PUSH1 0x4 DUP1 DUP4 MSTORE PUSH1 0x20 DUP1 DUP5 ADD DUP8 SWAP1 MSTORE TIMESTAMP SWAP4 DUP6 ADD DUP5 SWAP1 MSTORE PUSH1 0xC DUP1 SLOAD SWAP1 SWAP7 AND SWAP1 SWAP2 OR SWAP1 SWAP5 SSTORE PUSH1 0xD DUP6 SWAP1 SSTORE PUSH1 0xE SWAP2 SWAP1 SWAP2 SSTORE DUP2 MLOAD DUP5 DUP2 MSTORE PUSH1 0xFF DUP10 AND SWAP4 DUP2 ADD SWAP4 SWAP1 SWAP4 MSTORE DUP6 ISZERO ISZERO DUP4 DUP4 ADD MSTORE SWAP1 MLOAD SWAP3 SWAP4 POP ADDRESS SWAP3 PUSH32 0x4E3F6D3EE7E3781D95140A8C1BBB9E544AD186D11D46B416C5204053317E0489 SWAP3 DUP2 SWAP1 SUB SWAP1 SWAP2 ADD SWAP1 LOG2 POP PUSH2 0x2714 PUSH1 0x1 PUSH1 0x0 SSTORE JUMP JUMPDEST POP POP POP JUMP JUMPDEST PUSH1 0x1 SLOAD PUSH1 0x1 PUSH1 0x1 PUSH1 0xA0 SHL SUB AND CALLER EQ PUSH2 0x2744 JUMPI PUSH1 0x40 MLOAD PUSH4 0x30CD7471 PUSH1 0xE0 SHL DUP2 MSTORE PUSH1 0x4 ADD PUSH1 0x40 MLOAD DUP1 SWAP2 SUB SWAP1 REVERT JUMPDEST PUSH1 0x2 PUSH1 0x0 SWAP1 SLOAD SWAP1 PUSH2 0x100 EXP SWAP1 DIV PUSH1 0x1 PUSH1 0x1 PUSH1 0xA0 SHL SUB AND PUSH1 0x1 PUSH1 0x1 PUSH1 0xA0 SHL SUB AND PUSH4 0x5C975ABB PUSH1 0x40 MLOAD DUP2 PUSH4 0xFFFFFFFF AND PUSH1 0xE0 SHL DUP2 MSTORE PUSH1 0x4 ADD PUSH1 0x20 PUSH1 0x40 MLOAD DUP1 DUP4 SUB DUP2 DUP7 GAS STATICCALL ISZERO DUP1 ISZERO PUSH2 0x2797 JUMPI RETURNDATASIZE PUSH1 0x0 DUP1 RETURNDATACOPY RETURNDATASIZE PUSH1 0x0 REVERT JUMPDEST POP POP POP POP PUSH1 0x40 MLOAD RETURNDATASIZE PUSH1 0x1F NOT PUSH1 0x1F DUP3 ADD AND DUP3 ADD DUP1 PUSH1 0x40 MSTORE POP DUP2 ADD SWAP1 PUSH2 0x27BB SWAP2 SWAP1 PUSH2 0x45CC JUMP JUMPDEST ISZERO PUSH2 0x27D9 JUMPI PUSH1 0x40 MLOAD PUSH4 0x4291DB15 PUSH1 0xE1 SHL DUP2 MSTORE PUSH1 0x4 ADD PUSH1 0x40 MLOAD DUP1 SWAP2 SUB SWAP1 REVERT JUMPDEST PUSH2 0x27E1 PUSH2 0x380E JUMP JUMPDEST PUSH1 0x2 PUSH1 0xB SLOAD PUSH1 0xFF AND PUSH1 0x4 DUP2 GT ISZERO PUSH2 0x27FA JUMPI PUSH2 0x27FA PUSH2 0x4293 JUMP JUMPDEST EQ PUSH2 0x2818 JUMPI PUSH1 0x40 MLOAD PUSH4 0x4291DB15 PUSH1 0xE1 SHL DUP2 MSTORE PUSH1 0x4 ADD PUSH1 0x40 MLOAD DUP1 SWAP2 SUB SWAP1 REVERT JUMPDEST PUSH6 0x5AF3107A4000 CALLVALUE LT ISZERO PUSH2 0x283F JUMPI PUSH1 0x40 MLOAD PUSH4 0x3ADC8FE7 PUSH1 0xE2 SHL DUP2 MSTORE PUSH1 0x4 ADD PUSH1 0x40 MLOAD DUP1 SWAP2 SUB SWAP1 REVERT JUMPDEST PUSH1 0x0 DUP2 GT PUSH2 0x2886 JUMPI PUSH1 0x40 MLOAD PUSH3 0x461BCD PUSH1 0xE5 SHL DUP2 MSTORE PUSH1 0x20 PUSH1 0x4 DUP3 ADD MSTORE PUSH1 0x14 PUSH1 0x24 DUP3 ADD MSTORE PUSH20 0x5661756C743A207A65726F205450207072696365 PUSH1 0x60 SHL PUSH1 0x44 DUP3 ADD MSTORE PUSH1 0x64 ADD PUSH2 0x10F3 JUMP JUMPDEST PUSH1 0x3 SLOAD PUSH1 0xF SLOAD PUSH1 0x40 MLOAD PUSH4 0x3483BDD9 PUSH1 0xE1 SHL DUP2 MSTORE PUSH1 0x0 SWAP3 PUSH1 0x1 PUSH1 0x1 PUSH1 0xA0 SHL SUB AND SWAP2 PUSH4 0x69077BB2 SWAP2 CALLVALUE SWAP2 PUSH2 0x28C5 SWAP2 DUP8 SWAP1 PUSH1 0x4 ADD SWAP2 DUP3 MSTORE PUSH1 0x20 DUP3 ADD MSTORE PUSH1 0x40 ADD SWAP1 JUMP JUMPDEST PUSH1 0x20 PUSH1 0x40 MLOAD DUP1 DUP4 SUB DUP2 DUP6 DUP9 GAS CALL ISZERO DUP1 ISZERO PUSH2 0x28E3 JUMPI RETURNDATASIZE PUSH1 0x0 DUP1 RETURNDATACOPY RETURNDATASIZE PUSH1 0x0 REVERT JUMPDEST POP POP POP POP POP PUSH1 0x40 MLOAD RETURNDATASIZE PUSH1 0x1F NOT PUSH1 0x1F DUP3 ADD AND DUP3 ADD DUP1 PUSH1 0x40 MSTORE POP DUP2 ADD SWAP1 PUSH2 0x2908 SWAP2 SWAP1 PUSH2 0x45B3 JUMP JUMPDEST PUSH1 0x13 DUP2 SWAP1 SSTORE PUSH1 0x40 DUP1 MLOAD DUP3 DUP2 MSTORE PUSH1 0x20 DUP2 ADD DUP6 SWAP1 MSTORE SWAP2 SWAP3 POP ADDRESS SWAP2 PUSH32 0x44E28821089A6B1156324CBDBA5BA5C2A16B5B2058557FAA01C40BF3138BAB25 SWAP2 ADD PUSH2 0x1650 JUMP JUMPDEST PUSH1 0x1 SLOAD PUSH1 0x1 PUSH1 0x1 PUSH1 0xA0 SHL SUB AND CALLER EQ PUSH2 0x2973 JUMPI PUSH1 0x40 MLOAD PUSH4 0x30CD7471 PUSH1 0xE0 SHL DUP2 MSTORE PUSH1 0x4 ADD PUSH1 0x40 MLOAD DUP1 SWAP2 SUB SWAP1 REVERT JUMPDEST PUSH1 0x2 PUSH1 0x0 SWAP1 SLOAD SWAP1 PUSH2 0x100 EXP SWAP1 DIV PUSH1 0x1 PUSH1 0x1 PUSH1 0xA0 SHL SUB AND PUSH1 0x1 PUSH1 0x1 PUSH1 0xA0 SHL SUB AND PUSH4 0x5C975ABB PUSH1 0x40 MLOAD DUP2 PUSH4 0xFFFFFFFF AND PUSH1 0xE0 SHL DUP2 MSTORE PUSH1 0x4 ADD PUSH1 0x20 PUSH1 0x40 MLOAD DUP1 DUP4 SUB DUP2 DUP7 GAS STATICCALL ISZERO DUP1 ISZERO PUSH2 0x29C6 JUMPI RETURNDATASIZE PUSH1 0x0 DUP1 RETURNDATACOPY RETURNDATASIZE PUSH1 0x0 REVERT JUMPDEST POP POP POP POP PUSH1 0x40 MLOAD RETURNDATASIZE PUSH1 0x1F NOT PUSH1 0x1F DUP3 ADD AND DUP3 ADD DUP1 PUSH1 0x40 MSTORE POP DUP2 ADD SWAP1 PUSH2 0x29EA SWAP2 SWAP1 PUSH2 0x45CC JUMP JUMPDEST ISZERO PUSH2 0x2A08 JUMPI PUSH1 0x40 MLOAD PUSH4 0x4291DB15 PUSH1 0xE1 SHL DUP2 MSTORE PUSH1 0x4 ADD PUSH1 0x40 MLOAD DUP1 SWAP2 SUB SWAP1 REVERT JUMPDEST PUSH2 0x2A10 PUSH2 0x380E JUMP JUMPDEST PUSH1 0x2 PUSH1 0xB SLOAD PUSH1 0xFF AND PUSH1 0x4 DUP2 GT ISZERO PUSH2 0x2A29 JUMPI PUSH2 0x2A29 PUSH2 0x4293 JUMP JUMPDEST EQ PUSH2 0x2A47 JUMPI PUSH1 0x40 MLOAD PUSH4 0x4291DB15 PUSH1 0xE1 SHL DUP2 MSTORE PUSH1 0x4 ADD PUSH1 0x40 MLOAD DUP1 SWAP2 SUB SWAP1 REVERT JUMPDEST PUSH1 0x0 DUP2 GT PUSH2 0x2A83 JUMPI PUSH1 0x40 MLOAD PUSH3 0x461BCD PUSH1 0xE5 SHL DUP2 MSTORE PUSH1 0x20 PUSH1 0x4 DUP3 ADD MSTORE PUSH1 0x9 PUSH1 0x24 DUP3 ADD MSTORE PUSH9 0x1E995C9BC81B5A5B9D PUSH1 0xBA SHL PUSH1 0x44 DUP3 ADD MSTORE PUSH1 0x64 ADD PUSH2 0x10F3 JUMP JUMPDEST PUSH2 0x2A8B PUSH2 0x3A45 JUMP JUMPDEST PUSH1 0x0 PUSH2 0x2A95 PUSH2 0x3578 JUMP JUMPDEST SWAP1 POP DUP1 PUSH1 0x0 SUB PUSH2 0x2AB8 JUMPI PUSH1 0x40 MLOAD PUSH4 0x5296A209 PUSH1 0xE1 SHL DUP2 MSTORE PUSH1 0x4 ADD PUSH1 0x40 MLOAD DUP1 SWAP2 SUB SWAP1 REVERT JUMPDEST PUSH1 0x0 DUP3 PUSH1 0xA SLOAD PUSH2 0x2AC8 SWAP2 SWAP1 PUSH2 0x46EB JUMP JUMPDEST SWAP1 POP PUSH1 0x0 PUSH2 0x2B21 PUSH2 0x2AD7 PUSH2 0x123B JUMP JUMPDEST PUSH1 0x4 DUP1 SLOAD PUSH1 0x40 DUP1 MLOAD PUSH4 0x4C6AFEE5 PUSH1 0xE1 SHL DUP2 MSTORE SWAP1 MLOAD PUSH2 0xC32 SWAP4 DUP9 SWAP4 PUSH1 0x1 PUSH1 0x1 PUSH1 0xA0 SHL SUB AND SWAP3 PUSH4 0x98D5FDCA SWAP3 DUP2 DUP4 ADD SWAP3 PUSH1 0x20 SWAP3 DUP3 SWAP1 SUB ADD DUP2 DUP7 GAS STATICCALL ISZERO DUP1 ISZERO PUSH2 0x154E JUMPI RETURNDATASIZE PUSH1 0x0 DUP1 RETURNDATACOPY RETURNDATASIZE PUSH1 0x0 REVERT JUMPDEST SWAP1 POP DUP1 DUP4 LT ISZERO PUSH2 0x2B44 JUMPI PUSH1 0x40 MLOAD PUSH4 0x5296A209 PUSH1 0xE1 SHL DUP2 MSTORE PUSH1 0x4 ADD PUSH1 0x40 MLOAD DUP1 SWAP2 SUB SWAP1 REVERT JUMPDEST PUSH2 0x2710 PUSH1 0x19 PUSH2 0x2BA3 PUSH2 0x1357 DUP8 PUSH1 0x4 PUSH1 0x0 SWAP1 SLOAD SWAP1 PUSH2 0x100 EXP SWAP1 DIV PUSH1 0x1 PUSH1 0x1 PUSH1 0xA0 SHL SUB AND PUSH1 0x1 PUSH1 0x1 PUSH1 0xA0 SHL SUB AND PUSH4 0x98D5FDCA PUSH1 0x40 MLOAD DUP2 PUSH4 0xFFFFFFFF AND PUSH1 0xE0 SHL DUP2 MSTORE PUSH1 0x4 ADD PUSH1 0x20 PUSH1 0x40 MLOAD DUP1 DUP4 SUB DUP2 DUP7 GAS STATICCALL ISZERO DUP1 ISZERO PUSH2 0x154E JUMPI RETURNDATASIZE PUSH1 0x0 DUP1 RETURNDATACOPY RETURNDATASIZE PUSH1 0x0 REVERT JUMPDEST PUSH2 0x2BAD SWAP2 SWAP1 PUSH2 0x46B2 JUMP JUMPDEST PUSH2 0x2BB7 SWAP2 SWAP1 PUSH2 0x46C9 JUMP JUMPDEST PUSH1 0x11 PUSH1 0x0 DUP3 DUP3 SLOAD PUSH2 0x2BC8 SWAP2 SWAP1 PUSH2 0x46EB JUMP JUMPDEST SWAP1 SWAP2 SSTORE POP POP PUSH1 0xA DUP3 SWAP1 SSTORE PUSH1 0x6 SLOAD PUSH1 0x1 SLOAD PUSH1 0x40 MLOAD PUSH4 0x40C10F19 PUSH1 0xE0 SHL DUP2 MSTORE PUSH1 0x1 PUSH1 0x1 PUSH1 0xA0 SHL SUB SWAP2 DUP3 AND PUSH1 0x4 DUP3 ADD MSTORE PUSH1 0x24 DUP2 ADD DUP8 SWAP1 MSTORE SWAP2 AND SWAP1 PUSH4 0x40C10F19 SWAP1 PUSH1 0x44 ADD PUSH1 0x0 PUSH1 0x40 MLOAD DUP1 DUP4 SUB DUP2 PUSH1 0x0 DUP8 DUP1 EXTCODESIZE ISZERO DUP1 ISZERO PUSH2 0x2C22 JUMPI PUSH1 0x0 DUP1 REVERT JUMPDEST POP GAS CALL ISZERO DUP1 ISZERO PUSH2 0x2C36 JUMPI RETURNDATASIZE PUSH1 0x0 DUP1 RETURNDATACOPY RETURNDATASIZE PUSH1 0x0 REVERT JUMPDEST POP POP PUSH1 0x40 MLOAD DUP7 DUP2 MSTORE ADDRESS SWAP3 POP PUSH32 0xFC9C378C70D6C7D7ECB2262305DFC360E194E5027FD30900FEDAB89BCE176C24 SWAP2 POP PUSH1 0x20 ADD PUSH1 0x40 MLOAD DUP1 SWAP2 SUB SWAP1 LOG2 POP POP POP PUSH2 0x1180 PUSH1 0x1 PUSH1 0x0 SSTORE JUMP JUMPDEST PUSH1 0x3 SLOAD PUSH1 0x1 PUSH1 0x1 PUSH1 0xA0 SHL SUB AND CALLER EQ PUSH2 0x2CA7 JUMPI PUSH1 0x40 MLOAD PUSH4 0x38A3CEBB PUSH1 0xE0 SHL DUP2 MSTORE PUSH1 0x4 ADD PUSH1 0x40 MLOAD DUP1 SWAP2 SUB SWAP1 REVERT JUMPDEST PUSH2 0x2CAF PUSH2 0x380E JUMP JUMPDEST PUSH1 0x13 SLOAD DUP2 EQ DUP1 PUSH2 0x2CC0 JUMPI POP PUSH1 0x14 SLOAD DUP2 EQ JUMPDEST ISZERO PUSH2 0x2CDC JUMPI PUSH1 0x0 PUSH1 0x13 DUP2 SWAP1 SSTORE PUSH1 0x14 SSTORE PUSH2 0x2CD7 PUSH2 0x3B98 JUMP JUMPDEST PUSH2 0x1176 JUMP JUMPDEST PUSH1 0xD SLOAD DUP2 EQ PUSH2 0x2CFE JUMPI PUSH1 0x40 MLOAD PUSH4 0xEE9F2D53 PUSH1 0xE0 SHL DUP2 MSTORE PUSH1 0x4 ADD PUSH1 0x40 MLOAD DUP1 SWAP2 SUB SWAP1 REVERT JUMPDEST PUSH1 0xC SLOAD PUSH1 0xFF AND PUSH1 0x1 DUP2 PUSH1 0x6 DUP2 GT ISZERO PUSH2 0x2D18 JUMPI PUSH2 0x2D18 PUSH2 0x4293 JUMP JUMPDEST EQ DUP1 PUSH2 0x2D35 JUMPI POP PUSH1 0x4 DUP2 PUSH1 0x6 DUP2 GT ISZERO PUSH2 0x2D33 JUMPI PUSH2 0x2D33 PUSH2 0x4293 JUMP JUMPDEST EQ JUMPDEST ISZERO PUSH2 0x2E2B JUMPI PUSH1 0x3 SLOAD PUSH1 0x7 SLOAD PUSH1 0x8 SLOAD PUSH1 0x40 MLOAD PUSH4 0x66BF5A9 PUSH1 0xE0 SHL DUP2 MSTORE ADDRESS PUSH1 0x4 DUP3 ADD MSTORE PUSH1 0x24 DUP2 ADD SWAP3 SWAP1 SWAP3 MSTORE PUSH1 0x1 PUSH1 0x48 SHL SWAP1 DIV PUSH1 0xFF AND ISZERO ISZERO PUSH1 0x44 DUP3 ADD MSTORE PUSH1 0x1 PUSH1 0x1 PUSH1 0xA0 SHL SUB SWAP1 SWAP2 AND SWAP1 PUSH4 0x66BF5A9 SWAP1 PUSH1 0x64 ADD PUSH1 0x20 PUSH1 0x40 MLOAD DUP1 DUP4 SUB DUP2 DUP7 GAS STATICCALL ISZERO DUP1 ISZERO PUSH2 0x2DA1 JUMPI RETURNDATASIZE PUSH1 0x0 DUP1 RETURNDATACOPY RETURNDATASIZE PUSH1 0x0 REVERT JUMPDEST POP POP POP POP PUSH1 0x40 MLOAD RETURNDATASIZE PUSH1 0x1F NOT PUSH1 0x1F DUP3 ADD AND DUP3 ADD DUP1 PUSH1 0x40 MSTORE POP DUP2 ADD SWAP1 PUSH2 0x2DC5 SWAP2 SWAP1 PUSH2 0x45B3 JUMP JUMPDEST PUSH1 0xF DUP2 SWAP1 SSTORE PUSH1 0xB DUP1 SLOAD PUSH1 0xFF NOT SWAP1 DUP2 AND PUSH1 0x2 OR SWAP1 SWAP2 SSTORE TIMESTAMP PUSH1 0x12 SSTORE PUSH1 0xC DUP1 SLOAD SWAP1 SWAP2 AND SWAP1 SSTORE PUSH1 0x0 PUSH1 0xD DUP2 SWAP1 SSTORE PUSH1 0xE SSTORE PUSH1 0x40 MLOAD SWAP1 DUP2 MSTORE ADDRESS SWAP1 PUSH32 0x4EE2F23BA3377A15E2C44FC57723F174419C592D3D78FE5942F2BEFC5CDB11D6 SWAP1 PUSH1 0x20 ADD PUSH1 0x40 MLOAD DUP1 SWAP2 SUB SWAP1 LOG2 PUSH2 0x2E59 JUMP JUMPDEST PUSH1 0x2 DUP2 PUSH1 0x6 DUP2 GT ISZERO PUSH2 0x2E3F JUMPI PUSH2 0x2E3F PUSH2 0x4293 JUMP JUMPDEST SUB PUSH2 0x2E51 JUMPI PUSH2 0x2E4C PUSH2 0x3B98 JUMP JUMPDEST PUSH2 0x2E59 JUMP JUMPDEST PUSH2 0x2E59 PUSH2 0x3D34 JUMP JUMPDEST POP PUSH2 0x1180 PUSH1 0x1 PUSH1 0x0 SSTORE JUMP JUMPDEST PUSH1 0x0 PUSH1 0x2 PUSH1 0xB SLOAD PUSH1 0xFF AND PUSH1 0x4 DUP2 GT ISZERO PUSH2 0x2E7F JUMPI PUSH2 0x2E7F PUSH2 0x4293 JUMP JUMPDEST EQ DUP1 ISZERO PUSH2 0xA3A JUMPI POP PUSH2 0xA3A PUSH2 0x2E92 PUSH2 0xBF7 JUMP JUMPDEST PUSH1 0x8 SLOAD PUSH2 0xFFFF AND PUSH2 0x2EA1 PUSH2 0x2EA6 JUMP JUMPDEST PUSH2 0x3B56 JUMP JUMPDEST PUSH1 0x8 SLOAD PUSH1 0x0 SWAP1 PUSH2 0xA3A SWAP1 PUSH2 0xFFFF DUP1 DUP3 AND SWAP2 PUSH3 0x10000 SWAP1 DIV AND PUSH2 0x3FF1 JUMP JUMPDEST PUSH1 0x1 SLOAD PUSH1 0x1 PUSH1 0x1 PUSH1 0xA0 SHL SUB AND CALLER EQ PUSH2 0x2EEE JUMPI PUSH1 0x40 MLOAD PUSH4 0x30CD7471 PUSH1 0xE0 SHL DUP2 MSTORE PUSH1 0x4 ADD PUSH1 0x40 MLOAD DUP1 SWAP2 SUB SWAP1 REVERT JUMPDEST PUSH1 0x2 PUSH1 0x0 SWAP1 SLOAD SWAP1 PUSH2 0x100 EXP SWAP1 DIV PUSH1 0x1 PUSH1 0x1 PUSH1 0xA0 SHL SUB AND PUSH1 0x1 PUSH1 0x1 PUSH1 0xA0 SHL SUB AND PUSH4 0x5C975ABB PUSH1 0x40 MLOAD DUP2 PUSH4 0xFFFFFFFF AND PUSH1 0xE0 SHL DUP2 MSTORE PUSH1 0x4 ADD PUSH1 0x20 PUSH1 0x40 MLOAD DUP1 DUP4 SUB DUP2 DUP7 GAS STATICCALL ISZERO DUP1 ISZERO PUSH2 0x2F41 JUMPI RETURNDATASIZE PUSH1 0x0 DUP1 RETURNDATACOPY RETURNDATASIZE PUSH1 0x0 REVERT JUMPDEST POP POP POP POP PUSH1 0x40 MLOAD RETURNDATASIZE PUSH1 0x1F NOT PUSH1 0x1F DUP3 ADD AND DUP3 ADD DUP1 PUSH1 0x40 MSTORE POP DUP2 ADD SWAP1 PUSH2 0x2F65 SWAP2 SWAP1 PUSH2 0x45CC JUMP JUMPDEST ISZERO PUSH2 0x2F83 JUMPI PUSH1 0x40 MLOAD PUSH4 0x4291DB15 PUSH1 0xE1 SHL DUP2 MSTORE PUSH1 0x4 ADD PUSH1 0x40 MLOAD DUP1 SWAP2 SUB SWAP1 REVERT JUMPDEST PUSH2 0x2F8B PUSH2 0x380E JUMP JUMPDEST PUSH1 0x0 PUSH1 0xB SLOAD PUSH1 0xFF AND PUSH1 0x4 DUP2 GT ISZERO PUSH2 0x2FA4 JUMPI PUSH2 0x2FA4 PUSH2 0x4293 JUMP JUMPDEST EQ ISZERO DUP1 ISZERO PUSH2 0x2FC9 JUMPI POP PUSH1 0x2 PUSH1 0xB SLOAD PUSH1 0xFF AND PUSH1 0x4 DUP2 GT ISZERO PUSH2 0x2FC6 JUMPI PUSH2 0x2FC6 PUSH2 0x4293 JUMP JUMPDEST EQ ISZERO JUMPDEST ISZERO PUSH2 0x2FE7 JUMPI PUSH1 0x40 MLOAD PUSH4 0x4291DB15 PUSH1 0xE1 SHL DUP2 MSTORE PUSH1 0x4 ADD PUSH1 0x40 MLOAD DUP1 SWAP2 SUB SWAP1 REVERT JUMPDEST PUSH1 0x1 SLOAD PUSH1 0x5 SLOAD PUSH2 0x3005 SWAP2 PUSH1 0x1 PUSH1 0x1 PUSH1 0xA0 SHL SUB SWAP2 DUP3 AND SWAP2 AND ADDRESS DUP5 PUSH2 0x3FFD JUMP JUMPDEST DUP1 PUSH1 0x9 PUSH1 0x0 DUP3 DUP3 SLOAD PUSH2 0x3017 SWAP2 SWAP1 PUSH2 0x46EB JUMP JUMPDEST SWAP1 SWAP2 SSTORE POP POP PUSH1 0x40 MLOAD DUP2 DUP2 MSTORE ADDRESS SWAP1 PUSH32 0xD7243F6F8212D5188FD054141CF6EA89CFC0D91FACB8C3AFE2F88A1358480142 SWAP1 PUSH1 0x20 ADD PUSH1 0x40 MLOAD DUP1 SWAP2 SUB SWAP1 LOG2 PUSH2 0x1176 DUP2 PUSH2 0x39B9 JUMP JUMPDEST PUSH1 0x1 SLOAD PUSH1 0x1 PUSH1 0x1 PUSH1 0xA0 SHL SUB AND CALLER EQ PUSH2 0x3085 JUMPI PUSH1 0x40 MLOAD PUSH4 0x30CD7471 PUSH1 0xE0 SHL DUP2 MSTORE PUSH1 0x4 ADD PUSH1 0x40 MLOAD DUP1 SWAP2 SUB SWAP1 REVERT JUMPDEST PUSH1 0x2 PUSH1 0x0 SWAP1 SLOAD SWAP1 PUSH2 0x100 EXP SWAP1 DIV PUSH1 0x1 PUSH1 0x1 PUSH1 0xA0 SHL SUB AND PUSH1 0x1 PUSH1 0x1 PUSH1 0xA0 SHL SUB AND PUSH4 0x5C975ABB PUSH1 0x40 MLOAD DUP2 PUSH4 0xFFFFFFFF AND PUSH1 0xE0 SHL DUP2 MSTORE PUSH1 0x4 ADD PUSH1 0x20 PUSH1 0x40 MLOAD DUP1 DUP4 SUB DUP2 DUP7 GAS STATICCALL ISZERO DUP1 ISZERO PUSH2 0x30D8 JUMPI RETURNDATASIZE PUSH1 0x0 DUP1 RETURNDATACOPY RETURNDATASIZE PUSH1 0x0 REVERT JUMPDEST POP POP POP POP PUSH1 0x40 MLOAD RETURNDATASIZE PUSH1 0x1F NOT PUSH1 0x1F DUP3 ADD AND DUP3 ADD DUP1 PUSH1 0x40 MSTORE POP DUP2 ADD SWAP1 PUSH2 0x30FC SWAP2 SWAP1 PUSH2 0x45CC JUMP JUMPDEST ISZERO PUSH2 0x311A JUMPI PUSH1 0x40 MLOAD PUSH4 0x4291DB15 PUSH1 0xE1 SHL DUP2 MSTORE PUSH1 0x4 ADD PUSH1 0x40 MLOAD DUP1 SWAP2 SUB SWAP1 REVERT JUMPDEST PUSH2 0x3122 PUSH2 0x380E JUMP JUMPDEST PUSH1 0x2 PUSH1 0xB SLOAD PUSH1 0xFF AND PUSH1 0x4 DUP2 GT ISZERO PUSH2 0x313B JUMPI PUSH2 0x313B PUSH2 0x4293 JUMP JUMPDEST EQ PUSH2 0x3159 JUMPI PUSH1 0x40 MLOAD PUSH4 0x4291DB15 PUSH1 0xE1 SHL DUP2 MSTORE PUSH1 0x4 ADD PUSH1 0x40 MLOAD DUP1 SWAP2 SUB SWAP1 REVERT JUMPDEST PUSH1 0xA SLOAD ISZERO PUSH2 0x317A JUMPI PUSH1 0x40 MLOAD PUSH4 0x1D2197FD PUSH1 0xE3 SHL DUP2 MSTORE PUSH1 0x4 ADD PUSH1 0x40 MLOAD DUP1 SWAP2 SUB SWAP1 REVERT JUMPDEST PUSH6 0x5AF3107A4000 CALLVALUE LT ISZERO PUSH2 0x31A1 JUMPI PUSH1 0x40 MLOAD PUSH4 0x3ADC8FE7 PUSH1 0xE2 SHL DUP2 MSTORE PUSH1 0x4 ADD PUSH1 0x40 MLOAD DUP1 SWAP2 SUB SWAP1 REVERT JUMPDEST PUSH1 0x3 SLOAD PUSH1 0xF SLOAD PUSH1 0x40 MLOAD PUSH4 0x72525E23 PUSH1 0xE0 SHL DUP2 MSTORE PUSH1 0x0 SWAP3 PUSH1 0x1 PUSH1 0x1 PUSH1 0xA0 SHL SUB AND SWAP2 PUSH4 0x72525E23 SWAP2 CALLVALUE SWAP2 PUSH2 0x31D9 SWAP2 PUSH1 0x4 ADD SWAP1 DUP2 MSTORE PUSH1 0x20 ADD SWAP1 JUMP JUMPDEST PUSH1 0x20 PUSH1 0x40 MLOAD DUP1 DUP4 SUB DUP2 DUP6 DUP9 GAS CALL ISZERO DUP1 ISZERO PUSH2 0x31F7 JUMPI RETURNDATASIZE PUSH1 0x0 DUP1 RETURNDATACOPY RETURNDATASIZE PUSH1 0x0 REVERT JUMPDEST POP POP POP POP POP PUSH1 0x40 MLOAD RETURNDATASIZE PUSH1 0x1F NOT PUSH1 0x1F DUP3 ADD AND DUP3 ADD DUP1 PUSH1 0x40 MSTORE POP DUP2 ADD SWAP1 PUSH2 0x321C SWAP2 SWAP1 PUSH2 0x45B3 JUMP JUMPDEST PUSH1 0xB DUP1 SLOAD PUSH1 0x3 PUSH1 0xFF NOT SWAP2 DUP3 AND OR SWAP1 SWAP2 SSTORE PUSH1 0x40 DUP1 MLOAD PUSH1 0x60 DUP2 ADD DUP3 MSTORE PUSH1 0x2 DUP1 DUP3 MSTORE PUSH1 0x20 DUP3 ADD DUP6 SWAP1 MSTORE TIMESTAMP SWAP2 SWAP1 SWAP3 ADD DUP2 SWAP1 MSTORE PUSH1 0xC DUP1 SLOAD SWAP1 SWAP4 AND DUP3 OR SWAP1 SWAP3 SSTORE PUSH1 0xD DUP4 SWAP1 SSTORE PUSH1 0xE SWAP2 SWAP1 SWAP2 SSTORE SWAP1 SWAP2 POP ADDRESS SWAP1 PUSH32 0x69D62ED766FEBD9B36F4840F1349F992E6AFEA42CA344E8E19106C2DFFE02F47 SWAP1 DUP4 SWAP1 PUSH2 0x1DD9 JUMP JUMPDEST PUSH2 0x3297 PUSH2 0x380E JUMP JUMPDEST PUSH1 0x2 PUSH1 0xB SLOAD PUSH1 0xFF AND PUSH1 0x4 DUP2 GT ISZERO PUSH2 0x32B0 JUMPI PUSH2 0x32B0 PUSH2 0x4293 JUMP JUMPDEST EQ PUSH2 0x32CE JUMPI PUSH1 0x40 MLOAD PUSH4 0x4291DB15 PUSH1 0xE1 SHL DUP2 MSTORE PUSH1 0x4 ADD PUSH1 0x40 MLOAD DUP1 SWAP2 SUB SWAP1 REVERT JUMPDEST PUSH2 0x32D9 PUSH2 0x2E92 PUSH2 0xBF7 JUMP JUMPDEST PUSH2 0x32F6 JUMPI PUSH1 0x40 MLOAD PUSH4 0x190A031 PUSH1 0xE7 SHL DUP2 MSTORE PUSH1 0x4 ADD PUSH1 0x40 MLOAD DUP1 SWAP2 SUB SWAP1 REVERT JUMPDEST PUSH1 0x0 PUSH1 0xA SLOAD DUP3 GT PUSH2 0x3307 JUMPI DUP2 PUSH2 0x330B JUMP JUMPDEST PUSH1 0xA SLOAD JUMPDEST SWAP1 POP PUSH1 0x0 DUP2 GT PUSH2 0x334B JUMPI PUSH1 0x40 MLOAD PUSH3 0x461BCD PUSH1 0xE5 SHL DUP2 MSTORE PUSH1 0x20 PUSH1 0x4 DUP3 ADD MSTORE PUSH1 0xB PUSH1 0x24 DUP3 ADD MSTORE PUSH11 0x7A65726F2072656465656D PUSH1 0xA8 SHL PUSH1 0x44 DUP3 ADD MSTORE PUSH1 0x64 ADD PUSH2 0x10F3 JUMP JUMPDEST PUSH2 0x3353 PUSH2 0x3A45 JUMP JUMPDEST PUSH1 0x0 PUSH2 0x33AF PUSH2 0x1357 DUP4 PUSH1 0x4 PUSH1 0x0 SWAP1 SLOAD SWAP1 PUSH2 0x100 EXP SWAP1 DIV PUSH1 0x1 PUSH1 0x1 PUSH1 0xA0 SHL SUB AND PUSH1 0x1 PUSH1 0x1 PUSH1 0xA0 SHL SUB AND PUSH4 0x98D5FDCA PUSH1 0x40 MLOAD DUP2 PUSH4 0xFFFFFFFF AND PUSH1 0xE0 SHL DUP2 MSTORE PUSH1 0x4 ADD PUSH1 0x20 PUSH1 0x40 MLOAD DUP1 DUP4 SUB DUP2 DUP7 GAS STATICCALL ISZERO DUP1 ISZERO PUSH2 0x154E JUMPI RETURNDATASIZE PUSH1 0x0 DUP1 RETURNDATACOPY RETURNDATASIZE PUSH1 0x0 REVERT JUMPDEST PUSH1 0x3 SLOAD PUSH1 0xF SLOAD PUSH1 0x40 MLOAD PUSH4 0x76197BA3 PUSH1 0xE0 SHL DUP2 MSTORE SWAP3 SWAP4 POP PUSH1 0x0 SWAP3 PUSH1 0x1 PUSH1 0x1 PUSH1 0xA0 SHL SUB SWAP1 SWAP3 AND SWAP2 PUSH4 0x76197BA3 SWAP2 PUSH2 0x33F1 SWAP2 DUP7 SWAP1 PUSH1 0x4 ADD SWAP2 DUP3 MSTORE PUSH1 0x20 DUP3 ADD MSTORE PUSH1 0x40 ADD SWAP1 JUMP JUMPDEST PUSH1 0x20 PUSH1 0x40 MLOAD DUP1 DUP4 SUB DUP2 PUSH1 0x0 DUP8 GAS CALL ISZERO DUP1 ISZERO PUSH2 0x3410 JUMPI RETURNDATASIZE PUSH1 0x0 DUP1 RETURNDATACOPY RETURNDATASIZE PUSH1 0x0 REVERT JUMPDEST POP POP POP POP PUSH1 0x40 MLOAD RETURNDATASIZE PUSH1 0x1F NOT PUSH1 0x1F DUP3 ADD AND DUP3 ADD DUP1 PUSH1 0x40 MSTORE POP DUP2 ADD SWAP1 PUSH2 0x3434 SWAP2 SWAP1 PUSH2 0x45B3 JUMP JUMPDEST SWAP1 POP DUP3 PUSH1 0xA PUSH1 0x0 DUP3 DUP3 SLOAD PUSH2 0x3448 SWAP2 SWAP1 PUSH2 0x4606 JUMP JUMPDEST SWAP1 SWAP2 SSTORE POP POP PUSH1 0x6 SLOAD PUSH1 0x40 MLOAD PUSH4 0x2770A7EB PUSH1 0xE2 SHL DUP2 MSTORE CALLER PUSH1 0x4 DUP3 ADD MSTORE PUSH1 0x24 DUP2 ADD DUP6 SWAP1 MSTORE PUSH1 0x1 PUSH1 0x1 PUSH1 0xA0 SHL SUB SWAP1 SWAP2 AND SWAP1 PUSH4 0x9DC29FAC SWAP1 PUSH1 0x44 ADD PUSH1 0x0 PUSH1 0x40 MLOAD DUP1 DUP4 SUB DUP2 PUSH1 0x0 DUP8 DUP1 EXTCODESIZE ISZERO DUP1 ISZERO PUSH2 0x3499 JUMPI PUSH1 0x0 DUP1 REVERT JUMPDEST POP GAS CALL ISZERO DUP1 ISZERO PUSH2 0x34AD JUMPI RETURNDATASIZE PUSH1 0x0 DUP1 RETURNDATACOPY RETURNDATASIZE PUSH1 0x0 REVERT JUMPDEST POP POP POP POP PUSH1 0x0 PUSH2 0x2710 PUSH1 0x19 DUP4 PUSH2 0x34C3 SWAP2 SWAP1 PUSH2 0x46B2 JUMP JUMPDEST PUSH2 0x34CD SWAP2 SWAP1 PUSH2 0x46C9 JUMP JUMPDEST SWAP1 POP DUP1 ISZERO PUSH2 0x34F2 JUMPI PUSH1 0x2 SLOAD PUSH1 0x5 SLOAD PUSH2 0x34F2 SWAP2 PUSH1 0x1 PUSH1 0x1 PUSH1 0xA0 SHL SUB SWAP2 DUP3 AND SWAP2 AND DUP4 PUSH2 0x3988 JUMP JUMPDEST PUSH1 0x0 PUSH2 0x34FE DUP3 DUP5 PUSH2 0x4606 JUMP JUMPDEST GT ISZERO PUSH2 0x3525 JUMPI PUSH2 0x3525 CALLER PUSH2 0x3512 DUP4 DUP6 PUSH2 0x4606 JUMP JUMPDEST PUSH1 0x5 SLOAD PUSH1 0x1 PUSH1 0x1 PUSH1 0xA0 SHL SUB AND SWAP2 SWAP1 PUSH2 0x3988 JUMP JUMPDEST PUSH1 0x40 DUP1 MLOAD DUP6 DUP2 MSTORE PUSH1 0x20 DUP2 ADD DUP5 SWAP1 MSTORE SWAP1 DUP2 ADD DUP3 SWAP1 MSTORE CALLER SWAP1 ADDRESS SWAP1 PUSH32 0x764AEEB2D1EC3F2945D6486E2F7E3FAE9AC5FE11AA56B7A9D90C92212E33050C SWAP1 PUSH1 0x60 ADD PUSH1 0x40 MLOAD DUP1 SWAP2 SUB SWAP1 LOG3 POP POP POP POP PUSH2 0x1180 PUSH1 0x1 PUSH1 0x0 SSTORE JUMP JUMPDEST PUSH1 0x8 SLOAD PUSH1 0x0 SWAP1 DUP2 SWAP1 PUSH1 0x1 PUSH1 0x40 SHL SWAP1 DIV PUSH1 0xFF AND ISZERO PUSH2 0x35A1 JUMPI PUSH1 0x8 SLOAD PUSH1 0x1 PUSH1 0x40 SHL SWAP1 DIV PUSH1 0xFF AND PUSH2 0x35A4 JUMP JUMPDEST PUSH1 0x1 JUMPDEST PUSH1 0x8 SLOAD SWAP1 SWAP2 POP PUSH2 0xC37 SWAP1 PUSH2 0xFFFF DUP1 DUP3 AND SWAP2 PUSH5 0x100000000 DUP2 DIV SWAP1 SWAP2 AND SWAP1 PUSH1 0xFF DUP1 DUP7 AND SWAP2 PUSH1 0x1 PUSH1 0x30 SHL DUP2 DIV DUP3 AND SWAP2 PUSH1 0x1 PUSH1 0x38 SHL SWAP1 SWAP2 DIV AND PUSH2 0x4036 JUMP JUMPDEST PUSH1 0x1 SLOAD PUSH1 0x1 PUSH1 0x1 PUSH1 0xA0 SHL SUB AND CALLER EQ PUSH2 0x360A JUMPI PUSH1 0x40 MLOAD PUSH4 0x30CD7471 PUSH1 0xE0 SHL DUP2 MSTORE PUSH1 0x4 ADD PUSH1 0x40 MLOAD DUP1 SWAP2 SUB SWAP1 REVERT JUMPDEST PUSH1 0x2 PUSH1 0x0 SWAP1 SLOAD SWAP1 PUSH2 0x100 EXP SWAP1 DIV PUSH1 0x1 PUSH1 0x1 PUSH1 0xA0 SHL SUB AND PUSH1 0x1 PUSH1 0x1 PUSH1 0xA0 SHL SUB AND PUSH4 0x5C975ABB PUSH1 0x40 MLOAD DUP2 PUSH4 0xFFFFFFFF AND PUSH1 0xE0 SHL DUP2 MSTORE PUSH1 0x4 ADD PUSH1 0x20 PUSH1 0x40 MLOAD DUP1 DUP4 SUB DUP2 DUP7 GAS STATICCALL ISZERO DUP1 ISZERO PUSH2 0x365D JUMPI RETURNDATASIZE PUSH1 0x0 DUP1 RETURNDATACOPY RETURNDATASIZE PUSH1 0x0 REVERT JUMPDEST POP POP POP POP PUSH1 0x40 MLOAD RETURNDATASIZE PUSH1 0x1F NOT PUSH1 0x1F DUP3 ADD AND DUP3 ADD DUP1 PUSH1 0x40 MSTORE POP DUP2 ADD SWAP1 PUSH2 0x3681 SWAP2 SWAP1 PUSH2 0x45CC JUMP JUMPDEST ISZERO PUSH2 0x369F JUMPI PUSH1 0x40 MLOAD PUSH4 0x4291DB15 PUSH1 0xE1 SHL DUP2 MSTORE PUSH1 0x4 ADD PUSH1 0x40 MLOAD DUP1 SWAP2 SUB SWAP1 REVERT JUMPDEST PUSH2 0x36A7 PUSH2 0x380E JUMP JUMPDEST PUSH1 0x2 PUSH1 0xB SLOAD PUSH1 0xFF AND PUSH1 0x4 DUP2 GT ISZERO PUSH2 0x36C0 JUMPI PUSH2 0x36C0 PUSH2 0x4293 JUMP JUMPDEST EQ PUSH2 0x36DE JUMPI PUSH1 0x40 MLOAD PUSH4 0x4291DB15 PUSH1 0xE1 SHL DUP2 MSTORE PUSH1 0x4 ADD PUSH1 0x40 MLOAD DUP1 SWAP2 SUB SWAP1 REVERT JUMPDEST PUSH6 0x5AF3107A4000 CALLVALUE LT ISZERO PUSH2 0x3705 JUMPI PUSH1 0x40 MLOAD PUSH4 0x3ADC8FE7 PUSH1 0xE2 SHL DUP2 MSTORE PUSH1 0x4 ADD PUSH1 0x40 MLOAD DUP1 SWAP2 SUB SWAP1 REVERT JUMPDEST PUSH1 0x0 DUP2 GT PUSH2 0x374C JUMPI PUSH1 0x40 MLOAD PUSH3 0x461BCD PUSH1 0xE5 SHL DUP2 MSTORE PUSH1 0x20 PUSH1 0x4 DUP3 ADD MSTORE PUSH1 0x14 PUSH1 0x24 DUP3 ADD MSTORE PUSH20 0x5661756C743A207A65726F20534C207072696365 PUSH1 0x60 SHL PUSH1 0x44 DUP3 ADD MSTORE PUSH1 0x64 ADD PUSH2 0x10F3 JUMP JUMPDEST PUSH1 0x3 SLOAD PUSH1 0xF SLOAD PUSH1 0x40 MLOAD PUSH4 0x8C509FD5 PUSH1 0xE0 SHL DUP2 MSTORE PUSH1 0x0 SWAP3 PUSH1 0x1 PUSH1 0x1 PUSH1 0xA0 SHL SUB AND SWAP2 PUSH4 0x8C509FD5 SWAP2 CALLVALUE SWAP2 PUSH2 0x378B SWAP2 DUP8 SWAP1 PUSH1 0x4 ADD SWAP2 DUP3 MSTORE PUSH1 0x20 DUP3 ADD MSTORE PUSH1 0x40 ADD SWAP1 JUMP JUMPDEST PUSH1 0x20 PUSH1 0x40 MLOAD DUP1 DUP4 SUB DUP2 DUP6 DUP9 GAS CALL ISZERO DUP1 ISZERO PUSH2 0x37A9 JUMPI RETURNDATASIZE PUSH1 0x0 DUP1 RETURNDATACOPY RETURNDATASIZE PUSH1 0x0 REVERT JUMPDEST POP POP POP POP POP PUSH1 0x40 MLOAD RETURNDATASIZE PUSH1 0x1F NOT PUSH1 0x1F DUP3 ADD AND DUP3 ADD DUP1 PUSH1 0x40 MSTORE POP DUP2 ADD SWAP1 PUSH2 0x37CE SWAP2 SWAP1 PUSH2 0x45B3 JUMP JUMPDEST PUSH1 0x14 DUP2 SWAP1 SSTORE PUSH1 0x40 DUP1 MLOAD DUP3 DUP2 MSTORE PUSH1 0x20 DUP2 ADD DUP6 SWAP1 MSTORE SWAP2 SWAP3 POP ADDRESS SWAP2 PUSH32 0x8DFB2EC37AD94738FB02B6B3A967BE4F3DD85E28A4D6A181EA63C262D5FF0F27 SWAP2 ADD PUSH2 0x1650 JUMP JUMPDEST PUSH1 0x2 PUSH1 0x0 SLOAD SUB PUSH2 0x3831 JUMPI PUSH1 0x40 MLOAD PUSH4 0x3EE5AEB5 PUSH1 0xE0 SHL DUP2 MSTORE PUSH1 0x4 ADD PUSH1 0x40 MLOAD DUP1 SWAP2 SUB SWAP1 REVERT JUMPDEST PUSH1 0x2 PUSH1 0x0 SSTORE JUMP JUMPDEST PUSH1 0x0 DUP3 PUSH1 0x0 SUB PUSH2 0x384B JUMPI POP PUSH1 0x0 NOT PUSH2 0x386B JUMP JUMPDEST DUP3 PUSH2 0x385E DUP4 PUSH8 0xDE0B6B3A7640000 PUSH2 0x46B2 JUMP JUMPDEST PUSH2 0x3868 SWAP2 SWAP1 PUSH2 0x46C9 JUMP JUMPDEST SWAP1 POP JUMPDEST SWAP3 SWAP2 POP POP JUMP JUMPDEST PUSH1 0x0 DUP1 DUP4 GT PUSH2 0x38B7 JUMPI PUSH1 0x40 MLOAD PUSH3 0x461BCD PUSH1 0xE5 SHL DUP2 MSTORE PUSH1 0x20 PUSH1 0x4 DUP3 ADD MSTORE PUSH1 0x12 PUSH1 0x24 DUP3 ADD MSTORE PUSH18 0x1315158E881B9BC818DBDB1B185D195C985B PUSH1 0x72 SHL PUSH1 0x44 DUP3 ADD MSTORE PUSH1 0x64 ADD PUSH2 0x10F3 JUMP JUMPDEST DUP3 PUSH2 0x385E PUSH2 0x2710 DUP5 PUSH2 0x46B2 JUMP JUMPDEST PUSH1 0x40 DUP1 MLOAD PUSH1 0x1 PUSH1 0x1 PUSH1 0xA0 SHL SUB DUP5 AND PUSH1 0x24 DUP3 ADD MSTORE PUSH1 0x44 DUP1 DUP3 ADD DUP5 SWAP1 MSTORE DUP3 MLOAD DUP1 DUP4 SUB SWAP1 SWAP2 ADD DUP2 MSTORE PUSH1 0x64 SWAP1 SWAP2 ADD SWAP1 SWAP2 MSTORE PUSH1 0x20 DUP2 ADD DUP1 MLOAD PUSH1 0x1 PUSH1 0x1 PUSH1 0xE0 SHL SUB AND PUSH4 0x95EA7B3 PUSH1 0xE0 SHL OR SWAP1 MSTORE PUSH2 0x3915 DUP5 DUP3 PUSH2 0x4132 JUMP JUMPDEST PUSH2 0x3982 JUMPI PUSH1 0x40 MLOAD PUSH1 0x1 PUSH1 0x1 PUSH1 0xA0 SHL SUB DUP5 DUP2 AND PUSH1 0x24 DUP4 ADD MSTORE PUSH1 0x0 PUSH1 0x44 DUP4 ADD MSTORE PUSH2 0x3978 SWAP2 DUP7 SWAP2 DUP3 AND SWAP1 PUSH4 0x95EA7B3 SWAP1 PUSH1 0x64 ADD JUMPDEST PUSH1 0x40 MLOAD PUSH1 0x20 DUP2 DUP4 SUB SUB DUP2 MSTORE SWAP1 PUSH1 0x40 MSTORE SWAP2 POP PUSH1 0xE0 SHL PUSH1 0x20 DUP3 ADD DUP1 MLOAD PUSH1 0x1 PUSH1 0x1 PUSH1 0xE0 SHL SUB DUP4 DUP2 DUP4 AND OR DUP4 MSTORE POP POP POP POP PUSH2 0x4181 JUMP JUMPDEST PUSH2 0x3982 DUP5 DUP3 PUSH2 0x4181 JUMP JUMPDEST POP POP POP POP JUMP JUMPDEST PUSH1 0x40 MLOAD PUSH1 0x1 PUSH1 0x1 PUSH1 0xA0 SHL SUB DUP4 DUP2 AND PUSH1 0x24 DUP4 ADD MSTORE PUSH1 0x44 DUP3 ADD DUP4 SWAP1 MSTORE PUSH2 0x2714 SWAP2 DUP6 SWAP2 DUP3 AND SWAP1 PUSH4 0xA9059CBB SWAP1 PUSH1 0x64 ADD PUSH2 0x3946 JUMP JUMPDEST DUP1 PUSH1 0x0 SUB PUSH2 0x39C4 JUMPI POP JUMP JUMPDEST PUSH1 0x2 SLOAD PUSH1 0x40 MLOAD PUSH4 0x4531C4C3 PUSH1 0xE0 SHL DUP2 MSTORE PUSH1 0x4 DUP2 ADD DUP4 SWAP1 MSTORE PUSH1 0x1 PUSH1 0x1 PUSH1 0xA0 SHL SUB SWAP1 SWAP2 AND SWAP1 PUSH4 0x4531C4C3 SWAP1 PUSH1 0x24 ADD PUSH1 0x0 PUSH1 0x40 MLOAD DUP1 DUP4 SUB DUP2 PUSH1 0x0 DUP8 DUP1 EXTCODESIZE ISZERO DUP1 ISZERO PUSH2 0x3A0A JUMPI PUSH1 0x0 DUP1 REVERT JUMPDEST POP GAS CALL SWAP3 POP POP POP DUP1 ISZERO PUSH2 0x3A1B JUMPI POP PUSH1 0x1 JUMPDEST ISZERO PUSH2 0x1180 JUMPI POP JUMP JUMPDEST PUSH1 0x0 PUSH2 0x386B PUSH5 0xE8D4A51000 DUP4 PUSH2 0x46B2 JUMP JUMPDEST PUSH1 0x0 PUSH2 0x386B PUSH5 0xE8D4A51000 DUP4 PUSH2 0x46C9 JUMP JUMPDEST PUSH1 0x12 SLOAD DUP1 ISZERO PUSH2 0x3ACC JUMPI PUSH1 0x0 PUSH2 0x3A5A DUP3 TIMESTAMP PUSH2 0x4606 JUMP JUMPDEST SWAP1 POP PUSH1 0x0 DUP2 GT DUP1 ISZERO PUSH2 0x3A6E JUMPI POP PUSH1 0x0 PUSH1 0xA SLOAD GT JUMPDEST ISZERO PUSH2 0x3ACA JUMPI PUSH1 0x0 PUSH2 0x3A80 PUSH2 0x1357 PUSH2 0x1810 JUMP JUMPDEST SWAP1 POP PUSH2 0x3A92 PUSH4 0x1E13380 PUSH2 0x2710 PUSH2 0x46B2 JUMP JUMPDEST DUP3 PUSH2 0x3A9E PUSH1 0x96 DUP5 PUSH2 0x46B2 JUMP JUMPDEST PUSH2 0x3AA8 SWAP2 SWAP1 PUSH2 0x46B2 JUMP JUMPDEST PUSH2 0x3AB2 SWAP2 SWAP1 PUSH2 0x46C9 JUMP JUMPDEST PUSH1 0x11 PUSH1 0x0 DUP3 DUP3 SLOAD PUSH2 0x3AC3 SWAP2 SWAP1 PUSH2 0x46EB JUMP JUMPDEST SWAP1 SWAP2 SSTORE POP POP POP JUMPDEST POP JUMPDEST POP TIMESTAMP PUSH1 0x12 SSTORE JUMP JUMPDEST PUSH1 0x0 DUP1 DUP3 GT PUSH2 0x3B18 JUMPI PUSH1 0x40 MLOAD PUSH3 0x461BCD PUSH1 0xE5 SHL DUP2 MSTORE PUSH1 0x20 PUSH1 0x4 DUP3 ADD MSTORE PUSH1 0x11 PUSH1 0x24 DUP3 ADD MSTORE PUSH17 0x556E6974733A207A65726F207072696365 PUSH1 0x78 SHL PUSH1 0x44 DUP3 ADD MSTORE PUSH1 0x64 ADD PUSH2 0x10F3 JUMP JUMPDEST PUSH4 0x5F5E100 PUSH2 0x385E DUP4 DUP6 PUSH2 0x46B2 JUMP JUMPDEST PUSH1 0x0 PUSH1 0xA SLOAD PUSH1 0x0 SUB PUSH2 0x3B3B JUMPI POP PUSH1 0x0 PUSH2 0x386B JUMP JUMPDEST DUP3 PUSH1 0x0 SUB PUSH2 0x3B4C JUMPI POP PUSH1 0x0 NOT PUSH2 0x386B JUMP JUMPDEST PUSH2 0x3868 DUP4 DUP4 PUSH2 0x3871 JUMP JUMPDEST PUSH1 0x0 DUP3 DUP5 LT ISZERO DUP1 ISZERO PUSH2 0x3B67 JUMPI POP DUP2 DUP5 LT JUMPDEST SWAP5 SWAP4 POP POP POP POP JUMP JUMPDEST PUSH1 0x0 DUP1 PUSH32 0xF0C57E16840DF040F15088DC2F81FE391C3923BEC73E23A9662EFC9C229C6A00 PUSH2 0x386B JUMP JUMPDEST PUSH2 0x3BA0 PUSH2 0x3A45 JUMP JUMPDEST PUSH1 0x5 SLOAD PUSH1 0x40 MLOAD PUSH4 0x70A08231 PUSH1 0xE0 SHL DUP2 MSTORE ADDRESS PUSH1 0x4 DUP3 ADD MSTORE PUSH1 0x0 SWAP2 PUSH1 0x1 PUSH1 0x1 PUSH1 0xA0 SHL SUB AND SWAP1 PUSH4 0x70A08231 SWAP1 PUSH1 0x24 ADD PUSH1 0x20 PUSH1 0x40 MLOAD DUP1 DUP4 SUB DUP2 DUP7 GAS STATICCALL ISZERO DUP1 ISZERO PUSH2 0x3BE9 JUMPI RETURNDATASIZE PUSH1 0x0 DUP1 RETURNDATACOPY RETURNDATASIZE PUSH1 0x0 REVERT JUMPDEST POP POP POP POP PUSH1 0x40 MLOAD RETURNDATASIZE PUSH1 0x1F NOT PUSH1 0x1F DUP3 ADD AND DUP3 ADD DUP1 PUSH1 0x40 MSTORE POP DUP2 ADD SWAP1 PUSH2 0x3C0D SWAP2 SWAP1 PUSH2 0x45B3 JUMP JUMPDEST SWAP1 POP PUSH1 0x0 DUP2 PUSH1 0x11 SLOAD GT PUSH2 0x3C22 JUMPI PUSH1 0x11 SLOAD PUSH2 0x3C24 JUMP JUMPDEST DUP2 JUMPDEST SWAP1 POP PUSH1 0x0 PUSH2 0x3C32 DUP3 DUP5 PUSH2 0x4606 JUMP JUMPDEST PUSH1 0x9 DUP1 SLOAD PUSH1 0x0 SWAP1 SWAP2 SSTORE SWAP1 SWAP2 POP PUSH2 0x3C4A PUSH2 0x1171 DUP3 PUSH2 0x4619 JUMP JUMPDEST PUSH1 0x0 PUSH1 0xF DUP2 SWAP1 SSTORE PUSH1 0x11 DUP2 SWAP1 SSTORE PUSH1 0x13 DUP2 SWAP1 SSTORE PUSH1 0x14 DUP2 SWAP1 SSTORE PUSH1 0xB DUP1 SLOAD PUSH1 0xFF NOT SWAP1 DUP2 AND SWAP1 SWAP2 SSTORE PUSH1 0xC DUP1 SLOAD SWAP1 SWAP2 AND SWAP1 SSTORE PUSH1 0xD DUP2 SWAP1 SSTORE PUSH1 0xE SSTORE DUP3 ISZERO PUSH2 0x3CA1 JUMPI PUSH1 0x2 SLOAD PUSH1 0x5 SLOAD PUSH2 0x3CA1 SWAP2 PUSH1 0x1 PUSH1 0x1 PUSH1 0xA0 SHL SUB SWAP2 DUP3 AND SWAP2 AND DUP6 PUSH2 0x3988 JUMP JUMPDEST DUP2 ISZERO PUSH2 0x3CC4 JUMPI PUSH1 0x1 SLOAD PUSH1 0x5 SLOAD PUSH2 0x3CC4 SWAP2 PUSH1 0x1 PUSH1 0x1 PUSH1 0xA0 SHL SUB SWAP2 DUP3 AND SWAP2 AND DUP5 PUSH2 0x3988 JUMP JUMPDEST PUSH1 0x40 MLOAD DUP4 DUP2 MSTORE ADDRESS SWAP1 PUSH32 0xC74EE869A332E69E1B78099F39B1928DE8163D21074AD8BEB98AFF670953103A SWAP1 PUSH1 0x20 ADD PUSH1 0x40 MLOAD DUP1 SWAP2 SUB SWAP1 LOG2 PUSH1 0x40 MLOAD DUP3 DUP2 MSTORE ADDRESS SWAP1 PUSH32 0x62E59356F995B616EAFCC3BD0402C7C6F7C820E205C92EA61436902E30B4DC2E SWAP1 PUSH1 0x20 ADD PUSH1 0x40 MLOAD DUP1 SWAP2 SUB SWAP1 LOG2 POP POP POP POP JUMP JUMPDEST PUSH2 0x3D3C PUSH2 0x3A45 JUMP JUMPDEST PUSH1 0x5 SLOAD PUSH1 0x40 MLOAD PUSH4 0x70A08231 PUSH1 0xE0 SHL DUP2 MSTORE ADDRESS PUSH1 0x4 DUP3 ADD MSTORE PUSH1 0x0 SWAP2 PUSH1 0x1 PUSH1 0x1 PUSH1 0xA0 SHL SUB AND SWAP1 PUSH4 0x70A08231 SWAP1 PUSH1 0x24 ADD PUSH1 0x20 PUSH1 0x40 MLOAD DUP1 DUP4 SUB DUP2 DUP7 GAS STATICCALL ISZERO DUP1 ISZERO PUSH2 0x3D85 JUMPI RETURNDATASIZE PUSH1 0x0 DUP1 RETURNDATACOPY RETURNDATASIZE PUSH1 0x0 REVERT JUMPDEST POP POP POP POP PUSH1 0x40 MLOAD RETURNDATASIZE PUSH1 0x1F NOT PUSH1 0x1F DUP3 ADD AND DUP3 ADD DUP1 PUSH1 0x40 MSTORE POP DUP2 ADD SWAP1 PUSH2 0x3DA9 SWAP2 SWAP1 PUSH2 0x45B3 JUMP JUMPDEST SWAP1 POP PUSH1 0x0 PUSH2 0x3DB8 PUSH2 0x1357 PUSH2 0x1810 JUMP JUMPDEST SWAP1 POP PUSH1 0x0 DUP2 DUP4 LT ISZERO PUSH2 0x3DCA JUMPI DUP3 PUSH2 0x3DCC JUMP JUMPDEST DUP2 JUMPDEST SWAP1 POP PUSH1 0x0 PUSH2 0x3DDA DUP3 DUP6 PUSH2 0x4606 JUMP JUMPDEST SWAP1 POP PUSH1 0x0 DUP2 PUSH1 0x11 SLOAD GT PUSH2 0x3DEF JUMPI PUSH1 0x11 SLOAD PUSH2 0x3DF1 JUMP JUMPDEST DUP2 JUMPDEST SWAP1 POP PUSH1 0x0 PUSH2 0x3DFF DUP3 DUP5 PUSH2 0x4606 JUMP JUMPDEST SWAP1 POP PUSH1 0x0 PUSH2 0x2710 PUSH2 0x3E12 PUSH2 0x3E8 DUP5 PUSH2 0x46B2 JUMP JUMPDEST PUSH2 0x3E1C SWAP2 SWAP1 PUSH2 0x46C9 JUMP JUMPDEST SWAP1 POP PUSH1 0x0 PUSH2 0x3E2A DUP3 DUP5 PUSH2 0x4606 JUMP JUMPDEST PUSH1 0x1 SLOAD PUSH1 0x10 SLOAD PUSH1 0x9 DUP1 SLOAD PUSH1 0x0 PUSH1 0xA DUP2 SWAP1 SSTORE SWAP1 SWAP2 SSTORE SWAP3 SWAP4 POP PUSH1 0x1 PUSH1 0x1 PUSH1 0xA0 SHL SUB SWAP2 DUP3 AND SWAP3 SWAP2 AND SWAP1 PUSH2 0x3E5C PUSH2 0x1171 DUP3 PUSH2 0x4619 JUMP JUMPDEST PUSH1 0x0 PUSH1 0xF DUP2 SWAP1 SSTORE PUSH1 0x11 DUP2 SWAP1 SSTORE PUSH1 0x13 DUP2 SWAP1 SSTORE PUSH1 0x14 DUP2 SWAP1 SSTORE PUSH1 0xB DUP1 SLOAD PUSH1 0xFF NOT SWAP1 DUP2 AND SWAP1 SWAP2 SSTORE PUSH1 0xC DUP1 SLOAD SWAP1 SWAP2 AND SWAP1 SSTORE PUSH1 0xD DUP2 SWAP1 SSTORE PUSH1 0xE DUP2 SWAP1 SSTORE PUSH2 0x2710 PUSH2 0x3EA1 PUSH2 0x1770 DUP9 PUSH2 0x46B2 JUMP JUMPDEST PUSH2 0x3EAB SWAP2 SWAP1 PUSH2 0x46C9 JUMP JUMPDEST SWAP1 POP PUSH1 0x0 PUSH2 0x3EB9 DUP3 DUP9 PUSH2 0x4606 JUMP JUMPDEST PUSH2 0x3EC3 DUP11 DUP14 PUSH2 0x46EB JUMP JUMPDEST PUSH2 0x3ECD SWAP2 SWAP1 PUSH2 0x46EB JUMP JUMPDEST SWAP1 POP DUP2 ISZERO PUSH2 0x3EEC JUMPI PUSH1 0x5 SLOAD PUSH2 0x3EEC SWAP1 PUSH1 0x1 PUSH1 0x1 PUSH1 0xA0 SHL SUB AND DUP6 DUP5 PUSH2 0x3988 JUMP JUMPDEST DUP1 ISZERO PUSH2 0x3F0F JUMPI PUSH1 0x2 SLOAD PUSH1 0x5 SLOAD PUSH2 0x3F0F SWAP2 PUSH1 0x1 PUSH1 0x1 PUSH1 0xA0 SHL SUB SWAP2 DUP3 AND SWAP2 AND DUP4 PUSH2 0x3988 JUMP JUMPDEST POP POP DUP4 ISZERO PUSH2 0x3F2E JUMPI PUSH1 0x5 SLOAD PUSH2 0x3F2E SWAP1 PUSH1 0x1 PUSH1 0x1 PUSH1 0xA0 SHL SUB AND DUP5 DUP7 PUSH2 0x3988 JUMP JUMPDEST PUSH1 0x40 MLOAD DUP8 DUP2 MSTORE ADDRESS SWAP1 PUSH32 0xC74EE869A332E69E1B78099F39B1928DE8163D21074AD8BEB98AFF670953103A SWAP1 PUSH1 0x20 ADD PUSH1 0x40 MLOAD DUP1 SWAP2 SUB SWAP1 LOG2 PUSH1 0x40 DUP1 MLOAD DUP11 DUP2 MSTORE PUSH1 0x20 DUP2 ADD DUP7 SWAP1 MSTORE ADDRESS SWAP2 PUSH32 0x9C223CFCD8C93E245F558F5F8DE755FC0930FD9BC257441155EF5D54A170E0F SWAP2 ADD PUSH1 0x40 MLOAD DUP1 SWAP2 SUB SWAP1 LOG2 DUP9 DUP11 GT ISZERO PUSH2 0x3FE4 JUMPI ADDRESS PUSH32 0x290A68573F1E73F494DC2634F4D9426AF9210F8EEF772F3530AD921612CDC7D PUSH2 0x3FD2 DUP12 DUP14 PUSH2 0x4606 JUMP JUMPDEST PUSH1 0x40 MLOAD SWAP1 DUP2 MSTORE PUSH1 0x20 ADD PUSH1 0x40 MLOAD DUP1 SWAP2 SUB SWAP1 LOG2 JUMPDEST POP POP POP POP POP POP POP POP POP POP POP JUMP JUMPDEST PUSH1 0x0 PUSH2 0x3868 DUP3 DUP5 PUSH2 0x46EB JUMP JUMPDEST PUSH1 0x40 MLOAD PUSH1 0x1 PUSH1 0x1 PUSH1 0xA0 SHL SUB DUP5 DUP2 AND PUSH1 0x24 DUP4 ADD MSTORE DUP4 DUP2 AND PUSH1 0x44 DUP4 ADD MSTORE PUSH1 0x64 DUP3 ADD DUP4 SWAP1 MSTORE PUSH2 0x3982 SWAP2 DUP7 SWAP2 DUP3 AND SWAP1 PUSH4 0x23B872DD SWAP1 PUSH1 0x84 ADD PUSH2 0x3946 JUMP JUMPDEST PUSH1 0x0 PUSH1 0x1 DUP5 LT ISZERO DUP1 ISZERO PUSH2 0x4049 JUMPI POP DUP2 DUP5 GT ISZERO JUMPDEST PUSH2 0x4089 JUMPI PUSH1 0x40 MLOAD PUSH3 0x461BCD PUSH1 0xE5 SHL DUP2 MSTORE PUSH1 0x20 PUSH1 0x4 DUP3 ADD MSTORE PUSH1 0x11 PUSH1 0x24 DUP3 ADD MSTORE PUSH17 0x4C54563A20626164206C65766572616765 PUSH1 0x78 SHL PUSH1 0x44 DUP3 ADD MSTORE PUSH1 0x64 ADD PUSH2 0x10F3 JUMP JUMPDEST DUP5 DUP7 LT ISZERO PUSH2 0x40CA JUMPI PUSH1 0x40 MLOAD PUSH3 0x461BCD PUSH1 0xE5 SHL DUP2 MSTORE PUSH1 0x20 PUSH1 0x4 DUP3 ADD MSTORE PUSH1 0xE PUSH1 0x24 DUP3 ADD MSTORE PUSH14 0x4C54563A20626164206375727665 PUSH1 0x90 SHL PUSH1 0x44 DUP3 ADD MSTORE PUSH1 0x64 ADD PUSH2 0x10F3 JUMP JUMPDEST DUP3 DUP5 GT ISZERO DUP1 PUSH2 0x40D9 JUMPI POP DUP3 DUP3 GT ISZERO JUMPDEST ISZERO PUSH2 0x40E5 JUMPI POP DUP5 PUSH2 0x4129 JUMP JUMPDEST PUSH1 0x0 PUSH2 0x40F1 DUP5 DUP5 PUSH2 0x4606 JUMP JUMPDEST PUSH2 0x40FB DUP6 DUP8 PUSH2 0x4606 JUMP JUMPDEST PUSH2 0x4105 DUP9 DUP11 PUSH2 0x4606 JUMP JUMPDEST PUSH2 0x410F SWAP2 SWAP1 PUSH2 0x46B2 JUMP JUMPDEST PUSH2 0x4119 SWAP2 SWAP1 PUSH2 0x46C9 JUMP JUMPDEST SWAP1 POP PUSH2 0x4125 DUP2 DUP9 PUSH2 0x4606 JUMP JUMPDEST SWAP2 POP POP JUMPDEST SWAP6 SWAP5 POP POP POP POP POP JUMP JUMPDEST PUSH1 0x0 DUP1 PUSH1 0x0 DUP1 PUSH1 0x20 PUSH1 0x0 DUP7 MLOAD PUSH1 0x20 DUP9 ADD PUSH1 0x0 DUP11 GAS CALL SWAP3 POP RETURNDATASIZE SWAP2 POP PUSH1 0x0 MLOAD SWAP1 POP DUP3 DUP1 ISZERO PUSH2 0x4177 JUMPI POP DUP2 ISZERO PUSH2 0x4168 JUMPI DUP1 PUSH1 0x1 EQ PUSH2 0x4177 JUMP JUMPDEST PUSH1 0x0 DUP7 PUSH1 0x1 PUSH1 0x1 PUSH1 0xA0 SHL SUB AND EXTCODESIZE GT JUMPDEST SWAP7 SWAP6 POP POP POP POP POP POP JUMP JUMPDEST PUSH1 0x0 DUP1 PUSH1 0x20 PUSH1 0x0 DUP5 MLOAD PUSH1 0x20 DUP7 ADD PUSH1 0x0 DUP9 GAS CALL DUP1 PUSH2 0x41A4 JUMPI PUSH1 0x40 MLOAD RETURNDATASIZE PUSH1 0x0 DUP3 RETURNDATACOPY RETURNDATASIZE DUP2 REVERT JUMPDEST POP POP PUSH1 0x0 MLOAD RETURNDATASIZE SWAP2 POP DUP2 ISZERO PUSH2 0x41BC JUMPI DUP1 PUSH1 0x1 EQ ISZERO PUSH2 0x41C9 JUMP JUMPDEST PUSH1 0x1 PUSH1 0x1 PUSH1 0xA0 SHL SUB DUP5 AND EXTCODESIZE ISZERO JUMPDEST ISZERO PUSH2 0x3982 JUMPI PUSH1 0x40 MLOAD PUSH4 0x5274AFE7 PUSH1 0xE0 SHL DUP2 MSTORE PUSH1 0x1 PUSH1 0x1 PUSH1 0xA0 SHL SUB DUP6 AND PUSH1 0x4 DUP3 ADD MSTORE PUSH1 0x24 ADD PUSH2 0x10F3 JUMP JUMPDEST DUP1 CALLDATALOAD PUSH1 0xFF DUP2 AND DUP2 EQ PUSH2 0x4203 JUMPI PUSH1 0x0 DUP1 REVERT JUMPDEST SWAP2 SWAP1 POP JUMP JUMPDEST DUP1 ISZERO ISZERO DUP2 EQ PUSH2 0x1180 JUMPI PUSH1 0x0 DUP1 REVERT JUMPDEST PUSH1 0x0 DUP1 PUSH1 0x40 DUP4 DUP6 SUB SLT ISZERO PUSH2 0x4229 JUMPI PUSH1 0x0 DUP1 REVERT JUMPDEST PUSH2 0x4232 DUP4 PUSH2 0x41F2 JUMP JUMPDEST SWAP2 POP PUSH1 0x20 DUP4 ADD CALLDATALOAD PUSH2 0x4242 DUP2 PUSH2 0x4208 JUMP JUMPDEST DUP1 SWAP2 POP POP SWAP3 POP SWAP3 SWAP1 POP JUMP JUMPDEST PUSH1 0x0 PUSH1 0x20 DUP3 DUP5 SUB SLT ISZERO PUSH2 0x425F JUMPI PUSH1 0x0 DUP1 REVERT JUMPDEST POP CALLDATALOAD SWAP2 SWAP1 POP JUMP JUMPDEST DUP2 MLOAD ISZERO ISZERO DUP2 MSTORE PUSH1 0x20 DUP1 DUP4 ADD MLOAD SWAP1 DUP3 ADD MSTORE PUSH1 0x40 DUP1 DUP4 ADD MLOAD SWAP1 DUP3 ADD MSTORE PUSH1 0x60 DUP1 DUP4 ADD MLOAD SWAP1 DUP3 ADD MSTORE PUSH1 0x80 DUP2 ADD PUSH2 0x386B JUMP JUMPDEST PUSH4 0x4E487B71 PUSH1 0xE0 SHL PUSH1 0x0 MSTORE PUSH1 0x21 PUSH1 0x4 MSTORE PUSH1 0x24 PUSH1 0x0 REVERT JUMPDEST PUSH1 0x5 DUP2 LT PUSH2 0x42B9 JUMPI PUSH2 0x42B9 PUSH2 0x4293 JUMP JUMPDEST SWAP1 MSTORE JUMP JUMPDEST PUSH1 0x7 DUP2 LT PUSH2 0x42B9 JUMPI PUSH2 0x42B9 PUSH2 0x4293 JUMP JUMPDEST DUP2 MLOAD PUSH1 0x1 PUSH1 0x1 PUSH1 0xA0 SHL SUB AND DUP2 MSTORE PUSH2 0x420 DUP2 ADD PUSH1 0x20 DUP4 ADD MLOAD PUSH1 0x20 DUP4 ADD MSTORE PUSH1 0x40 DUP4 ADD MLOAD PUSH2 0x42FB PUSH1 0x40 DUP5 ADD DUP3 PUSH2 0x42A9 JUMP JUMPDEST POP PUSH1 0x60 DUP4 ADD MLOAD PUSH2 0x4310 PUSH1 0x60 DUP5 ADD DUP3 PUSH1 0xFF AND SWAP1 MSTORE JUMP JUMPDEST POP PUSH1 0x80 DUP4 ADD MLOAD PUSH2 0x4324 PUSH1 0x80 DUP5 ADD DUP3 ISZERO ISZERO SWAP1 MSTORE JUMP JUMPDEST POP PUSH1 0xA0 DUP4 ADD MLOAD PUSH1 0xA0 DUP4 ADD MSTORE PUSH1 0xC0 DUP4 ADD MLOAD PUSH1 0xC0 DUP4 ADD MSTORE PUSH1 0xE0 DUP4 ADD MLOAD PUSH1 0xE0 DUP4 ADD MSTORE PUSH2 0x100 DUP1 DUP5 ADD MLOAD PUSH2 0x4356 DUP3 DUP6 ADD DUP3 PUSH2 0x42BD JUMP JUMPDEST POP POP PUSH2 0x120 DUP4 DUP2 ADD MLOAD SWAP1 DUP4 ADD MSTORE PUSH2 0x140 DUP1 DUP5 ADD MLOAD SWAP1 DUP4 ADD MSTORE PUSH2 0x160 DUP1 DUP5 ADD MLOAD PUSH2 0xFFFF SWAP1 DUP2 AND SWAP2 DUP5 ADD SWAP2 SWAP1 SWAP2 MSTORE PUSH2 0x180 DUP1 DUP6 ADD MLOAD DUP3 AND SWAP1 DUP5 ADD MSTORE PUSH2 0x1A0 DUP1 DUP6 ADD MLOAD SWAP1 SWAP2 AND SWAP1 DUP4 ADD MSTORE PUSH2 0x1C0 DUP1 DUP5 ADD MLOAD PUSH1 0xFF SWAP1 DUP2 AND SWAP2 DUP5 ADD SWAP2 SWAP1 SWAP2 MSTORE PUSH2 0x1E0 DUP1 DUP6 ADD MLOAD SWAP1 SWAP2 AND SWAP1 DUP4 ADD MSTORE PUSH2 0x200 DUP1 DUP5 ADD MLOAD SWAP1 DUP4 ADD MSTORE PUSH2 0x220 DUP1 DUP5 ADD MLOAD SWAP1 DUP4 ADD MSTORE PUSH2 0x240 DUP1 DUP5 ADD MLOAD SWAP1 DUP4 ADD MSTORE PUSH2 0x260 DUP1 DUP5 ADD MLOAD SWAP1 DUP4 ADD MSTORE PUSH2 0x280 DUP1 DUP5 ADD MLOAD SWAP1 DUP4 ADD MSTORE PUSH2 0x2A0 DUP1 DUP5 ADD MLOAD SWAP1 DUP4 ADD MSTORE PUSH2 0x2C0 DUP1 DUP5 ADD MLOAD SWAP1 DUP4 ADD MSTORE PUSH2 0x2E0 DUP1 DUP5 ADD MLOAD SWAP1 DUP4 ADD MSTORE PUSH2 0x300 DUP1 DUP5 ADD MLOAD SWAP1 DUP4 ADD MSTORE PUSH2 0x320 DUP1 DUP5 ADD MLOAD ISZERO ISZERO SWAP1 DUP4 ADD MSTORE PUSH2 0x340 DUP1 DUP5 ADD MLOAD ISZERO ISZERO SWAP1 DUP4 ADD MSTORE PUSH2 0x360 DUP1 DUP5 ADD MLOAD SWAP1 DUP4 ADD MSTORE PUSH2 0x380 DUP1 DUP5 ADD MLOAD SWAP1 DUP4 ADD MSTORE PUSH2 0x3A0 SWAP3 DUP4 ADD MLOAD DUP1 MLOAD ISZERO ISZERO SWAP4 DUP4 ADD SWAP4 SWAP1 SWAP4 MSTORE PUSH1 0x20 DUP4 ADD MLOAD PUSH2 0x3C0 DUP4 ADD MSTORE PUSH1 0x40 DUP4 ADD MLOAD PUSH2 0x3E0 DUP4 ADD MSTORE PUSH1 0x60 SWAP1 SWAP3 ADD MLOAD PUSH2 0x400 SWAP1 SWAP2 ADD MSTORE SWAP1 JUMP JUMPDEST PUSH1 0x1 PUSH1 0x1 PUSH1 0xA0 SHL SUB DUP2 AND DUP2 EQ PUSH2 0x1180 JUMPI PUSH1 0x0 DUP1 REVERT JUMPDEST PUSH1 0x0 DUP1 PUSH1 0x0 DUP1 PUSH1 0x0 DUP1 PUSH1 0x0 DUP1 DUP9 DUP11 SUB PUSH2 0x180 DUP2 SLT ISZERO PUSH2 0x44BC JUMPI PUSH1 0x0 DUP1 REVERT JUMPDEST DUP10 CALLDATALOAD PUSH2 0x44C7 DUP2 PUSH2 0x4489 JUMP JUMPDEST SWAP9 POP PUSH1 0x20 DUP11 ADD CALLDATALOAD PUSH2 0x44D7 DUP2 PUSH2 0x4489 JUMP JUMPDEST SWAP8 POP PUSH1 0x40 DUP11 ADD CALLDATALOAD PUSH2 0x44E7 DUP2 PUSH2 0x4489 JUMP JUMPDEST SWAP7 POP PUSH1 0x60 DUP11 ADD CALLDATALOAD PUSH2 0x44F7 DUP2 PUSH2 0x4489 JUMP JUMPDEST SWAP6 POP PUSH1 0x80 DUP11 ADD CALLDATALOAD PUSH2 0x4507 DUP2 PUSH2 0x4489 JUMP JUMPDEST SWAP5 POP PUSH1 0xA0 DUP11 ADD CALLDATALOAD PUSH2 0x4517 DUP2 PUSH2 0x4489 JUMP JUMPDEST SWAP4 POP PUSH1 0xC0 DUP11 ADD CALLDATALOAD SWAP3 POP PUSH1 0xA0 PUSH1 0xDF NOT DUP3 ADD SLT ISZERO PUSH2 0x4532 JUMPI PUSH1 0x0 DUP1 REVERT JUMPDEST POP PUSH1 0xE0 DUP10 ADD SWAP1 POP SWAP3 SWAP6 SWAP9 POP SWAP3 SWAP6 SWAP9 SWAP1 SWAP4 SWAP7 POP JUMP JUMPDEST PUSH1 0x0 DUP1 PUSH1 0x0 PUSH1 0x60 DUP5 DUP7 SUB SLT ISZERO PUSH2 0x455B JUMPI PUSH1 0x0 DUP1 REVERT JUMPDEST PUSH2 0x4564 DUP5 PUSH2 0x41F2 JUMP JUMPDEST SWAP3 POP PUSH1 0x20 DUP5 ADD CALLDATALOAD SWAP2 POP PUSH1 0x40 DUP5 ADD CALLDATALOAD PUSH2 0x457B DUP2 PUSH2 0x4208 JUMP JUMPDEST DUP1 SWAP2 POP POP SWAP3 POP SWAP3 POP SWAP3 JUMP JUMPDEST PUSH1 0x20 DUP2 ADD PUSH2 0x386B DUP3 DUP5 PUSH2 0x42A9 JUMP JUMPDEST PUSH1 0x60 DUP2 ADD PUSH2 0x45A2 DUP3 DUP7 PUSH2 0x42BD JUMP JUMPDEST PUSH1 0x20 DUP3 ADD SWAP4 SWAP1 SWAP4 MSTORE PUSH1 0x40 ADD MSTORE SWAP2 SWAP1 POP JUMP JUMPDEST PUSH1 0x0 PUSH1 0x20 DUP3 DUP5 SUB SLT ISZERO PUSH2 0x45C5 JUMPI PUSH1 0x0 DUP1 REVERT JUMPDEST POP MLOAD SWAP2 SWAP1 POP JUMP JUMPDEST PUSH1 0x0 PUSH1 0x20 DUP3 DUP5 SUB SLT ISZERO PUSH2 0x45DE JUMPI PUSH1 0x0 DUP1 REVERT JUMPDEST DUP2 MLOAD PUSH2 0x45E9 DUP2 PUSH2 0x4208 JUMP JUMPDEST SWAP4 SWAP3 POP POP POP JUMP JUMPDEST PUSH4 0x4E487B71 PUSH1 0xE0 SHL PUSH1 0x0 MSTORE PUSH1 0x11 PUSH1 0x4 MSTORE PUSH1 0x24 PUSH1 0x0 REVERT JUMPDEST DUP2 DUP2 SUB DUP2 DUP2 GT ISZERO PUSH2 0x386B JUMPI PUSH2 0x386B PUSH2 0x45F0 JUMP JUMPDEST PUSH1 0x0 PUSH1 0x1 PUSH1 0xFF SHL DUP3 ADD PUSH2 0x462E JUMPI PUSH2 0x462E PUSH2 0x45F0 JUMP JUMPDEST POP PUSH1 0x0 SUB SWAP1 JUMP JUMPDEST PUSH1 0x0 PUSH1 0x80 DUP3 DUP5 SUB SLT ISZERO PUSH2 0x4647 JUMPI PUSH1 0x0 DUP1 REVERT JUMPDEST PUSH1 0x40 MLOAD PUSH1 0x80 DUP2 ADD DUP2 DUP2 LT PUSH8 0xFFFFFFFFFFFFFFFF DUP3 GT OR ISZERO PUSH2 0x4678 JUMPI PUSH4 0x4E487B71 PUSH1 0xE0 SHL PUSH1 0x0 MSTORE PUSH1 0x41 PUSH1 0x4 MSTORE PUSH1 0x24 PUSH1 0x0 REVERT JUMPDEST PUSH1 0x40 MSTORE DUP3 MLOAD PUSH2 0x4686 DUP2 PUSH2 0x4208 JUMP JUMPDEST DUP1 DUP3 MSTORE POP PUSH1 0x20 DUP4 ADD MLOAD PUSH1 0x20 DUP3 ADD MSTORE PUSH1 0x40 DUP4 ADD MLOAD PUSH1 0x40 DUP3 ADD MSTORE PUSH1 0x60 DUP4 ADD MLOAD PUSH1 0x60 DUP3 ADD MSTORE DUP1 SWAP2 POP POP SWAP3 SWAP2 POP POP JUMP JUMPDEST DUP1 DUP3 MUL DUP2 ISZERO DUP3 DUP3 DIV DUP5 EQ OR PUSH2 0x386B JUMPI PUSH2 0x386B PUSH2 0x45F0 JUMP JUMPDEST PUSH1 0x0 DUP3 PUSH2 0x46E6 JUMPI PUSH4 0x4E487B71 PUSH1 0xE0 SHL PUSH1 0x0 MSTORE PUSH1 0x12 PUSH1 0x4 MSTORE PUSH1 0x24 PUSH1 0x0 REVERT JUMPDEST POP DIV SWAP1 JUMP JUMPDEST DUP1 DUP3 ADD DUP1 DUP3 GT ISZERO PUSH2 0x386B JUMPI PUSH2 0x386B PUSH2 0x45F0 JUMP JUMPDEST DUP2 DUP2 SUB PUSH1 0x0 DUP4 SLT DUP1 ISZERO DUP4 DUP4 SGT AND DUP4 DUP4 SLT DUP3 AND OR ISZERO PUSH2 0x471E JUMPI PUSH2 0x471E PUSH2 0x45F0 JUMP JUMPDEST POP SWAP3 SWAP2 POP POP JUMP JUMPDEST PUSH1 0x0 PUSH1 0x20 DUP3 DUP5 SUB SLT ISZERO PUSH2 0x4737 JUMPI PUSH1 0x0 DUP1 REVERT JUMPDEST DUP2 CALLDATALOAD PUSH2 0xFFFF DUP2 AND DUP2 EQ PUSH2 0x45E9 JUMPI PUSH1 0x0 DUP1 REVERT JUMPDEST PUSH1 0x0 PUSH1 0x20 DUP3 DUP5 SUB SLT ISZERO PUSH2 0x475B JUMPI PUSH1 0x0 DUP1 REVERT JUMPDEST PUSH2 0x3868 DUP3 PUSH2 0x41F2 JUMP INVALID LOG2 PUSH5 0x6970667358 0x22 SLT KECCAK256 0xB7 CALLDATACOPY JUMPDEST AND MSTORE 0xA6 CALL BALANCE LOG1 JUMP GT PUSH12 0x815F223D18A8BE9256FD061 CALLDATASIZE PUSH19 0x3381BCEEE9464736F6C634300081800330000 "},"methodIdentifiers":{"accruedFeesUsdc()":"5987608c","afterOrderCancellation(bytes32)":"41fcf163","afterOrderExecution(bytes32)":"a83e12bd","bufferBps()":"c37b6337","cancelLimitOrder()":"2202ce8c","cancelStopLoss()":"5a88057f","cancelStuckOrder()":"6fcd3ee7","cancelTakeProfit()":"5f8867ed","closePosition()":"c393d0e3","collateral()":"d8dfeb45","collateralValueUsdWad()":"311918ed","currentLTV()":"28e72f97","debt()":"0dca59c1","debtValueUsdWad()":"4412a6b6","deposit(uint256)":"b6b55f25","effectiveMaxLtvBps()":"e4d755c3","factory()":"c45a0155","flatTier()":"f267378e","gmx()":"31e67c71","gmxPosition()":"2e2dbd22","healthFactor()":"22841f01","initialize(address,address,address,address,address,address,bytes32,(uint16,uint16,uint16,uint8,uint8))":"5dd92cd5","isLong()":"202a61a1","isRedeemable()":"af920582","lastAccrual()":"7b3baab4","leverage()":"2c86d98e","liquidate()":"28a07025","liquidator()":"4046ebae","lltvBps()":"b3604c96","marketId()":"6ed71ede","maxLeverage()":"ae3302c2","maxLtv1xBps()":"33d40efa","maxLtvAtMaxLevBps()":"042e1b6b","mint(uint256)":"a0712d68","openLimitPosition(uint8,uint256,bool)":"7dde818c","openPosition(uint8,bool)":"2a758439","oracle()":"7dc0d1d0","owner()":"8da5cb5b","pending()":"e20ccec3","pendingFeesUsdc()":"32335fbd","posKey()":"7aa3fa62","rToken()":"40c65f72","redeem(uint256)":"db006a75","repay(uint256)":"371fd8e6","rltBps()":"286112d0","setStopLoss(uint256)":"e525db20","setTakeProfit(uint256)":"8b52f5b1","slOrderKey()":"a7e566d0","state()":"c19d93fb","tpOrderKey()":"b47b7b72","usdc()":"3e413bee","vaultInfo()":"501ec738","withdraw(uint256)":"2e1a7d4d"}}}}}