{
  "_format": "hh-sol-artifact-1",
  "contractName": "MockPriceOracle",
  "sourceName": "src/oracles/MockPriceOracle.sol",
  "abi": [
    {
      "inputs": [
        {
          "internalType": "uint256",
          "name": "initialPrice8",
          "type": "uint256"
        }
      ],
      "stateMutability": "nonpayable",
      "type": "constructor"
    },
    {
      "inputs": [],
      "name": "NotOwner",
      "type": "error"
    },
    {
      "inputs": [],
      "name": "ZeroPrice",
      "type": "error"
    },
    {
      "anonymous": false,
      "inputs": [
        {
          "indexed": true,
          "internalType": "address",
          "name": "from",
          "type": "address"
        },
        {
          "indexed": true,
          "internalType": "address",
          "name": "to",
          "type": "address"
        }
      ],
      "name": "OwnerTransferred",
      "type": "event"
    },
    {
      "anonymous": false,
      "inputs": [
        {
          "indexed": false,
          "internalType": "uint256",
          "name": "oldPrice",
          "type": "uint256"
        },
        {
          "indexed": false,
          "internalType": "uint256",
          "name": "newPrice",
          "type": "uint256"
        }
      ],
      "name": "PriceUpdated",
      "type": "event"
    },
    {
      "inputs": [],
      "name": "decimals",
      "outputs": [
        {
          "internalType": "uint8",
          "name": "",
          "type": "uint8"
        }
      ],
      "stateMutability": "pure",
      "type": "function"
    },
    {
      "inputs": [],
      "name": "getPrice",
      "outputs": [
        {
          "internalType": "uint256",
          "name": "",
          "type": "uint256"
        }
      ],
      "stateMutability": "view",
      "type": "function"
    },
    {
      "inputs": [],
      "name": "owner",
      "outputs": [
        {
          "internalType": "address",
          "name": "",
          "type": "address"
        }
      ],
      "stateMutability": "view",
      "type": "function"
    },
    {
      "inputs": [
        {
          "internalType": "uint256",
          "name": "price8",
          "type": "uint256"
        }
      ],
      "name": "setPrice",
      "outputs": [],
      "stateMutability": "nonpayable",
      "type": "function"
    },
    {
      "inputs": [
        {
          "internalType": "address",
          "name": "to",
          "type": "address"
        }
      ],
      "name": "transferOwnership",
      "outputs": [],
      "stateMutability": "nonpayable",
      "type": "function"
    }
  ],
  "bytecode": "0x608060405234801561001057600080fd5b506040516102f93803806102f983398101604081905261002f9161006a565b8060000361005057604051634dfba02360e01b815260040160405180910390fd5b600055600180546001600160a01b03191633179055610083565b60006020828403121561007c57600080fd5b5051919050565b610267806100926000396000f3fe608060405234801561001057600080fd5b50600436106100575760003560e01c8063313ce5671461005c5780638da5cb5b1461007057806391b7f5ed1461009b57806398d5fdca146100b0578063f2fde38b146100c1575b600080fd5b604051600881526020015b60405180910390f35b600154610083906001600160a01b031681565b6040516001600160a01b039091168152602001610067565b6100ae6100a93660046101e8565b6100d4565b005b600054604051908152602001610067565b6100ae6100cf366004610201565b610161565b6001546001600160a01b031633146100ff576040516330cd747160e01b815260040160405180910390fd5b8060000361012057604051634dfba02360e01b815260040160405180910390fd5b60005460408051918252602082018390527f945c1c4e99aa89f648fbfe3df471b916f719e16d960fcec0737d4d56bd696838910160405180910390a1600055565b6001546001600160a01b0316331461018c576040516330cd747160e01b815260040160405180910390fd5b6001546040516001600160a01b038084169216907f8934ce4adea8d9ce0d714d2c22b86790e41b7731c84b926fbbdc1d40ff6533c990600090a3600180546001600160a01b0319166001600160a01b0392909216919091179055565b6000602082840312156101fa57600080fd5b5035919050565b60006020828403121561021357600080fd5b81356001600160a01b038116811461022a57600080fd5b939250505056fea2646970667358221220339540335670aba196c46e3ca522384040ca5d3ba778fe6667fe7b158962dac964736f6c63430008180033",
  "linkReferences": {},
  "deployedLinkReferences": {}
}