{
  "_format": "hh-sol-artifact-1",
  "contractName": "RYieldStrategy",
  "sourceName": "src/RYieldStrategy.sol",
  "abi": [
    {
      "inputs": [
        {
          "internalType": "address",
          "name": "vault_",
          "type": "address"
        },
        {
          "internalType": "contract IERC20",
          "name": "usdc_",
          "type": "address"
        },
        {
          "internalType": "contract IERC20",
          "name": "rToken_",
          "type": "address"
        },
        {
          "internalType": "contract IRyexSwapPool",
          "name": "swapPool_",
          "type": "address"
        },
        {
          "internalType": "contract IPriceOracle",
          "name": "oracle_",
          "type": "address"
        },
        {
          "internalType": "contract IShortPerp",
          "name": "shortPerp_",
          "type": "address"
        },
        {
          "internalType": "bytes32",
          "name": "marketId_",
          "type": "bytes32"
        },
        {
          "internalType": "address",
          "name": "keeper_",
          "type": "address"
        },
        {
          "internalType": "address",
          "name": "owner_",
          "type": "address"
        }
      ],
      "stateMutability": "nonpayable",
      "type": "constructor"
    },
    {
      "inputs": [],
      "name": "DeltaImbalance",
      "type": "error"
    },
    {
      "inputs": [],
      "name": "InsufficientUsdc",
      "type": "error"
    },
    {
      "inputs": [],
      "name": "NoShort",
      "type": "error"
    },
    {
      "inputs": [],
      "name": "NotKeeper",
      "type": "error"
    },
    {
      "inputs": [],
      "name": "NotVault",
      "type": "error"
    },
    {
      "inputs": [
        {
          "internalType": "address",
          "name": "owner",
          "type": "address"
        }
      ],
      "name": "OwnableInvalidOwner",
      "type": "error"
    },
    {
      "inputs": [
        {
          "internalType": "address",
          "name": "account",
          "type": "address"
        }
      ],
      "name": "OwnableUnauthorizedAccount",
      "type": "error"
    },
    {
      "inputs": [
        {
          "internalType": "address",
          "name": "token",
          "type": "address"
        }
      ],
      "name": "SafeERC20FailedOperation",
      "type": "error"
    },
    {
      "inputs": [],
      "name": "ShortExists",
      "type": "error"
    },
    {
      "inputs": [],
      "name": "ZeroAmount",
      "type": "error"
    },
    {
      "anonymous": false,
      "inputs": [
        {
          "indexed": false,
          "internalType": "uint256",
          "name": "shortPayout",
          "type": "uint256"
        },
        {
          "indexed": false,
          "internalType": "uint256",
          "name": "longUsdc",
          "type": "uint256"
        }
      ],
      "name": "HedgeClosed",
      "type": "event"
    },
    {
      "anonymous": false,
      "inputs": [
        {
          "indexed": false,
          "internalType": "uint256",
          "name": "usdcLong",
          "type": "uint256"
        },
        {
          "indexed": false,
          "internalType": "uint256",
          "name": "shortMargin",
          "type": "uint256"
        },
        {
          "indexed": false,
          "internalType": "uint256",
          "name": "shortSize",
          "type": "uint256"
        },
        {
          "indexed": false,
          "internalType": "bytes32",
          "name": "shortKey",
          "type": "bytes32"
        }
      ],
      "name": "HedgeOpened",
      "type": "event"
    },
    {
      "anonymous": false,
      "inputs": [
        {
          "indexed": true,
          "internalType": "address",
          "name": "keeper",
          "type": "address"
        }
      ],
      "name": "KeeperSet",
      "type": "event"
    },
    {
      "anonymous": false,
      "inputs": [
        {
          "indexed": false,
          "internalType": "uint256",
          "name": "rTokenIn",
          "type": "uint256"
        },
        {
          "indexed": false,
          "internalType": "uint256",
          "name": "usdcOut",
          "type": "uint256"
        }
      ],
      "name": "LongReduced",
      "type": "event"
    },
    {
      "anonymous": false,
      "inputs": [
        {
          "indexed": true,
          "internalType": "address",
          "name": "previousOwner",
          "type": "address"
        },
        {
          "indexed": true,
          "internalType": "address",
          "name": "newOwner",
          "type": "address"
        }
      ],
      "name": "OwnershipTransferred",
      "type": "event"
    },
    {
      "anonymous": false,
      "inputs": [
        {
          "indexed": false,
          "internalType": "uint256",
          "name": "usdcOut",
          "type": "uint256"
        }
      ],
      "name": "ReturnedToVault",
      "type": "event"
    },
    {
      "anonymous": false,
      "inputs": [
        {
          "indexed": false,
          "internalType": "uint256",
          "name": "amount",
          "type": "uint256"
        }
      ],
      "name": "ShortFundingHarvested",
      "type": "event"
    },
    {
      "inputs": [],
      "name": "DELTA_BAND_BPS",
      "outputs": [
        {
          "internalType": "uint256",
          "name": "",
          "type": "uint256"
        }
      ],
      "stateMutability": "view",
      "type": "function"
    },
    {
      "inputs": [
        {
          "internalType": "uint256",
          "name": "minUsdcOut",
          "type": "uint256"
        }
      ],
      "name": "closeHedge",
      "outputs": [],
      "stateMutability": "nonpayable",
      "type": "function"
    },
    {
      "inputs": [],
      "name": "harvestShortFunding",
      "outputs": [
        {
          "internalType": "uint256",
          "name": "claimed",
          "type": "uint256"
        }
      ],
      "stateMutability": "nonpayable",
      "type": "function"
    },
    {
      "inputs": [],
      "name": "keeper",
      "outputs": [
        {
          "internalType": "address",
          "name": "",
          "type": "address"
        }
      ],
      "stateMutability": "view",
      "type": "function"
    },
    {
      "inputs": [],
      "name": "longValueUsdc",
      "outputs": [
        {
          "internalType": "uint256",
          "name": "",
          "type": "uint256"
        }
      ],
      "stateMutability": "view",
      "type": "function"
    },
    {
      "inputs": [],
      "name": "marketId",
      "outputs": [
        {
          "internalType": "bytes32",
          "name": "",
          "type": "bytes32"
        }
      ],
      "stateMutability": "view",
      "type": "function"
    },
    {
      "inputs": [
        {
          "internalType": "uint256",
          "name": "usdcLong",
          "type": "uint256"
        },
        {
          "internalType": "uint256",
          "name": "shortMargin",
          "type": "uint256"
        },
        {
          "internalType": "uint256",
          "name": "shortSize",
          "type": "uint256"
        },
        {
          "internalType": "uint256",
          "name": "minRBtcOut",
          "type": "uint256"
        }
      ],
      "name": "openHedge",
      "outputs": [],
      "stateMutability": "nonpayable",
      "type": "function"
    },
    {
      "inputs": [],
      "name": "oracle",
      "outputs": [
        {
          "internalType": "contract IPriceOracle",
          "name": "",
          "type": "address"
        }
      ],
      "stateMutability": "view",
      "type": "function"
    },
    {
      "inputs": [],
      "name": "owner",
      "outputs": [
        {
          "internalType": "address",
          "name": "",
          "type": "address"
        }
      ],
      "stateMutability": "view",
      "type": "function"
    },
    {
      "inputs": [],
      "name": "rToken",
      "outputs": [
        {
          "internalType": "contract IERC20",
          "name": "",
          "type": "address"
        }
      ],
      "stateMutability": "view",
      "type": "function"
    },
    {
      "inputs": [],
      "name": "rTokenBalance",
      "outputs": [
        {
          "internalType": "uint256",
          "name": "",
          "type": "uint256"
        }
      ],
      "stateMutability": "view",
      "type": "function"
    },
    {
      "inputs": [
        {
          "internalType": "uint256",
          "name": "rTokenIn",
          "type": "uint256"
        },
        {
          "internalType": "uint256",
          "name": "minUsdcOut",
          "type": "uint256"
        }
      ],
      "name": "reduceLong",
      "outputs": [
        {
          "internalType": "uint256",
          "name": "usdcOut",
          "type": "uint256"
        }
      ],
      "stateMutability": "nonpayable",
      "type": "function"
    },
    {
      "inputs": [],
      "name": "renounceOwnership",
      "outputs": [],
      "stateMutability": "nonpayable",
      "type": "function"
    },
    {
      "inputs": [
        {
          "internalType": "uint256",
          "name": "amount",
          "type": "uint256"
        }
      ],
      "name": "returnToVault",
      "outputs": [],
      "stateMutability": "nonpayable",
      "type": "function"
    },
    {
      "inputs": [
        {
          "internalType": "address",
          "name": "keeper_",
          "type": "address"
        }
      ],
      "name": "setKeeper",
      "outputs": [],
      "stateMutability": "nonpayable",
      "type": "function"
    },
    {
      "inputs": [],
      "name": "shortKey",
      "outputs": [
        {
          "internalType": "bytes32",
          "name": "",
          "type": "bytes32"
        }
      ],
      "stateMutability": "view",
      "type": "function"
    },
    {
      "inputs": [],
      "name": "shortPerp",
      "outputs": [
        {
          "internalType": "contract IShortPerp",
          "name": "",
          "type": "address"
        }
      ],
      "stateMutability": "view",
      "type": "function"
    },
    {
      "inputs": [],
      "name": "shortValueUsdc",
      "outputs": [
        {
          "internalType": "uint256",
          "name": "",
          "type": "uint256"
        }
      ],
      "stateMutability": "view",
      "type": "function"
    },
    {
      "inputs": [],
      "name": "swapPool",
      "outputs": [
        {
          "internalType": "contract IRyexSwapPool",
          "name": "",
          "type": "address"
        }
      ],
      "stateMutability": "view",
      "type": "function"
    },
    {
      "inputs": [],
      "name": "totalValueUsdc",
      "outputs": [
        {
          "internalType": "uint256",
          "name": "",
          "type": "uint256"
        }
      ],
      "stateMutability": "view",
      "type": "function"
    },
    {
      "inputs": [
        {
          "internalType": "address",
          "name": "newOwner",
          "type": "address"
        }
      ],
      "name": "transferOwnership",
      "outputs": [],
      "stateMutability": "nonpayable",
      "type": "function"
    },
    {
      "inputs": [],
      "name": "usdc",
      "outputs": [
        {
          "internalType": "contract IERC20",
          "name": "",
          "type": "address"
        }
      ],
      "stateMutability": "view",
      "type": "function"
    },
    {
      "inputs": [],
      "name": "usdcBalance",
      "outputs": [
        {
          "internalType": "uint256",
          "name": "",
          "type": "uint256"
        }
      ],
      "stateMutability": "view",
      "type": "function"
    },
    {
      "inputs": [],
      "name": "vault",
      "outputs": [
        {
          "internalType": "address",
          "name": "",
          "type": "address"
        }
      ],
      "stateMutability": "view",
      "type": "function"
    }
  ],
  "bytecode": "0x6101606040523480156200001257600080fd5b50604051620019e4380380620019e48339810160408190526200003591620001f7565b806001600160a01b0381166200006657604051631e4fbdf760e01b8152600060048201526024015b60405180910390fd5b62000071816200018e565b506001600160a01b038916158015906200009357506001600160a01b03881615155b8015620000a857506001600160a01b03871615155b8015620000bd57506001600160a01b03861615155b8015620000d257506001600160a01b03841615155b6200010c5760405162461bcd60e51b81526020600482015260096024820152683d32b9379030b2323960b91b60448201526064016200005d565b6001600160a01b0389811660805288811660a05287811660c05286811660e0528581166101005284811661012052610140849052600180546001600160a01b03191691841691821790556040517fdc3dba1d64dd67c0dc8b12621edd0c6ca4303a9073c3a8fcac38115e73d67b6b90600090a2505050505050505050620002c2565b600080546001600160a01b038381166001600160a01b0319831681178455604051919092169283917f8be0079c531659141344cd1fd0a4f28419497f9722a3daafe3b4186f6b6457e09190a35050565b6001600160a01b0381168114620001f457600080fd5b50565b60008060008060008060008060006101208a8c0312156200021757600080fd5b89516200022481620001de565b60208b01519099506200023781620001de565b60408b01519098506200024a81620001de565b60608b01519097506200025d81620001de565b60808b01519096506200027081620001de565b60a08b01519095506200028381620001de565b60c08b015160e08c015191955093506200029d81620001de565b6101008b0151909250620002b181620001de565b809150509295985092959850929598565b60805160a05160c05160e0516101005161012051610140516115fc620003e860003960006102370152600081816102810152818161074a0152818161078c01528181610a1601528181610d6601526110bf015260006102a80152600081816102fb015281816104250152818161065d015281816106a501528181610b6201528181610baa01528181610ea70152610eef0152600081816101ed0152818161039c01528181610aad01528181610b4001528181610dfb0152610e850152600081816101ae015281816105380152818161063b01528181610728015281816108d50152818161097401528181610c8d01528181610fcd01526111490152600081816103580152818161085f015281816109960152818161116b01526111a601526115fc6000f3fe608060405234801561001057600080fd5b50600436106101585760003560e01c8063748747e6116100c3578063982697dd1161007c578063982697dd146102f6578063aa6432971461031d578063aced166114610325578063e874910c14610338578063f2fde38b14610340578063fbfa77cf1461035357600080fd5b8063748747e6146102695780637a3a23041461027c5780637dc0d1d0146102a3578063817f9bc4146102ca5780638da5cb5b146102dd578063957a7c02146102ee57600080fd5b806340fdd1da1161011557806340fdd1da1461020f57806348bf5929146102175780635e99a7571461021f5780636ed71ede14610232578063715018a61461025957806373688e561461026157600080fd5b8063079561591461015d5780630c418634146101785780632361b5c1146101815780632fb0b77e146101965780633e413bee146101a957806340c65f72146101e8575b600080fd5b61016561037a565b6040519081526020015b60405180910390f35b61016560025481565b61019461018f3660046114bd565b6104a6565b005b6101946101a43660046114ef565b610854565b6101d07f000000000000000000000000000000000000000000000000000000000000000081565b6040516001600160a01b03909116815260200161016f565b6101d07f000000000000000000000000000000000000000000000000000000000000000081565b6101656109f1565b610165610a95565b61016561022d366004611508565b610ae4565b6101657f000000000000000000000000000000000000000000000000000000000000000081565b610194610c61565b610165610c75565b61019461027736600461152a565b610cc4565b6101d07f000000000000000000000000000000000000000000000000000000000000000081565b6101d07f000000000000000000000000000000000000000000000000000000000000000081565b6101946102d83660046114ef565b610d16565b6000546001600160a01b03166101d0565b610165610fa6565b6101d07f000000000000000000000000000000000000000000000000000000000000000081565b61016560c881565b6001546101d0906001600160a01b031681565b610165611054565b61019461034e36600461152a565b611241565b6101d07f000000000000000000000000000000000000000000000000000000000000000081565b6040516370a0823160e01b815230600482015260009081906001600160a01b037f000000000000000000000000000000000000000000000000000000000000000016906370a0823190602401602060405180830381865afa1580156103e3573d6000803e3d6000fd5b505050506040513d601f19601f82011682018060405250810190610407919061155a565b9050801561049d5760405163e62d0f8360e01b8152600481018290527f00000000000000000000000000000000000000000000000000000000000000006001600160a01b03169063e62d0f8390602401602060405180830381865afa158015610474573d6000803e3d6000fd5b505050506040513d601f19601f82011682018060405250810190610498919061155a565b6104a0565b60005b91505090565b6001546001600160a01b031633146104d157604051631ea2564f60e31b815260040160405180910390fd5b8315806104dc575082155b806104e5575081155b1561050357604051631f2a200560e01b815260040160405180910390fd5b6002541561052357604051628a616760e31b815260040160405180910390fd5b6040516370a0823160e01b81523060048201527f00000000000000000000000000000000000000000000000000000000000000006001600160a01b0316906370a0823190602401602060405180830381865afa158015610587573d6000803e3d6000fd5b505050506040513d601f19601f820116820180604052508101906105ab919061155a565b6105b58486611589565b11156105d45760405163febd90e760e01b815260040160405180910390fd5b60008285116105ec576105e7858461159c565b6105f6565b6105f6838661159c565b905061060360c8846115af565b61060f612710836115af565b111561062e5760405163750d40fb60e01b815260040160405180910390fd5b6106826001600160a01b037f0000000000000000000000000000000000000000000000000000000000000000167f000000000000000000000000000000000000000000000000000000000000000087611284565b60405163c46d1fb960e01b815260048101869052602481018390523060448201527f00000000000000000000000000000000000000000000000000000000000000006001600160a01b03169063c46d1fb9906064016020604051808303816000875af11580156106f6573d6000803e3d6000fd5b505050506040513d601f19601f8201168201806040525081019061071a919061155a565b5061076f6001600160a01b037f0000000000000000000000000000000000000000000000000000000000000000167f000000000000000000000000000000000000000000000000000000000000000086611284565b604051631266a61960e01b815260048101859052602481018490527f00000000000000000000000000000000000000000000000000000000000000006001600160a01b031690631266a619906044016020604051808303816000875af11580156107dd573d6000803e3d6000fd5b505050506040513d601f19601f82011682018060405250810190610801919061155a565b600281905560408051878152602081018790528082018690526060810192909252517f64d006ab877cc27d172084c823c4710a39528c925e222be8f3f83bced37cc0829181900360800190a15050505050565b336001600160a01b037f0000000000000000000000000000000000000000000000000000000000000000161461089d576040516362df054560e01b815260040160405180910390fd5b806000036108be57604051631f2a200560e01b815260040160405180910390fd5b6040516370a0823160e01b815230600482015281907f00000000000000000000000000000000000000000000000000000000000000006001600160a01b0316906370a0823190602401602060405180830381865afa158015610924573d6000803e3d6000fd5b505050506040513d601f19601f82011682018060405250810190610948919061155a565b10156109675760405163febd90e760e01b815260040160405180910390fd5b6109bb6001600160a01b037f0000000000000000000000000000000000000000000000000000000000000000167f000000000000000000000000000000000000000000000000000000000000000083611348565b6040518181527f95f646c52500610f7fac511dddcb212850aa5829307e6c5fc69838022b791cd79060200160405180910390a150565b60025460009015610a8f57600254604051636ab3739760e11b815260048101919091527f00000000000000000000000000000000000000000000000000000000000000006001600160a01b03169063d566e72e906024015b602060405180830381865afa158015610a66573d6000803e3d6000fd5b505050506040513d601f19601f82011682018060405250810190610a8a919061155a565b905090565b50600090565b6040516370a0823160e01b81523060048201526000907f00000000000000000000000000000000000000000000000000000000000000006001600160a01b0316906370a0823190602401610a49565b6001546000906001600160a01b03163314610b1257604051631ea2564f60e31b815260040160405180910390fd5b82600003610b3357604051631f2a200560e01b815260040160405180910390fd5b610b876001600160a01b037f0000000000000000000000000000000000000000000000000000000000000000167f000000000000000000000000000000000000000000000000000000000000000085611284565b604051632d3e484960e11b815260048101849052602481018390523060448201527f00000000000000000000000000000000000000000000000000000000000000006001600160a01b031690635a7c9092906064016020604051808303816000875af1158015610bfb573d6000803e3d6000fd5b505050506040513d601f19601f82011682018060405250810190610c1f919061155a565b60408051858152602081018390529192507f68a3ad8c55d83cb32c2c6e2fc46bf7fbc11485a6cb54f5a512ce4bbe4ce20031910160405180910390a192915050565b610c6961137e565b610c7360006113ab565b565b6040516370a0823160e01b81523060048201526000907f00000000000000000000000000000000000000000000000000000000000000006001600160a01b0316906370a0823190602401610a49565b610ccc61137e565b600180546001600160a01b0319166001600160a01b0383169081179091556040517fdc3dba1d64dd67c0dc8b12621edd0c6ca4303a9073c3a8fcac38115e73d67b6b90600090a250565b6001546001600160a01b03163314610d4157604051631ea2564f60e31b815260040160405180910390fd5b60025460009015610de35760025460405163460e8b8960e01b815260048101919091527f00000000000000000000000000000000000000000000000000000000000000006001600160a01b03169063460e8b89906024016020604051808303816000875af1158015610db7573d6000803e3d6000fd5b505050506040513d601f19601f82011682018060405250810190610ddb919061155a565b600060025590505b6040516370a0823160e01b81523060048201526000907f00000000000000000000000000000000000000000000000000000000000000006001600160a01b0316906370a0823190602401602060405180830381865afa158015610e4a573d6000803e3d6000fd5b505050506040513d601f19601f82011682018060405250810190610e6e919061155a565b905060008115610f6757610ecc6001600160a01b037f0000000000000000000000000000000000000000000000000000000000000000167f000000000000000000000000000000000000000000000000000000000000000084611284565b604051632d3e484960e11b815260048101839052602481018590523060448201527f00000000000000000000000000000000000000000000000000000000000000006001600160a01b031690635a7c9092906064016020604051808303816000875af1158015610f40573d6000803e3d6000fd5b505050506040513d601f19601f82011682018060405250810190610f64919061155a565b90505b60408051848152602081018390527febc9384169fde5e02bff86646d1db67fe58489079a6a417e65dedf85099b71ee910160405180910390a150505050565b6000610fb06109f1565b610fb861037a565b6040516370a0823160e01b81523060048201527f00000000000000000000000000000000000000000000000000000000000000006001600160a01b0316906370a0823190602401602060405180830381865afa15801561101c573d6000803e3d6000fd5b505050506040513d601f19601f82011682018060405250810190611040919061155a565b61104a9190611589565b610a8a9190611589565b6001546000906001600160a01b0316331461108257604051631ea2564f60e31b815260040160405180910390fd5b6002546000036110a5576040516309e686f960e11b815260040160405180910390fd5b6002546040516364d8286f60e01b815260048101919091527f00000000000000000000000000000000000000000000000000000000000000006001600160a01b0316906364d8286f906024016020604051808303816000875af1158015611110573d6000803e3d6000fd5b505050506040513d601f19601f82011682018060405250810190611134919061155a565b9050801561120b576111906001600160a01b037f0000000000000000000000000000000000000000000000000000000000000000167f000000000000000000000000000000000000000000000000000000000000000083611284565b6040516309666cb760e41b8152600481018290527f00000000000000000000000000000000000000000000000000000000000000006001600160a01b031690639666cb7090602401600060405180830381600087803b1580156111f257600080fd5b505af1158015611206573d6000803e3d6000fd5b505050505b6040518181527fa07042858696f5a5a31c3d21dcb5662b7e8f754c45ac74347eea9732d6899b679060200160405180910390a190565b61124961137e565b6001600160a01b03811661127857604051631e4fbdf760e01b8152600060048201526024015b60405180910390fd5b611281816113ab565b50565b604080516001600160a01b038416602482015260448082018490528251808303909101815260649091019091526020810180516001600160e01b031663095ea7b360e01b1790526112d584826113fb565b611342576040516001600160a01b0384811660248301526000604483015261133891869182169063095ea7b3906064015b604051602081830303815290604052915060e01b6020820180516001600160e01b03838183161783525050505061144c565b611342848261144c565b50505050565b6040516001600160a01b0383811660248301526044820183905261137991859182169063a9059cbb90606401611306565b505050565b6000546001600160a01b03163314610c735760405163118cdaa760e01b815233600482015260240161126f565b600080546001600160a01b038381166001600160a01b0319831681178455604051919092169283917f8be0079c531659141344cd1fd0a4f28419497f9722a3daafe3b4186f6b6457e09190a35050565b6000806000806020600086516020880160008a5af192503d91506000519050828015611440575081156114315780600114611440565b6000866001600160a01b03163b115b93505050505b92915050565b600080602060008451602086016000885af18061146f576040513d6000823e3d81fd5b50506000513d91508115611487578060011415611494565b6001600160a01b0384163b155b1561134257604051635274afe760e01b81526001600160a01b038516600482015260240161126f565b600080600080608085870312156114d357600080fd5b5050823594602084013594506040840135936060013592509050565b60006020828403121561150157600080fd5b5035919050565b6000806040838503121561151b57600080fd5b50508035926020909101359150565b60006020828403121561153c57600080fd5b81356001600160a01b038116811461155357600080fd5b9392505050565b60006020828403121561156c57600080fd5b5051919050565b634e487b7160e01b600052601160045260246000fd5b8082018082111561144657611446611573565b8181038181111561144657611446611573565b80820281158282048414176114465761144661157356fea26469706673582212204ec2ca23aa4106db66b86184289de05d32f849aa935c6cdc19b132931c765c6564736f6c63430008180033",
  "linkReferences": {},
  "deployedLinkReferences": {}
}