{
  "_format": "hh-sol-artifact-1",
  "contractName": "GmxV2Adapter",
  "sourceName": "src/adapters/GmxV2Adapter.sol",
  "abi": [
    {
      "inputs": [
        {
          "internalType": "contract IERC20",
          "name": "usdc_",
          "type": "address"
        },
        {
          "internalType": "contract IGmxExchangeRouter",
          "name": "exchangeRouter_",
          "type": "address"
        },
        {
          "internalType": "address",
          "name": "gmxRouter_",
          "type": "address"
        },
        {
          "internalType": "address",
          "name": "orderVault_",
          "type": "address"
        },
        {
          "internalType": "address",
          "name": "reader_",
          "type": "address"
        },
        {
          "internalType": "address",
          "name": "dataStore_",
          "type": "address"
        },
        {
          "internalType": "address",
          "name": "gmxOrderHandler_",
          "type": "address"
        },
        {
          "internalType": "address",
          "name": "owner_",
          "type": "address"
        }
      ],
      "stateMutability": "payable",
      "type": "constructor"
    },
    {
      "inputs": [
        {
          "internalType": "address",
          "name": "owner",
          "type": "address"
        }
      ],
      "name": "OwnableInvalidOwner",
      "type": "error"
    },
    {
      "inputs": [
        {
          "internalType": "address",
          "name": "account",
          "type": "address"
        }
      ],
      "name": "OwnableUnauthorizedAccount",
      "type": "error"
    },
    {
      "inputs": [
        {
          "internalType": "address",
          "name": "token",
          "type": "address"
        }
      ],
      "name": "SafeERC20FailedOperation",
      "type": "error"
    },
    {
      "anonymous": false,
      "inputs": [
        {
          "indexed": true,
          "internalType": "bytes32",
          "name": "marketId",
          "type": "bytes32"
        },
        {
          "indexed": false,
          "internalType": "address",
          "name": "oracle",
          "type": "address"
        },
        {
          "indexed": false,
          "internalType": "address",
          "name": "gmxMarket",
          "type": "address"
        }
      ],
      "name": "MarketRegistered",
      "type": "event"
    },
    {
      "anonymous": false,
      "inputs": [
        {
          "indexed": true,
          "internalType": "bytes32",
          "name": "orderKey",
          "type": "bytes32"
        },
        {
          "indexed": false,
          "internalType": "bytes32",
          "name": "gmxKey",
          "type": "bytes32"
        }
      ],
      "name": "OrderCancelled",
      "type": "event"
    },
    {
      "anonymous": false,
      "inputs": [
        {
          "indexed": true,
          "internalType": "bytes32",
          "name": "orderKey",
          "type": "bytes32"
        },
        {
          "indexed": true,
          "internalType": "address",
          "name": "vault",
          "type": "address"
        },
        {
          "indexed": false,
          "internalType": "uint8",
          "name": "kind",
          "type": "uint8"
        },
        {
          "indexed": false,
          "internalType": "bytes32",
          "name": "gmxKey",
          "type": "bytes32"
        }
      ],
      "name": "OrderCreated",
      "type": "event"
    },
    {
      "anonymous": false,
      "inputs": [
        {
          "indexed": true,
          "internalType": "bytes32",
          "name": "orderKey",
          "type": "bytes32"
        },
        {
          "indexed": false,
          "internalType": "bytes32",
          "name": "gmxKey",
          "type": "bytes32"
        }
      ],
      "name": "OrderExecuted",
      "type": "event"
    },
    {
      "anonymous": false,
      "inputs": [
        {
          "indexed": true,
          "internalType": "bytes32",
          "name": "gmxKey",
          "type": "bytes32"
        }
      ],
      "name": "OrderFrozen",
      "type": "event"
    },
    {
      "anonymous": false,
      "inputs": [
        {
          "indexed": true,
          "internalType": "address",
          "name": "previousOwner",
          "type": "address"
        },
        {
          "indexed": true,
          "internalType": "address",
          "name": "newOwner",
          "type": "address"
        }
      ],
      "name": "OwnershipTransferred",
      "type": "event"
    },
    {
      "inputs": [],
      "name": "acceptablePriceMax",
      "outputs": [
        {
          "internalType": "uint256",
          "name": "",
          "type": "uint256"
        }
      ],
      "stateMutability": "view",
      "type": "function"
    },
    {
      "inputs": [],
      "name": "acceptablePriceMin",
      "outputs": [
        {
          "internalType": "uint256",
          "name": "",
          "type": "uint256"
        }
      ],
      "stateMutability": "view",
      "type": "function"
    },
    {
      "inputs": [
        {
          "internalType": "bytes32",
          "name": "key",
          "type": "bytes32"
        },
        {
          "components": [
            {
              "components": [
                {
                  "components": [
                    {
                      "internalType": "string",
                      "name": "key",
                      "type": "string"
                    },
                    {
                      "internalType": "address",
                      "name": "value",
                      "type": "address"
                    }
                  ],
                  "internalType": "struct IGmxOrderCallbackReceiver.AddressKeyValue[]",
                  "name": "items",
                  "type": "tuple[]"
                },
                {
                  "components": [
                    {
                      "internalType": "string",
                      "name": "key",
                      "type": "string"
                    },
                    {
                      "internalType": "address[]",
                      "name": "value",
                      "type": "address[]"
                    }
                  ],
                  "internalType": "struct IGmxOrderCallbackReceiver.AddressArrayKeyValue[]",
                  "name": "arrayItems",
                  "type": "tuple[]"
                }
              ],
              "internalType": "struct IGmxOrderCallbackReceiver.AddressItems",
              "name": "addressItems",
              "type": "tuple"
            },
            {
              "components": [
                {
                  "components": [
                    {
                      "internalType": "string",
                      "name": "key",
                      "type": "string"
                    },
                    {
                      "internalType": "uint256",
                      "name": "value",
                      "type": "uint256"
                    }
                  ],
                  "internalType": "struct IGmxOrderCallbackReceiver.UintKeyValue[]",
                  "name": "items",
                  "type": "tuple[]"
                },
                {
                  "components": [
                    {
                      "internalType": "string",
                      "name": "key",
                      "type": "string"
                    },
                    {
                      "internalType": "uint256[]",
                      "name": "value",
                      "type": "uint256[]"
                    }
                  ],
                  "internalType": "struct IGmxOrderCallbackReceiver.UintArrayKeyValue[]",
                  "name": "arrayItems",
                  "type": "tuple[]"
                }
              ],
              "internalType": "struct IGmxOrderCallbackReceiver.UintItems",
              "name": "uintItems",
              "type": "tuple"
            },
            {
              "components": [
                {
                  "components": [
                    {
                      "internalType": "string",
                      "name": "key",
                      "type": "string"
                    },
                    {
                      "internalType": "int256",
                      "name": "value",
                      "type": "int256"
                    }
                  ],
                  "internalType": "struct IGmxOrderCallbackReceiver.IntKeyValue[]",
                  "name": "items",
                  "type": "tuple[]"
                },
                {
                  "components": [
                    {
                      "internalType": "string",
                      "name": "key",
                      "type": "string"
                    },
                    {
                      "internalType": "int256[]",
                      "name": "value",
                      "type": "int256[]"
                    }
                  ],
                  "internalType": "struct IGmxOrderCallbackReceiver.IntArrayKeyValue[]",
                  "name": "arrayItems",
                  "type": "tuple[]"
                }
              ],
              "internalType": "struct IGmxOrderCallbackReceiver.IntItems",
              "name": "intItems",
              "type": "tuple"
            },
            {
              "components": [
                {
                  "components": [
                    {
                      "internalType": "string",
                      "name": "key",
                      "type": "string"
                    },
                    {
                      "internalType": "bool",
                      "name": "value",
                      "type": "bool"
                    }
                  ],
                  "internalType": "struct IGmxOrderCallbackReceiver.BoolKeyValue[]",
                  "name": "items",
                  "type": "tuple[]"
                },
                {
                  "components": [
                    {
                      "internalType": "string",
                      "name": "key",
                      "type": "string"
                    },
                    {
                      "internalType": "bool[]",
                      "name": "value",
                      "type": "bool[]"
                    }
                  ],
                  "internalType": "struct IGmxOrderCallbackReceiver.BoolArrayKeyValue[]",
                  "name": "arrayItems",
                  "type": "tuple[]"
                }
              ],
              "internalType": "struct IGmxOrderCallbackReceiver.BoolItems",
              "name": "boolItems",
              "type": "tuple"
            },
            {
              "components": [
                {
                  "components": [
                    {
                      "internalType": "string",
                      "name": "key",
                      "type": "string"
                    },
                    {
                      "internalType": "bytes32",
                      "name": "value",
                      "type": "bytes32"
                    }
                  ],
                  "internalType": "struct IGmxOrderCallbackReceiver.Bytes32KeyValue[]",
                  "name": "items",
                  "type": "tuple[]"
                },
                {
                  "components": [
                    {
                      "internalType": "string",
                      "name": "key",
                      "type": "string"
                    },
                    {
                      "internalType": "bytes32[]",
                      "name": "value",
                      "type": "bytes32[]"
                    }
                  ],
                  "internalType": "struct IGmxOrderCallbackReceiver.Bytes32ArrayKeyValue[]",
                  "name": "arrayItems",
                  "type": "tuple[]"
                }
              ],
              "internalType": "struct IGmxOrderCallbackReceiver.Bytes32Items",
              "name": "bytes32Items",
              "type": "tuple"
            },
            {
              "components": [
                {
                  "components": [
                    {
                      "internalType": "string",
                      "name": "key",
                      "type": "string"
                    },
                    {
                      "internalType": "bytes",
                      "name": "value",
                      "type": "bytes"
                    }
                  ],
                  "internalType": "struct IGmxOrderCallbackReceiver.BytesKeyValue[]",
                  "name": "items",
                  "type": "tuple[]"
                },
                {
                  "components": [
                    {
                      "internalType": "string",
                      "name": "key",
                      "type": "string"
                    },
                    {
                      "internalType": "bytes[]",
                      "name": "value",
                      "type": "bytes[]"
                    }
                  ],
                  "internalType": "struct IGmxOrderCallbackReceiver.BytesArrayKeyValue[]",
                  "name": "arrayItems",
                  "type": "tuple[]"
                }
              ],
              "internalType": "struct IGmxOrderCallbackReceiver.BytesItems",
              "name": "bytesItems",
              "type": "tuple"
            },
            {
              "components": [
                {
                  "components": [
                    {
                      "internalType": "string",
                      "name": "key",
                      "type": "string"
                    },
                    {
                      "internalType": "string",
                      "name": "value",
                      "type": "string"
                    }
                  ],
                  "internalType": "struct IGmxOrderCallbackReceiver.StringKeyValue[]",
                  "name": "items",
                  "type": "tuple[]"
                },
                {
                  "components": [
                    {
                      "internalType": "string",
                      "name": "key",
                      "type": "string"
                    },
                    {
                      "internalType": "string[]",
                      "name": "value",
                      "type": "string[]"
                    }
                  ],
                  "internalType": "struct IGmxOrderCallbackReceiver.StringArrayKeyValue[]",
                  "name": "arrayItems",
                  "type": "tuple[]"
                }
              ],
              "internalType": "struct IGmxOrderCallbackReceiver.StringItems",
              "name": "stringItems",
              "type": "tuple"
            }
          ],
          "internalType": "struct IGmxOrderCallbackReceiver.EventLogData",
          "name": "",
          "type": "tuple"
        },
        {
          "components": [
            {
              "components": [
                {
                  "components": [
                    {
                      "internalType": "string",
                      "name": "key",
                      "type": "string"
                    },
                    {
                      "internalType": "address",
                      "name": "value",
                      "type": "address"
                    }
                  ],
                  "internalType": "struct IGmxOrderCallbackReceiver.AddressKeyValue[]",
                  "name": "items",
                  "type": "tuple[]"
                },
                {
                  "components": [
                    {
                      "internalType": "string",
                      "name": "key",
                      "type": "string"
                    },
                    {
                      "internalType": "address[]",
                      "name": "value",
                      "type": "address[]"
                    }
                  ],
                  "internalType": "struct IGmxOrderCallbackReceiver.AddressArrayKeyValue[]",
                  "name": "arrayItems",
                  "type": "tuple[]"
                }
              ],
              "internalType": "struct IGmxOrderCallbackReceiver.AddressItems",
              "name": "addressItems",
              "type": "tuple"
            },
            {
              "components": [
                {
                  "components": [
                    {
                      "internalType": "string",
                      "name": "key",
                      "type": "string"
                    },
                    {
                      "internalType": "uint256",
                      "name": "value",
                      "type": "uint256"
                    }
                  ],
                  "internalType": "struct IGmxOrderCallbackReceiver.UintKeyValue[]",
                  "name": "items",
                  "type": "tuple[]"
                },
                {
                  "components": [
                    {
                      "internalType": "string",
                      "name": "key",
                      "type": "string"
                    },
                    {
                      "internalType": "uint256[]",
                      "name": "value",
                      "type": "uint256[]"
                    }
                  ],
                  "internalType": "struct IGmxOrderCallbackReceiver.UintArrayKeyValue[]",
                  "name": "arrayItems",
                  "type": "tuple[]"
                }
              ],
              "internalType": "struct IGmxOrderCallbackReceiver.UintItems",
              "name": "uintItems",
              "type": "tuple"
            },
            {
              "components": [
                {
                  "components": [
                    {
                      "internalType": "string",
                      "name": "key",
                      "type": "string"
                    },
                    {
                      "internalType": "int256",
                      "name": "value",
                      "type": "int256"
                    }
                  ],
                  "internalType": "struct IGmxOrderCallbackReceiver.IntKeyValue[]",
                  "name": "items",
                  "type": "tuple[]"
                },
                {
                  "components": [
                    {
                      "internalType": "string",
                      "name": "key",
                      "type": "string"
                    },
                    {
                      "internalType": "int256[]",
                      "name": "value",
                      "type": "int256[]"
                    }
                  ],
                  "internalType": "struct IGmxOrderCallbackReceiver.IntArrayKeyValue[]",
                  "name": "arrayItems",
                  "type": "tuple[]"
                }
              ],
              "internalType": "struct IGmxOrderCallbackReceiver.IntItems",
              "name": "intItems",
              "type": "tuple"
            },
            {
              "components": [
                {
                  "components": [
                    {
                      "internalType": "string",
                      "name": "key",
                      "type": "string"
                    },
                    {
                      "internalType": "bool",
                      "name": "value",
                      "type": "bool"
                    }
                  ],
                  "internalType": "struct IGmxOrderCallbackReceiver.BoolKeyValue[]",
                  "name": "items",
                  "type": "tuple[]"
                },
                {
                  "components": [
                    {
                      "internalType": "string",
                      "name": "key",
                      "type": "string"
                    },
                    {
                      "internalType": "bool[]",
                      "name": "value",
                      "type": "bool[]"
                    }
                  ],
                  "internalType": "struct IGmxOrderCallbackReceiver.BoolArrayKeyValue[]",
                  "name": "arrayItems",
                  "type": "tuple[]"
                }
              ],
              "internalType": "struct IGmxOrderCallbackReceiver.BoolItems",
              "name": "boolItems",
              "type": "tuple"
            },
            {
              "components": [
                {
                  "components": [
                    {
                      "internalType": "string",
                      "name": "key",
                      "type": "string"
                    },
                    {
                      "internalType": "bytes32",
                      "name": "value",
                      "type": "bytes32"
                    }
                  ],
                  "internalType": "struct IGmxOrderCallbackReceiver.Bytes32KeyValue[]",
                  "name": "items",
                  "type": "tuple[]"
                },
                {
                  "components": [
                    {
                      "internalType": "string",
                      "name": "key",
                      "type": "string"
                    },
                    {
                      "internalType": "bytes32[]",
                      "name": "value",
                      "type": "bytes32[]"
                    }
                  ],
                  "internalType": "struct IGmxOrderCallbackReceiver.Bytes32ArrayKeyValue[]",
                  "name": "arrayItems",
                  "type": "tuple[]"
                }
              ],
              "internalType": "struct IGmxOrderCallbackReceiver.Bytes32Items",
              "name": "bytes32Items",
              "type": "tuple"
            },
            {
              "components": [
                {
                  "components": [
                    {
                      "internalType": "string",
                      "name": "key",
                      "type": "string"
                    },
                    {
                      "internalType": "bytes",
                      "name": "value",
                      "type": "bytes"
                    }
                  ],
                  "internalType": "struct IGmxOrderCallbackReceiver.BytesKeyValue[]",
                  "name": "items",
                  "type": "tuple[]"
                },
                {
                  "components": [
                    {
                      "internalType": "string",
                      "name": "key",
                      "type": "string"
                    },
                    {
                      "internalType": "bytes[]",
                      "name": "value",
                      "type": "bytes[]"
                    }
                  ],
                  "internalType": "struct IGmxOrderCallbackReceiver.BytesArrayKeyValue[]",
                  "name": "arrayItems",
                  "type": "tuple[]"
                }
              ],
              "internalType": "struct IGmxOrderCallbackReceiver.BytesItems",
              "name": "bytesItems",
              "type": "tuple"
            },
            {
              "components": [
                {
                  "components": [
                    {
                      "internalType": "string",
                      "name": "key",
                      "type": "string"
                    },
                    {
                      "internalType": "string",
                      "name": "value",
                      "type": "string"
                    }
                  ],
                  "internalType": "struct IGmxOrderCallbackReceiver.StringKeyValue[]",
                  "name": "items",
                  "type": "tuple[]"
                },
                {
                  "components": [
                    {
                      "internalType": "string",
                      "name": "key",
                      "type": "string"
                    },
                    {
                      "internalType": "string[]",
                      "name": "value",
                      "type": "string[]"
                    }
                  ],
                  "internalType": "struct IGmxOrderCallbackReceiver.StringArrayKeyValue[]",
                  "name": "arrayItems",
                  "type": "tuple[]"
                }
              ],
              "internalType": "struct IGmxOrderCallbackReceiver.StringItems",
              "name": "stringItems",
              "type": "tuple"
            }
          ],
          "internalType": "struct IGmxOrderCallbackReceiver.EventLogData",
          "name": "",
          "type": "tuple"
        }
      ],
      "name": "afterOrderCancellation",
      "outputs": [],
      "stateMutability": "nonpayable",
      "type": "function"
    },
    {
      "inputs": [
        {
          "internalType": "bytes32",
          "name": "key",
          "type": "bytes32"
        },
        {
          "components": [
            {
              "components": [
                {
                  "components": [
                    {
                      "internalType": "string",
                      "name": "key",
                      "type": "string"
                    },
                    {
                      "internalType": "address",
                      "name": "value",
                      "type": "address"
                    }
                  ],
                  "internalType": "struct IGmxOrderCallbackReceiver.AddressKeyValue[]",
                  "name": "items",
                  "type": "tuple[]"
                },
                {
                  "components": [
                    {
                      "internalType": "string",
                      "name": "key",
                      "type": "string"
                    },
                    {
                      "internalType": "address[]",
                      "name": "value",
                      "type": "address[]"
                    }
                  ],
                  "internalType": "struct IGmxOrderCallbackReceiver.AddressArrayKeyValue[]",
                  "name": "arrayItems",
                  "type": "tuple[]"
                }
              ],
              "internalType": "struct IGmxOrderCallbackReceiver.AddressItems",
              "name": "addressItems",
              "type": "tuple"
            },
            {
              "components": [
                {
                  "components": [
                    {
                      "internalType": "string",
                      "name": "key",
                      "type": "string"
                    },
                    {
                      "internalType": "uint256",
                      "name": "value",
                      "type": "uint256"
                    }
                  ],
                  "internalType": "struct IGmxOrderCallbackReceiver.UintKeyValue[]",
                  "name": "items",
                  "type": "tuple[]"
                },
                {
                  "components": [
                    {
                      "internalType": "string",
                      "name": "key",
                      "type": "string"
                    },
                    {
                      "internalType": "uint256[]",
                      "name": "value",
                      "type": "uint256[]"
                    }
                  ],
                  "internalType": "struct IGmxOrderCallbackReceiver.UintArrayKeyValue[]",
                  "name": "arrayItems",
                  "type": "tuple[]"
                }
              ],
              "internalType": "struct IGmxOrderCallbackReceiver.UintItems",
              "name": "uintItems",
              "type": "tuple"
            },
            {
              "components": [
                {
                  "components": [
                    {
                      "internalType": "string",
                      "name": "key",
                      "type": "string"
                    },
                    {
                      "internalType": "int256",
                      "name": "value",
                      "type": "int256"
                    }
                  ],
                  "internalType": "struct IGmxOrderCallbackReceiver.IntKeyValue[]",
                  "name": "items",
                  "type": "tuple[]"
                },
                {
                  "components": [
                    {
                      "internalType": "string",
                      "name": "key",
                      "type": "string"
                    },
                    {
                      "internalType": "int256[]",
                      "name": "value",
                      "type": "int256[]"
                    }
                  ],
                  "internalType": "struct IGmxOrderCallbackReceiver.IntArrayKeyValue[]",
                  "name": "arrayItems",
                  "type": "tuple[]"
                }
              ],
              "internalType": "struct IGmxOrderCallbackReceiver.IntItems",
              "name": "intItems",
              "type": "tuple"
            },
            {
              "components": [
                {
                  "components": [
                    {
                      "internalType": "string",
                      "name": "key",
                      "type": "string"
                    },
                    {
                      "internalType": "bool",
                      "name": "value",
                      "type": "bool"
                    }
                  ],
                  "internalType": "struct IGmxOrderCallbackReceiver.BoolKeyValue[]",
                  "name": "items",
                  "type": "tuple[]"
                },
                {
                  "components": [
                    {
                      "internalType": "string",
                      "name": "key",
                      "type": "string"
                    },
                    {
                      "internalType": "bool[]",
                      "name": "value",
                      "type": "bool[]"
                    }
                  ],
                  "internalType": "struct IGmxOrderCallbackReceiver.BoolArrayKeyValue[]",
                  "name": "arrayItems",
                  "type": "tuple[]"
                }
              ],
              "internalType": "struct IGmxOrderCallbackReceiver.BoolItems",
              "name": "boolItems",
              "type": "tuple"
            },
            {
              "components": [
                {
                  "components": [
                    {
                      "internalType": "string",
                      "name": "key",
                      "type": "string"
                    },
                    {
                      "internalType": "bytes32",
                      "name": "value",
                      "type": "bytes32"
                    }
                  ],
                  "internalType": "struct IGmxOrderCallbackReceiver.Bytes32KeyValue[]",
                  "name": "items",
                  "type": "tuple[]"
                },
                {
                  "components": [
                    {
                      "internalType": "string",
                      "name": "key",
                      "type": "string"
                    },
                    {
                      "internalType": "bytes32[]",
                      "name": "value",
                      "type": "bytes32[]"
                    }
                  ],
                  "internalType": "struct IGmxOrderCallbackReceiver.Bytes32ArrayKeyValue[]",
                  "name": "arrayItems",
                  "type": "tuple[]"
                }
              ],
              "internalType": "struct IGmxOrderCallbackReceiver.Bytes32Items",
              "name": "bytes32Items",
              "type": "tuple"
            },
            {
              "components": [
                {
                  "components": [
                    {
                      "internalType": "string",
                      "name": "key",
                      "type": "string"
                    },
                    {
                      "internalType": "bytes",
                      "name": "value",
                      "type": "bytes"
                    }
                  ],
                  "internalType": "struct IGmxOrderCallbackReceiver.BytesKeyValue[]",
                  "name": "items",
                  "type": "tuple[]"
                },
                {
                  "components": [
                    {
                      "internalType": "string",
                      "name": "key",
                      "type": "string"
                    },
                    {
                      "internalType": "bytes[]",
                      "name": "value",
                      "type": "bytes[]"
                    }
                  ],
                  "internalType": "struct IGmxOrderCallbackReceiver.BytesArrayKeyValue[]",
                  "name": "arrayItems",
                  "type": "tuple[]"
                }
              ],
              "internalType": "struct IGmxOrderCallbackReceiver.BytesItems",
              "name": "bytesItems",
              "type": "tuple"
            },
            {
              "components": [
                {
                  "components": [
                    {
                      "internalType": "string",
                      "name": "key",
                      "type": "string"
                    },
                    {
                      "internalType": "string",
                      "name": "value",
                      "type": "string"
                    }
                  ],
                  "internalType": "struct IGmxOrderCallbackReceiver.StringKeyValue[]",
                  "name": "items",
                  "type": "tuple[]"
                },
                {
                  "components": [
                    {
                      "internalType": "string",
                      "name": "key",
                      "type": "string"
                    },
                    {
                      "internalType": "string[]",
                      "name": "value",
                      "type": "string[]"
                    }
                  ],
                  "internalType": "struct IGmxOrderCallbackReceiver.StringArrayKeyValue[]",
                  "name": "arrayItems",
                  "type": "tuple[]"
                }
              ],
              "internalType": "struct IGmxOrderCallbackReceiver.StringItems",
              "name": "stringItems",
              "type": "tuple"
            }
          ],
          "internalType": "struct IGmxOrderCallbackReceiver.EventLogData",
          "name": "",
          "type": "tuple"
        },
        {
          "components": [
            {
              "components": [
                {
                  "components": [
                    {
                      "internalType": "string",
                      "name": "key",
                      "type": "string"
                    },
                    {
                      "internalType": "address",
                      "name": "value",
                      "type": "address"
                    }
                  ],
                  "internalType": "struct IGmxOrderCallbackReceiver.AddressKeyValue[]",
                  "name": "items",
                  "type": "tuple[]"
                },
                {
                  "components": [
                    {
                      "internalType": "string",
                      "name": "key",
                      "type": "string"
                    },
                    {
                      "internalType": "address[]",
                      "name": "value",
                      "type": "address[]"
                    }
                  ],
                  "internalType": "struct IGmxOrderCallbackReceiver.AddressArrayKeyValue[]",
                  "name": "arrayItems",
                  "type": "tuple[]"
                }
              ],
              "internalType": "struct IGmxOrderCallbackReceiver.AddressItems",
              "name": "addressItems",
              "type": "tuple"
            },
            {
              "components": [
                {
                  "components": [
                    {
                      "internalType": "string",
                      "name": "key",
                      "type": "string"
                    },
                    {
                      "internalType": "uint256",
                      "name": "value",
                      "type": "uint256"
                    }
                  ],
                  "internalType": "struct IGmxOrderCallbackReceiver.UintKeyValue[]",
                  "name": "items",
                  "type": "tuple[]"
                },
                {
                  "components": [
                    {
                      "internalType": "string",
                      "name": "key",
                      "type": "string"
                    },
                    {
                      "internalType": "uint256[]",
                      "name": "value",
                      "type": "uint256[]"
                    }
                  ],
                  "internalType": "struct IGmxOrderCallbackReceiver.UintArrayKeyValue[]",
                  "name": "arrayItems",
                  "type": "tuple[]"
                }
              ],
              "internalType": "struct IGmxOrderCallbackReceiver.UintItems",
              "name": "uintItems",
              "type": "tuple"
            },
            {
              "components": [
                {
                  "components": [
                    {
                      "internalType": "string",
                      "name": "key",
                      "type": "string"
                    },
                    {
                      "internalType": "int256",
                      "name": "value",
                      "type": "int256"
                    }
                  ],
                  "internalType": "struct IGmxOrderCallbackReceiver.IntKeyValue[]",
                  "name": "items",
                  "type": "tuple[]"
                },
                {
                  "components": [
                    {
                      "internalType": "string",
                      "name": "key",
                      "type": "string"
                    },
                    {
                      "internalType": "int256[]",
                      "name": "value",
                      "type": "int256[]"
                    }
                  ],
                  "internalType": "struct IGmxOrderCallbackReceiver.IntArrayKeyValue[]",
                  "name": "arrayItems",
                  "type": "tuple[]"
                }
              ],
              "internalType": "struct IGmxOrderCallbackReceiver.IntItems",
              "name": "intItems",
              "type": "tuple"
            },
            {
              "components": [
                {
                  "components": [
                    {
                      "internalType": "string",
                      "name": "key",
                      "type": "string"
                    },
                    {
                      "internalType": "bool",
                      "name": "value",
                      "type": "bool"
                    }
                  ],
                  "internalType": "struct IGmxOrderCallbackReceiver.BoolKeyValue[]",
                  "name": "items",
                  "type": "tuple[]"
                },
                {
                  "components": [
                    {
                      "internalType": "string",
                      "name": "key",
                      "type": "string"
                    },
                    {
                      "internalType": "bool[]",
                      "name": "value",
                      "type": "bool[]"
                    }
                  ],
                  "internalType": "struct IGmxOrderCallbackReceiver.BoolArrayKeyValue[]",
                  "name": "arrayItems",
                  "type": "tuple[]"
                }
              ],
              "internalType": "struct IGmxOrderCallbackReceiver.BoolItems",
              "name": "boolItems",
              "type": "tuple"
            },
            {
              "components": [
                {
                  "components": [
                    {
                      "internalType": "string",
                      "name": "key",
                      "type": "string"
                    },
                    {
                      "internalType": "bytes32",
                      "name": "value",
                      "type": "bytes32"
                    }
                  ],
                  "internalType": "struct IGmxOrderCallbackReceiver.Bytes32KeyValue[]",
                  "name": "items",
                  "type": "tuple[]"
                },
                {
                  "components": [
                    {
                      "internalType": "string",
                      "name": "key",
                      "type": "string"
                    },
                    {
                      "internalType": "bytes32[]",
                      "name": "value",
                      "type": "bytes32[]"
                    }
                  ],
                  "internalType": "struct IGmxOrderCallbackReceiver.Bytes32ArrayKeyValue[]",
                  "name": "arrayItems",
                  "type": "tuple[]"
                }
              ],
              "internalType": "struct IGmxOrderCallbackReceiver.Bytes32Items",
              "name": "bytes32Items",
              "type": "tuple"
            },
            {
              "components": [
                {
                  "components": [
                    {
                      "internalType": "string",
                      "name": "key",
                      "type": "string"
                    },
                    {
                      "internalType": "bytes",
                      "name": "value",
                      "type": "bytes"
                    }
                  ],
                  "internalType": "struct IGmxOrderCallbackReceiver.BytesKeyValue[]",
                  "name": "items",
                  "type": "tuple[]"
                },
                {
                  "components": [
                    {
                      "internalType": "string",
                      "name": "key",
                      "type": "string"
                    },
                    {
                      "internalType": "bytes[]",
                      "name": "value",
                      "type": "bytes[]"
                    }
                  ],
                  "internalType": "struct IGmxOrderCallbackReceiver.BytesArrayKeyValue[]",
                  "name": "arrayItems",
                  "type": "tuple[]"
                }
              ],
              "internalType": "struct IGmxOrderCallbackReceiver.BytesItems",
              "name": "bytesItems",
              "type": "tuple"
            },
            {
              "components": [
                {
                  "components": [
                    {
                      "internalType": "string",
                      "name": "key",
                      "type": "string"
                    },
                    {
                      "internalType": "string",
                      "name": "value",
                      "type": "string"
                    }
                  ],
                  "internalType": "struct IGmxOrderCallbackReceiver.StringKeyValue[]",
                  "name": "items",
                  "type": "tuple[]"
                },
                {
                  "components": [
                    {
                      "internalType": "string",
                      "name": "key",
                      "type": "string"
                    },
                    {
                      "internalType": "string[]",
                      "name": "value",
                      "type": "string[]"
                    }
                  ],
                  "internalType": "struct IGmxOrderCallbackReceiver.StringArrayKeyValue[]",
                  "name": "arrayItems",
                  "type": "tuple[]"
                }
              ],
              "internalType": "struct IGmxOrderCallbackReceiver.StringItems",
              "name": "stringItems",
              "type": "tuple"
            }
          ],
          "internalType": "struct IGmxOrderCallbackReceiver.EventLogData",
          "name": "",
          "type": "tuple"
        }
      ],
      "name": "afterOrderExecution",
      "outputs": [],
      "stateMutability": "nonpayable",
      "type": "function"
    },
    {
      "inputs": [
        {
          "internalType": "bytes32",
          "name": "key",
          "type": "bytes32"
        },
        {
          "components": [
            {
              "components": [
                {
                  "components": [
                    {
                      "internalType": "string",
                      "name": "key",
                      "type": "string"
                    },
                    {
                      "internalType": "address",
                      "name": "value",
                      "type": "address"
                    }
                  ],
                  "internalType": "struct IGmxOrderCallbackReceiver.AddressKeyValue[]",
                  "name": "items",
                  "type": "tuple[]"
                },
                {
                  "components": [
                    {
                      "internalType": "string",
                      "name": "key",
                      "type": "string"
                    },
                    {
                      "internalType": "address[]",
                      "name": "value",
                      "type": "address[]"
                    }
                  ],
                  "internalType": "struct IGmxOrderCallbackReceiver.AddressArrayKeyValue[]",
                  "name": "arrayItems",
                  "type": "tuple[]"
                }
              ],
              "internalType": "struct IGmxOrderCallbackReceiver.AddressItems",
              "name": "addressItems",
              "type": "tuple"
            },
            {
              "components": [
                {
                  "components": [
                    {
                      "internalType": "string",
                      "name": "key",
                      "type": "string"
                    },
                    {
                      "internalType": "uint256",
                      "name": "value",
                      "type": "uint256"
                    }
                  ],
                  "internalType": "struct IGmxOrderCallbackReceiver.UintKeyValue[]",
                  "name": "items",
                  "type": "tuple[]"
                },
                {
                  "components": [
                    {
                      "internalType": "string",
                      "name": "key",
                      "type": "string"
                    },
                    {
                      "internalType": "uint256[]",
                      "name": "value",
                      "type": "uint256[]"
                    }
                  ],
                  "internalType": "struct IGmxOrderCallbackReceiver.UintArrayKeyValue[]",
                  "name": "arrayItems",
                  "type": "tuple[]"
                }
              ],
              "internalType": "struct IGmxOrderCallbackReceiver.UintItems",
              "name": "uintItems",
              "type": "tuple"
            },
            {
              "components": [
                {
                  "components": [
                    {
                      "internalType": "string",
                      "name": "key",
                      "type": "string"
                    },
                    {
                      "internalType": "int256",
                      "name": "value",
                      "type": "int256"
                    }
                  ],
                  "internalType": "struct IGmxOrderCallbackReceiver.IntKeyValue[]",
                  "name": "items",
                  "type": "tuple[]"
                },
                {
                  "components": [
                    {
                      "internalType": "string",
                      "name": "key",
                      "type": "string"
                    },
                    {
                      "internalType": "int256[]",
                      "name": "value",
                      "type": "int256[]"
                    }
                  ],
                  "internalType": "struct IGmxOrderCallbackReceiver.IntArrayKeyValue[]",
                  "name": "arrayItems",
                  "type": "tuple[]"
                }
              ],
              "internalType": "struct IGmxOrderCallbackReceiver.IntItems",
              "name": "intItems",
              "type": "tuple"
            },
            {
              "components": [
                {
                  "components": [
                    {
                      "internalType": "string",
                      "name": "key",
                      "type": "string"
                    },
                    {
                      "internalType": "bool",
                      "name": "value",
                      "type": "bool"
                    }
                  ],
                  "internalType": "struct IGmxOrderCallbackReceiver.BoolKeyValue[]",
                  "name": "items",
                  "type": "tuple[]"
                },
                {
                  "components": [
                    {
                      "internalType": "string",
                      "name": "key",
                      "type": "string"
                    },
                    {
                      "internalType": "bool[]",
                      "name": "value",
                      "type": "bool[]"
                    }
                  ],
                  "internalType": "struct IGmxOrderCallbackReceiver.BoolArrayKeyValue[]",
                  "name": "arrayItems",
                  "type": "tuple[]"
                }
              ],
              "internalType": "struct IGmxOrderCallbackReceiver.BoolItems",
              "name": "boolItems",
              "type": "tuple"
            },
            {
              "components": [
                {
                  "components": [
                    {
                      "internalType": "string",
                      "name": "key",
                      "type": "string"
                    },
                    {
                      "internalType": "bytes32",
                      "name": "value",
                      "type": "bytes32"
                    }
                  ],
                  "internalType": "struct IGmxOrderCallbackReceiver.Bytes32KeyValue[]",
                  "name": "items",
                  "type": "tuple[]"
                },
                {
                  "components": [
                    {
                      "internalType": "string",
                      "name": "key",
                      "type": "string"
                    },
                    {
                      "internalType": "bytes32[]",
                      "name": "value",
                      "type": "bytes32[]"
                    }
                  ],
                  "internalType": "struct IGmxOrderCallbackReceiver.Bytes32ArrayKeyValue[]",
                  "name": "arrayItems",
                  "type": "tuple[]"
                }
              ],
              "internalType": "struct IGmxOrderCallbackReceiver.Bytes32Items",
              "name": "bytes32Items",
              "type": "tuple"
            },
            {
              "components": [
                {
                  "components": [
                    {
                      "internalType": "string",
                      "name": "key",
                      "type": "string"
                    },
                    {
                      "internalType": "bytes",
                      "name": "value",
                      "type": "bytes"
                    }
                  ],
                  "internalType": "struct IGmxOrderCallbackReceiver.BytesKeyValue[]",
                  "name": "items",
                  "type": "tuple[]"
                },
                {
                  "components": [
                    {
                      "internalType": "string",
                      "name": "key",
                      "type": "string"
                    },
                    {
                      "internalType": "bytes[]",
                      "name": "value",
                      "type": "bytes[]"
                    }
                  ],
                  "internalType": "struct IGmxOrderCallbackReceiver.BytesArrayKeyValue[]",
                  "name": "arrayItems",
                  "type": "tuple[]"
                }
              ],
              "internalType": "struct IGmxOrderCallbackReceiver.BytesItems",
              "name": "bytesItems",
              "type": "tuple"
            },
            {
              "components": [
                {
                  "components": [
                    {
                      "internalType": "string",
                      "name": "key",
                      "type": "string"
                    },
                    {
                      "internalType": "string",
                      "name": "value",
                      "type": "string"
                    }
                  ],
                  "internalType": "struct IGmxOrderCallbackReceiver.StringKeyValue[]",
                  "name": "items",
                  "type": "tuple[]"
                },
                {
                  "components": [
                    {
                      "internalType": "string",
                      "name": "key",
                      "type": "string"
                    },
                    {
                      "internalType": "string[]",
                      "name": "value",
                      "type": "string[]"
                    }
                  ],
                  "internalType": "struct IGmxOrderCallbackReceiver.StringArrayKeyValue[]",
                  "name": "arrayItems",
                  "type": "tuple[]"
                }
              ],
              "internalType": "struct IGmxOrderCallbackReceiver.StringItems",
              "name": "stringItems",
              "type": "tuple"
            }
          ],
          "internalType": "struct IGmxOrderCallbackReceiver.EventLogData",
          "name": "",
          "type": "tuple"
        },
        {
          "components": [
            {
              "components": [
                {
                  "components": [
                    {
                      "internalType": "string",
                      "name": "key",
                      "type": "string"
                    },
                    {
                      "internalType": "address",
                      "name": "value",
                      "type": "address"
                    }
                  ],
                  "internalType": "struct IGmxOrderCallbackReceiver.AddressKeyValue[]",
                  "name": "items",
                  "type": "tuple[]"
                },
                {
                  "components": [
                    {
                      "internalType": "string",
                      "name": "key",
                      "type": "string"
                    },
                    {
                      "internalType": "address[]",
                      "name": "value",
                      "type": "address[]"
                    }
                  ],
                  "internalType": "struct IGmxOrderCallbackReceiver.AddressArrayKeyValue[]",
                  "name": "arrayItems",
                  "type": "tuple[]"
                }
              ],
              "internalType": "struct IGmxOrderCallbackReceiver.AddressItems",
              "name": "addressItems",
              "type": "tuple"
            },
            {
              "components": [
                {
                  "components": [
                    {
                      "internalType": "string",
                      "name": "key",
                      "type": "string"
                    },
                    {
                      "internalType": "uint256",
                      "name": "value",
                      "type": "uint256"
                    }
                  ],
                  "internalType": "struct IGmxOrderCallbackReceiver.UintKeyValue[]",
                  "name": "items",
                  "type": "tuple[]"
                },
                {
                  "components": [
                    {
                      "internalType": "string",
                      "name": "key",
                      "type": "string"
                    },
                    {
                      "internalType": "uint256[]",
                      "name": "value",
                      "type": "uint256[]"
                    }
                  ],
                  "internalType": "struct IGmxOrderCallbackReceiver.UintArrayKeyValue[]",
                  "name": "arrayItems",
                  "type": "tuple[]"
                }
              ],
              "internalType": "struct IGmxOrderCallbackReceiver.UintItems",
              "name": "uintItems",
              "type": "tuple"
            },
            {
              "components": [
                {
                  "components": [
                    {
                      "internalType": "string",
                      "name": "key",
                      "type": "string"
                    },
                    {
                      "internalType": "int256",
                      "name": "value",
                      "type": "int256"
                    }
                  ],
                  "internalType": "struct IGmxOrderCallbackReceiver.IntKeyValue[]",
                  "name": "items",
                  "type": "tuple[]"
                },
                {
                  "components": [
                    {
                      "internalType": "string",
                      "name": "key",
                      "type": "string"
                    },
                    {
                      "internalType": "int256[]",
                      "name": "value",
                      "type": "int256[]"
                    }
                  ],
                  "internalType": "struct IGmxOrderCallbackReceiver.IntArrayKeyValue[]",
                  "name": "arrayItems",
                  "type": "tuple[]"
                }
              ],
              "internalType": "struct IGmxOrderCallbackReceiver.IntItems",
              "name": "intItems",
              "type": "tuple"
            },
            {
              "components": [
                {
                  "components": [
                    {
                      "internalType": "string",
                      "name": "key",
                      "type": "string"
                    },
                    {
                      "internalType": "bool",
                      "name": "value",
                      "type": "bool"
                    }
                  ],
                  "internalType": "struct IGmxOrderCallbackReceiver.BoolKeyValue[]",
                  "name": "items",
                  "type": "tuple[]"
                },
                {
                  "components": [
                    {
                      "internalType": "string",
                      "name": "key",
                      "type": "string"
                    },
                    {
                      "internalType": "bool[]",
                      "name": "value",
                      "type": "bool[]"
                    }
                  ],
                  "internalType": "struct IGmxOrderCallbackReceiver.BoolArrayKeyValue[]",
                  "name": "arrayItems",
                  "type": "tuple[]"
                }
              ],
              "internalType": "struct IGmxOrderCallbackReceiver.BoolItems",
              "name": "boolItems",
              "type": "tuple"
            },
            {
              "components": [
                {
                  "components": [
                    {
                      "internalType": "string",
                      "name": "key",
                      "type": "string"
                    },
                    {
                      "internalType": "bytes32",
                      "name": "value",
                      "type": "bytes32"
                    }
                  ],
                  "internalType": "struct IGmxOrderCallbackReceiver.Bytes32KeyValue[]",
                  "name": "items",
                  "type": "tuple[]"
                },
                {
                  "components": [
                    {
                      "internalType": "string",
                      "name": "key",
                      "type": "string"
                    },
                    {
                      "internalType": "bytes32[]",
                      "name": "value",
                      "type": "bytes32[]"
                    }
                  ],
                  "internalType": "struct IGmxOrderCallbackReceiver.Bytes32ArrayKeyValue[]",
                  "name": "arrayItems",
                  "type": "tuple[]"
                }
              ],
              "internalType": "struct IGmxOrderCallbackReceiver.Bytes32Items",
              "name": "bytes32Items",
              "type": "tuple"
            },
            {
              "components": [
                {
                  "components": [
                    {
                      "internalType": "string",
                      "name": "key",
                      "type": "string"
                    },
                    {
                      "internalType": "bytes",
                      "name": "value",
                      "type": "bytes"
                    }
                  ],
                  "internalType": "struct IGmxOrderCallbackReceiver.BytesKeyValue[]",
                  "name": "items",
                  "type": "tuple[]"
                },
                {
                  "components": [
                    {
                      "internalType": "string",
                      "name": "key",
                      "type": "string"
                    },
                    {
                      "internalType": "bytes[]",
                      "name": "value",
                      "type": "bytes[]"
                    }
                  ],
                  "internalType": "struct IGmxOrderCallbackReceiver.BytesArrayKeyValue[]",
                  "name": "arrayItems",
                  "type": "tuple[]"
                }
              ],
              "internalType": "struct IGmxOrderCallbackReceiver.BytesItems",
              "name": "bytesItems",
              "type": "tuple"
            },
            {
              "components": [
                {
                  "components": [
                    {
                      "internalType": "string",
                      "name": "key",
                      "type": "string"
                    },
                    {
                      "internalType": "string",
                      "name": "value",
                      "type": "string"
                    }
                  ],
                  "internalType": "struct IGmxOrderCallbackReceiver.StringKeyValue[]",
                  "name": "items",
                  "type": "tuple[]"
                },
                {
                  "components": [
                    {
                      "internalType": "string",
                      "name": "key",
                      "type": "string"
                    },
                    {
                      "internalType": "string[]",
                      "name": "value",
                      "type": "string[]"
                    }
                  ],
                  "internalType": "struct IGmxOrderCallbackReceiver.StringArrayKeyValue[]",
                  "name": "arrayItems",
                  "type": "tuple[]"
                }
              ],
              "internalType": "struct IGmxOrderCallbackReceiver.StringItems",
              "name": "stringItems",
              "type": "tuple"
            }
          ],
          "internalType": "struct IGmxOrderCallbackReceiver.EventLogData",
          "name": "",
          "type": "tuple"
        }
      ],
      "name": "afterOrderFrozen",
      "outputs": [],
      "stateMutability": "nonpayable",
      "type": "function"
    },
    {
      "inputs": [
        {
          "internalType": "bytes32",
          "name": "orderKey",
          "type": "bytes32"
        }
      ],
      "name": "cancelOrder",
      "outputs": [],
      "stateMutability": "nonpayable",
      "type": "function"
    },
    {
      "inputs": [
        {
          "internalType": "bytes32",
          "name": "pk",
          "type": "bytes32"
        }
      ],
      "name": "createCloseOrder",
      "outputs": [
        {
          "internalType": "bytes32",
          "name": "orderKey",
          "type": "bytes32"
        }
      ],
      "stateMutability": "payable",
      "type": "function"
    },
    {
      "inputs": [
        {
          "internalType": "bytes32",
          "name": "marketId",
          "type": "bytes32"
        },
        {
          "internalType": "uint256",
          "name": "collateralUsdc",
          "type": "uint256"
        },
        {
          "internalType": "uint256",
          "name": "triggerPrice8",
          "type": "uint256"
        },
        {
          "internalType": "uint256",
          "name": "leverage",
          "type": "uint256"
        },
        {
          "internalType": "bool",
          "name": "isLong",
          "type": "bool"
        }
      ],
      "name": "createLimitOrder",
      "outputs": [
        {
          "internalType": "bytes32",
          "name": "orderKey",
          "type": "bytes32"
        }
      ],
      "stateMutability": "payable",
      "type": "function"
    },
    {
      "inputs": [
        {
          "internalType": "bytes32",
          "name": "marketId",
          "type": "bytes32"
        },
        {
          "internalType": "uint256",
          "name": "collateralUsdc",
          "type": "uint256"
        },
        {
          "internalType": "uint256",
          "name": "indexPrice8",
          "type": "uint256"
        },
        {
          "internalType": "uint256",
          "name": "leverage",
          "type": "uint256"
        },
        {
          "internalType": "bool",
          "name": "isLong",
          "type": "bool"
        }
      ],
      "name": "createOpenOrder",
      "outputs": [
        {
          "internalType": "bytes32",
          "name": "orderKey",
          "type": "bytes32"
        }
      ],
      "stateMutability": "payable",
      "type": "function"
    },
    {
      "inputs": [
        {
          "internalType": "bytes32",
          "name": "pk",
          "type": "bytes32"
        },
        {
          "internalType": "uint256",
          "name": "triggerPrice8",
          "type": "uint256"
        }
      ],
      "name": "createStopLoss",
      "outputs": [
        {
          "internalType": "bytes32",
          "name": "orderKey",
          "type": "bytes32"
        }
      ],
      "stateMutability": "payable",
      "type": "function"
    },
    {
      "inputs": [
        {
          "internalType": "bytes32",
          "name": "pk",
          "type": "bytes32"
        },
        {
          "internalType": "uint256",
          "name": "triggerPrice8",
          "type": "uint256"
        }
      ],
      "name": "createTakeProfit",
      "outputs": [
        {
          "internalType": "bytes32",
          "name": "orderKey",
          "type": "bytes32"
        }
      ],
      "stateMutability": "payable",
      "type": "function"
    },
    {
      "inputs": [],
      "name": "dataStore",
      "outputs": [
        {
          "internalType": "address",
          "name": "",
          "type": "address"
        }
      ],
      "stateMutability": "view",
      "type": "function"
    },
    {
      "inputs": [],
      "name": "exchangeRouter",
      "outputs": [
        {
          "internalType": "contract IGmxExchangeRouter",
          "name": "",
          "type": "address"
        }
      ],
      "stateMutability": "view",
      "type": "function"
    },
    {
      "inputs": [],
      "name": "execFee",
      "outputs": [
        {
          "internalType": "uint256",
          "name": "",
          "type": "uint256"
        }
      ],
      "stateMutability": "view",
      "type": "function"
    },
    {
      "inputs": [
        {
          "internalType": "bytes32",
          "name": "orderKey",
          "type": "bytes32"
        }
      ],
      "name": "executeOrder",
      "outputs": [],
      "stateMutability": "nonpayable",
      "type": "function"
    },
    {
      "inputs": [
        {
          "internalType": "address",
          "name": "vaultAddr",
          "type": "address"
        },
        {
          "internalType": "bytes32",
          "name": "staleOrderKey",
          "type": "bytes32"
        }
      ],
      "name": "forceVaultReset",
      "outputs": [],
      "stateMutability": "nonpayable",
      "type": "function"
    },
    {
      "inputs": [
        {
          "internalType": "bytes32",
          "name": "pk",
          "type": "bytes32"
        }
      ],
      "name": "getPositionValueUsd",
      "outputs": [
        {
          "internalType": "uint256",
          "name": "",
          "type": "uint256"
        }
      ],
      "stateMutability": "view",
      "type": "function"
    },
    {
      "inputs": [
        {
          "internalType": "bytes32",
          "name": "",
          "type": "bytes32"
        }
      ],
      "name": "gmxKeyToRyexKey",
      "outputs": [
        {
          "internalType": "bytes32",
          "name": "",
          "type": "bytes32"
        }
      ],
      "stateMutability": "view",
      "type": "function"
    },
    {
      "inputs": [
        {
          "internalType": "bytes32",
          "name": "",
          "type": "bytes32"
        }
      ],
      "name": "gmxMarketOf",
      "outputs": [
        {
          "internalType": "address",
          "name": "",
          "type": "address"
        }
      ],
      "stateMutability": "view",
      "type": "function"
    },
    {
      "inputs": [],
      "name": "gmxOrderHandler",
      "outputs": [
        {
          "internalType": "address",
          "name": "",
          "type": "address"
        }
      ],
      "stateMutability": "view",
      "type": "function"
    },
    {
      "inputs": [
        {
          "internalType": "address",
          "name": "vault",
          "type": "address"
        },
        {
          "internalType": "bytes32",
          "name": "marketId",
          "type": "bytes32"
        },
        {
          "internalType": "bool",
          "name": "isLong",
          "type": "bool"
        }
      ],
      "name": "gmxPositionData",
      "outputs": [
        {
          "components": [
            {
              "internalType": "bool",
              "name": "exists",
              "type": "bool"
            },
            {
              "internalType": "uint256",
              "name": "sizeInUsd",
              "type": "uint256"
            },
            {
              "internalType": "uint256",
              "name": "collateralAmount",
              "type": "uint256"
            },
            {
              "internalType": "uint256",
              "name": "entryPrice8",
              "type": "uint256"
            }
          ],
          "internalType": "struct IGmxAdapter.GmxPositionData",
          "name": "data",
          "type": "tuple"
        }
      ],
      "stateMutability": "view",
      "type": "function"
    },
    {
      "inputs": [],
      "name": "gmxRouter",
      "outputs": [
        {
          "internalType": "address",
          "name": "",
          "type": "address"
        }
      ],
      "stateMutability": "view",
      "type": "function"
    },
    {
      "inputs": [],
      "name": "lastOrderKey",
      "outputs": [
        {
          "internalType": "bytes32",
          "name": "",
          "type": "bytes32"
        }
      ],
      "stateMutability": "view",
      "type": "function"
    },
    {
      "inputs": [
        {
          "internalType": "bytes32",
          "name": "",
          "type": "bytes32"
        }
      ],
      "name": "marketOracle",
      "outputs": [
        {
          "internalType": "contract IPriceOracle",
          "name": "",
          "type": "address"
        }
      ],
      "stateMutability": "view",
      "type": "function"
    },
    {
      "inputs": [],
      "name": "orderVault",
      "outputs": [
        {
          "internalType": "address",
          "name": "",
          "type": "address"
        }
      ],
      "stateMutability": "view",
      "type": "function"
    },
    {
      "inputs": [
        {
          "internalType": "bytes32",
          "name": "",
          "type": "bytes32"
        }
      ],
      "name": "orders",
      "outputs": [
        {
          "internalType": "address",
          "name": "vault",
          "type": "address"
        },
        {
          "internalType": "uint8",
          "name": "kind",
          "type": "uint8"
        },
        {
          "internalType": "bytes32",
          "name": "positionKey",
          "type": "bytes32"
        },
        {
          "internalType": "bytes32",
          "name": "gmxKey",
          "type": "bytes32"
        },
        {
          "internalType": "bool",
          "name": "executed",
          "type": "bool"
        }
      ],
      "stateMutability": "view",
      "type": "function"
    },
    {
      "inputs": [],
      "name": "owner",
      "outputs": [
        {
          "internalType": "address",
          "name": "",
          "type": "address"
        }
      ],
      "stateMutability": "view",
      "type": "function"
    },
    {
      "inputs": [
        {
          "internalType": "address",
          "name": "account",
          "type": "address"
        },
        {
          "internalType": "bytes32",
          "name": "marketId",
          "type": "bytes32"
        },
        {
          "internalType": "bool",
          "name": "isLong",
          "type": "bool"
        }
      ],
      "name": "positionKey",
      "outputs": [
        {
          "internalType": "bytes32",
          "name": "",
          "type": "bytes32"
        }
      ],
      "stateMutability": "pure",
      "type": "function"
    },
    {
      "inputs": [
        {
          "internalType": "bytes32",
          "name": "",
          "type": "bytes32"
        }
      ],
      "name": "positions",
      "outputs": [
        {
          "internalType": "address",
          "name": "vault",
          "type": "address"
        },
        {
          "internalType": "uint256",
          "name": "collateral",
          "type": "uint256"
        },
        {
          "internalType": "uint256",
          "name": "entryPrice8",
          "type": "uint256"
        },
        {
          "internalType": "bytes32",
          "name": "marketId",
          "type": "bytes32"
        },
        {
          "internalType": "uint256",
          "name": "leverage",
          "type": "uint256"
        },
        {
          "internalType": "uint256",
          "name": "gmxSizeUsd",
          "type": "uint256"
        },
        {
          "internalType": "bool",
          "name": "active",
          "type": "bool"
        },
        {
          "internalType": "bool",
          "name": "isLong",
          "type": "bool"
        }
      ],
      "stateMutability": "view",
      "type": "function"
    },
    {
      "inputs": [],
      "name": "reader",
      "outputs": [
        {
          "internalType": "contract IGmxReader",
          "name": "",
          "type": "address"
        }
      ],
      "stateMutability": "view",
      "type": "function"
    },
    {
      "inputs": [
        {
          "internalType": "bytes32",
          "name": "pk",
          "type": "bytes32"
        },
        {
          "internalType": "uint256",
          "name": "withdrawUsdc",
          "type": "uint256"
        }
      ],
      "name": "reducePosition",
      "outputs": [
        {
          "internalType": "uint256",
          "name": "paidUsdc",
          "type": "uint256"
        }
      ],
      "stateMutability": "nonpayable",
      "type": "function"
    },
    {
      "inputs": [
        {
          "internalType": "bytes32",
          "name": "marketId",
          "type": "bytes32"
        },
        {
          "internalType": "contract IPriceOracle",
          "name": "oracle",
          "type": "address"
        },
        {
          "internalType": "address",
          "name": "gmxMarket",
          "type": "address"
        }
      ],
      "name": "registerMarket",
      "outputs": [],
      "stateMutability": "nonpayable",
      "type": "function"
    },
    {
      "inputs": [],
      "name": "renounceOwnership",
      "outputs": [],
      "stateMutability": "nonpayable",
      "type": "function"
    },
    {
      "inputs": [
        {
          "internalType": "bytes32",
          "name": "ryexOrderKey",
          "type": "bytes32"
        }
      ],
      "name": "requestCancellation",
      "outputs": [],
      "stateMutability": "nonpayable",
      "type": "function"
    },
    {
      "inputs": [
        {
          "internalType": "uint256",
          "name": "max_",
          "type": "uint256"
        },
        {
          "internalType": "uint256",
          "name": "min_",
          "type": "uint256"
        }
      ],
      "name": "setAcceptablePrices",
      "outputs": [],
      "stateMutability": "nonpayable",
      "type": "function"
    },
    {
      "inputs": [
        {
          "internalType": "uint256",
          "name": "fee",
          "type": "uint256"
        }
      ],
      "name": "setExecFee",
      "outputs": [],
      "stateMutability": "nonpayable",
      "type": "function"
    },
    {
      "inputs": [
        {
          "internalType": "address",
          "name": "handler_",
          "type": "address"
        }
      ],
      "name": "setGmxOrderHandler",
      "outputs": [],
      "stateMutability": "nonpayable",
      "type": "function"
    },
    {
      "inputs": [
        {
          "internalType": "bytes32",
          "name": "gmxKey",
          "type": "bytes32"
        }
      ],
      "name": "settleGmxOrder",
      "outputs": [],
      "stateMutability": "nonpayable",
      "type": "function"
    },
    {
      "inputs": [
        {
          "internalType": "address",
          "name": "token",
          "type": "address"
        },
        {
          "internalType": "address",
          "name": "to",
          "type": "address"
        },
        {
          "internalType": "uint256",
          "name": "amount",
          "type": "uint256"
        }
      ],
      "name": "sweep",
      "outputs": [],
      "stateMutability": "nonpayable",
      "type": "function"
    },
    {
      "inputs": [
        {
          "internalType": "address",
          "name": "newOwner",
          "type": "address"
        }
      ],
      "name": "transferOwnership",
      "outputs": [],
      "stateMutability": "nonpayable",
      "type": "function"
    },
    {
      "inputs": [],
      "name": "usdc",
      "outputs": [
        {
          "internalType": "contract IERC20",
          "name": "",
          "type": "address"
        }
      ],
      "stateMutability": "view",
      "type": "function"
    },
    {
      "stateMutability": "payable",
      "type": "receive"
    }
  ],
  "bytecode": "0x6101406040526611c37937e08000600155600019600255600160035560405162004eea38038062004eea8339810160408190526200003d91620002dc565b806001600160a01b0381166200006e57604051631e4fbdf760e01b8152600060048201526024015b60405180910390fd5b6200007981620000df565b506001600160a01b03888116608081905288821660a05287821660c05286821660e0528582166101005284821661012052600b80546001600160a01b03191692851692909217909155620000d190876000196200012f565b50505050505050506200039d565b600080546001600160a01b038381166001600160a01b0319831681178455604051919092169283917f8be0079c531659141344cd1fd0a4f28419497f9722a3daafe3b4186f6b6457e09190a35050565b604080516001600160a01b038416602482015260448082018490528251808303909101815260649091019091526020810180516001600160e01b0390811663095ea7b360e01b17909152620001899085908390620001fb16565b620001f557604080516001600160a01b038516602482015260006044808301919091528251808303909101815260649091019091526020810180516001600160e01b0390811663095ea7b360e01b17909152620001e99186916200024d16565b620001f584826200024d565b50505050565b6000806000806020600086516020880160008a5af192503d91506000519050828015620002435750811562000234578060011462000243565b6000866001600160a01b03163b115b9695505050505050565b600080602060008451602086016000885af18062000271576040513d6000823e3d81fd5b50506000513d915081156200028b57806001141562000298565b6001600160a01b0384163b155b15620001f557604051635274afe760e01b81526001600160a01b038516600482015260240162000065565b6001600160a01b0381168114620002d957600080fd5b50565b600080600080600080600080610100898b031215620002fa57600080fd5b88516200030781620002c3565b60208a01519098506200031a81620002c3565b60408a01519097506200032d81620002c3565b60608a01519096506200034081620002c3565b60808a01519095506200035381620002c3565b60a08a01519094506200036681620002c3565b60c08a01519093506200037981620002c3565b60e08a01519092506200038c81620002c3565b809150509295985092959890939650565b60805160a05160c05160e0516101005161012051614a63620004876000396000818161061f01528181610d2b01528181611f71015261212501526000818161084b01528181610c7b01528181610d5d0152818161206c015261215701526000818161073f015281816129740152612a34015260006105cb01526000818161035e01528181610bf30152612b8c01526000818161045301528181610cc90152818161166c01528181611708015281816118ce0152818161197c01528181611ab0015281816120c3015281816122d601528181612376015281816127f10152612a030152614a636000f3fe60806040526004361061024a5760003560e01c8063646e3ff4116101395780638da5cb5b116100b6578063d4fc42c61161007a578063d4fc42c614610839578063d8bbbe421461086d578063e59feeef1461088d578063f2fde38b146108ad578063fa37e576146108cd578063ffaf393f146108fa57600080fd5b80638da5cb5b1461070f57806393845e461461072d5780639c3f1e9014610761578063b5b0862f146107f0578063c8fe528d1461080357600080fd5b80637489ec23116100fd5780637489ec231461067c57806376197ba31461069c57806383fc34cf146106bc578063846ce088146106dc5780638c509fd5146106fc57600080fd5b8063646e3ff4146105ed578063660d0d671461060d57806369077bb214610641578063715018a61461065457806372525e231461066957600080fd5b806334b3c1e4116101c7578063511ea1881161018b578063511ea188146104b5578063514ea4bf146104cb5780635df970ef1461058357806362c0676714610599578063634e3180146105b957600080fd5b806334b3c1e41461040b5780633db12f8f146104215780633e413bee14610441578063453e5a2c146104755780634cb7c3191461049557600080fd5b80631c89fea91161020e5780631c89fea91461032c5780631cb858181461034c5780631ef75602146103805780632f94cdd1146103965780633157d9c7146103b657600080fd5b8063049b76c41461025657806305e4c29214610278578063066bf5a91461029857806308255408146102cb5780630e177ccc146102de57600080fd5b3661025157005b600080fd5b34801561026257600080fd5b50610276610271366004612e61565b61091a565b005b34801561028457600080fd5b50610276610293366004612e8f565b610981565b3480156102a457600080fd5b506102b86102b3366004612ec9565b6109e8565b6040519081526020015b60405180910390f35b6102b86102d9366004612f0b565b610a3c565b3480156102ea57600080fd5b506103146102f9366004612e61565b6005602052600090815260409020546001600160a01b031681565b6040516001600160a01b0390911681526020016102c2565b34801561033857600080fd5b50610276610347366004612f58565b610a9f565b34801561035857600080fd5b506103147f000000000000000000000000000000000000000000000000000000000000000081565b34801561038c57600080fd5b506102b860025481565b3480156103a257600080fd5b506102766103b1366004612e61565b610ab2565b3480156103c257600080fd5b506103d66103d1366004612ec9565b610c2a565b6040516102c2919081511515815260208083015190820152604080830151908201526060918201519181019190915260800190565b34801561041757600080fd5b506102b860035481565b34801561042d57600080fd5b5061027661043c366004612e61565b610e1a565b34801561044d57600080fd5b506103147f000000000000000000000000000000000000000000000000000000000000000081565b34801561048157600080fd5b50610276610490366004612f7a565b610e27565b3480156104a157600080fd5b506102b86104b0366004612e61565b610eb1565b3480156104c157600080fd5b506102b8600a5481565b3480156104d757600080fd5b5061053a6104e6366004612e61565b600660208190526000918252604090912080546001820154600283015460038401546004850154600586015495909601546001600160a01b0390941695929491939092919060ff8082169161010090041688565b604080516001600160a01b0390991689526020890197909752958701949094526060860192909252608085015260a0840152151560c0830152151560e0820152610100016102c2565b34801561058f57600080fd5b506102b860015481565b3480156105a557600080fd5b506102766105b4366004612fb1565b61105b565b3480156105c557600080fd5b506103147f000000000000000000000000000000000000000000000000000000000000000081565b3480156105f957600080fd5b50610276610608366004612e61565b61111e565b34801561061957600080fd5b506103147f000000000000000000000000000000000000000000000000000000000000000081565b6102b861064f366004612f58565b611294565b34801561066057600080fd5b506102766112ab565b6102b8610677366004612e61565b6112bf565b34801561068857600080fd5b50610276610697366004612e61565b6114c9565b3480156106a857600080fd5b506102b86106b7366004612f58565b611523565b3480156106c857600080fd5b506102766106d7366004614312565b61173b565b3480156106e857600080fd5b506102766106f736600461437e565b611773565b6102b861070a366004612f58565b61179d565b34801561071b57600080fd5b506000546001600160a01b0316610314565b34801561073957600080fd5b506103147f000000000000000000000000000000000000000000000000000000000000000081565b34801561076d57600080fd5b506107ba61077c366004612e61565b60076020526000908152604090208054600182015460028301546003909301546001600160a01b0383169360ff600160a01b90940484169390911685565b604080516001600160a01b03909616865260ff90941660208601529284019190915260608301521515608082015260a0016102c2565b6102b86107fe366004612f0b565b6117ab565b34801561080f57600080fd5b5061031461081e366004612e61565b6004602052600090815260409020546001600160a01b031681565b34801561084557600080fd5b506103147f000000000000000000000000000000000000000000000000000000000000000081565b34801561087957600080fd5b50610276610888366004614312565b6117bc565b34801561089957600080fd5b50600b54610314906001600160a01b031681565b3480156108b957600080fd5b506102766108c836600461437e565b6117cf565b3480156108d957600080fd5b506102b86108e8366004612e61565b60086020526000908152604090205481565b34801561090657600080fd5b50610276610915366004614312565b61180d565b610922611820565b600081815260076020526040902080546001600160a01b03161580159061094e5750600381015460ff16155b6109735760405162461bcd60e51b815260040161096a9061439b565b60405180910390fd5b61097d828261184d565b5050565b610989611820565b6040516341fcf16360e01b8152600481018290526001600160a01b038316906341fcf163906024015b600060405180830381600087803b1580156109cc57600080fd5b505af11580156109e0573d6000803e3d6000fd5b505050505050565b6040516bffffffffffffffffffffffff19606085901b1660208201526034810183905281151560f81b60548201526000906055016040516020818303038152906040528051906020012090505b9392505050565b6000808411610a875760405162461bcd60e51b8152602060048201526017602482015276474d583a207a65726f207472696767657220707269636560481b604482015260640161096a565b610a95868686868887611a16565b9695505050505050565b610aa7611820565b600291909155600355565b600081815260076020908152604091829020825160a08101845281546001600160a01b03811680835260ff600160a01b90920482169483019490945260018301549482019490945260028201546060820152600390910154909216151560808301523314610b325760405162461bcd60e51b815260040161096a906143c3565b806080015115610b7c5760405162461bcd60e51b815260206004820152601560248201527411d3560e88185b1c9958591e48195e1958dd5d1959605a1b604482015260640161096a565b6060810151610bd75760405162461bcd60e51b815260206004820152602160248201527f474d583a206e6f20474d58206b657920286d6f636b2d6f6e6c79206f726465726044820152602960f81b606482015260840161096a565b6060810151604051637489ec2360e01b815260048101919091527f00000000000000000000000000000000000000000000000000000000000000006001600160a01b031690637489ec23906024016109b2565b610c5760405180608001604052806000151581526020016000815260200160008152602001600081525090565b6000838152600560205260409020546001600160a01b03168015801590610ca657507f00000000000000000000000000000000000000000000000000000000000000006001600160a01b031615155b15610e0657604080513060208201526001600160a01b03838116928201929092527f00000000000000000000000000000000000000000000000000000000000000009091166060820152831515608082015260009060a00160408051601f198184030181529082905280516020909101206307d47a8b60e11b82526001600160a01b037f000000000000000000000000000000000000000000000000000000000000000081166004840152602483018290529092507f00000000000000000000000000000000000000000000000000000000000000001690630fa8f516906044016101a060405180830381865afa925050508015610dc1575060408051601f3d908101601f19168201909252610dbe9181019061443a565b60015b610dd657610dd186868686611dcf565b610dff565b602090810180515115158552805151918501919091525160409081015190840152600060608401525b5050610a35565b610e1285858585611dcf565b509392505050565b610e22611820565b600155565b610e2f611820565b600083815260046020908152604080832080546001600160a01b038781166001600160a01b0319928316811790935560058552948390208054958716959091168517905581519081529182019290925284917f393bf4ff2983ac2030da8f04a013ff4ac3176d2440549a516edff6f881c4db3b910160405180910390a2505050565b60008181526006602081815260408084208151610100808201845282546001600160a01b031682526001830154948201949094526002820154928101929092526003810154606083015260048101546080830152600581015460a08301529092015460ff80821615801560c08601529290910416151560e083015280610f3957506040810151155b15610f475750600092915050565b6000610f568260200151611e97565b60608301516000908152600460208181526040808420548151634c6afee560e11b8152915195965093946001600160a01b03909416936398d5fdca9382810193928290030181865afa158015610fb0573d6000803e3d6000fd5b505050506040513d601f19601f82011682018060405250810190610fd4919061453b565b905060008360400151905060008460e00151610ff957610ff4838361456a565b611003565b611003828461456a565b9050600082828760800151876110199190614591565b6110239190614591565b61102d91906145d7565b9050600061103b8287614605565b90506000811361104c57600061104e565b805b9998505050505050505050565b611063611820565b6001600160a01b038316611105576000826001600160a01b03168260405160006040518083038185875af1925050503d80600081146110be576040519150601f19603f3d011682016040523d82523d6000602084013e6110c3565b606091505b50509050806110ff5760405162461bcd60e51b8152602060048201526008602482015267195d1a081cd95b9960c21b604482015260640161096a565b50505050565b6111196001600160a01b0384168383611ea8565b505050565b600081815260086020526040902054806111705760405162461bcd60e51b8152602060048201526013602482015272474d583a20756e6b6e6f776e20676d784b657960681b604482015260640161096a565b600081815260076020526040902080546001600160a01b03161580159061119c5750600381015460ff16155b6111b85760405162461bcd60e51b815260040161096a9061439b565b6111c183611f07565b1561120e5760405162461bcd60e51b815260206004820152601860248201527f474d583a206f72646572207374696c6c2070656e64696e670000000000000000604482015260640161096a565b60018101546000908152600660208190526040822060038101549181015490929161124091610100900460ff1661204a565b8354909150600160a01b900460ff16600103611274578061126a5761126584846121e3565b61128d565b611265848461184d565b8061128357611265848461184d565b61128d84846121e3565b5050505050565b60006112a283836001612411565b90505b92915050565b6112b3611820565b6112bd6000612709565b565b60008181526006602081815260408084208151610100808201845282546001600160a01b031682526001830154948201949094526002820154928101929092526003810154606083015260048101546080830152600581015460a08301529092015460ff808216151560c085018190529290910416151560e083015261137a5760405162461bcd60e51b815260206004820152601060248201526f23a6ac1d103737903837b9b4ba34b7b760811b604482015260640161096a565b60608101516000908152600560205260408120546001600160a01b03169081156113d55760008360e001516113b1576002546113b5565b6003545b90506113d183600460008760a001516000868a60e00151612759565b9150505b6113de33612c6b565b6040805160a081018252338152600260208083018281528385018b81526060850188815260006080870181815289825260079095529690962094518554925160ff16600160a01b026001600160a81b03199093166001600160a01b03919091161791909117845551600184015592519082015590516003909101805491151560ff19909216919091179055935080156114835760008181526008602052604090208490555b604080516002815260208101839052339186917f540c54bd4517b6e7f64d6f6b3409494c1882f2141f71895f5294afdb60931ff8910160405180910390a3505050919050565b6114d1611820565b600081815260076020526040902080546001600160a01b0316158015906114fd5750600381015460ff16155b6115195760405162461bcd60e51b815260040161096a9061439b565b61097d82826121e3565b600082815260066020819052604082209081015460ff166115795760405162461bcd60e51b815260206004820152601060248201526f23a6ac1d103737903837b9b4ba34b7b760811b604482015260640161096a565b80546001600160a01b031633146115a25760405162461bcd60e51b815260040161096a906143c3565b60006115b56115b086610eb1565b612cd7565b90506000811180156115c75750808411155b6116095760405162461bcd60e51b8152602060048201526013602482015272474d583a20657863656564732065717569747960681b604482015260640161096a565b60008185846001015461161c9190614625565b611626919061463c565b9050826001015481111561163b575060018201545b8083600101600082825461164f9190614650565b90915550506040516370a0823160e01b81523060048201526000907f00000000000000000000000000000000000000000000000000000000000000006001600160a01b0316906370a0823190602401602060405180830381865afa1580156116bb573d6000803e3d6000fd5b505050506040513d601f19601f820116820180604052508101906116df919061453b565b90508086116116ee57856116f0565b805b94508415611731578354611731906001600160a01b037f00000000000000000000000000000000000000000000000000000000000000008116911687611ea8565b5050505092915050565b611743612ce8565b60405183907fce2584fe4322fcada2efbb32d03eebd6c5a7b73784a90fd6f527e2344a3be6bb90600090a2505050565b61177b611820565b600b80546001600160a01b0319166001600160a01b0392909216919091179055565b60006112a283836000612411565b6000610a9586868686600087611a16565b6117c4612ce8565b611119836000612d4b565b6117d7611820565b6001600160a01b03811661180157604051631e4fbdf760e01b81526000600482015260240161096a565b61180a81612709565b50565b611815612ce8565b611119836001612d4b565b6000546001600160a01b031633146112bd5760405163118cdaa760e01b815233600482015260240161096a565b60038101805460ff191660019081179091558154600160a01b900460ff16900361189957600181810154600090815260066020819052604090912001805460ff191690911790556119a8565b60006118ab6115b08360010154610eb1565b6040516370a0823160e01b81523060048201529091506000906001600160a01b037f000000000000000000000000000000000000000000000000000000000000000016906370a0823190602401602060405180830381865afa158015611915573d6000803e3d6000fd5b505050506040513d601f19601f82011682018060405250810190611939919061453b565b905080821115611947578091505b6001830154600090815260066020819052604090912001805460ff1916905581156119a55782546119a5906001600160a01b037f00000000000000000000000000000000000000000000000000000000000000008116911684611ea8565b50505b817fe7ce370cc0425e330fd66bf98129d75f24695dba59b19d1df832da3c809327c382600201546040516119de91815260200190565b60405180910390a2805460405163a83e12bd60e01b8152600481018490526001600160a01b039091169063a83e12bd906024016109b2565b6000808611611a5e5760405162461bcd60e51b815260206004820152601460248201527311d3560e881e995c9bc818dbdb1b185d195c985b60621b604482015260640161096a565b6001841015611aa35760405162461bcd60e51b8152602060048201526011602482015270474d583a20626164206c6576657261676560781b604482015260640161096a565b611ad86001600160a01b037f000000000000000000000000000000000000000000000000000000000000000016333089612db7565b600084611aef8869d3c21bcecceda1000000614625565b611af99190614625565b6000898152600560205260408120549192506001600160a01b03909116908115611bc657600080600088600003611b4a57600292506000915087611b3f57600354611b43565b6002545b9050611bb1565b60039250611b628969021e19e0c9bab2400000614625565b91508715611b8c57612710611b78606482614663565b611b829084614625565b611b43919061463c565b612710611b9a606482614650565b611ba49084614625565b611bae919061463c565b90505b611bc085848e8986868e612759565b93505050505b6000611bd3338c886109e8565b9050604051806101000160405280336001600160a01b031681526020018b81526020018a81526020018c81526020018981526020018581526020016000151581526020018715158152506006600083815260200190815260200160002060008201518160000160006101000a8154816001600160a01b0302191690836001600160a01b031602179055506020820151816001015560408201518160020155606082015181600301556080820151816004015560a0820151816005015560c08201518160060160006101000a81548160ff02191690831515021790555060e08201518160060160016101000a81548160ff021916908315150217905550905050611cdb33612c6b565b6040805160a081018252338152600160208083018281528385018781526060850189815260006080870181815289825260079095529690962094518554925160ff16600160a01b026001600160a81b03199093166001600160a01b03919091161791909117845551918301919091559151600282015590516003909101805491151560ff1990921691909117905594508115611d835760008281526008602052604090208590555b604080516001815260208101849052339187917f540c54bd4517b6e7f64d6f6b3409494c1882f2141f71895f5294afdb60931ff8910160405180910390a3505050509695505050505050565b6000611ddc8585856109e8565b6000818152600660208181526040928390208351610100808201865282546001600160a01b031682526001830154938201939093526002820154948101949094526003810154606085015260048101546080850152600581015460a08501529091015460ff808216151560c085018181529390920416151560e084015285525191925090611e6b576000611e71565b8060a001515b602080850191909152810151604080850191909152015160609092019190915250505050565b60006112a564e8d4a5100083614625565b6040516001600160a01b0383811660248301526044820183905261111991859182169063a9059cbb906064015b604051602081830303815290604052915060e01b6020820180516001600160e01b038381831617835250505050612df0565b604080517f2125b00bb3668454c784fba74370d25c7b4178eab20f5346a5ff1c06387445f860208083019190915230828401528251808303840181526060830190935282519201919091206084820181905260a48201839052600091829081906001600160a01b037f0000000000000000000000000000000000000000000000000000000000000000169060c40160408051601f198184030181529181526020820180516001600160e01b0316632475100f60e21b17905251611fca919061469a565b600060405180830381855afa9150503d8060008114612005576040519150601f19603f3d011682016040523d82523d6000602084013e61200a565b606091505b509150915081158061201d575060208151105b1561202d57506000949350505050565b8080602001905181019061204191906146b6565b95945050505050565b6000828152600560205260408120546001600160a01b031680158061209657507f00000000000000000000000000000000000000000000000000000000000000006001600160a01b0316155b156120a55760009150506112a5565b604080513060208201526001600160a01b03838116928201929092527f00000000000000000000000000000000000000000000000000000000000000009091166060820152831515608082015260009060a00160408051601f198184030181529082905280516020909101206307d47a8b60e11b82526001600160a01b037f000000000000000000000000000000000000000000000000000000000000000081166004840152602483018290529092507f00000000000000000000000000000000000000000000000000000000000000001690630fa8f516906044016101a060405180830381865afa9250505080156121bb575060408051601f3d908101601f191682019092526121b89181019061443a565b60015b6121ca576000925050506112a5565b6020015151151592506112a5915050565b505092915050565b60038101805460ff191660019081179091558154600160a01b900460ff1690036123a35760018181015460008181526006602081815260408084208151610100808201845282546001600160a01b03808216845299840180548488015260028501805485880152600386018054606087015260048088018054608089015260058901805460a08a0152898d01805460ff808216151560c08d0152998104909916151560e08b01529e8e529b909a526001600160a01b03199094169096559089905588905592879055938690559385905561ffff1990921690945592516370a0823160e01b815230938101939093529290917f0000000000000000000000000000000000000000000000000000000000000000909116906370a0823190602401602060405180830381865afa15801561231f573d6000803e3d6000fd5b505050506040513d601f19601f82011682018060405250810190612343919061453b565b905060008183602001511161235c57826020015161235e565b815b9050801561239f57835461239f906001600160a01b037f00000000000000000000000000000000000000000000000000000000000000008116911683611ea8565b5050505b817f0b751d7bc7e902e8c7f5ae3b5a5cfaf6469fadd348681b2cdf779031fb629adc82600201546040516123d991815260200190565b60405180910390a280546040516341fcf16360e01b8152600481018490526001600160a01b03909116906341fcf163906024016109b2565b600080831161245c5760405162461bcd60e51b8152602060048201526017602482015276474d583a207a65726f207472696767657220707269636560481b604482015260640161096a565b6000848152600660208181526040928390208351610100808201865282546001600160a01b031682526001830154938201939093526002820154948101949094526003810154606085015260048101546080850152600581015460a08501529091015460ff808216151560c085018190529290910416151560e08301526125255760405162461bcd60e51b815260206004820152601760248201527f474d583a206e6f2061637469766520706f736974696f6e000000000000000000604482015260640161096a565b80516001600160a01b0316331461254e5760405162461bcd60e51b815260040161096a906143c3565b60608101516000908152600560205260408120546001600160a01b031690811561261557600085612580576006612583565b60055b9050600061259b8869021e19e0c9bab2400000614625565b905060008560e00151156125d2576127106125b7606482614650565b6125c19084614625565b6125cb919061463c565b90506125f7565b6127106125e0606482614663565b6125ea9084614625565b6125f4919061463c565b90505b61260f858460008960a0015186868c60e00151612759565b93505050505b61261e33612c6b565b6040805160a081018252338152600360208083018281528385018d81526060850188815260006080870181815289825260079095529690962094518554925160ff16600160a01b026001600160a81b03199093166001600160a01b0391909116179190911784555160018401559251600283015591519101805491151560ff19909216919091179055935080156126c15760008181526008602052604090208490555b604080516003815260208101839052339186917f540c54bd4517b6e7f64d6f6b3409494c1882f2141f71895f5294afdb60931ff8910160405180910390a35050509392505050565b600080546001600160a01b038381166001600160a01b0319831681178455604051919092169283917f8be0079c531659141344cd1fd0a4f28419497f9722a3daafe3b4186f6b6457e09190a35050565b600154600090478111156127af5760405162461bcd60e51b815260206004820152601e60248201527f474d583a206164617074657220756e64657266756e6465642028455448290000604482015260640161096a565b60408051610200810182523061012082018181526101408301829052610160830191909152600061018083018190526001600160a01b038d81166101a08501527f0000000000000000000000000000000000000000000000000000000000000000166101c0840152835181815260208101909452928291906101e083019081525081526020016040518061010001604052808a81526020018b81526020018981526020018881526020018581526020016207a120815260200160008152602001600081525081526020018a60ff168152602001600060ff16815260200185151581526020016000151581526020016000151581526020016000801b815260200160006001600160401b038111156128c8576128c8612ff2565b6040519080825280602002602001820160405280156128f1578160200160208202803683370190505b5090529050600060ff8a166002148061290d575060ff8a166003145b905060008161291d576002612920565b60035b60ff166001600160401b0381111561293a5761293a612ff2565b60405190808252806020026020018201604052801561296d57816020015b60608152602001906001900390816129585790505b50604080517f00000000000000000000000000000000000000000000000000000000000000006001600160a01b0316602482015260448082018890528251808303909101815260649091019091526020810180516001600160e01b0316637d39aaf160e01b17905281519192509082906000906129ec576129ec6146d3565b60200260200101819052508115612b1c57604080517f00000000000000000000000000000000000000000000000000000000000000006001600160a01b0390811660248301527f000000000000000000000000000000000000000000000000000000000000000016604482015260648082018d90528251808303909101815260849091019091526020810180516001600160e01b0316631cdacd5960e31b179052815182906001908110612aa257612aa26146d3565b602002602001018190525063f59c48eb60e01b83604051602401612ac691906147c8565b604051602081830303815290604052906001600160e01b0319166020820180516001600160e01b03838183161783525050505081600281518110612b0c57612b0c6146d3565b6020026020010181905250612b88565b60405163f59c48eb60e01b90612b369085906024016147c8565b604051602081830303815290604052906001600160e01b0319166020820180516001600160e01b03838183161783525050505081600181518110612b7c57612b7c6146d3565b60200260200101819052505b60007f00000000000000000000000000000000000000000000000000000000000000006001600160a01b031663ac9650d886846040518363ffffffff1660e01b8152600401612bd791906148ae565b60006040518083038185885af1158015612bf5573d6000803e3d6000fd5b50505050506040513d6000823e601f3d908101601f19168201604052612c1e9190810190614928565b90508060018251612c2f9190614650565b81518110612c3f57612c3f6146d3565b6020026020010151806020019051810190612c5a919061453b565b9d9c50505050505050505050505050565b6009546040516bffffffffffffffffffffffff19606084901b166020820152603481019190915243605482015260009060740160408051601f198184030181529190528051602090910120600980549192506000612cc883614a14565b9091555050600a819055919050565b60006112a564e8d4a510008361463c565b600b546001600160a01b0316156112bd57600b546001600160a01b031633146112bd5760405162461bcd60e51b815260206004820152601560248201527423a6ac1d103737ba1027b93232b92430b7323632b960591b604482015260640161096a565b60008281526008602052604090205480612d6457505050565b600081815260076020526040902080546001600160a01b03161580612d8d5750600381015460ff165b15612d985750505050565b8215612dad57612da8828261184d565b6110ff565b6110ff82826121e3565b6040516001600160a01b0384811660248301528381166044830152606482018390526110ff9186918216906323b872dd90608401611ed5565b600080602060008451602086016000885af180612e13576040513d6000823e3d81fd5b50506000513d91508115612e2b578060011415612e38565b6001600160a01b0384163b155b156110ff57604051635274afe760e01b81526001600160a01b038516600482015260240161096a565b600060208284031215612e7357600080fd5b5035919050565b6001600160a01b038116811461180a57600080fd5b60008060408385031215612ea257600080fd5b8235612ead81612e7a565b946020939093013593505050565b801515811461180a57600080fd5b600080600060608486031215612ede57600080fd5b8335612ee981612e7a565b9250602084013591506040840135612f0081612ebb565b809150509250925092565b600080600080600060a08688031215612f2357600080fd5b853594506020860135935060408601359250606086013591506080860135612f4a81612ebb565b809150509295509295909350565b60008060408385031215612f6b57600080fd5b50508035926020909101359150565b600080600060608486031215612f8f57600080fd5b833592506020840135612fa181612e7a565b91506040840135612f0081612e7a565b600080600060608486031215612fc657600080fd5b8335612fd181612e7a565b92506020840135612fe181612e7a565b929592945050506040919091013590565b634e487b7160e01b600052604160045260246000fd5b604080519081016001600160401b038111828210171561302a5761302a612ff2565b60405290565b60405160e081016001600160401b038111828210171561302a5761302a612ff2565b604051606081016001600160401b038111828210171561302a5761302a612ff2565b60405161012081016001600160401b038111828210171561302a5761302a612ff2565b604051601f8201601f191681016001600160401b03811182821017156130bf576130bf612ff2565b604052919050565b60006001600160401b038211156130e0576130e0612ff2565b5060051b60200190565b60006001600160401b0382111561310357613103612ff2565b50601f01601f191660200190565b600082601f83011261312257600080fd5b8135613135613130826130ea565b613097565b81815284602083860101111561314a57600080fd5b816020850160208301376000918101602001919091529392505050565b600082601f83011261317857600080fd5b81356020613188613130836130c7565b828152600592831b85018201928282019190878511156131a757600080fd5b8387015b858110156132a85780356001600160401b03808211156131cb5760008081fd5b908901906040828c03601f19018113156131e55760008081fd5b6131ed613008565b88840135838111156131ff5760008081fd5b61320d8e8b83880101613111565b82525081840135838111156132225760008081fd5b8085019450508c603f85011261323a57600092508283fd5b88840135925061324c613130846130c7565b83815292861b8401820192898101908e8511156132695760008081fd5b948301945b84861015613293578535935061328384612e7a565b838252948a0194908a019061326e565b828b01525087525050509284019284016131ab565b5090979650505050505050565b600060408083850312156132c857600080fd5b6132d0613008565b915082356001600160401b03808211156132e957600080fd5b818501915085601f8301126132fd57600080fd5b8135602061330d613130836130c7565b82815260059290921b8401810191818101908984111561332c57600080fd5b8286015b848110156133ab578035868111156133485760008081fd5b8701808c03601f190189131561335e5760008081fd5b613366613008565b85820135888111156133785760008081fd5b6133868e8883860101613111565b825250908901359061339782612e7a565b808601919091528352918301918301613330565b50875250868101359450828511156133c257600080fd5b6133ce88868901613167565b81870152505050505092915050565b600082601f8301126133ee57600080fd5b813560206133fe613130836130c7565b828152600592831b850182019282820191908785111561341d57600080fd5b8387015b858110156132a85780356001600160401b03808211156134415760008081fd5b908901906040828c03601f190181131561345b5760008081fd5b613463613008565b88840135838111156134755760008081fd5b6134838e8b83880101613111565b82525081840135838111156134985760008081fd5b8085019450508c603f8501126134b057600092508283fd5b8884013592506134c2613130846130c7565b83815292861b8401820192898101908e8511156134df5760008081fd5b948301945b848610156134fd5785358252948a0194908a01906134e4565b828b0152508752505050928401928401613421565b6000604080838503121561352557600080fd5b61352d613008565b915082356001600160401b038082111561354657600080fd5b818501915085601f83011261355a57600080fd5b8135602061356a613130836130c7565b82815260059290921b8401810191818101908984111561358957600080fd5b8286015b848110156135fb578035868111156135a55760008081fd5b8701808c03601f19018913156135bb5760008081fd5b6135c3613008565b85820135888111156135d55760008081fd5b6135e38e8883860101613111565b8252509089013585820152835291830191830161358d565b508752508681013594508285111561361257600080fd5b6133ce888689016133dd565b600082601f83011261362f57600080fd5b8135602061363f613130836130c7565b828152600592831b850182019282820191908785111561365e57600080fd5b8387015b858110156132a85780356001600160401b03808211156136825760008081fd5b908901906040828c03601f190181131561369c5760008081fd5b6136a4613008565b88840135838111156136b65760008081fd5b6136c48e8b83880101613111565b82525081840135838111156136d95760008081fd5b8085019450508c603f8501126136f157600092508283fd5b888401359250613703613130846130c7565b83815292861b8401820192898101908e8511156137205760008081fd5b948301945b8486101561373e5785358252948a0194908a0190613725565b828b0152508752505050928401928401613662565b6000604080838503121561376657600080fd5b61376e613008565b915082356001600160401b038082111561378757600080fd5b818501915085601f83011261379b57600080fd5b813560206137ab613130836130c7565b82815260059290921b840181019181810190898411156137ca57600080fd5b8286015b8481101561383c578035868111156137e65760008081fd5b8701808c03601f19018913156137fc5760008081fd5b613804613008565b85820135888111156138165760008081fd5b6138248e8883860101613111565b825250908901358582015283529183019183016137ce565b508752508681013594508285111561385357600080fd5b6133ce8886890161361e565b600082601f83011261387057600080fd5b81356020613880613130836130c7565b828152600592831b850182019282820191908785111561389f57600080fd5b8387015b858110156132a85780356001600160401b03808211156138c35760008081fd5b908901906040828c03601f19018113156138dd5760008081fd5b6138e5613008565b88840135838111156138f75760008081fd5b6139058e8b83880101613111565b825250818401358381111561391a5760008081fd5b8085019450508c603f85011261393257600092508283fd5b888401359250613944613130846130c7565b83815292861b8401820192898101908e8511156139615760008081fd5b948301945b8486101561398b578535935061397b84612ebb565b838252948a0194908a0190613966565b828b01525087525050509284019284016138a3565b600060408083850312156139b357600080fd5b6139bb613008565b915082356001600160401b03808211156139d457600080fd5b818501915085601f8301126139e857600080fd5b813560206139f8613130836130c7565b82815260059290921b84018101918181019089841115613a1757600080fd5b8286015b84811015613a9657803586811115613a335760008081fd5b8701808c03601f1901891315613a495760008081fd5b613a51613008565b8582013588811115613a635760008081fd5b613a718e8883860101613111565b8252509089013590613a8282612ebb565b808601919091528352918301918301613a1b565b5087525086810135945082851115613aad57600080fd5b6133ce8886890161385f565b600082601f830112613aca57600080fd5b81356020613ada613130836130c7565b828152600592831b8501820192828201919087851115613af957600080fd5b8387015b858110156132a85780356001600160401b0380821115613b1d5760008081fd5b908901906040828c03601f1901811315613b375760008081fd5b613b3f613008565b8884013583811115613b515760008081fd5b613b5f8e8b83880101613111565b8252508184013583811115613b745760008081fd5b8085019450508c603f850112613b8c57600092508283fd5b888401359250613b9e613130846130c7565b83815292861b8401820192898101908e851115613bbb5760008081fd5b948301945b84861015613bd95785358252948a0194908a0190613bc0565b828b0152508752505050928401928401613afd565b60006040808385031215613c0157600080fd5b613c09613008565b915082356001600160401b0380821115613c2257600080fd5b818501915085601f830112613c3657600080fd5b81356020613c46613130836130c7565b82815260059290921b84018101918181019089841115613c6557600080fd5b8286015b84811015613cd757803586811115613c815760008081fd5b8701808c03601f1901891315613c975760008081fd5b613c9f613008565b8582013588811115613cb15760008081fd5b613cbf8e8883860101613111565b82525090890135858201528352918301918301613c69565b5087525086810135945082851115613cee57600080fd5b6133ce88868901613ab9565b600082601f830112613d0b57600080fd5b81356020613d1b613130836130c7565b82815260059290921b84018101918181019086841115613d3a57600080fd5b8286015b84811015613e43576001600160401b038082351115613d5c57600080fd5b813588016040818b03601f19011215613d7457600080fd5b613d7c613008565b8682013583811115613d8d57600080fd5b613d9b8c8983860101613111565b825250604082013583811115613db057600080fd5b8083019250508a603f830112613dc557600080fd5b86820135613dd5613130826130c7565b81815260059190911b830160400190888101908d831115613df557600080fd5b604085015b83811015613e2d578681351115613e1057600080fd5b613e208f60408335890101613111565b8352918a01918a01613dfa565b50838a0152505085525050918301918301613d3e565b509695505050505050565b60006040808385031215613e6157600080fd5b613e69613008565b915082356001600160401b0380821115613e8257600080fd5b818501915085601f830112613e9657600080fd5b81356020613ea6613130836130c7565b82815260059290921b84018101918181019089841115613ec557600080fd5b8286015b84811015613f5557803586811115613ee15760008081fd5b8701808c03601f1901891315613ef75760008081fd5b613eff613008565b8582013588811115613f115760008081fd5b613f1f8e8883860101613111565b8252508982013588811115613f345760008081fd5b613f428e8883860101613111565b8288015250845250918301918301613ec9565b5087525086810135945082851115613f6c57600080fd5b6133ce88868901613cfa565b600082601f830112613f8957600080fd5b81356020613f99613130836130c7565b82815260059290921b84018101918181019086841115613fb857600080fd5b8286015b84811015613e43576001600160401b038082351115613fda57600080fd5b813588016040818b03601f19011215613ff257600080fd5b613ffa613008565b868201358381111561400b57600080fd5b6140198c8983860101613111565b82525060408201358381111561402e57600080fd5b8083019250508a603f83011261404357600080fd5b86820135614053613130826130c7565b81815260059190911b830160400190888101908d83111561407357600080fd5b604085015b838110156140ab57868135111561408e57600080fd5b61409e8f60408335890101613111565b8352918a01918a01614078565b50838a0152505085525050918301918301613fbc565b600060408083850312156140d457600080fd5b6140dc613008565b915082356001600160401b03808211156140f557600080fd5b818501915085601f83011261410957600080fd5b81356020614119613130836130c7565b82815260059290921b8401810191818101908984111561413857600080fd5b8286015b848110156141c8578035868111156141545760008081fd5b8701808c03601f190189131561416a5760008081fd5b614172613008565b85820135888111156141845760008081fd5b6141928e8883860101613111565b82525089820135888111156141a75760008081fd5b6141b58e8883860101613111565b828801525084525091830191830161413c565b50875250868101359450828511156141df57600080fd5b6133ce88868901613f78565b600060e082840312156141fd57600080fd5b614205613030565b905081356001600160401b038082111561421e57600080fd5b61422a858386016132b5565b8352602084013591508082111561424057600080fd5b61424c85838601613512565b6020840152604084013591508082111561426557600080fd5b61427185838601613753565b6040840152606084013591508082111561428a57600080fd5b614296858386016139a0565b606084015260808401359150808211156142af57600080fd5b6142bb85838601613bee565b608084015260a08401359150808211156142d457600080fd5b6142e085838601613e4e565b60a084015260c08401359150808211156142f957600080fd5b50614306848285016140c1565b60c08301525092915050565b60008060006060848603121561432757600080fd5b8335925060208401356001600160401b038082111561434557600080fd5b614351878388016141eb565b9350604086013591508082111561436757600080fd5b50614374868287016141eb565b9150509250925092565b60006020828403121561439057600080fd5b8135610a3581612e7a565b6020808252600e908201526d23a6ac1d103130b21037b93232b960911b604082015260600190565b6020808252600e908201526d11d3560e881b9bdd081d985d5b1d60921b604082015260600190565b6000602082840312156143fd57600080fd5b604051602081018181106001600160401b038211171561441f5761441f612ff2565b8060405250809150825161443281612ebb565b905292915050565b60008183036101a081121561444e57600080fd5b614456613052565b606082121561446457600080fd5b61446c613052565b845161447781612e7a565b8152602085015161448781612e7a565b6020820152604085015161449a81612e7a565b60408201528152610120605f1983018113156144b557600080fd5b6144bd613074565b9250606085015183526080850151602084015260a0850151604084015260c0850151606084015260e085015160808401526101008086015160a08501528186015160c085015261014086015160e085015261016086015181850152505081602082015261452e8561018086016143eb565b6040820152949350505050565b60006020828403121561454d57600080fd5b5051919050565b634e487b7160e01b600052601160045260246000fd5b818103600083128015838313168383128216171561458a5761458a614554565b5092915050565b80820260008212600160ff1b841416156145ad576145ad614554565b81810583148215176112a5576112a5614554565b634e487b7160e01b600052601260045260246000fd5b6000826145e6576145e66145c1565b600160ff1b82146000198414161561460057614600614554565b500590565b80820182811260008312801582168215821617156121db576121db614554565b80820281158282048414176112a5576112a5614554565b60008261464b5761464b6145c1565b500490565b818103818111156112a5576112a5614554565b808201808211156112a5576112a5614554565b60005b83811015614691578181015183820152602001614679565b50506000910152565b600082516146ac818460208701614676565b9190910192915050565b6000602082840312156146c857600080fd5b8151610a3581612ebb565b634e487b7160e01b600052603260045260246000fd5b600060e0830160018060a01b0380845116855260208160208601511660208701528160408601511660408701528160608601511660608701528160808601511660808701528160a08601511660a087015260c085015160e060c088015283815180865261010089019150602083019550600092505b808310156147805785518516825294830194600192909201919083019061475e565b50979650505050505050565b60008151808452602080850194506020840160005b838110156147bd578151875295820195908201906001016147a1565b509495945050505050565b60208152600082516102008060208501526147e76102208501836146e9565b915060208501516148446040860182805182526020810151602083015260408101516040830152606081015160608301526080810151608083015260a081015160a083015260c081015160c083015260e081015160e08301525050565b50604085015160ff9081166101408601526060860151166101608501526080850151151561018085015260a085015115156101a085015260c085015115156101c085015260e08501516101e0850152610100850151848303601f190182860152610a95838261478c565b6000602080830181845280855180835260408601915060408160051b870101925083870160005b8281101561491b57878503603f19018452815180518087526148fc818989018a8501614676565b601f01601f1916959095018601945092850192908501906001016148d5565b5092979650505050505050565b6000602080838503121561493b57600080fd5b82516001600160401b038082111561495257600080fd5b818501915085601f83011261496657600080fd5b8151614974613130826130c7565b81815260059190911b8301840190848101908883111561499357600080fd5b8585015b83811015614a07578051858111156149af5760008081fd5b8601603f81018b136149c15760008081fd5b8781015160406149d3613130836130ea565b8281528d828486010111156149e85760008081fd5b6149f7838c8301848701614676565b8652505050918601918601614997565b5098975050505050505050565b600060018201614a2657614a26614554565b506001019056fea26469706673582212200fe3a52db514544b4176ab0ad97cfe477426b3b8e244b2c506da9c236273f58864736f6c63430008180033",
  "linkReferences": {},
  "deployedLinkReferences": {}
}