{
  "_format": "hh-sol-artifact-1",
  "contractName": "MockShortPerp",
  "sourceName": "src/mocks/MockShortPerp.sol",
  "abi": [
    {
      "inputs": [
        {
          "internalType": "contract IERC20",
          "name": "usdc_",
          "type": "address"
        },
        {
          "internalType": "contract IPriceOracle",
          "name": "oracle_",
          "type": "address"
        },
        {
          "internalType": "bytes32",
          "name": "marketId_",
          "type": "bytes32"
        },
        {
          "internalType": "address",
          "name": "owner_",
          "type": "address"
        }
      ],
      "stateMutability": "nonpayable",
      "type": "constructor"
    },
    {
      "inputs": [],
      "name": "BadLeverage",
      "type": "error"
    },
    {
      "inputs": [],
      "name": "NotOpen",
      "type": "error"
    },
    {
      "inputs": [],
      "name": "NotPositionOwner",
      "type": "error"
    },
    {
      "inputs": [
        {
          "internalType": "address",
          "name": "owner",
          "type": "address"
        }
      ],
      "name": "OwnableInvalidOwner",
      "type": "error"
    },
    {
      "inputs": [
        {
          "internalType": "address",
          "name": "account",
          "type": "address"
        }
      ],
      "name": "OwnableUnauthorizedAccount",
      "type": "error"
    },
    {
      "inputs": [
        {
          "internalType": "address",
          "name": "token",
          "type": "address"
        }
      ],
      "name": "SafeERC20FailedOperation",
      "type": "error"
    },
    {
      "inputs": [],
      "name": "ZeroAmount",
      "type": "error"
    },
    {
      "anonymous": false,
      "inputs": [
        {
          "indexed": true,
          "internalType": "bytes32",
          "name": "key",
          "type": "bytes32"
        },
        {
          "indexed": false,
          "internalType": "uint256",
          "name": "amount",
          "type": "uint256"
        }
      ],
      "name": "FundingClaimed",
      "type": "event"
    },
    {
      "anonymous": false,
      "inputs": [
        {
          "indexed": false,
          "internalType": "uint256",
          "name": "rateBps",
          "type": "uint256"
        },
        {
          "indexed": false,
          "internalType": "uint256",
          "name": "newIndex",
          "type": "uint256"
        }
      ],
      "name": "FundingPoked",
      "type": "event"
    },
    {
      "anonymous": false,
      "inputs": [
        {
          "indexed": true,
          "internalType": "address",
          "name": "previousOwner",
          "type": "address"
        },
        {
          "indexed": true,
          "internalType": "address",
          "name": "newOwner",
          "type": "address"
        }
      ],
      "name": "OwnershipTransferred",
      "type": "event"
    },
    {
      "anonymous": false,
      "inputs": [
        {
          "indexed": true,
          "internalType": "bytes32",
          "name": "key",
          "type": "bytes32"
        },
        {
          "indexed": false,
          "internalType": "uint256",
          "name": "payout",
          "type": "uint256"
        }
      ],
      "name": "ShortClosed",
      "type": "event"
    },
    {
      "anonymous": false,
      "inputs": [
        {
          "indexed": true,
          "internalType": "bytes32",
          "name": "key",
          "type": "bytes32"
        },
        {
          "indexed": true,
          "internalType": "address",
          "name": "owner",
          "type": "address"
        },
        {
          "indexed": false,
          "internalType": "uint256",
          "name": "margin",
          "type": "uint256"
        },
        {
          "indexed": false,
          "internalType": "uint256",
          "name": "sizeUsdc",
          "type": "uint256"
        },
        {
          "indexed": false,
          "internalType": "uint256",
          "name": "entryPrice8",
          "type": "uint256"
        }
      ],
      "name": "ShortOpened",
      "type": "event"
    },
    {
      "inputs": [],
      "name": "MAX_LEVERAGE",
      "outputs": [
        {
          "internalType": "uint8",
          "name": "",
          "type": "uint8"
        }
      ],
      "stateMutability": "view",
      "type": "function"
    },
    {
      "inputs": [
        {
          "internalType": "bytes32",
          "name": "key",
          "type": "bytes32"
        }
      ],
      "name": "accruedFunding",
      "outputs": [
        {
          "internalType": "uint256",
          "name": "",
          "type": "uint256"
        }
      ],
      "stateMutability": "view",
      "type": "function"
    },
    {
      "inputs": [
        {
          "internalType": "bytes32",
          "name": "key",
          "type": "bytes32"
        }
      ],
      "name": "claimFunding",
      "outputs": [
        {
          "internalType": "uint256",
          "name": "amount",
          "type": "uint256"
        }
      ],
      "stateMutability": "nonpayable",
      "type": "function"
    },
    {
      "inputs": [
        {
          "internalType": "bytes32",
          "name": "key",
          "type": "bytes32"
        }
      ],
      "name": "closeShort",
      "outputs": [
        {
          "internalType": "uint256",
          "name": "payout",
          "type": "uint256"
        }
      ],
      "stateMutability": "nonpayable",
      "type": "function"
    },
    {
      "inputs": [],
      "name": "fundingIndex",
      "outputs": [
        {
          "internalType": "uint256",
          "name": "",
          "type": "uint256"
        }
      ],
      "stateMutability": "view",
      "type": "function"
    },
    {
      "inputs": [],
      "name": "marketId",
      "outputs": [
        {
          "internalType": "bytes32",
          "name": "",
          "type": "bytes32"
        }
      ],
      "stateMutability": "view",
      "type": "function"
    },
    {
      "inputs": [],
      "name": "nonce",
      "outputs": [
        {
          "internalType": "uint256",
          "name": "",
          "type": "uint256"
        }
      ],
      "stateMutability": "view",
      "type": "function"
    },
    {
      "inputs": [
        {
          "internalType": "uint256",
          "name": "marginUsdc",
          "type": "uint256"
        },
        {
          "internalType": "uint256",
          "name": "sizeUsdc",
          "type": "uint256"
        }
      ],
      "name": "openShort",
      "outputs": [
        {
          "internalType": "bytes32",
          "name": "key",
          "type": "bytes32"
        }
      ],
      "stateMutability": "nonpayable",
      "type": "function"
    },
    {
      "inputs": [],
      "name": "oracle",
      "outputs": [
        {
          "internalType": "contract IPriceOracle",
          "name": "",
          "type": "address"
        }
      ],
      "stateMutability": "view",
      "type": "function"
    },
    {
      "inputs": [],
      "name": "owner",
      "outputs": [
        {
          "internalType": "address",
          "name": "",
          "type": "address"
        }
      ],
      "stateMutability": "view",
      "type": "function"
    },
    {
      "inputs": [
        {
          "internalType": "uint256",
          "name": "rateBps",
          "type": "uint256"
        }
      ],
      "name": "pokeFunding",
      "outputs": [],
      "stateMutability": "nonpayable",
      "type": "function"
    },
    {
      "inputs": [
        {
          "internalType": "bytes32",
          "name": "key",
          "type": "bytes32"
        }
      ],
      "name": "positionValueUsdc",
      "outputs": [
        {
          "internalType": "uint256",
          "name": "",
          "type": "uint256"
        }
      ],
      "stateMutability": "view",
      "type": "function"
    },
    {
      "inputs": [
        {
          "internalType": "bytes32",
          "name": "",
          "type": "bytes32"
        }
      ],
      "name": "positions",
      "outputs": [
        {
          "internalType": "address",
          "name": "owner",
          "type": "address"
        },
        {
          "internalType": "uint256",
          "name": "margin",
          "type": "uint256"
        },
        {
          "internalType": "uint256",
          "name": "sizeUsdc",
          "type": "uint256"
        },
        {
          "internalType": "uint256",
          "name": "entryPrice8",
          "type": "uint256"
        },
        {
          "internalType": "uint256",
          "name": "entryFundingIndex",
          "type": "uint256"
        },
        {
          "internalType": "bool",
          "name": "open",
          "type": "bool"
        }
      ],
      "stateMutability": "view",
      "type": "function"
    },
    {
      "inputs": [
        {
          "internalType": "bytes32",
          "name": "key",
          "type": "bytes32"
        }
      ],
      "name": "pricePnl",
      "outputs": [
        {
          "internalType": "int256",
          "name": "",
          "type": "int256"
        }
      ],
      "stateMutability": "view",
      "type": "function"
    },
    {
      "inputs": [],
      "name": "renounceOwnership",
      "outputs": [],
      "stateMutability": "nonpayable",
      "type": "function"
    },
    {
      "inputs": [
        {
          "internalType": "address",
          "name": "newOwner",
          "type": "address"
        }
      ],
      "name": "transferOwnership",
      "outputs": [],
      "stateMutability": "nonpayable",
      "type": "function"
    },
    {
      "inputs": [],
      "name": "usdc",
      "outputs": [
        {
          "internalType": "contract IERC20",
          "name": "",
          "type": "address"
        }
      ],
      "stateMutability": "view",
      "type": "function"
    }
  ],
  "bytecode": "0x60e06040523480156200001157600080fd5b506040516200108538038062001085833981016040819052620000349162000152565b806001600160a01b0381166200006557604051631e4fbdf760e01b8152600060048201526024015b60405180910390fd5b6200007081620000e9565b506001600160a01b038416158015906200009257506001600160a01b03831615155b620000cc5760405162461bcd60e51b81526020600482015260096024820152683d32b9379030b2323960b91b60448201526064016200005c565b506001600160a01b03928316608052911660a05260c052620001ae565b600080546001600160a01b038381166001600160a01b0319831681178455604051919092169283917f8be0079c531659141344cd1fd0a4f28419497f9722a3daafe3b4186f6b6457e09190a35050565b6001600160a01b03811681146200014f57600080fd5b50565b600080600080608085870312156200016957600080fd5b8451620001768162000139565b6020860151909450620001898162000139565b604086015160608701519194509250620001a38162000139565b939692955090935050565b60805160a05160c051610e766200020f6000396000818161024101526103ae0152600081816102700152818161044b0152818161059a01526109f701526000818161013b0152818161037e01528181610724015261082a0152610e766000f3fe608060405234801561001057600080fd5b506004361061010b5760003560e01c80637dc0d1d0116100a25780639b45ec97116100715780639b45ec97146102bf578063affed0e0146102d9578063d566e72e146102e2578063df3a19c0146102f5578063f2fde38b1461030857600080fd5b80637dc0d1d01461026b5780638da5cb5b14610292578063941ac06a146102a357806399be9632146102b657600080fd5b806364d8286f116100de57806364d8286f1461021457806365ac3086146102275780636ed71ede1461023c578063715018a61461026357600080fd5b80631266a619146101105780633e413bee14610136578063460e8b8914610175578063514ea4bf14610188575b600080fd5b61012361011e366004610c7a565b61031b565b6040519081526020015b60405180910390f35b61015d7f000000000000000000000000000000000000000000000000000000000000000081565b6040516001600160a01b03909116815260200161012d565b610123610183366004610c9c565b61063e565b6101db610196366004610c9c565b60036020819052600091825260409091208054600182015460028301549383015460048401546005909401546001600160a01b03909316949193919290919060ff1686565b604080516001600160a01b03909716875260208701959095529385019290925260608401526080830152151560a082015260c00161012d565b610123610222366004610c9c565b61078c565b61023a610235366004610c9c565b610891565b005b6101237f000000000000000000000000000000000000000000000000000000000000000081565b61023a6108f0565b61015d7f000000000000000000000000000000000000000000000000000000000000000081565b6000546001600160a01b031661015d565b6101236102b1366004610c9c565b610904565b61012360015481565b6102c7600a81565b60405160ff909116815260200161012d565b61012360025481565b6101236102f0366004610c9c565b61095c565b610123610303366004610c9c565b6109c7565b61023a610316366004610cb5565b610aa6565b6000821580610328575081155b1561034657604051631f2a200560e01b815260040160405180910390fd5b610351600a84610cf4565b8211156103715760405163522007a560e01b815260040160405180910390fd5b6103a66001600160a01b037f000000000000000000000000000000000000000000000000000000000000000016333086610ae9565b6002805433917f0000000000000000000000000000000000000000000000000000000000000000919060006103da83610d11565b9091555060405160609390931b6bffffffffffffffffffffffff19166020840152603483019190915260548201526074016040516020818303038152906040528051906020012090506040518060c00160405280336001600160a01b031681526020018481526020018381526020017f00000000000000000000000000000000000000000000000000000000000000006001600160a01b03166398d5fdca6040518163ffffffff1660e01b8152600401602060405180830381865afa1580156104a7573d6000803e3d6000fd5b505050506040513d601f19601f820116820180604052508101906104cb9190610d2a565b81526020016001548152602001600115158152506003600083815260200190815260200160002060008201518160000160006101000a8154816001600160a01b0302191690836001600160a01b031602179055506020820151816001015560408201518160020155606082015181600301556080820151816004015560a08201518160050160006101000a81548160ff021916908315150217905550905050336001600160a01b0316817f7039221ded3c81d6f123473cd272706792d0bb6084cca9d75ab6bc92f35738aa85857f00000000000000000000000000000000000000000000000000000000000000006001600160a01b03166398d5fdca6040518163ffffffff1660e01b8152600401602060405180830381865afa1580156105f6573d6000803e3d6000fd5b505050506040513d601f19601f8201168201806040525081019061061a9190610d2a565b6040805193845260208401929092529082015260600160405180910390a392915050565b60008181526003602052604081205482906001600160a01b03163314610677576040516370d645e360e01b815260040160405180910390fd5b60008181526003602052604090206005015460ff166106a957604051631bb5f5b360e31b815260040160405180910390fd5b60006106b484610904565b6106bd856109c7565b6000868152600360205260409020600101546106d99190610d43565b6106e39190610d43565b9050600081136106f45760006106f6565b805b6000858152600360205260409020600501805460ff191690559250821561074b5761074b6001600160a01b037f0000000000000000000000000000000000000000000000000000000000000000163385610b56565b837ff9234e9672ea5fc57d5562fd989a8dd778e0768560424f7ae6a573c61174863f8460405161077d91815260200190565b60405180910390a25050919050565b60008181526003602052604081205482906001600160a01b031633146107c5576040516370d645e360e01b815260040160405180910390fd5b60008181526003602052604090206005015460ff166107f757604051631bb5f5b360e31b815260040160405180910390fd5b61080083610904565b60015460008581526003602052604090206004015591508115610851576108516001600160a01b037f0000000000000000000000000000000000000000000000000000000000000000163384610b56565b827f99142975638856683690b8827865d462224f13ecb05821458f8185166ce508f38360405161088391815260200190565b60405180910390a250919050565b610899610b8c565b80600160008282546108ab9190610d6b565b90915550506001546040805183815260208101929092527faf20a4013bb3534bf0f3daffc03e13c6c20297a0eaf5a6802dd9aa9457692945910160405180910390a150565b6108f8610b8c565b6109026000610bb9565b565b6000818152600360205260408120600581015460ff166109275750600092915050565b612710816004015460015461093c9190610d7e565b826002015461094b9190610cf4565b6109559190610da7565b9392505050565b6000818152600360205260408120600581015460ff1661097f5750600092915050565b600061098a84610904565b610993856109c7565b83600101546109a29190610d43565b6109ac9190610d43565b9050600081136109bd5760006109bf565b805b949350505050565b6000818152600360205260408120600581015460ff166109ea5750600092915050565b60008160030154905060007f00000000000000000000000000000000000000000000000000000000000000006001600160a01b03166398d5fdca6040518163ffffffff1660e01b8152600401602060405180830381865afa158015610a53573d6000803e3d6000fd5b505050506040513d601f19601f82011682018060405250810190610a779190610d2a565b905081610a848282610dbb565b8460020154610a939190610de2565b610a9d9190610e12565b95945050505050565b610aae610b8c565b6001600160a01b038116610add57604051631e4fbdf760e01b8152600060048201526024015b60405180910390fd5b610ae681610bb9565b50565b6040516001600160a01b038481166024830152838116604483015260648201839052610b509186918216906323b872dd906084015b604051602081830303815290604052915060e01b6020820180516001600160e01b038381831617835250505050610c09565b50505050565b6040516001600160a01b03838116602483015260448201839052610b8791859182169063a9059cbb90606401610b1e565b505050565b6000546001600160a01b031633146109025760405163118cdaa760e01b8152336004820152602401610ad4565b600080546001600160a01b038381166001600160a01b0319831681178455604051919092169283917f8be0079c531659141344cd1fd0a4f28419497f9722a3daafe3b4186f6b6457e09190a35050565b600080602060008451602086016000885af180610c2c576040513d6000823e3d81fd5b50506000513d91508115610c44578060011415610c51565b6001600160a01b0384163b155b15610b5057604051635274afe760e01b81526001600160a01b0385166004820152602401610ad4565b60008060408385031215610c8d57600080fd5b50508035926020909101359150565b600060208284031215610cae57600080fd5b5035919050565b600060208284031215610cc757600080fd5b81356001600160a01b038116811461095557600080fd5b634e487b7160e01b600052601160045260246000fd5b8082028115828204841417610d0b57610d0b610cde565b92915050565b600060018201610d2357610d23610cde565b5060010190565b600060208284031215610d3c57600080fd5b5051919050565b8082018281126000831280158216821582161715610d6357610d63610cde565b505092915050565b80820180821115610d0b57610d0b610cde565b81810381811115610d0b57610d0b610cde565b634e487b7160e01b600052601260045260246000fd5b600082610db657610db6610d91565b500490565b8181036000831280158383131683831282161715610ddb57610ddb610cde565b5092915050565b80820260008212600160ff1b84141615610dfe57610dfe610cde565b8181058314821517610d0b57610d0b610cde565b600082610e2157610e21610d91565b600160ff1b821460001984141615610e3b57610e3b610cde565b50059056fea264697066735822122068bf4a9214b670f07431acdd63cf9b334fc851ec8f40945b0aae5ff4c61ba40d64736f6c63430008180033",
  "linkReferences": {},
  "deployedLinkReferences": {}
}